{
    "contractName": "PokemonFactory",
    "abi": [
        {
            "anonymous": false,
            "inputs": [
                {
                    "components": [
                        {
                            "internalType": "uint256",
                            "name": "id",
                            "type": "uint256"
                        },
                        {
                            "internalType": "string",
                            "name": "name",
                            "type": "string"
                        },
                        {
                            "components": [
                                {
                                    "internalType": "string",
                                    "name": "name",
                                    "type": "string"
                                },
                                {
                                    "internalType": "string",
                                    "name": "description",
                                    "type": "string"
                                }
                            ],
                            "internalType": "struct PokemonFactory.Ability[]",
                            "name": "abilities",
                            "type": "tuple[]"
                        }
                    ],
                    "indexed": false,
                    "internalType": "struct PokemonFactory.Pokemon",
                    "name": "_pokemon",
                    "type": "tuple"
                }
            ],
            "name": "eventNewPokemon",
            "type": "event"
        },
        {
            "inputs": [
                {
                    "internalType": "string",
                    "name": "_name",
                    "type": "string"
                },
                {
                    "internalType": "uint256",
                    "name": "_id",
                    "type": "uint256"
                },
                {
                    "internalType": "string[]",
                    "name": "_abilitiesName",
                    "type": "string[]"
                },
                {
                    "internalType": "string[]",
                    "name": "_abilitiesDescription",
                    "type": "string[]"
                }
            ],
            "name": "createPokemon",
            "outputs": [],
            "stateMutability": "nonpayable",
            "type": "function"
        },
        {
            "inputs": [],
            "name": "getAllPokemons",
            "outputs": [
                {
                    "components": [
                        {
                            "internalType": "uint256",
                            "name": "id",
                            "type": "uint256"
                        },
                        {
                            "internalType": "string",
                            "name": "name",
                            "type": "string"
                        },
                        {
                            "components": [
                                {
                                    "internalType": "string",
                                    "name": "name",
                                    "type": "string"
                                },
                                {
                                    "internalType": "string",
                                    "name": "description",
                                    "type": "string"
                                }
                            ],
                            "internalType": "struct PokemonFactory.Ability[]",
                            "name": "abilities",
                            "type": "tuple[]"
                        }
                    ],
                    "internalType": "struct PokemonFactory.Pokemon[]",
                    "name": "",
                    "type": "tuple[]"
                }
            ],
            "stateMutability": "view",
            "type": "function"
        },
        {
            "inputs": [],
            "name": "getResult",
            "outputs": [
                {
                    "internalType": "uint256",
                    "name": "product",
                    "type": "uint256"
                },
                {
                    "internalType": "uint256",
                    "name": "sum",
                    "type": "uint256"
                }
            ],
            "stateMutability": "pure",
            "type": "function"
        },
        {
            "inputs": [
                {
                    "internalType": "uint256",
                    "name": "",
                    "type": "uint256"
                }
            ],
            "name": "pokemonToOwner",
            "outputs": [
                {
                    "internalType": "address",
                    "name": "",
                    "type": "address"
                }
            ],
            "stateMutability": "view",
            "type": "function"
        }
    ],
    "bytecode": "608060405234801561001057600080fd5b50610c99806100206000396000f3fe608060405234801561001057600080fd5b506004361061004c5760003560e01c80632f7467b3146100515780635e91679014610097578063de292789146100ac578063e7a54976146100c9575b600080fd5b61007a61005f366004610635565b6001602052600090815260409020546001600160a01b031681565b6040516001600160a01b0390911681526020015b60405180910390f35b61009f6100de565b60405161008e919061069b565b6100b461035c565b6040805192835260208301919091520161008e565b6100dc6100d73660046108e3565b610381565b005b60606000805480602002602001604051908101604052809291908181526020016000905b8282101561035357838290600052602060002090600302016040518060600160405290816000820154815260200160018201805461013f90610975565b80601f016020809104026020016040519081016040528092919081815260200182805461016b90610975565b80156101b85780601f1061018d576101008083540402835291602001916101b8565b820191906000526020600020905b81548152906001019060200180831161019b57829003601f168201915b5050505050815260200160028201805480602002602001604051908101604052809291908181526020016000905b8282101561033c578382906000526020600020906002020160405180604001604052908160008201805461021990610975565b80601f016020809104026020016040519081016040528092919081815260200182805461024590610975565b80156102925780601f1061026757610100808354040283529160200191610292565b820191906000526020600020905b81548152906001019060200180831161027557829003601f168201915b505050505081526020016001820180546102ab90610975565b80601f01602080910402602001604051908101604052809291908181526020018280546102d790610975565b80156103245780601f106102f957610100808354040283529160200191610324565b820191906000526020600020905b81548152906001019060200180831161030757829003601f168201915b505050505081525050815260200190600101906101e6565b505050508152505081526020019060010190610102565b50505050905090565b6000806001600261036d81836109c5565b935061037981836109e4565b925050509091565b600083116103e15760405162461bcd60e51b815260206004820152602260248201527f456c20696420696e6772657361646f206465626520736572206d61796f722061604482015261020360f41b60648201526084015b60405180910390fd5b6002845110156104595760405162461bcd60e51b815260206004820152603760248201527f456c206e6f6d6272652064656c20506f6b656d6f6e20646562652074656e657260448201527f206d617320646520646f7320636172656163746572657300000000000000000060648201526084016103d8565b6000805460018101808355828052909186918390811061047b5761047b6109fc565b906000526020600020906003020160010190816104989190610a61565b5083600082815481106104ad576104ad6109fc565b60009182526020909120600390910201556104c9818484610565565b7ff89f3dd11e400fd1f329abf833907aba404a8d7a5a8131632053a1e982e9daac600082815481106104fd576104fd6109fc565b90600052602060002090600302016040516105189190610b9e565b60405180910390a1600084815260016020908152604080832080546001600160a01b0319163390811790915583526002909152812080549161055983610c4a565b91905055505050505050565b60005b825181101561062f5760008481548110610584576105846109fc565b906000526020600020906003020160020160405180604001604052808584815181106105b2576105b26109fc565b602002602001015181526020018484815181106105d1576105d16109fc565b60209081029190910181015190915282546001810184556000938452922081519192600202019081906106049082610a61565b50602082015160018201906106199082610a61565b505050808061062790610c4a565b915050610568565b50505050565b60006020828403121561064757600080fd5b5035919050565b6000815180845260005b8181101561067457602081850181015186830182015201610658565b81811115610686576000602083870101525b50601f01601f19169290920160200192915050565b60006020808301818452808551808352604092508286019150828160051b87010184880160005b8381101561077f57603f19898403018552815160608151855288820151818a8701526106f08287018261064e565b92890151868403878b01528051808552908b019392508a83019150600581901b83018b0160005b8281101561076857848203601f19018452855180518d845261073b8e85018261064e565b90508e82015191508381038f850152610754818361064e565b978f0197958f019593505050600101610717565b50988b0198965050509288019250506001016106c2565b509098975050505050505050565b634e487b7160e01b600052604160045260246000fd5b604051601f8201601f1916810167ffffffffffffffff811182821017156107cc576107cc61078d565b604052919050565b600082601f8301126107e557600080fd5b813567ffffffffffffffff8111156107ff576107ff61078d565b610812601f8201601f19166020016107a3565b81815284602083860101111561082757600080fd5b816020850160208301376000918101602001919091529392505050565b600082601f83011261085557600080fd5b8135602067ffffffffffffffff808311156108725761087261078d565b8260051b6108818382016107a3565b938452858101830193838101908886111561089b57600080fd5b84880192505b858310156108d7578235848111156108b95760008081fd5b6108c78a87838c01016107d4565b83525091840191908401906108a1565b98975050505050505050565b600080600080608085870312156108f957600080fd5b843567ffffffffffffffff8082111561091157600080fd5b61091d888389016107d4565b955060208701359450604087013591508082111561093a57600080fd5b61094688838901610844565b9350606087013591508082111561095c57600080fd5b5061096987828801610844565b91505092959194509250565b600181811c9082168061098957607f821691505b6020821081036109a957634e487b7160e01b600052602260045260246000fd5b50919050565b634e487b7160e01b600052601160045260246000fd5b60008160001904831182151516156109df576109df6109af565b500290565b600082198211156109f7576109f76109af565b500190565b634e487b7160e01b600052603260045260246000fd5b601f821115610a5c57600081815260208120601f850160051c81016020861015610a395750805b601f850160051c820191505b81811015610a5857828155600101610a45565b5050505b505050565b815167ffffffffffffffff811115610a7b57610a7b61078d565b610a8f81610a898454610975565b84610a12565b602080601f831160018114610ac45760008415610aac5750858301515b600019600386901b1c1916600185901b178555610a58565b600085815260208120601f198616915b82811015610af357888601518255948401946001909101908401610ad4565b5085821015610b115787850151600019600388901b60f8161c191681555b5050505050600190811b01905550565b60008154610b2e81610975565b808552602060018381168015610b4b5760018114610b6557610b93565b60ff1985168884015283151560051b880183019550610b93565b866000528260002060005b85811015610b8b5781548a8201860152908301908401610b70565b890184019650505b505050505092915050565b6000602080835283548184015260016040606081860152610bc460808601838801610b21565b6002808801601f19808985030160608a01528382548086528886019150888160051b8701018460005289600020945060005b82811015610c395784888303018452888252610c1489830187610b21565b8281038c840152610c27818c8901610b21565b96880196948c01949250508901610bf6565b509c9b505050505050505050505050565b600060018201610c5c57610c5c6109af565b506001019056fea264697066735822122061a2a37e782cc57c0ffac148d5ef4566c2bab1f3fa82c9d0d77c49145792489164736f6c634300080f0033",
    "sourcePath": "/home/diego/Documentos/balor/code/eth-program/solidity-eth-challenge/PokemonFactory.sol",
    "compiler": {
        "name": "solc",
        "version": "0.8.15+commit.e14f2714"
    },
    "functionHashes": {
        "createPokemon(string,uint256,string[],string[])": "e7a54976",
        "getAllPokemons()": "5e916790",
        "getResult()": "de292789",
        "pokemonToOwner(uint256)": "2f7467b3"
    },
    "gasEstimates": {
        "creation": {
            "codeDepositCost": "645000",
            "executionCost": "676",
            "totalCost": "645676"
        },
        "external": {
            "createPokemon(string,uint256,string[],string[])": "infinite",
            "getAllPokemons()": "infinite",
            "getResult()": "441",
            "pokemonToOwner(uint256)": "2444"
        },
        "internal": {
            "addAbilitiesPokemon(uint256,string memory[] memory,string memory[] memory)": "infinite"
        }
    }
}