{
	"PokemonFactory.sol": {
		"PokemonFactory": {
			"abi": [
				{
					"anonymous": false,
					"inputs": [
						{
							"indexed": false,
							"internalType": "string",
							"name": "newPokemon",
							"type": "string"
						}
					],
					"name": "eventNewPokemon",
					"type": "event"
				},
				{
					"inputs": [
						{
							"internalType": "string",
							"name": "_name",
							"type": "string"
						},
						{
							"internalType": "uint256",
							"name": "_id",
							"type": "uint256"
						}
					],
					"name": "createPokemon",
					"outputs": [],
					"stateMutability": "nonpayable",
					"type": "function"
				},
				{
					"inputs": [],
					"name": "getAllPokemons",
					"outputs": [
						{
							"components": [
								{
									"internalType": "uint256",
									"name": "id",
									"type": "uint256"
								},
								{
									"internalType": "string",
									"name": "name",
									"type": "string"
								}
							],
							"internalType": "struct PokemonFactory.Pokemon[]",
							"name": "",
							"type": "tuple[]"
						}
					],
					"stateMutability": "view",
					"type": "function"
				},
				{
					"inputs": [],
					"name": "getResult",
					"outputs": [
						{
							"internalType": "uint256",
							"name": "product",
							"type": "uint256"
						},
						{
							"internalType": "uint256",
							"name": "sum",
							"type": "uint256"
						}
					],
					"stateMutability": "pure",
					"type": "function"
				},
				{
					"inputs": [
						{
							"internalType": "uint256",
							"name": "",
							"type": "uint256"
						}
					],
					"name": "pokemonToOwner",
					"outputs": [
						{
							"internalType": "address",
							"name": "",
							"type": "address"
						}
					],
					"stateMutability": "view",
					"type": "function"
				}
			],
			"devdoc": {
				"kind": "dev",
				"methods": {},
				"version": 1
			},
			"evm": {
				"assembly": "    /* \"PokemonFactory.sol\":70:918  contract PokemonFactory {... */\n  mstore(0x40, 0x80)\n  callvalue\n  dup1\n  iszero\n  tag_1\n  jumpi\n  0x00\n  dup1\n  revert\ntag_1:\n  pop\n  dataSize(sub_0)\n  dup1\n  dataOffset(sub_0)\n  0x00\n  codecopy\n  0x00\n  return\nstop\n\nsub_0: assembly {\n        /* \"PokemonFactory.sol\":70:918  contract PokemonFactory {... */\n      mstore(0x40, 0x80)\n      callvalue\n      dup1\n      iszero\n      tag_1\n      jumpi\n      0x00\n      dup1\n      revert\n    tag_1:\n      pop\n      jumpi(tag_2, lt(calldatasize, 0x04))\n      shr(0xe0, calldataload(0x00))\n      dup1\n      0x0a3bd50b\n      eq\n      tag_3\n      jumpi\n      dup1\n      0x2f7467b3\n      eq\n      tag_4\n      jumpi\n      dup1\n      0x5e916790\n      eq\n      tag_5\n      jumpi\n      dup1\n      0xde292789\n      eq\n      tag_6\n      jumpi\n    tag_2:\n      0x00\n      dup1\n      revert\n        /* \"PokemonFactory.sol\":342:657  function createPokemon (string memory _name, uint _id) public {... */\n    tag_3:\n      tag_7\n      0x04\n      dup1\n      calldatasize\n      sub\n      dup2\n      add\n      swap1\n      tag_8\n      swap2\n      swap1\n      tag_9\n      jump\t// in\n    tag_8:\n      tag_10\n      jump\t// in\n    tag_7:\n      stop\n        /* \"PokemonFactory.sol\":188:235  mapping (uint => address) public pokemonToOwner */\n    tag_4:\n      tag_11\n      0x04\n      dup1\n      calldatasize\n      sub\n      dup2\n      add\n      swap1\n      tag_12\n      swap2\n      swap1\n      tag_13\n      jump\t// in\n    tag_12:\n      tag_14\n      jump\t// in\n    tag_11:\n      mload(0x40)\n      tag_15\n      swap2\n      swap1\n      tag_16\n      jump\t// in\n    tag_15:\n      mload(0x40)\n      dup1\n      swap2\n      sub\n      swap1\n      return\n        /* \"PokemonFactory.sol\":663:758  function getAllPokemons() public view returns (Pokemon[] memory) {... */\n    tag_5:\n      tag_17\n      tag_18\n      jump\t// in\n    tag_17:\n      mload(0x40)\n      tag_19\n      swap2\n      swap1\n      tag_20\n      jump\t// in\n    tag_19:\n      mload(0x40)\n      dup1\n      swap2\n      sub\n      swap1\n      return\n        /* \"PokemonFactory.sol\":765:915  function getResult() public pure returns(uint product, uint sum){... */\n    tag_6:\n      tag_21\n      tag_22\n      jump\t// in\n    tag_21:\n      mload(0x40)\n      tag_23\n      swap3\n      swap2\n      swap1\n      tag_24\n      jump\t// in\n    tag_23:\n      mload(0x40)\n      dup1\n      swap2\n      sub\n      swap1\n      return\n        /* \"PokemonFactory.sol\":342:657  function createPokemon (string memory _name, uint _id) public {... */\n    tag_10:\n        /* \"PokemonFactory.sol\":435:436  0 */\n      0x00\n        /* \"PokemonFactory.sol\":429:432  _id */\n      dup2\n        /* \"PokemonFactory.sol\":429:436  _id > 0 */\n      gt\n        /* \"PokemonFactory.sol\":412:486  require(... */\n      tag_26\n      jumpi\n      mload(0x40)\n      0x08c379a000000000000000000000000000000000000000000000000000000000\n      dup2\n      mstore\n      0x04\n      add\n      tag_27\n      swap1\n      tag_28\n      jump\t// in\n    tag_27:\n      mload(0x40)\n      dup1\n      swap2\n      sub\n      swap1\n      revert\n    tag_26:\n        /* \"PokemonFactory.sol\":496:504  pokemons */\n      0x00\n        /* \"PokemonFactory.sol\":510:529  Pokemon(_id, _name) */\n      mload(0x40)\n      dup1\n      0x40\n      add\n      0x40\n      mstore\n      dup1\n        /* \"PokemonFactory.sol\":518:521  _id */\n      dup4\n        /* \"PokemonFactory.sol\":510:529  Pokemon(_id, _name) */\n      dup2\n      mstore\n      0x20\n      add\n        /* \"PokemonFactory.sol\":523:528  _name */\n      dup5\n        /* \"PokemonFactory.sol\":510:529  Pokemon(_id, _name) */\n      dup2\n      mstore\n      pop\n        /* \"PokemonFactory.sol\":496:530  pokemons.push(Pokemon(_id, _name)) */\n      swap1\n      dup1\n      0x01\n      dup2\n      sload\n      add\n      dup1\n      dup3\n      sstore\n      dup1\n      swap2\n      pop\n      pop\n      0x01\n      swap1\n      sub\n      swap1\n      0x00\n      mstore\n      keccak256(0x00, 0x20)\n      swap1\n      0x02\n      mul\n      add\n      0x00\n      swap1\n      swap2\n      swap1\n      swap2\n      swap1\n      swap2\n      pop\n      0x00\n      dup3\n      add\n      mload\n      dup2\n      0x00\n      add\n      sstore\n      0x20\n      dup3\n      add\n      mload\n      dup2\n      0x01\n      add\n      swap1\n      dup1\n      mload\n      swap1\n      0x20\n      add\n      swap1\n      tag_30\n      swap3\n      swap2\n      swap1\n      tag_31\n      jump\t// in\n    tag_30:\n      pop\n      pop\n      pop\n        /* \"PokemonFactory.sol\":562:572  msg.sender */\n      caller\n        /* \"PokemonFactory.sol\":540:554  pokemonToOwner */\n      0x01\n        /* \"PokemonFactory.sol\":540:559  pokemonToOwner[_id] */\n      0x00\n        /* \"PokemonFactory.sol\":555:558  _id */\n      dup4\n        /* \"PokemonFactory.sol\":540:559  pokemonToOwner[_id] */\n      dup2\n      mstore\n      0x20\n      add\n      swap1\n      dup2\n      mstore\n      0x20\n      add\n      0x00\n      keccak256\n      0x00\n        /* \"PokemonFactory.sol\":540:572  pokemonToOwner[_id] = msg.sender */\n      0x0100\n      exp\n      dup2\n      sload\n      dup2\n      0xffffffffffffffffffffffffffffffffffffffff\n      mul\n      not\n      and\n      swap1\n      dup4\n      0xffffffffffffffffffffffffffffffffffffffff\n      and\n      mul\n      or\n      swap1\n      sstore\n      pop\n        /* \"PokemonFactory.sol\":582:599  ownerPokemonCount */\n      0x02\n        /* \"PokemonFactory.sol\":582:611  ownerPokemonCount[msg.sender] */\n      0x00\n        /* \"PokemonFactory.sol\":600:610  msg.sender */\n      caller\n        /* \"PokemonFactory.sol\":582:611  ownerPokemonCount[msg.sender] */\n      0xffffffffffffffffffffffffffffffffffffffff\n      and\n      0xffffffffffffffffffffffffffffffffffffffff\n      and\n      dup2\n      mstore\n      0x20\n      add\n      swap1\n      dup2\n      mstore\n      0x20\n      add\n      0x00\n      keccak256\n      0x00\n        /* \"PokemonFactory.sol\":582:613  ownerPokemonCount[msg.sender]++ */\n      dup2\n      sload\n      dup1\n      swap3\n      swap2\n      swap1\n      tag_32\n      swap1\n      tag_33\n      jump\t// in\n    tag_32:\n      swap2\n      swap1\n      pop\n      sstore\n      pop\n        /* \"PokemonFactory.sol\":628:650  eventNewPokemon(_name) */\n      0x9018649032bdfabe07c5fa8e887df7dda6baf8eac2ef8026b39eebed1fdadeff\n        /* \"PokemonFactory.sol\":644:649  _name */\n      dup3\n        /* \"PokemonFactory.sol\":628:650  eventNewPokemon(_name) */\n      mload(0x40)\n      tag_34\n      swap2\n      swap1\n      tag_35\n      jump\t// in\n    tag_34:\n      mload(0x40)\n      dup1\n      swap2\n      sub\n      swap1\n      log1\n        /* \"PokemonFactory.sol\":342:657  function createPokemon (string memory _name, uint _id) public {... */\n      pop\n      pop\n      jump\t// out\n        /* \"PokemonFactory.sol\":188:235  mapping (uint => address) public pokemonToOwner */\n    tag_14:\n      mstore(0x20, 0x01)\n      dup1\n      0x00\n      mstore\n      keccak256(0x00, 0x40)\n      0x00\n      swap2\n      pop\n      sload\n      swap1\n      0x0100\n      exp\n      swap1\n      div\n      0xffffffffffffffffffffffffffffffffffffffff\n      and\n      dup2\n      jump\t// out\n        /* \"PokemonFactory.sol\":663:758  function getAllPokemons() public view returns (Pokemon[] memory) {... */\n    tag_18:\n        /* \"PokemonFactory.sol\":710:726  Pokemon[] memory */\n      0x60\n        /* \"PokemonFactory.sol\":743:751  pokemons */\n      0x00\n        /* \"PokemonFactory.sol\":736:751  return pokemons */\n      dup1\n      sload\n      dup1\n      0x20\n      mul\n      0x20\n      add\n      mload(0x40)\n      swap1\n      dup2\n      add\n      0x40\n      mstore\n      dup1\n      swap3\n      swap2\n      swap1\n      dup2\n      dup2\n      mstore\n      0x20\n      add\n      0x00\n      swap1\n    tag_37:\n      dup3\n      dup3\n      lt\n      iszero\n      tag_38\n      jumpi\n      dup4\n      dup3\n      swap1\n      0x00\n      mstore\n      keccak256(0x00, 0x20)\n      swap1\n      0x02\n      mul\n      add\n      mload(0x40)\n      dup1\n      0x40\n      add\n      0x40\n      mstore\n      swap1\n      dup2\n      0x00\n      dup3\n      add\n      sload\n      dup2\n      mstore\n      0x20\n      add\n      0x01\n      dup3\n      add\n      dup1\n      sload\n      tag_40\n      swap1\n      tag_41\n      jump\t// in\n    tag_40:\n      dup1\n      0x1f\n      add\n      0x20\n      dup1\n      swap2\n      div\n      mul\n      0x20\n      add\n      mload(0x40)\n      swap1\n      dup2\n      add\n      0x40\n      mstore\n      dup1\n      swap3\n      swap2\n      swap1\n      dup2\n      dup2\n      mstore\n      0x20\n      add\n      dup3\n      dup1\n      sload\n      tag_42\n      swap1\n      tag_41\n      jump\t// in\n    tag_42:\n      dup1\n      iszero\n      tag_43\n      jumpi\n      dup1\n      0x1f\n      lt\n      tag_44\n      jumpi\n      0x0100\n      dup1\n      dup4\n      sload\n      div\n      mul\n      dup4\n      mstore\n      swap2\n      0x20\n      add\n      swap2\n      jump(tag_43)\n    tag_44:\n      dup3\n      add\n      swap2\n      swap1\n      0x00\n      mstore\n      keccak256(0x00, 0x20)\n      swap1\n    tag_45:\n      dup2\n      sload\n      dup2\n      mstore\n      swap1\n      0x01\n      add\n      swap1\n      0x20\n      add\n      dup1\n      dup4\n      gt\n      tag_45\n      jumpi\n      dup3\n      swap1\n      sub\n      0x1f\n      and\n      dup3\n      add\n      swap2\n    tag_43:\n      pop\n      pop\n      pop\n      pop\n      pop\n      dup2\n      mstore\n      pop\n      pop\n      dup2\n      mstore\n      0x20\n      add\n      swap1\n      0x01\n      add\n      swap1\n      jump(tag_37)\n    tag_38:\n      pop\n      pop\n      pop\n      pop\n      swap1\n      pop\n        /* \"PokemonFactory.sol\":663:758  function getAllPokemons() public view returns (Pokemon[] memory) {... */\n      swap1\n      jump\t// out\n        /* \"PokemonFactory.sol\":765:915  function getResult() public pure returns(uint product, uint sum){... */\n    tag_22:\n        /* \"PokemonFactory.sol\":806:818  uint product */\n      0x00\n        /* \"PokemonFactory.sol\":820:828  uint sum */\n      dup1\n        /* \"PokemonFactory.sol\":837:843  uint a */\n      0x00\n        /* \"PokemonFactory.sol\":846:847  1 */\n      0x01\n        /* \"PokemonFactory.sol\":837:847  uint a = 1 */\n      swap1\n      pop\n        /* \"PokemonFactory.sol\":856:862  uint b */\n      0x00\n        /* \"PokemonFactory.sol\":865:866  2 */\n      0x02\n        /* \"PokemonFactory.sol\":856:866  uint b = 2 */\n      swap1\n      pop\n        /* \"PokemonFactory.sol\":888:889  b */\n      dup1\n        /* \"PokemonFactory.sol\":884:885  a */\n      dup3\n        /* \"PokemonFactory.sol\":884:889  a * b */\n      tag_47\n      swap2\n      swap1\n      tag_48\n      jump\t// in\n    tag_47:\n        /* \"PokemonFactory.sol\":874:889  product = a * b */\n      swap4\n      pop\n        /* \"PokemonFactory.sol\":907:908  b */\n      dup1\n        /* \"PokemonFactory.sol\":903:904  a */\n      dup3\n        /* \"PokemonFactory.sol\":903:908  a + b */\n      tag_49\n      swap2\n      swap1\n      tag_50\n      jump\t// in\n    tag_49:\n        /* \"PokemonFactory.sol\":897:908  sum = a + b */\n      swap3\n      pop\n        /* \"PokemonFactory.sol\":829:915  {... */\n      pop\n      pop\n        /* \"PokemonFactory.sol\":765:915  function getResult() public pure returns(uint product, uint sum){... */\n      swap1\n      swap2\n      jump\t// out\n    tag_31:\n      dup3\n      dup1\n      sload\n      tag_51\n      swap1\n      tag_41\n      jump\t// in\n    tag_51:\n      swap1\n      0x00\n      mstore\n      keccak256(0x00, 0x20)\n      swap1\n      0x1f\n      add\n      0x20\n      swap1\n      div\n      dup2\n      add\n      swap3\n      dup3\n      tag_53\n      jumpi\n      0x00\n      dup6\n      sstore\n      jump(tag_52)\n    tag_53:\n      dup3\n      0x1f\n      lt\n      tag_54\n      jumpi\n      dup1\n      mload\n      not(0xff)\n      and\n      dup4\n      dup1\n      add\n      or\n      dup6\n      sstore\n      jump(tag_52)\n    tag_54:\n      dup3\n      dup1\n      add\n      0x01\n      add\n      dup6\n      sstore\n      dup3\n      iszero\n      tag_52\n      jumpi\n      swap2\n      dup3\n      add\n    tag_55:\n      dup3\n      dup2\n      gt\n      iszero\n      tag_56\n      jumpi\n      dup3\n      mload\n      dup3\n      sstore\n      swap2\n      0x20\n      add\n      swap2\n      swap1\n      0x01\n      add\n      swap1\n      jump(tag_55)\n    tag_56:\n    tag_52:\n      pop\n      swap1\n      pop\n      tag_57\n      swap2\n      swap1\n      tag_58\n      jump\t// in\n    tag_57:\n      pop\n      swap1\n      jump\t// out\n    tag_58:\n    tag_59:\n      dup1\n      dup3\n      gt\n      iszero\n      tag_60\n      jumpi\n      0x00\n      dup2\n      0x00\n      swap1\n      sstore\n      pop\n      0x01\n      add\n      jump(tag_59)\n    tag_60:\n      pop\n      swap1\n      jump\t// out\n        /* \"#utility.yul\":7:419   */\n    tag_62:\n        /* \"#utility.yul\":85:90   */\n      0x00\n        /* \"#utility.yul\":110:176   */\n      tag_64\n        /* \"#utility.yul\":126:175   */\n      tag_65\n        /* \"#utility.yul\":168:174   */\n      dup5\n        /* \"#utility.yul\":126:175   */\n      tag_66\n      jump\t// in\n    tag_65:\n        /* \"#utility.yul\":110:176   */\n      tag_67\n      jump\t// in\n    tag_64:\n        /* \"#utility.yul\":101:176   */\n      swap1\n      pop\n        /* \"#utility.yul\":199:205   */\n      dup3\n        /* \"#utility.yul\":192:197   */\n      dup2\n        /* \"#utility.yul\":185:206   */\n      mstore\n        /* \"#utility.yul\":237:241   */\n      0x20\n        /* \"#utility.yul\":230:235   */\n      dup2\n        /* \"#utility.yul\":226:242   */\n      add\n        /* \"#utility.yul\":275:278   */\n      dup5\n        /* \"#utility.yul\":266:272   */\n      dup5\n        /* \"#utility.yul\":261:264   */\n      dup5\n        /* \"#utility.yul\":257:273   */\n      add\n        /* \"#utility.yul\":254:279   */\n      gt\n        /* \"#utility.yul\":251:363   */\n      iszero\n      tag_68\n      jumpi\n        /* \"#utility.yul\":282:361   */\n      tag_69\n      tag_70\n      jump\t// in\n    tag_69:\n        /* \"#utility.yul\":251:363   */\n    tag_68:\n        /* \"#utility.yul\":372:413   */\n      tag_71\n        /* \"#utility.yul\":406:412   */\n      dup5\n        /* \"#utility.yul\":401:404   */\n      dup3\n        /* \"#utility.yul\":396:399   */\n      dup6\n        /* \"#utility.yul\":372:413   */\n      tag_72\n      jump\t// in\n    tag_71:\n        /* \"#utility.yul\":91:419   */\n      pop\n        /* \"#utility.yul\":7:419   */\n      swap4\n      swap3\n      pop\n      pop\n      pop\n      jump\t// out\n        /* \"#utility.yul\":439:779   */\n    tag_73:\n        /* \"#utility.yul\":495:500   */\n      0x00\n        /* \"#utility.yul\":544:547   */\n      dup3\n        /* \"#utility.yul\":537:541   */\n      0x1f\n        /* \"#utility.yul\":529:535   */\n      dup4\n        /* \"#utility.yul\":525:542   */\n      add\n        /* \"#utility.yul\":521:548   */\n      slt\n        /* \"#utility.yul\":511:633   */\n      tag_75\n      jumpi\n        /* \"#utility.yul\":552:631   */\n      tag_76\n      tag_77\n      jump\t// in\n    tag_76:\n        /* \"#utility.yul\":511:633   */\n    tag_75:\n        /* \"#utility.yul\":669:675   */\n      dup2\n        /* \"#utility.yul\":656:676   */\n      calldataload\n        /* \"#utility.yul\":694:773   */\n      tag_78\n        /* \"#utility.yul\":769:772   */\n      dup5\n        /* \"#utility.yul\":761:767   */\n      dup3\n        /* \"#utility.yul\":754:758   */\n      0x20\n        /* \"#utility.yul\":746:752   */\n      dup7\n        /* \"#utility.yul\":742:759   */\n      add\n        /* \"#utility.yul\":694:773   */\n      tag_62\n      jump\t// in\n    tag_78:\n        /* \"#utility.yul\":685:773   */\n      swap2\n      pop\n        /* \"#utility.yul\":501:779   */\n      pop\n        /* \"#utility.yul\":439:779   */\n      swap3\n      swap2\n      pop\n      pop\n      jump\t// out\n        /* \"#utility.yul\":785:924   */\n    tag_79:\n        /* \"#utility.yul\":831:836   */\n      0x00\n        /* \"#utility.yul\":869:875   */\n      dup2\n        /* \"#utility.yul\":856:876   */\n      calldataload\n        /* \"#utility.yul\":847:876   */\n      swap1\n      pop\n        /* \"#utility.yul\":885:918   */\n      tag_81\n        /* \"#utility.yul\":912:917   */\n      dup2\n        /* \"#utility.yul\":885:918   */\n      tag_82\n      jump\t// in\n    tag_81:\n        /* \"#utility.yul\":785:924   */\n      swap3\n      swap2\n      pop\n      pop\n      jump\t// out\n        /* \"#utility.yul\":930:1584   */\n    tag_9:\n        /* \"#utility.yul\":1008:1014   */\n      0x00\n        /* \"#utility.yul\":1016:1022   */\n      dup1\n        /* \"#utility.yul\":1065:1067   */\n      0x40\n        /* \"#utility.yul\":1053:1062   */\n      dup4\n        /* \"#utility.yul\":1044:1051   */\n      dup6\n        /* \"#utility.yul\":1040:1063   */\n      sub\n        /* \"#utility.yul\":1036:1068   */\n      slt\n        /* \"#utility.yul\":1033:1152   */\n      iszero\n      tag_84\n      jumpi\n        /* \"#utility.yul\":1071:1150   */\n      tag_85\n      tag_86\n      jump\t// in\n    tag_85:\n        /* \"#utility.yul\":1033:1152   */\n    tag_84:\n        /* \"#utility.yul\":1219:1220   */\n      0x00\n        /* \"#utility.yul\":1208:1217   */\n      dup4\n        /* \"#utility.yul\":1204:1221   */\n      add\n        /* \"#utility.yul\":1191:1222   */\n      calldataload\n        /* \"#utility.yul\":1249:1267   */\n      0xffffffffffffffff\n        /* \"#utility.yul\":1241:1247   */\n      dup2\n        /* \"#utility.yul\":1238:1268   */\n      gt\n        /* \"#utility.yul\":1235:1352   */\n      iszero\n      tag_87\n      jumpi\n        /* \"#utility.yul\":1271:1350   */\n      tag_88\n      tag_89\n      jump\t// in\n    tag_88:\n        /* \"#utility.yul\":1235:1352   */\n    tag_87:\n        /* \"#utility.yul\":1376:1439   */\n      tag_90\n        /* \"#utility.yul\":1431:1438   */\n      dup6\n        /* \"#utility.yul\":1422:1428   */\n      dup3\n        /* \"#utility.yul\":1411:1420   */\n      dup7\n        /* \"#utility.yul\":1407:1429   */\n      add\n        /* \"#utility.yul\":1376:1439   */\n      tag_73\n      jump\t// in\n    tag_90:\n        /* \"#utility.yul\":1366:1439   */\n      swap3\n      pop\n        /* \"#utility.yul\":1162:1449   */\n      pop\n        /* \"#utility.yul\":1488:1490   */\n      0x20\n        /* \"#utility.yul\":1514:1567   */\n      tag_91\n        /* \"#utility.yul\":1559:1566   */\n      dup6\n        /* \"#utility.yul\":1550:1556   */\n      dup3\n        /* \"#utility.yul\":1539:1548   */\n      dup7\n        /* \"#utility.yul\":1535:1557   */\n      add\n        /* \"#utility.yul\":1514:1567   */\n      tag_79\n      jump\t// in\n    tag_91:\n        /* \"#utility.yul\":1504:1567   */\n      swap2\n      pop\n        /* \"#utility.yul\":1459:1577   */\n      pop\n        /* \"#utility.yul\":930:1584   */\n      swap3\n      pop\n      swap3\n      swap1\n      pop\n      jump\t// out\n        /* \"#utility.yul\":1590:1919   */\n    tag_13:\n        /* \"#utility.yul\":1649:1655   */\n      0x00\n        /* \"#utility.yul\":1698:1700   */\n      0x20\n        /* \"#utility.yul\":1686:1695   */\n      dup3\n        /* \"#utility.yul\":1677:1684   */\n      dup5\n        /* \"#utility.yul\":1673:1696   */\n      sub\n        /* \"#utility.yul\":1669:1701   */\n      slt\n        /* \"#utility.yul\":1666:1785   */\n      iszero\n      tag_93\n      jumpi\n        /* \"#utility.yul\":1704:1783   */\n      tag_94\n      tag_86\n      jump\t// in\n    tag_94:\n        /* \"#utility.yul\":1666:1785   */\n    tag_93:\n        /* \"#utility.yul\":1824:1825   */\n      0x00\n        /* \"#utility.yul\":1849:1902   */\n      tag_95\n        /* \"#utility.yul\":1894:1901   */\n      dup5\n        /* \"#utility.yul\":1885:1891   */\n      dup3\n        /* \"#utility.yul\":1874:1883   */\n      dup6\n        /* \"#utility.yul\":1870:1892   */\n      add\n        /* \"#utility.yul\":1849:1902   */\n      tag_79\n      jump\t// in\n    tag_95:\n        /* \"#utility.yul\":1839:1902   */\n      swap2\n      pop\n        /* \"#utility.yul\":1795:1912   */\n      pop\n        /* \"#utility.yul\":1590:1919   */\n      swap3\n      swap2\n      pop\n      pop\n      jump\t// out\n        /* \"#utility.yul\":1925:2169   */\n    tag_96:\n        /* \"#utility.yul\":2038:2048   */\n      0x00\n        /* \"#utility.yul\":2073:2163   */\n      tag_98\n        /* \"#utility.yul\":2159:2162   */\n      dup4\n        /* \"#utility.yul\":2151:2157   */\n      dup4\n        /* \"#utility.yul\":2073:2163   */\n      tag_99\n      jump\t// in\n    tag_98:\n        /* \"#utility.yul\":2059:2163   */\n      swap1\n      pop\n        /* \"#utility.yul\":1925:2169   */\n      swap3\n      swap2\n      pop\n      pop\n      jump\t// out\n        /* \"#utility.yul\":2175:2293   */\n    tag_100:\n        /* \"#utility.yul\":2262:2286   */\n      tag_102\n        /* \"#utility.yul\":2280:2285   */\n      dup2\n        /* \"#utility.yul\":2262:2286   */\n      tag_103\n      jump\t// in\n    tag_102:\n        /* \"#utility.yul\":2257:2260   */\n      dup3\n        /* \"#utility.yul\":2250:2287   */\n      mstore\n        /* \"#utility.yul\":2175:2293   */\n      pop\n      pop\n      jump\t// out\n        /* \"#utility.yul\":2373:3460   */\n    tag_104:\n        /* \"#utility.yul\":2536:2539   */\n      0x00\n        /* \"#utility.yul\":2565:2641   */\n      tag_106\n        /* \"#utility.yul\":2635:2640   */\n      dup3\n        /* \"#utility.yul\":2565:2641   */\n      tag_107\n      jump\t// in\n    tag_106:\n        /* \"#utility.yul\":2657:2765   */\n      tag_108\n        /* \"#utility.yul\":2758:2764   */\n      dup2\n        /* \"#utility.yul\":2753:2756   */\n      dup6\n        /* \"#utility.yul\":2657:2765   */\n      tag_109\n      jump\t// in\n    tag_108:\n        /* \"#utility.yul\":2650:2765   */\n      swap4\n      pop\n        /* \"#utility.yul\":2791:2794   */\n      dup4\n        /* \"#utility.yul\":2836:2840   */\n      0x20\n        /* \"#utility.yul\":2828:2834   */\n      dup3\n        /* \"#utility.yul\":2824:2841   */\n      mul\n        /* \"#utility.yul\":2819:2822   */\n      dup6\n        /* \"#utility.yul\":2815:2842   */\n      add\n        /* \"#utility.yul\":2866:2944   */\n      tag_110\n        /* \"#utility.yul\":2938:2943   */\n      dup6\n        /* \"#utility.yul\":2866:2944   */\n      tag_111\n      jump\t// in\n    tag_110:\n        /* \"#utility.yul\":2967:2974   */\n      dup1\n        /* \"#utility.yul\":2998:2999   */\n      0x00\n        /* \"#utility.yul\":2983:3415   */\n    tag_112:\n        /* \"#utility.yul\":3008:3014   */\n      dup6\n        /* \"#utility.yul\":3005:3006   */\n      dup2\n        /* \"#utility.yul\":3002:3015   */\n      lt\n        /* \"#utility.yul\":2983:3415   */\n      iszero\n      tag_114\n      jumpi\n        /* \"#utility.yul\":3079:3088   */\n      dup5\n        /* \"#utility.yul\":3073:3077   */\n      dup5\n        /* \"#utility.yul\":3069:3089   */\n      sub\n        /* \"#utility.yul\":3064:3067   */\n      dup10\n        /* \"#utility.yul\":3057:3090   */\n      mstore\n        /* \"#utility.yul\":3130:3136   */\n      dup2\n        /* \"#utility.yul\":3124:3137   */\n      mload\n        /* \"#utility.yul\":3158:3266   */\n      tag_115\n        /* \"#utility.yul\":3261:3265   */\n      dup6\n        /* \"#utility.yul\":3246:3259   */\n      dup3\n        /* \"#utility.yul\":3158:3266   */\n      tag_96\n      jump\t// in\n    tag_115:\n        /* \"#utility.yul\":3150:3266   */\n      swap5\n      pop\n        /* \"#utility.yul\":3289:3371   */\n      tag_116\n        /* \"#utility.yul\":3364:3370   */\n      dup4\n        /* \"#utility.yul\":3289:3371   */\n      tag_117\n      jump\t// in\n    tag_116:\n        /* \"#utility.yul\":3279:3371   */\n      swap3\n      pop\n        /* \"#utility.yul\":3400:3404   */\n      0x20\n        /* \"#utility.yul\":3395:3398   */\n      dup11\n        /* \"#utility.yul\":3391:3405   */\n      add\n        /* \"#utility.yul\":3384:3405   */\n      swap10\n      pop\n        /* \"#utility.yul\":3043:3415   */\n      pop\n        /* \"#utility.yul\":3030:3031   */\n      0x01\n        /* \"#utility.yul\":3027:3028   */\n      dup2\n        /* \"#utility.yul\":3023:3032   */\n      add\n        /* \"#utility.yul\":3018:3032   */\n      swap1\n      pop\n        /* \"#utility.yul\":2983:3415   */\n      jump(tag_112)\n    tag_114:\n        /* \"#utility.yul\":2987:3001   */\n      pop\n        /* \"#utility.yul\":3431:3435   */\n      dup3\n        /* \"#utility.yul\":3424:3435   */\n      swap8\n      pop\n        /* \"#utility.yul\":3451:3454   */\n      dup8\n        /* \"#utility.yul\":3444:3454   */\n      swap6\n      pop\n        /* \"#utility.yul\":2541:3460   */\n      pop\n      pop\n      pop\n      pop\n      pop\n        /* \"#utility.yul\":2373:3460   */\n      swap3\n      swap2\n      pop\n      pop\n      jump\t// out\n        /* \"#utility.yul\":3466:3810   */\n    tag_118:\n        /* \"#utility.yul\":3544:3547   */\n      0x00\n        /* \"#utility.yul\":3572:3611   */\n      tag_120\n        /* \"#utility.yul\":3605:3610   */\n      dup3\n        /* \"#utility.yul\":3572:3611   */\n      tag_121\n      jump\t// in\n    tag_120:\n        /* \"#utility.yul\":3627:3688   */\n      tag_122\n        /* \"#utility.yul\":3681:3687   */\n      dup2\n        /* \"#utility.yul\":3676:3679   */\n      dup6\n        /* \"#utility.yul\":3627:3688   */\n      tag_123\n      jump\t// in\n    tag_122:\n        /* \"#utility.yul\":3620:3688   */\n      swap4\n      pop\n        /* \"#utility.yul\":3697:3749   */\n      tag_124\n        /* \"#utility.yul\":3742:3748   */\n      dup2\n        /* \"#utility.yul\":3737:3740   */\n      dup6\n        /* \"#utility.yul\":3730:3734   */\n      0x20\n        /* \"#utility.yul\":3723:3728   */\n      dup7\n        /* \"#utility.yul\":3719:3735   */\n      add\n        /* \"#utility.yul\":3697:3749   */\n      tag_125\n      jump\t// in\n    tag_124:\n        /* \"#utility.yul\":3774:3803   */\n      tag_126\n        /* \"#utility.yul\":3796:3802   */\n      dup2\n        /* \"#utility.yul\":3774:3803   */\n      tag_127\n      jump\t// in\n    tag_126:\n        /* \"#utility.yul\":3769:3772   */\n      dup5\n        /* \"#utility.yul\":3765:3804   */\n      add\n        /* \"#utility.yul\":3758:3804   */\n      swap2\n      pop\n        /* \"#utility.yul\":3548:3810   */\n      pop\n        /* \"#utility.yul\":3466:3810   */\n      swap3\n      swap2\n      pop\n      pop\n      jump\t// out\n        /* \"#utility.yul\":3816:4180   */\n    tag_128:\n        /* \"#utility.yul\":3904:3907   */\n      0x00\n        /* \"#utility.yul\":3932:3971   */\n      tag_130\n        /* \"#utility.yul\":3965:3970   */\n      dup3\n        /* \"#utility.yul\":3932:3971   */\n      tag_121\n      jump\t// in\n    tag_130:\n        /* \"#utility.yul\":3987:4058   */\n      tag_131\n        /* \"#utility.yul\":4051:4057   */\n      dup2\n        /* \"#utility.yul\":4046:4049   */\n      dup6\n        /* \"#utility.yul\":3987:4058   */\n      tag_132\n      jump\t// in\n    tag_131:\n        /* \"#utility.yul\":3980:4058   */\n      swap4\n      pop\n        /* \"#utility.yul\":4067:4119   */\n      tag_133\n        /* \"#utility.yul\":4112:4118   */\n      dup2\n        /* \"#utility.yul\":4107:4110   */\n      dup6\n        /* \"#utility.yul\":4100:4104   */\n      0x20\n        /* \"#utility.yul\":4093:4098   */\n      dup7\n        /* \"#utility.yul\":4089:4105   */\n      add\n        /* \"#utility.yul\":4067:4119   */\n      tag_125\n      jump\t// in\n    tag_133:\n        /* \"#utility.yul\":4144:4173   */\n      tag_134\n        /* \"#utility.yul\":4166:4172   */\n      dup2\n        /* \"#utility.yul\":4144:4173   */\n      tag_127\n      jump\t// in\n    tag_134:\n        /* \"#utility.yul\":4139:4142   */\n      dup5\n        /* \"#utility.yul\":4135:4174   */\n      add\n        /* \"#utility.yul\":4128:4174   */\n      swap2\n      pop\n        /* \"#utility.yul\":3908:4180   */\n      pop\n        /* \"#utility.yul\":3816:4180   */\n      swap3\n      swap2\n      pop\n      pop\n      jump\t// out\n        /* \"#utility.yul\":4186:4552   */\n    tag_135:\n        /* \"#utility.yul\":4328:4331   */\n      0x00\n        /* \"#utility.yul\":4349:4416   */\n      tag_137\n        /* \"#utility.yul\":4413:4415   */\n      0x1e\n        /* \"#utility.yul\":4408:4411   */\n      dup4\n        /* \"#utility.yul\":4349:4416   */\n      tag_132\n      jump\t// in\n    tag_137:\n        /* \"#utility.yul\":4342:4416   */\n      swap2\n      pop\n        /* \"#utility.yul\":4425:4518   */\n      tag_138\n        /* \"#utility.yul\":4514:4517   */\n      dup3\n        /* \"#utility.yul\":4425:4518   */\n      tag_139\n      jump\t// in\n    tag_138:\n        /* \"#utility.yul\":4543:4545   */\n      0x20\n        /* \"#utility.yul\":4538:4541   */\n      dup3\n        /* \"#utility.yul\":4534:4546   */\n      add\n        /* \"#utility.yul\":4527:4546   */\n      swap1\n      pop\n        /* \"#utility.yul\":4186:4552   */\n      swap2\n      swap1\n      pop\n      jump\t// out\n        /* \"#utility.yul\":4628:5216   */\n    tag_99:\n        /* \"#utility.yul\":4731:4734   */\n      0x00\n        /* \"#utility.yul\":4767:4771   */\n      0x40\n        /* \"#utility.yul\":4762:4765   */\n      dup4\n        /* \"#utility.yul\":4758:4772   */\n      add\n        /* \"#utility.yul\":4852:4856   */\n      0x00\n        /* \"#utility.yul\":4845:4850   */\n      dup4\n        /* \"#utility.yul\":4841:4857   */\n      add\n        /* \"#utility.yul\":4835:4858   */\n      mload\n        /* \"#utility.yul\":4871:4934   */\n      tag_141\n        /* \"#utility.yul\":4928:4932   */\n      0x00\n        /* \"#utility.yul\":4923:4926   */\n      dup7\n        /* \"#utility.yul\":4919:4933   */\n      add\n        /* \"#utility.yul\":4905:4917   */\n      dup3\n        /* \"#utility.yul\":4871:4934   */\n      tag_142\n      jump\t// in\n    tag_141:\n        /* \"#utility.yul\":4782:4944   */\n      pop\n        /* \"#utility.yul\":5026:5030   */\n      0x20\n        /* \"#utility.yul\":5019:5024   */\n      dup4\n        /* \"#utility.yul\":5015:5031   */\n      add\n        /* \"#utility.yul\":5009:5032   */\n      mload\n        /* \"#utility.yul\":5079:5082   */\n      dup5\n        /* \"#utility.yul\":5073:5077   */\n      dup3\n        /* \"#utility.yul\":5069:5083   */\n      sub\n        /* \"#utility.yul\":5062:5066   */\n      0x20\n        /* \"#utility.yul\":5057:5060   */\n      dup7\n        /* \"#utility.yul\":5053:5067   */\n      add\n        /* \"#utility.yul\":5046:5084   */\n      mstore\n        /* \"#utility.yul\":5105:5178   */\n      tag_143\n        /* \"#utility.yul\":5173:5177   */\n      dup3\n        /* \"#utility.yul\":5159:5171   */\n      dup3\n        /* \"#utility.yul\":5105:5178   */\n      tag_118\n      jump\t// in\n    tag_143:\n        /* \"#utility.yul\":5097:5178   */\n      swap2\n      pop\n        /* \"#utility.yul\":4954:5189   */\n      pop\n        /* \"#utility.yul\":5206:5210   */\n      dup1\n        /* \"#utility.yul\":5199:5210   */\n      swap2\n      pop\n        /* \"#utility.yul\":4736:5216   */\n      pop\n        /* \"#utility.yul\":4628:5216   */\n      swap3\n      swap2\n      pop\n      pop\n      jump\t// out\n        /* \"#utility.yul\":5222:5330   */\n    tag_142:\n        /* \"#utility.yul\":5299:5323   */\n      tag_145\n        /* \"#utility.yul\":5317:5322   */\n      dup2\n        /* \"#utility.yul\":5299:5323   */\n      tag_146\n      jump\t// in\n    tag_145:\n        /* \"#utility.yul\":5294:5297   */\n      dup3\n        /* \"#utility.yul\":5287:5324   */\n      mstore\n        /* \"#utility.yul\":5222:5330   */\n      pop\n      pop\n      jump\t// out\n        /* \"#utility.yul\":5336:5454   */\n    tag_147:\n        /* \"#utility.yul\":5423:5447   */\n      tag_149\n        /* \"#utility.yul\":5441:5446   */\n      dup2\n        /* \"#utility.yul\":5423:5447   */\n      tag_146\n      jump\t// in\n    tag_149:\n        /* \"#utility.yul\":5418:5421   */\n      dup3\n        /* \"#utility.yul\":5411:5448   */\n      mstore\n        /* \"#utility.yul\":5336:5454   */\n      pop\n      pop\n      jump\t// out\n        /* \"#utility.yul\":5460:5682   */\n    tag_16:\n        /* \"#utility.yul\":5553:5557   */\n      0x00\n        /* \"#utility.yul\":5591:5593   */\n      0x20\n        /* \"#utility.yul\":5580:5589   */\n      dup3\n        /* \"#utility.yul\":5576:5594   */\n      add\n        /* \"#utility.yul\":5568:5594   */\n      swap1\n      pop\n        /* \"#utility.yul\":5604:5675   */\n      tag_151\n        /* \"#utility.yul\":5672:5673   */\n      0x00\n        /* \"#utility.yul\":5661:5670   */\n      dup4\n        /* \"#utility.yul\":5657:5674   */\n      add\n        /* \"#utility.yul\":5648:5654   */\n      dup5\n        /* \"#utility.yul\":5604:5675   */\n      tag_100\n      jump\t// in\n    tag_151:\n        /* \"#utility.yul\":5460:5682   */\n      swap3\n      swap2\n      pop\n      pop\n      jump\t// out\n        /* \"#utility.yul\":5688:6149   */\n    tag_20:\n        /* \"#utility.yul\":5875:5879   */\n      0x00\n        /* \"#utility.yul\":5913:5915   */\n      0x20\n        /* \"#utility.yul\":5902:5911   */\n      dup3\n        /* \"#utility.yul\":5898:5916   */\n      add\n        /* \"#utility.yul\":5890:5916   */\n      swap1\n      pop\n        /* \"#utility.yul\":5962:5971   */\n      dup2\n        /* \"#utility.yul\":5956:5960   */\n      dup2\n        /* \"#utility.yul\":5952:5972   */\n      sub\n        /* \"#utility.yul\":5948:5949   */\n      0x00\n        /* \"#utility.yul\":5937:5946   */\n      dup4\n        /* \"#utility.yul\":5933:5950   */\n      add\n        /* \"#utility.yul\":5926:5973   */\n      mstore\n        /* \"#utility.yul\":5990:6142   */\n      tag_153\n        /* \"#utility.yul\":6137:6141   */\n      dup2\n        /* \"#utility.yul\":6128:6134   */\n      dup5\n        /* \"#utility.yul\":5990:6142   */\n      tag_104\n      jump\t// in\n    tag_153:\n        /* \"#utility.yul\":5982:6142   */\n      swap1\n      pop\n        /* \"#utility.yul\":5688:6149   */\n      swap3\n      swap2\n      pop\n      pop\n      jump\t// out\n        /* \"#utility.yul\":6155:6468   */\n    tag_35:\n        /* \"#utility.yul\":6268:6272   */\n      0x00\n        /* \"#utility.yul\":6306:6308   */\n      0x20\n        /* \"#utility.yul\":6295:6304   */\n      dup3\n        /* \"#utility.yul\":6291:6309   */\n      add\n        /* \"#utility.yul\":6283:6309   */\n      swap1\n      pop\n        /* \"#utility.yul\":6355:6364   */\n      dup2\n        /* \"#utility.yul\":6349:6353   */\n      dup2\n        /* \"#utility.yul\":6345:6365   */\n      sub\n        /* \"#utility.yul\":6341:6342   */\n      0x00\n        /* \"#utility.yul\":6330:6339   */\n      dup4\n        /* \"#utility.yul\":6326:6343   */\n      add\n        /* \"#utility.yul\":6319:6366   */\n      mstore\n        /* \"#utility.yul\":6383:6461   */\n      tag_155\n        /* \"#utility.yul\":6456:6460   */\n      dup2\n        /* \"#utility.yul\":6447:6453   */\n      dup5\n        /* \"#utility.yul\":6383:6461   */\n      tag_128\n      jump\t// in\n    tag_155:\n        /* \"#utility.yul\":6375:6461   */\n      swap1\n      pop\n        /* \"#utility.yul\":6155:6468   */\n      swap3\n      swap2\n      pop\n      pop\n      jump\t// out\n        /* \"#utility.yul\":6474:6893   */\n    tag_28:\n        /* \"#utility.yul\":6640:6644   */\n      0x00\n        /* \"#utility.yul\":6678:6680   */\n      0x20\n        /* \"#utility.yul\":6667:6676   */\n      dup3\n        /* \"#utility.yul\":6663:6681   */\n      add\n        /* \"#utility.yul\":6655:6681   */\n      swap1\n      pop\n        /* \"#utility.yul\":6727:6736   */\n      dup2\n        /* \"#utility.yul\":6721:6725   */\n      dup2\n        /* \"#utility.yul\":6717:6737   */\n      sub\n        /* \"#utility.yul\":6713:6714   */\n      0x00\n        /* \"#utility.yul\":6702:6711   */\n      dup4\n        /* \"#utility.yul\":6698:6715   */\n      add\n        /* \"#utility.yul\":6691:6738   */\n      mstore\n        /* \"#utility.yul\":6755:6886   */\n      tag_157\n        /* \"#utility.yul\":6881:6885   */\n      dup2\n        /* \"#utility.yul\":6755:6886   */\n      tag_135\n      jump\t// in\n    tag_157:\n        /* \"#utility.yul\":6747:6886   */\n      swap1\n      pop\n        /* \"#utility.yul\":6474:6893   */\n      swap2\n      swap1\n      pop\n      jump\t// out\n        /* \"#utility.yul\":6899:7231   */\n    tag_24:\n        /* \"#utility.yul\":7020:7024   */\n      0x00\n        /* \"#utility.yul\":7058:7060   */\n      0x40\n        /* \"#utility.yul\":7047:7056   */\n      dup3\n        /* \"#utility.yul\":7043:7061   */\n      add\n        /* \"#utility.yul\":7035:7061   */\n      swap1\n      pop\n        /* \"#utility.yul\":7071:7142   */\n      tag_159\n        /* \"#utility.yul\":7139:7140   */\n      0x00\n        /* \"#utility.yul\":7128:7137   */\n      dup4\n        /* \"#utility.yul\":7124:7141   */\n      add\n        /* \"#utility.yul\":7115:7121   */\n      dup6\n        /* \"#utility.yul\":7071:7142   */\n      tag_147\n      jump\t// in\n    tag_159:\n        /* \"#utility.yul\":7152:7224   */\n      tag_160\n        /* \"#utility.yul\":7220:7222   */\n      0x20\n        /* \"#utility.yul\":7209:7218   */\n      dup4\n        /* \"#utility.yul\":7205:7223   */\n      add\n        /* \"#utility.yul\":7196:7202   */\n      dup5\n        /* \"#utility.yul\":7152:7224   */\n      tag_147\n      jump\t// in\n    tag_160:\n        /* \"#utility.yul\":6899:7231   */\n      swap4\n      swap3\n      pop\n      pop\n      pop\n      jump\t// out\n        /* \"#utility.yul\":7237:7366   */\n    tag_67:\n        /* \"#utility.yul\":7271:7277   */\n      0x00\n        /* \"#utility.yul\":7298:7318   */\n      tag_162\n      tag_163\n      jump\t// in\n    tag_162:\n        /* \"#utility.yul\":7288:7318   */\n      swap1\n      pop\n        /* \"#utility.yul\":7327:7360   */\n      tag_164\n        /* \"#utility.yul\":7355:7359   */\n      dup3\n        /* \"#utility.yul\":7347:7353   */\n      dup3\n        /* \"#utility.yul\":7327:7360   */\n      tag_165\n      jump\t// in\n    tag_164:\n        /* \"#utility.yul\":7237:7366   */\n      swap2\n      swap1\n      pop\n      jump\t// out\n        /* \"#utility.yul\":7372:7447   */\n    tag_163:\n        /* \"#utility.yul\":7405:7411   */\n      0x00\n        /* \"#utility.yul\":7438:7440   */\n      0x40\n        /* \"#utility.yul\":7432:7441   */\n      mload\n        /* \"#utility.yul\":7422:7441   */\n      swap1\n      pop\n        /* \"#utility.yul\":7372:7447   */\n      swap1\n      jump\t// out\n        /* \"#utility.yul\":7453:7761   */\n    tag_66:\n        /* \"#utility.yul\":7515:7519   */\n      0x00\n        /* \"#utility.yul\":7605:7623   */\n      0xffffffffffffffff\n        /* \"#utility.yul\":7597:7603   */\n      dup3\n        /* \"#utility.yul\":7594:7624   */\n      gt\n        /* \"#utility.yul\":7591:7647   */\n      iszero\n      tag_168\n      jumpi\n        /* \"#utility.yul\":7627:7645   */\n      tag_169\n      tag_170\n      jump\t// in\n    tag_169:\n        /* \"#utility.yul\":7591:7647   */\n    tag_168:\n        /* \"#utility.yul\":7665:7694   */\n      tag_171\n        /* \"#utility.yul\":7687:7693   */\n      dup3\n        /* \"#utility.yul\":7665:7694   */\n      tag_127\n      jump\t// in\n    tag_171:\n        /* \"#utility.yul\":7657:7694   */\n      swap1\n      pop\n        /* \"#utility.yul\":7749:7753   */\n      0x20\n        /* \"#utility.yul\":7743:7747   */\n      dup2\n        /* \"#utility.yul\":7739:7754   */\n      add\n        /* \"#utility.yul\":7731:7754   */\n      swap1\n      pop\n        /* \"#utility.yul\":7453:7761   */\n      swap2\n      swap1\n      pop\n      jump\t// out\n        /* \"#utility.yul\":7767:7921   */\n    tag_111:\n        /* \"#utility.yul\":7856:7860   */\n      0x00\n        /* \"#utility.yul\":7879:7882   */\n      dup2\n        /* \"#utility.yul\":7871:7882   */\n      swap1\n      pop\n        /* \"#utility.yul\":7909:7913   */\n      0x20\n        /* \"#utility.yul\":7904:7907   */\n      dup3\n        /* \"#utility.yul\":7900:7914   */\n      add\n        /* \"#utility.yul\":7892:7914   */\n      swap1\n      pop\n        /* \"#utility.yul\":7767:7921   */\n      swap2\n      swap1\n      pop\n      jump\t// out\n        /* \"#utility.yul\":7927:8063   */\n    tag_107:\n        /* \"#utility.yul\":8016:8022   */\n      0x00\n        /* \"#utility.yul\":8050:8055   */\n      dup2\n        /* \"#utility.yul\":8044:8056   */\n      mload\n        /* \"#utility.yul\":8034:8056   */\n      swap1\n      pop\n        /* \"#utility.yul\":7927:8063   */\n      swap2\n      swap1\n      pop\n      jump\t// out\n        /* \"#utility.yul\":8069:8168   */\n    tag_121:\n        /* \"#utility.yul\":8121:8127   */\n      0x00\n        /* \"#utility.yul\":8155:8160   */\n      dup2\n        /* \"#utility.yul\":8149:8161   */\n      mload\n        /* \"#utility.yul\":8139:8161   */\n      swap1\n      pop\n        /* \"#utility.yul\":8069:8168   */\n      swap2\n      swap1\n      pop\n      jump\t// out\n        /* \"#utility.yul\":8174:8309   */\n    tag_117:\n        /* \"#utility.yul\":8266:8270   */\n      0x00\n        /* \"#utility.yul\":8298:8302   */\n      0x20\n        /* \"#utility.yul\":8293:8296   */\n      dup3\n        /* \"#utility.yul\":8289:8303   */\n      add\n        /* \"#utility.yul\":8281:8303   */\n      swap1\n      pop\n        /* \"#utility.yul\":8174:8309   */\n      swap2\n      swap1\n      pop\n      jump\t// out\n        /* \"#utility.yul\":8315:8521   */\n    tag_109:\n        /* \"#utility.yul\":8436:8447   */\n      0x00\n        /* \"#utility.yul\":8470:8476   */\n      dup3\n        /* \"#utility.yul\":8465:8468   */\n      dup3\n        /* \"#utility.yul\":8458:8477   */\n      mstore\n        /* \"#utility.yul\":8510:8514   */\n      0x20\n        /* \"#utility.yul\":8505:8508   */\n      dup3\n        /* \"#utility.yul\":8501:8515   */\n      add\n        /* \"#utility.yul\":8486:8515   */\n      swap1\n      pop\n        /* \"#utility.yul\":8315:8521   */\n      swap3\n      swap2\n      pop\n      pop\n      jump\t// out\n        /* \"#utility.yul\":8527:8686   */\n    tag_123:\n        /* \"#utility.yul\":8601:8612   */\n      0x00\n        /* \"#utility.yul\":8635:8641   */\n      dup3\n        /* \"#utility.yul\":8630:8633   */\n      dup3\n        /* \"#utility.yul\":8623:8642   */\n      mstore\n        /* \"#utility.yul\":8675:8679   */\n      0x20\n        /* \"#utility.yul\":8670:8673   */\n      dup3\n        /* \"#utility.yul\":8666:8680   */\n      add\n        /* \"#utility.yul\":8651:8680   */\n      swap1\n      pop\n        /* \"#utility.yul\":8527:8686   */\n      swap3\n      swap2\n      pop\n      pop\n      jump\t// out\n        /* \"#utility.yul\":8692:8861   */\n    tag_132:\n        /* \"#utility.yul\":8776:8787   */\n      0x00\n        /* \"#utility.yul\":8810:8816   */\n      dup3\n        /* \"#utility.yul\":8805:8808   */\n      dup3\n        /* \"#utility.yul\":8798:8817   */\n      mstore\n        /* \"#utility.yul\":8850:8854   */\n      0x20\n        /* \"#utility.yul\":8845:8848   */\n      dup3\n        /* \"#utility.yul\":8841:8855   */\n      add\n        /* \"#utility.yul\":8826:8855   */\n      swap1\n      pop\n        /* \"#utility.yul\":8692:8861   */\n      swap3\n      swap2\n      pop\n      pop\n      jump\t// out\n        /* \"#utility.yul\":8867:9172   */\n    tag_50:\n        /* \"#utility.yul\":8907:8910   */\n      0x00\n        /* \"#utility.yul\":8926:8946   */\n      tag_180\n        /* \"#utility.yul\":8944:8945   */\n      dup3\n        /* \"#utility.yul\":8926:8946   */\n      tag_146\n      jump\t// in\n    tag_180:\n        /* \"#utility.yul\":8921:8946   */\n      swap2\n      pop\n        /* \"#utility.yul\":8960:8980   */\n      tag_181\n        /* \"#utility.yul\":8978:8979   */\n      dup4\n        /* \"#utility.yul\":8960:8980   */\n      tag_146\n      jump\t// in\n    tag_181:\n        /* \"#utility.yul\":8955:8980   */\n      swap3\n      pop\n        /* \"#utility.yul\":9114:9115   */\n      dup3\n        /* \"#utility.yul\":9046:9112   */\n      0xffffffffffffffffffffffffffffffffffffffffffffffffffffffffffffffff\n        /* \"#utility.yul\":9042:9116   */\n      sub\n        /* \"#utility.yul\":9039:9040   */\n      dup3\n        /* \"#utility.yul\":9036:9117   */\n      gt\n        /* \"#utility.yul\":9033:9140   */\n      iszero\n      tag_182\n      jumpi\n        /* \"#utility.yul\":9120:9138   */\n      tag_183\n      tag_184\n      jump\t// in\n    tag_183:\n        /* \"#utility.yul\":9033:9140   */\n    tag_182:\n        /* \"#utility.yul\":9164:9165   */\n      dup3\n        /* \"#utility.yul\":9161:9162   */\n      dup3\n        /* \"#utility.yul\":9157:9166   */\n      add\n        /* \"#utility.yul\":9150:9166   */\n      swap1\n      pop\n        /* \"#utility.yul\":8867:9172   */\n      swap3\n      swap2\n      pop\n      pop\n      jump\t// out\n        /* \"#utility.yul\":9178:9526   */\n    tag_48:\n        /* \"#utility.yul\":9218:9225   */\n      0x00\n        /* \"#utility.yul\":9241:9261   */\n      tag_186\n        /* \"#utility.yul\":9259:9260   */\n      dup3\n        /* \"#utility.yul\":9241:9261   */\n      tag_146\n      jump\t// in\n    tag_186:\n        /* \"#utility.yul\":9236:9261   */\n      swap2\n      pop\n        /* \"#utility.yul\":9275:9295   */\n      tag_187\n        /* \"#utility.yul\":9293:9294   */\n      dup4\n        /* \"#utility.yul\":9275:9295   */\n      tag_146\n      jump\t// in\n    tag_187:\n        /* \"#utility.yul\":9270:9295   */\n      swap3\n      pop\n        /* \"#utility.yul\":9463:9464   */\n      dup2\n        /* \"#utility.yul\":9395:9461   */\n      0xffffffffffffffffffffffffffffffffffffffffffffffffffffffffffffffff\n        /* \"#utility.yul\":9391:9465   */\n      div\n        /* \"#utility.yul\":9388:9389   */\n      dup4\n        /* \"#utility.yul\":9385:9466   */\n      gt\n        /* \"#utility.yul\":9380:9381   */\n      dup3\n        /* \"#utility.yul\":9373:9382   */\n      iszero\n        /* \"#utility.yul\":9366:9383   */\n      iszero\n        /* \"#utility.yul\":9362:9467   */\n      and\n        /* \"#utility.yul\":9359:9490   */\n      iszero\n      tag_188\n      jumpi\n        /* \"#utility.yul\":9470:9488   */\n      tag_189\n      tag_184\n      jump\t// in\n    tag_189:\n        /* \"#utility.yul\":9359:9490   */\n    tag_188:\n        /* \"#utility.yul\":9518:9519   */\n      dup3\n        /* \"#utility.yul\":9515:9516   */\n      dup3\n        /* \"#utility.yul\":9511:9520   */\n      mul\n        /* \"#utility.yul\":9500:9520   */\n      swap1\n      pop\n        /* \"#utility.yul\":9178:9526   */\n      swap3\n      swap2\n      pop\n      pop\n      jump\t// out\n        /* \"#utility.yul\":9532:9628   */\n    tag_103:\n        /* \"#utility.yul\":9569:9576   */\n      0x00\n        /* \"#utility.yul\":9598:9622   */\n      tag_191\n        /* \"#utility.yul\":9616:9621   */\n      dup3\n        /* \"#utility.yul\":9598:9622   */\n      tag_192\n      jump\t// in\n    tag_191:\n        /* \"#utility.yul\":9587:9622   */\n      swap1\n      pop\n        /* \"#utility.yul\":9532:9628   */\n      swap2\n      swap1\n      pop\n      jump\t// out\n        /* \"#utility.yul\":9634:9760   */\n    tag_192:\n        /* \"#utility.yul\":9671:9678   */\n      0x00\n        /* \"#utility.yul\":9711:9753   */\n      0xffffffffffffffffffffffffffffffffffffffff\n        /* \"#utility.yul\":9704:9709   */\n      dup3\n        /* \"#utility.yul\":9700:9754   */\n      and\n        /* \"#utility.yul\":9689:9754   */\n      swap1\n      pop\n        /* \"#utility.yul\":9634:9760   */\n      swap2\n      swap1\n      pop\n      jump\t// out\n        /* \"#utility.yul\":9766:9843   */\n    tag_146:\n        /* \"#utility.yul\":9803:9810   */\n      0x00\n        /* \"#utility.yul\":9832:9837   */\n      dup2\n        /* \"#utility.yul\":9821:9837   */\n      swap1\n      pop\n        /* \"#utility.yul\":9766:9843   */\n      swap2\n      swap1\n      pop\n      jump\t// out\n        /* \"#utility.yul\":9849:10003   */\n    tag_72:\n        /* \"#utility.yul\":9933:9939   */\n      dup3\n        /* \"#utility.yul\":9928:9931   */\n      dup2\n        /* \"#utility.yul\":9923:9926   */\n      dup4\n        /* \"#utility.yul\":9910:9940   */\n      calldatacopy\n        /* \"#utility.yul\":9995:9996   */\n      0x00\n        /* \"#utility.yul\":9986:9992   */\n      dup4\n        /* \"#utility.yul\":9981:9984   */\n      dup4\n        /* \"#utility.yul\":9977:9993   */\n      add\n        /* \"#utility.yul\":9970:9997   */\n      mstore\n        /* \"#utility.yul\":9849:10003   */\n      pop\n      pop\n      pop\n      jump\t// out\n        /* \"#utility.yul\":10009:10316   */\n    tag_125:\n        /* \"#utility.yul\":10077:10078   */\n      0x00\n        /* \"#utility.yul\":10087:10200   */\n    tag_197:\n        /* \"#utility.yul\":10101:10107   */\n      dup4\n        /* \"#utility.yul\":10098:10099   */\n      dup2\n        /* \"#utility.yul\":10095:10108   */\n      lt\n        /* \"#utility.yul\":10087:10200   */\n      iszero\n      tag_199\n      jumpi\n        /* \"#utility.yul\":10186:10187   */\n      dup1\n        /* \"#utility.yul\":10181:10184   */\n      dup3\n        /* \"#utility.yul\":10177:10188   */\n      add\n        /* \"#utility.yul\":10171:10189   */\n      mload\n        /* \"#utility.yul\":10167:10168   */\n      dup2\n        /* \"#utility.yul\":10162:10165   */\n      dup5\n        /* \"#utility.yul\":10158:10169   */\n      add\n        /* \"#utility.yul\":10151:10190   */\n      mstore\n        /* \"#utility.yul\":10123:10125   */\n      0x20\n        /* \"#utility.yul\":10120:10121   */\n      dup2\n        /* \"#utility.yul\":10116:10126   */\n      add\n        /* \"#utility.yul\":10111:10126   */\n      swap1\n      pop\n        /* \"#utility.yul\":10087:10200   */\n      jump(tag_197)\n    tag_199:\n        /* \"#utility.yul\":10218:10224   */\n      dup4\n        /* \"#utility.yul\":10215:10216   */\n      dup2\n        /* \"#utility.yul\":10212:10225   */\n      gt\n        /* \"#utility.yul\":10209:10310   */\n      iszero\n      tag_200\n      jumpi\n        /* \"#utility.yul\":10298:10299   */\n      0x00\n        /* \"#utility.yul\":10289:10295   */\n      dup5\n        /* \"#utility.yul\":10284:10287   */\n      dup5\n        /* \"#utility.yul\":10280:10296   */\n      add\n        /* \"#utility.yul\":10273:10300   */\n      mstore\n        /* \"#utility.yul\":10209:10310   */\n    tag_200:\n        /* \"#utility.yul\":10058:10316   */\n      pop\n        /* \"#utility.yul\":10009:10316   */\n      pop\n      pop\n      pop\n      jump\t// out\n        /* \"#utility.yul\":10322:10642   */\n    tag_41:\n        /* \"#utility.yul\":10366:10372   */\n      0x00\n        /* \"#utility.yul\":10403:10404   */\n      0x02\n        /* \"#utility.yul\":10397:10401   */\n      dup3\n        /* \"#utility.yul\":10393:10405   */\n      div\n        /* \"#utility.yul\":10383:10405   */\n      swap1\n      pop\n        /* \"#utility.yul\":10450:10451   */\n      0x01\n        /* \"#utility.yul\":10444:10448   */\n      dup3\n        /* \"#utility.yul\":10440:10452   */\n      and\n        /* \"#utility.yul\":10471:10489   */\n      dup1\n        /* \"#utility.yul\":10461:10542   */\n      tag_202\n      jumpi\n        /* \"#utility.yul\":10527:10531   */\n      0x7f\n        /* \"#utility.yul\":10519:10525   */\n      dup3\n        /* \"#utility.yul\":10515:10532   */\n      and\n        /* \"#utility.yul\":10505:10532   */\n      swap2\n      pop\n        /* \"#utility.yul\":10461:10542   */\n    tag_202:\n        /* \"#utility.yul\":10589:10591   */\n      0x20\n        /* \"#utility.yul\":10581:10587   */\n      dup3\n        /* \"#utility.yul\":10578:10592   */\n      lt\n        /* \"#utility.yul\":10558:10576   */\n      dup2\n        /* \"#utility.yul\":10555:10593   */\n      eq\n        /* \"#utility.yul\":10552:10636   */\n      iszero\n      tag_203\n      jumpi\n        /* \"#utility.yul\":10608:10626   */\n      tag_204\n      tag_205\n      jump\t// in\n    tag_204:\n        /* \"#utility.yul\":10552:10636   */\n    tag_203:\n        /* \"#utility.yul\":10373:10642   */\n      pop\n        /* \"#utility.yul\":10322:10642   */\n      swap2\n      swap1\n      pop\n      jump\t// out\n        /* \"#utility.yul\":10648:10929   */\n    tag_165:\n        /* \"#utility.yul\":10731:10758   */\n      tag_207\n        /* \"#utility.yul\":10753:10757   */\n      dup3\n        /* \"#utility.yul\":10731:10758   */\n      tag_127\n      jump\t// in\n    tag_207:\n        /* \"#utility.yul\":10723:10729   */\n      dup2\n        /* \"#utility.yul\":10719:10759   */\n      add\n        /* \"#utility.yul\":10861:10867   */\n      dup2\n        /* \"#utility.yul\":10849:10859   */\n      dup2\n        /* \"#utility.yul\":10846:10868   */\n      lt\n        /* \"#utility.yul\":10825:10843   */\n      0xffffffffffffffff\n        /* \"#utility.yul\":10813:10823   */\n      dup3\n        /* \"#utility.yul\":10810:10844   */\n      gt\n        /* \"#utility.yul\":10807:10869   */\n      or\n        /* \"#utility.yul\":10804:10892   */\n      iszero\n      tag_208\n      jumpi\n        /* \"#utility.yul\":10872:10890   */\n      tag_209\n      tag_170\n      jump\t// in\n    tag_209:\n        /* \"#utility.yul\":10804:10892   */\n    tag_208:\n        /* \"#utility.yul\":10912:10922   */\n      dup1\n        /* \"#utility.yul\":10908:10910   */\n      0x40\n        /* \"#utility.yul\":10901:10923   */\n      mstore\n        /* \"#utility.yul\":10691:10929   */\n      pop\n        /* \"#utility.yul\":10648:10929   */\n      pop\n      pop\n      jump\t// out\n        /* \"#utility.yul\":10935:11168   */\n    tag_33:\n        /* \"#utility.yul\":10974:10977   */\n      0x00\n        /* \"#utility.yul\":10997:11021   */\n      tag_211\n        /* \"#utility.yul\":11015:11020   */\n      dup3\n        /* \"#utility.yul\":10997:11021   */\n      tag_146\n      jump\t// in\n    tag_211:\n        /* \"#utility.yul\":10988:11021   */\n      swap2\n      pop\n        /* \"#utility.yul\":11043:11109   */\n      0xffffffffffffffffffffffffffffffffffffffffffffffffffffffffffffffff\n        /* \"#utility.yul\":11036:11041   */\n      dup3\n        /* \"#utility.yul\":11033:11110   */\n      eq\n        /* \"#utility.yul\":11030:11133   */\n      iszero\n      tag_212\n      jumpi\n        /* \"#utility.yul\":11113:11131   */\n      tag_213\n      tag_184\n      jump\t// in\n    tag_213:\n        /* \"#utility.yul\":11030:11133   */\n    tag_212:\n        /* \"#utility.yul\":11160:11161   */\n      0x01\n        /* \"#utility.yul\":11153:11158   */\n      dup3\n        /* \"#utility.yul\":11149:11162   */\n      add\n        /* \"#utility.yul\":11142:11162   */\n      swap1\n      pop\n        /* \"#utility.yul\":10935:11168   */\n      swap2\n      swap1\n      pop\n      jump\t// out\n        /* \"#utility.yul\":11174:11354   */\n    tag_184:\n        /* \"#utility.yul\":11222:11299   */\n      0x4e487b7100000000000000000000000000000000000000000000000000000000\n        /* \"#utility.yul\":11219:11220   */\n      0x00\n        /* \"#utility.yul\":11212:11300   */\n      mstore\n        /* \"#utility.yul\":11319:11323   */\n      0x11\n        /* \"#utility.yul\":11316:11317   */\n      0x04\n        /* \"#utility.yul\":11309:11324   */\n      mstore\n        /* \"#utility.yul\":11343:11347   */\n      0x24\n        /* \"#utility.yul\":11340:11341   */\n      0x00\n        /* \"#utility.yul\":11333:11348   */\n      revert\n        /* \"#utility.yul\":11360:11540   */\n    tag_205:\n        /* \"#utility.yul\":11408:11485   */\n      0x4e487b7100000000000000000000000000000000000000000000000000000000\n        /* \"#utility.yul\":11405:11406   */\n      0x00\n        /* \"#utility.yul\":11398:11486   */\n      mstore\n        /* \"#utility.yul\":11505:11509   */\n      0x22\n        /* \"#utility.yul\":11502:11503   */\n      0x04\n        /* \"#utility.yul\":11495:11510   */\n      mstore\n        /* \"#utility.yul\":11529:11533   */\n      0x24\n        /* \"#utility.yul\":11526:11527   */\n      0x00\n        /* \"#utility.yul\":11519:11534   */\n      revert\n        /* \"#utility.yul\":11546:11726   */\n    tag_170:\n        /* \"#utility.yul\":11594:11671   */\n      0x4e487b7100000000000000000000000000000000000000000000000000000000\n        /* \"#utility.yul\":11591:11592   */\n      0x00\n        /* \"#utility.yul\":11584:11672   */\n      mstore\n        /* \"#utility.yul\":11691:11695   */\n      0x41\n        /* \"#utility.yul\":11688:11689   */\n      0x04\n        /* \"#utility.yul\":11681:11696   */\n      mstore\n        /* \"#utility.yul\":11715:11719   */\n      0x24\n        /* \"#utility.yul\":11712:11713   */\n      0x00\n        /* \"#utility.yul\":11705:11720   */\n      revert\n        /* \"#utility.yul\":11732:11849   */\n    tag_77:\n        /* \"#utility.yul\":11841:11842   */\n      0x00\n        /* \"#utility.yul\":11838:11839   */\n      dup1\n        /* \"#utility.yul\":11831:11843   */\n      revert\n        /* \"#utility.yul\":11855:11972   */\n    tag_70:\n        /* \"#utility.yul\":11964:11965   */\n      0x00\n        /* \"#utility.yul\":11961:11962   */\n      dup1\n        /* \"#utility.yul\":11954:11966   */\n      revert\n        /* \"#utility.yul\":11978:12095   */\n    tag_89:\n        /* \"#utility.yul\":12087:12088   */\n      0x00\n        /* \"#utility.yul\":12084:12085   */\n      dup1\n        /* \"#utility.yul\":12077:12089   */\n      revert\n        /* \"#utility.yul\":12101:12218   */\n    tag_86:\n        /* \"#utility.yul\":12210:12211   */\n      0x00\n        /* \"#utility.yul\":12207:12208   */\n      dup1\n        /* \"#utility.yul\":12200:12212   */\n      revert\n        /* \"#utility.yul\":12224:12326   */\n    tag_127:\n        /* \"#utility.yul\":12265:12271   */\n      0x00\n        /* \"#utility.yul\":12316:12318   */\n      0x1f\n        /* \"#utility.yul\":12312:12319   */\n      not\n        /* \"#utility.yul\":12307:12309   */\n      0x1f\n        /* \"#utility.yul\":12300:12305   */\n      dup4\n        /* \"#utility.yul\":12296:12310   */\n      add\n        /* \"#utility.yul\":12292:12320   */\n      and\n        /* \"#utility.yul\":12282:12320   */\n      swap1\n      pop\n        /* \"#utility.yul\":12224:12326   */\n      swap2\n      swap1\n      pop\n      jump\t// out\n        /* \"#utility.yul\":12332:12512   */\n    tag_139:\n        /* \"#utility.yul\":12472:12504   */\n      0x546865206964206d7573742062652067726561746572207468616e20302e0000\n        /* \"#utility.yul\":12468:12469   */\n      0x00\n        /* \"#utility.yul\":12460:12466   */\n      dup3\n        /* \"#utility.yul\":12456:12470   */\n      add\n        /* \"#utility.yul\":12449:12505   */\n      mstore\n        /* \"#utility.yul\":12332:12512   */\n      pop\n      jump\t// out\n        /* \"#utility.yul\":12518:12640   */\n    tag_82:\n        /* \"#utility.yul\":12591:12615   */\n      tag_224\n        /* \"#utility.yul\":12609:12614   */\n      dup2\n        /* \"#utility.yul\":12591:12615   */\n      tag_146\n      jump\t// in\n    tag_224:\n        /* \"#utility.yul\":12584:12589   */\n      dup2\n        /* \"#utility.yul\":12581:12616   */\n      eq\n        /* \"#utility.yul\":12571:12634   */\n      tag_225\n      jumpi\n        /* \"#utility.yul\":12630:12631   */\n      0x00\n        /* \"#utility.yul\":12627:12628   */\n      dup1\n        /* \"#utility.yul\":12620:12632   */\n      revert\n        /* \"#utility.yul\":12571:12634   */\n    tag_225:\n        /* \"#utility.yul\":12518:12640   */\n      pop\n      jump\t// out\n\n    auxdata: 0xa2646970667358221220b471af94d5e963a3d8e228801a1f5481e178166c91adac5cfea41501a86dcfc164736f6c63430008070033\n}\n",
				"bytecode": {
					"linkReferences": {},
					"object": "608060405234801561001057600080fd5b50610b66806100206000396000f3fe608060405234801561001057600080fd5b506004361061004c5760003560e01c80630a3bd50b146100515780632f7467b31461006d5780635e9167901461009d578063de292789146100bb575b600080fd5b61006b600480360381019061006691906104ef565b6100da565b005b6100876004803603810190610082919061054b565b610268565b6040516100949190610700565b60405180910390f35b6100a561029b565b6040516100b2919061071b565b60405180910390f35b6100c3610396565b6040516100d192919061077f565b60405180910390f35b6000811161011d576040517f08c379a00000000000000000000000000000000000000000000000000000000081526004016101149061075f565b60405180910390fd5b600060405180604001604052808381526020018481525090806001815401808255809150506001900390600052602060002090600202016000909190919091506000820151816000015560208201518160010190805190602001906101839291906103c7565b505050336001600083815260200190815260200160002060006101000a81548173ffffffffffffffffffffffffffffffffffffffff021916908373ffffffffffffffffffffffffffffffffffffffff160217905550600260003373ffffffffffffffffffffffffffffffffffffffff1673ffffffffffffffffffffffffffffffffffffffff1681526020019081526020016000206000815480929190610228906109f5565b91905055507f9018649032bdfabe07c5fa8e887df7dda6baf8eac2ef8026b39eebed1fdadeff8260405161025c919061073d565b60405180910390a15050565b60016020528060005260406000206000915054906101000a900473ffffffffffffffffffffffffffffffffffffffff1681565b60606000805480602002602001604051908101604052809291908181526020016000905b8282101561038d5783829060005260206000209060020201604051806040016040529081600082015481526020016001820180546102fc90610992565b80601f016020809104026020016040519081016040528092919081815260200182805461032890610992565b80156103755780601f1061034a57610100808354040283529160200191610375565b820191906000526020600020905b81548152906001019060200180831161035857829003601f168201915b505050505081525050815260200190600101906102bf565b50505050905090565b60008060006001905060006002905080826103b191906108ba565b935080826103bf9190610864565b925050509091565b8280546103d390610992565b90600052602060002090601f0160209004810192826103f5576000855561043c565b82601f1061040e57805160ff191683800117855561043c565b8280016001018555821561043c579182015b8281111561043b578251825591602001919060010190610420565b5b509050610449919061044d565b5090565b5b8082111561046657600081600090555060010161044e565b5090565b600061047d610478846107cd565b6107a8565b90508281526020810184848401111561049957610498610ad0565b5b6104a4848285610950565b509392505050565b600082601f8301126104c1576104c0610acb565b5b81356104d184826020860161046a565b91505092915050565b6000813590506104e981610b19565b92915050565b6000806040838503121561050657610505610ada565b5b600083013567ffffffffffffffff81111561052457610523610ad5565b5b610530858286016104ac565b9250506020610541858286016104da565b9150509250929050565b60006020828403121561056157610560610ada565b5b600061056f848285016104da565b91505092915050565b600061058483836106a5565b905092915050565b61059581610914565b82525050565b60006105a68261080e565b6105b08185610831565b9350836020820285016105c2856107fe565b8060005b858110156105fe57848403895281516105df8582610578565b94506105ea83610824565b925060208a019950506001810190506105c6565b50829750879550505050505092915050565b600061061b82610819565b6106258185610842565b935061063581856020860161095f565b61063e81610adf565b840191505092915050565b600061065482610819565b61065e8185610853565b935061066e81856020860161095f565b61067781610adf565b840191505092915050565b600061068f601e83610853565b915061069a82610af0565b602082019050919050565b60006040830160008301516106bd60008601826106e2565b50602083015184820360208601526106d58282610610565b9150508091505092915050565b6106eb81610946565b82525050565b6106fa81610946565b82525050565b6000602082019050610715600083018461058c565b92915050565b60006020820190508181036000830152610735818461059b565b905092915050565b600060208201905081810360008301526107578184610649565b905092915050565b6000602082019050818103600083015261077881610682565b9050919050565b600060408201905061079460008301856106f1565b6107a160208301846106f1565b9392505050565b60006107b26107c3565b90506107be82826109c4565b919050565b6000604051905090565b600067ffffffffffffffff8211156107e8576107e7610a9c565b5b6107f182610adf565b9050602081019050919050565b6000819050602082019050919050565b600081519050919050565b600081519050919050565b6000602082019050919050565b600082825260208201905092915050565b600082825260208201905092915050565b600082825260208201905092915050565b600061086f82610946565b915061087a83610946565b9250827fffffffffffffffffffffffffffffffffffffffffffffffffffffffffffffffff038211156108af576108ae610a3e565b5b828201905092915050565b60006108c582610946565b91506108d083610946565b9250817fffffffffffffffffffffffffffffffffffffffffffffffffffffffffffffffff048311821515161561090957610908610a3e565b5b828202905092915050565b600061091f82610926565b9050919050565b600073ffffffffffffffffffffffffffffffffffffffff82169050919050565b6000819050919050565b82818337600083830152505050565b60005b8381101561097d578082015181840152602081019050610962565b8381111561098c576000848401525b50505050565b600060028204905060018216806109aa57607f821691505b602082108114156109be576109bd610a6d565b5b50919050565b6109cd82610adf565b810181811067ffffffffffffffff821117156109ec576109eb610a9c565b5b80604052505050565b6000610a0082610946565b91507fffffffffffffffffffffffffffffffffffffffffffffffffffffffffffffffff821415610a3357610a32610a3e565b5b600182019050919050565b7f4e487b7100000000000000000000000000000000000000000000000000000000600052601160045260246000fd5b7f4e487b7100000000000000000000000000000000000000000000000000000000600052602260045260246000fd5b7f4e487b7100000000000000000000000000000000000000000000000000000000600052604160045260246000fd5b600080fd5b600080fd5b600080fd5b600080fd5b6000601f19601f8301169050919050565b7f546865206964206d7573742062652067726561746572207468616e20302e0000600082015250565b610b2281610946565b8114610b2d57600080fd5b5056fea2646970667358221220b471af94d5e963a3d8e228801a1f5481e178166c91adac5cfea41501a86dcfc164736f6c63430008070033",
					"opcodes": "PUSH1 0x80 PUSH1 0x40 MSTORE CALLVALUE DUP1 ISZERO PUSH2 0x10 JUMPI PUSH1 0x0 DUP1 REVERT JUMPDEST POP PUSH2 0xB66 DUP1 PUSH2 0x20 PUSH1 0x0 CODECOPY PUSH1 0x0 RETURN INVALID PUSH1 0x80 PUSH1 0x40 MSTORE CALLVALUE DUP1 ISZERO PUSH2 0x10 JUMPI PUSH1 0x0 DUP1 REVERT JUMPDEST POP PUSH1 0x4 CALLDATASIZE LT PUSH2 0x4C JUMPI PUSH1 0x0 CALLDATALOAD PUSH1 0xE0 SHR DUP1 PUSH4 0xA3BD50B EQ PUSH2 0x51 JUMPI DUP1 PUSH4 0x2F7467B3 EQ PUSH2 0x6D JUMPI DUP1 PUSH4 0x5E916790 EQ PUSH2 0x9D JUMPI DUP1 PUSH4 0xDE292789 EQ PUSH2 0xBB JUMPI JUMPDEST PUSH1 0x0 DUP1 REVERT JUMPDEST PUSH2 0x6B PUSH1 0x4 DUP1 CALLDATASIZE SUB DUP2 ADD SWAP1 PUSH2 0x66 SWAP2 SWAP1 PUSH2 0x4EF JUMP JUMPDEST PUSH2 0xDA JUMP JUMPDEST STOP JUMPDEST PUSH2 0x87 PUSH1 0x4 DUP1 CALLDATASIZE SUB DUP2 ADD SWAP1 PUSH2 0x82 SWAP2 SWAP1 PUSH2 0x54B JUMP JUMPDEST PUSH2 0x268 JUMP JUMPDEST PUSH1 0x40 MLOAD PUSH2 0x94 SWAP2 SWAP1 PUSH2 0x700 JUMP JUMPDEST PUSH1 0x40 MLOAD DUP1 SWAP2 SUB SWAP1 RETURN JUMPDEST PUSH2 0xA5 PUSH2 0x29B JUMP JUMPDEST PUSH1 0x40 MLOAD PUSH2 0xB2 SWAP2 SWAP1 PUSH2 0x71B JUMP JUMPDEST PUSH1 0x40 MLOAD DUP1 SWAP2 SUB SWAP1 RETURN JUMPDEST PUSH2 0xC3 PUSH2 0x396 JUMP JUMPDEST PUSH1 0x40 MLOAD PUSH2 0xD1 SWAP3 SWAP2 SWAP1 PUSH2 0x77F JUMP JUMPDEST PUSH1 0x40 MLOAD DUP1 SWAP2 SUB SWAP1 RETURN JUMPDEST PUSH1 0x0 DUP2 GT PUSH2 0x11D JUMPI PUSH1 0x40 MLOAD PUSH32 0x8C379A000000000000000000000000000000000000000000000000000000000 DUP2 MSTORE PUSH1 0x4 ADD PUSH2 0x114 SWAP1 PUSH2 0x75F JUMP JUMPDEST PUSH1 0x40 MLOAD DUP1 SWAP2 SUB SWAP1 REVERT JUMPDEST PUSH1 0x0 PUSH1 0x40 MLOAD DUP1 PUSH1 0x40 ADD PUSH1 0x40 MSTORE DUP1 DUP4 DUP2 MSTORE PUSH1 0x20 ADD DUP5 DUP2 MSTORE POP SWAP1 DUP1 PUSH1 0x1 DUP2 SLOAD ADD DUP1 DUP3 SSTORE DUP1 SWAP2 POP POP PUSH1 0x1 SWAP1 SUB SWAP1 PUSH1 0x0 MSTORE PUSH1 0x20 PUSH1 0x0 KECCAK256 SWAP1 PUSH1 0x2 MUL ADD PUSH1 0x0 SWAP1 SWAP2 SWAP1 SWAP2 SWAP1 SWAP2 POP PUSH1 0x0 DUP3 ADD MLOAD DUP2 PUSH1 0x0 ADD SSTORE PUSH1 0x20 DUP3 ADD MLOAD DUP2 PUSH1 0x1 ADD SWAP1 DUP1 MLOAD SWAP1 PUSH1 0x20 ADD SWAP1 PUSH2 0x183 SWAP3 SWAP2 SWAP1 PUSH2 0x3C7 JUMP JUMPDEST POP POP POP CALLER PUSH1 0x1 PUSH1 0x0 DUP4 DUP2 MSTORE PUSH1 0x20 ADD SWAP1 DUP2 MSTORE PUSH1 0x20 ADD PUSH1 0x0 KECCAK256 PUSH1 0x0 PUSH2 0x100 EXP DUP2 SLOAD DUP2 PUSH20 0xFFFFFFFFFFFFFFFFFFFFFFFFFFFFFFFFFFFFFFFF MUL NOT AND SWAP1 DUP4 PUSH20 0xFFFFFFFFFFFFFFFFFFFFFFFFFFFFFFFFFFFFFFFF AND MUL OR SWAP1 SSTORE POP PUSH1 0x2 PUSH1 0x0 CALLER PUSH20 0xFFFFFFFFFFFFFFFFFFFFFFFFFFFFFFFFFFFFFFFF AND PUSH20 0xFFFFFFFFFFFFFFFFFFFFFFFFFFFFFFFFFFFFFFFF AND DUP2 MSTORE PUSH1 0x20 ADD SWAP1 DUP2 MSTORE PUSH1 0x20 ADD PUSH1 0x0 KECCAK256 PUSH1 0x0 DUP2 SLOAD DUP1 SWAP3 SWAP2 SWAP1 PUSH2 0x228 SWAP1 PUSH2 0x9F5 JUMP JUMPDEST SWAP2 SWAP1 POP SSTORE POP PUSH32 0x9018649032BDFABE07C5FA8E887DF7DDA6BAF8EAC2EF8026B39EEBED1FDADEFF DUP3 PUSH1 0x40 MLOAD PUSH2 0x25C SWAP2 SWAP1 PUSH2 0x73D JUMP JUMPDEST PUSH1 0x40 MLOAD DUP1 SWAP2 SUB SWAP1 LOG1 POP POP JUMP JUMPDEST PUSH1 0x1 PUSH1 0x20 MSTORE DUP1 PUSH1 0x0 MSTORE PUSH1 0x40 PUSH1 0x0 KECCAK256 PUSH1 0x0 SWAP2 POP SLOAD SWAP1 PUSH2 0x100 EXP SWAP1 DIV PUSH20 0xFFFFFFFFFFFFFFFFFFFFFFFFFFFFFFFFFFFFFFFF AND DUP2 JUMP JUMPDEST PUSH1 0x60 PUSH1 0x0 DUP1 SLOAD DUP1 PUSH1 0x20 MUL PUSH1 0x20 ADD PUSH1 0x40 MLOAD SWAP1 DUP2 ADD PUSH1 0x40 MSTORE DUP1 SWAP3 SWAP2 SWAP1 DUP2 DUP2 MSTORE PUSH1 0x20 ADD PUSH1 0x0 SWAP1 JUMPDEST DUP3 DUP3 LT ISZERO PUSH2 0x38D JUMPI DUP4 DUP3 SWAP1 PUSH1 0x0 MSTORE PUSH1 0x20 PUSH1 0x0 KECCAK256 SWAP1 PUSH1 0x2 MUL ADD PUSH1 0x40 MLOAD DUP1 PUSH1 0x40 ADD PUSH1 0x40 MSTORE SWAP1 DUP2 PUSH1 0x0 DUP3 ADD SLOAD DUP2 MSTORE PUSH1 0x20 ADD PUSH1 0x1 DUP3 ADD DUP1 SLOAD PUSH2 0x2FC SWAP1 PUSH2 0x992 JUMP JUMPDEST DUP1 PUSH1 0x1F ADD PUSH1 0x20 DUP1 SWAP2 DIV MUL PUSH1 0x20 ADD PUSH1 0x40 MLOAD SWAP1 DUP2 ADD PUSH1 0x40 MSTORE DUP1 SWAP3 SWAP2 SWAP1 DUP2 DUP2 MSTORE PUSH1 0x20 ADD DUP3 DUP1 SLOAD PUSH2 0x328 SWAP1 PUSH2 0x992 JUMP JUMPDEST DUP1 ISZERO PUSH2 0x375 JUMPI DUP1 PUSH1 0x1F LT PUSH2 0x34A JUMPI PUSH2 0x100 DUP1 DUP4 SLOAD DIV MUL DUP4 MSTORE SWAP2 PUSH1 0x20 ADD SWAP2 PUSH2 0x375 JUMP JUMPDEST DUP3 ADD SWAP2 SWAP1 PUSH1 0x0 MSTORE PUSH1 0x20 PUSH1 0x0 KECCAK256 SWAP1 JUMPDEST DUP2 SLOAD DUP2 MSTORE SWAP1 PUSH1 0x1 ADD SWAP1 PUSH1 0x20 ADD DUP1 DUP4 GT PUSH2 0x358 JUMPI DUP3 SWAP1 SUB PUSH1 0x1F AND DUP3 ADD SWAP2 JUMPDEST POP POP POP POP POP DUP2 MSTORE POP POP DUP2 MSTORE PUSH1 0x20 ADD SWAP1 PUSH1 0x1 ADD SWAP1 PUSH2 0x2BF JUMP JUMPDEST POP POP POP POP SWAP1 POP SWAP1 JUMP JUMPDEST PUSH1 0x0 DUP1 PUSH1 0x0 PUSH1 0x1 SWAP1 POP PUSH1 0x0 PUSH1 0x2 SWAP1 POP DUP1 DUP3 PUSH2 0x3B1 SWAP2 SWAP1 PUSH2 0x8BA JUMP JUMPDEST SWAP4 POP DUP1 DUP3 PUSH2 0x3BF SWAP2 SWAP1 PUSH2 0x864 JUMP JUMPDEST SWAP3 POP POP POP SWAP1 SWAP2 JUMP JUMPDEST DUP3 DUP1 SLOAD PUSH2 0x3D3 SWAP1 PUSH2 0x992 JUMP JUMPDEST SWAP1 PUSH1 0x0 MSTORE PUSH1 0x20 PUSH1 0x0 KECCAK256 SWAP1 PUSH1 0x1F ADD PUSH1 0x20 SWAP1 DIV DUP2 ADD SWAP3 DUP3 PUSH2 0x3F5 JUMPI PUSH1 0x0 DUP6 SSTORE PUSH2 0x43C JUMP JUMPDEST DUP3 PUSH1 0x1F LT PUSH2 0x40E JUMPI DUP1 MLOAD PUSH1 0xFF NOT AND DUP4 DUP1 ADD OR DUP6 SSTORE PUSH2 0x43C JUMP JUMPDEST DUP3 DUP1 ADD PUSH1 0x1 ADD DUP6 SSTORE DUP3 ISZERO PUSH2 0x43C JUMPI SWAP2 DUP3 ADD JUMPDEST DUP3 DUP2 GT ISZERO PUSH2 0x43B JUMPI DUP3 MLOAD DUP3 SSTORE SWAP2 PUSH1 0x20 ADD SWAP2 SWAP1 PUSH1 0x1 ADD SWAP1 PUSH2 0x420 JUMP JUMPDEST JUMPDEST POP SWAP1 POP PUSH2 0x449 SWAP2 SWAP1 PUSH2 0x44D JUMP JUMPDEST POP SWAP1 JUMP JUMPDEST JUMPDEST DUP1 DUP3 GT ISZERO PUSH2 0x466 JUMPI PUSH1 0x0 DUP2 PUSH1 0x0 SWAP1 SSTORE POP PUSH1 0x1 ADD PUSH2 0x44E JUMP JUMPDEST POP SWAP1 JUMP JUMPDEST PUSH1 0x0 PUSH2 0x47D PUSH2 0x478 DUP5 PUSH2 0x7CD JUMP JUMPDEST PUSH2 0x7A8 JUMP JUMPDEST SWAP1 POP DUP3 DUP2 MSTORE PUSH1 0x20 DUP2 ADD DUP5 DUP5 DUP5 ADD GT ISZERO PUSH2 0x499 JUMPI PUSH2 0x498 PUSH2 0xAD0 JUMP JUMPDEST JUMPDEST PUSH2 0x4A4 DUP5 DUP3 DUP6 PUSH2 0x950 JUMP JUMPDEST POP SWAP4 SWAP3 POP POP POP JUMP JUMPDEST PUSH1 0x0 DUP3 PUSH1 0x1F DUP4 ADD SLT PUSH2 0x4C1 JUMPI PUSH2 0x4C0 PUSH2 0xACB JUMP JUMPDEST JUMPDEST DUP2 CALLDATALOAD PUSH2 0x4D1 DUP5 DUP3 PUSH1 0x20 DUP7 ADD PUSH2 0x46A JUMP JUMPDEST SWAP2 POP POP SWAP3 SWAP2 POP POP JUMP JUMPDEST PUSH1 0x0 DUP2 CALLDATALOAD SWAP1 POP PUSH2 0x4E9 DUP2 PUSH2 0xB19 JUMP JUMPDEST SWAP3 SWAP2 POP POP JUMP JUMPDEST PUSH1 0x0 DUP1 PUSH1 0x40 DUP4 DUP6 SUB SLT ISZERO PUSH2 0x506 JUMPI PUSH2 0x505 PUSH2 0xADA JUMP JUMPDEST JUMPDEST PUSH1 0x0 DUP4 ADD CALLDATALOAD PUSH8 0xFFFFFFFFFFFFFFFF DUP2 GT ISZERO PUSH2 0x524 JUMPI PUSH2 0x523 PUSH2 0xAD5 JUMP JUMPDEST JUMPDEST PUSH2 0x530 DUP6 DUP3 DUP7 ADD PUSH2 0x4AC JUMP JUMPDEST SWAP3 POP POP PUSH1 0x20 PUSH2 0x541 DUP6 DUP3 DUP7 ADD PUSH2 0x4DA JUMP JUMPDEST SWAP2 POP POP SWAP3 POP SWAP3 SWAP1 POP JUMP JUMPDEST PUSH1 0x0 PUSH1 0x20 DUP3 DUP5 SUB SLT ISZERO PUSH2 0x561 JUMPI PUSH2 0x560 PUSH2 0xADA JUMP JUMPDEST JUMPDEST PUSH1 0x0 PUSH2 0x56F DUP5 DUP3 DUP6 ADD PUSH2 0x4DA JUMP JUMPDEST SWAP2 POP POP SWAP3 SWAP2 POP POP JUMP JUMPDEST PUSH1 0x0 PUSH2 0x584 DUP4 DUP4 PUSH2 0x6A5 JUMP JUMPDEST SWAP1 POP SWAP3 SWAP2 POP POP JUMP JUMPDEST PUSH2 0x595 DUP2 PUSH2 0x914 JUMP JUMPDEST DUP3 MSTORE POP POP JUMP JUMPDEST PUSH1 0x0 PUSH2 0x5A6 DUP3 PUSH2 0x80E JUMP JUMPDEST PUSH2 0x5B0 DUP2 DUP6 PUSH2 0x831 JUMP JUMPDEST SWAP4 POP DUP4 PUSH1 0x20 DUP3 MUL DUP6 ADD PUSH2 0x5C2 DUP6 PUSH2 0x7FE JUMP JUMPDEST DUP1 PUSH1 0x0 JUMPDEST DUP6 DUP2 LT ISZERO PUSH2 0x5FE JUMPI DUP5 DUP5 SUB DUP10 MSTORE DUP2 MLOAD PUSH2 0x5DF DUP6 DUP3 PUSH2 0x578 JUMP JUMPDEST SWAP5 POP PUSH2 0x5EA DUP4 PUSH2 0x824 JUMP JUMPDEST SWAP3 POP PUSH1 0x20 DUP11 ADD SWAP10 POP POP PUSH1 0x1 DUP2 ADD SWAP1 POP PUSH2 0x5C6 JUMP JUMPDEST POP DUP3 SWAP8 POP DUP8 SWAP6 POP POP POP POP POP POP SWAP3 SWAP2 POP POP JUMP JUMPDEST PUSH1 0x0 PUSH2 0x61B DUP3 PUSH2 0x819 JUMP JUMPDEST PUSH2 0x625 DUP2 DUP6 PUSH2 0x842 JUMP JUMPDEST SWAP4 POP PUSH2 0x635 DUP2 DUP6 PUSH1 0x20 DUP7 ADD PUSH2 0x95F JUMP JUMPDEST PUSH2 0x63E DUP2 PUSH2 0xADF JUMP JUMPDEST DUP5 ADD SWAP2 POP POP SWAP3 SWAP2 POP POP JUMP JUMPDEST PUSH1 0x0 PUSH2 0x654 DUP3 PUSH2 0x819 JUMP JUMPDEST PUSH2 0x65E DUP2 DUP6 PUSH2 0x853 JUMP JUMPDEST SWAP4 POP PUSH2 0x66E DUP2 DUP6 PUSH1 0x20 DUP7 ADD PUSH2 0x95F JUMP JUMPDEST PUSH2 0x677 DUP2 PUSH2 0xADF JUMP JUMPDEST DUP5 ADD SWAP2 POP POP SWAP3 SWAP2 POP POP JUMP JUMPDEST PUSH1 0x0 PUSH2 0x68F PUSH1 0x1E DUP4 PUSH2 0x853 JUMP JUMPDEST SWAP2 POP PUSH2 0x69A DUP3 PUSH2 0xAF0 JUMP JUMPDEST PUSH1 0x20 DUP3 ADD SWAP1 POP SWAP2 SWAP1 POP JUMP JUMPDEST PUSH1 0x0 PUSH1 0x40 DUP4 ADD PUSH1 0x0 DUP4 ADD MLOAD PUSH2 0x6BD PUSH1 0x0 DUP7 ADD DUP3 PUSH2 0x6E2 JUMP JUMPDEST POP PUSH1 0x20 DUP4 ADD MLOAD DUP5 DUP3 SUB PUSH1 0x20 DUP7 ADD MSTORE PUSH2 0x6D5 DUP3 DUP3 PUSH2 0x610 JUMP JUMPDEST SWAP2 POP POP DUP1 SWAP2 POP POP SWAP3 SWAP2 POP POP JUMP JUMPDEST PUSH2 0x6EB DUP2 PUSH2 0x946 JUMP JUMPDEST DUP3 MSTORE POP POP JUMP JUMPDEST PUSH2 0x6FA DUP2 PUSH2 0x946 JUMP JUMPDEST DUP3 MSTORE POP POP JUMP JUMPDEST PUSH1 0x0 PUSH1 0x20 DUP3 ADD SWAP1 POP PUSH2 0x715 PUSH1 0x0 DUP4 ADD DUP5 PUSH2 0x58C JUMP JUMPDEST SWAP3 SWAP2 POP POP JUMP JUMPDEST PUSH1 0x0 PUSH1 0x20 DUP3 ADD SWAP1 POP DUP2 DUP2 SUB PUSH1 0x0 DUP4 ADD MSTORE PUSH2 0x735 DUP2 DUP5 PUSH2 0x59B JUMP JUMPDEST SWAP1 POP SWAP3 SWAP2 POP POP JUMP JUMPDEST PUSH1 0x0 PUSH1 0x20 DUP3 ADD SWAP1 POP DUP2 DUP2 SUB PUSH1 0x0 DUP4 ADD MSTORE PUSH2 0x757 DUP2 DUP5 PUSH2 0x649 JUMP JUMPDEST SWAP1 POP SWAP3 SWAP2 POP POP JUMP JUMPDEST PUSH1 0x0 PUSH1 0x20 DUP3 ADD SWAP1 POP DUP2 DUP2 SUB PUSH1 0x0 DUP4 ADD MSTORE PUSH2 0x778 DUP2 PUSH2 0x682 JUMP JUMPDEST SWAP1 POP SWAP2 SWAP1 POP JUMP JUMPDEST PUSH1 0x0 PUSH1 0x40 DUP3 ADD SWAP1 POP PUSH2 0x794 PUSH1 0x0 DUP4 ADD DUP6 PUSH2 0x6F1 JUMP JUMPDEST PUSH2 0x7A1 PUSH1 0x20 DUP4 ADD DUP5 PUSH2 0x6F1 JUMP JUMPDEST SWAP4 SWAP3 POP POP POP JUMP JUMPDEST PUSH1 0x0 PUSH2 0x7B2 PUSH2 0x7C3 JUMP JUMPDEST SWAP1 POP PUSH2 0x7BE DUP3 DUP3 PUSH2 0x9C4 JUMP JUMPDEST SWAP2 SWAP1 POP JUMP JUMPDEST PUSH1 0x0 PUSH1 0x40 MLOAD SWAP1 POP SWAP1 JUMP JUMPDEST PUSH1 0x0 PUSH8 0xFFFFFFFFFFFFFFFF DUP3 GT ISZERO PUSH2 0x7E8 JUMPI PUSH2 0x7E7 PUSH2 0xA9C JUMP JUMPDEST JUMPDEST PUSH2 0x7F1 DUP3 PUSH2 0xADF JUMP JUMPDEST SWAP1 POP PUSH1 0x20 DUP2 ADD SWAP1 POP SWAP2 SWAP1 POP JUMP JUMPDEST PUSH1 0x0 DUP2 SWAP1 POP PUSH1 0x20 DUP3 ADD SWAP1 POP SWAP2 SWAP1 POP JUMP JUMPDEST PUSH1 0x0 DUP2 MLOAD SWAP1 POP SWAP2 SWAP1 POP JUMP JUMPDEST PUSH1 0x0 DUP2 MLOAD SWAP1 POP SWAP2 SWAP1 POP JUMP JUMPDEST PUSH1 0x0 PUSH1 0x20 DUP3 ADD SWAP1 POP SWAP2 SWAP1 POP JUMP JUMPDEST PUSH1 0x0 DUP3 DUP3 MSTORE PUSH1 0x20 DUP3 ADD SWAP1 POP SWAP3 SWAP2 POP POP JUMP JUMPDEST PUSH1 0x0 DUP3 DUP3 MSTORE PUSH1 0x20 DUP3 ADD SWAP1 POP SWAP3 SWAP2 POP POP JUMP JUMPDEST PUSH1 0x0 DUP3 DUP3 MSTORE PUSH1 0x20 DUP3 ADD SWAP1 POP SWAP3 SWAP2 POP POP JUMP JUMPDEST PUSH1 0x0 PUSH2 0x86F DUP3 PUSH2 0x946 JUMP JUMPDEST SWAP2 POP PUSH2 0x87A DUP4 PUSH2 0x946 JUMP JUMPDEST SWAP3 POP DUP3 PUSH32 0xFFFFFFFFFFFFFFFFFFFFFFFFFFFFFFFFFFFFFFFFFFFFFFFFFFFFFFFFFFFFFFFF SUB DUP3 GT ISZERO PUSH2 0x8AF JUMPI PUSH2 0x8AE PUSH2 0xA3E JUMP JUMPDEST JUMPDEST DUP3 DUP3 ADD SWAP1 POP SWAP3 SWAP2 POP POP JUMP JUMPDEST PUSH1 0x0 PUSH2 0x8C5 DUP3 PUSH2 0x946 JUMP JUMPDEST SWAP2 POP PUSH2 0x8D0 DUP4 PUSH2 0x946 JUMP JUMPDEST SWAP3 POP DUP2 PUSH32 0xFFFFFFFFFFFFFFFFFFFFFFFFFFFFFFFFFFFFFFFFFFFFFFFFFFFFFFFFFFFFFFFF DIV DUP4 GT DUP3 ISZERO ISZERO AND ISZERO PUSH2 0x909 JUMPI PUSH2 0x908 PUSH2 0xA3E JUMP JUMPDEST JUMPDEST DUP3 DUP3 MUL SWAP1 POP SWAP3 SWAP2 POP POP JUMP JUMPDEST PUSH1 0x0 PUSH2 0x91F DUP3 PUSH2 0x926 JUMP JUMPDEST SWAP1 POP SWAP2 SWAP1 POP JUMP JUMPDEST PUSH1 0x0 PUSH20 0xFFFFFFFFFFFFFFFFFFFFFFFFFFFFFFFFFFFFFFFF DUP3 AND SWAP1 POP SWAP2 SWAP1 POP JUMP JUMPDEST PUSH1 0x0 DUP2 SWAP1 POP SWAP2 SWAP1 POP JUMP JUMPDEST DUP3 DUP2 DUP4 CALLDATACOPY PUSH1 0x0 DUP4 DUP4 ADD MSTORE POP POP POP JUMP JUMPDEST PUSH1 0x0 JUMPDEST DUP4 DUP2 LT ISZERO PUSH2 0x97D JUMPI DUP1 DUP3 ADD MLOAD DUP2 DUP5 ADD MSTORE PUSH1 0x20 DUP2 ADD SWAP1 POP PUSH2 0x962 JUMP JUMPDEST DUP4 DUP2 GT ISZERO PUSH2 0x98C JUMPI PUSH1 0x0 DUP5 DUP5 ADD MSTORE JUMPDEST POP POP POP POP JUMP JUMPDEST PUSH1 0x0 PUSH1 0x2 DUP3 DIV SWAP1 POP PUSH1 0x1 DUP3 AND DUP1 PUSH2 0x9AA JUMPI PUSH1 0x7F DUP3 AND SWAP2 POP JUMPDEST PUSH1 0x20 DUP3 LT DUP2 EQ ISZERO PUSH2 0x9BE JUMPI PUSH2 0x9BD PUSH2 0xA6D JUMP JUMPDEST JUMPDEST POP SWAP2 SWAP1 POP JUMP JUMPDEST PUSH2 0x9CD DUP3 PUSH2 0xADF JUMP JUMPDEST DUP2 ADD DUP2 DUP2 LT PUSH8 0xFFFFFFFFFFFFFFFF DUP3 GT OR ISZERO PUSH2 0x9EC JUMPI PUSH2 0x9EB PUSH2 0xA9C JUMP JUMPDEST JUMPDEST DUP1 PUSH1 0x40 MSTORE POP POP POP JUMP JUMPDEST PUSH1 0x0 PUSH2 0xA00 DUP3 PUSH2 0x946 JUMP JUMPDEST SWAP2 POP PUSH32 0xFFFFFFFFFFFFFFFFFFFFFFFFFFFFFFFFFFFFFFFFFFFFFFFFFFFFFFFFFFFFFFFF DUP3 EQ ISZERO PUSH2 0xA33 JUMPI PUSH2 0xA32 PUSH2 0xA3E JUMP JUMPDEST JUMPDEST PUSH1 0x1 DUP3 ADD SWAP1 POP SWAP2 SWAP1 POP JUMP JUMPDEST PUSH32 0x4E487B7100000000000000000000000000000000000000000000000000000000 PUSH1 0x0 MSTORE PUSH1 0x11 PUSH1 0x4 MSTORE PUSH1 0x24 PUSH1 0x0 REVERT JUMPDEST PUSH32 0x4E487B7100000000000000000000000000000000000000000000000000000000 PUSH1 0x0 MSTORE PUSH1 0x22 PUSH1 0x4 MSTORE PUSH1 0x24 PUSH1 0x0 REVERT JUMPDEST PUSH32 0x4E487B7100000000000000000000000000000000000000000000000000000000 PUSH1 0x0 MSTORE PUSH1 0x41 PUSH1 0x4 MSTORE PUSH1 0x24 PUSH1 0x0 REVERT JUMPDEST PUSH1 0x0 DUP1 REVERT JUMPDEST PUSH1 0x0 DUP1 REVERT JUMPDEST PUSH1 0x0 DUP1 REVERT JUMPDEST PUSH1 0x0 DUP1 REVERT JUMPDEST PUSH1 0x0 PUSH1 0x1F NOT PUSH1 0x1F DUP4 ADD AND SWAP1 POP SWAP2 SWAP1 POP JUMP JUMPDEST PUSH32 0x546865206964206D7573742062652067726561746572207468616E20302E0000 PUSH1 0x0 DUP3 ADD MSTORE POP JUMP JUMPDEST PUSH2 0xB22 DUP2 PUSH2 0x946 JUMP JUMPDEST DUP2 EQ PUSH2 0xB2D JUMPI PUSH1 0x0 DUP1 REVERT JUMPDEST POP JUMP INVALID LOG2 PUSH5 0x6970667358 0x22 SLT KECCAK256 0xB4 PUSH18 0xAF94D5E963A3D8E228801A1F5481E178166C SWAP2 0xAD 0xAC 0x5C INVALID LOG4 ISZERO ADD 0xA8 PUSH14 0xCFC164736F6C6343000807003300 "
				},
				"gasEstimates": {
					"creation": {
						"codeDepositCost": "583600",
						"executionCost": "619",
						"totalCost": "584219"
					},
					"external": {
						"createPokemon(string,uint256)": "infinite",
						"getAllPokemons()": "infinite",
						"getResult()": "infinite",
						"pokemonToOwner(uint256)": "2839"
					}
				},
				"methodIdentifiers": {
					"createPokemon(string,uint256)": "0a3bd50b",
					"getAllPokemons()": "5e916790",
					"getResult()": "de292789",
					"pokemonToOwner(uint256)": "2f7467b3"
				}
			},
			"storageLayout": {
				"storage": [
					{
						"astId": 10,
						"contract": "PokemonFactory.sol:PokemonFactory",
						"label": "pokemons",
						"offset": 0,
						"slot": "0",
						"type": "t_array(t_struct(Pokemon)6_storage)dyn_storage"
					},
					{
						"astId": 14,
						"contract": "PokemonFactory.sol:PokemonFactory",
						"label": "pokemonToOwner",
						"offset": 0,
						"slot": "1",
						"type": "t_mapping(t_uint256,t_address)"
					},
					{
						"astId": 18,
						"contract": "PokemonFactory.sol:PokemonFactory",
						"label": "ownerPokemonCount",
						"offset": 0,
						"slot": "2",
						"type": "t_mapping(t_address,t_uint256)"
					}
				],
				"types": {
					"t_address": {
						"encoding": "inplace",
						"label": "address",
						"numberOfBytes": "20"
					},
					"t_array(t_struct(Pokemon)6_storage)dyn_storage": {
						"base": "t_struct(Pokemon)6_storage",
						"encoding": "dynamic_array",
						"label": "struct PokemonFactory.Pokemon[]",
						"numberOfBytes": "32"
					},
					"t_mapping(t_address,t_uint256)": {
						"encoding": "mapping",
						"key": "t_address",
						"label": "mapping(address => uint256)",
						"numberOfBytes": "32",
						"value": "t_uint256"
					},
					"t_mapping(t_uint256,t_address)": {
						"encoding": "mapping",
						"key": "t_uint256",
						"label": "mapping(uint256 => address)",
						"numberOfBytes": "32",
						"value": "t_address"
					},
					"t_string_storage": {
						"encoding": "bytes",
						"label": "string",
						"numberOfBytes": "32"
					},
					"t_struct(Pokemon)6_storage": {
						"encoding": "inplace",
						"label": "struct PokemonFactory.Pokemon",
						"members": [
							{
								"astId": 3,
								"contract": "PokemonFactory.sol:PokemonFactory",
								"label": "id",
								"offset": 0,
								"slot": "0",
								"type": "t_uint256"
							},
							{
								"astId": 5,
								"contract": "PokemonFactory.sol:PokemonFactory",
								"label": "name",
								"offset": 0,
								"slot": "1",
								"type": "t_string_storage"
							}
						],
						"numberOfBytes": "64"
					},
					"t_uint256": {
						"encoding": "inplace",
						"label": "uint256",
						"numberOfBytes": "32"
					}
				}
			},
			"userdoc": {
				"kind": "user",
				"methods": {},
				"version": 1
			}
		}
	}
}