{"contracts/PokemonFactory.sol":{"PokemonFactory":{"abi":[{"anonymous":false,"inputs":[{"indexed":false,"internalType":"uint256","name":"id","type":"uint256"},{"indexed":false,"internalType":"string","name":"name","type":"string"}],"name":"eventNewPokemon","type":"event"},{"inputs":[{"internalType":"string","name":"_name","type":"string"},{"internalType":"uint256","name":"_id","type":"uint256"},{"internalType":"enum PokemonFactory.Tipos[]","name":"_Type","type":"uint8[]"},{"internalType":"enum PokemonFactory.Tipos[]","name":"_Weaknesses","type":"uint8[]"}],"name":"createPokemon","outputs":[],"stateMutability":"nonpayable","type":"function"},{"inputs":[{"internalType":"string","name":"_Name","type":"string"},{"internalType":"string","name":"_Description","type":"string"},{"internalType":"uint256","name":"_id","type":"uint256"}],"name":"evolutionPokemon","outputs":[],"stateMutability":"nonpayable","type":"function"},{"inputs":[],"name":"getAllPokemons","outputs":[{"components":[{"internalType":"uint256","name":"id","type":"uint256"},{"internalType":"string","name":"name","type":"string"},{"internalType":"enum PokemonFactory.Tipos[]","name":"Type","type":"uint8[]"},{"internalType":"enum PokemonFactory.Tipos[]","name":"Weaknesses","type":"uint8[]"}],"internalType":"struct PokemonFactory.Pokemon[]","name":"","type":"tuple[]"},{"components":[{"internalType":"string","name":"Name","type":"string"},{"internalType":"string","name":"Description","type":"string"}],"internalType":"struct PokemonFactory.Habilities[]","name":"","type":"tuple[]"}],"stateMutability":"view","type":"function"},{"inputs":[],"name":"getResult","outputs":[{"internalType":"uint256","name":"product","type":"uint256"},{"internalType":"uint256","name":"sum","type":"uint256"}],"stateMutability":"pure","type":"function"},{"inputs":[{"internalType":"uint256","name":"","type":"uint256"}],"name":"pokemonToOwner","outputs":[{"internalType":"address","name":"","type":"address"}],"stateMutability":"view","type":"function"}],"evm":{"bytecode":{"linkReferences":{},"object":"608060405234801561001057600080fd5b506116f8806100206000396000f3fe608060405234801561001057600080fd5b50600436106100575760003560e01c80632f7467b31461005c5780635153b3381461008c5780635e916790146100a8578063c684c3e1146100c7578063de292789146100e3575b600080fd5b610076600480360381019061007191906108fb565b610102565b6040516100839190610969565b60405180910390f35b6100a660048036038101906100a19190610aca565b610135565b005b6100b06101fa565b6040516100be929190610f42565b60405180910390f35b6100e160048036038101906100dc9190611066565b610595565b005b6100eb6107ad565b6040516100f9929190611130565b60405180910390f35b60026020528060005260406000206000915054906101000a900473ffffffffffffffffffffffffffffffffffffffff1681565b60016040518060400160405280858152602001848152509080600181540180825580915050600190039060005260206000209060020201600090919091909150600082015181600001908161018a9190611365565b5060208201518160010190816101a09190611365565b505050336002600083815260200190815260200160002060006101000a81548173ffffffffffffffffffffffffffffffffffffffff021916908373ffffffffffffffffffffffffffffffffffffffff160217905550505050565b6060806000600181805480602002602001604051908101604052809291908181526020016000905b8282101561040a57838290600052602060002090600402016040518060800160405290816000820154815260200160018201805461025f90611188565b80601f016020809104026020016040519081016040528092919081815260200182805461028b90611188565b80156102d85780601f106102ad576101008083540402835291602001916102d8565b820191906000526020600020905b8154815290600101906020018083116102bb57829003601f168201915b505050505081526020016002820180548060200260200160405190810160405280929190818152602001828054801561036557602002820191906000526020600020906000905b82829054906101000a900460ff16601181111561033f5761033e610c3b565b5b8152602001906001019060208260000104928301926001038202915080841161031f5790505b50505050508152602001600382018054806020026020016040519081016040528092919081815260200182805480156103f257602002820191906000526020600020906000905b82829054906101000a900460ff1660118111156103cc576103cb610c3b565b5b815260200190600101906020826000010492830192600103820291508084116103ac5790505b50505050508152505081526020019060010190610222565b50505050915080805480602002602001604051908101604052809291908181526020016000905b82821015610587578382906000526020600020906002020160405180604001604052908160008201805461046490611188565b80601f016020809104026020016040519081016040528092919081815260200182805461049090611188565b80156104dd5780601f106104b2576101008083540402835291602001916104dd565b820191906000526020600020905b8154815290600101906020018083116104c057829003601f168201915b505050505081526020016001820180546104f690611188565b80601f016020809104026020016040519081016040528092919081815260200182805461052290611188565b801561056f5780601f106105445761010080835404028352916020019161056f565b820191906000526020600020905b81548152906001019060200180831161055257829003601f168201915b50505050508152505081526020019060010190610431565b505050509050915091509091565b82600081116105d9576040517f08c379a00000000000000000000000000000000000000000000000000000000081526004016105d0906114ba565b60405180910390fd5b84600281511161061e576040517f08c379a00000000000000000000000000000000000000000000000000000000081526004016106159061154c565b60405180910390fd5b600060405180608001604052808781526020018881526020018681526020018581525090806001815401808255809150506001900390600052602060002090600402016000909190919091506000820151816000015560208201518160010190816106899190611365565b5060408201518160020190805190602001906106a69291906107de565b5060608201518160030190805190602001906106c39291906107de565b505050336002600087815260200190815260200160002060006101000a81548173ffffffffffffffffffffffffffffffffffffffff021916908373ffffffffffffffffffffffffffffffffffffffff160217905550600360003373ffffffffffffffffffffffffffffffffffffffff1673ffffffffffffffffffffffffffffffffffffffff16815260200190815260200160002060008154809291906107689061159b565b91905055507e570a6686f18a686cdda2f62a7954c6bd78c21f4b33df90b0a5479f5ae8a9a8858760405161079d92919061161c565b60405180910390a1505050505050565b60008060006001905060006002905080826107c8919061164c565b935080826107d6919061168e565b925050509091565b82805482825590600052602060002090601f016020900481019282156108835791602002820160005b8382111561085457835183826101000a81548160ff0219169083601181111561083357610832610c3b565b5b02179055509260200192600101602081600001049283019260010302610807565b80156108815782816101000a81549060ff0219169055600101602081600001049283019260010302610854565b505b5090506108909190610894565b5090565b5b808211156108ad576000816000905550600101610895565b5090565b6000604051905090565b600080fd5b600080fd5b6000819050919050565b6108d8816108c5565b81146108e357600080fd5b50565b6000813590506108f5816108cf565b92915050565b600060208284031215610911576109106108bb565b5b600061091f848285016108e6565b91505092915050565b600073ffffffffffffffffffffffffffffffffffffffff82169050919050565b600061095382610928565b9050919050565b61096381610948565b82525050565b600060208201905061097e600083018461095a565b92915050565b600080fd5b600080fd5b6000601f19601f8301169050919050565b7f4e487b7100000000000000000000000000000000000000000000000000000000600052604160045260246000fd5b6109d78261098e565b810181811067ffffffffffffffff821117156109f6576109f561099f565b5b80604052505050565b6000610a096108b1565b9050610a1582826109ce565b919050565b600067ffffffffffffffff821115610a3557610a3461099f565b5b610a3e8261098e565b9050602081019050919050565b82818337600083830152505050565b6000610a6d610a6884610a1a565b6109ff565b905082815260208101848484011115610a8957610a88610989565b5b610a94848285610a4b565b509392505050565b600082601f830112610ab157610ab0610984565b5b8135610ac1848260208601610a5a565b91505092915050565b600080600060608486031215610ae357610ae26108bb565b5b600084013567ffffffffffffffff811115610b0157610b006108c0565b5b610b0d86828701610a9c565b935050602084013567ffffffffffffffff811115610b2e57610b2d6108c0565b5b610b3a86828701610a9c565b9250506040610b4b868287016108e6565b9150509250925092565b600081519050919050565b600082825260208201905092915050565b6000819050602082019050919050565b610b8a816108c5565b82525050565b600081519050919050565b600082825260208201905092915050565b60005b83811015610bca578082015181840152602081019050610baf565b60008484015250505050565b6000610be182610b90565b610beb8185610b9b565b9350610bfb818560208601610bac565b610c048161098e565b840191505092915050565b600081519050919050565b600082825260208201905092915050565b6000819050602082019050919050565b7f4e487b7100000000000000000000000000000000000000000000000000000000600052602160045260246000fd5b60128110610c7b57610c7a610c3b565b5b50565b6000819050610c8c82610c6a565b919050565b6000610c9c82610c7e565b9050919050565b610cac81610c91565b82525050565b6000610cbe8383610ca3565b60208301905092915050565b6000602082019050919050565b6000610ce282610c0f565b610cec8185610c1a565b9350610cf783610c2b565b8060005b83811015610d28578151610d0f8882610cb2565b9750610d1a83610cca565b925050600181019050610cfb565b5085935050505092915050565b6000608083016000830151610d4d6000860182610b81565b5060208301518482036020860152610d658282610bd6565b91505060408301518482036040860152610d7f8282610cd7565b91505060608301518482036060860152610d998282610cd7565b9150508091505092915050565b6000610db28383610d35565b905092915050565b6000602082019050919050565b6000610dd282610b55565b610ddc8185610b60565b935083602082028501610dee85610b71565b8060005b85811015610e2a5784840389528151610e0b8582610da6565b9450610e1683610dba565b925060208a01995050600181019050610df2565b50829750879550505050505092915050565b600081519050919050565b600082825260208201905092915050565b6000819050602082019050919050565b60006040830160008301518482036000860152610e858282610bd6565b91505060208301518482036020860152610e9f8282610bd6565b9150508091505092915050565b6000610eb88383610e68565b905092915050565b6000602082019050919050565b6000610ed882610e3c565b610ee28185610e47565b935083602082028501610ef485610e58565b8060005b85811015610f305784840389528151610f118582610eac565b9450610f1c83610ec0565b925060208a01995050600181019050610ef8565b50829750879550505050505092915050565b60006040820190508181036000830152610f5c8185610dc7565b90508181036020830152610f708184610ecd565b90509392505050565b600067ffffffffffffffff821115610f9457610f9361099f565b5b602082029050602081019050919050565b600080fd5b60128110610fb757600080fd5b50565b600081359050610fc981610faa565b92915050565b6000610fe2610fdd84610f79565b6109ff565b9050808382526020820190506020840283018581111561100557611004610fa5565b5b835b8181101561102e578061101a8882610fba565b845260208401935050602081019050611007565b5050509392505050565b600082601f83011261104d5761104c610984565b5b813561105d848260208601610fcf565b91505092915050565b600080600080608085870312156110805761107f6108bb565b5b600085013567ffffffffffffffff81111561109e5761109d6108c0565b5b6110aa87828801610a9c565b94505060206110bb878288016108e6565b935050604085013567ffffffffffffffff8111156110dc576110db6108c0565b5b6110e887828801611038565b925050606085013567ffffffffffffffff811115611109576111086108c0565b5b61111587828801611038565b91505092959194509250565b61112a816108c5565b82525050565b60006040820190506111456000830185611121565b6111526020830184611121565b9392505050565b7f4e487b7100000000000000000000000000000000000000000000000000000000600052602260045260246000fd5b600060028204905060018216806111a057607f821691505b6020821081036111b3576111b2611159565b5b50919050565b60008190508160005260206000209050919050565b60006020601f8301049050919050565b600082821b905092915050565b60006008830261121b7fffffffffffffffffffffffffffffffffffffffffffffffffffffffffffffffff826111de565b61122586836111de565b95508019841693508086168417925050509392505050565b6000819050919050565b600061126261125d611258846108c5565b61123d565b6108c5565b9050919050565b6000819050919050565b61127c83611247565b61129061128882611269565b8484546111eb565b825550505050565b600090565b6112a5611298565b6112b0818484611273565b505050565b5b818110156112d4576112c960008261129d565b6001810190506112b6565b5050565b601f821115611319576112ea816111b9565b6112f3846111ce565b81016020851015611302578190505b61131661130e856111ce565b8301826112b5565b50505b505050565b600082821c905092915050565b600061133c6000198460080261131e565b1980831691505092915050565b6000611355838361132b565b9150826002028217905092915050565b61136e82610b90565b67ffffffffffffffff8111156113875761138661099f565b5b6113918254611188565b61139c8282856112d8565b600060209050601f8311600181146113cf57600084156113bd578287015190505b6113c78582611349565b86555061142f565b601f1984166113dd866111b9565b60005b82811015611405578489015182556001820191506020850194506020810190506113e0565b86831015611422578489015161141e601f89168261132b565b8355505b6001600288020188555050505b505050505050565b600082825260208201905092915050565b7f456c20696420646520747520706f6b656d6f6e206465626520736572206d617960008201527f6f72206120300000000000000000000000000000000000000000000000000000602082015250565b60006114a4602683611437565b91506114af82611448565b604082019050919050565b600060208201905081810360008301526114d381611497565b9050919050565b7f456c206e6f6d62726520646520747520706f6b656d6f6e20646562652073657260008201527f206d61796f722061203220636172616374657265730000000000000000000000602082015250565b6000611536603583611437565b9150611541826114da565b604082019050919050565b6000602082019050818103600083015261156581611529565b9050919050565b7f4e487b7100000000000000000000000000000000000000000000000000000000600052601160045260246000fd5b60006115a6826108c5565b91507fffffffffffffffffffffffffffffffffffffffffffffffffffffffffffffffff82036115d8576115d761156c565b5b600182019050919050565b60006115ee82610b90565b6115f88185611437565b9350611608818560208601610bac565b6116118161098e565b840191505092915050565b60006040820190506116316000830185611121565b818103602083015261164381846115e3565b90509392505050565b6000611657826108c5565b9150611662836108c5565b9250828202611670816108c5565b915082820484148315176116875761168661156c565b5b5092915050565b6000611699826108c5565b91506116a4836108c5565b92508282019050808211156116bc576116bb61156c565b5b9291505056fea2646970667358221220a9942a627b0008bed6b73cab512eb8a1bbf692615758cdc9a65ce0879620baf364736f6c63430008120033","opcodes":"PUSH1 0x80 PUSH1 0x40 MSTORE CALLVALUE DUP1 ISZERO PUSH2 0x10 JUMPI PUSH1 0x0 DUP1 REVERT JUMPDEST POP PUSH2 0x16F8 DUP1 PUSH2 0x20 PUSH1 0x0 CODECOPY PUSH1 0x0 RETURN INVALID PUSH1 0x80 PUSH1 0x40 MSTORE CALLVALUE DUP1 ISZERO PUSH2 0x10 JUMPI PUSH1 0x0 DUP1 REVERT JUMPDEST POP PUSH1 0x4 CALLDATASIZE LT PUSH2 0x57 JUMPI PUSH1 0x0 CALLDATALOAD PUSH1 0xE0 SHR DUP1 PUSH4 0x2F7467B3 EQ PUSH2 0x5C JUMPI DUP1 PUSH4 0x5153B338 EQ PUSH2 0x8C JUMPI DUP1 PUSH4 0x5E916790 EQ PUSH2 0xA8 JUMPI DUP1 PUSH4 0xC684C3E1 EQ PUSH2 0xC7 JUMPI DUP1 PUSH4 0xDE292789 EQ PUSH2 0xE3 JUMPI JUMPDEST PUSH1 0x0 DUP1 REVERT JUMPDEST PUSH2 0x76 PUSH1 0x4 DUP1 CALLDATASIZE SUB DUP2 ADD SWAP1 PUSH2 0x71 SWAP2 SWAP1 PUSH2 0x8FB JUMP JUMPDEST PUSH2 0x102 JUMP JUMPDEST PUSH1 0x40 MLOAD PUSH2 0x83 SWAP2 SWAP1 PUSH2 0x969 JUMP JUMPDEST PUSH1 0x40 MLOAD DUP1 SWAP2 SUB SWAP1 RETURN JUMPDEST PUSH2 0xA6 PUSH1 0x4 DUP1 CALLDATASIZE SUB DUP2 ADD SWAP1 PUSH2 0xA1 SWAP2 SWAP1 PUSH2 0xACA JUMP JUMPDEST PUSH2 0x135 JUMP JUMPDEST STOP JUMPDEST PUSH2 0xB0 PUSH2 0x1FA JUMP JUMPDEST PUSH1 0x40 MLOAD PUSH2 0xBE SWAP3 SWAP2 SWAP1 PUSH2 0xF42 JUMP JUMPDEST PUSH1 0x40 MLOAD DUP1 SWAP2 SUB SWAP1 RETURN JUMPDEST PUSH2 0xE1 PUSH1 0x4 DUP1 CALLDATASIZE SUB DUP2 ADD SWAP1 PUSH2 0xDC SWAP2 SWAP1 PUSH2 0x1066 JUMP JUMPDEST PUSH2 0x595 JUMP JUMPDEST STOP JUMPDEST PUSH2 0xEB PUSH2 0x7AD JUMP JUMPDEST PUSH1 0x40 MLOAD PUSH2 0xF9 SWAP3 SWAP2 SWAP1 PUSH2 0x1130 JUMP JUMPDEST PUSH1 0x40 MLOAD DUP1 SWAP2 SUB SWAP1 RETURN JUMPDEST PUSH1 0x2 PUSH1 0x20 MSTORE DUP1 PUSH1 0x0 MSTORE PUSH1 0x40 PUSH1 0x0 KECCAK256 PUSH1 0x0 SWAP2 POP SLOAD SWAP1 PUSH2 0x100 EXP SWAP1 DIV PUSH20 0xFFFFFFFFFFFFFFFFFFFFFFFFFFFFFFFFFFFFFFFF AND DUP2 JUMP JUMPDEST PUSH1 0x1 PUSH1 0x40 MLOAD DUP1 PUSH1 0x40 ADD PUSH1 0x40 MSTORE DUP1 DUP6 DUP2 MSTORE PUSH1 0x20 ADD DUP5 DUP2 MSTORE POP SWAP1 DUP1 PUSH1 0x1 DUP2 SLOAD ADD DUP1 DUP3 SSTORE DUP1 SWAP2 POP POP PUSH1 0x1 SWAP1 SUB SWAP1 PUSH1 0x0 MSTORE PUSH1 0x20 PUSH1 0x0 KECCAK256 SWAP1 PUSH1 0x2 MUL ADD PUSH1 0x0 SWAP1 SWAP2 SWAP1 SWAP2 SWAP1 SWAP2 POP PUSH1 0x0 DUP3 ADD MLOAD DUP2 PUSH1 0x0 ADD SWAP1 DUP2 PUSH2 0x18A SWAP2 SWAP1 PUSH2 0x1365 JUMP JUMPDEST POP PUSH1 0x20 DUP3 ADD MLOAD DUP2 PUSH1 0x1 ADD SWAP1 DUP2 PUSH2 0x1A0 SWAP2 SWAP1 PUSH2 0x1365 JUMP JUMPDEST POP POP POP CALLER PUSH1 0x2 PUSH1 0x0 DUP4 DUP2 MSTORE PUSH1 0x20 ADD SWAP1 DUP2 MSTORE PUSH1 0x20 ADD PUSH1 0x0 KECCAK256 PUSH1 0x0 PUSH2 0x100 EXP DUP2 SLOAD DUP2 PUSH20 0xFFFFFFFFFFFFFFFFFFFFFFFFFFFFFFFFFFFFFFFF MUL NOT AND SWAP1 DUP4 PUSH20 0xFFFFFFFFFFFFFFFFFFFFFFFFFFFFFFFFFFFFFFFF AND MUL OR SWAP1 SSTORE POP POP POP POP JUMP JUMPDEST PUSH1 0x60 DUP1 PUSH1 0x0 PUSH1 0x1 DUP2 DUP1 SLOAD DUP1 PUSH1 0x20 MUL PUSH1 0x20 ADD PUSH1 0x40 MLOAD SWAP1 DUP2 ADD PUSH1 0x40 MSTORE DUP1 SWAP3 SWAP2 SWAP1 DUP2 DUP2 MSTORE PUSH1 0x20 ADD PUSH1 0x0 SWAP1 JUMPDEST DUP3 DUP3 LT ISZERO PUSH2 0x40A JUMPI DUP4 DUP3 SWAP1 PUSH1 0x0 MSTORE PUSH1 0x20 PUSH1 0x0 KECCAK256 SWAP1 PUSH1 0x4 MUL ADD PUSH1 0x40 MLOAD DUP1 PUSH1 0x80 ADD PUSH1 0x40 MSTORE SWAP1 DUP2 PUSH1 0x0 DUP3 ADD SLOAD DUP2 MSTORE PUSH1 0x20 ADD PUSH1 0x1 DUP3 ADD DUP1 SLOAD PUSH2 0x25F SWAP1 PUSH2 0x1188 JUMP JUMPDEST DUP1 PUSH1 0x1F ADD PUSH1 0x20 DUP1 SWAP2 DIV MUL PUSH1 0x20 ADD PUSH1 0x40 MLOAD SWAP1 DUP2 ADD PUSH1 0x40 MSTORE DUP1 SWAP3 SWAP2 SWAP1 DUP2 DUP2 MSTORE PUSH1 0x20 ADD DUP3 DUP1 SLOAD PUSH2 0x28B SWAP1 PUSH2 0x1188 JUMP JUMPDEST DUP1 ISZERO PUSH2 0x2D8 JUMPI DUP1 PUSH1 0x1F LT PUSH2 0x2AD JUMPI PUSH2 0x100 DUP1 DUP4 SLOAD DIV MUL DUP4 MSTORE SWAP2 PUSH1 0x20 ADD SWAP2 PUSH2 0x2D8 JUMP JUMPDEST DUP3 ADD SWAP2 SWAP1 PUSH1 0x0 MSTORE PUSH1 0x20 PUSH1 0x0 KECCAK256 SWAP1 JUMPDEST DUP2 SLOAD DUP2 MSTORE SWAP1 PUSH1 0x1 ADD SWAP1 PUSH1 0x20 ADD DUP1 DUP4 GT PUSH2 0x2BB JUMPI DUP3 SWAP1 SUB PUSH1 0x1F AND DUP3 ADD SWAP2 JUMPDEST POP POP POP POP POP DUP2 MSTORE PUSH1 0x20 ADD PUSH1 0x2 DUP3 ADD DUP1 SLOAD DUP1 PUSH1 0x20 MUL PUSH1 0x20 ADD PUSH1 0x40 MLOAD SWAP1 DUP2 ADD PUSH1 0x40 MSTORE DUP1 SWAP3 SWAP2 SWAP1 DUP2 DUP2 MSTORE PUSH1 0x20 ADD DUP3 DUP1 SLOAD DUP1 ISZERO PUSH2 0x365 JUMPI PUSH1 0x20 MUL DUP3 ADD SWAP2 SWAP1 PUSH1 0x0 MSTORE PUSH1 0x20 PUSH1 0x0 KECCAK256 SWAP1 PUSH1 0x0 SWAP1 JUMPDEST DUP3 DUP3 SWAP1 SLOAD SWAP1 PUSH2 0x100 EXP SWAP1 DIV PUSH1 0xFF AND PUSH1 0x11 DUP2 GT ISZERO PUSH2 0x33F JUMPI PUSH2 0x33E PUSH2 0xC3B JUMP JUMPDEST JUMPDEST DUP2 MSTORE PUSH1 0x20 ADD SWAP1 PUSH1 0x1 ADD SWAP1 PUSH1 0x20 DUP3 PUSH1 0x0 ADD DIV SWAP3 DUP4 ADD SWAP3 PUSH1 0x1 SUB DUP3 MUL SWAP2 POP DUP1 DUP5 GT PUSH2 0x31F JUMPI SWAP1 POP JUMPDEST POP POP POP POP POP DUP2 MSTORE PUSH1 0x20 ADD PUSH1 0x3 DUP3 ADD DUP1 SLOAD DUP1 PUSH1 0x20 MUL PUSH1 0x20 ADD PUSH1 0x40 MLOAD SWAP1 DUP2 ADD PUSH1 0x40 MSTORE DUP1 SWAP3 SWAP2 SWAP1 DUP2 DUP2 MSTORE PUSH1 0x20 ADD DUP3 DUP1 SLOAD DUP1 ISZERO PUSH2 0x3F2 JUMPI PUSH1 0x20 MUL DUP3 ADD SWAP2 SWAP1 PUSH1 0x0 MSTORE PUSH1 0x20 PUSH1 0x0 KECCAK256 SWAP1 PUSH1 0x0 SWAP1 JUMPDEST DUP3 DUP3 SWAP1 SLOAD SWAP1 PUSH2 0x100 EXP SWAP1 DIV PUSH1 0xFF AND PUSH1 0x11 DUP2 GT ISZERO PUSH2 0x3CC JUMPI PUSH2 0x3CB PUSH2 0xC3B JUMP JUMPDEST JUMPDEST DUP2 MSTORE PUSH1 0x20 ADD SWAP1 PUSH1 0x1 ADD SWAP1 PUSH1 0x20 DUP3 PUSH1 0x0 ADD DIV SWAP3 DUP4 ADD SWAP3 PUSH1 0x1 SUB DUP3 MUL SWAP2 POP DUP1 DUP5 GT PUSH2 0x3AC JUMPI SWAP1 POP JUMPDEST POP POP POP POP POP DUP2 MSTORE POP POP DUP2 MSTORE PUSH1 0x20 ADD SWAP1 PUSH1 0x1 ADD SWAP1 PUSH2 0x222 JUMP JUMPDEST POP POP POP POP SWAP2 POP DUP1 DUP1 SLOAD DUP1 PUSH1 0x20 MUL PUSH1 0x20 ADD PUSH1 0x40 MLOAD SWAP1 DUP2 ADD PUSH1 0x40 MSTORE DUP1 SWAP3 SWAP2 SWAP1 DUP2 DUP2 MSTORE PUSH1 0x20 ADD PUSH1 0x0 SWAP1 JUMPDEST DUP3 DUP3 LT ISZERO PUSH2 0x587 JUMPI DUP4 DUP3 SWAP1 PUSH1 0x0 MSTORE PUSH1 0x20 PUSH1 0x0 KECCAK256 SWAP1 PUSH1 0x2 MUL ADD PUSH1 0x40 MLOAD DUP1 PUSH1 0x40 ADD PUSH1 0x40 MSTORE SWAP1 DUP2 PUSH1 0x0 DUP3 ADD DUP1 SLOAD PUSH2 0x464 SWAP1 PUSH2 0x1188 JUMP JUMPDEST DUP1 PUSH1 0x1F ADD PUSH1 0x20 DUP1 SWAP2 DIV MUL PUSH1 0x20 ADD PUSH1 0x40 MLOAD SWAP1 DUP2 ADD PUSH1 0x40 MSTORE DUP1 SWAP3 SWAP2 SWAP1 DUP2 DUP2 MSTORE PUSH1 0x20 ADD DUP3 DUP1 SLOAD PUSH2 0x490 SWAP1 PUSH2 0x1188 JUMP JUMPDEST DUP1 ISZERO PUSH2 0x4DD JUMPI DUP1 PUSH1 0x1F LT PUSH2 0x4B2 JUMPI PUSH2 0x100 DUP1 DUP4 SLOAD DIV MUL DUP4 MSTORE SWAP2 PUSH1 0x20 ADD SWAP2 PUSH2 0x4DD JUMP JUMPDEST DUP3 ADD SWAP2 SWAP1 PUSH1 0x0 MSTORE PUSH1 0x20 PUSH1 0x0 KECCAK256 SWAP1 JUMPDEST DUP2 SLOAD DUP2 MSTORE SWAP1 PUSH1 0x1 ADD SWAP1 PUSH1 0x20 ADD DUP1 DUP4 GT PUSH2 0x4C0 JUMPI DUP3 SWAP1 SUB PUSH1 0x1F AND DUP3 ADD SWAP2 JUMPDEST POP POP POP POP POP DUP2 MSTORE PUSH1 0x20 ADD PUSH1 0x1 DUP3 ADD DUP1 SLOAD PUSH2 0x4F6 SWAP1 PUSH2 0x1188 JUMP JUMPDEST DUP1 PUSH1 0x1F ADD PUSH1 0x20 DUP1 SWAP2 DIV MUL PUSH1 0x20 ADD PUSH1 0x40 MLOAD SWAP1 DUP2 ADD PUSH1 0x40 MSTORE DUP1 SWAP3 SWAP2 SWAP1 DUP2 DUP2 MSTORE PUSH1 0x20 ADD DUP3 DUP1 SLOAD PUSH2 0x522 SWAP1 PUSH2 0x1188 JUMP JUMPDEST DUP1 ISZERO PUSH2 0x56F JUMPI DUP1 PUSH1 0x1F LT PUSH2 0x544 JUMPI PUSH2 0x100 DUP1 DUP4 SLOAD DIV MUL DUP4 MSTORE SWAP2 PUSH1 0x20 ADD SWAP2 PUSH2 0x56F JUMP JUMPDEST DUP3 ADD SWAP2 SWAP1 PUSH1 0x0 MSTORE PUSH1 0x20 PUSH1 0x0 KECCAK256 SWAP1 JUMPDEST DUP2 SLOAD DUP2 MSTORE SWAP1 PUSH1 0x1 ADD SWAP1 PUSH1 0x20 ADD DUP1 DUP4 GT PUSH2 0x552 JUMPI DUP3 SWAP1 SUB PUSH1 0x1F AND DUP3 ADD SWAP2 JUMPDEST POP POP POP POP POP DUP2 MSTORE POP POP DUP2 MSTORE PUSH1 0x20 ADD SWAP1 PUSH1 0x1 ADD SWAP1 PUSH2 0x431 JUMP JUMPDEST POP POP POP POP SWAP1 POP SWAP2 POP SWAP2 POP SWAP1 SWAP2 JUMP JUMPDEST DUP3 PUSH1 0x0 DUP2 GT PUSH2 0x5D9 JUMPI PUSH1 0x40 MLOAD PUSH32 0x8C379A000000000000000000000000000000000000000000000000000000000 DUP2 MSTORE PUSH1 0x4 ADD PUSH2 0x5D0 SWAP1 PUSH2 0x14BA JUMP JUMPDEST PUSH1 0x40 MLOAD DUP1 SWAP2 SUB SWAP1 REVERT JUMPDEST DUP5 PUSH1 0x2 DUP2 MLOAD GT PUSH2 0x61E JUMPI PUSH1 0x40 MLOAD PUSH32 0x8C379A000000000000000000000000000000000000000000000000000000000 DUP2 MSTORE PUSH1 0x4 ADD PUSH2 0x615 SWAP1 PUSH2 0x154C JUMP JUMPDEST PUSH1 0x40 MLOAD DUP1 SWAP2 SUB SWAP1 REVERT JUMPDEST PUSH1 0x0 PUSH1 0x40 MLOAD DUP1 PUSH1 0x80 ADD PUSH1 0x40 MSTORE DUP1 DUP8 DUP2 MSTORE PUSH1 0x20 ADD DUP9 DUP2 MSTORE PUSH1 0x20 ADD DUP7 DUP2 MSTORE PUSH1 0x20 ADD DUP6 DUP2 MSTORE POP SWAP1 DUP1 PUSH1 0x1 DUP2 SLOAD ADD DUP1 DUP3 SSTORE DUP1 SWAP2 POP POP PUSH1 0x1 SWAP1 SUB SWAP1 PUSH1 0x0 MSTORE PUSH1 0x20 PUSH1 0x0 KECCAK256 SWAP1 PUSH1 0x4 MUL ADD PUSH1 0x0 SWAP1 SWAP2 SWAP1 SWAP2 SWAP1 SWAP2 POP PUSH1 0x0 DUP3 ADD MLOAD DUP2 PUSH1 0x0 ADD SSTORE PUSH1 0x20 DUP3 ADD MLOAD DUP2 PUSH1 0x1 ADD SWAP1 DUP2 PUSH2 0x689 SWAP2 SWAP1 PUSH2 0x1365 JUMP JUMPDEST POP PUSH1 0x40 DUP3 ADD MLOAD DUP2 PUSH1 0x2 ADD SWAP1 DUP1 MLOAD SWAP1 PUSH1 0x20 ADD SWAP1 PUSH2 0x6A6 SWAP3 SWAP2 SWAP1 PUSH2 0x7DE JUMP JUMPDEST POP PUSH1 0x60 DUP3 ADD MLOAD DUP2 PUSH1 0x3 ADD SWAP1 DUP1 MLOAD SWAP1 PUSH1 0x20 ADD SWAP1 PUSH2 0x6C3 SWAP3 SWAP2 SWAP1 PUSH2 0x7DE JUMP JUMPDEST POP POP POP CALLER PUSH1 0x2 PUSH1 0x0 DUP8 DUP2 MSTORE PUSH1 0x20 ADD SWAP1 DUP2 MSTORE PUSH1 0x20 ADD PUSH1 0x0 KECCAK256 PUSH1 0x0 PUSH2 0x100 EXP DUP2 SLOAD DUP2 PUSH20 0xFFFFFFFFFFFFFFFFFFFFFFFFFFFFFFFFFFFFFFFF MUL NOT AND SWAP1 DUP4 PUSH20 0xFFFFFFFFFFFFFFFFFFFFFFFFFFFFFFFFFFFFFFFF AND MUL OR SWAP1 SSTORE POP PUSH1 0x3 PUSH1 0x0 CALLER PUSH20 0xFFFFFFFFFFFFFFFFFFFFFFFFFFFFFFFFFFFFFFFF AND PUSH20 0xFFFFFFFFFFFFFFFFFFFFFFFFFFFFFFFFFFFFFFFF AND DUP2 MSTORE PUSH1 0x20 ADD SWAP1 DUP2 MSTORE PUSH1 0x20 ADD PUSH1 0x0 KECCAK256 PUSH1 0x0 DUP2 SLOAD DUP1 SWAP3 SWAP2 SWAP1 PUSH2 0x768 SWAP1 PUSH2 0x159B JUMP JUMPDEST SWAP2 SWAP1 POP SSTORE POP PUSH31 0x570A6686F18A686CDDA2F62A7954C6BD78C21F4B33DF90B0A5479F5AE8A9A8 DUP6 DUP8 PUSH1 0x40 MLOAD PUSH2 0x79D SWAP3 SWAP2 SWAP1 PUSH2 0x161C JUMP JUMPDEST PUSH1 0x40 MLOAD DUP1 SWAP2 SUB SWAP1 LOG1 POP POP POP POP POP POP JUMP JUMPDEST PUSH1 0x0 DUP1 PUSH1 0x0 PUSH1 0x1 SWAP1 POP PUSH1 0x0 PUSH1 0x2 SWAP1 POP DUP1 DUP3 PUSH2 0x7C8 SWAP2 SWAP1 PUSH2 0x164C JUMP JUMPDEST SWAP4 POP DUP1 DUP3 PUSH2 0x7D6 SWAP2 SWAP1 PUSH2 0x168E JUMP JUMPDEST SWAP3 POP POP POP SWAP1 SWAP2 JUMP JUMPDEST DUP3 DUP1 SLOAD DUP3 DUP3 SSTORE SWAP1 PUSH1 0x0 MSTORE PUSH1 0x20 PUSH1 0x0 KECCAK256 SWAP1 PUSH1 0x1F ADD PUSH1 0x20 SWAP1 DIV DUP2 ADD SWAP3 DUP3 ISZERO PUSH2 0x883 JUMPI SWAP2 PUSH1 0x20 MUL DUP3 ADD PUSH1 0x0 JUMPDEST DUP4 DUP3 GT ISZERO PUSH2 0x854 JUMPI DUP4 MLOAD DUP4 DUP3 PUSH2 0x100 EXP DUP2 SLOAD DUP2 PUSH1 0xFF MUL NOT AND SWAP1 DUP4 PUSH1 0x11 DUP2 GT ISZERO PUSH2 0x833 JUMPI PUSH2 0x832 PUSH2 0xC3B JUMP JUMPDEST JUMPDEST MUL OR SWAP1 SSTORE POP SWAP3 PUSH1 0x20 ADD SWAP3 PUSH1 0x1 ADD PUSH1 0x20 DUP2 PUSH1 0x0 ADD DIV SWAP3 DUP4 ADD SWAP3 PUSH1 0x1 SUB MUL PUSH2 0x807 JUMP JUMPDEST DUP1 ISZERO PUSH2 0x881 JUMPI DUP3 DUP2 PUSH2 0x100 EXP DUP2 SLOAD SWAP1 PUSH1 0xFF MUL NOT AND SWAP1 SSTORE PUSH1 0x1 ADD PUSH1 0x20 DUP2 PUSH1 0x0 ADD DIV SWAP3 DUP4 ADD SWAP3 PUSH1 0x1 SUB MUL PUSH2 0x854 JUMP JUMPDEST POP JUMPDEST POP SWAP1 POP PUSH2 0x890 SWAP2 SWAP1 PUSH2 0x894 JUMP JUMPDEST POP SWAP1 JUMP JUMPDEST JUMPDEST DUP1 DUP3 GT ISZERO PUSH2 0x8AD JUMPI PUSH1 0x0 DUP2 PUSH1 0x0 SWAP1 SSTORE POP PUSH1 0x1 ADD PUSH2 0x895 JUMP JUMPDEST POP SWAP1 JUMP JUMPDEST PUSH1 0x0 PUSH1 0x40 MLOAD SWAP1 POP SWAP1 JUMP JUMPDEST PUSH1 0x0 DUP1 REVERT JUMPDEST PUSH1 0x0 DUP1 REVERT JUMPDEST PUSH1 0x0 DUP2 SWAP1 POP SWAP2 SWAP1 POP JUMP JUMPDEST PUSH2 0x8D8 DUP2 PUSH2 0x8C5 JUMP JUMPDEST DUP2 EQ PUSH2 0x8E3 JUMPI PUSH1 0x0 DUP1 REVERT JUMPDEST POP JUMP JUMPDEST PUSH1 0x0 DUP2 CALLDATALOAD SWAP1 POP PUSH2 0x8F5 DUP2 PUSH2 0x8CF JUMP JUMPDEST SWAP3 SWAP2 POP POP JUMP JUMPDEST PUSH1 0x0 PUSH1 0x20 DUP3 DUP5 SUB SLT ISZERO PUSH2 0x911 JUMPI PUSH2 0x910 PUSH2 0x8BB JUMP JUMPDEST JUMPDEST PUSH1 0x0 PUSH2 0x91F DUP5 DUP3 DUP6 ADD PUSH2 0x8E6 JUMP JUMPDEST SWAP2 POP POP SWAP3 SWAP2 POP POP JUMP JUMPDEST PUSH1 0x0 PUSH20 0xFFFFFFFFFFFFFFFFFFFFFFFFFFFFFFFFFFFFFFFF DUP3 AND SWAP1 POP SWAP2 SWAP1 POP JUMP JUMPDEST PUSH1 0x0 PUSH2 0x953 DUP3 PUSH2 0x928 JUMP JUMPDEST SWAP1 POP SWAP2 SWAP1 POP JUMP JUMPDEST PUSH2 0x963 DUP2 PUSH2 0x948 JUMP JUMPDEST DUP3 MSTORE POP POP JUMP JUMPDEST PUSH1 0x0 PUSH1 0x20 DUP3 ADD SWAP1 POP PUSH2 0x97E PUSH1 0x0 DUP4 ADD DUP5 PUSH2 0x95A JUMP JUMPDEST SWAP3 SWAP2 POP POP JUMP JUMPDEST PUSH1 0x0 DUP1 REVERT JUMPDEST PUSH1 0x0 DUP1 REVERT JUMPDEST PUSH1 0x0 PUSH1 0x1F NOT PUSH1 0x1F DUP4 ADD AND SWAP1 POP SWAP2 SWAP1 POP JUMP JUMPDEST PUSH32 0x4E487B7100000000000000000000000000000000000000000000000000000000 PUSH1 0x0 MSTORE PUSH1 0x41 PUSH1 0x4 MSTORE PUSH1 0x24 PUSH1 0x0 REVERT JUMPDEST PUSH2 0x9D7 DUP3 PUSH2 0x98E JUMP JUMPDEST DUP2 ADD DUP2 DUP2 LT PUSH8 0xFFFFFFFFFFFFFFFF DUP3 GT OR ISZERO PUSH2 0x9F6 JUMPI PUSH2 0x9F5 PUSH2 0x99F JUMP JUMPDEST JUMPDEST DUP1 PUSH1 0x40 MSTORE POP POP POP JUMP JUMPDEST PUSH1 0x0 PUSH2 0xA09 PUSH2 0x8B1 JUMP JUMPDEST SWAP1 POP PUSH2 0xA15 DUP3 DUP3 PUSH2 0x9CE JUMP JUMPDEST SWAP2 SWAP1 POP JUMP JUMPDEST PUSH1 0x0 PUSH8 0xFFFFFFFFFFFFFFFF DUP3 GT ISZERO PUSH2 0xA35 JUMPI PUSH2 0xA34 PUSH2 0x99F JUMP JUMPDEST JUMPDEST PUSH2 0xA3E DUP3 PUSH2 0x98E JUMP JUMPDEST SWAP1 POP PUSH1 0x20 DUP2 ADD SWAP1 POP SWAP2 SWAP1 POP JUMP JUMPDEST DUP3 DUP2 DUP4 CALLDATACOPY PUSH1 0x0 DUP4 DUP4 ADD MSTORE POP POP POP JUMP JUMPDEST PUSH1 0x0 PUSH2 0xA6D PUSH2 0xA68 DUP5 PUSH2 0xA1A JUMP JUMPDEST PUSH2 0x9FF JUMP JUMPDEST SWAP1 POP DUP3 DUP2 MSTORE PUSH1 0x20 DUP2 ADD DUP5 DUP5 DUP5 ADD GT ISZERO PUSH2 0xA89 JUMPI PUSH2 0xA88 PUSH2 0x989 JUMP JUMPDEST JUMPDEST PUSH2 0xA94 DUP5 DUP3 DUP6 PUSH2 0xA4B JUMP JUMPDEST POP SWAP4 SWAP3 POP POP POP JUMP JUMPDEST PUSH1 0x0 DUP3 PUSH1 0x1F DUP4 ADD SLT PUSH2 0xAB1 JUMPI PUSH2 0xAB0 PUSH2 0x984 JUMP JUMPDEST JUMPDEST DUP2 CALLDATALOAD PUSH2 0xAC1 DUP5 DUP3 PUSH1 0x20 DUP7 ADD PUSH2 0xA5A JUMP JUMPDEST SWAP2 POP POP SWAP3 SWAP2 POP POP JUMP JUMPDEST PUSH1 0x0 DUP1 PUSH1 0x0 PUSH1 0x60 DUP5 DUP7 SUB SLT ISZERO PUSH2 0xAE3 JUMPI PUSH2 0xAE2 PUSH2 0x8BB JUMP JUMPDEST JUMPDEST PUSH1 0x0 DUP5 ADD CALLDATALOAD PUSH8 0xFFFFFFFFFFFFFFFF DUP2 GT ISZERO PUSH2 0xB01 JUMPI PUSH2 0xB00 PUSH2 0x8C0 JUMP JUMPDEST JUMPDEST PUSH2 0xB0D DUP7 DUP3 DUP8 ADD PUSH2 0xA9C JUMP JUMPDEST SWAP4 POP POP PUSH1 0x20 DUP5 ADD CALLDATALOAD PUSH8 0xFFFFFFFFFFFFFFFF DUP2 GT ISZERO PUSH2 0xB2E JUMPI PUSH2 0xB2D PUSH2 0x8C0 JUMP JUMPDEST JUMPDEST PUSH2 0xB3A DUP7 DUP3 DUP8 ADD PUSH2 0xA9C JUMP JUMPDEST SWAP3 POP POP PUSH1 0x40 PUSH2 0xB4B DUP7 DUP3 DUP8 ADD PUSH2 0x8E6 JUMP JUMPDEST SWAP2 POP POP SWAP3 POP SWAP3 POP SWAP3 JUMP JUMPDEST PUSH1 0x0 DUP2 MLOAD SWAP1 POP SWAP2 SWAP1 POP JUMP JUMPDEST PUSH1 0x0 DUP3 DUP3 MSTORE PUSH1 0x20 DUP3 ADD SWAP1 POP SWAP3 SWAP2 POP POP JUMP JUMPDEST PUSH1 0x0 DUP2 SWAP1 POP PUSH1 0x20 DUP3 ADD SWAP1 POP SWAP2 SWAP1 POP JUMP JUMPDEST PUSH2 0xB8A DUP2 PUSH2 0x8C5 JUMP JUMPDEST DUP3 MSTORE POP POP JUMP JUMPDEST PUSH1 0x0 DUP2 MLOAD SWAP1 POP SWAP2 SWAP1 POP JUMP JUMPDEST PUSH1 0x0 DUP3 DUP3 MSTORE PUSH1 0x20 DUP3 ADD SWAP1 POP SWAP3 SWAP2 POP POP JUMP JUMPDEST PUSH1 0x0 JUMPDEST DUP4 DUP2 LT ISZERO PUSH2 0xBCA JUMPI DUP1 DUP3 ADD MLOAD DUP2 DUP5 ADD MSTORE PUSH1 0x20 DUP2 ADD SWAP1 POP PUSH2 0xBAF JUMP JUMPDEST PUSH1 0x0 DUP5 DUP5 ADD MSTORE POP POP POP POP JUMP JUMPDEST PUSH1 0x0 PUSH2 0xBE1 DUP3 PUSH2 0xB90 JUMP JUMPDEST PUSH2 0xBEB DUP2 DUP6 PUSH2 0xB9B JUMP JUMPDEST SWAP4 POP PUSH2 0xBFB DUP2 DUP6 PUSH1 0x20 DUP7 ADD PUSH2 0xBAC JUMP JUMPDEST PUSH2 0xC04 DUP2 PUSH2 0x98E JUMP JUMPDEST DUP5 ADD SWAP2 POP POP SWAP3 SWAP2 POP POP JUMP JUMPDEST PUSH1 0x0 DUP2 MLOAD SWAP1 POP SWAP2 SWAP1 POP JUMP JUMPDEST PUSH1 0x0 DUP3 DUP3 MSTORE PUSH1 0x20 DUP3 ADD SWAP1 POP SWAP3 SWAP2 POP POP JUMP JUMPDEST PUSH1 0x0 DUP2 SWAP1 POP PUSH1 0x20 DUP3 ADD SWAP1 POP SWAP2 SWAP1 POP JUMP JUMPDEST PUSH32 0x4E487B7100000000000000000000000000000000000000000000000000000000 PUSH1 0x0 MSTORE PUSH1 0x21 PUSH1 0x4 MSTORE PUSH1 0x24 PUSH1 0x0 REVERT JUMPDEST PUSH1 0x12 DUP2 LT PUSH2 0xC7B JUMPI PUSH2 0xC7A PUSH2 0xC3B JUMP JUMPDEST JUMPDEST POP JUMP JUMPDEST PUSH1 0x0 DUP2 SWAP1 POP PUSH2 0xC8C DUP3 PUSH2 0xC6A JUMP JUMPDEST SWAP2 SWAP1 POP JUMP JUMPDEST PUSH1 0x0 PUSH2 0xC9C DUP3 PUSH2 0xC7E JUMP JUMPDEST SWAP1 POP SWAP2 SWAP1 POP JUMP JUMPDEST PUSH2 0xCAC DUP2 PUSH2 0xC91 JUMP JUMPDEST DUP3 MSTORE POP POP JUMP JUMPDEST PUSH1 0x0 PUSH2 0xCBE DUP4 DUP4 PUSH2 0xCA3 JUMP JUMPDEST PUSH1 0x20 DUP4 ADD SWAP1 POP SWAP3 SWAP2 POP POP JUMP JUMPDEST PUSH1 0x0 PUSH1 0x20 DUP3 ADD SWAP1 POP SWAP2 SWAP1 POP JUMP JUMPDEST PUSH1 0x0 PUSH2 0xCE2 DUP3 PUSH2 0xC0F JUMP JUMPDEST PUSH2 0xCEC DUP2 DUP6 PUSH2 0xC1A JUMP JUMPDEST SWAP4 POP PUSH2 0xCF7 DUP4 PUSH2 0xC2B JUMP JUMPDEST DUP1 PUSH1 0x0 JUMPDEST DUP4 DUP2 LT ISZERO PUSH2 0xD28 JUMPI DUP2 MLOAD PUSH2 0xD0F DUP9 DUP3 PUSH2 0xCB2 JUMP JUMPDEST SWAP8 POP PUSH2 0xD1A DUP4 PUSH2 0xCCA JUMP JUMPDEST SWAP3 POP POP PUSH1 0x1 DUP2 ADD SWAP1 POP PUSH2 0xCFB JUMP JUMPDEST POP DUP6 SWAP4 POP POP POP POP SWAP3 SWAP2 POP POP JUMP JUMPDEST PUSH1 0x0 PUSH1 0x80 DUP4 ADD PUSH1 0x0 DUP4 ADD MLOAD PUSH2 0xD4D PUSH1 0x0 DUP7 ADD DUP3 PUSH2 0xB81 JUMP JUMPDEST POP PUSH1 0x20 DUP4 ADD MLOAD DUP5 DUP3 SUB PUSH1 0x20 DUP7 ADD MSTORE PUSH2 0xD65 DUP3 DUP3 PUSH2 0xBD6 JUMP JUMPDEST SWAP2 POP POP PUSH1 0x40 DUP4 ADD MLOAD DUP5 DUP3 SUB PUSH1 0x40 DUP7 ADD MSTORE PUSH2 0xD7F DUP3 DUP3 PUSH2 0xCD7 JUMP JUMPDEST SWAP2 POP POP PUSH1 0x60 DUP4 ADD MLOAD DUP5 DUP3 SUB PUSH1 0x60 DUP7 ADD MSTORE PUSH2 0xD99 DUP3 DUP3 PUSH2 0xCD7 JUMP JUMPDEST SWAP2 POP POP DUP1 SWAP2 POP POP SWAP3 SWAP2 POP POP JUMP JUMPDEST PUSH1 0x0 PUSH2 0xDB2 DUP4 DUP4 PUSH2 0xD35 JUMP JUMPDEST SWAP1 POP SWAP3 SWAP2 POP POP JUMP JUMPDEST PUSH1 0x0 PUSH1 0x20 DUP3 ADD SWAP1 POP SWAP2 SWAP1 POP JUMP JUMPDEST PUSH1 0x0 PUSH2 0xDD2 DUP3 PUSH2 0xB55 JUMP JUMPDEST PUSH2 0xDDC DUP2 DUP6 PUSH2 0xB60 JUMP JUMPDEST SWAP4 POP DUP4 PUSH1 0x20 DUP3 MUL DUP6 ADD PUSH2 0xDEE DUP6 PUSH2 0xB71 JUMP JUMPDEST DUP1 PUSH1 0x0 JUMPDEST DUP6 DUP2 LT ISZERO PUSH2 0xE2A JUMPI DUP5 DUP5 SUB DUP10 MSTORE DUP2 MLOAD PUSH2 0xE0B DUP6 DUP3 PUSH2 0xDA6 JUMP JUMPDEST SWAP5 POP PUSH2 0xE16 DUP4 PUSH2 0xDBA JUMP JUMPDEST SWAP3 POP PUSH1 0x20 DUP11 ADD SWAP10 POP POP PUSH1 0x1 DUP2 ADD SWAP1 POP PUSH2 0xDF2 JUMP JUMPDEST POP DUP3 SWAP8 POP DUP8 SWAP6 POP POP POP POP POP POP SWAP3 SWAP2 POP POP JUMP JUMPDEST PUSH1 0x0 DUP2 MLOAD SWAP1 POP SWAP2 SWAP1 POP JUMP JUMPDEST PUSH1 0x0 DUP3 DUP3 MSTORE PUSH1 0x20 DUP3 ADD SWAP1 POP SWAP3 SWAP2 POP POP JUMP JUMPDEST PUSH1 0x0 DUP2 SWAP1 POP PUSH1 0x20 DUP3 ADD SWAP1 POP SWAP2 SWAP1 POP JUMP JUMPDEST PUSH1 0x0 PUSH1 0x40 DUP4 ADD PUSH1 0x0 DUP4 ADD MLOAD DUP5 DUP3 SUB PUSH1 0x0 DUP7 ADD MSTORE PUSH2 0xE85 DUP3 DUP3 PUSH2 0xBD6 JUMP JUMPDEST SWAP2 POP POP PUSH1 0x20 DUP4 ADD MLOAD DUP5 DUP3 SUB PUSH1 0x20 DUP7 ADD MSTORE PUSH2 0xE9F DUP3 DUP3 PUSH2 0xBD6 JUMP JUMPDEST SWAP2 POP POP DUP1 SWAP2 POP POP SWAP3 SWAP2 POP POP JUMP JUMPDEST PUSH1 0x0 PUSH2 0xEB8 DUP4 DUP4 PUSH2 0xE68 JUMP JUMPDEST SWAP1 POP SWAP3 SWAP2 POP POP JUMP JUMPDEST PUSH1 0x0 PUSH1 0x20 DUP3 ADD SWAP1 POP SWAP2 SWAP1 POP JUMP JUMPDEST PUSH1 0x0 PUSH2 0xED8 DUP3 PUSH2 0xE3C JUMP JUMPDEST PUSH2 0xEE2 DUP2 DUP6 PUSH2 0xE47 JUMP JUMPDEST SWAP4 POP DUP4 PUSH1 0x20 DUP3 MUL DUP6 ADD PUSH2 0xEF4 DUP6 PUSH2 0xE58 JUMP JUMPDEST DUP1 PUSH1 0x0 JUMPDEST DUP6 DUP2 LT ISZERO PUSH2 0xF30 JUMPI DUP5 DUP5 SUB DUP10 MSTORE DUP2 MLOAD PUSH2 0xF11 DUP6 DUP3 PUSH2 0xEAC JUMP JUMPDEST SWAP5 POP PUSH2 0xF1C DUP4 PUSH2 0xEC0 JUMP JUMPDEST SWAP3 POP PUSH1 0x20 DUP11 ADD SWAP10 POP POP PUSH1 0x1 DUP2 ADD SWAP1 POP PUSH2 0xEF8 JUMP JUMPDEST POP DUP3 SWAP8 POP DUP8 SWAP6 POP POP POP POP POP POP SWAP3 SWAP2 POP POP JUMP JUMPDEST PUSH1 0x0 PUSH1 0x40 DUP3 ADD SWAP1 POP DUP2 DUP2 SUB PUSH1 0x0 DUP4 ADD MSTORE PUSH2 0xF5C DUP2 DUP6 PUSH2 0xDC7 JUMP JUMPDEST SWAP1 POP DUP2 DUP2 SUB PUSH1 0x20 DUP4 ADD MSTORE PUSH2 0xF70 DUP2 DUP5 PUSH2 0xECD JUMP JUMPDEST SWAP1 POP SWAP4 SWAP3 POP POP POP JUMP JUMPDEST PUSH1 0x0 PUSH8 0xFFFFFFFFFFFFFFFF DUP3 GT ISZERO PUSH2 0xF94 JUMPI PUSH2 0xF93 PUSH2 0x99F JUMP JUMPDEST JUMPDEST PUSH1 0x20 DUP3 MUL SWAP1 POP PUSH1 0x20 DUP2 ADD SWAP1 POP SWAP2 SWAP1 POP JUMP JUMPDEST PUSH1 0x0 DUP1 REVERT JUMPDEST PUSH1 0x12 DUP2 LT PUSH2 0xFB7 JUMPI PUSH1 0x0 DUP1 REVERT JUMPDEST POP JUMP JUMPDEST PUSH1 0x0 DUP2 CALLDATALOAD SWAP1 POP PUSH2 0xFC9 DUP2 PUSH2 0xFAA JUMP JUMPDEST SWAP3 SWAP2 POP POP JUMP JUMPDEST PUSH1 0x0 PUSH2 0xFE2 PUSH2 0xFDD DUP5 PUSH2 0xF79 JUMP JUMPDEST PUSH2 0x9FF JUMP JUMPDEST SWAP1 POP DUP1 DUP4 DUP3 MSTORE PUSH1 0x20 DUP3 ADD SWAP1 POP PUSH1 0x20 DUP5 MUL DUP4 ADD DUP6 DUP2 GT ISZERO PUSH2 0x1005 JUMPI PUSH2 0x1004 PUSH2 0xFA5 JUMP JUMPDEST JUMPDEST DUP4 JUMPDEST DUP2 DUP2 LT ISZERO PUSH2 0x102E JUMPI DUP1 PUSH2 0x101A DUP9 DUP3 PUSH2 0xFBA JUMP JUMPDEST DUP5 MSTORE PUSH1 0x20 DUP5 ADD SWAP4 POP POP PUSH1 0x20 DUP2 ADD SWAP1 POP PUSH2 0x1007 JUMP JUMPDEST POP POP POP SWAP4 SWAP3 POP POP POP JUMP JUMPDEST PUSH1 0x0 DUP3 PUSH1 0x1F DUP4 ADD SLT PUSH2 0x104D JUMPI PUSH2 0x104C PUSH2 0x984 JUMP JUMPDEST JUMPDEST DUP2 CALLDATALOAD PUSH2 0x105D DUP5 DUP3 PUSH1 0x20 DUP7 ADD PUSH2 0xFCF JUMP JUMPDEST SWAP2 POP POP SWAP3 SWAP2 POP POP JUMP JUMPDEST PUSH1 0x0 DUP1 PUSH1 0x0 DUP1 PUSH1 0x80 DUP6 DUP8 SUB SLT ISZERO PUSH2 0x1080 JUMPI PUSH2 0x107F PUSH2 0x8BB JUMP JUMPDEST JUMPDEST PUSH1 0x0 DUP6 ADD CALLDATALOAD PUSH8 0xFFFFFFFFFFFFFFFF DUP2 GT ISZERO PUSH2 0x109E JUMPI PUSH2 0x109D PUSH2 0x8C0 JUMP JUMPDEST JUMPDEST PUSH2 0x10AA DUP8 DUP3 DUP9 ADD PUSH2 0xA9C JUMP JUMPDEST SWAP5 POP POP PUSH1 0x20 PUSH2 0x10BB DUP8 DUP3 DUP9 ADD PUSH2 0x8E6 JUMP JUMPDEST SWAP4 POP POP PUSH1 0x40 DUP6 ADD CALLDATALOAD PUSH8 0xFFFFFFFFFFFFFFFF DUP2 GT ISZERO PUSH2 0x10DC JUMPI PUSH2 0x10DB PUSH2 0x8C0 JUMP JUMPDEST JUMPDEST PUSH2 0x10E8 DUP8 DUP3 DUP9 ADD PUSH2 0x1038 JUMP JUMPDEST SWAP3 POP POP PUSH1 0x60 DUP6 ADD CALLDATALOAD PUSH8 0xFFFFFFFFFFFFFFFF DUP2 GT ISZERO PUSH2 0x1109 JUMPI PUSH2 0x1108 PUSH2 0x8C0 JUMP JUMPDEST JUMPDEST PUSH2 0x1115 DUP8 DUP3 DUP9 ADD PUSH2 0x1038 JUMP JUMPDEST SWAP2 POP POP SWAP3 SWAP6 SWAP2 SWAP5 POP SWAP3 POP JUMP JUMPDEST PUSH2 0x112A DUP2 PUSH2 0x8C5 JUMP JUMPDEST DUP3 MSTORE POP POP JUMP JUMPDEST PUSH1 0x0 PUSH1 0x40 DUP3 ADD SWAP1 POP PUSH2 0x1145 PUSH1 0x0 DUP4 ADD DUP6 PUSH2 0x1121 JUMP JUMPDEST PUSH2 0x1152 PUSH1 0x20 DUP4 ADD DUP5 PUSH2 0x1121 JUMP JUMPDEST SWAP4 SWAP3 POP POP POP JUMP JUMPDEST PUSH32 0x4E487B7100000000000000000000000000000000000000000000000000000000 PUSH1 0x0 MSTORE PUSH1 0x22 PUSH1 0x4 MSTORE PUSH1 0x24 PUSH1 0x0 REVERT JUMPDEST PUSH1 0x0 PUSH1 0x2 DUP3 DIV SWAP1 POP PUSH1 0x1 DUP3 AND DUP1 PUSH2 0x11A0 JUMPI PUSH1 0x7F DUP3 AND SWAP2 POP JUMPDEST PUSH1 0x20 DUP3 LT DUP2 SUB PUSH2 0x11B3 JUMPI PUSH2 0x11B2 PUSH2 0x1159 JUMP JUMPDEST JUMPDEST POP SWAP2 SWAP1 POP JUMP JUMPDEST PUSH1 0x0 DUP2 SWAP1 POP DUP2 PUSH1 0x0 MSTORE PUSH1 0x20 PUSH1 0x0 KECCAK256 SWAP1 POP SWAP2 SWAP1 POP JUMP JUMPDEST PUSH1 0x0 PUSH1 0x20 PUSH1 0x1F DUP4 ADD DIV SWAP1 POP SWAP2 SWAP1 POP JUMP JUMPDEST PUSH1 0x0 DUP3 DUP3 SHL SWAP1 POP SWAP3 SWAP2 POP POP JUMP JUMPDEST PUSH1 0x0 PUSH1 0x8 DUP4 MUL PUSH2 0x121B PUSH32 0xFFFFFFFFFFFFFFFFFFFFFFFFFFFFFFFFFFFFFFFFFFFFFFFFFFFFFFFFFFFFFFFF DUP3 PUSH2 0x11DE JUMP JUMPDEST PUSH2 0x1225 DUP7 DUP4 PUSH2 0x11DE JUMP JUMPDEST SWAP6 POP DUP1 NOT DUP5 AND SWAP4 POP DUP1 DUP7 AND DUP5 OR SWAP3 POP POP POP SWAP4 SWAP3 POP POP POP JUMP JUMPDEST PUSH1 0x0 DUP2 SWAP1 POP SWAP2 SWAP1 POP JUMP JUMPDEST PUSH1 0x0 PUSH2 0x1262 PUSH2 0x125D PUSH2 0x1258 DUP5 PUSH2 0x8C5 JUMP JUMPDEST PUSH2 0x123D JUMP JUMPDEST PUSH2 0x8C5 JUMP JUMPDEST SWAP1 POP SWAP2 SWAP1 POP JUMP JUMPDEST PUSH1 0x0 DUP2 SWAP1 POP SWAP2 SWAP1 POP JUMP JUMPDEST PUSH2 0x127C DUP4 PUSH2 0x1247 JUMP JUMPDEST PUSH2 0x1290 PUSH2 0x1288 DUP3 PUSH2 0x1269 JUMP JUMPDEST DUP5 DUP5 SLOAD PUSH2 0x11EB JUMP JUMPDEST DUP3 SSTORE POP POP POP POP JUMP JUMPDEST PUSH1 0x0 SWAP1 JUMP JUMPDEST PUSH2 0x12A5 PUSH2 0x1298 JUMP JUMPDEST PUSH2 0x12B0 DUP2 DUP5 DUP5 PUSH2 0x1273 JUMP JUMPDEST POP POP POP JUMP JUMPDEST JUMPDEST DUP2 DUP2 LT ISZERO PUSH2 0x12D4 JUMPI PUSH2 0x12C9 PUSH1 0x0 DUP3 PUSH2 0x129D JUMP JUMPDEST PUSH1 0x1 DUP2 ADD SWAP1 POP PUSH2 0x12B6 JUMP JUMPDEST POP POP JUMP JUMPDEST PUSH1 0x1F DUP3 GT ISZERO PUSH2 0x1319 JUMPI PUSH2 0x12EA DUP2 PUSH2 0x11B9 JUMP JUMPDEST PUSH2 0x12F3 DUP5 PUSH2 0x11CE JUMP JUMPDEST DUP2 ADD PUSH1 0x20 DUP6 LT ISZERO PUSH2 0x1302 JUMPI DUP2 SWAP1 POP JUMPDEST PUSH2 0x1316 PUSH2 0x130E DUP6 PUSH2 0x11CE JUMP JUMPDEST DUP4 ADD DUP3 PUSH2 0x12B5 JUMP JUMPDEST POP POP JUMPDEST POP POP POP JUMP JUMPDEST PUSH1 0x0 DUP3 DUP3 SHR SWAP1 POP SWAP3 SWAP2 POP POP JUMP JUMPDEST PUSH1 0x0 PUSH2 0x133C PUSH1 0x0 NOT DUP5 PUSH1 0x8 MUL PUSH2 0x131E JUMP JUMPDEST NOT DUP1 DUP4 AND SWAP2 POP POP SWAP3 SWAP2 POP POP JUMP JUMPDEST PUSH1 0x0 PUSH2 0x1355 DUP4 DUP4 PUSH2 0x132B JUMP JUMPDEST SWAP2 POP DUP3 PUSH1 0x2 MUL DUP3 OR SWAP1 POP SWAP3 SWAP2 POP POP JUMP JUMPDEST PUSH2 0x136E DUP3 PUSH2 0xB90 JUMP JUMPDEST PUSH8 0xFFFFFFFFFFFFFFFF DUP2 GT ISZERO PUSH2 0x1387 JUMPI PUSH2 0x1386 PUSH2 0x99F JUMP JUMPDEST JUMPDEST PUSH2 0x1391 DUP3 SLOAD PUSH2 0x1188 JUMP JUMPDEST PUSH2 0x139C DUP3 DUP3 DUP6 PUSH2 0x12D8 JUMP JUMPDEST PUSH1 0x0 PUSH1 0x20 SWAP1 POP PUSH1 0x1F DUP4 GT PUSH1 0x1 DUP2 EQ PUSH2 0x13CF JUMPI PUSH1 0x0 DUP5 ISZERO PUSH2 0x13BD JUMPI DUP3 DUP8 ADD MLOAD SWAP1 POP JUMPDEST PUSH2 0x13C7 DUP6 DUP3 PUSH2 0x1349 JUMP JUMPDEST DUP7 SSTORE POP PUSH2 0x142F JUMP JUMPDEST PUSH1 0x1F NOT DUP5 AND PUSH2 0x13DD DUP7 PUSH2 0x11B9 JUMP JUMPDEST PUSH1 0x0 JUMPDEST DUP3 DUP2 LT ISZERO PUSH2 0x1405 JUMPI DUP5 DUP10 ADD MLOAD DUP3 SSTORE PUSH1 0x1 DUP3 ADD SWAP2 POP PUSH1 0x20 DUP6 ADD SWAP5 POP PUSH1 0x20 DUP2 ADD SWAP1 POP PUSH2 0x13E0 JUMP JUMPDEST DUP7 DUP4 LT ISZERO PUSH2 0x1422 JUMPI DUP5 DUP10 ADD MLOAD PUSH2 0x141E PUSH1 0x1F DUP10 AND DUP3 PUSH2 0x132B JUMP JUMPDEST DUP4 SSTORE POP JUMPDEST PUSH1 0x1 PUSH1 0x2 DUP9 MUL ADD DUP9 SSTORE POP POP POP JUMPDEST POP POP POP POP POP POP JUMP JUMPDEST PUSH1 0x0 DUP3 DUP3 MSTORE PUSH1 0x20 DUP3 ADD SWAP1 POP SWAP3 SWAP2 POP POP JUMP JUMPDEST PUSH32 0x456C20696420646520747520706F6B656D6F6E206465626520736572206D6179 PUSH1 0x0 DUP3 ADD MSTORE PUSH32 0x6F72206120300000000000000000000000000000000000000000000000000000 PUSH1 0x20 DUP3 ADD MSTORE POP JUMP JUMPDEST PUSH1 0x0 PUSH2 0x14A4 PUSH1 0x26 DUP4 PUSH2 0x1437 JUMP JUMPDEST SWAP2 POP PUSH2 0x14AF DUP3 PUSH2 0x1448 JUMP JUMPDEST PUSH1 0x40 DUP3 ADD SWAP1 POP SWAP2 SWAP1 POP JUMP JUMPDEST PUSH1 0x0 PUSH1 0x20 DUP3 ADD SWAP1 POP DUP2 DUP2 SUB PUSH1 0x0 DUP4 ADD MSTORE PUSH2 0x14D3 DUP2 PUSH2 0x1497 JUMP JUMPDEST SWAP1 POP SWAP2 SWAP1 POP JUMP JUMPDEST PUSH32 0x456C206E6F6D62726520646520747520706F6B656D6F6E206465626520736572 PUSH1 0x0 DUP3 ADD MSTORE PUSH32 0x206D61796F722061203220636172616374657265730000000000000000000000 PUSH1 0x20 DUP3 ADD MSTORE POP JUMP JUMPDEST PUSH1 0x0 PUSH2 0x1536 PUSH1 0x35 DUP4 PUSH2 0x1437 JUMP JUMPDEST SWAP2 POP PUSH2 0x1541 DUP3 PUSH2 0x14DA JUMP JUMPDEST PUSH1 0x40 DUP3 ADD SWAP1 POP SWAP2 SWAP1 POP JUMP JUMPDEST PUSH1 0x0 PUSH1 0x20 DUP3 ADD SWAP1 POP DUP2 DUP2 SUB PUSH1 0x0 DUP4 ADD MSTORE PUSH2 0x1565 DUP2 PUSH2 0x1529 JUMP JUMPDEST SWAP1 POP SWAP2 SWAP1 POP JUMP JUMPDEST PUSH32 0x4E487B7100000000000000000000000000000000000000000000000000000000 PUSH1 0x0 MSTORE PUSH1 0x11 PUSH1 0x4 MSTORE PUSH1 0x24 PUSH1 0x0 REVERT JUMPDEST PUSH1 0x0 PUSH2 0x15A6 DUP3 PUSH2 0x8C5 JUMP JUMPDEST SWAP2 POP PUSH32 0xFFFFFFFFFFFFFFFFFFFFFFFFFFFFFFFFFFFFFFFFFFFFFFFFFFFFFFFFFFFFFFFF DUP3 SUB PUSH2 0x15D8 JUMPI PUSH2 0x15D7 PUSH2 0x156C JUMP JUMPDEST JUMPDEST PUSH1 0x1 DUP3 ADD SWAP1 POP SWAP2 SWAP1 POP JUMP JUMPDEST PUSH1 0x0 PUSH2 0x15EE DUP3 PUSH2 0xB90 JUMP JUMPDEST PUSH2 0x15F8 DUP2 DUP6 PUSH2 0x1437 JUMP JUMPDEST SWAP4 POP PUSH2 0x1608 DUP2 DUP6 PUSH1 0x20 DUP7 ADD PUSH2 0xBAC JUMP JUMPDEST PUSH2 0x1611 DUP2 PUSH2 0x98E JUMP JUMPDEST DUP5 ADD SWAP2 POP POP SWAP3 SWAP2 POP POP JUMP JUMPDEST PUSH1 0x0 PUSH1 0x40 DUP3 ADD SWAP1 POP PUSH2 0x1631 PUSH1 0x0 DUP4 ADD DUP6 PUSH2 0x1121 JUMP JUMPDEST DUP2 DUP2 SUB PUSH1 0x20 DUP4 ADD MSTORE PUSH2 0x1643 DUP2 DUP5 PUSH2 0x15E3 JUMP JUMPDEST SWAP1 POP SWAP4 SWAP3 POP POP POP JUMP JUMPDEST PUSH1 0x0 PUSH2 0x1657 DUP3 PUSH2 0x8C5 JUMP JUMPDEST SWAP2 POP PUSH2 0x1662 DUP4 PUSH2 0x8C5 JUMP JUMPDEST SWAP3 POP DUP3 DUP3 MUL PUSH2 0x1670 DUP2 PUSH2 0x8C5 JUMP JUMPDEST SWAP2 POP DUP3 DUP3 DIV DUP5 EQ DUP4 ISZERO OR PUSH2 0x1687 JUMPI PUSH2 0x1686 PUSH2 0x156C JUMP JUMPDEST JUMPDEST POP SWAP3 SWAP2 POP POP JUMP JUMPDEST PUSH1 0x0 PUSH2 0x1699 DUP3 PUSH2 0x8C5 JUMP JUMPDEST SWAP2 POP PUSH2 0x16A4 DUP4 PUSH2 0x8C5 JUMP JUMPDEST SWAP3 POP DUP3 DUP3 ADD SWAP1 POP DUP1 DUP3 GT ISZERO PUSH2 0x16BC JUMPI PUSH2 0x16BB PUSH2 0x156C JUMP JUMPDEST JUMPDEST SWAP3 SWAP2 POP POP JUMP INVALID LOG2 PUSH5 0x6970667358 0x22 SLT KECCAK256 0xA9 SWAP5 0x2A PUSH3 0x7B0008 0xBE 0xD6 0xB7 EXTCODECOPY 0xAB MLOAD 0x2E 0xB8 LOG1 0xBB 0xF6 SWAP3 PUSH2 0x5758 0xCD 0xC9 0xA6 0x5C 0xE0 DUP8 SWAP7 KECCAK256 0xBA RETURN PUSH5 0x736F6C6343 STOP ADDMOD SLT STOP CALLER "},"methodIdentifiers":{"createPokemon(string,uint256,uint8[],uint8[])":"c684c3e1","evolutionPokemon(string,string,uint256)":"5153b338","getAllPokemons()":"5e916790","getResult()":"de292789","pokemonToOwner(uint256)":"2f7467b3"}}}}}