{
	"PokemonFactory.sol": {
		"PokemonFactory": {
			"abi": [
				{
					"anonymous": false,
					"inputs": [
						{
							"indexed": false,
							"internalType": "string",
							"name": "newPokemon",
							"type": "string"
						}
					],
					"name": "eventNewPokemon",
					"type": "event"
				},
				{
					"inputs": [
						{
							"internalType": "string",
							"name": "_name",
							"type": "string"
						},
						{
							"internalType": "uint256",
							"name": "_id",
							"type": "uint256"
						}
					],
					"name": "createPokemon",
					"outputs": [],
					"stateMutability": "nonpayable",
					"type": "function"
				},
				{
					"inputs": [],
					"name": "getAllPokemons",
					"outputs": [
						{
							"components": [
								{
									"internalType": "uint256",
									"name": "id",
									"type": "uint256"
								},
								{
									"internalType": "string",
									"name": "name",
									"type": "string"
								}
							],
							"internalType": "struct PokemonFactory.Pokemon[]",
							"name": "",
							"type": "tuple[]"
						}
					],
					"stateMutability": "view",
					"type": "function"
				},
				{
					"inputs": [],
					"name": "getResult",
					"outputs": [
						{
							"internalType": "uint256",
							"name": "product",
							"type": "uint256"
						},
						{
							"internalType": "uint256",
							"name": "sum",
							"type": "uint256"
						}
					],
					"stateMutability": "pure",
					"type": "function"
				},
				{
					"inputs": [
						{
							"internalType": "uint256",
							"name": "",
							"type": "uint256"
						}
					],
					"name": "pokemonToOwner",
					"outputs": [
						{
							"internalType": "address",
							"name": "",
							"type": "address"
						}
					],
					"stateMutability": "view",
					"type": "function"
				}
			],
			"devdoc": {
				"kind": "dev",
				"methods": {},
				"version": 1
			},
			"evm": {
				"assembly": "    /* \"PokemonFactory.sol\":70:836  contract PokemonFactory {... */\n  mstore(0x40, 0x80)\n  callvalue\n  dup1\n  iszero\n  tag_1\n  jumpi\n  0x00\n  dup1\n  revert\ntag_1:\n  pop\n  dataSize(sub_0)\n  dup1\n  dataOffset(sub_0)\n  0x00\n  codecopy\n  0x00\n  return\nstop\n\nsub_0: assembly {\n        /* \"PokemonFactory.sol\":70:836  contract PokemonFactory {... */\n      mstore(0x40, 0x80)\n      callvalue\n      dup1\n      iszero\n      tag_1\n      jumpi\n      0x00\n      dup1\n      revert\n    tag_1:\n      pop\n      jumpi(tag_2, lt(calldatasize, 0x04))\n      shr(0xe0, calldataload(0x00))\n      dup1\n      0x0a3bd50b\n      eq\n      tag_3\n      jumpi\n      dup1\n      0x2f7467b3\n      eq\n      tag_4\n      jumpi\n      dup1\n      0x5e916790\n      eq\n      tag_5\n      jumpi\n      dup1\n      0xde292789\n      eq\n      tag_6\n      jumpi\n    tag_2:\n      0x00\n      dup1\n      revert\n        /* \"PokemonFactory.sol\":342:575  function createPokemon (string memory _name, uint _id) public {... */\n    tag_3:\n      tag_7\n      0x04\n      dup1\n      calldatasize\n      sub\n      dup2\n      add\n      swap1\n      tag_8\n      swap2\n      swap1\n      tag_9\n      jump\t// in\n    tag_8:\n      tag_10\n      jump\t// in\n    tag_7:\n      stop\n        /* \"PokemonFactory.sol\":188:235  mapping (uint => address) public pokemonToOwner */\n    tag_4:\n      tag_11\n      0x04\n      dup1\n      calldatasize\n      sub\n      dup2\n      add\n      swap1\n      tag_12\n      swap2\n      swap1\n      tag_13\n      jump\t// in\n    tag_12:\n      tag_14\n      jump\t// in\n    tag_11:\n      mload(0x40)\n      tag_15\n      swap2\n      swap1\n      tag_16\n      jump\t// in\n    tag_15:\n      mload(0x40)\n      dup1\n      swap2\n      sub\n      swap1\n      return\n        /* \"PokemonFactory.sol\":581:676  function getAllPokemons() public view returns (Pokemon[] memory) {... */\n    tag_5:\n      tag_17\n      tag_18\n      jump\t// in\n    tag_17:\n      mload(0x40)\n      tag_19\n      swap2\n      swap1\n      tag_20\n      jump\t// in\n    tag_19:\n      mload(0x40)\n      dup1\n      swap2\n      sub\n      swap1\n      return\n        /* \"PokemonFactory.sol\":683:833  function getResult() public pure returns(uint product, uint sum){... */\n    tag_6:\n      tag_21\n      tag_22\n      jump\t// in\n    tag_21:\n      mload(0x40)\n      tag_23\n      swap3\n      swap2\n      swap1\n      tag_24\n      jump\t// in\n    tag_23:\n      mload(0x40)\n      dup1\n      swap2\n      sub\n      swap1\n      return\n        /* \"PokemonFactory.sol\":342:575  function createPokemon (string memory _name, uint _id) public {... */\n    tag_10:\n        /* \"PokemonFactory.sol\":414:422  pokemons */\n      0x00\n        /* \"PokemonFactory.sol\":428:447  Pokemon(_id, _name) */\n      mload(0x40)\n      dup1\n      0x40\n      add\n      0x40\n      mstore\n      dup1\n        /* \"PokemonFactory.sol\":436:439  _id */\n      dup4\n        /* \"PokemonFactory.sol\":428:447  Pokemon(_id, _name) */\n      dup2\n      mstore\n      0x20\n      add\n        /* \"PokemonFactory.sol\":441:446  _name */\n      dup5\n        /* \"PokemonFactory.sol\":428:447  Pokemon(_id, _name) */\n      dup2\n      mstore\n      pop\n        /* \"PokemonFactory.sol\":414:448  pokemons.push(Pokemon(_id, _name)) */\n      swap1\n      dup1\n      0x01\n      dup2\n      sload\n      add\n      dup1\n      dup3\n      sstore\n      dup1\n      swap2\n      pop\n      pop\n      0x01\n      swap1\n      sub\n      swap1\n      0x00\n      mstore\n      keccak256(0x00, 0x20)\n      swap1\n      0x02\n      mul\n      add\n      0x00\n      swap1\n      swap2\n      swap1\n      swap2\n      swap1\n      swap2\n      pop\n      0x00\n      dup3\n      add\n      mload\n      dup2\n      0x00\n      add\n      sstore\n      0x20\n      dup3\n      add\n      mload\n      dup2\n      0x01\n      add\n      swap1\n      dup1\n      mload\n      swap1\n      0x20\n      add\n      swap1\n      tag_27\n      swap3\n      swap2\n      swap1\n      tag_28\n      jump\t// in\n    tag_27:\n      pop\n      pop\n      pop\n        /* \"PokemonFactory.sol\":480:490  msg.sender */\n      caller\n        /* \"PokemonFactory.sol\":458:472  pokemonToOwner */\n      0x01\n        /* \"PokemonFactory.sol\":458:477  pokemonToOwner[_id] */\n      0x00\n        /* \"PokemonFactory.sol\":473:476  _id */\n      dup4\n        /* \"PokemonFactory.sol\":458:477  pokemonToOwner[_id] */\n      dup2\n      mstore\n      0x20\n      add\n      swap1\n      dup2\n      mstore\n      0x20\n      add\n      0x00\n      keccak256\n      0x00\n        /* \"PokemonFactory.sol\":458:490  pokemonToOwner[_id] = msg.sender */\n      0x0100\n      exp\n      dup2\n      sload\n      dup2\n      0xffffffffffffffffffffffffffffffffffffffff\n      mul\n      not\n      and\n      swap1\n      dup4\n      0xffffffffffffffffffffffffffffffffffffffff\n      and\n      mul\n      or\n      swap1\n      sstore\n      pop\n        /* \"PokemonFactory.sol\":500:517  ownerPokemonCount */\n      0x02\n        /* \"PokemonFactory.sol\":500:529  ownerPokemonCount[msg.sender] */\n      0x00\n        /* \"PokemonFactory.sol\":518:528  msg.sender */\n      caller\n        /* \"PokemonFactory.sol\":500:529  ownerPokemonCount[msg.sender] */\n      0xffffffffffffffffffffffffffffffffffffffff\n      and\n      0xffffffffffffffffffffffffffffffffffffffff\n      and\n      dup2\n      mstore\n      0x20\n      add\n      swap1\n      dup2\n      mstore\n      0x20\n      add\n      0x00\n      keccak256\n      0x00\n        /* \"PokemonFactory.sol\":500:531  ownerPokemonCount[msg.sender]++ */\n      dup2\n      sload\n      dup1\n      swap3\n      swap2\n      swap1\n      tag_29\n      swap1\n      tag_30\n      jump\t// in\n    tag_29:\n      swap2\n      swap1\n      pop\n      sstore\n      pop\n        /* \"PokemonFactory.sol\":546:568  eventNewPokemon(_name) */\n      0x9018649032bdfabe07c5fa8e887df7dda6baf8eac2ef8026b39eebed1fdadeff\n        /* \"PokemonFactory.sol\":562:567  _name */\n      dup3\n        /* \"PokemonFactory.sol\":546:568  eventNewPokemon(_name) */\n      mload(0x40)\n      tag_31\n      swap2\n      swap1\n      tag_32\n      jump\t// in\n    tag_31:\n      mload(0x40)\n      dup1\n      swap2\n      sub\n      swap1\n      log1\n        /* \"PokemonFactory.sol\":342:575  function createPokemon (string memory _name, uint _id) public {... */\n      pop\n      pop\n      jump\t// out\n        /* \"PokemonFactory.sol\":188:235  mapping (uint => address) public pokemonToOwner */\n    tag_14:\n      mstore(0x20, 0x01)\n      dup1\n      0x00\n      mstore\n      keccak256(0x00, 0x40)\n      0x00\n      swap2\n      pop\n      sload\n      swap1\n      0x0100\n      exp\n      swap1\n      div\n      0xffffffffffffffffffffffffffffffffffffffff\n      and\n      dup2\n      jump\t// out\n        /* \"PokemonFactory.sol\":581:676  function getAllPokemons() public view returns (Pokemon[] memory) {... */\n    tag_18:\n        /* \"PokemonFactory.sol\":628:644  Pokemon[] memory */\n      0x60\n        /* \"PokemonFactory.sol\":661:669  pokemons */\n      0x00\n        /* \"PokemonFactory.sol\":654:669  return pokemons */\n      dup1\n      sload\n      dup1\n      0x20\n      mul\n      0x20\n      add\n      mload(0x40)\n      swap1\n      dup2\n      add\n      0x40\n      mstore\n      dup1\n      swap3\n      swap2\n      swap1\n      dup2\n      dup2\n      mstore\n      0x20\n      add\n      0x00\n      swap1\n    tag_34:\n      dup3\n      dup3\n      lt\n      iszero\n      tag_35\n      jumpi\n      dup4\n      dup3\n      swap1\n      0x00\n      mstore\n      keccak256(0x00, 0x20)\n      swap1\n      0x02\n      mul\n      add\n      mload(0x40)\n      dup1\n      0x40\n      add\n      0x40\n      mstore\n      swap1\n      dup2\n      0x00\n      dup3\n      add\n      sload\n      dup2\n      mstore\n      0x20\n      add\n      0x01\n      dup3\n      add\n      dup1\n      sload\n      tag_37\n      swap1\n      tag_38\n      jump\t// in\n    tag_37:\n      dup1\n      0x1f\n      add\n      0x20\n      dup1\n      swap2\n      div\n      mul\n      0x20\n      add\n      mload(0x40)\n      swap1\n      dup2\n      add\n      0x40\n      mstore\n      dup1\n      swap3\n      swap2\n      swap1\n      dup2\n      dup2\n      mstore\n      0x20\n      add\n      dup3\n      dup1\n      sload\n      tag_39\n      swap1\n      tag_38\n      jump\t// in\n    tag_39:\n      dup1\n      iszero\n      tag_40\n      jumpi\n      dup1\n      0x1f\n      lt\n      tag_41\n      jumpi\n      0x0100\n      dup1\n      dup4\n      sload\n      div\n      mul\n      dup4\n      mstore\n      swap2\n      0x20\n      add\n      swap2\n      jump(tag_40)\n    tag_41:\n      dup3\n      add\n      swap2\n      swap1\n      0x00\n      mstore\n      keccak256(0x00, 0x20)\n      swap1\n    tag_42:\n      dup2\n      sload\n      dup2\n      mstore\n      swap1\n      0x01\n      add\n      swap1\n      0x20\n      add\n      dup1\n      dup4\n      gt\n      tag_42\n      jumpi\n      dup3\n      swap1\n      sub\n      0x1f\n      and\n      dup3\n      add\n      swap2\n    tag_40:\n      pop\n      pop\n      pop\n      pop\n      pop\n      dup2\n      mstore\n      pop\n      pop\n      dup2\n      mstore\n      0x20\n      add\n      swap1\n      0x01\n      add\n      swap1\n      jump(tag_34)\n    tag_35:\n      pop\n      pop\n      pop\n      pop\n      swap1\n      pop\n        /* \"PokemonFactory.sol\":581:676  function getAllPokemons() public view returns (Pokemon[] memory) {... */\n      swap1\n      jump\t// out\n        /* \"PokemonFactory.sol\":683:833  function getResult() public pure returns(uint product, uint sum){... */\n    tag_22:\n        /* \"PokemonFactory.sol\":724:736  uint product */\n      0x00\n        /* \"PokemonFactory.sol\":738:746  uint sum */\n      dup1\n        /* \"PokemonFactory.sol\":755:761  uint a */\n      0x00\n        /* \"PokemonFactory.sol\":764:765  1 */\n      0x01\n        /* \"PokemonFactory.sol\":755:765  uint a = 1 */\n      swap1\n      pop\n        /* \"PokemonFactory.sol\":774:780  uint b */\n      0x00\n        /* \"PokemonFactory.sol\":783:784  2 */\n      0x02\n        /* \"PokemonFactory.sol\":774:784  uint b = 2 */\n      swap1\n      pop\n        /* \"PokemonFactory.sol\":806:807  b */\n      dup1\n        /* \"PokemonFactory.sol\":802:803  a */\n      dup3\n        /* \"PokemonFactory.sol\":802:807  a * b */\n      tag_44\n      swap2\n      swap1\n      tag_45\n      jump\t// in\n    tag_44:\n        /* \"PokemonFactory.sol\":792:807  product = a * b */\n      swap4\n      pop\n        /* \"PokemonFactory.sol\":825:826  b */\n      dup1\n        /* \"PokemonFactory.sol\":821:822  a */\n      dup3\n        /* \"PokemonFactory.sol\":821:826  a + b */\n      tag_46\n      swap2\n      swap1\n      tag_47\n      jump\t// in\n    tag_46:\n        /* \"PokemonFactory.sol\":815:826  sum = a + b */\n      swap3\n      pop\n        /* \"PokemonFactory.sol\":747:833  {... */\n      pop\n      pop\n        /* \"PokemonFactory.sol\":683:833  function getResult() public pure returns(uint product, uint sum){... */\n      swap1\n      swap2\n      jump\t// out\n    tag_28:\n      dup3\n      dup1\n      sload\n      tag_48\n      swap1\n      tag_38\n      jump\t// in\n    tag_48:\n      swap1\n      0x00\n      mstore\n      keccak256(0x00, 0x20)\n      swap1\n      0x1f\n      add\n      0x20\n      swap1\n      div\n      dup2\n      add\n      swap3\n      dup3\n      tag_50\n      jumpi\n      0x00\n      dup6\n      sstore\n      jump(tag_49)\n    tag_50:\n      dup3\n      0x1f\n      lt\n      tag_51\n      jumpi\n      dup1\n      mload\n      not(0xff)\n      and\n      dup4\n      dup1\n      add\n      or\n      dup6\n      sstore\n      jump(tag_49)\n    tag_51:\n      dup3\n      dup1\n      add\n      0x01\n      add\n      dup6\n      sstore\n      dup3\n      iszero\n      tag_49\n      jumpi\n      swap2\n      dup3\n      add\n    tag_52:\n      dup3\n      dup2\n      gt\n      iszero\n      tag_53\n      jumpi\n      dup3\n      mload\n      dup3\n      sstore\n      swap2\n      0x20\n      add\n      swap2\n      swap1\n      0x01\n      add\n      swap1\n      jump(tag_52)\n    tag_53:\n    tag_49:\n      pop\n      swap1\n      pop\n      tag_54\n      swap2\n      swap1\n      tag_55\n      jump\t// in\n    tag_54:\n      pop\n      swap1\n      jump\t// out\n    tag_55:\n    tag_56:\n      dup1\n      dup3\n      gt\n      iszero\n      tag_57\n      jumpi\n      0x00\n      dup2\n      0x00\n      swap1\n      sstore\n      pop\n      0x01\n      add\n      jump(tag_56)\n    tag_57:\n      pop\n      swap1\n      jump\t// out\n        /* \"#utility.yul\":7:419   */\n    tag_59:\n        /* \"#utility.yul\":85:90   */\n      0x00\n        /* \"#utility.yul\":110:176   */\n      tag_61\n        /* \"#utility.yul\":126:175   */\n      tag_62\n        /* \"#utility.yul\":168:174   */\n      dup5\n        /* \"#utility.yul\":126:175   */\n      tag_63\n      jump\t// in\n    tag_62:\n        /* \"#utility.yul\":110:176   */\n      tag_64\n      jump\t// in\n    tag_61:\n        /* \"#utility.yul\":101:176   */\n      swap1\n      pop\n        /* \"#utility.yul\":199:205   */\n      dup3\n        /* \"#utility.yul\":192:197   */\n      dup2\n        /* \"#utility.yul\":185:206   */\n      mstore\n        /* \"#utility.yul\":237:241   */\n      0x20\n        /* \"#utility.yul\":230:235   */\n      dup2\n        /* \"#utility.yul\":226:242   */\n      add\n        /* \"#utility.yul\":275:278   */\n      dup5\n        /* \"#utility.yul\":266:272   */\n      dup5\n        /* \"#utility.yul\":261:264   */\n      dup5\n        /* \"#utility.yul\":257:273   */\n      add\n        /* \"#utility.yul\":254:279   */\n      gt\n        /* \"#utility.yul\":251:363   */\n      iszero\n      tag_65\n      jumpi\n        /* \"#utility.yul\":282:361   */\n      tag_66\n      tag_67\n      jump\t// in\n    tag_66:\n        /* \"#utility.yul\":251:363   */\n    tag_65:\n        /* \"#utility.yul\":372:413   */\n      tag_68\n        /* \"#utility.yul\":406:412   */\n      dup5\n        /* \"#utility.yul\":401:404   */\n      dup3\n        /* \"#utility.yul\":396:399   */\n      dup6\n        /* \"#utility.yul\":372:413   */\n      tag_69\n      jump\t// in\n    tag_68:\n        /* \"#utility.yul\":91:419   */\n      pop\n        /* \"#utility.yul\":7:419   */\n      swap4\n      swap3\n      pop\n      pop\n      pop\n      jump\t// out\n        /* \"#utility.yul\":439:779   */\n    tag_70:\n        /* \"#utility.yul\":495:500   */\n      0x00\n        /* \"#utility.yul\":544:547   */\n      dup3\n        /* \"#utility.yul\":537:541   */\n      0x1f\n        /* \"#utility.yul\":529:535   */\n      dup4\n        /* \"#utility.yul\":525:542   */\n      add\n        /* \"#utility.yul\":521:548   */\n      slt\n        /* \"#utility.yul\":511:633   */\n      tag_72\n      jumpi\n        /* \"#utility.yul\":552:631   */\n      tag_73\n      tag_74\n      jump\t// in\n    tag_73:\n        /* \"#utility.yul\":511:633   */\n    tag_72:\n        /* \"#utility.yul\":669:675   */\n      dup2\n        /* \"#utility.yul\":656:676   */\n      calldataload\n        /* \"#utility.yul\":694:773   */\n      tag_75\n        /* \"#utility.yul\":769:772   */\n      dup5\n        /* \"#utility.yul\":761:767   */\n      dup3\n        /* \"#utility.yul\":754:758   */\n      0x20\n        /* \"#utility.yul\":746:752   */\n      dup7\n        /* \"#utility.yul\":742:759   */\n      add\n        /* \"#utility.yul\":694:773   */\n      tag_59\n      jump\t// in\n    tag_75:\n        /* \"#utility.yul\":685:773   */\n      swap2\n      pop\n        /* \"#utility.yul\":501:779   */\n      pop\n        /* \"#utility.yul\":439:779   */\n      swap3\n      swap2\n      pop\n      pop\n      jump\t// out\n        /* \"#utility.yul\":785:924   */\n    tag_76:\n        /* \"#utility.yul\":831:836   */\n      0x00\n        /* \"#utility.yul\":869:875   */\n      dup2\n        /* \"#utility.yul\":856:876   */\n      calldataload\n        /* \"#utility.yul\":847:876   */\n      swap1\n      pop\n        /* \"#utility.yul\":885:918   */\n      tag_78\n        /* \"#utility.yul\":912:917   */\n      dup2\n        /* \"#utility.yul\":885:918   */\n      tag_79\n      jump\t// in\n    tag_78:\n        /* \"#utility.yul\":785:924   */\n      swap3\n      swap2\n      pop\n      pop\n      jump\t// out\n        /* \"#utility.yul\":930:1584   */\n    tag_9:\n        /* \"#utility.yul\":1008:1014   */\n      0x00\n        /* \"#utility.yul\":1016:1022   */\n      dup1\n        /* \"#utility.yul\":1065:1067   */\n      0x40\n        /* \"#utility.yul\":1053:1062   */\n      dup4\n        /* \"#utility.yul\":1044:1051   */\n      dup6\n        /* \"#utility.yul\":1040:1063   */\n      sub\n        /* \"#utility.yul\":1036:1068   */\n      slt\n        /* \"#utility.yul\":1033:1152   */\n      iszero\n      tag_81\n      jumpi\n        /* \"#utility.yul\":1071:1150   */\n      tag_82\n      tag_83\n      jump\t// in\n    tag_82:\n        /* \"#utility.yul\":1033:1152   */\n    tag_81:\n        /* \"#utility.yul\":1219:1220   */\n      0x00\n        /* \"#utility.yul\":1208:1217   */\n      dup4\n        /* \"#utility.yul\":1204:1221   */\n      add\n        /* \"#utility.yul\":1191:1222   */\n      calldataload\n        /* \"#utility.yul\":1249:1267   */\n      0xffffffffffffffff\n        /* \"#utility.yul\":1241:1247   */\n      dup2\n        /* \"#utility.yul\":1238:1268   */\n      gt\n        /* \"#utility.yul\":1235:1352   */\n      iszero\n      tag_84\n      jumpi\n        /* \"#utility.yul\":1271:1350   */\n      tag_85\n      tag_86\n      jump\t// in\n    tag_85:\n        /* \"#utility.yul\":1235:1352   */\n    tag_84:\n        /* \"#utility.yul\":1376:1439   */\n      tag_87\n        /* \"#utility.yul\":1431:1438   */\n      dup6\n        /* \"#utility.yul\":1422:1428   */\n      dup3\n        /* \"#utility.yul\":1411:1420   */\n      dup7\n        /* \"#utility.yul\":1407:1429   */\n      add\n        /* \"#utility.yul\":1376:1439   */\n      tag_70\n      jump\t// in\n    tag_87:\n        /* \"#utility.yul\":1366:1439   */\n      swap3\n      pop\n        /* \"#utility.yul\":1162:1449   */\n      pop\n        /* \"#utility.yul\":1488:1490   */\n      0x20\n        /* \"#utility.yul\":1514:1567   */\n      tag_88\n        /* \"#utility.yul\":1559:1566   */\n      dup6\n        /* \"#utility.yul\":1550:1556   */\n      dup3\n        /* \"#utility.yul\":1539:1548   */\n      dup7\n        /* \"#utility.yul\":1535:1557   */\n      add\n        /* \"#utility.yul\":1514:1567   */\n      tag_76\n      jump\t// in\n    tag_88:\n        /* \"#utility.yul\":1504:1567   */\n      swap2\n      pop\n        /* \"#utility.yul\":1459:1577   */\n      pop\n        /* \"#utility.yul\":930:1584   */\n      swap3\n      pop\n      swap3\n      swap1\n      pop\n      jump\t// out\n        /* \"#utility.yul\":1590:1919   */\n    tag_13:\n        /* \"#utility.yul\":1649:1655   */\n      0x00\n        /* \"#utility.yul\":1698:1700   */\n      0x20\n        /* \"#utility.yul\":1686:1695   */\n      dup3\n        /* \"#utility.yul\":1677:1684   */\n      dup5\n        /* \"#utility.yul\":1673:1696   */\n      sub\n        /* \"#utility.yul\":1669:1701   */\n      slt\n        /* \"#utility.yul\":1666:1785   */\n      iszero\n      tag_90\n      jumpi\n        /* \"#utility.yul\":1704:1783   */\n      tag_91\n      tag_83\n      jump\t// in\n    tag_91:\n        /* \"#utility.yul\":1666:1785   */\n    tag_90:\n        /* \"#utility.yul\":1824:1825   */\n      0x00\n        /* \"#utility.yul\":1849:1902   */\n      tag_92\n        /* \"#utility.yul\":1894:1901   */\n      dup5\n        /* \"#utility.yul\":1885:1891   */\n      dup3\n        /* \"#utility.yul\":1874:1883   */\n      dup6\n        /* \"#utility.yul\":1870:1892   */\n      add\n        /* \"#utility.yul\":1849:1902   */\n      tag_76\n      jump\t// in\n    tag_92:\n        /* \"#utility.yul\":1839:1902   */\n      swap2\n      pop\n        /* \"#utility.yul\":1795:1912   */\n      pop\n        /* \"#utility.yul\":1590:1919   */\n      swap3\n      swap2\n      pop\n      pop\n      jump\t// out\n        /* \"#utility.yul\":1925:2169   */\n    tag_93:\n        /* \"#utility.yul\":2038:2048   */\n      0x00\n        /* \"#utility.yul\":2073:2163   */\n      tag_95\n        /* \"#utility.yul\":2159:2162   */\n      dup4\n        /* \"#utility.yul\":2151:2157   */\n      dup4\n        /* \"#utility.yul\":2073:2163   */\n      tag_96\n      jump\t// in\n    tag_95:\n        /* \"#utility.yul\":2059:2163   */\n      swap1\n      pop\n        /* \"#utility.yul\":1925:2169   */\n      swap3\n      swap2\n      pop\n      pop\n      jump\t// out\n        /* \"#utility.yul\":2175:2293   */\n    tag_97:\n        /* \"#utility.yul\":2262:2286   */\n      tag_99\n        /* \"#utility.yul\":2280:2285   */\n      dup2\n        /* \"#utility.yul\":2262:2286   */\n      tag_100\n      jump\t// in\n    tag_99:\n        /* \"#utility.yul\":2257:2260   */\n      dup3\n        /* \"#utility.yul\":2250:2287   */\n      mstore\n        /* \"#utility.yul\":2175:2293   */\n      pop\n      pop\n      jump\t// out\n        /* \"#utility.yul\":2373:3460   */\n    tag_101:\n        /* \"#utility.yul\":2536:2539   */\n      0x00\n        /* \"#utility.yul\":2565:2641   */\n      tag_103\n        /* \"#utility.yul\":2635:2640   */\n      dup3\n        /* \"#utility.yul\":2565:2641   */\n      tag_104\n      jump\t// in\n    tag_103:\n        /* \"#utility.yul\":2657:2765   */\n      tag_105\n        /* \"#utility.yul\":2758:2764   */\n      dup2\n        /* \"#utility.yul\":2753:2756   */\n      dup6\n        /* \"#utility.yul\":2657:2765   */\n      tag_106\n      jump\t// in\n    tag_105:\n        /* \"#utility.yul\":2650:2765   */\n      swap4\n      pop\n        /* \"#utility.yul\":2791:2794   */\n      dup4\n        /* \"#utility.yul\":2836:2840   */\n      0x20\n        /* \"#utility.yul\":2828:2834   */\n      dup3\n        /* \"#utility.yul\":2824:2841   */\n      mul\n        /* \"#utility.yul\":2819:2822   */\n      dup6\n        /* \"#utility.yul\":2815:2842   */\n      add\n        /* \"#utility.yul\":2866:2944   */\n      tag_107\n        /* \"#utility.yul\":2938:2943   */\n      dup6\n        /* \"#utility.yul\":2866:2944   */\n      tag_108\n      jump\t// in\n    tag_107:\n        /* \"#utility.yul\":2967:2974   */\n      dup1\n        /* \"#utility.yul\":2998:2999   */\n      0x00\n        /* \"#utility.yul\":2983:3415   */\n    tag_109:\n        /* \"#utility.yul\":3008:3014   */\n      dup6\n        /* \"#utility.yul\":3005:3006   */\n      dup2\n        /* \"#utility.yul\":3002:3015   */\n      lt\n        /* \"#utility.yul\":2983:3415   */\n      iszero\n      tag_111\n      jumpi\n        /* \"#utility.yul\":3079:3088   */\n      dup5\n        /* \"#utility.yul\":3073:3077   */\n      dup5\n        /* \"#utility.yul\":3069:3089   */\n      sub\n        /* \"#utility.yul\":3064:3067   */\n      dup10\n        /* \"#utility.yul\":3057:3090   */\n      mstore\n        /* \"#utility.yul\":3130:3136   */\n      dup2\n        /* \"#utility.yul\":3124:3137   */\n      mload\n        /* \"#utility.yul\":3158:3266   */\n      tag_112\n        /* \"#utility.yul\":3261:3265   */\n      dup6\n        /* \"#utility.yul\":3246:3259   */\n      dup3\n        /* \"#utility.yul\":3158:3266   */\n      tag_93\n      jump\t// in\n    tag_112:\n        /* \"#utility.yul\":3150:3266   */\n      swap5\n      pop\n        /* \"#utility.yul\":3289:3371   */\n      tag_113\n        /* \"#utility.yul\":3364:3370   */\n      dup4\n        /* \"#utility.yul\":3289:3371   */\n      tag_114\n      jump\t// in\n    tag_113:\n        /* \"#utility.yul\":3279:3371   */\n      swap3\n      pop\n        /* \"#utility.yul\":3400:3404   */\n      0x20\n        /* \"#utility.yul\":3395:3398   */\n      dup11\n        /* \"#utility.yul\":3391:3405   */\n      add\n        /* \"#utility.yul\":3384:3405   */\n      swap10\n      pop\n        /* \"#utility.yul\":3043:3415   */\n      pop\n        /* \"#utility.yul\":3030:3031   */\n      0x01\n        /* \"#utility.yul\":3027:3028   */\n      dup2\n        /* \"#utility.yul\":3023:3032   */\n      add\n        /* \"#utility.yul\":3018:3032   */\n      swap1\n      pop\n        /* \"#utility.yul\":2983:3415   */\n      jump(tag_109)\n    tag_111:\n        /* \"#utility.yul\":2987:3001   */\n      pop\n        /* \"#utility.yul\":3431:3435   */\n      dup3\n        /* \"#utility.yul\":3424:3435   */\n      swap8\n      pop\n        /* \"#utility.yul\":3451:3454   */\n      dup8\n        /* \"#utility.yul\":3444:3454   */\n      swap6\n      pop\n        /* \"#utility.yul\":2541:3460   */\n      pop\n      pop\n      pop\n      pop\n      pop\n        /* \"#utility.yul\":2373:3460   */\n      swap3\n      swap2\n      pop\n      pop\n      jump\t// out\n        /* \"#utility.yul\":3466:3810   */\n    tag_115:\n        /* \"#utility.yul\":3544:3547   */\n      0x00\n        /* \"#utility.yul\":3572:3611   */\n      tag_117\n        /* \"#utility.yul\":3605:3610   */\n      dup3\n        /* \"#utility.yul\":3572:3611   */\n      tag_118\n      jump\t// in\n    tag_117:\n        /* \"#utility.yul\":3627:3688   */\n      tag_119\n        /* \"#utility.yul\":3681:3687   */\n      dup2\n        /* \"#utility.yul\":3676:3679   */\n      dup6\n        /* \"#utility.yul\":3627:3688   */\n      tag_120\n      jump\t// in\n    tag_119:\n        /* \"#utility.yul\":3620:3688   */\n      swap4\n      pop\n        /* \"#utility.yul\":3697:3749   */\n      tag_121\n        /* \"#utility.yul\":3742:3748   */\n      dup2\n        /* \"#utility.yul\":3737:3740   */\n      dup6\n        /* \"#utility.yul\":3730:3734   */\n      0x20\n        /* \"#utility.yul\":3723:3728   */\n      dup7\n        /* \"#utility.yul\":3719:3735   */\n      add\n        /* \"#utility.yul\":3697:3749   */\n      tag_122\n      jump\t// in\n    tag_121:\n        /* \"#utility.yul\":3774:3803   */\n      tag_123\n        /* \"#utility.yul\":3796:3802   */\n      dup2\n        /* \"#utility.yul\":3774:3803   */\n      tag_124\n      jump\t// in\n    tag_123:\n        /* \"#utility.yul\":3769:3772   */\n      dup5\n        /* \"#utility.yul\":3765:3804   */\n      add\n        /* \"#utility.yul\":3758:3804   */\n      swap2\n      pop\n        /* \"#utility.yul\":3548:3810   */\n      pop\n        /* \"#utility.yul\":3466:3810   */\n      swap3\n      swap2\n      pop\n      pop\n      jump\t// out\n        /* \"#utility.yul\":3816:4180   */\n    tag_125:\n        /* \"#utility.yul\":3904:3907   */\n      0x00\n        /* \"#utility.yul\":3932:3971   */\n      tag_127\n        /* \"#utility.yul\":3965:3970   */\n      dup3\n        /* \"#utility.yul\":3932:3971   */\n      tag_118\n      jump\t// in\n    tag_127:\n        /* \"#utility.yul\":3987:4058   */\n      tag_128\n        /* \"#utility.yul\":4051:4057   */\n      dup2\n        /* \"#utility.yul\":4046:4049   */\n      dup6\n        /* \"#utility.yul\":3987:4058   */\n      tag_129\n      jump\t// in\n    tag_128:\n        /* \"#utility.yul\":3980:4058   */\n      swap4\n      pop\n        /* \"#utility.yul\":4067:4119   */\n      tag_130\n        /* \"#utility.yul\":4112:4118   */\n      dup2\n        /* \"#utility.yul\":4107:4110   */\n      dup6\n        /* \"#utility.yul\":4100:4104   */\n      0x20\n        /* \"#utility.yul\":4093:4098   */\n      dup7\n        /* \"#utility.yul\":4089:4105   */\n      add\n        /* \"#utility.yul\":4067:4119   */\n      tag_122\n      jump\t// in\n    tag_130:\n        /* \"#utility.yul\":4144:4173   */\n      tag_131\n        /* \"#utility.yul\":4166:4172   */\n      dup2\n        /* \"#utility.yul\":4144:4173   */\n      tag_124\n      jump\t// in\n    tag_131:\n        /* \"#utility.yul\":4139:4142   */\n      dup5\n        /* \"#utility.yul\":4135:4174   */\n      add\n        /* \"#utility.yul\":4128:4174   */\n      swap2\n      pop\n        /* \"#utility.yul\":3908:4180   */\n      pop\n        /* \"#utility.yul\":3816:4180   */\n      swap3\n      swap2\n      pop\n      pop\n      jump\t// out\n        /* \"#utility.yul\":4256:4844   */\n    tag_96:\n        /* \"#utility.yul\":4359:4362   */\n      0x00\n        /* \"#utility.yul\":4395:4399   */\n      0x40\n        /* \"#utility.yul\":4390:4393   */\n      dup4\n        /* \"#utility.yul\":4386:4400   */\n      add\n        /* \"#utility.yul\":4480:4484   */\n      0x00\n        /* \"#utility.yul\":4473:4478   */\n      dup4\n        /* \"#utility.yul\":4469:4485   */\n      add\n        /* \"#utility.yul\":4463:4486   */\n      mload\n        /* \"#utility.yul\":4499:4562   */\n      tag_133\n        /* \"#utility.yul\":4556:4560   */\n      0x00\n        /* \"#utility.yul\":4551:4554   */\n      dup7\n        /* \"#utility.yul\":4547:4561   */\n      add\n        /* \"#utility.yul\":4533:4545   */\n      dup3\n        /* \"#utility.yul\":4499:4562   */\n      tag_134\n      jump\t// in\n    tag_133:\n        /* \"#utility.yul\":4410:4572   */\n      pop\n        /* \"#utility.yul\":4654:4658   */\n      0x20\n        /* \"#utility.yul\":4647:4652   */\n      dup4\n        /* \"#utility.yul\":4643:4659   */\n      add\n        /* \"#utility.yul\":4637:4660   */\n      mload\n        /* \"#utility.yul\":4707:4710   */\n      dup5\n        /* \"#utility.yul\":4701:4705   */\n      dup3\n        /* \"#utility.yul\":4697:4711   */\n      sub\n        /* \"#utility.yul\":4690:4694   */\n      0x20\n        /* \"#utility.yul\":4685:4688   */\n      dup7\n        /* \"#utility.yul\":4681:4695   */\n      add\n        /* \"#utility.yul\":4674:4712   */\n      mstore\n        /* \"#utility.yul\":4733:4806   */\n      tag_135\n        /* \"#utility.yul\":4801:4805   */\n      dup3\n        /* \"#utility.yul\":4787:4799   */\n      dup3\n        /* \"#utility.yul\":4733:4806   */\n      tag_115\n      jump\t// in\n    tag_135:\n        /* \"#utility.yul\":4725:4806   */\n      swap2\n      pop\n        /* \"#utility.yul\":4582:4817   */\n      pop\n        /* \"#utility.yul\":4834:4838   */\n      dup1\n        /* \"#utility.yul\":4827:4838   */\n      swap2\n      pop\n        /* \"#utility.yul\":4364:4844   */\n      pop\n        /* \"#utility.yul\":4256:4844   */\n      swap3\n      swap2\n      pop\n      pop\n      jump\t// out\n        /* \"#utility.yul\":4850:4958   */\n    tag_134:\n        /* \"#utility.yul\":4927:4951   */\n      tag_137\n        /* \"#utility.yul\":4945:4950   */\n      dup2\n        /* \"#utility.yul\":4927:4951   */\n      tag_138\n      jump\t// in\n    tag_137:\n        /* \"#utility.yul\":4922:4925   */\n      dup3\n        /* \"#utility.yul\":4915:4952   */\n      mstore\n        /* \"#utility.yul\":4850:4958   */\n      pop\n      pop\n      jump\t// out\n        /* \"#utility.yul\":4964:5082   */\n    tag_139:\n        /* \"#utility.yul\":5051:5075   */\n      tag_141\n        /* \"#utility.yul\":5069:5074   */\n      dup2\n        /* \"#utility.yul\":5051:5075   */\n      tag_138\n      jump\t// in\n    tag_141:\n        /* \"#utility.yul\":5046:5049   */\n      dup3\n        /* \"#utility.yul\":5039:5076   */\n      mstore\n        /* \"#utility.yul\":4964:5082   */\n      pop\n      pop\n      jump\t// out\n        /* \"#utility.yul\":5088:5310   */\n    tag_16:\n        /* \"#utility.yul\":5181:5185   */\n      0x00\n        /* \"#utility.yul\":5219:5221   */\n      0x20\n        /* \"#utility.yul\":5208:5217   */\n      dup3\n        /* \"#utility.yul\":5204:5222   */\n      add\n        /* \"#utility.yul\":5196:5222   */\n      swap1\n      pop\n        /* \"#utility.yul\":5232:5303   */\n      tag_143\n        /* \"#utility.yul\":5300:5301   */\n      0x00\n        /* \"#utility.yul\":5289:5298   */\n      dup4\n        /* \"#utility.yul\":5285:5302   */\n      add\n        /* \"#utility.yul\":5276:5282   */\n      dup5\n        /* \"#utility.yul\":5232:5303   */\n      tag_97\n      jump\t// in\n    tag_143:\n        /* \"#utility.yul\":5088:5310   */\n      swap3\n      swap2\n      pop\n      pop\n      jump\t// out\n        /* \"#utility.yul\":5316:5777   */\n    tag_20:\n        /* \"#utility.yul\":5503:5507   */\n      0x00\n        /* \"#utility.yul\":5541:5543   */\n      0x20\n        /* \"#utility.yul\":5530:5539   */\n      dup3\n        /* \"#utility.yul\":5526:5544   */\n      add\n        /* \"#utility.yul\":5518:5544   */\n      swap1\n      pop\n        /* \"#utility.yul\":5590:5599   */\n      dup2\n        /* \"#utility.yul\":5584:5588   */\n      dup2\n        /* \"#utility.yul\":5580:5600   */\n      sub\n        /* \"#utility.yul\":5576:5577   */\n      0x00\n        /* \"#utility.yul\":5565:5574   */\n      dup4\n        /* \"#utility.yul\":5561:5578   */\n      add\n        /* \"#utility.yul\":5554:5601   */\n      mstore\n        /* \"#utility.yul\":5618:5770   */\n      tag_145\n        /* \"#utility.yul\":5765:5769   */\n      dup2\n        /* \"#utility.yul\":5756:5762   */\n      dup5\n        /* \"#utility.yul\":5618:5770   */\n      tag_101\n      jump\t// in\n    tag_145:\n        /* \"#utility.yul\":5610:5770   */\n      swap1\n      pop\n        /* \"#utility.yul\":5316:5777   */\n      swap3\n      swap2\n      pop\n      pop\n      jump\t// out\n        /* \"#utility.yul\":5783:6096   */\n    tag_32:\n        /* \"#utility.yul\":5896:5900   */\n      0x00\n        /* \"#utility.yul\":5934:5936   */\n      0x20\n        /* \"#utility.yul\":5923:5932   */\n      dup3\n        /* \"#utility.yul\":5919:5937   */\n      add\n        /* \"#utility.yul\":5911:5937   */\n      swap1\n      pop\n        /* \"#utility.yul\":5983:5992   */\n      dup2\n        /* \"#utility.yul\":5977:5981   */\n      dup2\n        /* \"#utility.yul\":5973:5993   */\n      sub\n        /* \"#utility.yul\":5969:5970   */\n      0x00\n        /* \"#utility.yul\":5958:5967   */\n      dup4\n        /* \"#utility.yul\":5954:5971   */\n      add\n        /* \"#utility.yul\":5947:5994   */\n      mstore\n        /* \"#utility.yul\":6011:6089   */\n      tag_147\n        /* \"#utility.yul\":6084:6088   */\n      dup2\n        /* \"#utility.yul\":6075:6081   */\n      dup5\n        /* \"#utility.yul\":6011:6089   */\n      tag_125\n      jump\t// in\n    tag_147:\n        /* \"#utility.yul\":6003:6089   */\n      swap1\n      pop\n        /* \"#utility.yul\":5783:6096   */\n      swap3\n      swap2\n      pop\n      pop\n      jump\t// out\n        /* \"#utility.yul\":6102:6434   */\n    tag_24:\n        /* \"#utility.yul\":6223:6227   */\n      0x00\n        /* \"#utility.yul\":6261:6263   */\n      0x40\n        /* \"#utility.yul\":6250:6259   */\n      dup3\n        /* \"#utility.yul\":6246:6264   */\n      add\n        /* \"#utility.yul\":6238:6264   */\n      swap1\n      pop\n        /* \"#utility.yul\":6274:6345   */\n      tag_149\n        /* \"#utility.yul\":6342:6343   */\n      0x00\n        /* \"#utility.yul\":6331:6340   */\n      dup4\n        /* \"#utility.yul\":6327:6344   */\n      add\n        /* \"#utility.yul\":6318:6324   */\n      dup6\n        /* \"#utility.yul\":6274:6345   */\n      tag_139\n      jump\t// in\n    tag_149:\n        /* \"#utility.yul\":6355:6427   */\n      tag_150\n        /* \"#utility.yul\":6423:6425   */\n      0x20\n        /* \"#utility.yul\":6412:6421   */\n      dup4\n        /* \"#utility.yul\":6408:6426   */\n      add\n        /* \"#utility.yul\":6399:6405   */\n      dup5\n        /* \"#utility.yul\":6355:6427   */\n      tag_139\n      jump\t// in\n    tag_150:\n        /* \"#utility.yul\":6102:6434   */\n      swap4\n      swap3\n      pop\n      pop\n      pop\n      jump\t// out\n        /* \"#utility.yul\":6440:6569   */\n    tag_64:\n        /* \"#utility.yul\":6474:6480   */\n      0x00\n        /* \"#utility.yul\":6501:6521   */\n      tag_152\n      tag_153\n      jump\t// in\n    tag_152:\n        /* \"#utility.yul\":6491:6521   */\n      swap1\n      pop\n        /* \"#utility.yul\":6530:6563   */\n      tag_154\n        /* \"#utility.yul\":6558:6562   */\n      dup3\n        /* \"#utility.yul\":6550:6556   */\n      dup3\n        /* \"#utility.yul\":6530:6563   */\n      tag_155\n      jump\t// in\n    tag_154:\n        /* \"#utility.yul\":6440:6569   */\n      swap2\n      swap1\n      pop\n      jump\t// out\n        /* \"#utility.yul\":6575:6650   */\n    tag_153:\n        /* \"#utility.yul\":6608:6614   */\n      0x00\n        /* \"#utility.yul\":6641:6643   */\n      0x40\n        /* \"#utility.yul\":6635:6644   */\n      mload\n        /* \"#utility.yul\":6625:6644   */\n      swap1\n      pop\n        /* \"#utility.yul\":6575:6650   */\n      swap1\n      jump\t// out\n        /* \"#utility.yul\":6656:6964   */\n    tag_63:\n        /* \"#utility.yul\":6718:6722   */\n      0x00\n        /* \"#utility.yul\":6808:6826   */\n      0xffffffffffffffff\n        /* \"#utility.yul\":6800:6806   */\n      dup3\n        /* \"#utility.yul\":6797:6827   */\n      gt\n        /* \"#utility.yul\":6794:6850   */\n      iszero\n      tag_158\n      jumpi\n        /* \"#utility.yul\":6830:6848   */\n      tag_159\n      tag_160\n      jump\t// in\n    tag_159:\n        /* \"#utility.yul\":6794:6850   */\n    tag_158:\n        /* \"#utility.yul\":6868:6897   */\n      tag_161\n        /* \"#utility.yul\":6890:6896   */\n      dup3\n        /* \"#utility.yul\":6868:6897   */\n      tag_124\n      jump\t// in\n    tag_161:\n        /* \"#utility.yul\":6860:6897   */\n      swap1\n      pop\n        /* \"#utility.yul\":6952:6956   */\n      0x20\n        /* \"#utility.yul\":6946:6950   */\n      dup2\n        /* \"#utility.yul\":6942:6957   */\n      add\n        /* \"#utility.yul\":6934:6957   */\n      swap1\n      pop\n        /* \"#utility.yul\":6656:6964   */\n      swap2\n      swap1\n      pop\n      jump\t// out\n        /* \"#utility.yul\":6970:7124   */\n    tag_108:\n        /* \"#utility.yul\":7059:7063   */\n      0x00\n        /* \"#utility.yul\":7082:7085   */\n      dup2\n        /* \"#utility.yul\":7074:7085   */\n      swap1\n      pop\n        /* \"#utility.yul\":7112:7116   */\n      0x20\n        /* \"#utility.yul\":7107:7110   */\n      dup3\n        /* \"#utility.yul\":7103:7117   */\n      add\n        /* \"#utility.yul\":7095:7117   */\n      swap1\n      pop\n        /* \"#utility.yul\":6970:7124   */\n      swap2\n      swap1\n      pop\n      jump\t// out\n        /* \"#utility.yul\":7130:7266   */\n    tag_104:\n        /* \"#utility.yul\":7219:7225   */\n      0x00\n        /* \"#utility.yul\":7253:7258   */\n      dup2\n        /* \"#utility.yul\":7247:7259   */\n      mload\n        /* \"#utility.yul\":7237:7259   */\n      swap1\n      pop\n        /* \"#utility.yul\":7130:7266   */\n      swap2\n      swap1\n      pop\n      jump\t// out\n        /* \"#utility.yul\":7272:7371   */\n    tag_118:\n        /* \"#utility.yul\":7324:7330   */\n      0x00\n        /* \"#utility.yul\":7358:7363   */\n      dup2\n        /* \"#utility.yul\":7352:7364   */\n      mload\n        /* \"#utility.yul\":7342:7364   */\n      swap1\n      pop\n        /* \"#utility.yul\":7272:7371   */\n      swap2\n      swap1\n      pop\n      jump\t// out\n        /* \"#utility.yul\":7377:7512   */\n    tag_114:\n        /* \"#utility.yul\":7469:7473   */\n      0x00\n        /* \"#utility.yul\":7501:7505   */\n      0x20\n        /* \"#utility.yul\":7496:7499   */\n      dup3\n        /* \"#utility.yul\":7492:7506   */\n      add\n        /* \"#utility.yul\":7484:7506   */\n      swap1\n      pop\n        /* \"#utility.yul\":7377:7512   */\n      swap2\n      swap1\n      pop\n      jump\t// out\n        /* \"#utility.yul\":7518:7724   */\n    tag_106:\n        /* \"#utility.yul\":7639:7650   */\n      0x00\n        /* \"#utility.yul\":7673:7679   */\n      dup3\n        /* \"#utility.yul\":7668:7671   */\n      dup3\n        /* \"#utility.yul\":7661:7680   */\n      mstore\n        /* \"#utility.yul\":7713:7717   */\n      0x20\n        /* \"#utility.yul\":7708:7711   */\n      dup3\n        /* \"#utility.yul\":7704:7718   */\n      add\n        /* \"#utility.yul\":7689:7718   */\n      swap1\n      pop\n        /* \"#utility.yul\":7518:7724   */\n      swap3\n      swap2\n      pop\n      pop\n      jump\t// out\n        /* \"#utility.yul\":7730:7889   */\n    tag_120:\n        /* \"#utility.yul\":7804:7815   */\n      0x00\n        /* \"#utility.yul\":7838:7844   */\n      dup3\n        /* \"#utility.yul\":7833:7836   */\n      dup3\n        /* \"#utility.yul\":7826:7845   */\n      mstore\n        /* \"#utility.yul\":7878:7882   */\n      0x20\n        /* \"#utility.yul\":7873:7876   */\n      dup3\n        /* \"#utility.yul\":7869:7883   */\n      add\n        /* \"#utility.yul\":7854:7883   */\n      swap1\n      pop\n        /* \"#utility.yul\":7730:7889   */\n      swap3\n      swap2\n      pop\n      pop\n      jump\t// out\n        /* \"#utility.yul\":7895:8064   */\n    tag_129:\n        /* \"#utility.yul\":7979:7990   */\n      0x00\n        /* \"#utility.yul\":8013:8019   */\n      dup3\n        /* \"#utility.yul\":8008:8011   */\n      dup3\n        /* \"#utility.yul\":8001:8020   */\n      mstore\n        /* \"#utility.yul\":8053:8057   */\n      0x20\n        /* \"#utility.yul\":8048:8051   */\n      dup3\n        /* \"#utility.yul\":8044:8058   */\n      add\n        /* \"#utility.yul\":8029:8058   */\n      swap1\n      pop\n        /* \"#utility.yul\":7895:8064   */\n      swap3\n      swap2\n      pop\n      pop\n      jump\t// out\n        /* \"#utility.yul\":8070:8375   */\n    tag_47:\n        /* \"#utility.yul\":8110:8113   */\n      0x00\n        /* \"#utility.yul\":8129:8149   */\n      tag_170\n        /* \"#utility.yul\":8147:8148   */\n      dup3\n        /* \"#utility.yul\":8129:8149   */\n      tag_138\n      jump\t// in\n    tag_170:\n        /* \"#utility.yul\":8124:8149   */\n      swap2\n      pop\n        /* \"#utility.yul\":8163:8183   */\n      tag_171\n        /* \"#utility.yul\":8181:8182   */\n      dup4\n        /* \"#utility.yul\":8163:8183   */\n      tag_138\n      jump\t// in\n    tag_171:\n        /* \"#utility.yul\":8158:8183   */\n      swap3\n      pop\n        /* \"#utility.yul\":8317:8318   */\n      dup3\n        /* \"#utility.yul\":8249:8315   */\n      0xffffffffffffffffffffffffffffffffffffffffffffffffffffffffffffffff\n        /* \"#utility.yul\":8245:8319   */\n      sub\n        /* \"#utility.yul\":8242:8243   */\n      dup3\n        /* \"#utility.yul\":8239:8320   */\n      gt\n        /* \"#utility.yul\":8236:8343   */\n      iszero\n      tag_172\n      jumpi\n        /* \"#utility.yul\":8323:8341   */\n      tag_173\n      tag_174\n      jump\t// in\n    tag_173:\n        /* \"#utility.yul\":8236:8343   */\n    tag_172:\n        /* \"#utility.yul\":8367:8368   */\n      dup3\n        /* \"#utility.yul\":8364:8365   */\n      dup3\n        /* \"#utility.yul\":8360:8369   */\n      add\n        /* \"#utility.yul\":8353:8369   */\n      swap1\n      pop\n        /* \"#utility.yul\":8070:8375   */\n      swap3\n      swap2\n      pop\n      pop\n      jump\t// out\n        /* \"#utility.yul\":8381:8729   */\n    tag_45:\n        /* \"#utility.yul\":8421:8428   */\n      0x00\n        /* \"#utility.yul\":8444:8464   */\n      tag_176\n        /* \"#utility.yul\":8462:8463   */\n      dup3\n        /* \"#utility.yul\":8444:8464   */\n      tag_138\n      jump\t// in\n    tag_176:\n        /* \"#utility.yul\":8439:8464   */\n      swap2\n      pop\n        /* \"#utility.yul\":8478:8498   */\n      tag_177\n        /* \"#utility.yul\":8496:8497   */\n      dup4\n        /* \"#utility.yul\":8478:8498   */\n      tag_138\n      jump\t// in\n    tag_177:\n        /* \"#utility.yul\":8473:8498   */\n      swap3\n      pop\n        /* \"#utility.yul\":8666:8667   */\n      dup2\n        /* \"#utility.yul\":8598:8664   */\n      0xffffffffffffffffffffffffffffffffffffffffffffffffffffffffffffffff\n        /* \"#utility.yul\":8594:8668   */\n      div\n        /* \"#utility.yul\":8591:8592   */\n      dup4\n        /* \"#utility.yul\":8588:8669   */\n      gt\n        /* \"#utility.yul\":8583:8584   */\n      dup3\n        /* \"#utility.yul\":8576:8585   */\n      iszero\n        /* \"#utility.yul\":8569:8586   */\n      iszero\n        /* \"#utility.yul\":8565:8670   */\n      and\n        /* \"#utility.yul\":8562:8693   */\n      iszero\n      tag_178\n      jumpi\n        /* \"#utility.yul\":8673:8691   */\n      tag_179\n      tag_174\n      jump\t// in\n    tag_179:\n        /* \"#utility.yul\":8562:8693   */\n    tag_178:\n        /* \"#utility.yul\":8721:8722   */\n      dup3\n        /* \"#utility.yul\":8718:8719   */\n      dup3\n        /* \"#utility.yul\":8714:8723   */\n      mul\n        /* \"#utility.yul\":8703:8723   */\n      swap1\n      pop\n        /* \"#utility.yul\":8381:8729   */\n      swap3\n      swap2\n      pop\n      pop\n      jump\t// out\n        /* \"#utility.yul\":8735:8831   */\n    tag_100:\n        /* \"#utility.yul\":8772:8779   */\n      0x00\n        /* \"#utility.yul\":8801:8825   */\n      tag_181\n        /* \"#utility.yul\":8819:8824   */\n      dup3\n        /* \"#utility.yul\":8801:8825   */\n      tag_182\n      jump\t// in\n    tag_181:\n        /* \"#utility.yul\":8790:8825   */\n      swap1\n      pop\n        /* \"#utility.yul\":8735:8831   */\n      swap2\n      swap1\n      pop\n      jump\t// out\n        /* \"#utility.yul\":8837:8963   */\n    tag_182:\n        /* \"#utility.yul\":8874:8881   */\n      0x00\n        /* \"#utility.yul\":8914:8956   */\n      0xffffffffffffffffffffffffffffffffffffffff\n        /* \"#utility.yul\":8907:8912   */\n      dup3\n        /* \"#utility.yul\":8903:8957   */\n      and\n        /* \"#utility.yul\":8892:8957   */\n      swap1\n      pop\n        /* \"#utility.yul\":8837:8963   */\n      swap2\n      swap1\n      pop\n      jump\t// out\n        /* \"#utility.yul\":8969:9046   */\n    tag_138:\n        /* \"#utility.yul\":9006:9013   */\n      0x00\n        /* \"#utility.yul\":9035:9040   */\n      dup2\n        /* \"#utility.yul\":9024:9040   */\n      swap1\n      pop\n        /* \"#utility.yul\":8969:9046   */\n      swap2\n      swap1\n      pop\n      jump\t// out\n        /* \"#utility.yul\":9052:9206   */\n    tag_69:\n        /* \"#utility.yul\":9136:9142   */\n      dup3\n        /* \"#utility.yul\":9131:9134   */\n      dup2\n        /* \"#utility.yul\":9126:9129   */\n      dup4\n        /* \"#utility.yul\":9113:9143   */\n      calldatacopy\n        /* \"#utility.yul\":9198:9199   */\n      0x00\n        /* \"#utility.yul\":9189:9195   */\n      dup4\n        /* \"#utility.yul\":9184:9187   */\n      dup4\n        /* \"#utility.yul\":9180:9196   */\n      add\n        /* \"#utility.yul\":9173:9200   */\n      mstore\n        /* \"#utility.yul\":9052:9206   */\n      pop\n      pop\n      pop\n      jump\t// out\n        /* \"#utility.yul\":9212:9519   */\n    tag_122:\n        /* \"#utility.yul\":9280:9281   */\n      0x00\n        /* \"#utility.yul\":9290:9403   */\n    tag_187:\n        /* \"#utility.yul\":9304:9310   */\n      dup4\n        /* \"#utility.yul\":9301:9302   */\n      dup2\n        /* \"#utility.yul\":9298:9311   */\n      lt\n        /* \"#utility.yul\":9290:9403   */\n      iszero\n      tag_189\n      jumpi\n        /* \"#utility.yul\":9389:9390   */\n      dup1\n        /* \"#utility.yul\":9384:9387   */\n      dup3\n        /* \"#utility.yul\":9380:9391   */\n      add\n        /* \"#utility.yul\":9374:9392   */\n      mload\n        /* \"#utility.yul\":9370:9371   */\n      dup2\n        /* \"#utility.yul\":9365:9368   */\n      dup5\n        /* \"#utility.yul\":9361:9372   */\n      add\n        /* \"#utility.yul\":9354:9393   */\n      mstore\n        /* \"#utility.yul\":9326:9328   */\n      0x20\n        /* \"#utility.yul\":9323:9324   */\n      dup2\n        /* \"#utility.yul\":9319:9329   */\n      add\n        /* \"#utility.yul\":9314:9329   */\n      swap1\n      pop\n        /* \"#utility.yul\":9290:9403   */\n      jump(tag_187)\n    tag_189:\n        /* \"#utility.yul\":9421:9427   */\n      dup4\n        /* \"#utility.yul\":9418:9419   */\n      dup2\n        /* \"#utility.yul\":9415:9428   */\n      gt\n        /* \"#utility.yul\":9412:9513   */\n      iszero\n      tag_190\n      jumpi\n        /* \"#utility.yul\":9501:9502   */\n      0x00\n        /* \"#utility.yul\":9492:9498   */\n      dup5\n        /* \"#utility.yul\":9487:9490   */\n      dup5\n        /* \"#utility.yul\":9483:9499   */\n      add\n        /* \"#utility.yul\":9476:9503   */\n      mstore\n        /* \"#utility.yul\":9412:9513   */\n    tag_190:\n        /* \"#utility.yul\":9261:9519   */\n      pop\n        /* \"#utility.yul\":9212:9519   */\n      pop\n      pop\n      pop\n      jump\t// out\n        /* \"#utility.yul\":9525:9845   */\n    tag_38:\n        /* \"#utility.yul\":9569:9575   */\n      0x00\n        /* \"#utility.yul\":9606:9607   */\n      0x02\n        /* \"#utility.yul\":9600:9604   */\n      dup3\n        /* \"#utility.yul\":9596:9608   */\n      div\n        /* \"#utility.yul\":9586:9608   */\n      swap1\n      pop\n        /* \"#utility.yul\":9653:9654   */\n      0x01\n        /* \"#utility.yul\":9647:9651   */\n      dup3\n        /* \"#utility.yul\":9643:9655   */\n      and\n        /* \"#utility.yul\":9674:9692   */\n      dup1\n        /* \"#utility.yul\":9664:9745   */\n      tag_192\n      jumpi\n        /* \"#utility.yul\":9730:9734   */\n      0x7f\n        /* \"#utility.yul\":9722:9728   */\n      dup3\n        /* \"#utility.yul\":9718:9735   */\n      and\n        /* \"#utility.yul\":9708:9735   */\n      swap2\n      pop\n        /* \"#utility.yul\":9664:9745   */\n    tag_192:\n        /* \"#utility.yul\":9792:9794   */\n      0x20\n        /* \"#utility.yul\":9784:9790   */\n      dup3\n        /* \"#utility.yul\":9781:9795   */\n      lt\n        /* \"#utility.yul\":9761:9779   */\n      dup2\n        /* \"#utility.yul\":9758:9796   */\n      eq\n        /* \"#utility.yul\":9755:9839   */\n      iszero\n      tag_193\n      jumpi\n        /* \"#utility.yul\":9811:9829   */\n      tag_194\n      tag_195\n      jump\t// in\n    tag_194:\n        /* \"#utility.yul\":9755:9839   */\n    tag_193:\n        /* \"#utility.yul\":9576:9845   */\n      pop\n        /* \"#utility.yul\":9525:9845   */\n      swap2\n      swap1\n      pop\n      jump\t// out\n        /* \"#utility.yul\":9851:10132   */\n    tag_155:\n        /* \"#utility.yul\":9934:9961   */\n      tag_197\n        /* \"#utility.yul\":9956:9960   */\n      dup3\n        /* \"#utility.yul\":9934:9961   */\n      tag_124\n      jump\t// in\n    tag_197:\n        /* \"#utility.yul\":9926:9932   */\n      dup2\n        /* \"#utility.yul\":9922:9962   */\n      add\n        /* \"#utility.yul\":10064:10070   */\n      dup2\n        /* \"#utility.yul\":10052:10062   */\n      dup2\n        /* \"#utility.yul\":10049:10071   */\n      lt\n        /* \"#utility.yul\":10028:10046   */\n      0xffffffffffffffff\n        /* \"#utility.yul\":10016:10026   */\n      dup3\n        /* \"#utility.yul\":10013:10047   */\n      gt\n        /* \"#utility.yul\":10010:10072   */\n      or\n        /* \"#utility.yul\":10007:10095   */\n      iszero\n      tag_198\n      jumpi\n        /* \"#utility.yul\":10075:10093   */\n      tag_199\n      tag_160\n      jump\t// in\n    tag_199:\n        /* \"#utility.yul\":10007:10095   */\n    tag_198:\n        /* \"#utility.yul\":10115:10125   */\n      dup1\n        /* \"#utility.yul\":10111:10113   */\n      0x40\n        /* \"#utility.yul\":10104:10126   */\n      mstore\n        /* \"#utility.yul\":9894:10132   */\n      pop\n        /* \"#utility.yul\":9851:10132   */\n      pop\n      pop\n      jump\t// out\n        /* \"#utility.yul\":10138:10371   */\n    tag_30:\n        /* \"#utility.yul\":10177:10180   */\n      0x00\n        /* \"#utility.yul\":10200:10224   */\n      tag_201\n        /* \"#utility.yul\":10218:10223   */\n      dup3\n        /* \"#utility.yul\":10200:10224   */\n      tag_138\n      jump\t// in\n    tag_201:\n        /* \"#utility.yul\":10191:10224   */\n      swap2\n      pop\n        /* \"#utility.yul\":10246:10312   */\n      0xffffffffffffffffffffffffffffffffffffffffffffffffffffffffffffffff\n        /* \"#utility.yul\":10239:10244   */\n      dup3\n        /* \"#utility.yul\":10236:10313   */\n      eq\n        /* \"#utility.yul\":10233:10336   */\n      iszero\n      tag_202\n      jumpi\n        /* \"#utility.yul\":10316:10334   */\n      tag_203\n      tag_174\n      jump\t// in\n    tag_203:\n        /* \"#utility.yul\":10233:10336   */\n    tag_202:\n        /* \"#utility.yul\":10363:10364   */\n      0x01\n        /* \"#utility.yul\":10356:10361   */\n      dup3\n        /* \"#utility.yul\":10352:10365   */\n      add\n        /* \"#utility.yul\":10345:10365   */\n      swap1\n      pop\n        /* \"#utility.yul\":10138:10371   */\n      swap2\n      swap1\n      pop\n      jump\t// out\n        /* \"#utility.yul\":10377:10557   */\n    tag_174:\n        /* \"#utility.yul\":10425:10502   */\n      0x4e487b7100000000000000000000000000000000000000000000000000000000\n        /* \"#utility.yul\":10422:10423   */\n      0x00\n        /* \"#utility.yul\":10415:10503   */\n      mstore\n        /* \"#utility.yul\":10522:10526   */\n      0x11\n        /* \"#utility.yul\":10519:10520   */\n      0x04\n        /* \"#utility.yul\":10512:10527   */\n      mstore\n        /* \"#utility.yul\":10546:10550   */\n      0x24\n        /* \"#utility.yul\":10543:10544   */\n      0x00\n        /* \"#utility.yul\":10536:10551   */\n      revert\n        /* \"#utility.yul\":10563:10743   */\n    tag_195:\n        /* \"#utility.yul\":10611:10688   */\n      0x4e487b7100000000000000000000000000000000000000000000000000000000\n        /* \"#utility.yul\":10608:10609   */\n      0x00\n        /* \"#utility.yul\":10601:10689   */\n      mstore\n        /* \"#utility.yul\":10708:10712   */\n      0x22\n        /* \"#utility.yul\":10705:10706   */\n      0x04\n        /* \"#utility.yul\":10698:10713   */\n      mstore\n        /* \"#utility.yul\":10732:10736   */\n      0x24\n        /* \"#utility.yul\":10729:10730   */\n      0x00\n        /* \"#utility.yul\":10722:10737   */\n      revert\n        /* \"#utility.yul\":10749:10929   */\n    tag_160:\n        /* \"#utility.yul\":10797:10874   */\n      0x4e487b7100000000000000000000000000000000000000000000000000000000\n        /* \"#utility.yul\":10794:10795   */\n      0x00\n        /* \"#utility.yul\":10787:10875   */\n      mstore\n        /* \"#utility.yul\":10894:10898   */\n      0x41\n        /* \"#utility.yul\":10891:10892   */\n      0x04\n        /* \"#utility.yul\":10884:10899   */\n      mstore\n        /* \"#utility.yul\":10918:10922   */\n      0x24\n        /* \"#utility.yul\":10915:10916   */\n      0x00\n        /* \"#utility.yul\":10908:10923   */\n      revert\n        /* \"#utility.yul\":10935:11052   */\n    tag_74:\n        /* \"#utility.yul\":11044:11045   */\n      0x00\n        /* \"#utility.yul\":11041:11042   */\n      dup1\n        /* \"#utility.yul\":11034:11046   */\n      revert\n        /* \"#utility.yul\":11058:11175   */\n    tag_67:\n        /* \"#utility.yul\":11167:11168   */\n      0x00\n        /* \"#utility.yul\":11164:11165   */\n      dup1\n        /* \"#utility.yul\":11157:11169   */\n      revert\n        /* \"#utility.yul\":11181:11298   */\n    tag_86:\n        /* \"#utility.yul\":11290:11291   */\n      0x00\n        /* \"#utility.yul\":11287:11288   */\n      dup1\n        /* \"#utility.yul\":11280:11292   */\n      revert\n        /* \"#utility.yul\":11304:11421   */\n    tag_83:\n        /* \"#utility.yul\":11413:11414   */\n      0x00\n        /* \"#utility.yul\":11410:11411   */\n      dup1\n        /* \"#utility.yul\":11403:11415   */\n      revert\n        /* \"#utility.yul\":11427:11529   */\n    tag_124:\n        /* \"#utility.yul\":11468:11474   */\n      0x00\n        /* \"#utility.yul\":11519:11521   */\n      0x1f\n        /* \"#utility.yul\":11515:11522   */\n      not\n        /* \"#utility.yul\":11510:11512   */\n      0x1f\n        /* \"#utility.yul\":11503:11508   */\n      dup4\n        /* \"#utility.yul\":11499:11513   */\n      add\n        /* \"#utility.yul\":11495:11523   */\n      and\n        /* \"#utility.yul\":11485:11523   */\n      swap1\n      pop\n        /* \"#utility.yul\":11427:11529   */\n      swap2\n      swap1\n      pop\n      jump\t// out\n        /* \"#utility.yul\":11535:11657   */\n    tag_79:\n        /* \"#utility.yul\":11608:11632   */\n      tag_213\n        /* \"#utility.yul\":11626:11631   */\n      dup2\n        /* \"#utility.yul\":11608:11632   */\n      tag_138\n      jump\t// in\n    tag_213:\n        /* \"#utility.yul\":11601:11606   */\n      dup2\n        /* \"#utility.yul\":11598:11633   */\n      eq\n        /* \"#utility.yul\":11588:11651   */\n      tag_214\n      jumpi\n        /* \"#utility.yul\":11647:11648   */\n      0x00\n        /* \"#utility.yul\":11644:11645   */\n      dup1\n        /* \"#utility.yul\":11637:11649   */\n      revert\n        /* \"#utility.yul\":11588:11651   */\n    tag_214:\n        /* \"#utility.yul\":11535:11657   */\n      pop\n      jump\t// out\n\n    auxdata: 0xa26469706673582212200ee5dd6135ff7c0d689bf9284363d9fd1b2bfff6768e8defca582e8df6f81fca64736f6c63430008070033\n}\n",
				"bytecode": {
					"linkReferences": {},
					"object": "608060405234801561001057600080fd5b50610ab7806100206000396000f3fe608060405234801561001057600080fd5b506004361061004c5760003560e01c80630a3bd50b146100515780632f7467b31461006d5780635e9167901461009d578063de292789146100bb575b600080fd5b61006b600480360381019061006691906104ac565b6100da565b005b61008760048036038101906100829190610508565b610225565b604051610094919061069a565b60405180910390f35b6100a5610258565b6040516100b291906106b5565b60405180910390f35b6100c3610353565b6040516100d19291906106f9565b60405180910390f35b60006040518060400160405280838152602001848152509080600181540180825580915050600190039060005260206000209060020201600090919091909150600082015181600001556020820151816001019080519060200190610140929190610384565b505050336001600083815260200190815260200160002060006101000a81548173ffffffffffffffffffffffffffffffffffffffff021916908373ffffffffffffffffffffffffffffffffffffffff160217905550600260003373ffffffffffffffffffffffffffffffffffffffff1673ffffffffffffffffffffffffffffffffffffffff16815260200190815260200160002060008154809291906101e59061096f565b91905055507f9018649032bdfabe07c5fa8e887df7dda6baf8eac2ef8026b39eebed1fdadeff8260405161021991906106d7565b60405180910390a15050565b60016020528060005260406000206000915054906101000a900473ffffffffffffffffffffffffffffffffffffffff1681565b60606000805480602002602001604051908101604052809291908181526020016000905b8282101561034a5783829060005260206000209060020201604051806040016040529081600082015481526020016001820180546102b99061090c565b80601f01602080910402602001604051908101604052809291908181526020018280546102e59061090c565b80156103325780601f1061030757610100808354040283529160200191610332565b820191906000526020600020905b81548152906001019060200180831161031557829003601f168201915b5050505050815250508152602001906001019061027c565b50505050905090565b600080600060019050600060029050808261036e9190610834565b9350808261037c91906107de565b925050509091565b8280546103909061090c565b90600052602060002090601f0160209004810192826103b257600085556103f9565b82601f106103cb57805160ff19168380011785556103f9565b828001600101855582156103f9579182015b828111156103f85782518255916020019190600101906103dd565b5b509050610406919061040a565b5090565b5b8082111561042357600081600090555060010161040b565b5090565b600061043a61043584610747565b610722565b90508281526020810184848401111561045657610455610a4a565b5b6104618482856108ca565b509392505050565b600082601f83011261047e5761047d610a45565b5b813561048e848260208601610427565b91505092915050565b6000813590506104a681610a6a565b92915050565b600080604083850312156104c3576104c2610a54565b5b600083013567ffffffffffffffff8111156104e1576104e0610a4f565b5b6104ed85828601610469565b92505060206104fe85828601610497565b9150509250929050565b60006020828403121561051e5761051d610a54565b5b600061052c84828501610497565b91505092915050565b6000610541838361063f565b905092915050565b6105528161088e565b82525050565b600061056382610788565b61056d81856107ab565b93508360208202850161057f85610778565b8060005b858110156105bb578484038952815161059c8582610535565b94506105a78361079e565b925060208a01995050600181019050610583565b50829750879550505050505092915050565b60006105d882610793565b6105e281856107bc565b93506105f28185602086016108d9565b6105fb81610a59565b840191505092915050565b600061061182610793565b61061b81856107cd565b935061062b8185602086016108d9565b61063481610a59565b840191505092915050565b6000604083016000830151610657600086018261067c565b506020830151848203602086015261066f82826105cd565b9150508091505092915050565b610685816108c0565b82525050565b610694816108c0565b82525050565b60006020820190506106af6000830184610549565b92915050565b600060208201905081810360008301526106cf8184610558565b905092915050565b600060208201905081810360008301526106f18184610606565b905092915050565b600060408201905061070e600083018561068b565b61071b602083018461068b565b9392505050565b600061072c61073d565b9050610738828261093e565b919050565b6000604051905090565b600067ffffffffffffffff82111561076257610761610a16565b5b61076b82610a59565b9050602081019050919050565b6000819050602082019050919050565b600081519050919050565b600081519050919050565b6000602082019050919050565b600082825260208201905092915050565b600082825260208201905092915050565b600082825260208201905092915050565b60006107e9826108c0565b91506107f4836108c0565b9250827fffffffffffffffffffffffffffffffffffffffffffffffffffffffffffffffff03821115610829576108286109b8565b5b828201905092915050565b600061083f826108c0565b915061084a836108c0565b9250817fffffffffffffffffffffffffffffffffffffffffffffffffffffffffffffffff0483118215151615610883576108826109b8565b5b828202905092915050565b6000610899826108a0565b9050919050565b600073ffffffffffffffffffffffffffffffffffffffff82169050919050565b6000819050919050565b82818337600083830152505050565b60005b838110156108f75780820151818401526020810190506108dc565b83811115610906576000848401525b50505050565b6000600282049050600182168061092457607f821691505b60208210811415610938576109376109e7565b5b50919050565b61094782610a59565b810181811067ffffffffffffffff8211171561096657610965610a16565b5b80604052505050565b600061097a826108c0565b91507fffffffffffffffffffffffffffffffffffffffffffffffffffffffffffffffff8214156109ad576109ac6109b8565b5b600182019050919050565b7f4e487b7100000000000000000000000000000000000000000000000000000000600052601160045260246000fd5b7f4e487b7100000000000000000000000000000000000000000000000000000000600052602260045260246000fd5b7f4e487b7100000000000000000000000000000000000000000000000000000000600052604160045260246000fd5b600080fd5b600080fd5b600080fd5b600080fd5b6000601f19601f8301169050919050565b610a73816108c0565b8114610a7e57600080fd5b5056fea26469706673582212200ee5dd6135ff7c0d689bf9284363d9fd1b2bfff6768e8defca582e8df6f81fca64736f6c63430008070033",
					"opcodes": "PUSH1 0x80 PUSH1 0x40 MSTORE CALLVALUE DUP1 ISZERO PUSH2 0x10 JUMPI PUSH1 0x0 DUP1 REVERT JUMPDEST POP PUSH2 0xAB7 DUP1 PUSH2 0x20 PUSH1 0x0 CODECOPY PUSH1 0x0 RETURN INVALID PUSH1 0x80 PUSH1 0x40 MSTORE CALLVALUE DUP1 ISZERO PUSH2 0x10 JUMPI PUSH1 0x0 DUP1 REVERT JUMPDEST POP PUSH1 0x4 CALLDATASIZE LT PUSH2 0x4C JUMPI PUSH1 0x0 CALLDATALOAD PUSH1 0xE0 SHR DUP1 PUSH4 0xA3BD50B EQ PUSH2 0x51 JUMPI DUP1 PUSH4 0x2F7467B3 EQ PUSH2 0x6D JUMPI DUP1 PUSH4 0x5E916790 EQ PUSH2 0x9D JUMPI DUP1 PUSH4 0xDE292789 EQ PUSH2 0xBB JUMPI JUMPDEST PUSH1 0x0 DUP1 REVERT JUMPDEST PUSH2 0x6B PUSH1 0x4 DUP1 CALLDATASIZE SUB DUP2 ADD SWAP1 PUSH2 0x66 SWAP2 SWAP1 PUSH2 0x4AC JUMP JUMPDEST PUSH2 0xDA JUMP JUMPDEST STOP JUMPDEST PUSH2 0x87 PUSH1 0x4 DUP1 CALLDATASIZE SUB DUP2 ADD SWAP1 PUSH2 0x82 SWAP2 SWAP1 PUSH2 0x508 JUMP JUMPDEST PUSH2 0x225 JUMP JUMPDEST PUSH1 0x40 MLOAD PUSH2 0x94 SWAP2 SWAP1 PUSH2 0x69A JUMP JUMPDEST PUSH1 0x40 MLOAD DUP1 SWAP2 SUB SWAP1 RETURN JUMPDEST PUSH2 0xA5 PUSH2 0x258 JUMP JUMPDEST PUSH1 0x40 MLOAD PUSH2 0xB2 SWAP2 SWAP1 PUSH2 0x6B5 JUMP JUMPDEST PUSH1 0x40 MLOAD DUP1 SWAP2 SUB SWAP1 RETURN JUMPDEST PUSH2 0xC3 PUSH2 0x353 JUMP JUMPDEST PUSH1 0x40 MLOAD PUSH2 0xD1 SWAP3 SWAP2 SWAP1 PUSH2 0x6F9 JUMP JUMPDEST PUSH1 0x40 MLOAD DUP1 SWAP2 SUB SWAP1 RETURN JUMPDEST PUSH1 0x0 PUSH1 0x40 MLOAD DUP1 PUSH1 0x40 ADD PUSH1 0x40 MSTORE DUP1 DUP4 DUP2 MSTORE PUSH1 0x20 ADD DUP5 DUP2 MSTORE POP SWAP1 DUP1 PUSH1 0x1 DUP2 SLOAD ADD DUP1 DUP3 SSTORE DUP1 SWAP2 POP POP PUSH1 0x1 SWAP1 SUB SWAP1 PUSH1 0x0 MSTORE PUSH1 0x20 PUSH1 0x0 KECCAK256 SWAP1 PUSH1 0x2 MUL ADD PUSH1 0x0 SWAP1 SWAP2 SWAP1 SWAP2 SWAP1 SWAP2 POP PUSH1 0x0 DUP3 ADD MLOAD DUP2 PUSH1 0x0 ADD SSTORE PUSH1 0x20 DUP3 ADD MLOAD DUP2 PUSH1 0x1 ADD SWAP1 DUP1 MLOAD SWAP1 PUSH1 0x20 ADD SWAP1 PUSH2 0x140 SWAP3 SWAP2 SWAP1 PUSH2 0x384 JUMP JUMPDEST POP POP POP CALLER PUSH1 0x1 PUSH1 0x0 DUP4 DUP2 MSTORE PUSH1 0x20 ADD SWAP1 DUP2 MSTORE PUSH1 0x20 ADD PUSH1 0x0 KECCAK256 PUSH1 0x0 PUSH2 0x100 EXP DUP2 SLOAD DUP2 PUSH20 0xFFFFFFFFFFFFFFFFFFFFFFFFFFFFFFFFFFFFFFFF MUL NOT AND SWAP1 DUP4 PUSH20 0xFFFFFFFFFFFFFFFFFFFFFFFFFFFFFFFFFFFFFFFF AND MUL OR SWAP1 SSTORE POP PUSH1 0x2 PUSH1 0x0 CALLER PUSH20 0xFFFFFFFFFFFFFFFFFFFFFFFFFFFFFFFFFFFFFFFF AND PUSH20 0xFFFFFFFFFFFFFFFFFFFFFFFFFFFFFFFFFFFFFFFF AND DUP2 MSTORE PUSH1 0x20 ADD SWAP1 DUP2 MSTORE PUSH1 0x20 ADD PUSH1 0x0 KECCAK256 PUSH1 0x0 DUP2 SLOAD DUP1 SWAP3 SWAP2 SWAP1 PUSH2 0x1E5 SWAP1 PUSH2 0x96F JUMP JUMPDEST SWAP2 SWAP1 POP SSTORE POP PUSH32 0x9018649032BDFABE07C5FA8E887DF7DDA6BAF8EAC2EF8026B39EEBED1FDADEFF DUP3 PUSH1 0x40 MLOAD PUSH2 0x219 SWAP2 SWAP1 PUSH2 0x6D7 JUMP JUMPDEST PUSH1 0x40 MLOAD DUP1 SWAP2 SUB SWAP1 LOG1 POP POP JUMP JUMPDEST PUSH1 0x1 PUSH1 0x20 MSTORE DUP1 PUSH1 0x0 MSTORE PUSH1 0x40 PUSH1 0x0 KECCAK256 PUSH1 0x0 SWAP2 POP SLOAD SWAP1 PUSH2 0x100 EXP SWAP1 DIV PUSH20 0xFFFFFFFFFFFFFFFFFFFFFFFFFFFFFFFFFFFFFFFF AND DUP2 JUMP JUMPDEST PUSH1 0x60 PUSH1 0x0 DUP1 SLOAD DUP1 PUSH1 0x20 MUL PUSH1 0x20 ADD PUSH1 0x40 MLOAD SWAP1 DUP2 ADD PUSH1 0x40 MSTORE DUP1 SWAP3 SWAP2 SWAP1 DUP2 DUP2 MSTORE PUSH1 0x20 ADD PUSH1 0x0 SWAP1 JUMPDEST DUP3 DUP3 LT ISZERO PUSH2 0x34A JUMPI DUP4 DUP3 SWAP1 PUSH1 0x0 MSTORE PUSH1 0x20 PUSH1 0x0 KECCAK256 SWAP1 PUSH1 0x2 MUL ADD PUSH1 0x40 MLOAD DUP1 PUSH1 0x40 ADD PUSH1 0x40 MSTORE SWAP1 DUP2 PUSH1 0x0 DUP3 ADD SLOAD DUP2 MSTORE PUSH1 0x20 ADD PUSH1 0x1 DUP3 ADD DUP1 SLOAD PUSH2 0x2B9 SWAP1 PUSH2 0x90C JUMP JUMPDEST DUP1 PUSH1 0x1F ADD PUSH1 0x20 DUP1 SWAP2 DIV MUL PUSH1 0x20 ADD PUSH1 0x40 MLOAD SWAP1 DUP2 ADD PUSH1 0x40 MSTORE DUP1 SWAP3 SWAP2 SWAP1 DUP2 DUP2 MSTORE PUSH1 0x20 ADD DUP3 DUP1 SLOAD PUSH2 0x2E5 SWAP1 PUSH2 0x90C JUMP JUMPDEST DUP1 ISZERO PUSH2 0x332 JUMPI DUP1 PUSH1 0x1F LT PUSH2 0x307 JUMPI PUSH2 0x100 DUP1 DUP4 SLOAD DIV MUL DUP4 MSTORE SWAP2 PUSH1 0x20 ADD SWAP2 PUSH2 0x332 JUMP JUMPDEST DUP3 ADD SWAP2 SWAP1 PUSH1 0x0 MSTORE PUSH1 0x20 PUSH1 0x0 KECCAK256 SWAP1 JUMPDEST DUP2 SLOAD DUP2 MSTORE SWAP1 PUSH1 0x1 ADD SWAP1 PUSH1 0x20 ADD DUP1 DUP4 GT PUSH2 0x315 JUMPI DUP3 SWAP1 SUB PUSH1 0x1F AND DUP3 ADD SWAP2 JUMPDEST POP POP POP POP POP DUP2 MSTORE POP POP DUP2 MSTORE PUSH1 0x20 ADD SWAP1 PUSH1 0x1 ADD SWAP1 PUSH2 0x27C JUMP JUMPDEST POP POP POP POP SWAP1 POP SWAP1 JUMP JUMPDEST PUSH1 0x0 DUP1 PUSH1 0x0 PUSH1 0x1 SWAP1 POP PUSH1 0x0 PUSH1 0x2 SWAP1 POP DUP1 DUP3 PUSH2 0x36E SWAP2 SWAP1 PUSH2 0x834 JUMP JUMPDEST SWAP4 POP DUP1 DUP3 PUSH2 0x37C SWAP2 SWAP1 PUSH2 0x7DE JUMP JUMPDEST SWAP3 POP POP POP SWAP1 SWAP2 JUMP JUMPDEST DUP3 DUP1 SLOAD PUSH2 0x390 SWAP1 PUSH2 0x90C JUMP JUMPDEST SWAP1 PUSH1 0x0 MSTORE PUSH1 0x20 PUSH1 0x0 KECCAK256 SWAP1 PUSH1 0x1F ADD PUSH1 0x20 SWAP1 DIV DUP2 ADD SWAP3 DUP3 PUSH2 0x3B2 JUMPI PUSH1 0x0 DUP6 SSTORE PUSH2 0x3F9 JUMP JUMPDEST DUP3 PUSH1 0x1F LT PUSH2 0x3CB JUMPI DUP1 MLOAD PUSH1 0xFF NOT AND DUP4 DUP1 ADD OR DUP6 SSTORE PUSH2 0x3F9 JUMP JUMPDEST DUP3 DUP1 ADD PUSH1 0x1 ADD DUP6 SSTORE DUP3 ISZERO PUSH2 0x3F9 JUMPI SWAP2 DUP3 ADD JUMPDEST DUP3 DUP2 GT ISZERO PUSH2 0x3F8 JUMPI DUP3 MLOAD DUP3 SSTORE SWAP2 PUSH1 0x20 ADD SWAP2 SWAP1 PUSH1 0x1 ADD SWAP1 PUSH2 0x3DD JUMP JUMPDEST JUMPDEST POP SWAP1 POP PUSH2 0x406 SWAP2 SWAP1 PUSH2 0x40A JUMP JUMPDEST POP SWAP1 JUMP JUMPDEST JUMPDEST DUP1 DUP3 GT ISZERO PUSH2 0x423 JUMPI PUSH1 0x0 DUP2 PUSH1 0x0 SWAP1 SSTORE POP PUSH1 0x1 ADD PUSH2 0x40B JUMP JUMPDEST POP SWAP1 JUMP JUMPDEST PUSH1 0x0 PUSH2 0x43A PUSH2 0x435 DUP5 PUSH2 0x747 JUMP JUMPDEST PUSH2 0x722 JUMP JUMPDEST SWAP1 POP DUP3 DUP2 MSTORE PUSH1 0x20 DUP2 ADD DUP5 DUP5 DUP5 ADD GT ISZERO PUSH2 0x456 JUMPI PUSH2 0x455 PUSH2 0xA4A JUMP JUMPDEST JUMPDEST PUSH2 0x461 DUP5 DUP3 DUP6 PUSH2 0x8CA JUMP JUMPDEST POP SWAP4 SWAP3 POP POP POP JUMP JUMPDEST PUSH1 0x0 DUP3 PUSH1 0x1F DUP4 ADD SLT PUSH2 0x47E JUMPI PUSH2 0x47D PUSH2 0xA45 JUMP JUMPDEST JUMPDEST DUP2 CALLDATALOAD PUSH2 0x48E DUP5 DUP3 PUSH1 0x20 DUP7 ADD PUSH2 0x427 JUMP JUMPDEST SWAP2 POP POP SWAP3 SWAP2 POP POP JUMP JUMPDEST PUSH1 0x0 DUP2 CALLDATALOAD SWAP1 POP PUSH2 0x4A6 DUP2 PUSH2 0xA6A JUMP JUMPDEST SWAP3 SWAP2 POP POP JUMP JUMPDEST PUSH1 0x0 DUP1 PUSH1 0x40 DUP4 DUP6 SUB SLT ISZERO PUSH2 0x4C3 JUMPI PUSH2 0x4C2 PUSH2 0xA54 JUMP JUMPDEST JUMPDEST PUSH1 0x0 DUP4 ADD CALLDATALOAD PUSH8 0xFFFFFFFFFFFFFFFF DUP2 GT ISZERO PUSH2 0x4E1 JUMPI PUSH2 0x4E0 PUSH2 0xA4F JUMP JUMPDEST JUMPDEST PUSH2 0x4ED DUP6 DUP3 DUP7 ADD PUSH2 0x469 JUMP JUMPDEST SWAP3 POP POP PUSH1 0x20 PUSH2 0x4FE DUP6 DUP3 DUP7 ADD PUSH2 0x497 JUMP JUMPDEST SWAP2 POP POP SWAP3 POP SWAP3 SWAP1 POP JUMP JUMPDEST PUSH1 0x0 PUSH1 0x20 DUP3 DUP5 SUB SLT ISZERO PUSH2 0x51E JUMPI PUSH2 0x51D PUSH2 0xA54 JUMP JUMPDEST JUMPDEST PUSH1 0x0 PUSH2 0x52C DUP5 DUP3 DUP6 ADD PUSH2 0x497 JUMP JUMPDEST SWAP2 POP POP SWAP3 SWAP2 POP POP JUMP JUMPDEST PUSH1 0x0 PUSH2 0x541 DUP4 DUP4 PUSH2 0x63F JUMP JUMPDEST SWAP1 POP SWAP3 SWAP2 POP POP JUMP JUMPDEST PUSH2 0x552 DUP2 PUSH2 0x88E JUMP JUMPDEST DUP3 MSTORE POP POP JUMP JUMPDEST PUSH1 0x0 PUSH2 0x563 DUP3 PUSH2 0x788 JUMP JUMPDEST PUSH2 0x56D DUP2 DUP6 PUSH2 0x7AB JUMP JUMPDEST SWAP4 POP DUP4 PUSH1 0x20 DUP3 MUL DUP6 ADD PUSH2 0x57F DUP6 PUSH2 0x778 JUMP JUMPDEST DUP1 PUSH1 0x0 JUMPDEST DUP6 DUP2 LT ISZERO PUSH2 0x5BB JUMPI DUP5 DUP5 SUB DUP10 MSTORE DUP2 MLOAD PUSH2 0x59C DUP6 DUP3 PUSH2 0x535 JUMP JUMPDEST SWAP5 POP PUSH2 0x5A7 DUP4 PUSH2 0x79E JUMP JUMPDEST SWAP3 POP PUSH1 0x20 DUP11 ADD SWAP10 POP POP PUSH1 0x1 DUP2 ADD SWAP1 POP PUSH2 0x583 JUMP JUMPDEST POP DUP3 SWAP8 POP DUP8 SWAP6 POP POP POP POP POP POP SWAP3 SWAP2 POP POP JUMP JUMPDEST PUSH1 0x0 PUSH2 0x5D8 DUP3 PUSH2 0x793 JUMP JUMPDEST PUSH2 0x5E2 DUP2 DUP6 PUSH2 0x7BC JUMP JUMPDEST SWAP4 POP PUSH2 0x5F2 DUP2 DUP6 PUSH1 0x20 DUP7 ADD PUSH2 0x8D9 JUMP JUMPDEST PUSH2 0x5FB DUP2 PUSH2 0xA59 JUMP JUMPDEST DUP5 ADD SWAP2 POP POP SWAP3 SWAP2 POP POP JUMP JUMPDEST PUSH1 0x0 PUSH2 0x611 DUP3 PUSH2 0x793 JUMP JUMPDEST PUSH2 0x61B DUP2 DUP6 PUSH2 0x7CD JUMP JUMPDEST SWAP4 POP PUSH2 0x62B DUP2 DUP6 PUSH1 0x20 DUP7 ADD PUSH2 0x8D9 JUMP JUMPDEST PUSH2 0x634 DUP2 PUSH2 0xA59 JUMP JUMPDEST DUP5 ADD SWAP2 POP POP SWAP3 SWAP2 POP POP JUMP JUMPDEST PUSH1 0x0 PUSH1 0x40 DUP4 ADD PUSH1 0x0 DUP4 ADD MLOAD PUSH2 0x657 PUSH1 0x0 DUP7 ADD DUP3 PUSH2 0x67C JUMP JUMPDEST POP PUSH1 0x20 DUP4 ADD MLOAD DUP5 DUP3 SUB PUSH1 0x20 DUP7 ADD MSTORE PUSH2 0x66F DUP3 DUP3 PUSH2 0x5CD JUMP JUMPDEST SWAP2 POP POP DUP1 SWAP2 POP POP SWAP3 SWAP2 POP POP JUMP JUMPDEST PUSH2 0x685 DUP2 PUSH2 0x8C0 JUMP JUMPDEST DUP3 MSTORE POP POP JUMP JUMPDEST PUSH2 0x694 DUP2 PUSH2 0x8C0 JUMP JUMPDEST DUP3 MSTORE POP POP JUMP JUMPDEST PUSH1 0x0 PUSH1 0x20 DUP3 ADD SWAP1 POP PUSH2 0x6AF PUSH1 0x0 DUP4 ADD DUP5 PUSH2 0x549 JUMP JUMPDEST SWAP3 SWAP2 POP POP JUMP JUMPDEST PUSH1 0x0 PUSH1 0x20 DUP3 ADD SWAP1 POP DUP2 DUP2 SUB PUSH1 0x0 DUP4 ADD MSTORE PUSH2 0x6CF DUP2 DUP5 PUSH2 0x558 JUMP JUMPDEST SWAP1 POP SWAP3 SWAP2 POP POP JUMP JUMPDEST PUSH1 0x0 PUSH1 0x20 DUP3 ADD SWAP1 POP DUP2 DUP2 SUB PUSH1 0x0 DUP4 ADD MSTORE PUSH2 0x6F1 DUP2 DUP5 PUSH2 0x606 JUMP JUMPDEST SWAP1 POP SWAP3 SWAP2 POP POP JUMP JUMPDEST PUSH1 0x0 PUSH1 0x40 DUP3 ADD SWAP1 POP PUSH2 0x70E PUSH1 0x0 DUP4 ADD DUP6 PUSH2 0x68B JUMP JUMPDEST PUSH2 0x71B PUSH1 0x20 DUP4 ADD DUP5 PUSH2 0x68B JUMP JUMPDEST SWAP4 SWAP3 POP POP POP JUMP JUMPDEST PUSH1 0x0 PUSH2 0x72C PUSH2 0x73D JUMP JUMPDEST SWAP1 POP PUSH2 0x738 DUP3 DUP3 PUSH2 0x93E JUMP JUMPDEST SWAP2 SWAP1 POP JUMP JUMPDEST PUSH1 0x0 PUSH1 0x40 MLOAD SWAP1 POP SWAP1 JUMP JUMPDEST PUSH1 0x0 PUSH8 0xFFFFFFFFFFFFFFFF DUP3 GT ISZERO PUSH2 0x762 JUMPI PUSH2 0x761 PUSH2 0xA16 JUMP JUMPDEST JUMPDEST PUSH2 0x76B DUP3 PUSH2 0xA59 JUMP JUMPDEST SWAP1 POP PUSH1 0x20 DUP2 ADD SWAP1 POP SWAP2 SWAP1 POP JUMP JUMPDEST PUSH1 0x0 DUP2 SWAP1 POP PUSH1 0x20 DUP3 ADD SWAP1 POP SWAP2 SWAP1 POP JUMP JUMPDEST PUSH1 0x0 DUP2 MLOAD SWAP1 POP SWAP2 SWAP1 POP JUMP JUMPDEST PUSH1 0x0 DUP2 MLOAD SWAP1 POP SWAP2 SWAP1 POP JUMP JUMPDEST PUSH1 0x0 PUSH1 0x20 DUP3 ADD SWAP1 POP SWAP2 SWAP1 POP JUMP JUMPDEST PUSH1 0x0 DUP3 DUP3 MSTORE PUSH1 0x20 DUP3 ADD SWAP1 POP SWAP3 SWAP2 POP POP JUMP JUMPDEST PUSH1 0x0 DUP3 DUP3 MSTORE PUSH1 0x20 DUP3 ADD SWAP1 POP SWAP3 SWAP2 POP POP JUMP JUMPDEST PUSH1 0x0 DUP3 DUP3 MSTORE PUSH1 0x20 DUP3 ADD SWAP1 POP SWAP3 SWAP2 POP POP JUMP JUMPDEST PUSH1 0x0 PUSH2 0x7E9 DUP3 PUSH2 0x8C0 JUMP JUMPDEST SWAP2 POP PUSH2 0x7F4 DUP4 PUSH2 0x8C0 JUMP JUMPDEST SWAP3 POP DUP3 PUSH32 0xFFFFFFFFFFFFFFFFFFFFFFFFFFFFFFFFFFFFFFFFFFFFFFFFFFFFFFFFFFFFFFFF SUB DUP3 GT ISZERO PUSH2 0x829 JUMPI PUSH2 0x828 PUSH2 0x9B8 JUMP JUMPDEST JUMPDEST DUP3 DUP3 ADD SWAP1 POP SWAP3 SWAP2 POP POP JUMP JUMPDEST PUSH1 0x0 PUSH2 0x83F DUP3 PUSH2 0x8C0 JUMP JUMPDEST SWAP2 POP PUSH2 0x84A DUP4 PUSH2 0x8C0 JUMP JUMPDEST SWAP3 POP DUP2 PUSH32 0xFFFFFFFFFFFFFFFFFFFFFFFFFFFFFFFFFFFFFFFFFFFFFFFFFFFFFFFFFFFFFFFF DIV DUP4 GT DUP3 ISZERO ISZERO AND ISZERO PUSH2 0x883 JUMPI PUSH2 0x882 PUSH2 0x9B8 JUMP JUMPDEST JUMPDEST DUP3 DUP3 MUL SWAP1 POP SWAP3 SWAP2 POP POP JUMP JUMPDEST PUSH1 0x0 PUSH2 0x899 DUP3 PUSH2 0x8A0 JUMP JUMPDEST SWAP1 POP SWAP2 SWAP1 POP JUMP JUMPDEST PUSH1 0x0 PUSH20 0xFFFFFFFFFFFFFFFFFFFFFFFFFFFFFFFFFFFFFFFF DUP3 AND SWAP1 POP SWAP2 SWAP1 POP JUMP JUMPDEST PUSH1 0x0 DUP2 SWAP1 POP SWAP2 SWAP1 POP JUMP JUMPDEST DUP3 DUP2 DUP4 CALLDATACOPY PUSH1 0x0 DUP4 DUP4 ADD MSTORE POP POP POP JUMP JUMPDEST PUSH1 0x0 JUMPDEST DUP4 DUP2 LT ISZERO PUSH2 0x8F7 JUMPI DUP1 DUP3 ADD MLOAD DUP2 DUP5 ADD MSTORE PUSH1 0x20 DUP2 ADD SWAP1 POP PUSH2 0x8DC JUMP JUMPDEST DUP4 DUP2 GT ISZERO PUSH2 0x906 JUMPI PUSH1 0x0 DUP5 DUP5 ADD MSTORE JUMPDEST POP POP POP POP JUMP JUMPDEST PUSH1 0x0 PUSH1 0x2 DUP3 DIV SWAP1 POP PUSH1 0x1 DUP3 AND DUP1 PUSH2 0x924 JUMPI PUSH1 0x7F DUP3 AND SWAP2 POP JUMPDEST PUSH1 0x20 DUP3 LT DUP2 EQ ISZERO PUSH2 0x938 JUMPI PUSH2 0x937 PUSH2 0x9E7 JUMP JUMPDEST JUMPDEST POP SWAP2 SWAP1 POP JUMP JUMPDEST PUSH2 0x947 DUP3 PUSH2 0xA59 JUMP JUMPDEST DUP2 ADD DUP2 DUP2 LT PUSH8 0xFFFFFFFFFFFFFFFF DUP3 GT OR ISZERO PUSH2 0x966 JUMPI PUSH2 0x965 PUSH2 0xA16 JUMP JUMPDEST JUMPDEST DUP1 PUSH1 0x40 MSTORE POP POP POP JUMP JUMPDEST PUSH1 0x0 PUSH2 0x97A DUP3 PUSH2 0x8C0 JUMP JUMPDEST SWAP2 POP PUSH32 0xFFFFFFFFFFFFFFFFFFFFFFFFFFFFFFFFFFFFFFFFFFFFFFFFFFFFFFFFFFFFFFFF DUP3 EQ ISZERO PUSH2 0x9AD JUMPI PUSH2 0x9AC PUSH2 0x9B8 JUMP JUMPDEST JUMPDEST PUSH1 0x1 DUP3 ADD SWAP1 POP SWAP2 SWAP1 POP JUMP JUMPDEST PUSH32 0x4E487B7100000000000000000000000000000000000000000000000000000000 PUSH1 0x0 MSTORE PUSH1 0x11 PUSH1 0x4 MSTORE PUSH1 0x24 PUSH1 0x0 REVERT JUMPDEST PUSH32 0x4E487B7100000000000000000000000000000000000000000000000000000000 PUSH1 0x0 MSTORE PUSH1 0x22 PUSH1 0x4 MSTORE PUSH1 0x24 PUSH1 0x0 REVERT JUMPDEST PUSH32 0x4E487B7100000000000000000000000000000000000000000000000000000000 PUSH1 0x0 MSTORE PUSH1 0x41 PUSH1 0x4 MSTORE PUSH1 0x24 PUSH1 0x0 REVERT JUMPDEST PUSH1 0x0 DUP1 REVERT JUMPDEST PUSH1 0x0 DUP1 REVERT JUMPDEST PUSH1 0x0 DUP1 REVERT JUMPDEST PUSH1 0x0 DUP1 REVERT JUMPDEST PUSH1 0x0 PUSH1 0x1F NOT PUSH1 0x1F DUP4 ADD AND SWAP1 POP SWAP2 SWAP1 POP JUMP JUMPDEST PUSH2 0xA73 DUP2 PUSH2 0x8C0 JUMP JUMPDEST DUP2 EQ PUSH2 0xA7E JUMPI PUSH1 0x0 DUP1 REVERT JUMPDEST POP JUMP INVALID LOG2 PUSH5 0x6970667358 0x22 SLT KECCAK256 0xE 0xE5 0xDD PUSH2 0x35FF PUSH29 0xD689BF9284363D9FD1B2BFFF6768E8DEFCA582E8DF6F81FCA64736F6C PUSH4 0x43000807 STOP CALLER "
				},
				"gasEstimates": {
					"creation": {
						"codeDepositCost": "548600",
						"executionCost": "581",
						"totalCost": "549181"
					},
					"external": {
						"createPokemon(string,uint256)": "infinite",
						"getAllPokemons()": "infinite",
						"getResult()": "infinite",
						"pokemonToOwner(uint256)": "2839"
					}
				},
				"methodIdentifiers": {
					"createPokemon(string,uint256)": "0a3bd50b",
					"getAllPokemons()": "5e916790",
					"getResult()": "de292789",
					"pokemonToOwner(uint256)": "2f7467b3"
				}
			},
			"storageLayout": {
				"storage": [
					{
						"astId": 10,
						"contract": "PokemonFactory.sol:PokemonFactory",
						"label": "pokemons",
						"offset": 0,
						"slot": "0",
						"type": "t_array(t_struct(Pokemon)6_storage)dyn_storage"
					},
					{
						"astId": 14,
						"contract": "PokemonFactory.sol:PokemonFactory",
						"label": "pokemonToOwner",
						"offset": 0,
						"slot": "1",
						"type": "t_mapping(t_uint256,t_address)"
					},
					{
						"astId": 18,
						"contract": "PokemonFactory.sol:PokemonFactory",
						"label": "ownerPokemonCount",
						"offset": 0,
						"slot": "2",
						"type": "t_mapping(t_address,t_uint256)"
					}
				],
				"types": {
					"t_address": {
						"encoding": "inplace",
						"label": "address",
						"numberOfBytes": "20"
					},
					"t_array(t_struct(Pokemon)6_storage)dyn_storage": {
						"base": "t_struct(Pokemon)6_storage",
						"encoding": "dynamic_array",
						"label": "struct PokemonFactory.Pokemon[]",
						"numberOfBytes": "32"
					},
					"t_mapping(t_address,t_uint256)": {
						"encoding": "mapping",
						"key": "t_address",
						"label": "mapping(address => uint256)",
						"numberOfBytes": "32",
						"value": "t_uint256"
					},
					"t_mapping(t_uint256,t_address)": {
						"encoding": "mapping",
						"key": "t_uint256",
						"label": "mapping(uint256 => address)",
						"numberOfBytes": "32",
						"value": "t_address"
					},
					"t_string_storage": {
						"encoding": "bytes",
						"label": "string",
						"numberOfBytes": "32"
					},
					"t_struct(Pokemon)6_storage": {
						"encoding": "inplace",
						"label": "struct PokemonFactory.Pokemon",
						"members": [
							{
								"astId": 3,
								"contract": "PokemonFactory.sol:PokemonFactory",
								"label": "id",
								"offset": 0,
								"slot": "0",
								"type": "t_uint256"
							},
							{
								"astId": 5,
								"contract": "PokemonFactory.sol:PokemonFactory",
								"label": "name",
								"offset": 0,
								"slot": "1",
								"type": "t_string_storage"
							}
						],
						"numberOfBytes": "64"
					},
					"t_uint256": {
						"encoding": "inplace",
						"label": "uint256",
						"numberOfBytes": "32"
					}
				}
			},
			"userdoc": {
				"kind": "user",
				"methods": {},
				"version": 1
			}
		}
	}
}