{"contracts/PokemonFactory.sol":{"PokemonFactory":{"abi":[{"inputs":[],"stateMutability":"nonpayable","type":"constructor"},{"anonymous":false,"inputs":[{"components":[{"internalType":"uint256","name":"id","type":"uint256"},{"internalType":"string","name":"name","type":"string"},{"internalType":"uint16[]","name":"skills","type":"uint16[]"},{"internalType":"uint8[]","name":"types","type":"uint8[]"},{"internalType":"uint8[]","name":"weaknesses","type":"uint8[]"}],"indexed":false,"internalType":"struct PokemonFactory.Pokemon","name":"_pokemon","type":"tuple"}],"name":"eventNewPokemon","type":"event"},{"anonymous":false,"inputs":[{"indexed":false,"internalType":"uint256","name":"_id","type":"uint256"},{"components":[{"internalType":"uint256","name":"id","type":"uint256"},{"internalType":"string","name":"name","type":"string"},{"internalType":"string","name":"description","type":"string"}],"indexed":false,"internalType":"struct PokemonFactory.PokemonSkill","name":"_pokemonSkill","type":"tuple"}],"name":"newPokemosSkill","type":"event"},{"anonymous":false,"inputs":[{"indexed":false,"internalType":"uint256","name":"_id","type":"uint256"},{"components":[{"internalType":"uint256","name":"id","type":"uint256"},{"internalType":"string","name":"name","type":"string"},{"internalType":"string","name":"description","type":"string"}],"indexed":false,"internalType":"struct PokemonFactory.PokemonType","name":"_pokemonType","type":"tuple"}],"name":"newPokemosType","type":"event"},{"inputs":[{"internalType":"string","name":"_name","type":"string"},{"internalType":"uint256","name":"_id","type":"uint256"},{"internalType":"uint16[]","name":"_skills","type":"uint16[]"},{"internalType":"uint8[]","name":"_types","type":"uint8[]"},{"internalType":"uint8[]","name":"_weaknesses","type":"uint8[]"}],"name":"createPokemon","outputs":[],"stateMutability":"nonpayable","type":"function"},{"inputs":[{"internalType":"string","name":"_name","type":"string"},{"internalType":"string","name":"_description","type":"string"}],"name":"createPokemonSkill","outputs":[{"internalType":"uint256","name":"","type":"uint256"}],"stateMutability":"nonpayable","type":"function"},{"inputs":[{"internalType":"string","name":"_name","type":"string"},{"internalType":"string","name":"_description","type":"string"}],"name":"createPokemonType","outputs":[{"internalType":"uint256","name":"","type":"uint256"}],"stateMutability":"nonpayable","type":"function"},{"inputs":[],"name":"getAllPokemons","outputs":[{"components":[{"internalType":"uint256","name":"id","type":"uint256"},{"internalType":"string","name":"name","type":"string"},{"internalType":"uint16[]","name":"skills","type":"uint16[]"},{"internalType":"uint8[]","name":"types","type":"uint8[]"},{"internalType":"uint8[]","name":"weaknesses","type":"uint8[]"}],"internalType":"struct PokemonFactory.Pokemon[]","name":"","type":"tuple[]"}],"stateMutability":"view","type":"function"},{"inputs":[{"internalType":"uint256","name":"","type":"uint256"}],"name":"pokemonSkills","outputs":[{"internalType":"uint256","name":"id","type":"uint256"},{"internalType":"string","name":"name","type":"string"},{"internalType":"string","name":"description","type":"string"}],"stateMutability":"view","type":"function"},{"inputs":[{"internalType":"uint256","name":"","type":"uint256"}],"name":"pokemonToOwner","outputs":[{"internalType":"address","name":"","type":"address"}],"stateMutability":"view","type":"function"},{"inputs":[{"internalType":"uint256","name":"","type":"uint256"}],"name":"pokemonTypes","outputs":[{"internalType":"uint256","name":"id","type":"uint256"},{"internalType":"string","name":"name","type":"string"},{"internalType":"string","name":"description","type":"string"}],"stateMutability":"view","type":"function"},{"inputs":[{"internalType":"uint16[]","name":"_skills","type":"uint16[]"},{"internalType":"uint8[]","name":"_types","type":"uint8[]"},{"internalType":"uint8[]","name":"_weaknesses","type":"uint8[]"}],"name":"verifyPokemon","outputs":[{"internalType":"bool","name":"","type":"bool"}],"stateMutability":"view","type":"function"}],"evm":{"bytecode":{"linkReferences":{},"object":"60806040523480156200001157600080fd5b50620000726040518060400160405280600481526020017f46697265000000000000000000000000000000000000000000000000000000008152506040518060600160405280603f815260200162003822603f91396200050560201b60201c565b50620000d36040518060400160405280600581526020017f57617465720000000000000000000000000000000000000000000000000000008152506040518060800160405280604381526020016200398e604391396200050560201b60201c565b50620001346040518060400160405280600581526020017f47726173730000000000000000000000000000000000000000000000000000008152506040518060600160405280603d81526020016200389b603d91396200050560201b60201c565b50620001956040518060400160405280600881526020017f456c6563747269630000000000000000000000000000000000000000000000008152506040518060600160405280603a815260200162003861603a91396200050560201b60201c565b50620001f66040518060400160405280600381526020017f496365000000000000000000000000000000000000000000000000000000000081525060405180606001604052806040815260200162003ad1604091396200050560201b60201c565b50620002576040518060400160405280600881526020017f4669676874696e67000000000000000000000000000000000000000000000000815250604051806080016040528060468152602001620037a8604691396200050560201b60201c565b50620002b86040518060400160405280600681526020017f5461636b6c6500000000000000000000000000000000000000000000000000008152506040518060800160405280605a815260200162003b11605a91396200068560201b60201c565b50620003196040518060400160405280600581526020017f456d62657200000000000000000000000000000000000000000000000000000081525060405180608001604052806055815260200162003939605591396200068560201b60201c565b506200037a6040518060400160405280600981526020017f56696e652057686970000000000000000000000000000000000000000000000081525060405180608001604052806044815260200162003a8d604491396200068560201b60201c565b50620003db6040518060400160405280600981526020017f57617465722047756e0000000000000000000000000000000000000000000000815250604051806060016040528060348152602001620037ee603491396200068560201b60201c565b506200043c6040518060400160405280600981526020017f54616b6520446f776e00000000000000000000000000000000000000000000008152506040518060a0016040528060668152602001620039d1606691396200068560201b60201c565b506200049d6040518060400160405280600481526020017f426974650000000000000000000000000000000000000000000000000000000081525060405180608001604052806056815260200162003a37605691396200068560201b60201c565b50620004fe6040518060400160405280600c81526020017f466c616d657468726f77657200000000000000000000000000000000000000008152506040518060a0016040528060618152602001620038d8606191396200068560201b60201c565b5062000ec7565b60006002835110156200054f576040517f08c379a000000000000000000000000000000000000000000000000000000000815260040162000546906200088d565b60405180910390fd5b6032600480549050106200059a576040517f08c379a00000000000000000000000000000000000000000000000000000000081526004016200059190620008ff565b60405180910390fd5b60006004805490509050600460405180606001604052808381526020018681526020018581525090806001815401808255809150506001900390600052602060002090600302016000909190919091506000820151816000015560208201518160010190816200060b919062000b9b565b50604082015181600201908162000623919062000b9b565b5050507f6b54179a51d98751b56e9854f101a8bc66580317818848ffe11418b2a070df56816040518060600160405280848152602001878152602001868152506040516200067392919062000d90565b60405180910390a18091505092915050565b6000600283511015620006cf576040517f08c379a0000000000000000000000000000000000000000000000000000000008152600401620006c6906200088d565b60405180910390fd5b6101f4600380549050106200071b576040517f08c379a0000000000000000000000000000000000000000000000000000000008152600401620007129062000e14565b60405180910390fd5b60006003805490509050600360405180606001604052808381526020018681526020018581525090806001815401808255809150506001900390600052602060002090600302016000909190919091506000820151816000015560208201518160010190816200078c919062000b9b565b506040820151816002019081620007a4919062000b9b565b5050507f80e541f486172623665f7d923cf03b7164d42f9823d756f08c19790192be7e1381604051806060016040528084815260200187815260200186815250604051620007f492919062000e93565b60405180910390a18091505092915050565b600082825260208201905092915050565b7f4e616d65206d757374206265206174206c65617374203220636861726163746560008201527f7273206c6f6e6700000000000000000000000000000000000000000000000000602082015250565b60006200087560278362000806565b9150620008828262000817565b604082019050919050565b60006020820190508181036000830152620008a88162000866565b9050919050565b7f4d6178696d756d206e756d626572206f66207479706573207265616368656400600082015250565b6000620008e7601f8362000806565b9150620008f482620008af565b602082019050919050565b600060208201905081810360008301526200091a81620008d8565b9050919050565b600081519050919050565b7f4e487b7100000000000000000000000000000000000000000000000000000000600052604160045260246000fd5b7f4e487b7100000000000000000000000000000000000000000000000000000000600052602260045260246000fd5b60006002820490506001821680620009a357607f821691505b602082108103620009b957620009b86200095b565b5b50919050565b60008190508160005260206000209050919050565b60006020601f8301049050919050565b600082821b905092915050565b60006008830262000a237fffffffffffffffffffffffffffffffffffffffffffffffffffffffffffffffff82620009e4565b62000a2f8683620009e4565b95508019841693508086168417925050509392505050565b6000819050919050565b6000819050919050565b600062000a7c62000a7662000a708462000a47565b62000a51565b62000a47565b9050919050565b6000819050919050565b62000a988362000a5b565b62000ab062000aa78262000a83565b848454620009f1565b825550505050565b600090565b62000ac762000ab8565b62000ad481848462000a8d565b505050565b5b8181101562000afc5762000af060008262000abd565b60018101905062000ada565b5050565b601f82111562000b4b5762000b1581620009bf565b62000b2084620009d4565b8101602085101562000b30578190505b62000b4862000b3f85620009d4565b83018262000ad9565b50505b505050565b600082821c905092915050565b600062000b706000198460080262000b50565b1980831691505092915050565b600062000b8b838362000b5d565b9150826002028217905092915050565b62000ba68262000921565b67ffffffffffffffff81111562000bc25762000bc16200092c565b5b62000bce82546200098a565b62000bdb82828562000b00565b600060209050601f83116001811462000c13576000841562000bfe578287015190505b62000c0a858262000b7d565b86555062000c7a565b601f19841662000c2386620009bf565b60005b8281101562000c4d5784890151825560018201915060208501945060208101905062000c26565b8683101562000c6d578489015162000c69601f89168262000b5d565b8355505b6001600288020188555050505b505050505050565b62000c8d8162000a47565b82525050565b62000c9e8162000a47565b82525050565b600082825260208201905092915050565b60005b8381101562000cd557808201518184015260208101905062000cb8565b60008484015250505050565b6000601f19601f8301169050919050565b600062000cff8262000921565b62000d0b818562000ca4565b935062000d1d81856020860162000cb5565b62000d288162000ce1565b840191505092915050565b600060608301600083015162000d4d600086018262000c93565b506020830151848203602086015262000d67828262000cf2565b9150506040830151848203604086015262000d83828262000cf2565b9150508091505092915050565b600060408201905062000da7600083018562000c82565b818103602083015262000dbb818462000d33565b90509392505050565b7f4d6178696d756d206e756d626572206f6620736b696c6c732072656163686564600082015250565b600062000dfc60208362000806565b915062000e098262000dc4565b602082019050919050565b6000602082019050818103600083015262000e2f8162000ded565b9050919050565b600060608301600083015162000e50600086018262000c93565b506020830151848203602086015262000e6a828262000cf2565b9150506040830151848203604086015262000e86828262000cf2565b9150508091505092915050565b600060408201905062000eaa600083018562000c82565b818103602083015262000ebe818462000e36565b90509392505050565b6128d18062000ed76000396000f3fe608060405234801561001057600080fd5b50600436106100885760003560e01c8063c250736e1161005b578063c250736e14610127578063c8ab830314610159578063d859e91e14610189578063dfce7dc6146101b957610088565b80630ce919061461008d5780632f7467b3146100a957806342dae541146100d95780635e91679014610109575b600080fd5b6100a760048036038101906100a29190611466565b6101eb565b005b6100c360048036038101906100be9190611562565b6107f6565b6040516100d091906115d0565b60405180910390f35b6100f360048036038101906100ee919061172c565b610829565b60405161010091906117b3565b60405180910390f35b61011161099e565b60405161011e9190611b40565b60405180910390f35b610141600480360381019061013c9190611562565b610c15565b60405161015093929190611bac565b60405180910390f35b610173600480360381019061016e919061172c565b610d5f565b60405161018091906117b3565b60405180910390f35b6101a3600480360381019061019e9190611dcf565b610ed3565b6040516101b09190611e91565b60405180910390f35b6101d360048036038101906101ce9190611562565b610f09565b6040516101e293929190611bac565b60405180910390f35b6000871161022e576040517f08c379a000000000000000000000000000000000000000000000000000000000815260040161022590611ef8565b60405180910390fd5b6002898990501015610275576040517f08c379a000000000000000000000000000000000000000000000000000000000815260040161026c90611f8a565b60405180910390fd5b600084849050116102bb576040517f08c379a00000000000000000000000000000000000000000000000000000000081526004016102b29061201c565b60405180910390fd5b60008282905011610301576040517f08c379a00000000000000000000000000000000000000000000000000000000081526004016102f8906120ae565b60405180910390fd5b6103cf868680806020026020016040519081016040528093929190818152602001838360200280828437600081840152601f19601f82011690508083019250505050505050858580806020026020016040519081016040528093929190818152602001838360200280828437600081840152601f19601f82011690508083019250505050505050848480806020026020016040519081016040528093929190818152602001838360200280828437600081840152601f19601f82011690508083019250505050505050610ed3565b61040e576040517f08c379a000000000000000000000000000000000000000000000000000000000815260040161040590612140565b60405180910390fd5b60006040518060a001604052808981526020018b8b8080601f016020809104026020016040519081016040528093929190818152602001838380828437600081840152601f19601f820116905080830192505050505050508152602001888880806020026020016040519081016040528093929190818152602001838360200280828437600081840152601f19601f820116905080830192505050505050508152602001868680806020026020016040519081016040528093929190818152602001838360200280828437600081840152601f19601f820116905080830192505050505050508152602001848480806020026020016040519081016040528093929190818152602001838360200280828437600081840152601f19601f820116905080830192505050505050508152509080600181540180825580915050600190039060005260206000209060050201600090919091909150600082015181600001556020820151816001019081610586919061236c565b5060408201518160020190805190602001906105a392919061119d565b5060608201518160030190805190602001906105c0929190611247565b5060808201518160040190805190602001906105dd929190611247565b505050336001600089815260200190815260200160002060006101000a81548173ffffffffffffffffffffffffffffffffffffffff021916908373ffffffffffffffffffffffffffffffffffffffff160217905550600260003373ffffffffffffffffffffffffffffffffffffffff1673ffffffffffffffffffffffffffffffffffffffff16815260200190815260200160002060008154809291906106829061246d565b91905055507fb10986948ffb7be81da4fbc5ecc25588b81398f5a5e78ebb740668db90c352386040518060a001604052808981526020018b8b8080601f016020809104026020016040519081016040528093929190818152602001838380828437600081840152601f19601f820116905080830192505050505050508152602001888880806020026020016040519081016040528093929190818152602001838360200280828437600081840152601f19601f820116905080830192505050505050508152602001868680806020026020016040519081016040528093929190818152602001838360200280828437600081840152601f19601f820116905080830192505050505050508152602001848480806020026020016040519081016040528093929190818152602001838360200280828437600081840152601f19601f820116905080830192505050505050508152506040516107e39190612540565b60405180910390a1505050505050505050565b60016020528060005260406000206000915054906101000a900473ffffffffffffffffffffffffffffffffffffffff1681565b6000600283511015610870576040517f08c379a000000000000000000000000000000000000000000000000000000000815260040161086790611f8a565b60405180910390fd5b6101f4600380549050106108b9576040517f08c379a00000000000000000000000000000000000000000000000000000000081526004016108b0906125ae565b60405180910390fd5b6000600380549050905060036040518060600160405280838152602001868152602001858152509080600181540180825580915050600190039060005260206000209060030201600090919091909150600082015181600001556020820151816001019081610928919061236c565b50604082015181600201908161093e919061236c565b5050507f80e541f486172623665f7d923cf03b7164d42f9823d756f08c19790192be7e138160405180606001604052808481526020018781526020018681525060405161098c929190612625565b60405180910390a18091505092915050565b60606000805480602002602001604051908101604052809291908181526020016000905b82821015610c0c57838290600052602060002090600502016040518060a0016040529081600082015481526020016001820180546109ff9061218f565b80601f0160208091040260200160405190810160405280929190818152602001828054610a2b9061218f565b8015610a785780601f10610a4d57610100808354040283529160200191610a78565b820191906000526020600020905b815481529060010190602001808311610a5b57829003601f168201915b5050505050815260200160028201805480602002602001604051908101604052809291908181526020018280548015610af857602002820191906000526020600020906000905b82829054906101000a900461ffff1661ffff1681526020019060020190602082600101049283019260010382029150808411610abf5790505b5050505050815260200160038201805480602002602001604051908101604052809291908181526020018280548015610b7657602002820191906000526020600020906000905b82829054906101000a900460ff1660ff1681526020019060010190602082600001049283019260010382029150808411610b3f5790505b5050505050815260200160048201805480602002602001604051908101604052809291908181526020018280548015610bf457602002820191906000526020600020906000905b82829054906101000a900460ff1660ff1681526020019060010190602082600001049283019260010382029150808411610bbd5790505b505050505081525050815260200190600101906109c2565b50505050905090565b60048181548110610c2557600080fd5b9060005260206000209060030201600091509050806000015490806001018054610c4e9061218f565b80601f0160208091040260200160405190810160405280929190818152602001828054610c7a9061218f565b8015610cc75780601f10610c9c57610100808354040283529160200191610cc7565b820191906000526020600020905b815481529060010190602001808311610caa57829003601f168201915b505050505090806002018054610cdc9061218f565b80601f0160208091040260200160405190810160405280929190818152602001828054610d089061218f565b8015610d555780601f10610d2a57610100808354040283529160200191610d55565b820191906000526020600020905b815481529060010190602001808311610d3857829003601f168201915b5050505050905083565b6000600283511015610da6576040517f08c379a0000000000000000000000000000000000000000000000000000000008152600401610d9d90611f8a565b60405180910390fd5b603260048054905010610dee576040517f08c379a0000000000000000000000000000000000000000000000000000000008152600401610de5906126a1565b60405180910390fd5b6000600480549050905060046040518060600160405280838152602001868152602001858152509080600181540180825580915050600190039060005260206000209060030201600090919091909150600082015181600001556020820151816001019081610e5d919061236c565b506040820151816002019081610e73919061236c565b5050507f6b54179a51d98751b56e9854f101a8bc66580317818848ffe11418b2a070df5681604051806060016040528084815260200187815260200186815250604051610ec1929190612718565b60405180910390a18091505092915050565b6000610ede84611053565b8015610eef5750610eee8361113b565b5b8015610f005750610eff8261113b565b5b90509392505050565b60038181548110610f1957600080fd5b9060005260206000209060030201600091509050806000015490806001018054610f429061218f565b80601f0160208091040260200160405190810160405280929190818152602001828054610f6e9061218f565b8015610fbb5780601f10610f9057610100808354040283529160200191610fbb565b820191906000526020600020905b815481529060010190602001808311610f9e57829003601f168201915b505050505090806002018054610fd09061218f565b80601f0160208091040260200160405190810160405280929190818152602001828054610ffc9061218f565b80156110495780601f1061101e57610100808354040283529160200191611049565b820191906000526020600020905b81548152906001019060200180831161102c57829003601f168201915b5050505050905083565b600080825111611098576040517f08c379a000000000000000000000000000000000000000000000000000000000815260040161108f906127ba565b60405180910390fd5b6004825111156110dd576040517f08c379a00000000000000000000000000000000000000000000000000000000081526004016110d49061284c565b60405180910390fd5b60005b8251811015611130576003805490508382815181106111025761110161286c565b5b602002602001015161ffff161061111d576000915050611136565b80806111289061246d565b9150506110e0565b50600190505b919050565b600080600090505b8251811015611192576004805490508382815181106111655761116461286c565b5b602002602001015160ff161061117f576000915050611198565b808061118a9061246d565b915050611143565b50600190505b919050565b82805482825590600052602060002090600f016010900481019282156112365791602002820160005b8382111561120657835183826101000a81548161ffff021916908361ffff16021790555092602001926002016020816001010492830192600103026111c6565b80156112345782816101000a81549061ffff0219169055600201602081600101049283019260010302611206565b505b50905061124391906112ee565b5090565b82805482825590600052602060002090601f016020900481019282156112dd5791602002820160005b838211156112ae57835183826101000a81548160ff021916908360ff1602179055509260200192600101602081600001049283019260010302611270565b80156112db5782816101000a81549060ff02191690556001016020816000010492830192600103026112ae565b505b5090506112ea91906112ee565b5090565b5b808211156113075760008160009055506001016112ef565b5090565b6000604051905090565b600080fd5b600080fd5b600080fd5b600080fd5b600080fd5b60008083601f8401126113445761134361131f565b5b8235905067ffffffffffffffff81111561136157611360611324565b5b60208301915083600182028301111561137d5761137c611329565b5b9250929050565b6000819050919050565b61139781611384565b81146113a257600080fd5b50565b6000813590506113b48161138e565b92915050565b60008083601f8401126113d0576113cf61131f565b5b8235905067ffffffffffffffff8111156113ed576113ec611324565b5b60208301915083602082028301111561140957611408611329565b5b9250929050565b60008083601f8401126114265761142561131f565b5b8235905067ffffffffffffffff81111561144357611442611324565b5b60208301915083602082028301111561145f5761145e611329565b5b9250929050565b600080600080600080600080600060a08a8c03121561148857611487611315565b5b60008a013567ffffffffffffffff8111156114a6576114a561131a565b5b6114b28c828d0161132e565b995099505060206114c58c828d016113a5565b97505060408a013567ffffffffffffffff8111156114e6576114e561131a565b5b6114f28c828d016113ba565b965096505060608a013567ffffffffffffffff8111156115155761151461131a565b5b6115218c828d01611410565b945094505060808a013567ffffffffffffffff8111156115445761154361131a565b5b6115508c828d01611410565b92509250509295985092959850929598565b60006020828403121561157857611577611315565b5b6000611586848285016113a5565b91505092915050565b600073ffffffffffffffffffffffffffffffffffffffff82169050919050565b60006115ba8261158f565b9050919050565b6115ca816115af565b82525050565b60006020820190506115e560008301846115c1565b92915050565b600080fd5b6000601f19601f8301169050919050565b7f4e487b7100000000000000000000000000000000000000000000000000000000600052604160045260246000fd5b611639826115f0565b810181811067ffffffffffffffff8211171561165857611657611601565b5b80604052505050565b600061166b61130b565b90506116778282611630565b919050565b600067ffffffffffffffff82111561169757611696611601565b5b6116a0826115f0565b9050602081019050919050565b82818337600083830152505050565b60006116cf6116ca8461167c565b611661565b9050828152602081018484840111156116eb576116ea6115eb565b5b6116f68482856116ad565b509392505050565b600082601f8301126117135761171261131f565b5b81356117238482602086016116bc565b91505092915050565b6000806040838503121561174357611742611315565b5b600083013567ffffffffffffffff8111156117615761176061131a565b5b61176d858286016116fe565b925050602083013567ffffffffffffffff81111561178e5761178d61131a565b5b61179a858286016116fe565b9150509250929050565b6117ad81611384565b82525050565b60006020820190506117c860008301846117a4565b92915050565b600081519050919050565b600082825260208201905092915050565b6000819050602082019050919050565b61180381611384565b82525050565b600081519050919050565b600082825260208201905092915050565b60005b83811015611843578082015181840152602081019050611828565b60008484015250505050565b600061185a82611809565b6118648185611814565b9350611874818560208601611825565b61187d816115f0565b840191505092915050565b600081519050919050565b600082825260208201905092915050565b6000819050602082019050919050565b600061ffff82169050919050565b6118cb816118b4565b82525050565b60006118dd83836118c2565b60208301905092915050565b6000602082019050919050565b600061190182611888565b61190b8185611893565b9350611916836118a4565b8060005b8381101561194757815161192e88826118d1565b9750611939836118e9565b92505060018101905061191a565b5085935050505092915050565b600081519050919050565b600082825260208201905092915050565b6000819050602082019050919050565b600060ff82169050919050565b61199681611980565b82525050565b60006119a8838361198d565b60208301905092915050565b6000602082019050919050565b60006119cc82611954565b6119d6818561195f565b93506119e183611970565b8060005b83811015611a125781516119f9888261199c565b9750611a04836119b4565b9250506001810190506119e5565b5085935050505092915050565b600060a083016000830151611a3760008601826117fa565b5060208301518482036020860152611a4f828261184f565b91505060408301518482036040860152611a6982826118f6565b91505060608301518482036060860152611a8382826119c1565b91505060808301518482036080860152611a9d82826119c1565b9150508091505092915050565b6000611ab68383611a1f565b905092915050565b6000602082019050919050565b6000611ad6826117ce565b611ae081856117d9565b935083602082028501611af2856117ea565b8060005b85811015611b2e5784840389528151611b0f8582611aaa565b9450611b1a83611abe565b925060208a01995050600181019050611af6565b50829750879550505050505092915050565b60006020820190508181036000830152611b5a8184611acb565b905092915050565b600082825260208201905092915050565b6000611b7e82611809565b611b888185611b62565b9350611b98818560208601611825565b611ba1816115f0565b840191505092915050565b6000606082019050611bc160008301866117a4565b8181036020830152611bd38185611b73565b90508181036040830152611be78184611b73565b9050949350505050565b600067ffffffffffffffff821115611c0c57611c0b611601565b5b602082029050602081019050919050565b611c26816118b4565b8114611c3157600080fd5b50565b600081359050611c4381611c1d565b92915050565b6000611c5c611c5784611bf1565b611661565b90508083825260208201905060208402830185811115611c7f57611c7e611329565b5b835b81811015611ca85780611c948882611c34565b845260208401935050602081019050611c81565b5050509392505050565b600082601f830112611cc757611cc661131f565b5b8135611cd7848260208601611c49565b91505092915050565b600067ffffffffffffffff821115611cfb57611cfa611601565b5b602082029050602081019050919050565b611d1581611980565b8114611d2057600080fd5b50565b600081359050611d3281611d0c565b92915050565b6000611d4b611d4684611ce0565b611661565b90508083825260208201905060208402830185811115611d6e57611d6d611329565b5b835b81811015611d975780611d838882611d23565b845260208401935050602081019050611d70565b5050509392505050565b600082601f830112611db657611db561131f565b5b8135611dc6848260208601611d38565b91505092915050565b600080600060608486031215611de857611de7611315565b5b600084013567ffffffffffffffff811115611e0657611e0561131a565b5b611e1286828701611cb2565b935050602084013567ffffffffffffffff811115611e3357611e3261131a565b5b611e3f86828701611da1565b925050604084013567ffffffffffffffff811115611e6057611e5f61131a565b5b611e6c86828701611da1565b9150509250925092565b60008115159050919050565b611e8b81611e76565b82525050565b6000602082019050611ea66000830184611e82565b92915050565b7f4964206d7573742062652067726561746572207468616e203000000000000000600082015250565b6000611ee2601983611b62565b9150611eed82611eac565b602082019050919050565b60006020820190508181036000830152611f1181611ed5565b9050919050565b7f4e616d65206d757374206265206174206c65617374203220636861726163746560008201527f7273206c6f6e6700000000000000000000000000000000000000000000000000602082015250565b6000611f74602783611b62565b9150611f7f82611f18565b604082019050919050565b60006020820190508181036000830152611fa381611f67565b9050919050565b7f506f6b656d6f6e206d7573742068617665206174206c65617374206f6e65207460008201527f7970650000000000000000000000000000000000000000000000000000000000602082015250565b6000612006602383611b62565b915061201182611faa565b604082019050919050565b6000602082019050818103600083015261203581611ff9565b9050919050565b7f506f6b656d6f6e206d7573742068617665206174206c65617374206f6e65207760008201527f65616b6e65737300000000000000000000000000000000000000000000000000602082015250565b6000612098602783611b62565b91506120a38261203c565b604082019050919050565b600060208201905081810360008301526120c78161208b565b9050919050565b7f506f6b656d6f6e20736b696c6c732c20747970657320616e64207765616b6e6560008201527f73736573206d7573742062652076616c69640000000000000000000000000000602082015250565b600061212a603283611b62565b9150612135826120ce565b604082019050919050565b600060208201905081810360008301526121598161211d565b9050919050565b7f4e487b7100000000000000000000000000000000000000000000000000000000600052602260045260246000fd5b600060028204905060018216806121a757607f821691505b6020821081036121ba576121b9612160565b5b50919050565b60008190508160005260206000209050919050565b60006020601f8301049050919050565b600082821b905092915050565b6000600883026122227fffffffffffffffffffffffffffffffffffffffffffffffffffffffffffffffff826121e5565b61222c86836121e5565b95508019841693508086168417925050509392505050565b6000819050919050565b600061226961226461225f84611384565b612244565b611384565b9050919050565b6000819050919050565b6122838361224e565b61229761228f82612270565b8484546121f2565b825550505050565b600090565b6122ac61229f565b6122b781848461227a565b505050565b5b818110156122db576122d06000826122a4565b6001810190506122bd565b5050565b601f821115612320576122f1816121c0565b6122fa846121d5565b81016020851015612309578190505b61231d612315856121d5565b8301826122bc565b50505b505050565b600082821c905092915050565b600061234360001984600802612325565b1980831691505092915050565b600061235c8383612332565b9150826002028217905092915050565b61237582611809565b67ffffffffffffffff81111561238e5761238d611601565b5b612398825461218f565b6123a38282856122df565b600060209050601f8311600181146123d657600084156123c4578287015190505b6123ce8582612350565b865550612436565b601f1984166123e4866121c0565b60005b8281101561240c578489015182556001820191506020850194506020810190506123e7565b868310156124295784890151612425601f891682612332565b8355505b6001600288020188555050505b505050505050565b7f4e487b7100000000000000000000000000000000000000000000000000000000600052601160045260246000fd5b600061247882611384565b91507fffffffffffffffffffffffffffffffffffffffffffffffffffffffffffffffff82036124aa576124a961243e565b5b600182019050919050565b600060a0830160008301516124cd60008601826117fa565b50602083015184820360208601526124e5828261184f565b915050604083015184820360408601526124ff82826118f6565b9150506060830151848203606086015261251982826119c1565b9150506080830151848203608086015261253382826119c1565b9150508091505092915050565b6000602082019050818103600083015261255a81846124b5565b905092915050565b7f4d6178696d756d206e756d626572206f6620736b696c6c732072656163686564600082015250565b6000612598602083611b62565b91506125a382612562565b602082019050919050565b600060208201905081810360008301526125c78161258b565b9050919050565b60006060830160008301516125e660008601826117fa565b50602083015184820360208601526125fe828261184f565b91505060408301518482036040860152612618828261184f565b9150508091505092915050565b600060408201905061263a60008301856117a4565b818103602083015261264c81846125ce565b90509392505050565b7f4d6178696d756d206e756d626572206f66207479706573207265616368656400600082015250565b600061268b601f83611b62565b915061269682612655565b602082019050919050565b600060208201905081810360008301526126ba8161267e565b9050919050565b60006060830160008301516126d960008601826117fa565b50602083015184820360208601526126f1828261184f565b9150506040830151848203604086015261270b828261184f565b9150508091505092915050565b600060408201905061272d60008301856117a4565b818103602083015261273f81846126c1565b90509392505050565b7f506f6b656d6f6e206d7573742068617665206174206c65617374206f6e65207360008201527f6b696c6c00000000000000000000000000000000000000000000000000000000602082015250565b60006127a4602483611b62565b91506127af82612748565b604082019050919050565b600060208201905081810360008301526127d381612797565b9050919050565b7f506f6b656d6f6e206d7573742068617665206174206d6f7374203420736b696c60008201527f6c73000000000000000000000000000000000000000000000000000000000000602082015250565b6000612836602283611b62565b9150612841826127da565b604082019050919050565b6000602082019050818103600083015261286581612829565b9050919050565b7f4e487b7100000000000000000000000000000000000000000000000000000000600052603260045260246000fdfea2646970667358221220e6b393d255817739655d07b8e1625d38656c2234ca14702e618355d152e7b9b864736f6c634300081200334669676874696e67207479706520706f6b656d6f6e20617265207765616b20616761696e737420666c79696e6720616e642070737963686963207479706520706f6b656d6f6e5468652074617267657420697320626c61737465642077697468206120666f72636566756c2073686f74206f662077617465722e46697265207479706520706f6b656d6f6e20617265207765616b20616761696e737420776174657220616e64206772617373207479706520706f6b656d6f6e456c656374726963207479706520706f6b656d6f6e20617265207765616b20616761696e73742067726f756e64207479706520706f6b656d6f6e4772617373207479706520706f6b656d6f6e20617265207765616b20616761696e7374206669726520616e6420696365207479706520706f6b656d6f6e546865207461726765742069732073636f7263686564207769746820616e20696e74656e736520626c617374206f6620666972652e2054686973206d617920616c736f206c65617665207468652074617267657420776974682061206275726e2e546865207461726765742069732061747461636b6564207769746820736d616c6c20666c616d65732e2054686973206d617920616c736f206c65617665207468652074617267657420776974682061206275726e2e5761746572207479706520706f6b656d6f6e20617265207765616b20616761696e737420677261737320616e6420656c656374726963207479706520706f6b656d6f6e41207265636b6c6573732c2066756c6c2d626f6479206368617267652061747461636b20666f7220736c616d6d696e6720696e746f20746865207461726765742e205468697320616c736f2064616d616765732074686520757365722061206c6974746c652e546865207461726765742069732062697474656e207769746820766963696f75736c792073686172702066616e67732e2054686973206d617920616c736f206d616b65207468652074617267657420666c696e63682e546865207461726765742069732073747275636b207769746820736c656e6465722c20776869706c696b652076696e657320746f20696e666c6963742064616d6167652e496365207479706520706f6b656d6f6e20617265207765616b20616761696e7374206669726520616e64206669676874696e67207479706520706f6b656d6f6e4120706879736963616c2061747461636b20696e207768696368207468652075736572206368617267657320616e6420736c616d7320696e746f20746865207461726765742077697468206974732077686f6c6520626f64792e","opcodes":"PUSH1 0x80 PUSH1 0x40 MSTORE CALLVALUE DUP1 ISZERO PUSH3 0x11 JUMPI PUSH1 0x0 DUP1 REVERT JUMPDEST POP PUSH3 0x72 PUSH1 0x40 MLOAD DUP1 PUSH1 0x40 ADD PUSH1 0x40 MSTORE DUP1 PUSH1 0x4 DUP2 MSTORE PUSH1 0x20 ADD PUSH32 0x4669726500000000000000000000000000000000000000000000000000000000 DUP2 MSTORE POP PUSH1 0x40 MLOAD DUP1 PUSH1 0x60 ADD PUSH1 0x40 MSTORE DUP1 PUSH1 0x3F DUP2 MSTORE PUSH1 0x20 ADD PUSH3 0x3822 PUSH1 0x3F SWAP2 CODECOPY PUSH3 0x505 PUSH1 0x20 SHL PUSH1 0x20 SHR JUMP JUMPDEST POP PUSH3 0xD3 PUSH1 0x40 MLOAD DUP1 PUSH1 0x40 ADD PUSH1 0x40 MSTORE DUP1 PUSH1 0x5 DUP2 MSTORE PUSH1 0x20 ADD PUSH32 0x5761746572000000000000000000000000000000000000000000000000000000 DUP2 MSTORE POP PUSH1 0x40 MLOAD DUP1 PUSH1 0x80 ADD PUSH1 0x40 MSTORE DUP1 PUSH1 0x43 DUP2 MSTORE PUSH1 0x20 ADD PUSH3 0x398E PUSH1 0x43 SWAP2 CODECOPY PUSH3 0x505 PUSH1 0x20 SHL PUSH1 0x20 SHR JUMP JUMPDEST POP PUSH3 0x134 PUSH1 0x40 MLOAD DUP1 PUSH1 0x40 ADD PUSH1 0x40 MSTORE DUP1 PUSH1 0x5 DUP2 MSTORE PUSH1 0x20 ADD PUSH32 0x4772617373000000000000000000000000000000000000000000000000000000 DUP2 MSTORE POP PUSH1 0x40 MLOAD DUP1 PUSH1 0x60 ADD PUSH1 0x40 MSTORE DUP1 PUSH1 0x3D DUP2 MSTORE PUSH1 0x20 ADD PUSH3 0x389B PUSH1 0x3D SWAP2 CODECOPY PUSH3 0x505 PUSH1 0x20 SHL PUSH1 0x20 SHR JUMP JUMPDEST POP PUSH3 0x195 PUSH1 0x40 MLOAD DUP1 PUSH1 0x40 ADD PUSH1 0x40 MSTORE DUP1 PUSH1 0x8 DUP2 MSTORE PUSH1 0x20 ADD PUSH32 0x456C656374726963000000000000000000000000000000000000000000000000 DUP2 MSTORE POP PUSH1 0x40 MLOAD DUP1 PUSH1 0x60 ADD PUSH1 0x40 MSTORE DUP1 PUSH1 0x3A DUP2 MSTORE PUSH1 0x20 ADD PUSH3 0x3861 PUSH1 0x3A SWAP2 CODECOPY PUSH3 0x505 PUSH1 0x20 SHL PUSH1 0x20 SHR JUMP JUMPDEST POP PUSH3 0x1F6 PUSH1 0x40 MLOAD DUP1 PUSH1 0x40 ADD PUSH1 0x40 MSTORE DUP1 PUSH1 0x3 DUP2 MSTORE PUSH1 0x20 ADD PUSH32 0x4963650000000000000000000000000000000000000000000000000000000000 DUP2 MSTORE POP PUSH1 0x40 MLOAD DUP1 PUSH1 0x60 ADD PUSH1 0x40 MSTORE DUP1 PUSH1 0x40 DUP2 MSTORE PUSH1 0x20 ADD PUSH3 0x3AD1 PUSH1 0x40 SWAP2 CODECOPY PUSH3 0x505 PUSH1 0x20 SHL PUSH1 0x20 SHR JUMP JUMPDEST POP PUSH3 0x257 PUSH1 0x40 MLOAD DUP1 PUSH1 0x40 ADD PUSH1 0x40 MSTORE DUP1 PUSH1 0x8 DUP2 MSTORE PUSH1 0x20 ADD PUSH32 0x4669676874696E67000000000000000000000000000000000000000000000000 DUP2 MSTORE POP PUSH1 0x40 MLOAD DUP1 PUSH1 0x80 ADD PUSH1 0x40 MSTORE DUP1 PUSH1 0x46 DUP2 MSTORE PUSH1 0x20 ADD PUSH3 0x37A8 PUSH1 0x46 SWAP2 CODECOPY PUSH3 0x505 PUSH1 0x20 SHL PUSH1 0x20 SHR JUMP JUMPDEST POP PUSH3 0x2B8 PUSH1 0x40 MLOAD DUP1 PUSH1 0x40 ADD PUSH1 0x40 MSTORE DUP1 PUSH1 0x6 DUP2 MSTORE PUSH1 0x20 ADD PUSH32 0x5461636B6C650000000000000000000000000000000000000000000000000000 DUP2 MSTORE POP PUSH1 0x40 MLOAD DUP1 PUSH1 0x80 ADD PUSH1 0x40 MSTORE DUP1 PUSH1 0x5A DUP2 MSTORE PUSH1 0x20 ADD PUSH3 0x3B11 PUSH1 0x5A SWAP2 CODECOPY PUSH3 0x685 PUSH1 0x20 SHL PUSH1 0x20 SHR JUMP JUMPDEST POP PUSH3 0x319 PUSH1 0x40 MLOAD DUP1 PUSH1 0x40 ADD PUSH1 0x40 MSTORE DUP1 PUSH1 0x5 DUP2 MSTORE PUSH1 0x20 ADD PUSH32 0x456D626572000000000000000000000000000000000000000000000000000000 DUP2 MSTORE POP PUSH1 0x40 MLOAD DUP1 PUSH1 0x80 ADD PUSH1 0x40 MSTORE DUP1 PUSH1 0x55 DUP2 MSTORE PUSH1 0x20 ADD PUSH3 0x3939 PUSH1 0x55 SWAP2 CODECOPY PUSH3 0x685 PUSH1 0x20 SHL PUSH1 0x20 SHR JUMP JUMPDEST POP PUSH3 0x37A PUSH1 0x40 MLOAD DUP1 PUSH1 0x40 ADD PUSH1 0x40 MSTORE DUP1 PUSH1 0x9 DUP2 MSTORE PUSH1 0x20 ADD PUSH32 0x56696E6520576869700000000000000000000000000000000000000000000000 DUP2 MSTORE POP PUSH1 0x40 MLOAD DUP1 PUSH1 0x80 ADD PUSH1 0x40 MSTORE DUP1 PUSH1 0x44 DUP2 MSTORE PUSH1 0x20 ADD PUSH3 0x3A8D PUSH1 0x44 SWAP2 CODECOPY PUSH3 0x685 PUSH1 0x20 SHL PUSH1 0x20 SHR JUMP JUMPDEST POP PUSH3 0x3DB PUSH1 0x40 MLOAD DUP1 PUSH1 0x40 ADD PUSH1 0x40 MSTORE DUP1 PUSH1 0x9 DUP2 MSTORE PUSH1 0x20 ADD PUSH32 0x57617465722047756E0000000000000000000000000000000000000000000000 DUP2 MSTORE POP PUSH1 0x40 MLOAD DUP1 PUSH1 0x60 ADD PUSH1 0x40 MSTORE DUP1 PUSH1 0x34 DUP2 MSTORE PUSH1 0x20 ADD PUSH3 0x37EE PUSH1 0x34 SWAP2 CODECOPY PUSH3 0x685 PUSH1 0x20 SHL PUSH1 0x20 SHR JUMP JUMPDEST POP PUSH3 0x43C PUSH1 0x40 MLOAD DUP1 PUSH1 0x40 ADD PUSH1 0x40 MSTORE DUP1 PUSH1 0x9 DUP2 MSTORE PUSH1 0x20 ADD PUSH32 0x54616B6520446F776E0000000000000000000000000000000000000000000000 DUP2 MSTORE POP PUSH1 0x40 MLOAD DUP1 PUSH1 0xA0 ADD PUSH1 0x40 MSTORE DUP1 PUSH1 0x66 DUP2 MSTORE PUSH1 0x20 ADD PUSH3 0x39D1 PUSH1 0x66 SWAP2 CODECOPY PUSH3 0x685 PUSH1 0x20 SHL PUSH1 0x20 SHR JUMP JUMPDEST POP PUSH3 0x49D PUSH1 0x40 MLOAD DUP1 PUSH1 0x40 ADD PUSH1 0x40 MSTORE DUP1 PUSH1 0x4 DUP2 MSTORE PUSH1 0x20 ADD PUSH32 0x4269746500000000000000000000000000000000000000000000000000000000 DUP2 MSTORE POP PUSH1 0x40 MLOAD DUP1 PUSH1 0x80 ADD PUSH1 0x40 MSTORE DUP1 PUSH1 0x56 DUP2 MSTORE PUSH1 0x20 ADD PUSH3 0x3A37 PUSH1 0x56 SWAP2 CODECOPY PUSH3 0x685 PUSH1 0x20 SHL PUSH1 0x20 SHR JUMP JUMPDEST POP PUSH3 0x4FE PUSH1 0x40 MLOAD DUP1 PUSH1 0x40 ADD PUSH1 0x40 MSTORE DUP1 PUSH1 0xC DUP2 MSTORE PUSH1 0x20 ADD PUSH32 0x466C616D657468726F7765720000000000000000000000000000000000000000 DUP2 MSTORE POP PUSH1 0x40 MLOAD DUP1 PUSH1 0xA0 ADD PUSH1 0x40 MSTORE DUP1 PUSH1 0x61 DUP2 MSTORE PUSH1 0x20 ADD PUSH3 0x38D8 PUSH1 0x61 SWAP2 CODECOPY PUSH3 0x685 PUSH1 0x20 SHL PUSH1 0x20 SHR JUMP JUMPDEST POP PUSH3 0xEC7 JUMP JUMPDEST PUSH1 0x0 PUSH1 0x2 DUP4 MLOAD LT ISZERO PUSH3 0x54F JUMPI PUSH1 0x40 MLOAD PUSH32 0x8C379A000000000000000000000000000000000000000000000000000000000 DUP2 MSTORE PUSH1 0x4 ADD PUSH3 0x546 SWAP1 PUSH3 0x88D JUMP JUMPDEST PUSH1 0x40 MLOAD DUP1 SWAP2 SUB SWAP1 REVERT JUMPDEST PUSH1 0x32 PUSH1 0x4 DUP1 SLOAD SWAP1 POP LT PUSH3 0x59A JUMPI PUSH1 0x40 MLOAD PUSH32 0x8C379A000000000000000000000000000000000000000000000000000000000 DUP2 MSTORE PUSH1 0x4 ADD PUSH3 0x591 SWAP1 PUSH3 0x8FF JUMP JUMPDEST PUSH1 0x40 MLOAD DUP1 SWAP2 SUB SWAP1 REVERT JUMPDEST PUSH1 0x0 PUSH1 0x4 DUP1 SLOAD SWAP1 POP SWAP1 POP PUSH1 0x4 PUSH1 0x40 MLOAD DUP1 PUSH1 0x60 ADD PUSH1 0x40 MSTORE DUP1 DUP4 DUP2 MSTORE PUSH1 0x20 ADD DUP7 DUP2 MSTORE PUSH1 0x20 ADD DUP6 DUP2 MSTORE POP SWAP1 DUP1 PUSH1 0x1 DUP2 SLOAD ADD DUP1 DUP3 SSTORE DUP1 SWAP2 POP POP PUSH1 0x1 SWAP1 SUB SWAP1 PUSH1 0x0 MSTORE PUSH1 0x20 PUSH1 0x0 KECCAK256 SWAP1 PUSH1 0x3 MUL ADD PUSH1 0x0 SWAP1 SWAP2 SWAP1 SWAP2 SWAP1 SWAP2 POP PUSH1 0x0 DUP3 ADD MLOAD DUP2 PUSH1 0x0 ADD SSTORE PUSH1 0x20 DUP3 ADD MLOAD DUP2 PUSH1 0x1 ADD SWAP1 DUP2 PUSH3 0x60B SWAP2 SWAP1 PUSH3 0xB9B JUMP JUMPDEST POP PUSH1 0x40 DUP3 ADD MLOAD DUP2 PUSH1 0x2 ADD SWAP1 DUP2 PUSH3 0x623 SWAP2 SWAP1 PUSH3 0xB9B JUMP JUMPDEST POP POP POP PUSH32 0x6B54179A51D98751B56E9854F101A8BC66580317818848FFE11418B2A070DF56 DUP2 PUSH1 0x40 MLOAD DUP1 PUSH1 0x60 ADD PUSH1 0x40 MSTORE DUP1 DUP5 DUP2 MSTORE PUSH1 0x20 ADD DUP8 DUP2 MSTORE PUSH1 0x20 ADD DUP7 DUP2 MSTORE POP PUSH1 0x40 MLOAD PUSH3 0x673 SWAP3 SWAP2 SWAP1 PUSH3 0xD90 JUMP JUMPDEST PUSH1 0x40 MLOAD DUP1 SWAP2 SUB SWAP1 LOG1 DUP1 SWAP2 POP POP SWAP3 SWAP2 POP POP JUMP JUMPDEST PUSH1 0x0 PUSH1 0x2 DUP4 MLOAD LT ISZERO PUSH3 0x6CF JUMPI PUSH1 0x40 MLOAD PUSH32 0x8C379A000000000000000000000000000000000000000000000000000000000 DUP2 MSTORE PUSH1 0x4 ADD PUSH3 0x6C6 SWAP1 PUSH3 0x88D JUMP JUMPDEST PUSH1 0x40 MLOAD DUP1 SWAP2 SUB SWAP1 REVERT JUMPDEST PUSH2 0x1F4 PUSH1 0x3 DUP1 SLOAD SWAP1 POP LT PUSH3 0x71B JUMPI PUSH1 0x40 MLOAD PUSH32 0x8C379A000000000000000000000000000000000000000000000000000000000 DUP2 MSTORE PUSH1 0x4 ADD PUSH3 0x712 SWAP1 PUSH3 0xE14 JUMP JUMPDEST PUSH1 0x40 MLOAD DUP1 SWAP2 SUB SWAP1 REVERT JUMPDEST PUSH1 0x0 PUSH1 0x3 DUP1 SLOAD SWAP1 POP SWAP1 POP PUSH1 0x3 PUSH1 0x40 MLOAD DUP1 PUSH1 0x60 ADD PUSH1 0x40 MSTORE DUP1 DUP4 DUP2 MSTORE PUSH1 0x20 ADD DUP7 DUP2 MSTORE PUSH1 0x20 ADD DUP6 DUP2 MSTORE POP SWAP1 DUP1 PUSH1 0x1 DUP2 SLOAD ADD DUP1 DUP3 SSTORE DUP1 SWAP2 POP POP PUSH1 0x1 SWAP1 SUB SWAP1 PUSH1 0x0 MSTORE PUSH1 0x20 PUSH1 0x0 KECCAK256 SWAP1 PUSH1 0x3 MUL ADD PUSH1 0x0 SWAP1 SWAP2 SWAP1 SWAP2 SWAP1 SWAP2 POP PUSH1 0x0 DUP3 ADD MLOAD DUP2 PUSH1 0x0 ADD SSTORE PUSH1 0x20 DUP3 ADD MLOAD DUP2 PUSH1 0x1 ADD SWAP1 DUP2 PUSH3 0x78C SWAP2 SWAP1 PUSH3 0xB9B JUMP JUMPDEST POP PUSH1 0x40 DUP3 ADD MLOAD DUP2 PUSH1 0x2 ADD SWAP1 DUP2 PUSH3 0x7A4 SWAP2 SWAP1 PUSH3 0xB9B JUMP JUMPDEST POP POP POP PUSH32 0x80E541F486172623665F7D923CF03B7164D42F9823D756F08C19790192BE7E13 DUP2 PUSH1 0x40 MLOAD DUP1 PUSH1 0x60 ADD PUSH1 0x40 MSTORE DUP1 DUP5 DUP2 MSTORE PUSH1 0x20 ADD DUP8 DUP2 MSTORE PUSH1 0x20 ADD DUP7 DUP2 MSTORE POP PUSH1 0x40 MLOAD PUSH3 0x7F4 SWAP3 SWAP2 SWAP1 PUSH3 0xE93 JUMP JUMPDEST PUSH1 0x40 MLOAD DUP1 SWAP2 SUB SWAP1 LOG1 DUP1 SWAP2 POP POP SWAP3 SWAP2 POP POP JUMP JUMPDEST PUSH1 0x0 DUP3 DUP3 MSTORE PUSH1 0x20 DUP3 ADD SWAP1 POP SWAP3 SWAP2 POP POP JUMP JUMPDEST PUSH32 0x4E616D65206D757374206265206174206C656173742032206368617261637465 PUSH1 0x0 DUP3 ADD MSTORE PUSH32 0x7273206C6F6E6700000000000000000000000000000000000000000000000000 PUSH1 0x20 DUP3 ADD MSTORE POP JUMP JUMPDEST PUSH1 0x0 PUSH3 0x875 PUSH1 0x27 DUP4 PUSH3 0x806 JUMP JUMPDEST SWAP2 POP PUSH3 0x882 DUP3 PUSH3 0x817 JUMP JUMPDEST PUSH1 0x40 DUP3 ADD SWAP1 POP SWAP2 SWAP1 POP JUMP JUMPDEST PUSH1 0x0 PUSH1 0x20 DUP3 ADD SWAP1 POP DUP2 DUP2 SUB PUSH1 0x0 DUP4 ADD MSTORE PUSH3 0x8A8 DUP2 PUSH3 0x866 JUMP JUMPDEST SWAP1 POP SWAP2 SWAP1 POP JUMP JUMPDEST PUSH32 0x4D6178696D756D206E756D626572206F66207479706573207265616368656400 PUSH1 0x0 DUP3 ADD MSTORE POP JUMP JUMPDEST PUSH1 0x0 PUSH3 0x8E7 PUSH1 0x1F DUP4 PUSH3 0x806 JUMP JUMPDEST SWAP2 POP PUSH3 0x8F4 DUP3 PUSH3 0x8AF JUMP JUMPDEST PUSH1 0x20 DUP3 ADD SWAP1 POP SWAP2 SWAP1 POP JUMP JUMPDEST PUSH1 0x0 PUSH1 0x20 DUP3 ADD SWAP1 POP DUP2 DUP2 SUB PUSH1 0x0 DUP4 ADD MSTORE PUSH3 0x91A DUP2 PUSH3 0x8D8 JUMP JUMPDEST SWAP1 POP SWAP2 SWAP1 POP JUMP JUMPDEST PUSH1 0x0 DUP2 MLOAD SWAP1 POP SWAP2 SWAP1 POP JUMP JUMPDEST PUSH32 0x4E487B7100000000000000000000000000000000000000000000000000000000 PUSH1 0x0 MSTORE PUSH1 0x41 PUSH1 0x4 MSTORE PUSH1 0x24 PUSH1 0x0 REVERT JUMPDEST PUSH32 0x4E487B7100000000000000000000000000000000000000000000000000000000 PUSH1 0x0 MSTORE PUSH1 0x22 PUSH1 0x4 MSTORE PUSH1 0x24 PUSH1 0x0 REVERT JUMPDEST PUSH1 0x0 PUSH1 0x2 DUP3 DIV SWAP1 POP PUSH1 0x1 DUP3 AND DUP1 PUSH3 0x9A3 JUMPI PUSH1 0x7F DUP3 AND SWAP2 POP JUMPDEST PUSH1 0x20 DUP3 LT DUP2 SUB PUSH3 0x9B9 JUMPI PUSH3 0x9B8 PUSH3 0x95B JUMP JUMPDEST JUMPDEST POP SWAP2 SWAP1 POP JUMP JUMPDEST PUSH1 0x0 DUP2 SWAP1 POP DUP2 PUSH1 0x0 MSTORE PUSH1 0x20 PUSH1 0x0 KECCAK256 SWAP1 POP SWAP2 SWAP1 POP JUMP JUMPDEST PUSH1 0x0 PUSH1 0x20 PUSH1 0x1F DUP4 ADD DIV SWAP1 POP SWAP2 SWAP1 POP JUMP JUMPDEST PUSH1 0x0 DUP3 DUP3 SHL SWAP1 POP SWAP3 SWAP2 POP POP JUMP JUMPDEST PUSH1 0x0 PUSH1 0x8 DUP4 MUL PUSH3 0xA23 PUSH32 0xFFFFFFFFFFFFFFFFFFFFFFFFFFFFFFFFFFFFFFFFFFFFFFFFFFFFFFFFFFFFFFFF DUP3 PUSH3 0x9E4 JUMP JUMPDEST PUSH3 0xA2F DUP7 DUP4 PUSH3 0x9E4 JUMP JUMPDEST SWAP6 POP DUP1 NOT DUP5 AND SWAP4 POP DUP1 DUP7 AND DUP5 OR SWAP3 POP POP POP SWAP4 SWAP3 POP POP POP JUMP JUMPDEST PUSH1 0x0 DUP2 SWAP1 POP SWAP2 SWAP1 POP JUMP JUMPDEST PUSH1 0x0 DUP2 SWAP1 POP SWAP2 SWAP1 POP JUMP JUMPDEST PUSH1 0x0 PUSH3 0xA7C PUSH3 0xA76 PUSH3 0xA70 DUP5 PUSH3 0xA47 JUMP JUMPDEST PUSH3 0xA51 JUMP JUMPDEST PUSH3 0xA47 JUMP JUMPDEST SWAP1 POP SWAP2 SWAP1 POP JUMP JUMPDEST PUSH1 0x0 DUP2 SWAP1 POP SWAP2 SWAP1 POP JUMP JUMPDEST PUSH3 0xA98 DUP4 PUSH3 0xA5B JUMP JUMPDEST PUSH3 0xAB0 PUSH3 0xAA7 DUP3 PUSH3 0xA83 JUMP JUMPDEST DUP5 DUP5 SLOAD PUSH3 0x9F1 JUMP JUMPDEST DUP3 SSTORE POP POP POP POP JUMP JUMPDEST PUSH1 0x0 SWAP1 JUMP JUMPDEST PUSH3 0xAC7 PUSH3 0xAB8 JUMP JUMPDEST PUSH3 0xAD4 DUP2 DUP5 DUP5 PUSH3 0xA8D JUMP JUMPDEST POP POP POP JUMP JUMPDEST JUMPDEST DUP2 DUP2 LT ISZERO PUSH3 0xAFC JUMPI PUSH3 0xAF0 PUSH1 0x0 DUP3 PUSH3 0xABD JUMP JUMPDEST PUSH1 0x1 DUP2 ADD SWAP1 POP PUSH3 0xADA JUMP JUMPDEST POP POP JUMP JUMPDEST PUSH1 0x1F DUP3 GT ISZERO PUSH3 0xB4B JUMPI PUSH3 0xB15 DUP2 PUSH3 0x9BF JUMP JUMPDEST PUSH3 0xB20 DUP5 PUSH3 0x9D4 JUMP JUMPDEST DUP2 ADD PUSH1 0x20 DUP6 LT ISZERO PUSH3 0xB30 JUMPI DUP2 SWAP1 POP JUMPDEST PUSH3 0xB48 PUSH3 0xB3F DUP6 PUSH3 0x9D4 JUMP JUMPDEST DUP4 ADD DUP3 PUSH3 0xAD9 JUMP JUMPDEST POP POP JUMPDEST POP POP POP JUMP JUMPDEST PUSH1 0x0 DUP3 DUP3 SHR SWAP1 POP SWAP3 SWAP2 POP POP JUMP JUMPDEST PUSH1 0x0 PUSH3 0xB70 PUSH1 0x0 NOT DUP5 PUSH1 0x8 MUL PUSH3 0xB50 JUMP JUMPDEST NOT DUP1 DUP4 AND SWAP2 POP POP SWAP3 SWAP2 POP POP JUMP JUMPDEST PUSH1 0x0 PUSH3 0xB8B DUP4 DUP4 PUSH3 0xB5D JUMP JUMPDEST SWAP2 POP DUP3 PUSH1 0x2 MUL DUP3 OR SWAP1 POP SWAP3 SWAP2 POP POP JUMP JUMPDEST PUSH3 0xBA6 DUP3 PUSH3 0x921 JUMP JUMPDEST PUSH8 0xFFFFFFFFFFFFFFFF DUP2 GT ISZERO PUSH3 0xBC2 JUMPI PUSH3 0xBC1 PUSH3 0x92C JUMP JUMPDEST JUMPDEST PUSH3 0xBCE DUP3 SLOAD PUSH3 0x98A JUMP JUMPDEST PUSH3 0xBDB DUP3 DUP3 DUP6 PUSH3 0xB00 JUMP JUMPDEST PUSH1 0x0 PUSH1 0x20 SWAP1 POP PUSH1 0x1F DUP4 GT PUSH1 0x1 DUP2 EQ PUSH3 0xC13 JUMPI PUSH1 0x0 DUP5 ISZERO PUSH3 0xBFE JUMPI DUP3 DUP8 ADD MLOAD SWAP1 POP JUMPDEST PUSH3 0xC0A DUP6 DUP3 PUSH3 0xB7D JUMP JUMPDEST DUP7 SSTORE POP PUSH3 0xC7A JUMP JUMPDEST PUSH1 0x1F NOT DUP5 AND PUSH3 0xC23 DUP7 PUSH3 0x9BF JUMP JUMPDEST PUSH1 0x0 JUMPDEST DUP3 DUP2 LT ISZERO PUSH3 0xC4D JUMPI DUP5 DUP10 ADD MLOAD DUP3 SSTORE PUSH1 0x1 DUP3 ADD SWAP2 POP PUSH1 0x20 DUP6 ADD SWAP5 POP PUSH1 0x20 DUP2 ADD SWAP1 POP PUSH3 0xC26 JUMP JUMPDEST DUP7 DUP4 LT ISZERO PUSH3 0xC6D JUMPI DUP5 DUP10 ADD MLOAD PUSH3 0xC69 PUSH1 0x1F DUP10 AND DUP3 PUSH3 0xB5D JUMP JUMPDEST DUP4 SSTORE POP JUMPDEST PUSH1 0x1 PUSH1 0x2 DUP9 MUL ADD DUP9 SSTORE POP POP POP JUMPDEST POP POP POP POP POP POP JUMP JUMPDEST PUSH3 0xC8D DUP2 PUSH3 0xA47 JUMP JUMPDEST DUP3 MSTORE POP POP JUMP JUMPDEST PUSH3 0xC9E DUP2 PUSH3 0xA47 JUMP JUMPDEST DUP3 MSTORE POP POP JUMP JUMPDEST PUSH1 0x0 DUP3 DUP3 MSTORE PUSH1 0x20 DUP3 ADD SWAP1 POP SWAP3 SWAP2 POP POP JUMP JUMPDEST PUSH1 0x0 JUMPDEST DUP4 DUP2 LT ISZERO PUSH3 0xCD5 JUMPI DUP1 DUP3 ADD MLOAD DUP2 DUP5 ADD MSTORE PUSH1 0x20 DUP2 ADD SWAP1 POP PUSH3 0xCB8 JUMP JUMPDEST PUSH1 0x0 DUP5 DUP5 ADD MSTORE POP POP POP POP JUMP JUMPDEST PUSH1 0x0 PUSH1 0x1F NOT PUSH1 0x1F DUP4 ADD AND SWAP1 POP SWAP2 SWAP1 POP JUMP JUMPDEST PUSH1 0x0 PUSH3 0xCFF DUP3 PUSH3 0x921 JUMP JUMPDEST PUSH3 0xD0B DUP2 DUP6 PUSH3 0xCA4 JUMP JUMPDEST SWAP4 POP PUSH3 0xD1D DUP2 DUP6 PUSH1 0x20 DUP7 ADD PUSH3 0xCB5 JUMP JUMPDEST PUSH3 0xD28 DUP2 PUSH3 0xCE1 JUMP JUMPDEST DUP5 ADD SWAP2 POP POP SWAP3 SWAP2 POP POP JUMP JUMPDEST PUSH1 0x0 PUSH1 0x60 DUP4 ADD PUSH1 0x0 DUP4 ADD MLOAD PUSH3 0xD4D PUSH1 0x0 DUP7 ADD DUP3 PUSH3 0xC93 JUMP JUMPDEST POP PUSH1 0x20 DUP4 ADD MLOAD DUP5 DUP3 SUB PUSH1 0x20 DUP7 ADD MSTORE PUSH3 0xD67 DUP3 DUP3 PUSH3 0xCF2 JUMP JUMPDEST SWAP2 POP POP PUSH1 0x40 DUP4 ADD MLOAD DUP5 DUP3 SUB PUSH1 0x40 DUP7 ADD MSTORE PUSH3 0xD83 DUP3 DUP3 PUSH3 0xCF2 JUMP JUMPDEST SWAP2 POP POP DUP1 SWAP2 POP POP SWAP3 SWAP2 POP POP JUMP JUMPDEST PUSH1 0x0 PUSH1 0x40 DUP3 ADD SWAP1 POP PUSH3 0xDA7 PUSH1 0x0 DUP4 ADD DUP6 PUSH3 0xC82 JUMP JUMPDEST DUP2 DUP2 SUB PUSH1 0x20 DUP4 ADD MSTORE PUSH3 0xDBB DUP2 DUP5 PUSH3 0xD33 JUMP JUMPDEST SWAP1 POP SWAP4 SWAP3 POP POP POP JUMP JUMPDEST PUSH32 0x4D6178696D756D206E756D626572206F6620736B696C6C732072656163686564 PUSH1 0x0 DUP3 ADD MSTORE POP JUMP JUMPDEST PUSH1 0x0 PUSH3 0xDFC PUSH1 0x20 DUP4 PUSH3 0x806 JUMP JUMPDEST SWAP2 POP PUSH3 0xE09 DUP3 PUSH3 0xDC4 JUMP JUMPDEST PUSH1 0x20 DUP3 ADD SWAP1 POP SWAP2 SWAP1 POP JUMP JUMPDEST PUSH1 0x0 PUSH1 0x20 DUP3 ADD SWAP1 POP DUP2 DUP2 SUB PUSH1 0x0 DUP4 ADD MSTORE PUSH3 0xE2F DUP2 PUSH3 0xDED JUMP JUMPDEST SWAP1 POP SWAP2 SWAP1 POP JUMP JUMPDEST PUSH1 0x0 PUSH1 0x60 DUP4 ADD PUSH1 0x0 DUP4 ADD MLOAD PUSH3 0xE50 PUSH1 0x0 DUP7 ADD DUP3 PUSH3 0xC93 JUMP JUMPDEST POP PUSH1 0x20 DUP4 ADD MLOAD DUP5 DUP3 SUB PUSH1 0x20 DUP7 ADD MSTORE PUSH3 0xE6A DUP3 DUP3 PUSH3 0xCF2 JUMP JUMPDEST SWAP2 POP POP PUSH1 0x40 DUP4 ADD MLOAD DUP5 DUP3 SUB PUSH1 0x40 DUP7 ADD MSTORE PUSH3 0xE86 DUP3 DUP3 PUSH3 0xCF2 JUMP JUMPDEST SWAP2 POP POP DUP1 SWAP2 POP POP SWAP3 SWAP2 POP POP JUMP JUMPDEST PUSH1 0x0 PUSH1 0x40 DUP3 ADD SWAP1 POP PUSH3 0xEAA PUSH1 0x0 DUP4 ADD DUP6 PUSH3 0xC82 JUMP JUMPDEST DUP2 DUP2 SUB PUSH1 0x20 DUP4 ADD MSTORE PUSH3 0xEBE DUP2 DUP5 PUSH3 0xE36 JUMP JUMPDEST SWAP1 POP SWAP4 SWAP3 POP POP POP JUMP JUMPDEST PUSH2 0x28D1 DUP1 PUSH3 0xED7 PUSH1 0x0 CODECOPY PUSH1 0x0 RETURN INVALID PUSH1 0x80 PUSH1 0x40 MSTORE CALLVALUE DUP1 ISZERO PUSH2 0x10 JUMPI PUSH1 0x0 DUP1 REVERT JUMPDEST POP PUSH1 0x4 CALLDATASIZE LT PUSH2 0x88 JUMPI PUSH1 0x0 CALLDATALOAD PUSH1 0xE0 SHR DUP1 PUSH4 0xC250736E GT PUSH2 0x5B JUMPI DUP1 PUSH4 0xC250736E EQ PUSH2 0x127 JUMPI DUP1 PUSH4 0xC8AB8303 EQ PUSH2 0x159 JUMPI DUP1 PUSH4 0xD859E91E EQ PUSH2 0x189 JUMPI DUP1 PUSH4 0xDFCE7DC6 EQ PUSH2 0x1B9 JUMPI PUSH2 0x88 JUMP JUMPDEST DUP1 PUSH4 0xCE91906 EQ PUSH2 0x8D JUMPI DUP1 PUSH4 0x2F7467B3 EQ PUSH2 0xA9 JUMPI DUP1 PUSH4 0x42DAE541 EQ PUSH2 0xD9 JUMPI DUP1 PUSH4 0x5E916790 EQ PUSH2 0x109 JUMPI JUMPDEST PUSH1 0x0 DUP1 REVERT JUMPDEST PUSH2 0xA7 PUSH1 0x4 DUP1 CALLDATASIZE SUB DUP2 ADD SWAP1 PUSH2 0xA2 SWAP2 SWAP1 PUSH2 0x1466 JUMP JUMPDEST PUSH2 0x1EB JUMP JUMPDEST STOP JUMPDEST PUSH2 0xC3 PUSH1 0x4 DUP1 CALLDATASIZE SUB DUP2 ADD SWAP1 PUSH2 0xBE SWAP2 SWAP1 PUSH2 0x1562 JUMP JUMPDEST PUSH2 0x7F6 JUMP JUMPDEST PUSH1 0x40 MLOAD PUSH2 0xD0 SWAP2 SWAP1 PUSH2 0x15D0 JUMP JUMPDEST PUSH1 0x40 MLOAD DUP1 SWAP2 SUB SWAP1 RETURN JUMPDEST PUSH2 0xF3 PUSH1 0x4 DUP1 CALLDATASIZE SUB DUP2 ADD SWAP1 PUSH2 0xEE SWAP2 SWAP1 PUSH2 0x172C JUMP JUMPDEST PUSH2 0x829 JUMP JUMPDEST PUSH1 0x40 MLOAD PUSH2 0x100 SWAP2 SWAP1 PUSH2 0x17B3 JUMP JUMPDEST PUSH1 0x40 MLOAD DUP1 SWAP2 SUB SWAP1 RETURN JUMPDEST PUSH2 0x111 PUSH2 0x99E JUMP JUMPDEST PUSH1 0x40 MLOAD PUSH2 0x11E SWAP2 SWAP1 PUSH2 0x1B40 JUMP JUMPDEST PUSH1 0x40 MLOAD DUP1 SWAP2 SUB SWAP1 RETURN JUMPDEST PUSH2 0x141 PUSH1 0x4 DUP1 CALLDATASIZE SUB DUP2 ADD SWAP1 PUSH2 0x13C SWAP2 SWAP1 PUSH2 0x1562 JUMP JUMPDEST PUSH2 0xC15 JUMP JUMPDEST PUSH1 0x40 MLOAD PUSH2 0x150 SWAP4 SWAP3 SWAP2 SWAP1 PUSH2 0x1BAC JUMP JUMPDEST PUSH1 0x40 MLOAD DUP1 SWAP2 SUB SWAP1 RETURN JUMPDEST PUSH2 0x173 PUSH1 0x4 DUP1 CALLDATASIZE SUB DUP2 ADD SWAP1 PUSH2 0x16E SWAP2 SWAP1 PUSH2 0x172C JUMP JUMPDEST PUSH2 0xD5F JUMP JUMPDEST PUSH1 0x40 MLOAD PUSH2 0x180 SWAP2 SWAP1 PUSH2 0x17B3 JUMP JUMPDEST PUSH1 0x40 MLOAD DUP1 SWAP2 SUB SWAP1 RETURN JUMPDEST PUSH2 0x1A3 PUSH1 0x4 DUP1 CALLDATASIZE SUB DUP2 ADD SWAP1 PUSH2 0x19E SWAP2 SWAP1 PUSH2 0x1DCF JUMP JUMPDEST PUSH2 0xED3 JUMP JUMPDEST PUSH1 0x40 MLOAD PUSH2 0x1B0 SWAP2 SWAP1 PUSH2 0x1E91 JUMP JUMPDEST PUSH1 0x40 MLOAD DUP1 SWAP2 SUB SWAP1 RETURN JUMPDEST PUSH2 0x1D3 PUSH1 0x4 DUP1 CALLDATASIZE SUB DUP2 ADD SWAP1 PUSH2 0x1CE SWAP2 SWAP1 PUSH2 0x1562 JUMP JUMPDEST PUSH2 0xF09 JUMP JUMPDEST PUSH1 0x40 MLOAD PUSH2 0x1E2 SWAP4 SWAP3 SWAP2 SWAP1 PUSH2 0x1BAC JUMP JUMPDEST PUSH1 0x40 MLOAD DUP1 SWAP2 SUB SWAP1 RETURN JUMPDEST PUSH1 0x0 DUP8 GT PUSH2 0x22E JUMPI PUSH1 0x40 MLOAD PUSH32 0x8C379A000000000000000000000000000000000000000000000000000000000 DUP2 MSTORE PUSH1 0x4 ADD PUSH2 0x225 SWAP1 PUSH2 0x1EF8 JUMP JUMPDEST PUSH1 0x40 MLOAD DUP1 SWAP2 SUB SWAP1 REVERT JUMPDEST PUSH1 0x2 DUP10 DUP10 SWAP1 POP LT ISZERO PUSH2 0x275 JUMPI PUSH1 0x40 MLOAD PUSH32 0x8C379A000000000000000000000000000000000000000000000000000000000 DUP2 MSTORE PUSH1 0x4 ADD PUSH2 0x26C SWAP1 PUSH2 0x1F8A JUMP JUMPDEST PUSH1 0x40 MLOAD DUP1 SWAP2 SUB SWAP1 REVERT JUMPDEST PUSH1 0x0 DUP5 DUP5 SWAP1 POP GT PUSH2 0x2BB JUMPI PUSH1 0x40 MLOAD PUSH32 0x8C379A000000000000000000000000000000000000000000000000000000000 DUP2 MSTORE PUSH1 0x4 ADD PUSH2 0x2B2 SWAP1 PUSH2 0x201C JUMP JUMPDEST PUSH1 0x40 MLOAD DUP1 SWAP2 SUB SWAP1 REVERT JUMPDEST PUSH1 0x0 DUP3 DUP3 SWAP1 POP GT PUSH2 0x301 JUMPI PUSH1 0x40 MLOAD PUSH32 0x8C379A000000000000000000000000000000000000000000000000000000000 DUP2 MSTORE PUSH1 0x4 ADD PUSH2 0x2F8 SWAP1 PUSH2 0x20AE JUMP JUMPDEST PUSH1 0x40 MLOAD DUP1 SWAP2 SUB SWAP1 REVERT JUMPDEST PUSH2 0x3CF DUP7 DUP7 DUP1 DUP1 PUSH1 0x20 MUL PUSH1 0x20 ADD PUSH1 0x40 MLOAD SWAP1 DUP2 ADD PUSH1 0x40 MSTORE DUP1 SWAP4 SWAP3 SWAP2 SWAP1 DUP2 DUP2 MSTORE PUSH1 0x20 ADD DUP4 DUP4 PUSH1 0x20 MUL DUP1 DUP3 DUP5 CALLDATACOPY PUSH1 0x0 DUP2 DUP5 ADD MSTORE PUSH1 0x1F NOT PUSH1 0x1F DUP3 ADD AND SWAP1 POP DUP1 DUP4 ADD SWAP3 POP POP POP POP POP POP POP DUP6 DUP6 DUP1 DUP1 PUSH1 0x20 MUL PUSH1 0x20 ADD PUSH1 0x40 MLOAD SWAP1 DUP2 ADD PUSH1 0x40 MSTORE DUP1 SWAP4 SWAP3 SWAP2 SWAP1 DUP2 DUP2 MSTORE PUSH1 0x20 ADD DUP4 DUP4 PUSH1 0x20 MUL DUP1 DUP3 DUP5 CALLDATACOPY PUSH1 0x0 DUP2 DUP5 ADD MSTORE PUSH1 0x1F NOT PUSH1 0x1F DUP3 ADD AND SWAP1 POP DUP1 DUP4 ADD SWAP3 POP POP POP POP POP POP POP DUP5 DUP5 DUP1 DUP1 PUSH1 0x20 MUL PUSH1 0x20 ADD PUSH1 0x40 MLOAD SWAP1 DUP2 ADD PUSH1 0x40 MSTORE DUP1 SWAP4 SWAP3 SWAP2 SWAP1 DUP2 DUP2 MSTORE PUSH1 0x20 ADD DUP4 DUP4 PUSH1 0x20 MUL DUP1 DUP3 DUP5 CALLDATACOPY PUSH1 0x0 DUP2 DUP5 ADD MSTORE PUSH1 0x1F NOT PUSH1 0x1F DUP3 ADD AND SWAP1 POP DUP1 DUP4 ADD SWAP3 POP POP POP POP POP POP POP PUSH2 0xED3 JUMP JUMPDEST PUSH2 0x40E JUMPI PUSH1 0x40 MLOAD PUSH32 0x8C379A000000000000000000000000000000000000000000000000000000000 DUP2 MSTORE PUSH1 0x4 ADD PUSH2 0x405 SWAP1 PUSH2 0x2140 JUMP JUMPDEST PUSH1 0x40 MLOAD DUP1 SWAP2 SUB SWAP1 REVERT JUMPDEST PUSH1 0x0 PUSH1 0x40 MLOAD DUP1 PUSH1 0xA0 ADD PUSH1 0x40 MSTORE DUP1 DUP10 DUP2 MSTORE PUSH1 0x20 ADD DUP12 DUP12 DUP1 DUP1 PUSH1 0x1F ADD PUSH1 0x20 DUP1 SWAP2 DIV MUL PUSH1 0x20 ADD PUSH1 0x40 MLOAD SWAP1 DUP2 ADD PUSH1 0x40 MSTORE DUP1 SWAP4 SWAP3 SWAP2 SWAP1 DUP2 DUP2 MSTORE PUSH1 0x20 ADD DUP4 DUP4 DUP1 DUP3 DUP5 CALLDATACOPY PUSH1 0x0 DUP2 DUP5 ADD MSTORE PUSH1 0x1F NOT PUSH1 0x1F DUP3 ADD AND SWAP1 POP DUP1 DUP4 ADD SWAP3 POP POP POP POP POP POP POP DUP2 MSTORE PUSH1 0x20 ADD DUP9 DUP9 DUP1 DUP1 PUSH1 0x20 MUL PUSH1 0x20 ADD PUSH1 0x40 MLOAD SWAP1 DUP2 ADD PUSH1 0x40 MSTORE DUP1 SWAP4 SWAP3 SWAP2 SWAP1 DUP2 DUP2 MSTORE PUSH1 0x20 ADD DUP4 DUP4 PUSH1 0x20 MUL DUP1 DUP3 DUP5 CALLDATACOPY PUSH1 0x0 DUP2 DUP5 ADD MSTORE PUSH1 0x1F NOT PUSH1 0x1F DUP3 ADD AND SWAP1 POP DUP1 DUP4 ADD SWAP3 POP POP POP POP POP POP POP DUP2 MSTORE PUSH1 0x20 ADD DUP7 DUP7 DUP1 DUP1 PUSH1 0x20 MUL PUSH1 0x20 ADD PUSH1 0x40 MLOAD SWAP1 DUP2 ADD PUSH1 0x40 MSTORE DUP1 SWAP4 SWAP3 SWAP2 SWAP1 DUP2 DUP2 MSTORE PUSH1 0x20 ADD DUP4 DUP4 PUSH1 0x20 MUL DUP1 DUP3 DUP5 CALLDATACOPY PUSH1 0x0 DUP2 DUP5 ADD MSTORE PUSH1 0x1F NOT PUSH1 0x1F DUP3 ADD AND SWAP1 POP DUP1 DUP4 ADD SWAP3 POP POP POP POP POP POP POP DUP2 MSTORE PUSH1 0x20 ADD DUP5 DUP5 DUP1 DUP1 PUSH1 0x20 MUL PUSH1 0x20 ADD PUSH1 0x40 MLOAD SWAP1 DUP2 ADD PUSH1 0x40 MSTORE DUP1 SWAP4 SWAP3 SWAP2 SWAP1 DUP2 DUP2 MSTORE PUSH1 0x20 ADD DUP4 DUP4 PUSH1 0x20 MUL DUP1 DUP3 DUP5 CALLDATACOPY PUSH1 0x0 DUP2 DUP5 ADD MSTORE PUSH1 0x1F NOT PUSH1 0x1F DUP3 ADD AND SWAP1 POP DUP1 DUP4 ADD SWAP3 POP POP POP POP POP POP POP DUP2 MSTORE POP SWAP1 DUP1 PUSH1 0x1 DUP2 SLOAD ADD DUP1 DUP3 SSTORE DUP1 SWAP2 POP POP PUSH1 0x1 SWAP1 SUB SWAP1 PUSH1 0x0 MSTORE PUSH1 0x20 PUSH1 0x0 KECCAK256 SWAP1 PUSH1 0x5 MUL ADD PUSH1 0x0 SWAP1 SWAP2 SWAP1 SWAP2 SWAP1 SWAP2 POP PUSH1 0x0 DUP3 ADD MLOAD DUP2 PUSH1 0x0 ADD SSTORE PUSH1 0x20 DUP3 ADD MLOAD DUP2 PUSH1 0x1 ADD SWAP1 DUP2 PUSH2 0x586 SWAP2 SWAP1 PUSH2 0x236C JUMP JUMPDEST POP PUSH1 0x40 DUP3 ADD MLOAD DUP2 PUSH1 0x2 ADD SWAP1 DUP1 MLOAD SWAP1 PUSH1 0x20 ADD SWAP1 PUSH2 0x5A3 SWAP3 SWAP2 SWAP1 PUSH2 0x119D JUMP JUMPDEST POP PUSH1 0x60 DUP3 ADD MLOAD DUP2 PUSH1 0x3 ADD SWAP1 DUP1 MLOAD SWAP1 PUSH1 0x20 ADD SWAP1 PUSH2 0x5C0 SWAP3 SWAP2 SWAP1 PUSH2 0x1247 JUMP JUMPDEST POP PUSH1 0x80 DUP3 ADD MLOAD DUP2 PUSH1 0x4 ADD SWAP1 DUP1 MLOAD SWAP1 PUSH1 0x20 ADD SWAP1 PUSH2 0x5DD SWAP3 SWAP2 SWAP1 PUSH2 0x1247 JUMP JUMPDEST POP POP POP CALLER PUSH1 0x1 PUSH1 0x0 DUP10 DUP2 MSTORE PUSH1 0x20 ADD SWAP1 DUP2 MSTORE PUSH1 0x20 ADD PUSH1 0x0 KECCAK256 PUSH1 0x0 PUSH2 0x100 EXP DUP2 SLOAD DUP2 PUSH20 0xFFFFFFFFFFFFFFFFFFFFFFFFFFFFFFFFFFFFFFFF MUL NOT AND SWAP1 DUP4 PUSH20 0xFFFFFFFFFFFFFFFFFFFFFFFFFFFFFFFFFFFFFFFF AND MUL OR SWAP1 SSTORE POP PUSH1 0x2 PUSH1 0x0 CALLER PUSH20 0xFFFFFFFFFFFFFFFFFFFFFFFFFFFFFFFFFFFFFFFF AND PUSH20 0xFFFFFFFFFFFFFFFFFFFFFFFFFFFFFFFFFFFFFFFF AND DUP2 MSTORE PUSH1 0x20 ADD SWAP1 DUP2 MSTORE PUSH1 0x20 ADD PUSH1 0x0 KECCAK256 PUSH1 0x0 DUP2 SLOAD DUP1 SWAP3 SWAP2 SWAP1 PUSH2 0x682 SWAP1 PUSH2 0x246D JUMP JUMPDEST SWAP2 SWAP1 POP SSTORE POP PUSH32 0xB10986948FFB7BE81DA4FBC5ECC25588B81398F5A5E78EBB740668DB90C35238 PUSH1 0x40 MLOAD DUP1 PUSH1 0xA0 ADD PUSH1 0x40 MSTORE DUP1 DUP10 DUP2 MSTORE PUSH1 0x20 ADD DUP12 DUP12 DUP1 DUP1 PUSH1 0x1F ADD PUSH1 0x20 DUP1 SWAP2 DIV MUL PUSH1 0x20 ADD PUSH1 0x40 MLOAD SWAP1 DUP2 ADD PUSH1 0x40 MSTORE DUP1 SWAP4 SWAP3 SWAP2 SWAP1 DUP2 DUP2 MSTORE PUSH1 0x20 ADD DUP4 DUP4 DUP1 DUP3 DUP5 CALLDATACOPY PUSH1 0x0 DUP2 DUP5 ADD MSTORE PUSH1 0x1F NOT PUSH1 0x1F DUP3 ADD AND SWAP1 POP DUP1 DUP4 ADD SWAP3 POP POP POP POP POP POP POP DUP2 MSTORE PUSH1 0x20 ADD DUP9 DUP9 DUP1 DUP1 PUSH1 0x20 MUL PUSH1 0x20 ADD PUSH1 0x40 MLOAD SWAP1 DUP2 ADD PUSH1 0x40 MSTORE DUP1 SWAP4 SWAP3 SWAP2 SWAP1 DUP2 DUP2 MSTORE PUSH1 0x20 ADD DUP4 DUP4 PUSH1 0x20 MUL DUP1 DUP3 DUP5 CALLDATACOPY PUSH1 0x0 DUP2 DUP5 ADD MSTORE PUSH1 0x1F NOT PUSH1 0x1F DUP3 ADD AND SWAP1 POP DUP1 DUP4 ADD SWAP3 POP POP POP POP POP POP POP DUP2 MSTORE PUSH1 0x20 ADD DUP7 DUP7 DUP1 DUP1 PUSH1 0x20 MUL PUSH1 0x20 ADD PUSH1 0x40 MLOAD SWAP1 DUP2 ADD PUSH1 0x40 MSTORE DUP1 SWAP4 SWAP3 SWAP2 SWAP1 DUP2 DUP2 MSTORE PUSH1 0x20 ADD DUP4 DUP4 PUSH1 0x20 MUL DUP1 DUP3 DUP5 CALLDATACOPY PUSH1 0x0 DUP2 DUP5 ADD MSTORE PUSH1 0x1F NOT PUSH1 0x1F DUP3 ADD AND SWAP1 POP DUP1 DUP4 ADD SWAP3 POP POP POP POP POP POP POP DUP2 MSTORE PUSH1 0x20 ADD DUP5 DUP5 DUP1 DUP1 PUSH1 0x20 MUL PUSH1 0x20 ADD PUSH1 0x40 MLOAD SWAP1 DUP2 ADD PUSH1 0x40 MSTORE DUP1 SWAP4 SWAP3 SWAP2 SWAP1 DUP2 DUP2 MSTORE PUSH1 0x20 ADD DUP4 DUP4 PUSH1 0x20 MUL DUP1 DUP3 DUP5 CALLDATACOPY PUSH1 0x0 DUP2 DUP5 ADD MSTORE PUSH1 0x1F NOT PUSH1 0x1F DUP3 ADD AND SWAP1 POP DUP1 DUP4 ADD SWAP3 POP POP POP POP POP POP POP DUP2 MSTORE POP PUSH1 0x40 MLOAD PUSH2 0x7E3 SWAP2 SWAP1 PUSH2 0x2540 JUMP JUMPDEST PUSH1 0x40 MLOAD DUP1 SWAP2 SUB SWAP1 LOG1 POP POP POP POP POP POP POP POP POP JUMP JUMPDEST PUSH1 0x1 PUSH1 0x20 MSTORE DUP1 PUSH1 0x0 MSTORE PUSH1 0x40 PUSH1 0x0 KECCAK256 PUSH1 0x0 SWAP2 POP SLOAD SWAP1 PUSH2 0x100 EXP SWAP1 DIV PUSH20 0xFFFFFFFFFFFFFFFFFFFFFFFFFFFFFFFFFFFFFFFF AND DUP2 JUMP JUMPDEST PUSH1 0x0 PUSH1 0x2 DUP4 MLOAD LT ISZERO PUSH2 0x870 JUMPI PUSH1 0x40 MLOAD PUSH32 0x8C379A000000000000000000000000000000000000000000000000000000000 DUP2 MSTORE PUSH1 0x4 ADD PUSH2 0x867 SWAP1 PUSH2 0x1F8A JUMP JUMPDEST PUSH1 0x40 MLOAD DUP1 SWAP2 SUB SWAP1 REVERT JUMPDEST PUSH2 0x1F4 PUSH1 0x3 DUP1 SLOAD SWAP1 POP LT PUSH2 0x8B9 JUMPI PUSH1 0x40 MLOAD PUSH32 0x8C379A000000000000000000000000000000000000000000000000000000000 DUP2 MSTORE PUSH1 0x4 ADD PUSH2 0x8B0 SWAP1 PUSH2 0x25AE JUMP JUMPDEST PUSH1 0x40 MLOAD DUP1 SWAP2 SUB SWAP1 REVERT JUMPDEST PUSH1 0x0 PUSH1 0x3 DUP1 SLOAD SWAP1 POP SWAP1 POP PUSH1 0x3 PUSH1 0x40 MLOAD DUP1 PUSH1 0x60 ADD PUSH1 0x40 MSTORE DUP1 DUP4 DUP2 MSTORE PUSH1 0x20 ADD DUP7 DUP2 MSTORE PUSH1 0x20 ADD DUP6 DUP2 MSTORE POP SWAP1 DUP1 PUSH1 0x1 DUP2 SLOAD ADD DUP1 DUP3 SSTORE DUP1 SWAP2 POP POP PUSH1 0x1 SWAP1 SUB SWAP1 PUSH1 0x0 MSTORE PUSH1 0x20 PUSH1 0x0 KECCAK256 SWAP1 PUSH1 0x3 MUL ADD PUSH1 0x0 SWAP1 SWAP2 SWAP1 SWAP2 SWAP1 SWAP2 POP PUSH1 0x0 DUP3 ADD MLOAD DUP2 PUSH1 0x0 ADD SSTORE PUSH1 0x20 DUP3 ADD MLOAD DUP2 PUSH1 0x1 ADD SWAP1 DUP2 PUSH2 0x928 SWAP2 SWAP1 PUSH2 0x236C JUMP JUMPDEST POP PUSH1 0x40 DUP3 ADD MLOAD DUP2 PUSH1 0x2 ADD SWAP1 DUP2 PUSH2 0x93E SWAP2 SWAP1 PUSH2 0x236C JUMP JUMPDEST POP POP POP PUSH32 0x80E541F486172623665F7D923CF03B7164D42F9823D756F08C19790192BE7E13 DUP2 PUSH1 0x40 MLOAD DUP1 PUSH1 0x60 ADD PUSH1 0x40 MSTORE DUP1 DUP5 DUP2 MSTORE PUSH1 0x20 ADD DUP8 DUP2 MSTORE PUSH1 0x20 ADD DUP7 DUP2 MSTORE POP PUSH1 0x40 MLOAD PUSH2 0x98C SWAP3 SWAP2 SWAP1 PUSH2 0x2625 JUMP JUMPDEST PUSH1 0x40 MLOAD DUP1 SWAP2 SUB SWAP1 LOG1 DUP1 SWAP2 POP POP SWAP3 SWAP2 POP POP JUMP JUMPDEST PUSH1 0x60 PUSH1 0x0 DUP1 SLOAD DUP1 PUSH1 0x20 MUL PUSH1 0x20 ADD PUSH1 0x40 MLOAD SWAP1 DUP2 ADD PUSH1 0x40 MSTORE DUP1 SWAP3 SWAP2 SWAP1 DUP2 DUP2 MSTORE PUSH1 0x20 ADD PUSH1 0x0 SWAP1 JUMPDEST DUP3 DUP3 LT ISZERO PUSH2 0xC0C JUMPI DUP4 DUP3 SWAP1 PUSH1 0x0 MSTORE PUSH1 0x20 PUSH1 0x0 KECCAK256 SWAP1 PUSH1 0x5 MUL ADD PUSH1 0x40 MLOAD DUP1 PUSH1 0xA0 ADD PUSH1 0x40 MSTORE SWAP1 DUP2 PUSH1 0x0 DUP3 ADD SLOAD DUP2 MSTORE PUSH1 0x20 ADD PUSH1 0x1 DUP3 ADD DUP1 SLOAD PUSH2 0x9FF SWAP1 PUSH2 0x218F JUMP JUMPDEST DUP1 PUSH1 0x1F ADD PUSH1 0x20 DUP1 SWAP2 DIV MUL PUSH1 0x20 ADD PUSH1 0x40 MLOAD SWAP1 DUP2 ADD PUSH1 0x40 MSTORE DUP1 SWAP3 SWAP2 SWAP1 DUP2 DUP2 MSTORE PUSH1 0x20 ADD DUP3 DUP1 SLOAD PUSH2 0xA2B SWAP1 PUSH2 0x218F JUMP JUMPDEST DUP1 ISZERO PUSH2 0xA78 JUMPI DUP1 PUSH1 0x1F LT PUSH2 0xA4D JUMPI PUSH2 0x100 DUP1 DUP4 SLOAD DIV MUL DUP4 MSTORE SWAP2 PUSH1 0x20 ADD SWAP2 PUSH2 0xA78 JUMP JUMPDEST DUP3 ADD SWAP2 SWAP1 PUSH1 0x0 MSTORE PUSH1 0x20 PUSH1 0x0 KECCAK256 SWAP1 JUMPDEST DUP2 SLOAD DUP2 MSTORE SWAP1 PUSH1 0x1 ADD SWAP1 PUSH1 0x20 ADD DUP1 DUP4 GT PUSH2 0xA5B JUMPI DUP3 SWAP1 SUB PUSH1 0x1F AND DUP3 ADD SWAP2 JUMPDEST POP POP POP POP POP DUP2 MSTORE PUSH1 0x20 ADD PUSH1 0x2 DUP3 ADD DUP1 SLOAD DUP1 PUSH1 0x20 MUL PUSH1 0x20 ADD PUSH1 0x40 MLOAD SWAP1 DUP2 ADD PUSH1 0x40 MSTORE DUP1 SWAP3 SWAP2 SWAP1 DUP2 DUP2 MSTORE PUSH1 0x20 ADD DUP3 DUP1 SLOAD DUP1 ISZERO PUSH2 0xAF8 JUMPI PUSH1 0x20 MUL DUP3 ADD SWAP2 SWAP1 PUSH1 0x0 MSTORE PUSH1 0x20 PUSH1 0x0 KECCAK256 SWAP1 PUSH1 0x0 SWAP1 JUMPDEST DUP3 DUP3 SWAP1 SLOAD SWAP1 PUSH2 0x100 EXP SWAP1 DIV PUSH2 0xFFFF AND PUSH2 0xFFFF AND DUP2 MSTORE PUSH1 0x20 ADD SWAP1 PUSH1 0x2 ADD SWAP1 PUSH1 0x20 DUP3 PUSH1 0x1 ADD DIV SWAP3 DUP4 ADD SWAP3 PUSH1 0x1 SUB DUP3 MUL SWAP2 POP DUP1 DUP5 GT PUSH2 0xABF JUMPI SWAP1 POP JUMPDEST POP POP POP POP POP DUP2 MSTORE PUSH1 0x20 ADD PUSH1 0x3 DUP3 ADD DUP1 SLOAD DUP1 PUSH1 0x20 MUL PUSH1 0x20 ADD PUSH1 0x40 MLOAD SWAP1 DUP2 ADD PUSH1 0x40 MSTORE DUP1 SWAP3 SWAP2 SWAP1 DUP2 DUP2 MSTORE PUSH1 0x20 ADD DUP3 DUP1 SLOAD DUP1 ISZERO PUSH2 0xB76 JUMPI PUSH1 0x20 MUL DUP3 ADD SWAP2 SWAP1 PUSH1 0x0 MSTORE PUSH1 0x20 PUSH1 0x0 KECCAK256 SWAP1 PUSH1 0x0 SWAP1 JUMPDEST DUP3 DUP3 SWAP1 SLOAD SWAP1 PUSH2 0x100 EXP SWAP1 DIV PUSH1 0xFF AND PUSH1 0xFF AND DUP2 MSTORE PUSH1 0x20 ADD SWAP1 PUSH1 0x1 ADD SWAP1 PUSH1 0x20 DUP3 PUSH1 0x0 ADD DIV SWAP3 DUP4 ADD SWAP3 PUSH1 0x1 SUB DUP3 MUL SWAP2 POP DUP1 DUP5 GT PUSH2 0xB3F JUMPI SWAP1 POP JUMPDEST POP POP POP POP POP DUP2 MSTORE PUSH1 0x20 ADD PUSH1 0x4 DUP3 ADD DUP1 SLOAD DUP1 PUSH1 0x20 MUL PUSH1 0x20 ADD PUSH1 0x40 MLOAD SWAP1 DUP2 ADD PUSH1 0x40 MSTORE DUP1 SWAP3 SWAP2 SWAP1 DUP2 DUP2 MSTORE PUSH1 0x20 ADD DUP3 DUP1 SLOAD DUP1 ISZERO PUSH2 0xBF4 JUMPI PUSH1 0x20 MUL DUP3 ADD SWAP2 SWAP1 PUSH1 0x0 MSTORE PUSH1 0x20 PUSH1 0x0 KECCAK256 SWAP1 PUSH1 0x0 SWAP1 JUMPDEST DUP3 DUP3 SWAP1 SLOAD SWAP1 PUSH2 0x100 EXP SWAP1 DIV PUSH1 0xFF AND PUSH1 0xFF AND DUP2 MSTORE PUSH1 0x20 ADD SWAP1 PUSH1 0x1 ADD SWAP1 PUSH1 0x20 DUP3 PUSH1 0x0 ADD DIV SWAP3 DUP4 ADD SWAP3 PUSH1 0x1 SUB DUP3 MUL SWAP2 POP DUP1 DUP5 GT PUSH2 0xBBD JUMPI SWAP1 POP JUMPDEST POP POP POP POP POP DUP2 MSTORE POP POP DUP2 MSTORE PUSH1 0x20 ADD SWAP1 PUSH1 0x1 ADD SWAP1 PUSH2 0x9C2 JUMP JUMPDEST POP POP POP POP SWAP1 POP SWAP1 JUMP JUMPDEST PUSH1 0x4 DUP2 DUP2 SLOAD DUP2 LT PUSH2 0xC25 JUMPI PUSH1 0x0 DUP1 REVERT JUMPDEST SWAP1 PUSH1 0x0 MSTORE PUSH1 0x20 PUSH1 0x0 KECCAK256 SWAP1 PUSH1 0x3 MUL ADD PUSH1 0x0 SWAP2 POP SWAP1 POP DUP1 PUSH1 0x0 ADD SLOAD SWAP1 DUP1 PUSH1 0x1 ADD DUP1 SLOAD PUSH2 0xC4E SWAP1 PUSH2 0x218F JUMP JUMPDEST DUP1 PUSH1 0x1F ADD PUSH1 0x20 DUP1 SWAP2 DIV MUL PUSH1 0x20 ADD PUSH1 0x40 MLOAD SWAP1 DUP2 ADD PUSH1 0x40 MSTORE DUP1 SWAP3 SWAP2 SWAP1 DUP2 DUP2 MSTORE PUSH1 0x20 ADD DUP3 DUP1 SLOAD PUSH2 0xC7A SWAP1 PUSH2 0x218F JUMP JUMPDEST DUP1 ISZERO PUSH2 0xCC7 JUMPI DUP1 PUSH1 0x1F LT PUSH2 0xC9C JUMPI PUSH2 0x100 DUP1 DUP4 SLOAD DIV MUL DUP4 MSTORE SWAP2 PUSH1 0x20 ADD SWAP2 PUSH2 0xCC7 JUMP JUMPDEST DUP3 ADD SWAP2 SWAP1 PUSH1 0x0 MSTORE PUSH1 0x20 PUSH1 0x0 KECCAK256 SWAP1 JUMPDEST DUP2 SLOAD DUP2 MSTORE SWAP1 PUSH1 0x1 ADD SWAP1 PUSH1 0x20 ADD DUP1 DUP4 GT PUSH2 0xCAA JUMPI DUP3 SWAP1 SUB PUSH1 0x1F AND DUP3 ADD SWAP2 JUMPDEST POP POP POP POP POP SWAP1 DUP1 PUSH1 0x2 ADD DUP1 SLOAD PUSH2 0xCDC SWAP1 PUSH2 0x218F JUMP JUMPDEST DUP1 PUSH1 0x1F ADD PUSH1 0x20 DUP1 SWAP2 DIV MUL PUSH1 0x20 ADD PUSH1 0x40 MLOAD SWAP1 DUP2 ADD PUSH1 0x40 MSTORE DUP1 SWAP3 SWAP2 SWAP1 DUP2 DUP2 MSTORE PUSH1 0x20 ADD DUP3 DUP1 SLOAD PUSH2 0xD08 SWAP1 PUSH2 0x218F JUMP JUMPDEST DUP1 ISZERO PUSH2 0xD55 JUMPI DUP1 PUSH1 0x1F LT PUSH2 0xD2A JUMPI PUSH2 0x100 DUP1 DUP4 SLOAD DIV MUL DUP4 MSTORE SWAP2 PUSH1 0x20 ADD SWAP2 PUSH2 0xD55 JUMP JUMPDEST DUP3 ADD SWAP2 SWAP1 PUSH1 0x0 MSTORE PUSH1 0x20 PUSH1 0x0 KECCAK256 SWAP1 JUMPDEST DUP2 SLOAD DUP2 MSTORE SWAP1 PUSH1 0x1 ADD SWAP1 PUSH1 0x20 ADD DUP1 DUP4 GT PUSH2 0xD38 JUMPI DUP3 SWAP1 SUB PUSH1 0x1F AND DUP3 ADD SWAP2 JUMPDEST POP POP POP POP POP SWAP1 POP DUP4 JUMP JUMPDEST PUSH1 0x0 PUSH1 0x2 DUP4 MLOAD LT ISZERO PUSH2 0xDA6 JUMPI PUSH1 0x40 MLOAD PUSH32 0x8C379A000000000000000000000000000000000000000000000000000000000 DUP2 MSTORE PUSH1 0x4 ADD PUSH2 0xD9D SWAP1 PUSH2 0x1F8A JUMP JUMPDEST PUSH1 0x40 MLOAD DUP1 SWAP2 SUB SWAP1 REVERT JUMPDEST PUSH1 0x32 PUSH1 0x4 DUP1 SLOAD SWAP1 POP LT PUSH2 0xDEE JUMPI PUSH1 0x40 MLOAD PUSH32 0x8C379A000000000000000000000000000000000000000000000000000000000 DUP2 MSTORE PUSH1 0x4 ADD PUSH2 0xDE5 SWAP1 PUSH2 0x26A1 JUMP JUMPDEST PUSH1 0x40 MLOAD DUP1 SWAP2 SUB SWAP1 REVERT JUMPDEST PUSH1 0x0 PUSH1 0x4 DUP1 SLOAD SWAP1 POP SWAP1 POP PUSH1 0x4 PUSH1 0x40 MLOAD DUP1 PUSH1 0x60 ADD PUSH1 0x40 MSTORE DUP1 DUP4 DUP2 MSTORE PUSH1 0x20 ADD DUP7 DUP2 MSTORE PUSH1 0x20 ADD DUP6 DUP2 MSTORE POP SWAP1 DUP1 PUSH1 0x1 DUP2 SLOAD ADD DUP1 DUP3 SSTORE DUP1 SWAP2 POP POP PUSH1 0x1 SWAP1 SUB SWAP1 PUSH1 0x0 MSTORE PUSH1 0x20 PUSH1 0x0 KECCAK256 SWAP1 PUSH1 0x3 MUL ADD PUSH1 0x0 SWAP1 SWAP2 SWAP1 SWAP2 SWAP1 SWAP2 POP PUSH1 0x0 DUP3 ADD MLOAD DUP2 PUSH1 0x0 ADD SSTORE PUSH1 0x20 DUP3 ADD MLOAD DUP2 PUSH1 0x1 ADD SWAP1 DUP2 PUSH2 0xE5D SWAP2 SWAP1 PUSH2 0x236C JUMP JUMPDEST POP PUSH1 0x40 DUP3 ADD MLOAD DUP2 PUSH1 0x2 ADD SWAP1 DUP2 PUSH2 0xE73 SWAP2 SWAP1 PUSH2 0x236C JUMP JUMPDEST POP POP POP PUSH32 0x6B54179A51D98751B56E9854F101A8BC66580317818848FFE11418B2A070DF56 DUP2 PUSH1 0x40 MLOAD DUP1 PUSH1 0x60 ADD PUSH1 0x40 MSTORE DUP1 DUP5 DUP2 MSTORE PUSH1 0x20 ADD DUP8 DUP2 MSTORE PUSH1 0x20 ADD DUP7 DUP2 MSTORE POP PUSH1 0x40 MLOAD PUSH2 0xEC1 SWAP3 SWAP2 SWAP1 PUSH2 0x2718 JUMP JUMPDEST PUSH1 0x40 MLOAD DUP1 SWAP2 SUB SWAP1 LOG1 DUP1 SWAP2 POP POP SWAP3 SWAP2 POP POP JUMP JUMPDEST PUSH1 0x0 PUSH2 0xEDE DUP5 PUSH2 0x1053 JUMP JUMPDEST DUP1 ISZERO PUSH2 0xEEF JUMPI POP PUSH2 0xEEE DUP4 PUSH2 0x113B JUMP JUMPDEST JUMPDEST DUP1 ISZERO PUSH2 0xF00 JUMPI POP PUSH2 0xEFF DUP3 PUSH2 0x113B JUMP JUMPDEST JUMPDEST SWAP1 POP SWAP4 SWAP3 POP POP POP JUMP JUMPDEST PUSH1 0x3 DUP2 DUP2 SLOAD DUP2 LT PUSH2 0xF19 JUMPI PUSH1 0x0 DUP1 REVERT JUMPDEST SWAP1 PUSH1 0x0 MSTORE PUSH1 0x20 PUSH1 0x0 KECCAK256 SWAP1 PUSH1 0x3 MUL ADD PUSH1 0x0 SWAP2 POP SWAP1 POP DUP1 PUSH1 0x0 ADD SLOAD SWAP1 DUP1 PUSH1 0x1 ADD DUP1 SLOAD PUSH2 0xF42 SWAP1 PUSH2 0x218F JUMP JUMPDEST DUP1 PUSH1 0x1F ADD PUSH1 0x20 DUP1 SWAP2 DIV MUL PUSH1 0x20 ADD PUSH1 0x40 MLOAD SWAP1 DUP2 ADD PUSH1 0x40 MSTORE DUP1 SWAP3 SWAP2 SWAP1 DUP2 DUP2 MSTORE PUSH1 0x20 ADD DUP3 DUP1 SLOAD PUSH2 0xF6E SWAP1 PUSH2 0x218F JUMP JUMPDEST DUP1 ISZERO PUSH2 0xFBB JUMPI DUP1 PUSH1 0x1F LT PUSH2 0xF90 JUMPI PUSH2 0x100 DUP1 DUP4 SLOAD DIV MUL DUP4 MSTORE SWAP2 PUSH1 0x20 ADD SWAP2 PUSH2 0xFBB JUMP JUMPDEST DUP3 ADD SWAP2 SWAP1 PUSH1 0x0 MSTORE PUSH1 0x20 PUSH1 0x0 KECCAK256 SWAP1 JUMPDEST DUP2 SLOAD DUP2 MSTORE SWAP1 PUSH1 0x1 ADD SWAP1 PUSH1 0x20 ADD DUP1 DUP4 GT PUSH2 0xF9E JUMPI DUP3 SWAP1 SUB PUSH1 0x1F AND DUP3 ADD SWAP2 JUMPDEST POP POP POP POP POP SWAP1 DUP1 PUSH1 0x2 ADD DUP1 SLOAD PUSH2 0xFD0 SWAP1 PUSH2 0x218F JUMP JUMPDEST DUP1 PUSH1 0x1F ADD PUSH1 0x20 DUP1 SWAP2 DIV MUL PUSH1 0x20 ADD PUSH1 0x40 MLOAD SWAP1 DUP2 ADD PUSH1 0x40 MSTORE DUP1 SWAP3 SWAP2 SWAP1 DUP2 DUP2 MSTORE PUSH1 0x20 ADD DUP3 DUP1 SLOAD PUSH2 0xFFC SWAP1 PUSH2 0x218F JUMP JUMPDEST DUP1 ISZERO PUSH2 0x1049 JUMPI DUP1 PUSH1 0x1F LT PUSH2 0x101E JUMPI PUSH2 0x100 DUP1 DUP4 SLOAD DIV MUL DUP4 MSTORE SWAP2 PUSH1 0x20 ADD SWAP2 PUSH2 0x1049 JUMP JUMPDEST DUP3 ADD SWAP2 SWAP1 PUSH1 0x0 MSTORE PUSH1 0x20 PUSH1 0x0 KECCAK256 SWAP1 JUMPDEST DUP2 SLOAD DUP2 MSTORE SWAP1 PUSH1 0x1 ADD SWAP1 PUSH1 0x20 ADD DUP1 DUP4 GT PUSH2 0x102C JUMPI DUP3 SWAP1 SUB PUSH1 0x1F AND DUP3 ADD SWAP2 JUMPDEST POP POP POP POP POP SWAP1 POP DUP4 JUMP JUMPDEST PUSH1 0x0 DUP1 DUP3 MLOAD GT PUSH2 0x1098 JUMPI PUSH1 0x40 MLOAD PUSH32 0x8C379A000000000000000000000000000000000000000000000000000000000 DUP2 MSTORE PUSH1 0x4 ADD PUSH2 0x108F SWAP1 PUSH2 0x27BA JUMP JUMPDEST PUSH1 0x40 MLOAD DUP1 SWAP2 SUB SWAP1 REVERT JUMPDEST PUSH1 0x4 DUP3 MLOAD GT ISZERO PUSH2 0x10DD JUMPI PUSH1 0x40 MLOAD PUSH32 0x8C379A000000000000000000000000000000000000000000000000000000000 DUP2 MSTORE PUSH1 0x4 ADD PUSH2 0x10D4 SWAP1 PUSH2 0x284C JUMP JUMPDEST PUSH1 0x40 MLOAD DUP1 SWAP2 SUB SWAP1 REVERT JUMPDEST PUSH1 0x0 JUMPDEST DUP3 MLOAD DUP2 LT ISZERO PUSH2 0x1130 JUMPI PUSH1 0x3 DUP1 SLOAD SWAP1 POP DUP4 DUP3 DUP2 MLOAD DUP2 LT PUSH2 0x1102 JUMPI PUSH2 0x1101 PUSH2 0x286C JUMP JUMPDEST JUMPDEST PUSH1 0x20 MUL PUSH1 0x20 ADD ADD MLOAD PUSH2 0xFFFF AND LT PUSH2 0x111D JUMPI PUSH1 0x0 SWAP2 POP POP PUSH2 0x1136 JUMP JUMPDEST DUP1 DUP1 PUSH2 0x1128 SWAP1 PUSH2 0x246D JUMP JUMPDEST SWAP2 POP POP PUSH2 0x10E0 JUMP JUMPDEST POP PUSH1 0x1 SWAP1 POP JUMPDEST SWAP2 SWAP1 POP JUMP JUMPDEST PUSH1 0x0 DUP1 PUSH1 0x0 SWAP1 POP JUMPDEST DUP3 MLOAD DUP2 LT ISZERO PUSH2 0x1192 JUMPI PUSH1 0x4 DUP1 SLOAD SWAP1 POP DUP4 DUP3 DUP2 MLOAD DUP2 LT PUSH2 0x1165 JUMPI PUSH2 0x1164 PUSH2 0x286C JUMP JUMPDEST JUMPDEST PUSH1 0x20 MUL PUSH1 0x20 ADD ADD MLOAD PUSH1 0xFF AND LT PUSH2 0x117F JUMPI PUSH1 0x0 SWAP2 POP POP PUSH2 0x1198 JUMP JUMPDEST DUP1 DUP1 PUSH2 0x118A SWAP1 PUSH2 0x246D JUMP JUMPDEST SWAP2 POP POP PUSH2 0x1143 JUMP JUMPDEST POP PUSH1 0x1 SWAP1 POP JUMPDEST SWAP2 SWAP1 POP JUMP JUMPDEST DUP3 DUP1 SLOAD DUP3 DUP3 SSTORE SWAP1 PUSH1 0x0 MSTORE PUSH1 0x20 PUSH1 0x0 KECCAK256 SWAP1 PUSH1 0xF ADD PUSH1 0x10 SWAP1 DIV DUP2 ADD SWAP3 DUP3 ISZERO PUSH2 0x1236 JUMPI SWAP2 PUSH1 0x20 MUL DUP3 ADD PUSH1 0x0 JUMPDEST DUP4 DUP3 GT ISZERO PUSH2 0x1206 JUMPI DUP4 MLOAD DUP4 DUP3 PUSH2 0x100 EXP DUP2 SLOAD DUP2 PUSH2 0xFFFF MUL NOT AND SWAP1 DUP4 PUSH2 0xFFFF AND MUL OR SWAP1 SSTORE POP SWAP3 PUSH1 0x20 ADD SWAP3 PUSH1 0x2 ADD PUSH1 0x20 DUP2 PUSH1 0x1 ADD DIV SWAP3 DUP4 ADD SWAP3 PUSH1 0x1 SUB MUL PUSH2 0x11C6 JUMP JUMPDEST DUP1 ISZERO PUSH2 0x1234 JUMPI DUP3 DUP2 PUSH2 0x100 EXP DUP2 SLOAD SWAP1 PUSH2 0xFFFF MUL NOT AND SWAP1 SSTORE PUSH1 0x2 ADD PUSH1 0x20 DUP2 PUSH1 0x1 ADD DIV SWAP3 DUP4 ADD SWAP3 PUSH1 0x1 SUB MUL PUSH2 0x1206 JUMP JUMPDEST POP JUMPDEST POP SWAP1 POP PUSH2 0x1243 SWAP2 SWAP1 PUSH2 0x12EE JUMP JUMPDEST POP SWAP1 JUMP JUMPDEST DUP3 DUP1 SLOAD DUP3 DUP3 SSTORE SWAP1 PUSH1 0x0 MSTORE PUSH1 0x20 PUSH1 0x0 KECCAK256 SWAP1 PUSH1 0x1F ADD PUSH1 0x20 SWAP1 DIV DUP2 ADD SWAP3 DUP3 ISZERO PUSH2 0x12DD JUMPI SWAP2 PUSH1 0x20 MUL DUP3 ADD PUSH1 0x0 JUMPDEST DUP4 DUP3 GT ISZERO PUSH2 0x12AE JUMPI DUP4 MLOAD DUP4 DUP3 PUSH2 0x100 EXP DUP2 SLOAD DUP2 PUSH1 0xFF MUL NOT AND SWAP1 DUP4 PUSH1 0xFF AND MUL OR SWAP1 SSTORE POP SWAP3 PUSH1 0x20 ADD SWAP3 PUSH1 0x1 ADD PUSH1 0x20 DUP2 PUSH1 0x0 ADD DIV SWAP3 DUP4 ADD SWAP3 PUSH1 0x1 SUB MUL PUSH2 0x1270 JUMP JUMPDEST DUP1 ISZERO PUSH2 0x12DB JUMPI DUP3 DUP2 PUSH2 0x100 EXP DUP2 SLOAD SWAP1 PUSH1 0xFF MUL NOT AND SWAP1 SSTORE PUSH1 0x1 ADD PUSH1 0x20 DUP2 PUSH1 0x0 ADD DIV SWAP3 DUP4 ADD SWAP3 PUSH1 0x1 SUB MUL PUSH2 0x12AE JUMP JUMPDEST POP JUMPDEST POP SWAP1 POP PUSH2 0x12EA SWAP2 SWAP1 PUSH2 0x12EE JUMP JUMPDEST POP SWAP1 JUMP JUMPDEST JUMPDEST DUP1 DUP3 GT ISZERO PUSH2 0x1307 JUMPI PUSH1 0x0 DUP2 PUSH1 0x0 SWAP1 SSTORE POP PUSH1 0x1 ADD PUSH2 0x12EF JUMP JUMPDEST POP SWAP1 JUMP JUMPDEST PUSH1 0x0 PUSH1 0x40 MLOAD SWAP1 POP SWAP1 JUMP JUMPDEST PUSH1 0x0 DUP1 REVERT JUMPDEST PUSH1 0x0 DUP1 REVERT JUMPDEST PUSH1 0x0 DUP1 REVERT JUMPDEST PUSH1 0x0 DUP1 REVERT JUMPDEST PUSH1 0x0 DUP1 REVERT JUMPDEST PUSH1 0x0 DUP1 DUP4 PUSH1 0x1F DUP5 ADD SLT PUSH2 0x1344 JUMPI PUSH2 0x1343 PUSH2 0x131F JUMP JUMPDEST JUMPDEST DUP3 CALLDATALOAD SWAP1 POP PUSH8 0xFFFFFFFFFFFFFFFF DUP2 GT ISZERO PUSH2 0x1361 JUMPI PUSH2 0x1360 PUSH2 0x1324 JUMP JUMPDEST JUMPDEST PUSH1 0x20 DUP4 ADD SWAP2 POP DUP4 PUSH1 0x1 DUP3 MUL DUP4 ADD GT ISZERO PUSH2 0x137D JUMPI PUSH2 0x137C PUSH2 0x1329 JUMP JUMPDEST JUMPDEST SWAP3 POP SWAP3 SWAP1 POP JUMP JUMPDEST PUSH1 0x0 DUP2 SWAP1 POP SWAP2 SWAP1 POP JUMP JUMPDEST PUSH2 0x1397 DUP2 PUSH2 0x1384 JUMP JUMPDEST DUP2 EQ PUSH2 0x13A2 JUMPI PUSH1 0x0 DUP1 REVERT JUMPDEST POP JUMP JUMPDEST PUSH1 0x0 DUP2 CALLDATALOAD SWAP1 POP PUSH2 0x13B4 DUP2 PUSH2 0x138E JUMP JUMPDEST SWAP3 SWAP2 POP POP JUMP JUMPDEST PUSH1 0x0 DUP1 DUP4 PUSH1 0x1F DUP5 ADD SLT PUSH2 0x13D0 JUMPI PUSH2 0x13CF PUSH2 0x131F JUMP JUMPDEST JUMPDEST DUP3 CALLDATALOAD SWAP1 POP PUSH8 0xFFFFFFFFFFFFFFFF DUP2 GT ISZERO PUSH2 0x13ED JUMPI PUSH2 0x13EC PUSH2 0x1324 JUMP JUMPDEST JUMPDEST PUSH1 0x20 DUP4 ADD SWAP2 POP DUP4 PUSH1 0x20 DUP3 MUL DUP4 ADD GT ISZERO PUSH2 0x1409 JUMPI PUSH2 0x1408 PUSH2 0x1329 JUMP JUMPDEST JUMPDEST SWAP3 POP SWAP3 SWAP1 POP JUMP JUMPDEST PUSH1 0x0 DUP1 DUP4 PUSH1 0x1F DUP5 ADD SLT PUSH2 0x1426 JUMPI PUSH2 0x1425 PUSH2 0x131F JUMP JUMPDEST JUMPDEST DUP3 CALLDATALOAD SWAP1 POP PUSH8 0xFFFFFFFFFFFFFFFF DUP2 GT ISZERO PUSH2 0x1443 JUMPI PUSH2 0x1442 PUSH2 0x1324 JUMP JUMPDEST JUMPDEST PUSH1 0x20 DUP4 ADD SWAP2 POP DUP4 PUSH1 0x20 DUP3 MUL DUP4 ADD GT ISZERO PUSH2 0x145F JUMPI PUSH2 0x145E PUSH2 0x1329 JUMP JUMPDEST JUMPDEST SWAP3 POP SWAP3 SWAP1 POP JUMP JUMPDEST PUSH1 0x0 DUP1 PUSH1 0x0 DUP1 PUSH1 0x0 DUP1 PUSH1 0x0 DUP1 PUSH1 0x0 PUSH1 0xA0 DUP11 DUP13 SUB SLT ISZERO PUSH2 0x1488 JUMPI PUSH2 0x1487 PUSH2 0x1315 JUMP JUMPDEST JUMPDEST PUSH1 0x0 DUP11 ADD CALLDATALOAD PUSH8 0xFFFFFFFFFFFFFFFF DUP2 GT ISZERO PUSH2 0x14A6 JUMPI PUSH2 0x14A5 PUSH2 0x131A JUMP JUMPDEST JUMPDEST PUSH2 0x14B2 DUP13 DUP3 DUP14 ADD PUSH2 0x132E JUMP JUMPDEST SWAP10 POP SWAP10 POP POP PUSH1 0x20 PUSH2 0x14C5 DUP13 DUP3 DUP14 ADD PUSH2 0x13A5 JUMP JUMPDEST SWAP8 POP POP PUSH1 0x40 DUP11 ADD CALLDATALOAD PUSH8 0xFFFFFFFFFFFFFFFF DUP2 GT ISZERO PUSH2 0x14E6 JUMPI PUSH2 0x14E5 PUSH2 0x131A JUMP JUMPDEST JUMPDEST PUSH2 0x14F2 DUP13 DUP3 DUP14 ADD PUSH2 0x13BA JUMP JUMPDEST SWAP7 POP SWAP7 POP POP PUSH1 0x60 DUP11 ADD CALLDATALOAD PUSH8 0xFFFFFFFFFFFFFFFF DUP2 GT ISZERO PUSH2 0x1515 JUMPI PUSH2 0x1514 PUSH2 0x131A JUMP JUMPDEST JUMPDEST PUSH2 0x1521 DUP13 DUP3 DUP14 ADD PUSH2 0x1410 JUMP JUMPDEST SWAP5 POP SWAP5 POP POP PUSH1 0x80 DUP11 ADD CALLDATALOAD PUSH8 0xFFFFFFFFFFFFFFFF DUP2 GT ISZERO PUSH2 0x1544 JUMPI PUSH2 0x1543 PUSH2 0x131A JUMP JUMPDEST JUMPDEST PUSH2 0x1550 DUP13 DUP3 DUP14 ADD PUSH2 0x1410 JUMP JUMPDEST SWAP3 POP SWAP3 POP POP SWAP3 SWAP6 SWAP9 POP SWAP3 SWAP6 SWAP9 POP SWAP3 SWAP6 SWAP9 JUMP JUMPDEST PUSH1 0x0 PUSH1 0x20 DUP3 DUP5 SUB SLT ISZERO PUSH2 0x1578 JUMPI PUSH2 0x1577 PUSH2 0x1315 JUMP JUMPDEST JUMPDEST PUSH1 0x0 PUSH2 0x1586 DUP5 DUP3 DUP6 ADD PUSH2 0x13A5 JUMP JUMPDEST SWAP2 POP POP SWAP3 SWAP2 POP POP JUMP JUMPDEST PUSH1 0x0 PUSH20 0xFFFFFFFFFFFFFFFFFFFFFFFFFFFFFFFFFFFFFFFF DUP3 AND SWAP1 POP SWAP2 SWAP1 POP JUMP JUMPDEST PUSH1 0x0 PUSH2 0x15BA DUP3 PUSH2 0x158F JUMP JUMPDEST SWAP1 POP SWAP2 SWAP1 POP JUMP JUMPDEST PUSH2 0x15CA DUP2 PUSH2 0x15AF JUMP JUMPDEST DUP3 MSTORE POP POP JUMP JUMPDEST PUSH1 0x0 PUSH1 0x20 DUP3 ADD SWAP1 POP PUSH2 0x15E5 PUSH1 0x0 DUP4 ADD DUP5 PUSH2 0x15C1 JUMP JUMPDEST SWAP3 SWAP2 POP POP JUMP JUMPDEST PUSH1 0x0 DUP1 REVERT JUMPDEST PUSH1 0x0 PUSH1 0x1F NOT PUSH1 0x1F DUP4 ADD AND SWAP1 POP SWAP2 SWAP1 POP JUMP JUMPDEST PUSH32 0x4E487B7100000000000000000000000000000000000000000000000000000000 PUSH1 0x0 MSTORE PUSH1 0x41 PUSH1 0x4 MSTORE PUSH1 0x24 PUSH1 0x0 REVERT JUMPDEST PUSH2 0x1639 DUP3 PUSH2 0x15F0 JUMP JUMPDEST DUP2 ADD DUP2 DUP2 LT PUSH8 0xFFFFFFFFFFFFFFFF DUP3 GT OR ISZERO PUSH2 0x1658 JUMPI PUSH2 0x1657 PUSH2 0x1601 JUMP JUMPDEST JUMPDEST DUP1 PUSH1 0x40 MSTORE POP POP POP JUMP JUMPDEST PUSH1 0x0 PUSH2 0x166B PUSH2 0x130B JUMP JUMPDEST SWAP1 POP PUSH2 0x1677 DUP3 DUP3 PUSH2 0x1630 JUMP JUMPDEST SWAP2 SWAP1 POP JUMP JUMPDEST PUSH1 0x0 PUSH8 0xFFFFFFFFFFFFFFFF DUP3 GT ISZERO PUSH2 0x1697 JUMPI PUSH2 0x1696 PUSH2 0x1601 JUMP JUMPDEST JUMPDEST PUSH2 0x16A0 DUP3 PUSH2 0x15F0 JUMP JUMPDEST SWAP1 POP PUSH1 0x20 DUP2 ADD SWAP1 POP SWAP2 SWAP1 POP JUMP JUMPDEST DUP3 DUP2 DUP4 CALLDATACOPY PUSH1 0x0 DUP4 DUP4 ADD MSTORE POP POP POP JUMP JUMPDEST PUSH1 0x0 PUSH2 0x16CF PUSH2 0x16CA DUP5 PUSH2 0x167C JUMP JUMPDEST PUSH2 0x1661 JUMP JUMPDEST SWAP1 POP DUP3 DUP2 MSTORE PUSH1 0x20 DUP2 ADD DUP5 DUP5 DUP5 ADD GT ISZERO PUSH2 0x16EB JUMPI PUSH2 0x16EA PUSH2 0x15EB JUMP JUMPDEST JUMPDEST PUSH2 0x16F6 DUP5 DUP3 DUP6 PUSH2 0x16AD JUMP JUMPDEST POP SWAP4 SWAP3 POP POP POP JUMP JUMPDEST PUSH1 0x0 DUP3 PUSH1 0x1F DUP4 ADD SLT PUSH2 0x1713 JUMPI PUSH2 0x1712 PUSH2 0x131F JUMP JUMPDEST JUMPDEST DUP2 CALLDATALOAD PUSH2 0x1723 DUP5 DUP3 PUSH1 0x20 DUP7 ADD PUSH2 0x16BC JUMP JUMPDEST SWAP2 POP POP SWAP3 SWAP2 POP POP JUMP JUMPDEST PUSH1 0x0 DUP1 PUSH1 0x40 DUP4 DUP6 SUB SLT ISZERO PUSH2 0x1743 JUMPI PUSH2 0x1742 PUSH2 0x1315 JUMP JUMPDEST JUMPDEST PUSH1 0x0 DUP4 ADD CALLDATALOAD PUSH8 0xFFFFFFFFFFFFFFFF DUP2 GT ISZERO PUSH2 0x1761 JUMPI PUSH2 0x1760 PUSH2 0x131A JUMP JUMPDEST JUMPDEST PUSH2 0x176D DUP6 DUP3 DUP7 ADD PUSH2 0x16FE JUMP JUMPDEST SWAP3 POP POP PUSH1 0x20 DUP4 ADD CALLDATALOAD PUSH8 0xFFFFFFFFFFFFFFFF DUP2 GT ISZERO PUSH2 0x178E JUMPI PUSH2 0x178D PUSH2 0x131A JUMP JUMPDEST JUMPDEST PUSH2 0x179A DUP6 DUP3 DUP7 ADD PUSH2 0x16FE JUMP JUMPDEST SWAP2 POP POP SWAP3 POP SWAP3 SWAP1 POP JUMP JUMPDEST PUSH2 0x17AD DUP2 PUSH2 0x1384 JUMP JUMPDEST DUP3 MSTORE POP POP JUMP JUMPDEST PUSH1 0x0 PUSH1 0x20 DUP3 ADD SWAP1 POP PUSH2 0x17C8 PUSH1 0x0 DUP4 ADD DUP5 PUSH2 0x17A4 JUMP JUMPDEST SWAP3 SWAP2 POP POP JUMP JUMPDEST PUSH1 0x0 DUP2 MLOAD SWAP1 POP SWAP2 SWAP1 POP JUMP JUMPDEST PUSH1 0x0 DUP3 DUP3 MSTORE PUSH1 0x20 DUP3 ADD SWAP1 POP SWAP3 SWAP2 POP POP JUMP JUMPDEST PUSH1 0x0 DUP2 SWAP1 POP PUSH1 0x20 DUP3 ADD SWAP1 POP SWAP2 SWAP1 POP JUMP JUMPDEST PUSH2 0x1803 DUP2 PUSH2 0x1384 JUMP JUMPDEST DUP3 MSTORE POP POP JUMP JUMPDEST PUSH1 0x0 DUP2 MLOAD SWAP1 POP SWAP2 SWAP1 POP JUMP JUMPDEST PUSH1 0x0 DUP3 DUP3 MSTORE PUSH1 0x20 DUP3 ADD SWAP1 POP SWAP3 SWAP2 POP POP JUMP JUMPDEST PUSH1 0x0 JUMPDEST DUP4 DUP2 LT ISZERO PUSH2 0x1843 JUMPI DUP1 DUP3 ADD MLOAD DUP2 DUP5 ADD MSTORE PUSH1 0x20 DUP2 ADD SWAP1 POP PUSH2 0x1828 JUMP JUMPDEST PUSH1 0x0 DUP5 DUP5 ADD MSTORE POP POP POP POP JUMP JUMPDEST PUSH1 0x0 PUSH2 0x185A DUP3 PUSH2 0x1809 JUMP JUMPDEST PUSH2 0x1864 DUP2 DUP6 PUSH2 0x1814 JUMP JUMPDEST SWAP4 POP PUSH2 0x1874 DUP2 DUP6 PUSH1 0x20 DUP7 ADD PUSH2 0x1825 JUMP JUMPDEST PUSH2 0x187D DUP2 PUSH2 0x15F0 JUMP JUMPDEST DUP5 ADD SWAP2 POP POP SWAP3 SWAP2 POP POP JUMP JUMPDEST PUSH1 0x0 DUP2 MLOAD SWAP1 POP SWAP2 SWAP1 POP JUMP JUMPDEST PUSH1 0x0 DUP3 DUP3 MSTORE PUSH1 0x20 DUP3 ADD SWAP1 POP SWAP3 SWAP2 POP POP JUMP JUMPDEST PUSH1 0x0 DUP2 SWAP1 POP PUSH1 0x20 DUP3 ADD SWAP1 POP SWAP2 SWAP1 POP JUMP JUMPDEST PUSH1 0x0 PUSH2 0xFFFF DUP3 AND SWAP1 POP SWAP2 SWAP1 POP JUMP JUMPDEST PUSH2 0x18CB DUP2 PUSH2 0x18B4 JUMP JUMPDEST DUP3 MSTORE POP POP JUMP JUMPDEST PUSH1 0x0 PUSH2 0x18DD DUP4 DUP4 PUSH2 0x18C2 JUMP JUMPDEST PUSH1 0x20 DUP4 ADD SWAP1 POP SWAP3 SWAP2 POP POP JUMP JUMPDEST PUSH1 0x0 PUSH1 0x20 DUP3 ADD SWAP1 POP SWAP2 SWAP1 POP JUMP JUMPDEST PUSH1 0x0 PUSH2 0x1901 DUP3 PUSH2 0x1888 JUMP JUMPDEST PUSH2 0x190B DUP2 DUP6 PUSH2 0x1893 JUMP JUMPDEST SWAP4 POP PUSH2 0x1916 DUP4 PUSH2 0x18A4 JUMP JUMPDEST DUP1 PUSH1 0x0 JUMPDEST DUP4 DUP2 LT ISZERO PUSH2 0x1947 JUMPI DUP2 MLOAD PUSH2 0x192E DUP9 DUP3 PUSH2 0x18D1 JUMP JUMPDEST SWAP8 POP PUSH2 0x1939 DUP4 PUSH2 0x18E9 JUMP JUMPDEST SWAP3 POP POP PUSH1 0x1 DUP2 ADD SWAP1 POP PUSH2 0x191A JUMP JUMPDEST POP DUP6 SWAP4 POP POP POP POP SWAP3 SWAP2 POP POP JUMP JUMPDEST PUSH1 0x0 DUP2 MLOAD SWAP1 POP SWAP2 SWAP1 POP JUMP JUMPDEST PUSH1 0x0 DUP3 DUP3 MSTORE PUSH1 0x20 DUP3 ADD SWAP1 POP SWAP3 SWAP2 POP POP JUMP JUMPDEST PUSH1 0x0 DUP2 SWAP1 POP PUSH1 0x20 DUP3 ADD SWAP1 POP SWAP2 SWAP1 POP JUMP JUMPDEST PUSH1 0x0 PUSH1 0xFF DUP3 AND SWAP1 POP SWAP2 SWAP1 POP JUMP JUMPDEST PUSH2 0x1996 DUP2 PUSH2 0x1980 JUMP JUMPDEST DUP3 MSTORE POP POP JUMP JUMPDEST PUSH1 0x0 PUSH2 0x19A8 DUP4 DUP4 PUSH2 0x198D JUMP JUMPDEST PUSH1 0x20 DUP4 ADD SWAP1 POP SWAP3 SWAP2 POP POP JUMP JUMPDEST PUSH1 0x0 PUSH1 0x20 DUP3 ADD SWAP1 POP SWAP2 SWAP1 POP JUMP JUMPDEST PUSH1 0x0 PUSH2 0x19CC DUP3 PUSH2 0x1954 JUMP JUMPDEST PUSH2 0x19D6 DUP2 DUP6 PUSH2 0x195F JUMP JUMPDEST SWAP4 POP PUSH2 0x19E1 DUP4 PUSH2 0x1970 JUMP JUMPDEST DUP1 PUSH1 0x0 JUMPDEST DUP4 DUP2 LT ISZERO PUSH2 0x1A12 JUMPI DUP2 MLOAD PUSH2 0x19F9 DUP9 DUP3 PUSH2 0x199C JUMP JUMPDEST SWAP8 POP PUSH2 0x1A04 DUP4 PUSH2 0x19B4 JUMP JUMPDEST SWAP3 POP POP PUSH1 0x1 DUP2 ADD SWAP1 POP PUSH2 0x19E5 JUMP JUMPDEST POP DUP6 SWAP4 POP POP POP POP SWAP3 SWAP2 POP POP JUMP JUMPDEST PUSH1 0x0 PUSH1 0xA0 DUP4 ADD PUSH1 0x0 DUP4 ADD MLOAD PUSH2 0x1A37 PUSH1 0x0 DUP7 ADD DUP3 PUSH2 0x17FA JUMP JUMPDEST POP PUSH1 0x20 DUP4 ADD MLOAD DUP5 DUP3 SUB PUSH1 0x20 DUP7 ADD MSTORE PUSH2 0x1A4F DUP3 DUP3 PUSH2 0x184F JUMP JUMPDEST SWAP2 POP POP PUSH1 0x40 DUP4 ADD MLOAD DUP5 DUP3 SUB PUSH1 0x40 DUP7 ADD MSTORE PUSH2 0x1A69 DUP3 DUP3 PUSH2 0x18F6 JUMP JUMPDEST SWAP2 POP POP PUSH1 0x60 DUP4 ADD MLOAD DUP5 DUP3 SUB PUSH1 0x60 DUP7 ADD MSTORE PUSH2 0x1A83 DUP3 DUP3 PUSH2 0x19C1 JUMP JUMPDEST SWAP2 POP POP PUSH1 0x80 DUP4 ADD MLOAD DUP5 DUP3 SUB PUSH1 0x80 DUP7 ADD MSTORE PUSH2 0x1A9D DUP3 DUP3 PUSH2 0x19C1 JUMP JUMPDEST SWAP2 POP POP DUP1 SWAP2 POP POP SWAP3 SWAP2 POP POP JUMP JUMPDEST PUSH1 0x0 PUSH2 0x1AB6 DUP4 DUP4 PUSH2 0x1A1F JUMP JUMPDEST SWAP1 POP SWAP3 SWAP2 POP POP JUMP JUMPDEST PUSH1 0x0 PUSH1 0x20 DUP3 ADD SWAP1 POP SWAP2 SWAP1 POP JUMP JUMPDEST PUSH1 0x0 PUSH2 0x1AD6 DUP3 PUSH2 0x17CE JUMP JUMPDEST PUSH2 0x1AE0 DUP2 DUP6 PUSH2 0x17D9 JUMP JUMPDEST SWAP4 POP DUP4 PUSH1 0x20 DUP3 MUL DUP6 ADD PUSH2 0x1AF2 DUP6 PUSH2 0x17EA JUMP JUMPDEST DUP1 PUSH1 0x0 JUMPDEST DUP6 DUP2 LT ISZERO PUSH2 0x1B2E JUMPI DUP5 DUP5 SUB DUP10 MSTORE DUP2 MLOAD PUSH2 0x1B0F DUP6 DUP3 PUSH2 0x1AAA JUMP JUMPDEST SWAP5 POP PUSH2 0x1B1A DUP4 PUSH2 0x1ABE JUMP JUMPDEST SWAP3 POP PUSH1 0x20 DUP11 ADD SWAP10 POP POP PUSH1 0x1 DUP2 ADD SWAP1 POP PUSH2 0x1AF6 JUMP JUMPDEST POP DUP3 SWAP8 POP DUP8 SWAP6 POP POP POP POP POP POP SWAP3 SWAP2 POP POP JUMP JUMPDEST PUSH1 0x0 PUSH1 0x20 DUP3 ADD SWAP1 POP DUP2 DUP2 SUB PUSH1 0x0 DUP4 ADD MSTORE PUSH2 0x1B5A DUP2 DUP5 PUSH2 0x1ACB JUMP JUMPDEST SWAP1 POP SWAP3 SWAP2 POP POP JUMP JUMPDEST PUSH1 0x0 DUP3 DUP3 MSTORE PUSH1 0x20 DUP3 ADD SWAP1 POP SWAP3 SWAP2 POP POP JUMP JUMPDEST PUSH1 0x0 PUSH2 0x1B7E DUP3 PUSH2 0x1809 JUMP JUMPDEST PUSH2 0x1B88 DUP2 DUP6 PUSH2 0x1B62 JUMP JUMPDEST SWAP4 POP PUSH2 0x1B98 DUP2 DUP6 PUSH1 0x20 DUP7 ADD PUSH2 0x1825 JUMP JUMPDEST PUSH2 0x1BA1 DUP2 PUSH2 0x15F0 JUMP JUMPDEST DUP5 ADD SWAP2 POP POP SWAP3 SWAP2 POP POP JUMP JUMPDEST PUSH1 0x0 PUSH1 0x60 DUP3 ADD SWAP1 POP PUSH2 0x1BC1 PUSH1 0x0 DUP4 ADD DUP7 PUSH2 0x17A4 JUMP JUMPDEST DUP2 DUP2 SUB PUSH1 0x20 DUP4 ADD MSTORE PUSH2 0x1BD3 DUP2 DUP6 PUSH2 0x1B73 JUMP JUMPDEST SWAP1 POP DUP2 DUP2 SUB PUSH1 0x40 DUP4 ADD MSTORE PUSH2 0x1BE7 DUP2 DUP5 PUSH2 0x1B73 JUMP JUMPDEST SWAP1 POP SWAP5 SWAP4 POP POP POP POP JUMP JUMPDEST PUSH1 0x0 PUSH8 0xFFFFFFFFFFFFFFFF DUP3 GT ISZERO PUSH2 0x1C0C JUMPI PUSH2 0x1C0B PUSH2 0x1601 JUMP JUMPDEST JUMPDEST PUSH1 0x20 DUP3 MUL SWAP1 POP PUSH1 0x20 DUP2 ADD SWAP1 POP SWAP2 SWAP1 POP JUMP JUMPDEST PUSH2 0x1C26 DUP2 PUSH2 0x18B4 JUMP JUMPDEST DUP2 EQ PUSH2 0x1C31 JUMPI PUSH1 0x0 DUP1 REVERT JUMPDEST POP JUMP JUMPDEST PUSH1 0x0 DUP2 CALLDATALOAD SWAP1 POP PUSH2 0x1C43 DUP2 PUSH2 0x1C1D JUMP JUMPDEST SWAP3 SWAP2 POP POP JUMP JUMPDEST PUSH1 0x0 PUSH2 0x1C5C PUSH2 0x1C57 DUP5 PUSH2 0x1BF1 JUMP JUMPDEST PUSH2 0x1661 JUMP JUMPDEST SWAP1 POP DUP1 DUP4 DUP3 MSTORE PUSH1 0x20 DUP3 ADD SWAP1 POP PUSH1 0x20 DUP5 MUL DUP4 ADD DUP6 DUP2 GT ISZERO PUSH2 0x1C7F JUMPI PUSH2 0x1C7E PUSH2 0x1329 JUMP JUMPDEST JUMPDEST DUP4 JUMPDEST DUP2 DUP2 LT ISZERO PUSH2 0x1CA8 JUMPI DUP1 PUSH2 0x1C94 DUP9 DUP3 PUSH2 0x1C34 JUMP JUMPDEST DUP5 MSTORE PUSH1 0x20 DUP5 ADD SWAP4 POP POP PUSH1 0x20 DUP2 ADD SWAP1 POP PUSH2 0x1C81 JUMP JUMPDEST POP POP POP SWAP4 SWAP3 POP POP POP JUMP JUMPDEST PUSH1 0x0 DUP3 PUSH1 0x1F DUP4 ADD SLT PUSH2 0x1CC7 JUMPI PUSH2 0x1CC6 PUSH2 0x131F JUMP JUMPDEST JUMPDEST DUP2 CALLDATALOAD PUSH2 0x1CD7 DUP5 DUP3 PUSH1 0x20 DUP7 ADD PUSH2 0x1C49 JUMP JUMPDEST SWAP2 POP POP SWAP3 SWAP2 POP POP JUMP JUMPDEST PUSH1 0x0 PUSH8 0xFFFFFFFFFFFFFFFF DUP3 GT ISZERO PUSH2 0x1CFB JUMPI PUSH2 0x1CFA PUSH2 0x1601 JUMP JUMPDEST JUMPDEST PUSH1 0x20 DUP3 MUL SWAP1 POP PUSH1 0x20 DUP2 ADD SWAP1 POP SWAP2 SWAP1 POP JUMP JUMPDEST PUSH2 0x1D15 DUP2 PUSH2 0x1980 JUMP JUMPDEST DUP2 EQ PUSH2 0x1D20 JUMPI PUSH1 0x0 DUP1 REVERT JUMPDEST POP JUMP JUMPDEST PUSH1 0x0 DUP2 CALLDATALOAD SWAP1 POP PUSH2 0x1D32 DUP2 PUSH2 0x1D0C JUMP JUMPDEST SWAP3 SWAP2 POP POP JUMP JUMPDEST PUSH1 0x0 PUSH2 0x1D4B PUSH2 0x1D46 DUP5 PUSH2 0x1CE0 JUMP JUMPDEST PUSH2 0x1661 JUMP JUMPDEST SWAP1 POP DUP1 DUP4 DUP3 MSTORE PUSH1 0x20 DUP3 ADD SWAP1 POP PUSH1 0x20 DUP5 MUL DUP4 ADD DUP6 DUP2 GT ISZERO PUSH2 0x1D6E JUMPI PUSH2 0x1D6D PUSH2 0x1329 JUMP JUMPDEST JUMPDEST DUP4 JUMPDEST DUP2 DUP2 LT ISZERO PUSH2 0x1D97 JUMPI DUP1 PUSH2 0x1D83 DUP9 DUP3 PUSH2 0x1D23 JUMP JUMPDEST DUP5 MSTORE PUSH1 0x20 DUP5 ADD SWAP4 POP POP PUSH1 0x20 DUP2 ADD SWAP1 POP PUSH2 0x1D70 JUMP JUMPDEST POP POP POP SWAP4 SWAP3 POP POP POP JUMP JUMPDEST PUSH1 0x0 DUP3 PUSH1 0x1F DUP4 ADD SLT PUSH2 0x1DB6 JUMPI PUSH2 0x1DB5 PUSH2 0x131F JUMP JUMPDEST JUMPDEST DUP2 CALLDATALOAD PUSH2 0x1DC6 DUP5 DUP3 PUSH1 0x20 DUP7 ADD PUSH2 0x1D38 JUMP JUMPDEST SWAP2 POP POP SWAP3 SWAP2 POP POP JUMP JUMPDEST PUSH1 0x0 DUP1 PUSH1 0x0 PUSH1 0x60 DUP5 DUP7 SUB SLT ISZERO PUSH2 0x1DE8 JUMPI PUSH2 0x1DE7 PUSH2 0x1315 JUMP JUMPDEST JUMPDEST PUSH1 0x0 DUP5 ADD CALLDATALOAD PUSH8 0xFFFFFFFFFFFFFFFF DUP2 GT ISZERO PUSH2 0x1E06 JUMPI PUSH2 0x1E05 PUSH2 0x131A JUMP JUMPDEST JUMPDEST PUSH2 0x1E12 DUP7 DUP3 DUP8 ADD PUSH2 0x1CB2 JUMP JUMPDEST SWAP4 POP POP PUSH1 0x20 DUP5 ADD CALLDATALOAD PUSH8 0xFFFFFFFFFFFFFFFF DUP2 GT ISZERO PUSH2 0x1E33 JUMPI PUSH2 0x1E32 PUSH2 0x131A JUMP JUMPDEST JUMPDEST PUSH2 0x1E3F DUP7 DUP3 DUP8 ADD PUSH2 0x1DA1 JUMP JUMPDEST SWAP3 POP POP PUSH1 0x40 DUP5 ADD CALLDATALOAD PUSH8 0xFFFFFFFFFFFFFFFF DUP2 GT ISZERO PUSH2 0x1E60 JUMPI PUSH2 0x1E5F PUSH2 0x131A JUMP JUMPDEST JUMPDEST PUSH2 0x1E6C DUP7 DUP3 DUP8 ADD PUSH2 0x1DA1 JUMP JUMPDEST SWAP2 POP POP SWAP3 POP SWAP3 POP SWAP3 JUMP JUMPDEST PUSH1 0x0 DUP2 ISZERO ISZERO SWAP1 POP SWAP2 SWAP1 POP JUMP JUMPDEST PUSH2 0x1E8B DUP2 PUSH2 0x1E76 JUMP JUMPDEST DUP3 MSTORE POP POP JUMP JUMPDEST PUSH1 0x0 PUSH1 0x20 DUP3 ADD SWAP1 POP PUSH2 0x1EA6 PUSH1 0x0 DUP4 ADD DUP5 PUSH2 0x1E82 JUMP JUMPDEST SWAP3 SWAP2 POP POP JUMP JUMPDEST PUSH32 0x4964206D7573742062652067726561746572207468616E203000000000000000 PUSH1 0x0 DUP3 ADD MSTORE POP JUMP JUMPDEST PUSH1 0x0 PUSH2 0x1EE2 PUSH1 0x19 DUP4 PUSH2 0x1B62 JUMP JUMPDEST SWAP2 POP PUSH2 0x1EED DUP3 PUSH2 0x1EAC JUMP JUMPDEST PUSH1 0x20 DUP3 ADD SWAP1 POP SWAP2 SWAP1 POP JUMP JUMPDEST PUSH1 0x0 PUSH1 0x20 DUP3 ADD SWAP1 POP DUP2 DUP2 SUB PUSH1 0x0 DUP4 ADD MSTORE PUSH2 0x1F11 DUP2 PUSH2 0x1ED5 JUMP JUMPDEST SWAP1 POP SWAP2 SWAP1 POP JUMP JUMPDEST PUSH32 0x4E616D65206D757374206265206174206C656173742032206368617261637465 PUSH1 0x0 DUP3 ADD MSTORE PUSH32 0x7273206C6F6E6700000000000000000000000000000000000000000000000000 PUSH1 0x20 DUP3 ADD MSTORE POP JUMP JUMPDEST PUSH1 0x0 PUSH2 0x1F74 PUSH1 0x27 DUP4 PUSH2 0x1B62 JUMP JUMPDEST SWAP2 POP PUSH2 0x1F7F DUP3 PUSH2 0x1F18 JUMP JUMPDEST PUSH1 0x40 DUP3 ADD SWAP1 POP SWAP2 SWAP1 POP JUMP JUMPDEST PUSH1 0x0 PUSH1 0x20 DUP3 ADD SWAP1 POP DUP2 DUP2 SUB PUSH1 0x0 DUP4 ADD MSTORE PUSH2 0x1FA3 DUP2 PUSH2 0x1F67 JUMP JUMPDEST SWAP1 POP SWAP2 SWAP1 POP JUMP JUMPDEST PUSH32 0x506F6B656D6F6E206D7573742068617665206174206C65617374206F6E652074 PUSH1 0x0 DUP3 ADD MSTORE PUSH32 0x7970650000000000000000000000000000000000000000000000000000000000 PUSH1 0x20 DUP3 ADD MSTORE POP JUMP JUMPDEST PUSH1 0x0 PUSH2 0x2006 PUSH1 0x23 DUP4 PUSH2 0x1B62 JUMP JUMPDEST SWAP2 POP PUSH2 0x2011 DUP3 PUSH2 0x1FAA JUMP JUMPDEST PUSH1 0x40 DUP3 ADD SWAP1 POP SWAP2 SWAP1 POP JUMP JUMPDEST PUSH1 0x0 PUSH1 0x20 DUP3 ADD SWAP1 POP DUP2 DUP2 SUB PUSH1 0x0 DUP4 ADD MSTORE PUSH2 0x2035 DUP2 PUSH2 0x1FF9 JUMP JUMPDEST SWAP1 POP SWAP2 SWAP1 POP JUMP JUMPDEST PUSH32 0x506F6B656D6F6E206D7573742068617665206174206C65617374206F6E652077 PUSH1 0x0 DUP3 ADD MSTORE PUSH32 0x65616B6E65737300000000000000000000000000000000000000000000000000 PUSH1 0x20 DUP3 ADD MSTORE POP JUMP JUMPDEST PUSH1 0x0 PUSH2 0x2098 PUSH1 0x27 DUP4 PUSH2 0x1B62 JUMP JUMPDEST SWAP2 POP PUSH2 0x20A3 DUP3 PUSH2 0x203C JUMP JUMPDEST PUSH1 0x40 DUP3 ADD SWAP1 POP SWAP2 SWAP1 POP JUMP JUMPDEST PUSH1 0x0 PUSH1 0x20 DUP3 ADD SWAP1 POP DUP2 DUP2 SUB PUSH1 0x0 DUP4 ADD MSTORE PUSH2 0x20C7 DUP2 PUSH2 0x208B JUMP JUMPDEST SWAP1 POP SWAP2 SWAP1 POP JUMP JUMPDEST PUSH32 0x506F6B656D6F6E20736B696C6C732C20747970657320616E64207765616B6E65 PUSH1 0x0 DUP3 ADD MSTORE PUSH32 0x73736573206D7573742062652076616C69640000000000000000000000000000 PUSH1 0x20 DUP3 ADD MSTORE POP JUMP JUMPDEST PUSH1 0x0 PUSH2 0x212A PUSH1 0x32 DUP4 PUSH2 0x1B62 JUMP JUMPDEST SWAP2 POP PUSH2 0x2135 DUP3 PUSH2 0x20CE JUMP JUMPDEST PUSH1 0x40 DUP3 ADD SWAP1 POP SWAP2 SWAP1 POP JUMP JUMPDEST PUSH1 0x0 PUSH1 0x20 DUP3 ADD SWAP1 POP DUP2 DUP2 SUB PUSH1 0x0 DUP4 ADD MSTORE PUSH2 0x2159 DUP2 PUSH2 0x211D JUMP JUMPDEST SWAP1 POP SWAP2 SWAP1 POP JUMP JUMPDEST PUSH32 0x4E487B7100000000000000000000000000000000000000000000000000000000 PUSH1 0x0 MSTORE PUSH1 0x22 PUSH1 0x4 MSTORE PUSH1 0x24 PUSH1 0x0 REVERT JUMPDEST PUSH1 0x0 PUSH1 0x2 DUP3 DIV SWAP1 POP PUSH1 0x1 DUP3 AND DUP1 PUSH2 0x21A7 JUMPI PUSH1 0x7F DUP3 AND SWAP2 POP JUMPDEST PUSH1 0x20 DUP3 LT DUP2 SUB PUSH2 0x21BA JUMPI PUSH2 0x21B9 PUSH2 0x2160 JUMP JUMPDEST JUMPDEST POP SWAP2 SWAP1 POP JUMP JUMPDEST PUSH1 0x0 DUP2 SWAP1 POP DUP2 PUSH1 0x0 MSTORE PUSH1 0x20 PUSH1 0x0 KECCAK256 SWAP1 POP SWAP2 SWAP1 POP JUMP JUMPDEST PUSH1 0x0 PUSH1 0x20 PUSH1 0x1F DUP4 ADD DIV SWAP1 POP SWAP2 SWAP1 POP JUMP JUMPDEST PUSH1 0x0 DUP3 DUP3 SHL SWAP1 POP SWAP3 SWAP2 POP POP JUMP JUMPDEST PUSH1 0x0 PUSH1 0x8 DUP4 MUL PUSH2 0x2222 PUSH32 0xFFFFFFFFFFFFFFFFFFFFFFFFFFFFFFFFFFFFFFFFFFFFFFFFFFFFFFFFFFFFFFFF DUP3 PUSH2 0x21E5 JUMP JUMPDEST PUSH2 0x222C DUP7 DUP4 PUSH2 0x21E5 JUMP JUMPDEST SWAP6 POP DUP1 NOT DUP5 AND SWAP4 POP DUP1 DUP7 AND DUP5 OR SWAP3 POP POP POP SWAP4 SWAP3 POP POP POP JUMP JUMPDEST PUSH1 0x0 DUP2 SWAP1 POP SWAP2 SWAP1 POP JUMP JUMPDEST PUSH1 0x0 PUSH2 0x2269 PUSH2 0x2264 PUSH2 0x225F DUP5 PUSH2 0x1384 JUMP JUMPDEST PUSH2 0x2244 JUMP JUMPDEST PUSH2 0x1384 JUMP JUMPDEST SWAP1 POP SWAP2 SWAP1 POP JUMP JUMPDEST PUSH1 0x0 DUP2 SWAP1 POP SWAP2 SWAP1 POP JUMP JUMPDEST PUSH2 0x2283 DUP4 PUSH2 0x224E JUMP JUMPDEST PUSH2 0x2297 PUSH2 0x228F DUP3 PUSH2 0x2270 JUMP JUMPDEST DUP5 DUP5 SLOAD PUSH2 0x21F2 JUMP JUMPDEST DUP3 SSTORE POP POP POP POP JUMP JUMPDEST PUSH1 0x0 SWAP1 JUMP JUMPDEST PUSH2 0x22AC PUSH2 0x229F JUMP JUMPDEST PUSH2 0x22B7 DUP2 DUP5 DUP5 PUSH2 0x227A JUMP JUMPDEST POP POP POP JUMP JUMPDEST JUMPDEST DUP2 DUP2 LT ISZERO PUSH2 0x22DB JUMPI PUSH2 0x22D0 PUSH1 0x0 DUP3 PUSH2 0x22A4 JUMP JUMPDEST PUSH1 0x1 DUP2 ADD SWAP1 POP PUSH2 0x22BD JUMP JUMPDEST POP POP JUMP JUMPDEST PUSH1 0x1F DUP3 GT ISZERO PUSH2 0x2320 JUMPI PUSH2 0x22F1 DUP2 PUSH2 0x21C0 JUMP JUMPDEST PUSH2 0x22FA DUP5 PUSH2 0x21D5 JUMP JUMPDEST DUP2 ADD PUSH1 0x20 DUP6 LT ISZERO PUSH2 0x2309 JUMPI DUP2 SWAP1 POP JUMPDEST PUSH2 0x231D PUSH2 0x2315 DUP6 PUSH2 0x21D5 JUMP JUMPDEST DUP4 ADD DUP3 PUSH2 0x22BC JUMP JUMPDEST POP POP JUMPDEST POP POP POP JUMP JUMPDEST PUSH1 0x0 DUP3 DUP3 SHR SWAP1 POP SWAP3 SWAP2 POP POP JUMP JUMPDEST PUSH1 0x0 PUSH2 0x2343 PUSH1 0x0 NOT DUP5 PUSH1 0x8 MUL PUSH2 0x2325 JUMP JUMPDEST NOT DUP1 DUP4 AND SWAP2 POP POP SWAP3 SWAP2 POP POP JUMP JUMPDEST PUSH1 0x0 PUSH2 0x235C DUP4 DUP4 PUSH2 0x2332 JUMP JUMPDEST SWAP2 POP DUP3 PUSH1 0x2 MUL DUP3 OR SWAP1 POP SWAP3 SWAP2 POP POP JUMP JUMPDEST PUSH2 0x2375 DUP3 PUSH2 0x1809 JUMP JUMPDEST PUSH8 0xFFFFFFFFFFFFFFFF DUP2 GT ISZERO PUSH2 0x238E JUMPI PUSH2 0x238D PUSH2 0x1601 JUMP JUMPDEST JUMPDEST PUSH2 0x2398 DUP3 SLOAD PUSH2 0x218F JUMP JUMPDEST PUSH2 0x23A3 DUP3 DUP3 DUP6 PUSH2 0x22DF JUMP JUMPDEST PUSH1 0x0 PUSH1 0x20 SWAP1 POP PUSH1 0x1F DUP4 GT PUSH1 0x1 DUP2 EQ PUSH2 0x23D6 JUMPI PUSH1 0x0 DUP5 ISZERO PUSH2 0x23C4 JUMPI DUP3 DUP8 ADD MLOAD SWAP1 POP JUMPDEST PUSH2 0x23CE DUP6 DUP3 PUSH2 0x2350 JUMP JUMPDEST DUP7 SSTORE POP PUSH2 0x2436 JUMP JUMPDEST PUSH1 0x1F NOT DUP5 AND PUSH2 0x23E4 DUP7 PUSH2 0x21C0 JUMP JUMPDEST PUSH1 0x0 JUMPDEST DUP3 DUP2 LT ISZERO PUSH2 0x240C JUMPI DUP5 DUP10 ADD MLOAD DUP3 SSTORE PUSH1 0x1 DUP3 ADD SWAP2 POP PUSH1 0x20 DUP6 ADD SWAP5 POP PUSH1 0x20 DUP2 ADD SWAP1 POP PUSH2 0x23E7 JUMP JUMPDEST DUP7 DUP4 LT ISZERO PUSH2 0x2429 JUMPI DUP5 DUP10 ADD MLOAD PUSH2 0x2425 PUSH1 0x1F DUP10 AND DUP3 PUSH2 0x2332 JUMP JUMPDEST DUP4 SSTORE POP JUMPDEST PUSH1 0x1 PUSH1 0x2 DUP9 MUL ADD DUP9 SSTORE POP POP POP JUMPDEST POP POP POP POP POP POP JUMP JUMPDEST PUSH32 0x4E487B7100000000000000000000000000000000000000000000000000000000 PUSH1 0x0 MSTORE PUSH1 0x11 PUSH1 0x4 MSTORE PUSH1 0x24 PUSH1 0x0 REVERT JUMPDEST PUSH1 0x0 PUSH2 0x2478 DUP3 PUSH2 0x1384 JUMP JUMPDEST SWAP2 POP PUSH32 0xFFFFFFFFFFFFFFFFFFFFFFFFFFFFFFFFFFFFFFFFFFFFFFFFFFFFFFFFFFFFFFFF DUP3 SUB PUSH2 0x24AA JUMPI PUSH2 0x24A9 PUSH2 0x243E JUMP JUMPDEST JUMPDEST PUSH1 0x1 DUP3 ADD SWAP1 POP SWAP2 SWAP1 POP JUMP JUMPDEST PUSH1 0x0 PUSH1 0xA0 DUP4 ADD PUSH1 0x0 DUP4 ADD MLOAD PUSH2 0x24CD PUSH1 0x0 DUP7 ADD DUP3 PUSH2 0x17FA JUMP JUMPDEST POP PUSH1 0x20 DUP4 ADD MLOAD DUP5 DUP3 SUB PUSH1 0x20 DUP7 ADD MSTORE PUSH2 0x24E5 DUP3 DUP3 PUSH2 0x184F JUMP JUMPDEST SWAP2 POP POP PUSH1 0x40 DUP4 ADD MLOAD DUP5 DUP3 SUB PUSH1 0x40 DUP7 ADD MSTORE PUSH2 0x24FF DUP3 DUP3 PUSH2 0x18F6 JUMP JUMPDEST SWAP2 POP POP PUSH1 0x60 DUP4 ADD MLOAD DUP5 DUP3 SUB PUSH1 0x60 DUP7 ADD MSTORE PUSH2 0x2519 DUP3 DUP3 PUSH2 0x19C1 JUMP JUMPDEST SWAP2 POP POP PUSH1 0x80 DUP4 ADD MLOAD DUP5 DUP3 SUB PUSH1 0x80 DUP7 ADD MSTORE PUSH2 0x2533 DUP3 DUP3 PUSH2 0x19C1 JUMP JUMPDEST SWAP2 POP POP DUP1 SWAP2 POP POP SWAP3 SWAP2 POP POP JUMP JUMPDEST PUSH1 0x0 PUSH1 0x20 DUP3 ADD SWAP1 POP DUP2 DUP2 SUB PUSH1 0x0 DUP4 ADD MSTORE PUSH2 0x255A DUP2 DUP5 PUSH2 0x24B5 JUMP JUMPDEST SWAP1 POP SWAP3 SWAP2 POP POP JUMP JUMPDEST PUSH32 0x4D6178696D756D206E756D626572206F6620736B696C6C732072656163686564 PUSH1 0x0 DUP3 ADD MSTORE POP JUMP JUMPDEST PUSH1 0x0 PUSH2 0x2598 PUSH1 0x20 DUP4 PUSH2 0x1B62 JUMP JUMPDEST SWAP2 POP PUSH2 0x25A3 DUP3 PUSH2 0x2562 JUMP JUMPDEST PUSH1 0x20 DUP3 ADD SWAP1 POP SWAP2 SWAP1 POP JUMP JUMPDEST PUSH1 0x0 PUSH1 0x20 DUP3 ADD SWAP1 POP DUP2 DUP2 SUB PUSH1 0x0 DUP4 ADD MSTORE PUSH2 0x25C7 DUP2 PUSH2 0x258B JUMP JUMPDEST SWAP1 POP SWAP2 SWAP1 POP JUMP JUMPDEST PUSH1 0x0 PUSH1 0x60 DUP4 ADD PUSH1 0x0 DUP4 ADD MLOAD PUSH2 0x25E6 PUSH1 0x0 DUP7 ADD DUP3 PUSH2 0x17FA JUMP JUMPDEST POP PUSH1 0x20 DUP4 ADD MLOAD DUP5 DUP3 SUB PUSH1 0x20 DUP7 ADD MSTORE PUSH2 0x25FE DUP3 DUP3 PUSH2 0x184F JUMP JUMPDEST SWAP2 POP POP PUSH1 0x40 DUP4 ADD MLOAD DUP5 DUP3 SUB PUSH1 0x40 DUP7 ADD MSTORE PUSH2 0x2618 DUP3 DUP3 PUSH2 0x184F JUMP JUMPDEST SWAP2 POP POP DUP1 SWAP2 POP POP SWAP3 SWAP2 POP POP JUMP JUMPDEST PUSH1 0x0 PUSH1 0x40 DUP3 ADD SWAP1 POP PUSH2 0x263A PUSH1 0x0 DUP4 ADD DUP6 PUSH2 0x17A4 JUMP JUMPDEST DUP2 DUP2 SUB PUSH1 0x20 DUP4 ADD MSTORE PUSH2 0x264C DUP2 DUP5 PUSH2 0x25CE JUMP JUMPDEST SWAP1 POP SWAP4 SWAP3 POP POP POP JUMP JUMPDEST PUSH32 0x4D6178696D756D206E756D626572206F66207479706573207265616368656400 PUSH1 0x0 DUP3 ADD MSTORE POP JUMP JUMPDEST PUSH1 0x0 PUSH2 0x268B PUSH1 0x1F DUP4 PUSH2 0x1B62 JUMP JUMPDEST SWAP2 POP PUSH2 0x2696 DUP3 PUSH2 0x2655 JUMP JUMPDEST PUSH1 0x20 DUP3 ADD SWAP1 POP SWAP2 SWAP1 POP JUMP JUMPDEST PUSH1 0x0 PUSH1 0x20 DUP3 ADD SWAP1 POP DUP2 DUP2 SUB PUSH1 0x0 DUP4 ADD MSTORE PUSH2 0x26BA DUP2 PUSH2 0x267E JUMP JUMPDEST SWAP1 POP SWAP2 SWAP1 POP JUMP JUMPDEST PUSH1 0x0 PUSH1 0x60 DUP4 ADD PUSH1 0x0 DUP4 ADD MLOAD PUSH2 0x26D9 PUSH1 0x0 DUP7 ADD DUP3 PUSH2 0x17FA JUMP JUMPDEST POP PUSH1 0x20 DUP4 ADD MLOAD DUP5 DUP3 SUB PUSH1 0x20 DUP7 ADD MSTORE PUSH2 0x26F1 DUP3 DUP3 PUSH2 0x184F JUMP JUMPDEST SWAP2 POP POP PUSH1 0x40 DUP4 ADD MLOAD DUP5 DUP3 SUB PUSH1 0x40 DUP7 ADD MSTORE PUSH2 0x270B DUP3 DUP3 PUSH2 0x184F JUMP JUMPDEST SWAP2 POP POP DUP1 SWAP2 POP POP SWAP3 SWAP2 POP POP JUMP JUMPDEST PUSH1 0x0 PUSH1 0x40 DUP3 ADD SWAP1 POP PUSH2 0x272D PUSH1 0x0 DUP4 ADD DUP6 PUSH2 0x17A4 JUMP JUMPDEST DUP2 DUP2 SUB PUSH1 0x20 DUP4 ADD MSTORE PUSH2 0x273F DUP2 DUP5 PUSH2 0x26C1 JUMP JUMPDEST SWAP1 POP SWAP4 SWAP3 POP POP POP JUMP JUMPDEST PUSH32 0x506F6B656D6F6E206D7573742068617665206174206C65617374206F6E652073 PUSH1 0x0 DUP3 ADD MSTORE PUSH32 0x6B696C6C00000000000000000000000000000000000000000000000000000000 PUSH1 0x20 DUP3 ADD MSTORE POP JUMP JUMPDEST PUSH1 0x0 PUSH2 0x27A4 PUSH1 0x24 DUP4 PUSH2 0x1B62 JUMP JUMPDEST SWAP2 POP PUSH2 0x27AF DUP3 PUSH2 0x2748 JUMP JUMPDEST PUSH1 0x40 DUP3 ADD SWAP1 POP SWAP2 SWAP1 POP JUMP JUMPDEST PUSH1 0x0 PUSH1 0x20 DUP3 ADD SWAP1 POP DUP2 DUP2 SUB PUSH1 0x0 DUP4 ADD MSTORE PUSH2 0x27D3 DUP2 PUSH2 0x2797 JUMP JUMPDEST SWAP1 POP SWAP2 SWAP1 POP JUMP JUMPDEST PUSH32 0x506F6B656D6F6E206D7573742068617665206174206D6F7374203420736B696C PUSH1 0x0 DUP3 ADD MSTORE PUSH32 0x6C73000000000000000000000000000000000000000000000000000000000000 PUSH1 0x20 DUP3 ADD MSTORE POP JUMP JUMPDEST PUSH1 0x0 PUSH2 0x2836 PUSH1 0x22 DUP4 PUSH2 0x1B62 JUMP JUMPDEST SWAP2 POP PUSH2 0x2841 DUP3 PUSH2 0x27DA JUMP JUMPDEST PUSH1 0x40 DUP3 ADD SWAP1 POP SWAP2 SWAP1 POP JUMP JUMPDEST PUSH1 0x0 PUSH1 0x20 DUP3 ADD SWAP1 POP DUP2 DUP2 SUB PUSH1 0x0 DUP4 ADD MSTORE PUSH2 0x2865 DUP2 PUSH2 0x2829 JUMP JUMPDEST SWAP1 POP SWAP2 SWAP1 POP JUMP JUMPDEST PUSH32 0x4E487B7100000000000000000000000000000000000000000000000000000000 PUSH1 0x0 MSTORE PUSH1 0x32 PUSH1 0x4 MSTORE PUSH1 0x24 PUSH1 0x0 REVERT INVALID LOG2 PUSH5 0x6970667358 0x22 SLT KECCAK256 0xE6 0xB3 SWAP4 0xD2 SSTORE DUP2 PUSH24 0x39655D07B8E1625D38656C2234CA14702E618355D152E7B9 0xB8 PUSH5 0x736F6C6343 STOP ADDMOD SLT STOP CALLER CHAINID PUSH10 0x676874696E6720747970 PUSH6 0x20706F6B656D PUSH16 0x6E20617265207765616B20616761696E PUSH20 0x7420666C79696E6720616E642070737963686963 KECCAK256 PUSH21 0x79706520706F6B656D6F6E54686520746172676574 KECCAK256 PUSH10 0x7320626C617374656420 PUSH24 0x697468206120666F72636566756C2073686F74206F662077 PUSH2 0x7465 PUSH19 0x2E46697265207479706520706F6B656D6F6E20 PUSH2 0x7265 KECCAK256 PUSH24 0x65616B20616761696E737420776174657220616E64206772 PUSH2 0x7373 KECCAK256 PUSH21 0x79706520706F6B656D6F6E456C6563747269632074 PUSH26 0x706520706F6B656D6F6E20617265207765616B20616761696E73 PUSH21 0x2067726F756E64207479706520706F6B656D6F6E47 PUSH19 0x617373207479706520706F6B656D6F6E206172 PUSH6 0x207765616B20 PUSH2 0x6761 PUSH10 0x6E737420666972652061 PUSH15 0x6420696365207479706520706F6B65 PUSH14 0x6F6E546865207461726765742069 PUSH20 0x2073636F7263686564207769746820616E20696E PUSH21 0x656E736520626C617374206F6620666972652E2054 PUSH9 0x6973206D617920616C PUSH20 0x6F206C6561766520746865207461726765742077 PUSH10 0x74682061206275726E2E SLOAD PUSH9 0x652074617267657420 PUSH10 0x732061747461636B6564 KECCAK256 PUSH24 0x69746820736D616C6C20666C616D65732E2054686973206D PUSH2 0x7920 PUSH2 0x6C73 PUSH16 0x206C6561766520746865207461726765 PUSH21 0x20776974682061206275726E2E5761746572207479 PUSH17 0x6520706F6B656D6F6E2061726520776561 PUSH12 0x20616761696E737420677261 PUSH20 0x7320616E6420656C656374726963207479706520 PUSH17 0x6F6B656D6F6E41207265636B6C6573732C KECCAK256 PUSH7 0x756C6C2D626F64 PUSH26 0x206368617267652061747461636B20666F7220736C616D6D696E PUSH8 0x20696E746F207468 PUSH6 0x207461726765 PUSH21 0x2E205468697320616C736F2064616D616765732074 PUSH9 0x652075736572206120 PUSH13 0x6974746C652E54686520746172 PUSH8 0x6574206973206269 PUSH21 0x74656E207769746820766963696F75736C79207368 PUSH2 0x7270 KECCAK256 PUSH7 0x616E67732E2054 PUSH9 0x6973206D617920616C PUSH20 0x6F206D616B65207468652074617267657420666C PUSH10 0x6E63682E546865207461 PUSH19 0x6765742069732073747275636B207769746820 PUSH20 0x6C656E6465722C20776869706C696B652076696E PUSH6 0x7320746F2069 PUSH15 0x666C6963742064616D6167652E4963 PUSH6 0x207479706520 PUSH17 0x6F6B656D6F6E20617265207765616B2061 PUSH8 0x61696E7374206669 PUSH19 0x6520616E64206669676874696E672074797065 KECCAK256 PUSH17 0x6F6B656D6F6E4120706879736963616C20 PUSH2 0x7474 PUSH2 0x636B KECCAK256 PUSH10 0x6E207768696368207468 PUSH6 0x207573657220 PUSH4 0x68617267 PUSH6 0x7320616E6420 PUSH20 0x6C616D7320696E746F2074686520746172676574 KECCAK256 PUSH24 0x697468206974732077686F6C6520626F64792E0000000000 "},"methodIdentifiers":{"createPokemon(string,uint256,uint16[],uint8[],uint8[])":"0ce91906","createPokemonSkill(string,string)":"42dae541","createPokemonType(string,string)":"c8ab8303","getAllPokemons()":"5e916790","pokemonSkills(uint256)":"dfce7dc6","pokemonToOwner(uint256)":"2f7467b3","pokemonTypes(uint256)":"c250736e","verifyPokemon(uint16[],uint8[],uint8[])":"d859e91e"}}}}}