{"contracts/PokemonFactory.sol":{"PokemonFactory":{"abi":[{"anonymous":false,"inputs":[{"indexed":false,"internalType":"uint256","name":"id","type":"uint256"},{"indexed":false,"internalType":"string","name":"name","type":"string"}],"name":"eventNewPokemon","type":"event"},{"inputs":[{"internalType":"string","name":"_name","type":"string"},{"internalType":"uint256","name":"_id","type":"uint256"}],"name":"createPokemon","outputs":[],"stateMutability":"nonpayable","type":"function"},{"inputs":[{"internalType":"string","name":"_Name","type":"string"},{"internalType":"string","name":"_Description","type":"string"},{"internalType":"uint256","name":"_id","type":"uint256"}],"name":"evolutionPokemon","outputs":[],"stateMutability":"nonpayable","type":"function"},{"inputs":[],"name":"getAllPokemons","outputs":[{"components":[{"internalType":"uint256","name":"id","type":"uint256"},{"internalType":"string","name":"name","type":"string"}],"internalType":"struct PokemonFactory.Pokemon[]","name":"","type":"tuple[]"},{"components":[{"internalType":"string","name":"Name","type":"string"},{"internalType":"string","name":"Description","type":"string"}],"internalType":"struct PokemonFactory.Habilities[]","name":"","type":"tuple[]"}],"stateMutability":"view","type":"function"},{"inputs":[],"name":"getResult","outputs":[{"internalType":"uint256","name":"product","type":"uint256"},{"internalType":"uint256","name":"sum","type":"uint256"}],"stateMutability":"pure","type":"function"},{"inputs":[{"internalType":"uint256","name":"","type":"uint256"}],"name":"pokemonToOwner","outputs":[{"internalType":"address","name":"","type":"address"}],"stateMutability":"view","type":"function"}],"evm":{"bytecode":{"linkReferences":{},"object":"608060405234801561001057600080fd5b5061121d806100206000396000f3fe608060405234801561001057600080fd5b50600436106100575760003560e01c80630a3bd50b1461005c5780632f7467b3146100785780635153b338146100a85780635e916790146100c4578063de292789146100e3575b600080fd5b6100766004803603810190610071919061080c565b610102565b005b610092600480360381019061008d9190610868565b6102d2565b60405161009f91906108d6565b60405180910390f35b6100c260048036038101906100bd91906108f1565b610305565b005b6100cc6103ca565b6040516100da929190610c0f565b60405180910390f35b6100eb61064b565b6040516100f9929190610c55565b60405180910390f35b8060008111610146576040517f08c379a000000000000000000000000000000000000000000000000000000000815260040161013d90610d01565b60405180910390fd5b82600281511161018b576040517f08c379a000000000000000000000000000000000000000000000000000000000815260040161018290610d93565b60405180910390fd5b600060405180604001604052808581526020018681525090806001815401808255809150506001900390600052602060002090600202016000909190919091506000820151816000015560208201518160010190816101ea9190610fbf565b505050336002600085815260200190815260200160002060006101000a81548173ffffffffffffffffffffffffffffffffffffffff021916908373ffffffffffffffffffffffffffffffffffffffff160217905550600360003373ffffffffffffffffffffffffffffffffffffffff1673ffffffffffffffffffffffffffffffffffffffff168152602001908152602001600020600081548092919061028f906110c0565b91905055507e570a6686f18a686cdda2f62a7954c6bd78c21f4b33df90b0a5479f5ae8a9a883856040516102c4929190611141565b60405180910390a150505050565b60026020528060005260406000206000915054906101000a900473ffffffffffffffffffffffffffffffffffffffff1681565b60016040518060400160405280858152602001848152509080600181540180825580915050600190039060005260206000209060020201600090919091909150600082015181600001908161035a9190610fbf565b5060208201518160010190816103709190610fbf565b505050336002600083815260200190815260200160002060006101000a81548173ffffffffffffffffffffffffffffffffffffffff021916908373ffffffffffffffffffffffffffffffffffffffff160217905550505050565b6060806000600181805480602002602001604051908101604052809291908181526020016000905b828210156104c057838290600052602060002090600202016040518060400160405290816000820154815260200160018201805461042f90610de2565b80601f016020809104026020016040519081016040528092919081815260200182805461045b90610de2565b80156104a85780601f1061047d576101008083540402835291602001916104a8565b820191906000526020600020905b81548152906001019060200180831161048b57829003601f168201915b505050505081525050815260200190600101906103f2565b50505050915080805480602002602001604051908101604052809291908181526020016000905b8282101561063d578382906000526020600020906002020160405180604001604052908160008201805461051a90610de2565b80601f016020809104026020016040519081016040528092919081815260200182805461054690610de2565b80156105935780601f1061056857610100808354040283529160200191610593565b820191906000526020600020905b81548152906001019060200180831161057657829003601f168201915b505050505081526020016001820180546105ac90610de2565b80601f01602080910402602001604051908101604052809291908181526020018280546105d890610de2565b80156106255780601f106105fa57610100808354040283529160200191610625565b820191906000526020600020905b81548152906001019060200180831161060857829003601f168201915b505050505081525050815260200190600101906104e7565b505050509050915091509091565b60008060006001905060006002905080826106669190611171565b9350808261067491906111b3565b925050509091565b6000604051905090565b600080fd5b600080fd5b600080fd5b600080fd5b6000601f19601f8301169050919050565b7f4e487b7100000000000000000000000000000000000000000000000000000000600052604160045260246000fd5b6106e38261069a565b810181811067ffffffffffffffff82111715610702576107016106ab565b5b80604052505050565b600061071561067c565b905061072182826106da565b919050565b600067ffffffffffffffff821115610741576107406106ab565b5b61074a8261069a565b9050602081019050919050565b82818337600083830152505050565b600061077961077484610726565b61070b565b90508281526020810184848401111561079557610794610695565b5b6107a0848285610757565b509392505050565b600082601f8301126107bd576107bc610690565b5b81356107cd848260208601610766565b91505092915050565b6000819050919050565b6107e9816107d6565b81146107f457600080fd5b50565b600081359050610806816107e0565b92915050565b6000806040838503121561082357610822610686565b5b600083013567ffffffffffffffff8111156108415761084061068b565b5b61084d858286016107a8565b925050602061085e858286016107f7565b9150509250929050565b60006020828403121561087e5761087d610686565b5b600061088c848285016107f7565b91505092915050565b600073ffffffffffffffffffffffffffffffffffffffff82169050919050565b60006108c082610895565b9050919050565b6108d0816108b5565b82525050565b60006020820190506108eb60008301846108c7565b92915050565b60008060006060848603121561090a57610909610686565b5b600084013567ffffffffffffffff8111156109285761092761068b565b5b610934868287016107a8565b935050602084013567ffffffffffffffff8111156109555761095461068b565b5b610961868287016107a8565b9250506040610972868287016107f7565b9150509250925092565b600081519050919050565b600082825260208201905092915050565b6000819050602082019050919050565b6109b1816107d6565b82525050565b600081519050919050565b600082825260208201905092915050565b60005b838110156109f15780820151818401526020810190506109d6565b60008484015250505050565b6000610a08826109b7565b610a1281856109c2565b9350610a228185602086016109d3565b610a2b8161069a565b840191505092915050565b6000604083016000830151610a4e60008601826109a8565b5060208301518482036020860152610a6682826109fd565b9150508091505092915050565b6000610a7f8383610a36565b905092915050565b6000602082019050919050565b6000610a9f8261097c565b610aa98185610987565b935083602082028501610abb85610998565b8060005b85811015610af75784840389528151610ad88582610a73565b9450610ae383610a87565b925060208a01995050600181019050610abf565b50829750879550505050505092915050565b600081519050919050565b600082825260208201905092915050565b6000819050602082019050919050565b60006040830160008301518482036000860152610b5282826109fd565b91505060208301518482036020860152610b6c82826109fd565b9150508091505092915050565b6000610b858383610b35565b905092915050565b6000602082019050919050565b6000610ba582610b09565b610baf8185610b14565b935083602082028501610bc185610b25565b8060005b85811015610bfd5784840389528151610bde8582610b79565b9450610be983610b8d565b925060208a01995050600181019050610bc5565b50829750879550505050505092915050565b60006040820190508181036000830152610c298185610a94565b90508181036020830152610c3d8184610b9a565b90509392505050565b610c4f816107d6565b82525050565b6000604082019050610c6a6000830185610c46565b610c776020830184610c46565b9392505050565b600082825260208201905092915050565b7f456c20696420646520747520706f6b656d6f6e206465626520736572206d617960008201527f6f72206120300000000000000000000000000000000000000000000000000000602082015250565b6000610ceb602683610c7e565b9150610cf682610c8f565b604082019050919050565b60006020820190508181036000830152610d1a81610cde565b9050919050565b7f456c206e6f6d62726520646520747520706f6b656d6f6e20646562652073657260008201527f206d61796f722061203220636172616374657265730000000000000000000000602082015250565b6000610d7d603583610c7e565b9150610d8882610d21565b604082019050919050565b60006020820190508181036000830152610dac81610d70565b9050919050565b7f4e487b7100000000000000000000000000000000000000000000000000000000600052602260045260246000fd5b60006002820490506001821680610dfa57607f821691505b602082108103610e0d57610e0c610db3565b5b50919050565b60008190508160005260206000209050919050565b60006020601f8301049050919050565b600082821b905092915050565b600060088302610e757fffffffffffffffffffffffffffffffffffffffffffffffffffffffffffffffff82610e38565b610e7f8683610e38565b95508019841693508086168417925050509392505050565b6000819050919050565b6000610ebc610eb7610eb2846107d6565b610e97565b6107d6565b9050919050565b6000819050919050565b610ed683610ea1565b610eea610ee282610ec3565b848454610e45565b825550505050565b600090565b610eff610ef2565b610f0a818484610ecd565b505050565b5b81811015610f2e57610f23600082610ef7565b600181019050610f10565b5050565b601f821115610f7357610f4481610e13565b610f4d84610e28565b81016020851015610f5c578190505b610f70610f6885610e28565b830182610f0f565b50505b505050565b600082821c905092915050565b6000610f9660001984600802610f78565b1980831691505092915050565b6000610faf8383610f85565b9150826002028217905092915050565b610fc8826109b7565b67ffffffffffffffff811115610fe157610fe06106ab565b5b610feb8254610de2565b610ff6828285610f32565b600060209050601f8311600181146110295760008415611017578287015190505b6110218582610fa3565b865550611089565b601f19841661103786610e13565b60005b8281101561105f5784890151825560018201915060208501945060208101905061103a565b8683101561107c5784890151611078601f891682610f85565b8355505b6001600288020188555050505b505050505050565b7f4e487b7100000000000000000000000000000000000000000000000000000000600052601160045260246000fd5b60006110cb826107d6565b91507fffffffffffffffffffffffffffffffffffffffffffffffffffffffffffffffff82036110fd576110fc611091565b5b600182019050919050565b6000611113826109b7565b61111d8185610c7e565b935061112d8185602086016109d3565b6111368161069a565b840191505092915050565b60006040820190506111566000830185610c46565b81810360208301526111688184611108565b90509392505050565b600061117c826107d6565b9150611187836107d6565b9250828202611195816107d6565b915082820484148315176111ac576111ab611091565b5b5092915050565b60006111be826107d6565b91506111c9836107d6565b92508282019050808211156111e1576111e0611091565b5b9291505056fea2646970667358221220314e342a371b36e7d5b880e689dcaf7b848641a6cb00e9fb3f72db47f56bd63364736f6c63430008120033","opcodes":"PUSH1 0x80 PUSH1 0x40 MSTORE CALLVALUE DUP1 ISZERO PUSH2 0x10 JUMPI PUSH1 0x0 DUP1 REVERT JUMPDEST POP PUSH2 0x121D DUP1 PUSH2 0x20 PUSH1 0x0 CODECOPY PUSH1 0x0 RETURN INVALID PUSH1 0x80 PUSH1 0x40 MSTORE CALLVALUE DUP1 ISZERO PUSH2 0x10 JUMPI PUSH1 0x0 DUP1 REVERT JUMPDEST POP PUSH1 0x4 CALLDATASIZE LT PUSH2 0x57 JUMPI PUSH1 0x0 CALLDATALOAD PUSH1 0xE0 SHR DUP1 PUSH4 0xA3BD50B EQ PUSH2 0x5C JUMPI DUP1 PUSH4 0x2F7467B3 EQ PUSH2 0x78 JUMPI DUP1 PUSH4 0x5153B338 EQ PUSH2 0xA8 JUMPI DUP1 PUSH4 0x5E916790 EQ PUSH2 0xC4 JUMPI DUP1 PUSH4 0xDE292789 EQ PUSH2 0xE3 JUMPI JUMPDEST PUSH1 0x0 DUP1 REVERT JUMPDEST PUSH2 0x76 PUSH1 0x4 DUP1 CALLDATASIZE SUB DUP2 ADD SWAP1 PUSH2 0x71 SWAP2 SWAP1 PUSH2 0x80C JUMP JUMPDEST PUSH2 0x102 JUMP JUMPDEST STOP JUMPDEST PUSH2 0x92 PUSH1 0x4 DUP1 CALLDATASIZE SUB DUP2 ADD SWAP1 PUSH2 0x8D SWAP2 SWAP1 PUSH2 0x868 JUMP JUMPDEST PUSH2 0x2D2 JUMP JUMPDEST PUSH1 0x40 MLOAD PUSH2 0x9F SWAP2 SWAP1 PUSH2 0x8D6 JUMP JUMPDEST PUSH1 0x40 MLOAD DUP1 SWAP2 SUB SWAP1 RETURN JUMPDEST PUSH2 0xC2 PUSH1 0x4 DUP1 CALLDATASIZE SUB DUP2 ADD SWAP1 PUSH2 0xBD SWAP2 SWAP1 PUSH2 0x8F1 JUMP JUMPDEST PUSH2 0x305 JUMP JUMPDEST STOP JUMPDEST PUSH2 0xCC PUSH2 0x3CA JUMP JUMPDEST PUSH1 0x40 MLOAD PUSH2 0xDA SWAP3 SWAP2 SWAP1 PUSH2 0xC0F JUMP JUMPDEST PUSH1 0x40 MLOAD DUP1 SWAP2 SUB SWAP1 RETURN JUMPDEST PUSH2 0xEB PUSH2 0x64B JUMP JUMPDEST PUSH1 0x40 MLOAD PUSH2 0xF9 SWAP3 SWAP2 SWAP1 PUSH2 0xC55 JUMP JUMPDEST PUSH1 0x40 MLOAD DUP1 SWAP2 SUB SWAP1 RETURN JUMPDEST DUP1 PUSH1 0x0 DUP2 GT PUSH2 0x146 JUMPI PUSH1 0x40 MLOAD PUSH32 0x8C379A000000000000000000000000000000000000000000000000000000000 DUP2 MSTORE PUSH1 0x4 ADD PUSH2 0x13D SWAP1 PUSH2 0xD01 JUMP JUMPDEST PUSH1 0x40 MLOAD DUP1 SWAP2 SUB SWAP1 REVERT JUMPDEST DUP3 PUSH1 0x2 DUP2 MLOAD GT PUSH2 0x18B JUMPI PUSH1 0x40 MLOAD PUSH32 0x8C379A000000000000000000000000000000000000000000000000000000000 DUP2 MSTORE PUSH1 0x4 ADD PUSH2 0x182 SWAP1 PUSH2 0xD93 JUMP JUMPDEST PUSH1 0x40 MLOAD DUP1 SWAP2 SUB SWAP1 REVERT JUMPDEST PUSH1 0x0 PUSH1 0x40 MLOAD DUP1 PUSH1 0x40 ADD PUSH1 0x40 MSTORE DUP1 DUP6 DUP2 MSTORE PUSH1 0x20 ADD DUP7 DUP2 MSTORE POP SWAP1 DUP1 PUSH1 0x1 DUP2 SLOAD ADD DUP1 DUP3 SSTORE DUP1 SWAP2 POP POP PUSH1 0x1 SWAP1 SUB SWAP1 PUSH1 0x0 MSTORE PUSH1 0x20 PUSH1 0x0 KECCAK256 SWAP1 PUSH1 0x2 MUL ADD PUSH1 0x0 SWAP1 SWAP2 SWAP1 SWAP2 SWAP1 SWAP2 POP PUSH1 0x0 DUP3 ADD MLOAD DUP2 PUSH1 0x0 ADD SSTORE PUSH1 0x20 DUP3 ADD MLOAD DUP2 PUSH1 0x1 ADD SWAP1 DUP2 PUSH2 0x1EA SWAP2 SWAP1 PUSH2 0xFBF JUMP JUMPDEST POP POP POP CALLER PUSH1 0x2 PUSH1 0x0 DUP6 DUP2 MSTORE PUSH1 0x20 ADD SWAP1 DUP2 MSTORE PUSH1 0x20 ADD PUSH1 0x0 KECCAK256 PUSH1 0x0 PUSH2 0x100 EXP DUP2 SLOAD DUP2 PUSH20 0xFFFFFFFFFFFFFFFFFFFFFFFFFFFFFFFFFFFFFFFF MUL NOT AND SWAP1 DUP4 PUSH20 0xFFFFFFFFFFFFFFFFFFFFFFFFFFFFFFFFFFFFFFFF AND MUL OR SWAP1 SSTORE POP PUSH1 0x3 PUSH1 0x0 CALLER PUSH20 0xFFFFFFFFFFFFFFFFFFFFFFFFFFFFFFFFFFFFFFFF AND PUSH20 0xFFFFFFFFFFFFFFFFFFFFFFFFFFFFFFFFFFFFFFFF AND DUP2 MSTORE PUSH1 0x20 ADD SWAP1 DUP2 MSTORE PUSH1 0x20 ADD PUSH1 0x0 KECCAK256 PUSH1 0x0 DUP2 SLOAD DUP1 SWAP3 SWAP2 SWAP1 PUSH2 0x28F SWAP1 PUSH2 0x10C0 JUMP JUMPDEST SWAP2 SWAP1 POP SSTORE POP PUSH31 0x570A6686F18A686CDDA2F62A7954C6BD78C21F4B33DF90B0A5479F5AE8A9A8 DUP4 DUP6 PUSH1 0x40 MLOAD PUSH2 0x2C4 SWAP3 SWAP2 SWAP1 PUSH2 0x1141 JUMP JUMPDEST PUSH1 0x40 MLOAD DUP1 SWAP2 SUB SWAP1 LOG1 POP POP POP POP JUMP JUMPDEST PUSH1 0x2 PUSH1 0x20 MSTORE DUP1 PUSH1 0x0 MSTORE PUSH1 0x40 PUSH1 0x0 KECCAK256 PUSH1 0x0 SWAP2 POP SLOAD SWAP1 PUSH2 0x100 EXP SWAP1 DIV PUSH20 0xFFFFFFFFFFFFFFFFFFFFFFFFFFFFFFFFFFFFFFFF AND DUP2 JUMP JUMPDEST PUSH1 0x1 PUSH1 0x40 MLOAD DUP1 PUSH1 0x40 ADD PUSH1 0x40 MSTORE DUP1 DUP6 DUP2 MSTORE PUSH1 0x20 ADD DUP5 DUP2 MSTORE POP SWAP1 DUP1 PUSH1 0x1 DUP2 SLOAD ADD DUP1 DUP3 SSTORE DUP1 SWAP2 POP POP PUSH1 0x1 SWAP1 SUB SWAP1 PUSH1 0x0 MSTORE PUSH1 0x20 PUSH1 0x0 KECCAK256 SWAP1 PUSH1 0x2 MUL ADD PUSH1 0x0 SWAP1 SWAP2 SWAP1 SWAP2 SWAP1 SWAP2 POP PUSH1 0x0 DUP3 ADD MLOAD DUP2 PUSH1 0x0 ADD SWAP1 DUP2 PUSH2 0x35A SWAP2 SWAP1 PUSH2 0xFBF JUMP JUMPDEST POP PUSH1 0x20 DUP3 ADD MLOAD DUP2 PUSH1 0x1 ADD SWAP1 DUP2 PUSH2 0x370 SWAP2 SWAP1 PUSH2 0xFBF JUMP JUMPDEST POP POP POP CALLER PUSH1 0x2 PUSH1 0x0 DUP4 DUP2 MSTORE PUSH1 0x20 ADD SWAP1 DUP2 MSTORE PUSH1 0x20 ADD PUSH1 0x0 KECCAK256 PUSH1 0x0 PUSH2 0x100 EXP DUP2 SLOAD DUP2 PUSH20 0xFFFFFFFFFFFFFFFFFFFFFFFFFFFFFFFFFFFFFFFF MUL NOT AND SWAP1 DUP4 PUSH20 0xFFFFFFFFFFFFFFFFFFFFFFFFFFFFFFFFFFFFFFFF AND MUL OR SWAP1 SSTORE POP POP POP POP JUMP JUMPDEST PUSH1 0x60 DUP1 PUSH1 0x0 PUSH1 0x1 DUP2 DUP1 SLOAD DUP1 PUSH1 0x20 MUL PUSH1 0x20 ADD PUSH1 0x40 MLOAD SWAP1 DUP2 ADD PUSH1 0x40 MSTORE DUP1 SWAP3 SWAP2 SWAP1 DUP2 DUP2 MSTORE PUSH1 0x20 ADD PUSH1 0x0 SWAP1 JUMPDEST DUP3 DUP3 LT ISZERO PUSH2 0x4C0 JUMPI DUP4 DUP3 SWAP1 PUSH1 0x0 MSTORE PUSH1 0x20 PUSH1 0x0 KECCAK256 SWAP1 PUSH1 0x2 MUL ADD PUSH1 0x40 MLOAD DUP1 PUSH1 0x40 ADD PUSH1 0x40 MSTORE SWAP1 DUP2 PUSH1 0x0 DUP3 ADD SLOAD DUP2 MSTORE PUSH1 0x20 ADD PUSH1 0x1 DUP3 ADD DUP1 SLOAD PUSH2 0x42F SWAP1 PUSH2 0xDE2 JUMP JUMPDEST DUP1 PUSH1 0x1F ADD PUSH1 0x20 DUP1 SWAP2 DIV MUL PUSH1 0x20 ADD PUSH1 0x40 MLOAD SWAP1 DUP2 ADD PUSH1 0x40 MSTORE DUP1 SWAP3 SWAP2 SWAP1 DUP2 DUP2 MSTORE PUSH1 0x20 ADD DUP3 DUP1 SLOAD PUSH2 0x45B SWAP1 PUSH2 0xDE2 JUMP JUMPDEST DUP1 ISZERO PUSH2 0x4A8 JUMPI DUP1 PUSH1 0x1F LT PUSH2 0x47D JUMPI PUSH2 0x100 DUP1 DUP4 SLOAD DIV MUL DUP4 MSTORE SWAP2 PUSH1 0x20 ADD SWAP2 PUSH2 0x4A8 JUMP JUMPDEST DUP3 ADD SWAP2 SWAP1 PUSH1 0x0 MSTORE PUSH1 0x20 PUSH1 0x0 KECCAK256 SWAP1 JUMPDEST DUP2 SLOAD DUP2 MSTORE SWAP1 PUSH1 0x1 ADD SWAP1 PUSH1 0x20 ADD DUP1 DUP4 GT PUSH2 0x48B JUMPI DUP3 SWAP1 SUB PUSH1 0x1F AND DUP3 ADD SWAP2 JUMPDEST POP POP POP POP POP DUP2 MSTORE POP POP DUP2 MSTORE PUSH1 0x20 ADD SWAP1 PUSH1 0x1 ADD SWAP1 PUSH2 0x3F2 JUMP JUMPDEST POP POP POP POP SWAP2 POP DUP1 DUP1 SLOAD DUP1 PUSH1 0x20 MUL PUSH1 0x20 ADD PUSH1 0x40 MLOAD SWAP1 DUP2 ADD PUSH1 0x40 MSTORE DUP1 SWAP3 SWAP2 SWAP1 DUP2 DUP2 MSTORE PUSH1 0x20 ADD PUSH1 0x0 SWAP1 JUMPDEST DUP3 DUP3 LT ISZERO PUSH2 0x63D JUMPI DUP4 DUP3 SWAP1 PUSH1 0x0 MSTORE PUSH1 0x20 PUSH1 0x0 KECCAK256 SWAP1 PUSH1 0x2 MUL ADD PUSH1 0x40 MLOAD DUP1 PUSH1 0x40 ADD PUSH1 0x40 MSTORE SWAP1 DUP2 PUSH1 0x0 DUP3 ADD DUP1 SLOAD PUSH2 0x51A SWAP1 PUSH2 0xDE2 JUMP JUMPDEST DUP1 PUSH1 0x1F ADD PUSH1 0x20 DUP1 SWAP2 DIV MUL PUSH1 0x20 ADD PUSH1 0x40 MLOAD SWAP1 DUP2 ADD PUSH1 0x40 MSTORE DUP1 SWAP3 SWAP2 SWAP1 DUP2 DUP2 MSTORE PUSH1 0x20 ADD DUP3 DUP1 SLOAD PUSH2 0x546 SWAP1 PUSH2 0xDE2 JUMP JUMPDEST DUP1 ISZERO PUSH2 0x593 JUMPI DUP1 PUSH1 0x1F LT PUSH2 0x568 JUMPI PUSH2 0x100 DUP1 DUP4 SLOAD DIV MUL DUP4 MSTORE SWAP2 PUSH1 0x20 ADD SWAP2 PUSH2 0x593 JUMP JUMPDEST DUP3 ADD SWAP2 SWAP1 PUSH1 0x0 MSTORE PUSH1 0x20 PUSH1 0x0 KECCAK256 SWAP1 JUMPDEST DUP2 SLOAD DUP2 MSTORE SWAP1 PUSH1 0x1 ADD SWAP1 PUSH1 0x20 ADD DUP1 DUP4 GT PUSH2 0x576 JUMPI DUP3 SWAP1 SUB PUSH1 0x1F AND DUP3 ADD SWAP2 JUMPDEST POP POP POP POP POP DUP2 MSTORE PUSH1 0x20 ADD PUSH1 0x1 DUP3 ADD DUP1 SLOAD PUSH2 0x5AC SWAP1 PUSH2 0xDE2 JUMP JUMPDEST DUP1 PUSH1 0x1F ADD PUSH1 0x20 DUP1 SWAP2 DIV MUL PUSH1 0x20 ADD PUSH1 0x40 MLOAD SWAP1 DUP2 ADD PUSH1 0x40 MSTORE DUP1 SWAP3 SWAP2 SWAP1 DUP2 DUP2 MSTORE PUSH1 0x20 ADD DUP3 DUP1 SLOAD PUSH2 0x5D8 SWAP1 PUSH2 0xDE2 JUMP JUMPDEST DUP1 ISZERO PUSH2 0x625 JUMPI DUP1 PUSH1 0x1F LT PUSH2 0x5FA JUMPI PUSH2 0x100 DUP1 DUP4 SLOAD DIV MUL DUP4 MSTORE SWAP2 PUSH1 0x20 ADD SWAP2 PUSH2 0x625 JUMP JUMPDEST DUP3 ADD SWAP2 SWAP1 PUSH1 0x0 MSTORE PUSH1 0x20 PUSH1 0x0 KECCAK256 SWAP1 JUMPDEST DUP2 SLOAD DUP2 MSTORE SWAP1 PUSH1 0x1 ADD SWAP1 PUSH1 0x20 ADD DUP1 DUP4 GT PUSH2 0x608 JUMPI DUP3 SWAP1 SUB PUSH1 0x1F AND DUP3 ADD SWAP2 JUMPDEST POP POP POP POP POP DUP2 MSTORE POP POP DUP2 MSTORE PUSH1 0x20 ADD SWAP1 PUSH1 0x1 ADD SWAP1 PUSH2 0x4E7 JUMP JUMPDEST POP POP POP POP SWAP1 POP SWAP2 POP SWAP2 POP SWAP1 SWAP2 JUMP JUMPDEST PUSH1 0x0 DUP1 PUSH1 0x0 PUSH1 0x1 SWAP1 POP PUSH1 0x0 PUSH1 0x2 SWAP1 POP DUP1 DUP3 PUSH2 0x666 SWAP2 SWAP1 PUSH2 0x1171 JUMP JUMPDEST SWAP4 POP DUP1 DUP3 PUSH2 0x674 SWAP2 SWAP1 PUSH2 0x11B3 JUMP JUMPDEST SWAP3 POP POP POP SWAP1 SWAP2 JUMP JUMPDEST PUSH1 0x0 PUSH1 0x40 MLOAD SWAP1 POP SWAP1 JUMP JUMPDEST PUSH1 0x0 DUP1 REVERT JUMPDEST PUSH1 0x0 DUP1 REVERT JUMPDEST PUSH1 0x0 DUP1 REVERT JUMPDEST PUSH1 0x0 DUP1 REVERT JUMPDEST PUSH1 0x0 PUSH1 0x1F NOT PUSH1 0x1F DUP4 ADD AND SWAP1 POP SWAP2 SWAP1 POP JUMP JUMPDEST PUSH32 0x4E487B7100000000000000000000000000000000000000000000000000000000 PUSH1 0x0 MSTORE PUSH1 0x41 PUSH1 0x4 MSTORE PUSH1 0x24 PUSH1 0x0 REVERT JUMPDEST PUSH2 0x6E3 DUP3 PUSH2 0x69A JUMP JUMPDEST DUP2 ADD DUP2 DUP2 LT PUSH8 0xFFFFFFFFFFFFFFFF DUP3 GT OR ISZERO PUSH2 0x702 JUMPI PUSH2 0x701 PUSH2 0x6AB JUMP JUMPDEST JUMPDEST DUP1 PUSH1 0x40 MSTORE POP POP POP JUMP JUMPDEST PUSH1 0x0 PUSH2 0x715 PUSH2 0x67C JUMP JUMPDEST SWAP1 POP PUSH2 0x721 DUP3 DUP3 PUSH2 0x6DA JUMP JUMPDEST SWAP2 SWAP1 POP JUMP JUMPDEST PUSH1 0x0 PUSH8 0xFFFFFFFFFFFFFFFF DUP3 GT ISZERO PUSH2 0x741 JUMPI PUSH2 0x740 PUSH2 0x6AB JUMP JUMPDEST JUMPDEST PUSH2 0x74A DUP3 PUSH2 0x69A JUMP JUMPDEST SWAP1 POP PUSH1 0x20 DUP2 ADD SWAP1 POP SWAP2 SWAP1 POP JUMP JUMPDEST DUP3 DUP2 DUP4 CALLDATACOPY PUSH1 0x0 DUP4 DUP4 ADD MSTORE POP POP POP JUMP JUMPDEST PUSH1 0x0 PUSH2 0x779 PUSH2 0x774 DUP5 PUSH2 0x726 JUMP JUMPDEST PUSH2 0x70B JUMP JUMPDEST SWAP1 POP DUP3 DUP2 MSTORE PUSH1 0x20 DUP2 ADD DUP5 DUP5 DUP5 ADD GT ISZERO PUSH2 0x795 JUMPI PUSH2 0x794 PUSH2 0x695 JUMP JUMPDEST JUMPDEST PUSH2 0x7A0 DUP5 DUP3 DUP6 PUSH2 0x757 JUMP JUMPDEST POP SWAP4 SWAP3 POP POP POP JUMP JUMPDEST PUSH1 0x0 DUP3 PUSH1 0x1F DUP4 ADD SLT PUSH2 0x7BD JUMPI PUSH2 0x7BC PUSH2 0x690 JUMP JUMPDEST JUMPDEST DUP2 CALLDATALOAD PUSH2 0x7CD DUP5 DUP3 PUSH1 0x20 DUP7 ADD PUSH2 0x766 JUMP JUMPDEST SWAP2 POP POP SWAP3 SWAP2 POP POP JUMP JUMPDEST PUSH1 0x0 DUP2 SWAP1 POP SWAP2 SWAP1 POP JUMP JUMPDEST PUSH2 0x7E9 DUP2 PUSH2 0x7D6 JUMP JUMPDEST DUP2 EQ PUSH2 0x7F4 JUMPI PUSH1 0x0 DUP1 REVERT JUMPDEST POP JUMP JUMPDEST PUSH1 0x0 DUP2 CALLDATALOAD SWAP1 POP PUSH2 0x806 DUP2 PUSH2 0x7E0 JUMP JUMPDEST SWAP3 SWAP2 POP POP JUMP JUMPDEST PUSH1 0x0 DUP1 PUSH1 0x40 DUP4 DUP6 SUB SLT ISZERO PUSH2 0x823 JUMPI PUSH2 0x822 PUSH2 0x686 JUMP JUMPDEST JUMPDEST PUSH1 0x0 DUP4 ADD CALLDATALOAD PUSH8 0xFFFFFFFFFFFFFFFF DUP2 GT ISZERO PUSH2 0x841 JUMPI PUSH2 0x840 PUSH2 0x68B JUMP JUMPDEST JUMPDEST PUSH2 0x84D DUP6 DUP3 DUP7 ADD PUSH2 0x7A8 JUMP JUMPDEST SWAP3 POP POP PUSH1 0x20 PUSH2 0x85E DUP6 DUP3 DUP7 ADD PUSH2 0x7F7 JUMP JUMPDEST SWAP2 POP POP SWAP3 POP SWAP3 SWAP1 POP JUMP JUMPDEST PUSH1 0x0 PUSH1 0x20 DUP3 DUP5 SUB SLT ISZERO PUSH2 0x87E JUMPI PUSH2 0x87D PUSH2 0x686 JUMP JUMPDEST JUMPDEST PUSH1 0x0 PUSH2 0x88C DUP5 DUP3 DUP6 ADD PUSH2 0x7F7 JUMP JUMPDEST SWAP2 POP POP SWAP3 SWAP2 POP POP JUMP JUMPDEST PUSH1 0x0 PUSH20 0xFFFFFFFFFFFFFFFFFFFFFFFFFFFFFFFFFFFFFFFF DUP3 AND SWAP1 POP SWAP2 SWAP1 POP JUMP JUMPDEST PUSH1 0x0 PUSH2 0x8C0 DUP3 PUSH2 0x895 JUMP JUMPDEST SWAP1 POP SWAP2 SWAP1 POP JUMP JUMPDEST PUSH2 0x8D0 DUP2 PUSH2 0x8B5 JUMP JUMPDEST DUP3 MSTORE POP POP JUMP JUMPDEST PUSH1 0x0 PUSH1 0x20 DUP3 ADD SWAP1 POP PUSH2 0x8EB PUSH1 0x0 DUP4 ADD DUP5 PUSH2 0x8C7 JUMP JUMPDEST SWAP3 SWAP2 POP POP JUMP JUMPDEST PUSH1 0x0 DUP1 PUSH1 0x0 PUSH1 0x60 DUP5 DUP7 SUB SLT ISZERO PUSH2 0x90A JUMPI PUSH2 0x909 PUSH2 0x686 JUMP JUMPDEST JUMPDEST PUSH1 0x0 DUP5 ADD CALLDATALOAD PUSH8 0xFFFFFFFFFFFFFFFF DUP2 GT ISZERO PUSH2 0x928 JUMPI PUSH2 0x927 PUSH2 0x68B JUMP JUMPDEST JUMPDEST PUSH2 0x934 DUP7 DUP3 DUP8 ADD PUSH2 0x7A8 JUMP JUMPDEST SWAP4 POP POP PUSH1 0x20 DUP5 ADD CALLDATALOAD PUSH8 0xFFFFFFFFFFFFFFFF DUP2 GT ISZERO PUSH2 0x955 JUMPI PUSH2 0x954 PUSH2 0x68B JUMP JUMPDEST JUMPDEST PUSH2 0x961 DUP7 DUP3 DUP8 ADD PUSH2 0x7A8 JUMP JUMPDEST SWAP3 POP POP PUSH1 0x40 PUSH2 0x972 DUP7 DUP3 DUP8 ADD PUSH2 0x7F7 JUMP JUMPDEST SWAP2 POP POP SWAP3 POP SWAP3 POP SWAP3 JUMP JUMPDEST PUSH1 0x0 DUP2 MLOAD SWAP1 POP SWAP2 SWAP1 POP JUMP JUMPDEST PUSH1 0x0 DUP3 DUP3 MSTORE PUSH1 0x20 DUP3 ADD SWAP1 POP SWAP3 SWAP2 POP POP JUMP JUMPDEST PUSH1 0x0 DUP2 SWAP1 POP PUSH1 0x20 DUP3 ADD SWAP1 POP SWAP2 SWAP1 POP JUMP JUMPDEST PUSH2 0x9B1 DUP2 PUSH2 0x7D6 JUMP JUMPDEST DUP3 MSTORE POP POP JUMP JUMPDEST PUSH1 0x0 DUP2 MLOAD SWAP1 POP SWAP2 SWAP1 POP JUMP JUMPDEST PUSH1 0x0 DUP3 DUP3 MSTORE PUSH1 0x20 DUP3 ADD SWAP1 POP SWAP3 SWAP2 POP POP JUMP JUMPDEST PUSH1 0x0 JUMPDEST DUP4 DUP2 LT ISZERO PUSH2 0x9F1 JUMPI DUP1 DUP3 ADD MLOAD DUP2 DUP5 ADD MSTORE PUSH1 0x20 DUP2 ADD SWAP1 POP PUSH2 0x9D6 JUMP JUMPDEST PUSH1 0x0 DUP5 DUP5 ADD MSTORE POP POP POP POP JUMP JUMPDEST PUSH1 0x0 PUSH2 0xA08 DUP3 PUSH2 0x9B7 JUMP JUMPDEST PUSH2 0xA12 DUP2 DUP6 PUSH2 0x9C2 JUMP JUMPDEST SWAP4 POP PUSH2 0xA22 DUP2 DUP6 PUSH1 0x20 DUP7 ADD PUSH2 0x9D3 JUMP JUMPDEST PUSH2 0xA2B DUP2 PUSH2 0x69A JUMP JUMPDEST DUP5 ADD SWAP2 POP POP SWAP3 SWAP2 POP POP JUMP JUMPDEST PUSH1 0x0 PUSH1 0x40 DUP4 ADD PUSH1 0x0 DUP4 ADD MLOAD PUSH2 0xA4E PUSH1 0x0 DUP7 ADD DUP3 PUSH2 0x9A8 JUMP JUMPDEST POP PUSH1 0x20 DUP4 ADD MLOAD DUP5 DUP3 SUB PUSH1 0x20 DUP7 ADD MSTORE PUSH2 0xA66 DUP3 DUP3 PUSH2 0x9FD JUMP JUMPDEST SWAP2 POP POP DUP1 SWAP2 POP POP SWAP3 SWAP2 POP POP JUMP JUMPDEST PUSH1 0x0 PUSH2 0xA7F DUP4 DUP4 PUSH2 0xA36 JUMP JUMPDEST SWAP1 POP SWAP3 SWAP2 POP POP JUMP JUMPDEST PUSH1 0x0 PUSH1 0x20 DUP3 ADD SWAP1 POP SWAP2 SWAP1 POP JUMP JUMPDEST PUSH1 0x0 PUSH2 0xA9F DUP3 PUSH2 0x97C JUMP JUMPDEST PUSH2 0xAA9 DUP2 DUP6 PUSH2 0x987 JUMP JUMPDEST SWAP4 POP DUP4 PUSH1 0x20 DUP3 MUL DUP6 ADD PUSH2 0xABB DUP6 PUSH2 0x998 JUMP JUMPDEST DUP1 PUSH1 0x0 JUMPDEST DUP6 DUP2 LT ISZERO PUSH2 0xAF7 JUMPI DUP5 DUP5 SUB DUP10 MSTORE DUP2 MLOAD PUSH2 0xAD8 DUP6 DUP3 PUSH2 0xA73 JUMP JUMPDEST SWAP5 POP PUSH2 0xAE3 DUP4 PUSH2 0xA87 JUMP JUMPDEST SWAP3 POP PUSH1 0x20 DUP11 ADD SWAP10 POP POP PUSH1 0x1 DUP2 ADD SWAP1 POP PUSH2 0xABF JUMP JUMPDEST POP DUP3 SWAP8 POP DUP8 SWAP6 POP POP POP POP POP POP SWAP3 SWAP2 POP POP JUMP JUMPDEST PUSH1 0x0 DUP2 MLOAD SWAP1 POP SWAP2 SWAP1 POP JUMP JUMPDEST PUSH1 0x0 DUP3 DUP3 MSTORE PUSH1 0x20 DUP3 ADD SWAP1 POP SWAP3 SWAP2 POP POP JUMP JUMPDEST PUSH1 0x0 DUP2 SWAP1 POP PUSH1 0x20 DUP3 ADD SWAP1 POP SWAP2 SWAP1 POP JUMP JUMPDEST PUSH1 0x0 PUSH1 0x40 DUP4 ADD PUSH1 0x0 DUP4 ADD MLOAD DUP5 DUP3 SUB PUSH1 0x0 DUP7 ADD MSTORE PUSH2 0xB52 DUP3 DUP3 PUSH2 0x9FD JUMP JUMPDEST SWAP2 POP POP PUSH1 0x20 DUP4 ADD MLOAD DUP5 DUP3 SUB PUSH1 0x20 DUP7 ADD MSTORE PUSH2 0xB6C DUP3 DUP3 PUSH2 0x9FD JUMP JUMPDEST SWAP2 POP POP DUP1 SWAP2 POP POP SWAP3 SWAP2 POP POP JUMP JUMPDEST PUSH1 0x0 PUSH2 0xB85 DUP4 DUP4 PUSH2 0xB35 JUMP JUMPDEST SWAP1 POP SWAP3 SWAP2 POP POP JUMP JUMPDEST PUSH1 0x0 PUSH1 0x20 DUP3 ADD SWAP1 POP SWAP2 SWAP1 POP JUMP JUMPDEST PUSH1 0x0 PUSH2 0xBA5 DUP3 PUSH2 0xB09 JUMP JUMPDEST PUSH2 0xBAF DUP2 DUP6 PUSH2 0xB14 JUMP JUMPDEST SWAP4 POP DUP4 PUSH1 0x20 DUP3 MUL DUP6 ADD PUSH2 0xBC1 DUP6 PUSH2 0xB25 JUMP JUMPDEST DUP1 PUSH1 0x0 JUMPDEST DUP6 DUP2 LT ISZERO PUSH2 0xBFD JUMPI DUP5 DUP5 SUB DUP10 MSTORE DUP2 MLOAD PUSH2 0xBDE DUP6 DUP3 PUSH2 0xB79 JUMP JUMPDEST SWAP5 POP PUSH2 0xBE9 DUP4 PUSH2 0xB8D JUMP JUMPDEST SWAP3 POP PUSH1 0x20 DUP11 ADD SWAP10 POP POP PUSH1 0x1 DUP2 ADD SWAP1 POP PUSH2 0xBC5 JUMP JUMPDEST POP DUP3 SWAP8 POP DUP8 SWAP6 POP POP POP POP POP POP SWAP3 SWAP2 POP POP JUMP JUMPDEST PUSH1 0x0 PUSH1 0x40 DUP3 ADD SWAP1 POP DUP2 DUP2 SUB PUSH1 0x0 DUP4 ADD MSTORE PUSH2 0xC29 DUP2 DUP6 PUSH2 0xA94 JUMP JUMPDEST SWAP1 POP DUP2 DUP2 SUB PUSH1 0x20 DUP4 ADD MSTORE PUSH2 0xC3D DUP2 DUP5 PUSH2 0xB9A JUMP JUMPDEST SWAP1 POP SWAP4 SWAP3 POP POP POP JUMP JUMPDEST PUSH2 0xC4F DUP2 PUSH2 0x7D6 JUMP JUMPDEST DUP3 MSTORE POP POP JUMP JUMPDEST PUSH1 0x0 PUSH1 0x40 DUP3 ADD SWAP1 POP PUSH2 0xC6A PUSH1 0x0 DUP4 ADD DUP6 PUSH2 0xC46 JUMP JUMPDEST PUSH2 0xC77 PUSH1 0x20 DUP4 ADD DUP5 PUSH2 0xC46 JUMP JUMPDEST SWAP4 SWAP3 POP POP POP JUMP JUMPDEST PUSH1 0x0 DUP3 DUP3 MSTORE PUSH1 0x20 DUP3 ADD SWAP1 POP SWAP3 SWAP2 POP POP JUMP JUMPDEST PUSH32 0x456C20696420646520747520706F6B656D6F6E206465626520736572206D6179 PUSH1 0x0 DUP3 ADD MSTORE PUSH32 0x6F72206120300000000000000000000000000000000000000000000000000000 PUSH1 0x20 DUP3 ADD MSTORE POP JUMP JUMPDEST PUSH1 0x0 PUSH2 0xCEB PUSH1 0x26 DUP4 PUSH2 0xC7E JUMP JUMPDEST SWAP2 POP PUSH2 0xCF6 DUP3 PUSH2 0xC8F JUMP JUMPDEST PUSH1 0x40 DUP3 ADD SWAP1 POP SWAP2 SWAP1 POP JUMP JUMPDEST PUSH1 0x0 PUSH1 0x20 DUP3 ADD SWAP1 POP DUP2 DUP2 SUB PUSH1 0x0 DUP4 ADD MSTORE PUSH2 0xD1A DUP2 PUSH2 0xCDE JUMP JUMPDEST SWAP1 POP SWAP2 SWAP1 POP JUMP JUMPDEST PUSH32 0x456C206E6F6D62726520646520747520706F6B656D6F6E206465626520736572 PUSH1 0x0 DUP3 ADD MSTORE PUSH32 0x206D61796F722061203220636172616374657265730000000000000000000000 PUSH1 0x20 DUP3 ADD MSTORE POP JUMP JUMPDEST PUSH1 0x0 PUSH2 0xD7D PUSH1 0x35 DUP4 PUSH2 0xC7E JUMP JUMPDEST SWAP2 POP PUSH2 0xD88 DUP3 PUSH2 0xD21 JUMP JUMPDEST PUSH1 0x40 DUP3 ADD SWAP1 POP SWAP2 SWAP1 POP JUMP JUMPDEST PUSH1 0x0 PUSH1 0x20 DUP3 ADD SWAP1 POP DUP2 DUP2 SUB PUSH1 0x0 DUP4 ADD MSTORE PUSH2 0xDAC DUP2 PUSH2 0xD70 JUMP JUMPDEST SWAP1 POP SWAP2 SWAP1 POP JUMP JUMPDEST PUSH32 0x4E487B7100000000000000000000000000000000000000000000000000000000 PUSH1 0x0 MSTORE PUSH1 0x22 PUSH1 0x4 MSTORE PUSH1 0x24 PUSH1 0x0 REVERT JUMPDEST PUSH1 0x0 PUSH1 0x2 DUP3 DIV SWAP1 POP PUSH1 0x1 DUP3 AND DUP1 PUSH2 0xDFA JUMPI PUSH1 0x7F DUP3 AND SWAP2 POP JUMPDEST PUSH1 0x20 DUP3 LT DUP2 SUB PUSH2 0xE0D JUMPI PUSH2 0xE0C PUSH2 0xDB3 JUMP JUMPDEST JUMPDEST POP SWAP2 SWAP1 POP JUMP JUMPDEST PUSH1 0x0 DUP2 SWAP1 POP DUP2 PUSH1 0x0 MSTORE PUSH1 0x20 PUSH1 0x0 KECCAK256 SWAP1 POP SWAP2 SWAP1 POP JUMP JUMPDEST PUSH1 0x0 PUSH1 0x20 PUSH1 0x1F DUP4 ADD DIV SWAP1 POP SWAP2 SWAP1 POP JUMP JUMPDEST PUSH1 0x0 DUP3 DUP3 SHL SWAP1 POP SWAP3 SWAP2 POP POP JUMP JUMPDEST PUSH1 0x0 PUSH1 0x8 DUP4 MUL PUSH2 0xE75 PUSH32 0xFFFFFFFFFFFFFFFFFFFFFFFFFFFFFFFFFFFFFFFFFFFFFFFFFFFFFFFFFFFFFFFF DUP3 PUSH2 0xE38 JUMP JUMPDEST PUSH2 0xE7F DUP7 DUP4 PUSH2 0xE38 JUMP JUMPDEST SWAP6 POP DUP1 NOT DUP5 AND SWAP4 POP DUP1 DUP7 AND DUP5 OR SWAP3 POP POP POP SWAP4 SWAP3 POP POP POP JUMP JUMPDEST PUSH1 0x0 DUP2 SWAP1 POP SWAP2 SWAP1 POP JUMP JUMPDEST PUSH1 0x0 PUSH2 0xEBC PUSH2 0xEB7 PUSH2 0xEB2 DUP5 PUSH2 0x7D6 JUMP JUMPDEST PUSH2 0xE97 JUMP JUMPDEST PUSH2 0x7D6 JUMP JUMPDEST SWAP1 POP SWAP2 SWAP1 POP JUMP JUMPDEST PUSH1 0x0 DUP2 SWAP1 POP SWAP2 SWAP1 POP JUMP JUMPDEST PUSH2 0xED6 DUP4 PUSH2 0xEA1 JUMP JUMPDEST PUSH2 0xEEA PUSH2 0xEE2 DUP3 PUSH2 0xEC3 JUMP JUMPDEST DUP5 DUP5 SLOAD PUSH2 0xE45 JUMP JUMPDEST DUP3 SSTORE POP POP POP POP JUMP JUMPDEST PUSH1 0x0 SWAP1 JUMP JUMPDEST PUSH2 0xEFF PUSH2 0xEF2 JUMP JUMPDEST PUSH2 0xF0A DUP2 DUP5 DUP5 PUSH2 0xECD JUMP JUMPDEST POP POP POP JUMP JUMPDEST JUMPDEST DUP2 DUP2 LT ISZERO PUSH2 0xF2E JUMPI PUSH2 0xF23 PUSH1 0x0 DUP3 PUSH2 0xEF7 JUMP JUMPDEST PUSH1 0x1 DUP2 ADD SWAP1 POP PUSH2 0xF10 JUMP JUMPDEST POP POP JUMP JUMPDEST PUSH1 0x1F DUP3 GT ISZERO PUSH2 0xF73 JUMPI PUSH2 0xF44 DUP2 PUSH2 0xE13 JUMP JUMPDEST PUSH2 0xF4D DUP5 PUSH2 0xE28 JUMP JUMPDEST DUP2 ADD PUSH1 0x20 DUP6 LT ISZERO PUSH2 0xF5C JUMPI DUP2 SWAP1 POP JUMPDEST PUSH2 0xF70 PUSH2 0xF68 DUP6 PUSH2 0xE28 JUMP JUMPDEST DUP4 ADD DUP3 PUSH2 0xF0F JUMP JUMPDEST POP POP JUMPDEST POP POP POP JUMP JUMPDEST PUSH1 0x0 DUP3 DUP3 SHR SWAP1 POP SWAP3 SWAP2 POP POP JUMP JUMPDEST PUSH1 0x0 PUSH2 0xF96 PUSH1 0x0 NOT DUP5 PUSH1 0x8 MUL PUSH2 0xF78 JUMP JUMPDEST NOT DUP1 DUP4 AND SWAP2 POP POP SWAP3 SWAP2 POP POP JUMP JUMPDEST PUSH1 0x0 PUSH2 0xFAF DUP4 DUP4 PUSH2 0xF85 JUMP JUMPDEST SWAP2 POP DUP3 PUSH1 0x2 MUL DUP3 OR SWAP1 POP SWAP3 SWAP2 POP POP JUMP JUMPDEST PUSH2 0xFC8 DUP3 PUSH2 0x9B7 JUMP JUMPDEST PUSH8 0xFFFFFFFFFFFFFFFF DUP2 GT ISZERO PUSH2 0xFE1 JUMPI PUSH2 0xFE0 PUSH2 0x6AB JUMP JUMPDEST JUMPDEST PUSH2 0xFEB DUP3 SLOAD PUSH2 0xDE2 JUMP JUMPDEST PUSH2 0xFF6 DUP3 DUP3 DUP6 PUSH2 0xF32 JUMP JUMPDEST PUSH1 0x0 PUSH1 0x20 SWAP1 POP PUSH1 0x1F DUP4 GT PUSH1 0x1 DUP2 EQ PUSH2 0x1029 JUMPI PUSH1 0x0 DUP5 ISZERO PUSH2 0x1017 JUMPI DUP3 DUP8 ADD MLOAD SWAP1 POP JUMPDEST PUSH2 0x1021 DUP6 DUP3 PUSH2 0xFA3 JUMP JUMPDEST DUP7 SSTORE POP PUSH2 0x1089 JUMP JUMPDEST PUSH1 0x1F NOT DUP5 AND PUSH2 0x1037 DUP7 PUSH2 0xE13 JUMP JUMPDEST PUSH1 0x0 JUMPDEST DUP3 DUP2 LT ISZERO PUSH2 0x105F JUMPI DUP5 DUP10 ADD MLOAD DUP3 SSTORE PUSH1 0x1 DUP3 ADD SWAP2 POP PUSH1 0x20 DUP6 ADD SWAP5 POP PUSH1 0x20 DUP2 ADD SWAP1 POP PUSH2 0x103A JUMP JUMPDEST DUP7 DUP4 LT ISZERO PUSH2 0x107C JUMPI DUP5 DUP10 ADD MLOAD PUSH2 0x1078 PUSH1 0x1F DUP10 AND DUP3 PUSH2 0xF85 JUMP JUMPDEST DUP4 SSTORE POP JUMPDEST PUSH1 0x1 PUSH1 0x2 DUP9 MUL ADD DUP9 SSTORE POP POP POP JUMPDEST POP POP POP POP POP POP JUMP JUMPDEST PUSH32 0x4E487B7100000000000000000000000000000000000000000000000000000000 PUSH1 0x0 MSTORE PUSH1 0x11 PUSH1 0x4 MSTORE PUSH1 0x24 PUSH1 0x0 REVERT JUMPDEST PUSH1 0x0 PUSH2 0x10CB DUP3 PUSH2 0x7D6 JUMP JUMPDEST SWAP2 POP PUSH32 0xFFFFFFFFFFFFFFFFFFFFFFFFFFFFFFFFFFFFFFFFFFFFFFFFFFFFFFFFFFFFFFFF DUP3 SUB PUSH2 0x10FD JUMPI PUSH2 0x10FC PUSH2 0x1091 JUMP JUMPDEST JUMPDEST PUSH1 0x1 DUP3 ADD SWAP1 POP SWAP2 SWAP1 POP JUMP JUMPDEST PUSH1 0x0 PUSH2 0x1113 DUP3 PUSH2 0x9B7 JUMP JUMPDEST PUSH2 0x111D DUP2 DUP6 PUSH2 0xC7E JUMP JUMPDEST SWAP4 POP PUSH2 0x112D DUP2 DUP6 PUSH1 0x20 DUP7 ADD PUSH2 0x9D3 JUMP JUMPDEST PUSH2 0x1136 DUP2 PUSH2 0x69A JUMP JUMPDEST DUP5 ADD SWAP2 POP POP SWAP3 SWAP2 POP POP JUMP JUMPDEST PUSH1 0x0 PUSH1 0x40 DUP3 ADD SWAP1 POP PUSH2 0x1156 PUSH1 0x0 DUP4 ADD DUP6 PUSH2 0xC46 JUMP JUMPDEST DUP2 DUP2 SUB PUSH1 0x20 DUP4 ADD MSTORE PUSH2 0x1168 DUP2 DUP5 PUSH2 0x1108 JUMP JUMPDEST SWAP1 POP SWAP4 SWAP3 POP POP POP JUMP JUMPDEST PUSH1 0x0 PUSH2 0x117C DUP3 PUSH2 0x7D6 JUMP JUMPDEST SWAP2 POP PUSH2 0x1187 DUP4 PUSH2 0x7D6 JUMP JUMPDEST SWAP3 POP DUP3 DUP3 MUL PUSH2 0x1195 DUP2 PUSH2 0x7D6 JUMP JUMPDEST SWAP2 POP DUP3 DUP3 DIV DUP5 EQ DUP4 ISZERO OR PUSH2 0x11AC JUMPI PUSH2 0x11AB PUSH2 0x1091 JUMP JUMPDEST JUMPDEST POP SWAP3 SWAP2 POP POP JUMP JUMPDEST PUSH1 0x0 PUSH2 0x11BE DUP3 PUSH2 0x7D6 JUMP JUMPDEST SWAP2 POP PUSH2 0x11C9 DUP4 PUSH2 0x7D6 JUMP JUMPDEST SWAP3 POP DUP3 DUP3 ADD SWAP1 POP DUP1 DUP3 GT ISZERO PUSH2 0x11E1 JUMPI PUSH2 0x11E0 PUSH2 0x1091 JUMP JUMPDEST JUMPDEST SWAP3 SWAP2 POP POP JUMP INVALID LOG2 PUSH5 0x6970667358 0x22 SLT KECCAK256 BALANCE 0x4E CALLVALUE 0x2A CALLDATACOPY SHL CALLDATASIZE 0xE7 0xD5 0xB8 DUP1 0xE6 DUP10 0xDC 0xAF PUSH28 0x848641A6CB00E9FB3F72DB47F56BD63364736F6C6343000812003300 "},"methodIdentifiers":{"createPokemon(string,uint256)":"0a3bd50b","evolutionPokemon(string,string,uint256)":"5153b338","getAllPokemons()":"5e916790","getResult()":"de292789","pokemonToOwner(uint256)":"2f7467b3"}}}}}