{
	"PokemonFactory.sol": {
		"PokemonFactory": {
			"abi": [
				{
					"anonymous": false,
					"inputs": [
						{
							"indexed": false,
							"internalType": "string",
							"name": "_name",
							"type": "string"
						}
					],
					"name": "eventNewPokemon",
					"type": "event"
				},
				{
					"inputs": [
						{
							"internalType": "string",
							"name": "_name",
							"type": "string"
						},
						{
							"internalType": "uint256",
							"name": "_id",
							"type": "uint256"
						},
						{
							"components": [
								{
									"internalType": "string",
									"name": "name",
									"type": "string"
								},
								{
									"internalType": "string",
									"name": "description",
									"type": "string"
								}
							],
							"internalType": "struct PokemonFactory.Skill[]",
							"name": "_skill",
							"type": "tuple[]"
						},
						{
							"components": [
								{
									"internalType": "string",
									"name": "name",
									"type": "string"
								}
							],
							"internalType": "struct PokemonFactory.Type[]",
							"name": "_types",
							"type": "tuple[]"
						},
						{
							"components": [
								{
									"internalType": "string",
									"name": "name",
									"type": "string"
								}
							],
							"internalType": "struct PokemonFactory.Weakness[]",
							"name": "_weaknesses",
							"type": "tuple[]"
						}
					],
					"name": "createPokemon",
					"outputs": [],
					"stateMutability": "nonpayable",
					"type": "function"
				},
				{
					"inputs": [],
					"name": "getAllPokemons",
					"outputs": [
						{
							"components": [
								{
									"internalType": "uint256",
									"name": "id",
									"type": "uint256"
								},
								{
									"internalType": "string",
									"name": "name",
									"type": "string"
								},
								{
									"components": [
										{
											"internalType": "string",
											"name": "name",
											"type": "string"
										},
										{
											"internalType": "string",
											"name": "description",
											"type": "string"
										}
									],
									"internalType": "struct PokemonFactory.Skill[]",
									"name": "skills",
									"type": "tuple[]"
								},
								{
									"components": [
										{
											"internalType": "string",
											"name": "name",
											"type": "string"
										}
									],
									"internalType": "struct PokemonFactory.Type[]",
									"name": "types",
									"type": "tuple[]"
								},
								{
									"components": [
										{
											"internalType": "string",
											"name": "name",
											"type": "string"
										}
									],
									"internalType": "struct PokemonFactory.Weakness[]",
									"name": "weaknesses",
									"type": "tuple[]"
								}
							],
							"internalType": "struct PokemonFactory.Pokemon[]",
							"name": "",
							"type": "tuple[]"
						}
					],
					"stateMutability": "view",
					"type": "function"
				},
				{
					"inputs": [],
					"name": "getResult",
					"outputs": [
						{
							"internalType": "uint256",
							"name": "product",
							"type": "uint256"
						},
						{
							"internalType": "uint256",
							"name": "sum",
							"type": "uint256"
						}
					],
					"stateMutability": "pure",
					"type": "function"
				},
				{
					"inputs": [
						{
							"internalType": "uint256",
							"name": "",
							"type": "uint256"
						}
					],
					"name": "pokemonToOwner",
					"outputs": [
						{
							"internalType": "address",
							"name": "",
							"type": "address"
						}
					],
					"stateMutability": "view",
					"type": "function"
				}
			],
			"devdoc": {
				"kind": "dev",
				"methods": {},
				"version": 1
			},
			"evm": {
				"assembly": "    /* \"PokemonFactory.sol\":70:1997  contract PokemonFactory {... */\n  mstore(0x40, 0x80)\n  callvalue\n  dup1\n  iszero\n  tag_1\n  jumpi\n  0x00\n  dup1\n  revert\ntag_1:\n  pop\n  dataSize(sub_0)\n  dup1\n  dataOffset(sub_0)\n  0x00\n  codecopy\n  0x00\n  return\nstop\n\nsub_0: assembly {\n        /* \"PokemonFactory.sol\":70:1997  contract PokemonFactory {... */\n      mstore(0x40, 0x80)\n      callvalue\n      dup1\n      iszero\n      tag_1\n      jumpi\n      0x00\n      dup1\n      revert\n    tag_1:\n      pop\n      jumpi(tag_2, lt(calldatasize, 0x04))\n      shr(0xe0, calldataload(0x00))\n      dup1\n      0x2f7467b3\n      eq\n      tag_3\n      jumpi\n      dup1\n      0x5e916790\n      eq\n      tag_4\n      jumpi\n      dup1\n      0x710ebd11\n      eq\n      tag_5\n      jumpi\n      dup1\n      0xde292789\n      eq\n      tag_6\n      jumpi\n    tag_2:\n      0x00\n      dup1\n      revert\n        /* \"PokemonFactory.sol\":490:536  mapping(uint => address) public pokemonToOwner */\n    tag_3:\n      tag_7\n      0x04\n      dup1\n      calldatasize\n      sub\n      dup2\n      add\n      swap1\n      tag_8\n      swap2\n      swap1\n      tag_9\n      jump\t// in\n    tag_8:\n      tag_10\n      jump\t// in\n    tag_7:\n      mload(0x40)\n      tag_11\n      swap2\n      swap1\n      tag_12\n      jump\t// in\n    tag_11:\n      mload(0x40)\n      dup1\n      swap2\n      sub\n      swap1\n      return\n        /* \"PokemonFactory.sol\":1733:1830  function getAllPokemons() public view returns (Pokemon[] memory) {... */\n    tag_4:\n      tag_13\n      tag_14\n      jump\t// in\n    tag_13:\n      mload(0x40)\n      tag_15\n      swap2\n      swap1\n      tag_16\n      jump\t// in\n    tag_15:\n      mload(0x40)\n      dup1\n      swap2\n      sub\n      swap1\n      return\n        /* \"PokemonFactory.sol\":591:1727  function createPokemon(... */\n    tag_5:\n      tag_17\n      0x04\n      dup1\n      calldatasize\n      sub\n      dup2\n      add\n      swap1\n      tag_18\n      swap2\n      swap1\n      tag_19\n      jump\t// in\n    tag_18:\n      tag_20\n      jump\t// in\n    tag_17:\n      stop\n        /* \"PokemonFactory.sol\":1836:1995  function getResult() public pure returns (uint product, uint sum) {... */\n    tag_6:\n      tag_21\n      tag_22\n      jump\t// in\n    tag_21:\n      mload(0x40)\n      tag_23\n      swap3\n      swap2\n      swap1\n      tag_24\n      jump\t// in\n    tag_23:\n      mload(0x40)\n      dup1\n      swap2\n      sub\n      swap1\n      return\n        /* \"PokemonFactory.sol\":490:536  mapping(uint => address) public pokemonToOwner */\n    tag_10:\n      mstore(0x20, 0x01)\n      dup1\n      0x00\n      mstore\n      keccak256(0x00, 0x40)\n      0x00\n      swap2\n      pop\n      sload\n      swap1\n      0x0100\n      exp\n      swap1\n      div\n      0xffffffffffffffffffffffffffffffffffffffff\n      and\n      dup2\n      jump\t// out\n        /* \"PokemonFactory.sol\":1733:1830  function getAllPokemons() public view returns (Pokemon[] memory) {... */\n    tag_14:\n        /* \"PokemonFactory.sol\":1780:1796  Pokemon[] memory */\n      0x60\n        /* \"PokemonFactory.sol\":1815:1823  pokemons */\n      0x00\n        /* \"PokemonFactory.sol\":1808:1823  return pokemons */\n      dup1\n      sload\n      dup1\n      0x20\n      mul\n      0x20\n      add\n      mload(0x40)\n      swap1\n      dup2\n      add\n      0x40\n      mstore\n      dup1\n      swap3\n      swap2\n      swap1\n      dup2\n      dup2\n      mstore\n      0x20\n      add\n      0x00\n      swap1\n    tag_26:\n      dup3\n      dup3\n      lt\n      iszero\n      tag_27\n      jumpi\n      dup4\n      dup3\n      swap1\n      0x00\n      mstore\n      keccak256(0x00, 0x20)\n      swap1\n      0x05\n      mul\n      add\n      mload(0x40)\n      dup1\n      0xa0\n      add\n      0x40\n      mstore\n      swap1\n      dup2\n      0x00\n      dup3\n      add\n      sload\n      dup2\n      mstore\n      0x20\n      add\n      0x01\n      dup3\n      add\n      dup1\n      sload\n      tag_29\n      swap1\n      tag_30\n      jump\t// in\n    tag_29:\n      dup1\n      0x1f\n      add\n      0x20\n      dup1\n      swap2\n      div\n      mul\n      0x20\n      add\n      mload(0x40)\n      swap1\n      dup2\n      add\n      0x40\n      mstore\n      dup1\n      swap3\n      swap2\n      swap1\n      dup2\n      dup2\n      mstore\n      0x20\n      add\n      dup3\n      dup1\n      sload\n      tag_31\n      swap1\n      tag_30\n      jump\t// in\n    tag_31:\n      dup1\n      iszero\n      tag_32\n      jumpi\n      dup1\n      0x1f\n      lt\n      tag_33\n      jumpi\n      0x0100\n      dup1\n      dup4\n      sload\n      div\n      mul\n      dup4\n      mstore\n      swap2\n      0x20\n      add\n      swap2\n      jump(tag_32)\n    tag_33:\n      dup3\n      add\n      swap2\n      swap1\n      0x00\n      mstore\n      keccak256(0x00, 0x20)\n      swap1\n    tag_34:\n      dup2\n      sload\n      dup2\n      mstore\n      swap1\n      0x01\n      add\n      swap1\n      0x20\n      add\n      dup1\n      dup4\n      gt\n      tag_34\n      jumpi\n      dup3\n      swap1\n      sub\n      0x1f\n      and\n      dup3\n      add\n      swap2\n    tag_32:\n      pop\n      pop\n      pop\n      pop\n      pop\n      dup2\n      mstore\n      0x20\n      add\n      0x02\n      dup3\n      add\n      dup1\n      sload\n      dup1\n      0x20\n      mul\n      0x20\n      add\n      mload(0x40)\n      swap1\n      dup2\n      add\n      0x40\n      mstore\n      dup1\n      swap3\n      swap2\n      swap1\n      dup2\n      dup2\n      mstore\n      0x20\n      add\n      0x00\n      swap1\n    tag_35:\n      dup3\n      dup3\n      lt\n      iszero\n      tag_36\n      jumpi\n      dup4\n      dup3\n      swap1\n      0x00\n      mstore\n      keccak256(0x00, 0x20)\n      swap1\n      0x02\n      mul\n      add\n      mload(0x40)\n      dup1\n      0x40\n      add\n      0x40\n      mstore\n      swap1\n      dup2\n      0x00\n      dup3\n      add\n      dup1\n      sload\n      tag_38\n      swap1\n      tag_30\n      jump\t// in\n    tag_38:\n      dup1\n      0x1f\n      add\n      0x20\n      dup1\n      swap2\n      div\n      mul\n      0x20\n      add\n      mload(0x40)\n      swap1\n      dup2\n      add\n      0x40\n      mstore\n      dup1\n      swap3\n      swap2\n      swap1\n      dup2\n      dup2\n      mstore\n      0x20\n      add\n      dup3\n      dup1\n      sload\n      tag_39\n      swap1\n      tag_30\n      jump\t// in\n    tag_39:\n      dup1\n      iszero\n      tag_40\n      jumpi\n      dup1\n      0x1f\n      lt\n      tag_41\n      jumpi\n      0x0100\n      dup1\n      dup4\n      sload\n      div\n      mul\n      dup4\n      mstore\n      swap2\n      0x20\n      add\n      swap2\n      jump(tag_40)\n    tag_41:\n      dup3\n      add\n      swap2\n      swap1\n      0x00\n      mstore\n      keccak256(0x00, 0x20)\n      swap1\n    tag_42:\n      dup2\n      sload\n      dup2\n      mstore\n      swap1\n      0x01\n      add\n      swap1\n      0x20\n      add\n      dup1\n      dup4\n      gt\n      tag_42\n      jumpi\n      dup3\n      swap1\n      sub\n      0x1f\n      and\n      dup3\n      add\n      swap2\n    tag_40:\n      pop\n      pop\n      pop\n      pop\n      pop\n      dup2\n      mstore\n      0x20\n      add\n      0x01\n      dup3\n      add\n      dup1\n      sload\n      tag_43\n      swap1\n      tag_30\n      jump\t// in\n    tag_43:\n      dup1\n      0x1f\n      add\n      0x20\n      dup1\n      swap2\n      div\n      mul\n      0x20\n      add\n      mload(0x40)\n      swap1\n      dup2\n      add\n      0x40\n      mstore\n      dup1\n      swap3\n      swap2\n      swap1\n      dup2\n      dup2\n      mstore\n      0x20\n      add\n      dup3\n      dup1\n      sload\n      tag_44\n      swap1\n      tag_30\n      jump\t// in\n    tag_44:\n      dup1\n      iszero\n      tag_45\n      jumpi\n      dup1\n      0x1f\n      lt\n      tag_46\n      jumpi\n      0x0100\n      dup1\n      dup4\n      sload\n      div\n      mul\n      dup4\n      mstore\n      swap2\n      0x20\n      add\n      swap2\n      jump(tag_45)\n    tag_46:\n      dup3\n      add\n      swap2\n      swap1\n      0x00\n      mstore\n      keccak256(0x00, 0x20)\n      swap1\n    tag_47:\n      dup2\n      sload\n      dup2\n      mstore\n      swap1\n      0x01\n      add\n      swap1\n      0x20\n      add\n      dup1\n      dup4\n      gt\n      tag_47\n      jumpi\n      dup3\n      swap1\n      sub\n      0x1f\n      and\n      dup3\n      add\n      swap2\n    tag_45:\n      pop\n      pop\n      pop\n      pop\n      pop\n      dup2\n      mstore\n      pop\n      pop\n      dup2\n      mstore\n      0x20\n      add\n      swap1\n      0x01\n      add\n      swap1\n      jump(tag_35)\n    tag_36:\n      pop\n      pop\n      pop\n      pop\n      dup2\n      mstore\n      0x20\n      add\n      0x03\n      dup3\n      add\n      dup1\n      sload\n      dup1\n      0x20\n      mul\n      0x20\n      add\n      mload(0x40)\n      swap1\n      dup2\n      add\n      0x40\n      mstore\n      dup1\n      swap3\n      swap2\n      swap1\n      dup2\n      dup2\n      mstore\n      0x20\n      add\n      0x00\n      swap1\n    tag_48:\n      dup3\n      dup3\n      lt\n      iszero\n      tag_49\n      jumpi\n      dup4\n      dup3\n      swap1\n      0x00\n      mstore\n      keccak256(0x00, 0x20)\n      add\n      mload(0x40)\n      dup1\n      0x20\n      add\n      0x40\n      mstore\n      swap1\n      dup2\n      0x00\n      dup3\n      add\n      dup1\n      sload\n      tag_51\n      swap1\n      tag_30\n      jump\t// in\n    tag_51:\n      dup1\n      0x1f\n      add\n      0x20\n      dup1\n      swap2\n      div\n      mul\n      0x20\n      add\n      mload(0x40)\n      swap1\n      dup2\n      add\n      0x40\n      mstore\n      dup1\n      swap3\n      swap2\n      swap1\n      dup2\n      dup2\n      mstore\n      0x20\n      add\n      dup3\n      dup1\n      sload\n      tag_52\n      swap1\n      tag_30\n      jump\t// in\n    tag_52:\n      dup1\n      iszero\n      tag_53\n      jumpi\n      dup1\n      0x1f\n      lt\n      tag_54\n      jumpi\n      0x0100\n      dup1\n      dup4\n      sload\n      div\n      mul\n      dup4\n      mstore\n      swap2\n      0x20\n      add\n      swap2\n      jump(tag_53)\n    tag_54:\n      dup3\n      add\n      swap2\n      swap1\n      0x00\n      mstore\n      keccak256(0x00, 0x20)\n      swap1\n    tag_55:\n      dup2\n      sload\n      dup2\n      mstore\n      swap1\n      0x01\n      add\n      swap1\n      0x20\n      add\n      dup1\n      dup4\n      gt\n      tag_55\n      jumpi\n      dup3\n      swap1\n      sub\n      0x1f\n      and\n      dup3\n      add\n      swap2\n    tag_53:\n      pop\n      pop\n      pop\n      pop\n      pop\n      dup2\n      mstore\n      pop\n      pop\n      dup2\n      mstore\n      0x20\n      add\n      swap1\n      0x01\n      add\n      swap1\n      jump(tag_48)\n    tag_49:\n      pop\n      pop\n      pop\n      pop\n      dup2\n      mstore\n      0x20\n      add\n      0x04\n      dup3\n      add\n      dup1\n      sload\n      dup1\n      0x20\n      mul\n      0x20\n      add\n      mload(0x40)\n      swap1\n      dup2\n      add\n      0x40\n      mstore\n      dup1\n      swap3\n      swap2\n      swap1\n      dup2\n      dup2\n      mstore\n      0x20\n      add\n      0x00\n      swap1\n    tag_56:\n      dup3\n      dup3\n      lt\n      iszero\n      tag_57\n      jumpi\n      dup4\n      dup3\n      swap1\n      0x00\n      mstore\n      keccak256(0x00, 0x20)\n      add\n      mload(0x40)\n      dup1\n      0x20\n      add\n      0x40\n      mstore\n      swap1\n      dup2\n      0x00\n      dup3\n      add\n      dup1\n      sload\n      tag_59\n      swap1\n      tag_30\n      jump\t// in\n    tag_59:\n      dup1\n      0x1f\n      add\n      0x20\n      dup1\n      swap2\n      div\n      mul\n      0x20\n      add\n      mload(0x40)\n      swap1\n      dup2\n      add\n      0x40\n      mstore\n      dup1\n      swap3\n      swap2\n      swap1\n      dup2\n      dup2\n      mstore\n      0x20\n      add\n      dup3\n      dup1\n      sload\n      tag_60\n      swap1\n      tag_30\n      jump\t// in\n    tag_60:\n      dup1\n      iszero\n      tag_61\n      jumpi\n      dup1\n      0x1f\n      lt\n      tag_62\n      jumpi\n      0x0100\n      dup1\n      dup4\n      sload\n      div\n      mul\n      dup4\n      mstore\n      swap2\n      0x20\n      add\n      swap2\n      jump(tag_61)\n    tag_62:\n      dup3\n      add\n      swap2\n      swap1\n      0x00\n      mstore\n      keccak256(0x00, 0x20)\n      swap1\n    tag_63:\n      dup2\n      sload\n      dup2\n      mstore\n      swap1\n      0x01\n      add\n      swap1\n      0x20\n      add\n      dup1\n      dup4\n      gt\n      tag_63\n      jumpi\n      dup3\n      swap1\n      sub\n      0x1f\n      and\n      dup3\n      add\n      swap2\n    tag_61:\n      pop\n      pop\n      pop\n      pop\n      pop\n      dup2\n      mstore\n      pop\n      pop\n      dup2\n      mstore\n      0x20\n      add\n      swap1\n      0x01\n      add\n      swap1\n      jump(tag_56)\n    tag_57:\n      pop\n      pop\n      pop\n      pop\n      dup2\n      mstore\n      pop\n      pop\n      dup2\n      mstore\n      0x20\n      add\n      swap1\n      0x01\n      add\n      swap1\n      jump(tag_26)\n    tag_27:\n      pop\n      pop\n      pop\n      pop\n      swap1\n      pop\n        /* \"PokemonFactory.sol\":1733:1830  function getAllPokemons() public view returns (Pokemon[] memory) {... */\n      swap1\n      jump\t// out\n        /* \"PokemonFactory.sol\":591:1727  function createPokemon(... */\n    tag_20:\n        /* \"PokemonFactory.sol\":798:799  0 */\n      0x00\n        /* \"PokemonFactory.sol\":792:795  _id */\n      dup5\n        /* \"PokemonFactory.sol\":792:799  _id > 0 */\n      gt\n        /* \"PokemonFactory.sol\":784:833  require(_id > 0, \"The id must be greater than 0\") */\n      tag_65\n      jumpi\n      mload(0x40)\n      0x08c379a000000000000000000000000000000000000000000000000000000000\n      dup2\n      mstore\n      0x04\n      add\n      tag_66\n      swap1\n      tag_67\n      jump\t// in\n    tag_66:\n      mload(0x40)\n      dup1\n      swap2\n      sub\n      swap1\n      revert\n    tag_65:\n        /* \"PokemonFactory.sol\":886:887  2 */\n      0x02\n        /* \"PokemonFactory.sol\":870:875  _name */\n      dup6\n        /* \"PokemonFactory.sol\":864:883  bytes(_name).length */\n      mload\n        /* \"PokemonFactory.sol\":864:887  bytes(_name).length > 2 */\n      gt\n        /* \"PokemonFactory.sol\":843:954  require(... */\n      tag_68\n      jumpi\n      mload(0x40)\n      0x08c379a000000000000000000000000000000000000000000000000000000000\n      dup2\n      mstore\n      0x04\n      add\n      tag_69\n      swap1\n      tag_70\n      jump\t// in\n    tag_69:\n      mload(0x40)\n      dup1\n      swap2\n      sub\n      swap1\n      revert\n    tag_68:\n        /* \"PokemonFactory.sol\":965:973  pokemons */\n      0x00\n        /* \"PokemonFactory.sol\":965:980  pokemons.push() */\n      0x01\n      dup2\n      0x01\n      dup2\n      sload\n      add\n      dup1\n      dup3\n      sstore\n      dup1\n      swap2\n      pop\n      pop\n      sub\n      swap1\n      0x00\n      mstore\n      keccak256(0x00, 0x20)\n      swap1\n      pop\n      pop\n        /* \"PokemonFactory.sol\":1025:1028  _id */\n      dup4\n        /* \"PokemonFactory.sol\":990:998  pokemons */\n      0x00\n        /* \"PokemonFactory.sol\":1017:1018  1 */\n      0x01\n        /* \"PokemonFactory.sol\":999:1007  pokemons */\n      0x00\n        /* \"PokemonFactory.sol\":999:1014  pokemons.length */\n      dup1\n      sload\n      swap1\n      pop\n        /* \"PokemonFactory.sol\":999:1018  pokemons.length - 1 */\n      tag_72\n      swap2\n      swap1\n      tag_73\n      jump\t// in\n    tag_72:\n        /* \"PokemonFactory.sol\":990:1019  pokemons[pokemons.length - 1] */\n      dup2\n      sload\n      dup2\n      lt\n      tag_74\n      jumpi\n      tag_75\n      tag_76\n      jump\t// in\n    tag_75:\n    tag_74:\n      swap1\n      0x00\n      mstore\n      keccak256(0x00, 0x20)\n      swap1\n      0x05\n      mul\n      add\n        /* \"PokemonFactory.sol\":990:1022  pokemons[pokemons.length - 1].id */\n      0x00\n      add\n        /* \"PokemonFactory.sol\":990:1028  pokemons[pokemons.length - 1].id = _id */\n      dup2\n      swap1\n      sstore\n      pop\n        /* \"PokemonFactory.sol\":1075:1080  _name */\n      dup5\n        /* \"PokemonFactory.sol\":1038:1046  pokemons */\n      0x00\n        /* \"PokemonFactory.sol\":1065:1066  1 */\n      0x01\n        /* \"PokemonFactory.sol\":1047:1055  pokemons */\n      0x00\n        /* \"PokemonFactory.sol\":1047:1062  pokemons.length */\n      dup1\n      sload\n      swap1\n      pop\n        /* \"PokemonFactory.sol\":1047:1066  pokemons.length - 1 */\n      tag_78\n      swap2\n      swap1\n      tag_73\n      jump\t// in\n    tag_78:\n        /* \"PokemonFactory.sol\":1038:1067  pokemons[pokemons.length - 1] */\n      dup2\n      sload\n      dup2\n      lt\n      tag_79\n      jumpi\n      tag_80\n      tag_76\n      jump\t// in\n    tag_80:\n    tag_79:\n      swap1\n      0x00\n      mstore\n      keccak256(0x00, 0x20)\n      swap1\n      0x05\n      mul\n      add\n        /* \"PokemonFactory.sol\":1038:1072  pokemons[pokemons.length - 1].name */\n      0x01\n      add\n        /* \"PokemonFactory.sol\":1038:1080  pokemons[pokemons.length - 1].name = _name */\n      swap1\n      dup1\n      mload\n      swap1\n      0x20\n      add\n      swap1\n      tag_82\n      swap3\n      swap2\n      swap1\n      tag_83\n      jump\t// in\n    tag_82:\n      pop\n        /* \"PokemonFactory.sol\":1096:1102  uint i */\n      0x00\n        /* \"PokemonFactory.sol\":1091:1274  for (uint i = 0; i < _skill.length; i++) {... */\n    tag_84:\n        /* \"PokemonFactory.sol\":1112:1118  _skill */\n      dup4\n        /* \"PokemonFactory.sol\":1112:1125  _skill.length */\n      mload\n        /* \"PokemonFactory.sol\":1108:1109  i */\n      dup2\n        /* \"PokemonFactory.sol\":1108:1125  i < _skill.length */\n      lt\n        /* \"PokemonFactory.sol\":1091:1274  for (uint i = 0; i < _skill.length; i++) {... */\n      iszero\n      tag_85\n      jumpi\n        /* \"PokemonFactory.sol\":1146:1154  pokemons */\n      0x00\n        /* \"PokemonFactory.sol\":1173:1174  1 */\n      0x01\n        /* \"PokemonFactory.sol\":1155:1163  pokemons */\n      0x00\n        /* \"PokemonFactory.sol\":1155:1170  pokemons.length */\n      dup1\n      sload\n      swap1\n      pop\n        /* \"PokemonFactory.sol\":1155:1174  pokemons.length - 1 */\n      tag_87\n      swap2\n      swap1\n      tag_73\n      jump\t// in\n    tag_87:\n        /* \"PokemonFactory.sol\":1146:1175  pokemons[pokemons.length - 1] */\n      dup2\n      sload\n      dup2\n      lt\n      tag_88\n      jumpi\n      tag_89\n      tag_76\n      jump\t// in\n    tag_89:\n    tag_88:\n      swap1\n      0x00\n      mstore\n      keccak256(0x00, 0x20)\n      swap1\n      0x05\n      mul\n      add\n        /* \"PokemonFactory.sol\":1146:1182  pokemons[pokemons.length - 1].skills */\n      0x02\n      add\n        /* \"PokemonFactory.sol\":1205:1249  Skill(_skill[i].name, _skill[i].description) */\n      mload(0x40)\n      dup1\n      0x40\n      add\n      0x40\n      mstore\n      dup1\n        /* \"PokemonFactory.sol\":1211:1217  _skill */\n      dup7\n        /* \"PokemonFactory.sol\":1218:1219  i */\n      dup5\n        /* \"PokemonFactory.sol\":1211:1220  _skill[i] */\n      dup2\n      mload\n      dup2\n      lt\n      tag_91\n      jumpi\n      tag_92\n      tag_76\n      jump\t// in\n    tag_92:\n    tag_91:\n      0x20\n      mul\n      0x20\n      add\n      add\n      mload\n        /* \"PokemonFactory.sol\":1211:1225  _skill[i].name */\n      0x00\n      add\n      mload\n        /* \"PokemonFactory.sol\":1205:1249  Skill(_skill[i].name, _skill[i].description) */\n      dup2\n      mstore\n      0x20\n      add\n        /* \"PokemonFactory.sol\":1227:1233  _skill */\n      dup7\n        /* \"PokemonFactory.sol\":1234:1235  i */\n      dup5\n        /* \"PokemonFactory.sol\":1227:1236  _skill[i] */\n      dup2\n      mload\n      dup2\n      lt\n      tag_93\n      jumpi\n      tag_94\n      tag_76\n      jump\t// in\n    tag_94:\n    tag_93:\n      0x20\n      mul\n      0x20\n      add\n      add\n      mload\n        /* \"PokemonFactory.sol\":1227:1248  _skill[i].description */\n      0x20\n      add\n      mload\n        /* \"PokemonFactory.sol\":1205:1249  Skill(_skill[i].name, _skill[i].description) */\n      dup2\n      mstore\n      pop\n        /* \"PokemonFactory.sol\":1146:1263  pokemons[pokemons.length - 1].skills.push(... */\n      swap1\n      dup1\n      0x01\n      dup2\n      sload\n      add\n      dup1\n      dup3\n      sstore\n      dup1\n      swap2\n      pop\n      pop\n      0x01\n      swap1\n      sub\n      swap1\n      0x00\n      mstore\n      keccak256(0x00, 0x20)\n      swap1\n      0x02\n      mul\n      add\n      0x00\n      swap1\n      swap2\n      swap1\n      swap2\n      swap1\n      swap2\n      pop\n      0x00\n      dup3\n      add\n      mload\n      dup2\n      0x00\n      add\n      swap1\n      dup1\n      mload\n      swap1\n      0x20\n      add\n      swap1\n      tag_96\n      swap3\n      swap2\n      swap1\n      tag_83\n      jump\t// in\n    tag_96:\n      pop\n      0x20\n      dup3\n      add\n      mload\n      dup2\n      0x01\n      add\n      swap1\n      dup1\n      mload\n      swap1\n      0x20\n      add\n      swap1\n      tag_97\n      swap3\n      swap2\n      swap1\n      tag_83\n      jump\t// in\n    tag_97:\n      pop\n      pop\n      pop\n        /* \"PokemonFactory.sol\":1127:1130  i++ */\n      dup1\n      dup1\n      tag_98\n      swap1\n      tag_99\n      jump\t// in\n    tag_98:\n      swap2\n      pop\n      pop\n        /* \"PokemonFactory.sol\":1091:1274  for (uint i = 0; i < _skill.length; i++) {... */\n      jump(tag_84)\n    tag_85:\n      pop\n        /* \"PokemonFactory.sol\":1289:1295  uint i */\n      0x00\n        /* \"PokemonFactory.sol\":1284:1412  for (uint i = 0; i < _types.length; i++) {... */\n    tag_100:\n        /* \"PokemonFactory.sol\":1305:1311  _types */\n      dup3\n        /* \"PokemonFactory.sol\":1305:1318  _types.length */\n      mload\n        /* \"PokemonFactory.sol\":1301:1302  i */\n      dup2\n        /* \"PokemonFactory.sol\":1301:1318  i < _types.length */\n      lt\n        /* \"PokemonFactory.sol\":1284:1412  for (uint i = 0; i < _types.length; i++) {... */\n      iszero\n      tag_101\n      jumpi\n        /* \"PokemonFactory.sol\":1339:1347  pokemons */\n      0x00\n        /* \"PokemonFactory.sol\":1366:1367  1 */\n      0x01\n        /* \"PokemonFactory.sol\":1348:1356  pokemons */\n      0x00\n        /* \"PokemonFactory.sol\":1348:1363  pokemons.length */\n      dup1\n      sload\n      swap1\n      pop\n        /* \"PokemonFactory.sol\":1348:1367  pokemons.length - 1 */\n      tag_103\n      swap2\n      swap1\n      tag_73\n      jump\t// in\n    tag_103:\n        /* \"PokemonFactory.sol\":1339:1368  pokemons[pokemons.length - 1] */\n      dup2\n      sload\n      dup2\n      lt\n      tag_104\n      jumpi\n      tag_105\n      tag_76\n      jump\t// in\n    tag_105:\n    tag_104:\n      swap1\n      0x00\n      mstore\n      keccak256(0x00, 0x20)\n      swap1\n      0x05\n      mul\n      add\n        /* \"PokemonFactory.sol\":1339:1374  pokemons[pokemons.length - 1].types */\n      0x03\n      add\n        /* \"PokemonFactory.sol\":1380:1400  Type(_types[i].name) */\n      mload(0x40)\n      dup1\n      0x20\n      add\n      0x40\n      mstore\n      dup1\n        /* \"PokemonFactory.sol\":1385:1391  _types */\n      dup6\n        /* \"PokemonFactory.sol\":1392:1393  i */\n      dup5\n        /* \"PokemonFactory.sol\":1385:1394  _types[i] */\n      dup2\n      mload\n      dup2\n      lt\n      tag_107\n      jumpi\n      tag_108\n      tag_76\n      jump\t// in\n    tag_108:\n    tag_107:\n      0x20\n      mul\n      0x20\n      add\n      add\n      mload\n        /* \"PokemonFactory.sol\":1385:1399  _types[i].name */\n      0x00\n      add\n      mload\n        /* \"PokemonFactory.sol\":1380:1400  Type(_types[i].name) */\n      dup2\n      mstore\n      pop\n        /* \"PokemonFactory.sol\":1339:1401  pokemons[pokemons.length - 1].types.push(Type(_types[i].name)) */\n      swap1\n      dup1\n      0x01\n      dup2\n      sload\n      add\n      dup1\n      dup3\n      sstore\n      dup1\n      swap2\n      pop\n      pop\n      0x01\n      swap1\n      sub\n      swap1\n      0x00\n      mstore\n      keccak256(0x00, 0x20)\n      add\n      0x00\n      swap1\n      swap2\n      swap1\n      swap2\n      swap1\n      swap2\n      pop\n      0x00\n      dup3\n      add\n      mload\n      dup2\n      0x00\n      add\n      swap1\n      dup1\n      mload\n      swap1\n      0x20\n      add\n      swap1\n      tag_110\n      swap3\n      swap2\n      swap1\n      tag_83\n      jump\t// in\n    tag_110:\n      pop\n      pop\n      pop\n        /* \"PokemonFactory.sol\":1320:1323  i++ */\n      dup1\n      dup1\n      tag_111\n      swap1\n      tag_99\n      jump\t// in\n    tag_111:\n      swap2\n      pop\n      pop\n        /* \"PokemonFactory.sol\":1284:1412  for (uint i = 0; i < _types.length; i++) {... */\n      jump(tag_100)\n    tag_101:\n      pop\n        /* \"PokemonFactory.sol\":1427:1433  uint i */\n      0x00\n        /* \"PokemonFactory.sol\":1422:1599  for (uint i = 0; i < _weaknesses.length; i++) {... */\n    tag_112:\n        /* \"PokemonFactory.sol\":1443:1454  _weaknesses */\n      dup2\n        /* \"PokemonFactory.sol\":1443:1461  _weaknesses.length */\n      mload\n        /* \"PokemonFactory.sol\":1439:1440  i */\n      dup2\n        /* \"PokemonFactory.sol\":1439:1461  i < _weaknesses.length */\n      lt\n        /* \"PokemonFactory.sol\":1422:1599  for (uint i = 0; i < _weaknesses.length; i++) {... */\n      iszero\n      tag_113\n      jumpi\n        /* \"PokemonFactory.sol\":1482:1490  pokemons */\n      0x00\n        /* \"PokemonFactory.sol\":1509:1510  1 */\n      0x01\n        /* \"PokemonFactory.sol\":1491:1499  pokemons */\n      0x00\n        /* \"PokemonFactory.sol\":1491:1506  pokemons.length */\n      dup1\n      sload\n      swap1\n      pop\n        /* \"PokemonFactory.sol\":1491:1510  pokemons.length - 1 */\n      tag_115\n      swap2\n      swap1\n      tag_73\n      jump\t// in\n    tag_115:\n        /* \"PokemonFactory.sol\":1482:1511  pokemons[pokemons.length - 1] */\n      dup2\n      sload\n      dup2\n      lt\n      tag_116\n      jumpi\n      tag_117\n      tag_76\n      jump\t// in\n    tag_117:\n    tag_116:\n      swap1\n      0x00\n      mstore\n      keccak256(0x00, 0x20)\n      swap1\n      0x05\n      mul\n      add\n        /* \"PokemonFactory.sol\":1482:1522  pokemons[pokemons.length - 1].weaknesses */\n      0x04\n      add\n        /* \"PokemonFactory.sol\":1545:1574  Weakness(_weaknesses[i].name) */\n      mload(0x40)\n      dup1\n      0x20\n      add\n      0x40\n      mstore\n      dup1\n        /* \"PokemonFactory.sol\":1554:1565  _weaknesses */\n      dup5\n        /* \"PokemonFactory.sol\":1566:1567  i */\n      dup5\n        /* \"PokemonFactory.sol\":1554:1568  _weaknesses[i] */\n      dup2\n      mload\n      dup2\n      lt\n      tag_119\n      jumpi\n      tag_120\n      tag_76\n      jump\t// in\n    tag_120:\n    tag_119:\n      0x20\n      mul\n      0x20\n      add\n      add\n      mload\n        /* \"PokemonFactory.sol\":1554:1573  _weaknesses[i].name */\n      0x00\n      add\n      mload\n        /* \"PokemonFactory.sol\":1545:1574  Weakness(_weaknesses[i].name) */\n      dup2\n      mstore\n      pop\n        /* \"PokemonFactory.sol\":1482:1588  pokemons[pokemons.length - 1].weaknesses.push(... */\n      swap1\n      dup1\n      0x01\n      dup2\n      sload\n      add\n      dup1\n      dup3\n      sstore\n      dup1\n      swap2\n      pop\n      pop\n      0x01\n      swap1\n      sub\n      swap1\n      0x00\n      mstore\n      keccak256(0x00, 0x20)\n      add\n      0x00\n      swap1\n      swap2\n      swap1\n      swap2\n      swap1\n      swap2\n      pop\n      0x00\n      dup3\n      add\n      mload\n      dup2\n      0x00\n      add\n      swap1\n      dup1\n      mload\n      swap1\n      0x20\n      add\n      swap1\n      tag_122\n      swap3\n      swap2\n      swap1\n      tag_83\n      jump\t// in\n    tag_122:\n      pop\n      pop\n      pop\n        /* \"PokemonFactory.sol\":1463:1466  i++ */\n      dup1\n      dup1\n      tag_123\n      swap1\n      tag_99\n      jump\t// in\n    tag_123:\n      swap2\n      pop\n      pop\n        /* \"PokemonFactory.sol\":1422:1599  for (uint i = 0; i < _weaknesses.length; i++) {... */\n      jump(tag_112)\n    tag_113:\n      pop\n        /* \"PokemonFactory.sol\":1631:1641  msg.sender */\n      caller\n        /* \"PokemonFactory.sol\":1609:1623  pokemonToOwner */\n      0x01\n        /* \"PokemonFactory.sol\":1609:1628  pokemonToOwner[_id] */\n      0x00\n        /* \"PokemonFactory.sol\":1624:1627  _id */\n      dup7\n        /* \"PokemonFactory.sol\":1609:1628  pokemonToOwner[_id] */\n      dup2\n      mstore\n      0x20\n      add\n      swap1\n      dup2\n      mstore\n      0x20\n      add\n      0x00\n      keccak256\n      0x00\n        /* \"PokemonFactory.sol\":1609:1641  pokemonToOwner[_id] = msg.sender */\n      0x0100\n      exp\n      dup2\n      sload\n      dup2\n      0xffffffffffffffffffffffffffffffffffffffff\n      mul\n      not\n      and\n      swap1\n      dup4\n      0xffffffffffffffffffffffffffffffffffffffff\n      and\n      mul\n      or\n      swap1\n      sstore\n      pop\n        /* \"PokemonFactory.sol\":1651:1668  ownerPokemonCount */\n      0x02\n        /* \"PokemonFactory.sol\":1651:1680  ownerPokemonCount[msg.sender] */\n      0x00\n        /* \"PokemonFactory.sol\":1669:1679  msg.sender */\n      caller\n        /* \"PokemonFactory.sol\":1651:1680  ownerPokemonCount[msg.sender] */\n      0xffffffffffffffffffffffffffffffffffffffff\n      and\n      0xffffffffffffffffffffffffffffffffffffffff\n      and\n      dup2\n      mstore\n      0x20\n      add\n      swap1\n      dup2\n      mstore\n      0x20\n      add\n      0x00\n      keccak256\n      0x00\n        /* \"PokemonFactory.sol\":1651:1682  ownerPokemonCount[msg.sender]++ */\n      dup2\n      sload\n      dup1\n      swap3\n      swap2\n      swap1\n      tag_124\n      swap1\n      tag_99\n      jump\t// in\n    tag_124:\n      swap2\n      swap1\n      pop\n      sstore\n      pop\n        /* \"PokemonFactory.sol\":1698:1720  eventNewPokemon(_name) */\n      0x9018649032bdfabe07c5fa8e887df7dda6baf8eac2ef8026b39eebed1fdadeff\n        /* \"PokemonFactory.sol\":1714:1719  _name */\n      dup6\n        /* \"PokemonFactory.sol\":1698:1720  eventNewPokemon(_name) */\n      mload(0x40)\n      tag_125\n      swap2\n      swap1\n      tag_126\n      jump\t// in\n    tag_125:\n      mload(0x40)\n      dup1\n      swap2\n      sub\n      swap1\n      log1\n        /* \"PokemonFactory.sol\":591:1727  function createPokemon(... */\n      pop\n      pop\n      pop\n      pop\n      pop\n      jump\t// out\n        /* \"PokemonFactory.sol\":1836:1995  function getResult() public pure returns (uint product, uint sum) {... */\n    tag_22:\n        /* \"PokemonFactory.sol\":1878:1890  uint product */\n      0x00\n        /* \"PokemonFactory.sol\":1892:1900  uint sum */\n      dup1\n        /* \"PokemonFactory.sol\":1912:1918  uint a */\n      0x00\n        /* \"PokemonFactory.sol\":1921:1922  1 */\n      0x01\n        /* \"PokemonFactory.sol\":1912:1922  uint a = 1 */\n      swap1\n      pop\n        /* \"PokemonFactory.sol\":1932:1938  uint b */\n      0x00\n        /* \"PokemonFactory.sol\":1941:1942  2 */\n      0x02\n        /* \"PokemonFactory.sol\":1932:1942  uint b = 2 */\n      swap1\n      pop\n        /* \"PokemonFactory.sol\":1966:1967  b */\n      dup1\n        /* \"PokemonFactory.sol\":1962:1963  a */\n      dup3\n        /* \"PokemonFactory.sol\":1962:1967  a * b */\n      tag_128\n      swap2\n      swap1\n      tag_129\n      jump\t// in\n    tag_128:\n        /* \"PokemonFactory.sol\":1952:1967  product = a * b */\n      swap4\n      pop\n        /* \"PokemonFactory.sol\":1987:1988  b */\n      dup1\n        /* \"PokemonFactory.sol\":1983:1984  a */\n      dup3\n        /* \"PokemonFactory.sol\":1983:1988  a + b */\n      tag_130\n      swap2\n      swap1\n      tag_131\n      jump\t// in\n    tag_130:\n        /* \"PokemonFactory.sol\":1977:1988  sum = a + b */\n      swap3\n      pop\n        /* \"PokemonFactory.sol\":1902:1995  {... */\n      pop\n      pop\n        /* \"PokemonFactory.sol\":1836:1995  function getResult() public pure returns (uint product, uint sum) {... */\n      swap1\n      swap2\n      jump\t// out\n    tag_83:\n      dup3\n      dup1\n      sload\n      tag_132\n      swap1\n      tag_30\n      jump\t// in\n    tag_132:\n      swap1\n      0x00\n      mstore\n      keccak256(0x00, 0x20)\n      swap1\n      0x1f\n      add\n      0x20\n      swap1\n      div\n      dup2\n      add\n      swap3\n      dup3\n      tag_134\n      jumpi\n      0x00\n      dup6\n      sstore\n      jump(tag_133)\n    tag_134:\n      dup3\n      0x1f\n      lt\n      tag_135\n      jumpi\n      dup1\n      mload\n      not(0xff)\n      and\n      dup4\n      dup1\n      add\n      or\n      dup6\n      sstore\n      jump(tag_133)\n    tag_135:\n      dup3\n      dup1\n      add\n      0x01\n      add\n      dup6\n      sstore\n      dup3\n      iszero\n      tag_133\n      jumpi\n      swap2\n      dup3\n      add\n    tag_136:\n      dup3\n      dup2\n      gt\n      iszero\n      tag_137\n      jumpi\n      dup3\n      mload\n      dup3\n      sstore\n      swap2\n      0x20\n      add\n      swap2\n      swap1\n      0x01\n      add\n      swap1\n      jump(tag_136)\n    tag_137:\n    tag_133:\n      pop\n      swap1\n      pop\n      tag_138\n      swap2\n      swap1\n      tag_139\n      jump\t// in\n    tag_138:\n      pop\n      swap1\n      jump\t// out\n    tag_139:\n    tag_140:\n      dup1\n      dup3\n      gt\n      iszero\n      tag_141\n      jumpi\n      0x00\n      dup2\n      0x00\n      swap1\n      sstore\n      pop\n      0x01\n      add\n      jump(tag_140)\n    tag_141:\n      pop\n      swap1\n      jump\t// out\n        /* \"#utility.yul\":44:1034   */\n    tag_143:\n        /* \"#utility.yul\":161:166   */\n      0x00\n        /* \"#utility.yul\":186:288   */\n      tag_145\n        /* \"#utility.yul\":202:287   */\n      tag_146\n        /* \"#utility.yul\":280:286   */\n      dup5\n        /* \"#utility.yul\":202:287   */\n      tag_147\n      jump\t// in\n    tag_146:\n        /* \"#utility.yul\":186:288   */\n      tag_148\n      jump\t// in\n    tag_145:\n        /* \"#utility.yul\":177:288   */\n      swap1\n      pop\n        /* \"#utility.yul\":308:313   */\n      dup1\n        /* \"#utility.yul\":337:343   */\n      dup4\n        /* \"#utility.yul\":330:335   */\n      dup3\n        /* \"#utility.yul\":323:344   */\n      mstore\n        /* \"#utility.yul\":371:375   */\n      0x20\n        /* \"#utility.yul\":364:369   */\n      dup3\n        /* \"#utility.yul\":360:376   */\n      add\n        /* \"#utility.yul\":353:376   */\n      swap1\n      pop\n        /* \"#utility.yul\":397:403   */\n      dup3\n        /* \"#utility.yul\":447:450   */\n      dup6\n        /* \"#utility.yul\":439:443   */\n      0x20\n        /* \"#utility.yul\":431:437   */\n      dup7\n        /* \"#utility.yul\":427:444   */\n      mul\n        /* \"#utility.yul\":422:425   */\n      dup3\n        /* \"#utility.yul\":418:445   */\n      add\n        /* \"#utility.yul\":415:451   */\n      gt\n        /* \"#utility.yul\":412:555   */\n      iszero\n      tag_149\n      jumpi\n        /* \"#utility.yul\":466:545   */\n      tag_150\n      tag_151\n      jump\t// in\n    tag_150:\n        /* \"#utility.yul\":412:555   */\n    tag_149:\n        /* \"#utility.yul\":579:580   */\n      0x00\n        /* \"#utility.yul\":564:1028   */\n    tag_152:\n        /* \"#utility.yul\":589:595   */\n      dup6\n        /* \"#utility.yul\":586:587   */\n      dup2\n        /* \"#utility.yul\":583:596   */\n      lt\n        /* \"#utility.yul\":564:1028   */\n      iszero\n      tag_154\n      jumpi\n        /* \"#utility.yul\":671:674   */\n      dup2\n        /* \"#utility.yul\":658:675   */\n      calldataload\n        /* \"#utility.yul\":707:725   */\n      0xffffffffffffffff\n        /* \"#utility.yul\":694:705   */\n      dup2\n        /* \"#utility.yul\":691:726   */\n      gt\n        /* \"#utility.yul\":688:810   */\n      iszero\n      tag_155\n      jumpi\n        /* \"#utility.yul\":729:808   */\n      tag_156\n      tag_157\n      jump\t// in\n    tag_156:\n        /* \"#utility.yul\":688:810   */\n    tag_155:\n        /* \"#utility.yul\":853:864   */\n      dup1\n        /* \"#utility.yul\":845:851   */\n      dup7\n        /* \"#utility.yul\":841:865   */\n      add\n        /* \"#utility.yul\":891:949   */\n      tag_158\n        /* \"#utility.yul\":945:948   */\n      dup10\n        /* \"#utility.yul\":933:943   */\n      dup3\n        /* \"#utility.yul\":891:949   */\n      tag_159\n      jump\t// in\n    tag_158:\n        /* \"#utility.yul\":886:889   */\n      dup6\n        /* \"#utility.yul\":879:950   */\n      mstore\n        /* \"#utility.yul\":979:983   */\n      0x20\n        /* \"#utility.yul\":974:977   */\n      dup6\n        /* \"#utility.yul\":970:984   */\n      add\n        /* \"#utility.yul\":963:984   */\n      swap5\n      pop\n        /* \"#utility.yul\":1013:1017   */\n      0x20\n        /* \"#utility.yul\":1008:1011   */\n      dup5\n        /* \"#utility.yul\":1004:1018   */\n      add\n        /* \"#utility.yul\":997:1018   */\n      swap4\n      pop\n        /* \"#utility.yul\":624:1028   */\n      pop\n      pop\n        /* \"#utility.yul\":611:612   */\n      0x01\n        /* \"#utility.yul\":608:609   */\n      dup2\n        /* \"#utility.yul\":604:613   */\n      add\n        /* \"#utility.yul\":599:613   */\n      swap1\n      pop\n        /* \"#utility.yul\":564:1028   */\n      jump(tag_152)\n    tag_154:\n        /* \"#utility.yul\":568:582   */\n      pop\n        /* \"#utility.yul\":167:1034   */\n      pop\n      pop\n        /* \"#utility.yul\":44:1034   */\n      swap4\n      swap3\n      pop\n      pop\n      pop\n      jump\t// out\n        /* \"#utility.yul\":1076:2063   */\n    tag_160:\n        /* \"#utility.yul\":1192:1197   */\n      0x00\n        /* \"#utility.yul\":1217:1318   */\n      tag_162\n        /* \"#utility.yul\":1233:1317   */\n      tag_163\n        /* \"#utility.yul\":1310:1316   */\n      dup5\n        /* \"#utility.yul\":1233:1317   */\n      tag_164\n      jump\t// in\n    tag_163:\n        /* \"#utility.yul\":1217:1318   */\n      tag_148\n      jump\t// in\n    tag_162:\n        /* \"#utility.yul\":1208:1318   */\n      swap1\n      pop\n        /* \"#utility.yul\":1338:1343   */\n      dup1\n        /* \"#utility.yul\":1367:1373   */\n      dup4\n        /* \"#utility.yul\":1360:1365   */\n      dup3\n        /* \"#utility.yul\":1353:1374   */\n      mstore\n        /* \"#utility.yul\":1401:1405   */\n      0x20\n        /* \"#utility.yul\":1394:1399   */\n      dup3\n        /* \"#utility.yul\":1390:1406   */\n      add\n        /* \"#utility.yul\":1383:1406   */\n      swap1\n      pop\n        /* \"#utility.yul\":1427:1433   */\n      dup3\n        /* \"#utility.yul\":1477:1480   */\n      dup6\n        /* \"#utility.yul\":1469:1473   */\n      0x20\n        /* \"#utility.yul\":1461:1467   */\n      dup7\n        /* \"#utility.yul\":1457:1474   */\n      mul\n        /* \"#utility.yul\":1452:1455   */\n      dup3\n        /* \"#utility.yul\":1448:1475   */\n      add\n        /* \"#utility.yul\":1445:1481   */\n      gt\n        /* \"#utility.yul\":1442:1585   */\n      iszero\n      tag_165\n      jumpi\n        /* \"#utility.yul\":1496:1575   */\n      tag_166\n      tag_151\n      jump\t// in\n    tag_166:\n        /* \"#utility.yul\":1442:1585   */\n    tag_165:\n        /* \"#utility.yul\":1609:1610   */\n      0x00\n        /* \"#utility.yul\":1594:2057   */\n    tag_167:\n        /* \"#utility.yul\":1619:1625   */\n      dup6\n        /* \"#utility.yul\":1616:1617   */\n      dup2\n        /* \"#utility.yul\":1613:1626   */\n      lt\n        /* \"#utility.yul\":1594:2057   */\n      iszero\n      tag_169\n      jumpi\n        /* \"#utility.yul\":1701:1704   */\n      dup2\n        /* \"#utility.yul\":1688:1705   */\n      calldataload\n        /* \"#utility.yul\":1737:1755   */\n      0xffffffffffffffff\n        /* \"#utility.yul\":1724:1735   */\n      dup2\n        /* \"#utility.yul\":1721:1756   */\n      gt\n        /* \"#utility.yul\":1718:1840   */\n      iszero\n      tag_170\n      jumpi\n        /* \"#utility.yul\":1759:1838   */\n      tag_171\n      tag_157\n      jump\t// in\n    tag_171:\n        /* \"#utility.yul\":1718:1840   */\n    tag_170:\n        /* \"#utility.yul\":1883:1894   */\n      dup1\n        /* \"#utility.yul\":1875:1881   */\n      dup7\n        /* \"#utility.yul\":1871:1895   */\n      add\n        /* \"#utility.yul\":1921:1978   */\n      tag_172\n        /* \"#utility.yul\":1974:1977   */\n      dup10\n        /* \"#utility.yul\":1962:1972   */\n      dup3\n        /* \"#utility.yul\":1921:1978   */\n      tag_173\n      jump\t// in\n    tag_172:\n        /* \"#utility.yul\":1916:1919   */\n      dup6\n        /* \"#utility.yul\":1909:1979   */\n      mstore\n        /* \"#utility.yul\":2008:2012   */\n      0x20\n        /* \"#utility.yul\":2003:2006   */\n      dup6\n        /* \"#utility.yul\":1999:2013   */\n      add\n        /* \"#utility.yul\":1992:2013   */\n      swap5\n      pop\n        /* \"#utility.yul\":2042:2046   */\n      0x20\n        /* \"#utility.yul\":2037:2040   */\n      dup5\n        /* \"#utility.yul\":2033:2047   */\n      add\n        /* \"#utility.yul\":2026:2047   */\n      swap4\n      pop\n        /* \"#utility.yul\":1654:2057   */\n      pop\n      pop\n        /* \"#utility.yul\":1641:1642   */\n      0x01\n        /* \"#utility.yul\":1638:1639   */\n      dup2\n        /* \"#utility.yul\":1634:1643   */\n      add\n        /* \"#utility.yul\":1629:1643   */\n      swap1\n      pop\n        /* \"#utility.yul\":1594:2057   */\n      jump(tag_167)\n    tag_169:\n        /* \"#utility.yul\":1598:1612   */\n      pop\n        /* \"#utility.yul\":1198:2063   */\n      pop\n      pop\n        /* \"#utility.yul\":1076:2063   */\n      swap4\n      swap3\n      pop\n      pop\n      pop\n      jump\t// out\n        /* \"#utility.yul\":2109:3108   */\n    tag_174:\n        /* \"#utility.yul\":2229:2234   */\n      0x00\n        /* \"#utility.yul\":2254:2359   */\n      tag_176\n        /* \"#utility.yul\":2270:2358   */\n      tag_177\n        /* \"#utility.yul\":2351:2357   */\n      dup5\n        /* \"#utility.yul\":2270:2358   */\n      tag_178\n      jump\t// in\n    tag_177:\n        /* \"#utility.yul\":2254:2359   */\n      tag_148\n      jump\t// in\n    tag_176:\n        /* \"#utility.yul\":2245:2359   */\n      swap1\n      pop\n        /* \"#utility.yul\":2379:2384   */\n      dup1\n        /* \"#utility.yul\":2408:2414   */\n      dup4\n        /* \"#utility.yul\":2401:2406   */\n      dup3\n        /* \"#utility.yul\":2394:2415   */\n      mstore\n        /* \"#utility.yul\":2442:2446   */\n      0x20\n        /* \"#utility.yul\":2435:2440   */\n      dup3\n        /* \"#utility.yul\":2431:2447   */\n      add\n        /* \"#utility.yul\":2424:2447   */\n      swap1\n      pop\n        /* \"#utility.yul\":2468:2474   */\n      dup3\n        /* \"#utility.yul\":2518:2521   */\n      dup6\n        /* \"#utility.yul\":2510:2514   */\n      0x20\n        /* \"#utility.yul\":2502:2508   */\n      dup7\n        /* \"#utility.yul\":2498:2515   */\n      mul\n        /* \"#utility.yul\":2493:2496   */\n      dup3\n        /* \"#utility.yul\":2489:2516   */\n      add\n        /* \"#utility.yul\":2486:2522   */\n      gt\n        /* \"#utility.yul\":2483:2626   */\n      iszero\n      tag_179\n      jumpi\n        /* \"#utility.yul\":2537:2616   */\n      tag_180\n      tag_151\n      jump\t// in\n    tag_180:\n        /* \"#utility.yul\":2483:2626   */\n    tag_179:\n        /* \"#utility.yul\":2650:2651   */\n      0x00\n        /* \"#utility.yul\":2635:3102   */\n    tag_181:\n        /* \"#utility.yul\":2660:2666   */\n      dup6\n        /* \"#utility.yul\":2657:2658   */\n      dup2\n        /* \"#utility.yul\":2654:2667   */\n      lt\n        /* \"#utility.yul\":2635:3102   */\n      iszero\n      tag_183\n      jumpi\n        /* \"#utility.yul\":2742:2745   */\n      dup2\n        /* \"#utility.yul\":2729:2746   */\n      calldataload\n        /* \"#utility.yul\":2778:2796   */\n      0xffffffffffffffff\n        /* \"#utility.yul\":2765:2776   */\n      dup2\n        /* \"#utility.yul\":2762:2797   */\n      gt\n        /* \"#utility.yul\":2759:2881   */\n      iszero\n      tag_184\n      jumpi\n        /* \"#utility.yul\":2800:2879   */\n      tag_185\n      tag_157\n      jump\t// in\n    tag_185:\n        /* \"#utility.yul\":2759:2881   */\n    tag_184:\n        /* \"#utility.yul\":2924:2935   */\n      dup1\n        /* \"#utility.yul\":2916:2922   */\n      dup7\n        /* \"#utility.yul\":2912:2936   */\n      add\n        /* \"#utility.yul\":2962:3023   */\n      tag_186\n        /* \"#utility.yul\":3019:3022   */\n      dup10\n        /* \"#utility.yul\":3007:3017   */\n      dup3\n        /* \"#utility.yul\":2962:3023   */\n      tag_187\n      jump\t// in\n    tag_186:\n        /* \"#utility.yul\":2957:2960   */\n      dup6\n        /* \"#utility.yul\":2950:3024   */\n      mstore\n        /* \"#utility.yul\":3053:3057   */\n      0x20\n        /* \"#utility.yul\":3048:3051   */\n      dup6\n        /* \"#utility.yul\":3044:3058   */\n      add\n        /* \"#utility.yul\":3037:3058   */\n      swap5\n      pop\n        /* \"#utility.yul\":3087:3091   */\n      0x20\n        /* \"#utility.yul\":3082:3085   */\n      dup5\n        /* \"#utility.yul\":3078:3092   */\n      add\n        /* \"#utility.yul\":3071:3092   */\n      swap4\n      pop\n        /* \"#utility.yul\":2695:3102   */\n      pop\n      pop\n        /* \"#utility.yul\":2682:2683   */\n      0x01\n        /* \"#utility.yul\":2679:2680   */\n      dup2\n        /* \"#utility.yul\":2675:2684   */\n      add\n        /* \"#utility.yul\":2670:2684   */\n      swap1\n      pop\n        /* \"#utility.yul\":2635:3102   */\n      jump(tag_181)\n    tag_183:\n        /* \"#utility.yul\":2639:2653   */\n      pop\n        /* \"#utility.yul\":2235:3108   */\n      pop\n      pop\n        /* \"#utility.yul\":2109:3108   */\n      swap4\n      swap3\n      pop\n      pop\n      pop\n      jump\t// out\n        /* \"#utility.yul\":3114:3526   */\n    tag_188:\n        /* \"#utility.yul\":3192:3197   */\n      0x00\n        /* \"#utility.yul\":3217:3283   */\n      tag_190\n        /* \"#utility.yul\":3233:3282   */\n      tag_191\n        /* \"#utility.yul\":3275:3281   */\n      dup5\n        /* \"#utility.yul\":3233:3282   */\n      tag_192\n      jump\t// in\n    tag_191:\n        /* \"#utility.yul\":3217:3283   */\n      tag_148\n      jump\t// in\n    tag_190:\n        /* \"#utility.yul\":3208:3283   */\n      swap1\n      pop\n        /* \"#utility.yul\":3306:3312   */\n      dup3\n        /* \"#utility.yul\":3299:3304   */\n      dup2\n        /* \"#utility.yul\":3292:3313   */\n      mstore\n        /* \"#utility.yul\":3344:3348   */\n      0x20\n        /* \"#utility.yul\":3337:3342   */\n      dup2\n        /* \"#utility.yul\":3333:3349   */\n      add\n        /* \"#utility.yul\":3382:3385   */\n      dup5\n        /* \"#utility.yul\":3373:3379   */\n      dup5\n        /* \"#utility.yul\":3368:3371   */\n      dup5\n        /* \"#utility.yul\":3364:3380   */\n      add\n        /* \"#utility.yul\":3361:3386   */\n      gt\n        /* \"#utility.yul\":3358:3470   */\n      iszero\n      tag_193\n      jumpi\n        /* \"#utility.yul\":3389:3468   */\n      tag_194\n      tag_195\n      jump\t// in\n    tag_194:\n        /* \"#utility.yul\":3358:3470   */\n    tag_193:\n        /* \"#utility.yul\":3479:3520   */\n      tag_196\n        /* \"#utility.yul\":3513:3519   */\n      dup5\n        /* \"#utility.yul\":3508:3511   */\n      dup3\n        /* \"#utility.yul\":3503:3506   */\n      dup6\n        /* \"#utility.yul\":3479:3520   */\n      tag_197\n      jump\t// in\n    tag_196:\n        /* \"#utility.yul\":3198:3526   */\n      pop\n        /* \"#utility.yul\":3114:3526   */\n      swap4\n      swap3\n      pop\n      pop\n      pop\n      jump\t// out\n        /* \"#utility.yul\":3569:3981   */\n    tag_198:\n        /* \"#utility.yul\":3661:3666   */\n      0x00\n        /* \"#utility.yul\":3710:3713   */\n      dup3\n        /* \"#utility.yul\":3703:3707   */\n      0x1f\n        /* \"#utility.yul\":3695:3701   */\n      dup4\n        /* \"#utility.yul\":3691:3708   */\n      add\n        /* \"#utility.yul\":3687:3714   */\n      slt\n        /* \"#utility.yul\":3677:3799   */\n      tag_200\n      jumpi\n        /* \"#utility.yul\":3718:3797   */\n      tag_201\n      tag_157\n      jump\t// in\n    tag_201:\n        /* \"#utility.yul\":3677:3799   */\n    tag_200:\n        /* \"#utility.yul\":3835:3841   */\n      dup2\n        /* \"#utility.yul\":3822:3842   */\n      calldataload\n        /* \"#utility.yul\":3860:3975   */\n      tag_202\n        /* \"#utility.yul\":3971:3974   */\n      dup5\n        /* \"#utility.yul\":3963:3969   */\n      dup3\n        /* \"#utility.yul\":3956:3960   */\n      0x20\n        /* \"#utility.yul\":3948:3954   */\n      dup7\n        /* \"#utility.yul\":3944:3961   */\n      add\n        /* \"#utility.yul\":3860:3975   */\n      tag_143\n      jump\t// in\n    tag_202:\n        /* \"#utility.yul\":3851:3975   */\n      swap2\n      pop\n        /* \"#utility.yul\":3667:3981   */\n      pop\n        /* \"#utility.yul\":3569:3981   */\n      swap3\n      swap2\n      pop\n      pop\n      jump\t// out\n        /* \"#utility.yul\":4023:4433   */\n    tag_203:\n        /* \"#utility.yul\":4114:4119   */\n      0x00\n        /* \"#utility.yul\":4163:4166   */\n      dup3\n        /* \"#utility.yul\":4156:4160   */\n      0x1f\n        /* \"#utility.yul\":4148:4154   */\n      dup4\n        /* \"#utility.yul\":4144:4161   */\n      add\n        /* \"#utility.yul\":4140:4167   */\n      slt\n        /* \"#utility.yul\":4130:4252   */\n      tag_205\n      jumpi\n        /* \"#utility.yul\":4171:4250   */\n      tag_206\n      tag_157\n      jump\t// in\n    tag_206:\n        /* \"#utility.yul\":4130:4252   */\n    tag_205:\n        /* \"#utility.yul\":4288:4294   */\n      dup2\n        /* \"#utility.yul\":4275:4295   */\n      calldataload\n        /* \"#utility.yul\":4313:4427   */\n      tag_207\n        /* \"#utility.yul\":4423:4426   */\n      dup5\n        /* \"#utility.yul\":4415:4421   */\n      dup3\n        /* \"#utility.yul\":4408:4412   */\n      0x20\n        /* \"#utility.yul\":4400:4406   */\n      dup7\n        /* \"#utility.yul\":4396:4413   */\n      add\n        /* \"#utility.yul\":4313:4427   */\n      tag_160\n      jump\t// in\n    tag_207:\n        /* \"#utility.yul\":4304:4427   */\n      swap2\n      pop\n        /* \"#utility.yul\":4120:4433   */\n      pop\n        /* \"#utility.yul\":4023:4433   */\n      swap3\n      swap2\n      pop\n      pop\n      jump\t// out\n        /* \"#utility.yul\":4479:4897   */\n    tag_208:\n        /* \"#utility.yul\":4574:4579   */\n      0x00\n        /* \"#utility.yul\":4623:4626   */\n      dup3\n        /* \"#utility.yul\":4616:4620   */\n      0x1f\n        /* \"#utility.yul\":4608:4614   */\n      dup4\n        /* \"#utility.yul\":4604:4621   */\n      add\n        /* \"#utility.yul\":4600:4627   */\n      slt\n        /* \"#utility.yul\":4590:4712   */\n      tag_210\n      jumpi\n        /* \"#utility.yul\":4631:4710   */\n      tag_211\n      tag_157\n      jump\t// in\n    tag_211:\n        /* \"#utility.yul\":4590:4712   */\n    tag_210:\n        /* \"#utility.yul\":4748:4754   */\n      dup2\n        /* \"#utility.yul\":4735:4755   */\n      calldataload\n        /* \"#utility.yul\":4773:4891   */\n      tag_212\n        /* \"#utility.yul\":4887:4890   */\n      dup5\n        /* \"#utility.yul\":4879:4885   */\n      dup3\n        /* \"#utility.yul\":4872:4876   */\n      0x20\n        /* \"#utility.yul\":4864:4870   */\n      dup7\n        /* \"#utility.yul\":4860:4877   */\n      add\n        /* \"#utility.yul\":4773:4891   */\n      tag_174\n      jump\t// in\n    tag_212:\n        /* \"#utility.yul\":4764:4891   */\n      swap2\n      pop\n        /* \"#utility.yul\":4580:4897   */\n      pop\n        /* \"#utility.yul\":4479:4897   */\n      swap3\n      swap2\n      pop\n      pop\n      jump\t// out\n        /* \"#utility.yul\":4917:5257   */\n    tag_213:\n        /* \"#utility.yul\":4973:4978   */\n      0x00\n        /* \"#utility.yul\":5022:5025   */\n      dup3\n        /* \"#utility.yul\":5015:5019   */\n      0x1f\n        /* \"#utility.yul\":5007:5013   */\n      dup4\n        /* \"#utility.yul\":5003:5020   */\n      add\n        /* \"#utility.yul\":4999:5026   */\n      slt\n        /* \"#utility.yul\":4989:5111   */\n      tag_215\n      jumpi\n        /* \"#utility.yul\":5030:5109   */\n      tag_216\n      tag_157\n      jump\t// in\n    tag_216:\n        /* \"#utility.yul\":4989:5111   */\n    tag_215:\n        /* \"#utility.yul\":5147:5153   */\n      dup2\n        /* \"#utility.yul\":5134:5154   */\n      calldataload\n        /* \"#utility.yul\":5172:5251   */\n      tag_217\n        /* \"#utility.yul\":5247:5250   */\n      dup5\n        /* \"#utility.yul\":5239:5245   */\n      dup3\n        /* \"#utility.yul\":5232:5236   */\n      0x20\n        /* \"#utility.yul\":5224:5230   */\n      dup7\n        /* \"#utility.yul\":5220:5237   */\n      add\n        /* \"#utility.yul\":5172:5251   */\n      tag_188\n      jump\t// in\n    tag_217:\n        /* \"#utility.yul\":5163:5251   */\n      swap2\n      pop\n        /* \"#utility.yul\":4979:5257   */\n      pop\n        /* \"#utility.yul\":4917:5257   */\n      swap3\n      swap2\n      pop\n      pop\n      jump\t// out\n        /* \"#utility.yul\":5298:6215   */\n    tag_159:\n        /* \"#utility.yul\":5368:5373   */\n      0x00\n        /* \"#utility.yul\":5412:5416   */\n      0x40\n        /* \"#utility.yul\":5400:5409   */\n      dup3\n        /* \"#utility.yul\":5395:5398   */\n      dup5\n        /* \"#utility.yul\":5391:5410   */\n      sub\n        /* \"#utility.yul\":5387:5417   */\n      slt\n        /* \"#utility.yul\":5384:5501   */\n      iszero\n      tag_219\n      jumpi\n        /* \"#utility.yul\":5420:5499   */\n      tag_220\n      tag_221\n      jump\t// in\n    tag_220:\n        /* \"#utility.yul\":5384:5501   */\n    tag_219:\n        /* \"#utility.yul\":5519:5540   */\n      tag_222\n        /* \"#utility.yul\":5535:5539   */\n      0x40\n        /* \"#utility.yul\":5519:5540   */\n      tag_148\n      jump\t// in\n    tag_222:\n        /* \"#utility.yul\":5510:5540   */\n      swap1\n      pop\n        /* \"#utility.yul\":5627:5628   */\n      0x00\n        /* \"#utility.yul\":5616:5625   */\n      dup3\n        /* \"#utility.yul\":5612:5629   */\n      add\n        /* \"#utility.yul\":5599:5630   */\n      calldataload\n        /* \"#utility.yul\":5657:5675   */\n      0xffffffffffffffff\n        /* \"#utility.yul\":5649:5655   */\n      dup2\n        /* \"#utility.yul\":5646:5676   */\n      gt\n        /* \"#utility.yul\":5643:5760   */\n      iszero\n      tag_223\n      jumpi\n        /* \"#utility.yul\":5679:5758   */\n      tag_224\n      tag_225\n      jump\t// in\n    tag_224:\n        /* \"#utility.yul\":5643:5760   */\n    tag_223:\n        /* \"#utility.yul\":5799:5858   */\n      tag_226\n        /* \"#utility.yul\":5854:5857   */\n      dup5\n        /* \"#utility.yul\":5845:5851   */\n      dup3\n        /* \"#utility.yul\":5834:5843   */\n      dup6\n        /* \"#utility.yul\":5830:5852   */\n      add\n        /* \"#utility.yul\":5799:5858   */\n      tag_213\n      jump\t// in\n    tag_226:\n        /* \"#utility.yul\":5792:5796   */\n      0x00\n        /* \"#utility.yul\":5785:5790   */\n      dup4\n        /* \"#utility.yul\":5781:5797   */\n      add\n        /* \"#utility.yul\":5774:5859   */\n      mstore\n        /* \"#utility.yul\":5550:5870   */\n      pop\n        /* \"#utility.yul\":5964:5966   */\n      0x20\n        /* \"#utility.yul\":5953:5962   */\n      dup3\n        /* \"#utility.yul\":5949:5967   */\n      add\n        /* \"#utility.yul\":5936:5968   */\n      calldataload\n        /* \"#utility.yul\":5995:6013   */\n      0xffffffffffffffff\n        /* \"#utility.yul\":5987:5993   */\n      dup2\n        /* \"#utility.yul\":5984:6014   */\n      gt\n        /* \"#utility.yul\":5981:6098   */\n      iszero\n      tag_227\n      jumpi\n        /* \"#utility.yul\":6017:6096   */\n      tag_228\n      tag_225\n      jump\t// in\n    tag_228:\n        /* \"#utility.yul\":5981:6098   */\n    tag_227:\n        /* \"#utility.yul\":6137:6196   */\n      tag_229\n        /* \"#utility.yul\":6192:6195   */\n      dup5\n        /* \"#utility.yul\":6183:6189   */\n      dup3\n        /* \"#utility.yul\":6172:6181   */\n      dup6\n        /* \"#utility.yul\":6168:6190   */\n      add\n        /* \"#utility.yul\":6137:6196   */\n      tag_213\n      jump\t// in\n    tag_229:\n        /* \"#utility.yul\":6130:6134   */\n      0x20\n        /* \"#utility.yul\":6123:6128   */\n      dup4\n        /* \"#utility.yul\":6119:6135   */\n      add\n        /* \"#utility.yul\":6112:6197   */\n      mstore\n        /* \"#utility.yul\":5880:6208   */\n      pop\n        /* \"#utility.yul\":5298:6215   */\n      swap3\n      swap2\n      pop\n      pop\n      jump\t// out\n        /* \"#utility.yul\":6255:6833   */\n    tag_173:\n        /* \"#utility.yul\":6324:6329   */\n      0x00\n        /* \"#utility.yul\":6368:6372   */\n      0x20\n        /* \"#utility.yul\":6356:6365   */\n      dup3\n        /* \"#utility.yul\":6351:6354   */\n      dup5\n        /* \"#utility.yul\":6347:6366   */\n      sub\n        /* \"#utility.yul\":6343:6373   */\n      slt\n        /* \"#utility.yul\":6340:6457   */\n      iszero\n      tag_231\n      jumpi\n        /* \"#utility.yul\":6376:6455   */\n      tag_232\n      tag_221\n      jump\t// in\n    tag_232:\n        /* \"#utility.yul\":6340:6457   */\n    tag_231:\n        /* \"#utility.yul\":6475:6496   */\n      tag_233\n        /* \"#utility.yul\":6491:6495   */\n      0x20\n        /* \"#utility.yul\":6475:6496   */\n      tag_148\n      jump\t// in\n    tag_233:\n        /* \"#utility.yul\":6466:6496   */\n      swap1\n      pop\n        /* \"#utility.yul\":6583:6584   */\n      0x00\n        /* \"#utility.yul\":6572:6581   */\n      dup3\n        /* \"#utility.yul\":6568:6585   */\n      add\n        /* \"#utility.yul\":6555:6586   */\n      calldataload\n        /* \"#utility.yul\":6613:6631   */\n      0xffffffffffffffff\n        /* \"#utility.yul\":6605:6611   */\n      dup2\n        /* \"#utility.yul\":6602:6632   */\n      gt\n        /* \"#utility.yul\":6599:6716   */\n      iszero\n      tag_234\n      jumpi\n        /* \"#utility.yul\":6635:6714   */\n      tag_235\n      tag_225\n      jump\t// in\n    tag_235:\n        /* \"#utility.yul\":6599:6716   */\n    tag_234:\n        /* \"#utility.yul\":6755:6814   */\n      tag_236\n        /* \"#utility.yul\":6810:6813   */\n      dup5\n        /* \"#utility.yul\":6801:6807   */\n      dup3\n        /* \"#utility.yul\":6790:6799   */\n      dup6\n        /* \"#utility.yul\":6786:6808   */\n      add\n        /* \"#utility.yul\":6755:6814   */\n      tag_213\n      jump\t// in\n    tag_236:\n        /* \"#utility.yul\":6748:6752   */\n      0x00\n        /* \"#utility.yul\":6741:6746   */\n      dup4\n        /* \"#utility.yul\":6737:6753   */\n      add\n        /* \"#utility.yul\":6730:6815   */\n      mstore\n        /* \"#utility.yul\":6506:6826   */\n      pop\n        /* \"#utility.yul\":6255:6833   */\n      swap3\n      swap2\n      pop\n      pop\n      jump\t// out\n        /* \"#utility.yul\":6877:7459   */\n    tag_187:\n        /* \"#utility.yul\":6950:6955   */\n      0x00\n        /* \"#utility.yul\":6994:6998   */\n      0x20\n        /* \"#utility.yul\":6982:6991   */\n      dup3\n        /* \"#utility.yul\":6977:6980   */\n      dup5\n        /* \"#utility.yul\":6973:6992   */\n      sub\n        /* \"#utility.yul\":6969:6999   */\n      slt\n        /* \"#utility.yul\":6966:7083   */\n      iszero\n      tag_238\n      jumpi\n        /* \"#utility.yul\":7002:7081   */\n      tag_239\n      tag_221\n      jump\t// in\n    tag_239:\n        /* \"#utility.yul\":6966:7083   */\n    tag_238:\n        /* \"#utility.yul\":7101:7122   */\n      tag_240\n        /* \"#utility.yul\":7117:7121   */\n      0x20\n        /* \"#utility.yul\":7101:7122   */\n      tag_148\n      jump\t// in\n    tag_240:\n        /* \"#utility.yul\":7092:7122   */\n      swap1\n      pop\n        /* \"#utility.yul\":7209:7210   */\n      0x00\n        /* \"#utility.yul\":7198:7207   */\n      dup3\n        /* \"#utility.yul\":7194:7211   */\n      add\n        /* \"#utility.yul\":7181:7212   */\n      calldataload\n        /* \"#utility.yul\":7239:7257   */\n      0xffffffffffffffff\n        /* \"#utility.yul\":7231:7237   */\n      dup2\n        /* \"#utility.yul\":7228:7258   */\n      gt\n        /* \"#utility.yul\":7225:7342   */\n      iszero\n      tag_241\n      jumpi\n        /* \"#utility.yul\":7261:7340   */\n      tag_242\n      tag_225\n      jump\t// in\n    tag_242:\n        /* \"#utility.yul\":7225:7342   */\n    tag_241:\n        /* \"#utility.yul\":7381:7440   */\n      tag_243\n        /* \"#utility.yul\":7436:7439   */\n      dup5\n        /* \"#utility.yul\":7427:7433   */\n      dup3\n        /* \"#utility.yul\":7416:7425   */\n      dup6\n        /* \"#utility.yul\":7412:7434   */\n      add\n        /* \"#utility.yul\":7381:7440   */\n      tag_213\n      jump\t// in\n    tag_243:\n        /* \"#utility.yul\":7374:7378   */\n      0x00\n        /* \"#utility.yul\":7367:7372   */\n      dup4\n        /* \"#utility.yul\":7363:7379   */\n      add\n        /* \"#utility.yul\":7356:7441   */\n      mstore\n        /* \"#utility.yul\":7132:7452   */\n      pop\n        /* \"#utility.yul\":6877:7459   */\n      swap3\n      swap2\n      pop\n      pop\n      jump\t// out\n        /* \"#utility.yul\":7465:7604   */\n    tag_244:\n        /* \"#utility.yul\":7511:7516   */\n      0x00\n        /* \"#utility.yul\":7549:7555   */\n      dup2\n        /* \"#utility.yul\":7536:7556   */\n      calldataload\n        /* \"#utility.yul\":7527:7556   */\n      swap1\n      pop\n        /* \"#utility.yul\":7565:7598   */\n      tag_246\n        /* \"#utility.yul\":7592:7597   */\n      dup2\n        /* \"#utility.yul\":7565:7598   */\n      tag_247\n      jump\t// in\n    tag_246:\n        /* \"#utility.yul\":7465:7604   */\n      swap3\n      swap2\n      pop\n      pop\n      jump\t// out\n        /* \"#utility.yul\":7610:9461   */\n    tag_19:\n        /* \"#utility.yul\":7855:7861   */\n      0x00\n        /* \"#utility.yul\":7863:7869   */\n      dup1\n        /* \"#utility.yul\":7871:7877   */\n      0x00\n        /* \"#utility.yul\":7879:7885   */\n      dup1\n        /* \"#utility.yul\":7887:7893   */\n      0x00\n        /* \"#utility.yul\":7936:7939   */\n      0xa0\n        /* \"#utility.yul\":7924:7933   */\n      dup7\n        /* \"#utility.yul\":7915:7922   */\n      dup9\n        /* \"#utility.yul\":7911:7934   */\n      sub\n        /* \"#utility.yul\":7907:7940   */\n      slt\n        /* \"#utility.yul\":7904:8024   */\n      iszero\n      tag_249\n      jumpi\n        /* \"#utility.yul\":7943:8022   */\n      tag_250\n      tag_251\n      jump\t// in\n    tag_250:\n        /* \"#utility.yul\":7904:8024   */\n    tag_249:\n        /* \"#utility.yul\":8091:8092   */\n      0x00\n        /* \"#utility.yul\":8080:8089   */\n      dup7\n        /* \"#utility.yul\":8076:8093   */\n      add\n        /* \"#utility.yul\":8063:8094   */\n      calldataload\n        /* \"#utility.yul\":8121:8139   */\n      0xffffffffffffffff\n        /* \"#utility.yul\":8113:8119   */\n      dup2\n        /* \"#utility.yul\":8110:8140   */\n      gt\n        /* \"#utility.yul\":8107:8224   */\n      iszero\n      tag_252\n      jumpi\n        /* \"#utility.yul\":8143:8222   */\n      tag_253\n      tag_254\n      jump\t// in\n    tag_253:\n        /* \"#utility.yul\":8107:8224   */\n    tag_252:\n        /* \"#utility.yul\":8248:8311   */\n      tag_255\n        /* \"#utility.yul\":8303:8310   */\n      dup9\n        /* \"#utility.yul\":8294:8300   */\n      dup3\n        /* \"#utility.yul\":8283:8292   */\n      dup10\n        /* \"#utility.yul\":8279:8301   */\n      add\n        /* \"#utility.yul\":8248:8311   */\n      tag_213\n      jump\t// in\n    tag_255:\n        /* \"#utility.yul\":8238:8311   */\n      swap6\n      pop\n        /* \"#utility.yul\":8034:8321   */\n      pop\n        /* \"#utility.yul\":8360:8362   */\n      0x20\n        /* \"#utility.yul\":8386:8439   */\n      tag_256\n        /* \"#utility.yul\":8431:8438   */\n      dup9\n        /* \"#utility.yul\":8422:8428   */\n      dup3\n        /* \"#utility.yul\":8411:8420   */\n      dup10\n        /* \"#utility.yul\":8407:8429   */\n      add\n        /* \"#utility.yul\":8386:8439   */\n      tag_244\n      jump\t// in\n    tag_256:\n        /* \"#utility.yul\":8376:8439   */\n      swap5\n      pop\n        /* \"#utility.yul\":8331:8449   */\n      pop\n        /* \"#utility.yul\":8516:8518   */\n      0x40\n        /* \"#utility.yul\":8505:8514   */\n      dup7\n        /* \"#utility.yul\":8501:8519   */\n      add\n        /* \"#utility.yul\":8488:8520   */\n      calldataload\n        /* \"#utility.yul\":8547:8565   */\n      0xffffffffffffffff\n        /* \"#utility.yul\":8539:8545   */\n      dup2\n        /* \"#utility.yul\":8536:8566   */\n      gt\n        /* \"#utility.yul\":8533:8650   */\n      iszero\n      tag_257\n      jumpi\n        /* \"#utility.yul\":8569:8648   */\n      tag_258\n      tag_254\n      jump\t// in\n    tag_258:\n        /* \"#utility.yul\":8533:8650   */\n    tag_257:\n        /* \"#utility.yul\":8674:8773   */\n      tag_259\n        /* \"#utility.yul\":8765:8772   */\n      dup9\n        /* \"#utility.yul\":8756:8762   */\n      dup3\n        /* \"#utility.yul\":8745:8754   */\n      dup10\n        /* \"#utility.yul\":8741:8763   */\n      add\n        /* \"#utility.yul\":8674:8773   */\n      tag_198\n      jump\t// in\n    tag_259:\n        /* \"#utility.yul\":8664:8773   */\n      swap4\n      pop\n        /* \"#utility.yul\":8459:8783   */\n      pop\n        /* \"#utility.yul\":8850:8852   */\n      0x60\n        /* \"#utility.yul\":8839:8848   */\n      dup7\n        /* \"#utility.yul\":8835:8853   */\n      add\n        /* \"#utility.yul\":8822:8854   */\n      calldataload\n        /* \"#utility.yul\":8881:8899   */\n      0xffffffffffffffff\n        /* \"#utility.yul\":8873:8879   */\n      dup2\n        /* \"#utility.yul\":8870:8900   */\n      gt\n        /* \"#utility.yul\":8867:8984   */\n      iszero\n      tag_260\n      jumpi\n        /* \"#utility.yul\":8903:8982   */\n      tag_261\n      tag_254\n      jump\t// in\n    tag_261:\n        /* \"#utility.yul\":8867:8984   */\n    tag_260:\n        /* \"#utility.yul\":9008:9106   */\n      tag_262\n        /* \"#utility.yul\":9098:9105   */\n      dup9\n        /* \"#utility.yul\":9089:9095   */\n      dup3\n        /* \"#utility.yul\":9078:9087   */\n      dup10\n        /* \"#utility.yul\":9074:9096   */\n      add\n        /* \"#utility.yul\":9008:9106   */\n      tag_203\n      jump\t// in\n    tag_262:\n        /* \"#utility.yul\":8998:9106   */\n      swap3\n      pop\n        /* \"#utility.yul\":8793:9116   */\n      pop\n        /* \"#utility.yul\":9183:9186   */\n      0x80\n        /* \"#utility.yul\":9172:9181   */\n      dup7\n        /* \"#utility.yul\":9168:9187   */\n      add\n        /* \"#utility.yul\":9155:9188   */\n      calldataload\n        /* \"#utility.yul\":9215:9233   */\n      0xffffffffffffffff\n        /* \"#utility.yul\":9207:9213   */\n      dup2\n        /* \"#utility.yul\":9204:9234   */\n      gt\n        /* \"#utility.yul\":9201:9318   */\n      iszero\n      tag_263\n      jumpi\n        /* \"#utility.yul\":9237:9316   */\n      tag_264\n      tag_254\n      jump\t// in\n    tag_264:\n        /* \"#utility.yul\":9201:9318   */\n    tag_263:\n        /* \"#utility.yul\":9342:9444   */\n      tag_265\n        /* \"#utility.yul\":9436:9443   */\n      dup9\n        /* \"#utility.yul\":9427:9433   */\n      dup3\n        /* \"#utility.yul\":9416:9425   */\n      dup10\n        /* \"#utility.yul\":9412:9434   */\n      add\n        /* \"#utility.yul\":9342:9444   */\n      tag_208\n      jump\t// in\n    tag_265:\n        /* \"#utility.yul\":9332:9444   */\n      swap2\n      pop\n        /* \"#utility.yul\":9126:9454   */\n      pop\n        /* \"#utility.yul\":7610:9461   */\n      swap3\n      swap6\n      pop\n      swap3\n      swap6\n      swap1\n      swap4\n      pop\n      jump\t// out\n        /* \"#utility.yul\":9467:9796   */\n    tag_9:\n        /* \"#utility.yul\":9526:9532   */\n      0x00\n        /* \"#utility.yul\":9575:9577   */\n      0x20\n        /* \"#utility.yul\":9563:9572   */\n      dup3\n        /* \"#utility.yul\":9554:9561   */\n      dup5\n        /* \"#utility.yul\":9550:9573   */\n      sub\n        /* \"#utility.yul\":9546:9578   */\n      slt\n        /* \"#utility.yul\":9543:9662   */\n      iszero\n      tag_267\n      jumpi\n        /* \"#utility.yul\":9581:9660   */\n      tag_268\n      tag_251\n      jump\t// in\n    tag_268:\n        /* \"#utility.yul\":9543:9662   */\n    tag_267:\n        /* \"#utility.yul\":9701:9702   */\n      0x00\n        /* \"#utility.yul\":9726:9779   */\n      tag_269\n        /* \"#utility.yul\":9771:9778   */\n      dup5\n        /* \"#utility.yul\":9762:9768   */\n      dup3\n        /* \"#utility.yul\":9751:9760   */\n      dup6\n        /* \"#utility.yul\":9747:9769   */\n      add\n        /* \"#utility.yul\":9726:9779   */\n      tag_244\n      jump\t// in\n    tag_269:\n        /* \"#utility.yul\":9716:9779   */\n      swap2\n      pop\n        /* \"#utility.yul\":9672:9789   */\n      pop\n        /* \"#utility.yul\":9467:9796   */\n      swap3\n      swap2\n      pop\n      pop\n      jump\t// out\n        /* \"#utility.yul\":9802:10050   */\n    tag_270:\n        /* \"#utility.yul\":9917:9927   */\n      0x00\n        /* \"#utility.yul\":9952:10044   */\n      tag_272\n        /* \"#utility.yul\":10040:10043   */\n      dup4\n        /* \"#utility.yul\":10032:10038   */\n      dup4\n        /* \"#utility.yul\":9952:10044   */\n      tag_273\n      jump\t// in\n    tag_272:\n        /* \"#utility.yul\":9938:10044   */\n      swap1\n      pop\n        /* \"#utility.yul\":9802:10050   */\n      swap3\n      swap2\n      pop\n      pop\n      jump\t// out\n        /* \"#utility.yul\":10056:10296   */\n    tag_274:\n        /* \"#utility.yul\":10167:10177   */\n      0x00\n        /* \"#utility.yul\":10202:10290   */\n      tag_276\n        /* \"#utility.yul\":10286:10289   */\n      dup4\n        /* \"#utility.yul\":10278:10284   */\n      dup4\n        /* \"#utility.yul\":10202:10290   */\n      tag_277\n      jump\t// in\n    tag_276:\n        /* \"#utility.yul\":10188:10290   */\n      swap1\n      pop\n        /* \"#utility.yul\":10056:10296   */\n      swap3\n      swap2\n      pop\n      pop\n      jump\t// out\n        /* \"#utility.yul\":10302:10538   */\n    tag_278:\n        /* \"#utility.yul\":10411:10421   */\n      0x00\n        /* \"#utility.yul\":10446:10532   */\n      tag_280\n        /* \"#utility.yul\":10528:10531   */\n      dup4\n        /* \"#utility.yul\":10520:10526   */\n      dup4\n        /* \"#utility.yul\":10446:10532   */\n      tag_281\n      jump\t// in\n    tag_280:\n        /* \"#utility.yul\":10432:10532   */\n      swap1\n      pop\n        /* \"#utility.yul\":10302:10538   */\n      swap3\n      swap2\n      pop\n      pop\n      jump\t// out\n        /* \"#utility.yul\":10544:10796   */\n    tag_282:\n        /* \"#utility.yul\":10661:10671   */\n      0x00\n        /* \"#utility.yul\":10696:10790   */\n      tag_284\n        /* \"#utility.yul\":10786:10789   */\n      dup4\n        /* \"#utility.yul\":10778:10784   */\n      dup4\n        /* \"#utility.yul\":10696:10790   */\n      tag_285\n      jump\t// in\n    tag_284:\n        /* \"#utility.yul\":10682:10790   */\n      swap1\n      pop\n        /* \"#utility.yul\":10544:10796   */\n      swap3\n      swap2\n      pop\n      pop\n      jump\t// out\n        /* \"#utility.yul\":10802:10920   */\n    tag_286:\n        /* \"#utility.yul\":10889:10913   */\n      tag_288\n        /* \"#utility.yul\":10907:10912   */\n      dup2\n        /* \"#utility.yul\":10889:10913   */\n      tag_289\n      jump\t// in\n    tag_288:\n        /* \"#utility.yul\":10884:10887   */\n      dup3\n        /* \"#utility.yul\":10877:10914   */\n      mstore\n        /* \"#utility.yul\":10802:10920   */\n      pop\n      pop\n      jump\t// out\n        /* \"#utility.yul\":11000:12095   */\n    tag_290:\n        /* \"#utility.yul\":11165:11168   */\n      0x00\n        /* \"#utility.yul\":11194:11271   */\n      tag_292\n        /* \"#utility.yul\":11265:11270   */\n      dup3\n        /* \"#utility.yul\":11194:11271   */\n      tag_293\n      jump\t// in\n    tag_292:\n        /* \"#utility.yul\":11287:11396   */\n      tag_294\n        /* \"#utility.yul\":11389:11395   */\n      dup2\n        /* \"#utility.yul\":11384:11387   */\n      dup6\n        /* \"#utility.yul\":11287:11396   */\n      tag_295\n      jump\t// in\n    tag_294:\n        /* \"#utility.yul\":11280:11396   */\n      swap4\n      pop\n        /* \"#utility.yul\":11422:11425   */\n      dup4\n        /* \"#utility.yul\":11467:11471   */\n      0x20\n        /* \"#utility.yul\":11459:11465   */\n      dup3\n        /* \"#utility.yul\":11455:11472   */\n      mul\n        /* \"#utility.yul\":11450:11453   */\n      dup6\n        /* \"#utility.yul\":11446:11473   */\n      add\n        /* \"#utility.yul\":11497:11576   */\n      tag_296\n        /* \"#utility.yul\":11570:11575   */\n      dup6\n        /* \"#utility.yul\":11497:11576   */\n      tag_297\n      jump\t// in\n    tag_296:\n        /* \"#utility.yul\":11599:11606   */\n      dup1\n        /* \"#utility.yul\":11630:11631   */\n      0x00\n        /* \"#utility.yul\":11615:12050   */\n    tag_298:\n        /* \"#utility.yul\":11640:11646   */\n      dup6\n        /* \"#utility.yul\":11637:11638   */\n      dup2\n        /* \"#utility.yul\":11634:11647   */\n      lt\n        /* \"#utility.yul\":11615:12050   */\n      iszero\n      tag_300\n      jumpi\n        /* \"#utility.yul\":11711:11720   */\n      dup5\n        /* \"#utility.yul\":11705:11709   */\n      dup5\n        /* \"#utility.yul\":11701:11721   */\n      sub\n        /* \"#utility.yul\":11696:11699   */\n      dup10\n        /* \"#utility.yul\":11689:11722   */\n      mstore\n        /* \"#utility.yul\":11762:11768   */\n      dup2\n        /* \"#utility.yul\":11756:11769   */\n      mload\n        /* \"#utility.yul\":11790:11900   */\n      tag_301\n        /* \"#utility.yul\":11895:11899   */\n      dup6\n        /* \"#utility.yul\":11880:11893   */\n      dup3\n        /* \"#utility.yul\":11790:11900   */\n      tag_270\n      jump\t// in\n    tag_301:\n        /* \"#utility.yul\":11782:11900   */\n      swap5\n      pop\n        /* \"#utility.yul\":11923:12006   */\n      tag_302\n        /* \"#utility.yul\":11999:12005   */\n      dup4\n        /* \"#utility.yul\":11923:12006   */\n      tag_303\n      jump\t// in\n    tag_302:\n        /* \"#utility.yul\":11913:12006   */\n      swap3\n      pop\n        /* \"#utility.yul\":12035:12039   */\n      0x20\n        /* \"#utility.yul\":12030:12033   */\n      dup11\n        /* \"#utility.yul\":12026:12040   */\n      add\n        /* \"#utility.yul\":12019:12040   */\n      swap10\n      pop\n        /* \"#utility.yul\":11675:12050   */\n      pop\n        /* \"#utility.yul\":11662:11663   */\n      0x01\n        /* \"#utility.yul\":11659:11660   */\n      dup2\n        /* \"#utility.yul\":11655:11664   */\n      add\n        /* \"#utility.yul\":11650:11664   */\n      swap1\n      pop\n        /* \"#utility.yul\":11615:12050   */\n      jump(tag_298)\n    tag_300:\n        /* \"#utility.yul\":11619:11633   */\n      pop\n        /* \"#utility.yul\":12066:12070   */\n      dup3\n        /* \"#utility.yul\":12059:12070   */\n      swap8\n      pop\n        /* \"#utility.yul\":12086:12089   */\n      dup8\n        /* \"#utility.yul\":12079:12089   */\n      swap6\n      pop\n        /* \"#utility.yul\":11170:12095   */\n      pop\n      pop\n      pop\n      pop\n      pop\n        /* \"#utility.yul\":11000:12095   */\n      swap3\n      swap2\n      pop\n      pop\n      jump\t// out\n        /* \"#utility.yul\":12171:13230   */\n    tag_304:\n        /* \"#utility.yul\":12322:12325   */\n      0x00\n        /* \"#utility.yul\":12351:12426   */\n      tag_306\n        /* \"#utility.yul\":12420:12425   */\n      dup3\n        /* \"#utility.yul\":12351:12426   */\n      tag_307\n      jump\t// in\n    tag_306:\n        /* \"#utility.yul\":12442:12539   */\n      tag_308\n        /* \"#utility.yul\":12532:12538   */\n      dup2\n        /* \"#utility.yul\":12527:12530   */\n      dup6\n        /* \"#utility.yul\":12442:12539   */\n      tag_309\n      jump\t// in\n    tag_308:\n        /* \"#utility.yul\":12435:12539   */\n      swap4\n      pop\n        /* \"#utility.yul\":12565:12568   */\n      dup4\n        /* \"#utility.yul\":12610:12614   */\n      0x20\n        /* \"#utility.yul\":12602:12608   */\n      dup3\n        /* \"#utility.yul\":12598:12615   */\n      mul\n        /* \"#utility.yul\":12593:12596   */\n      dup6\n        /* \"#utility.yul\":12589:12616   */\n      add\n        /* \"#utility.yul\":12640:12717   */\n      tag_310\n        /* \"#utility.yul\":12711:12716   */\n      dup6\n        /* \"#utility.yul\":12640:12717   */\n      tag_311\n      jump\t// in\n    tag_310:\n        /* \"#utility.yul\":12740:12747   */\n      dup1\n        /* \"#utility.yul\":12771:12772   */\n      0x00\n        /* \"#utility.yul\":12756:13185   */\n    tag_312:\n        /* \"#utility.yul\":12781:12787   */\n      dup6\n        /* \"#utility.yul\":12778:12779   */\n      dup2\n        /* \"#utility.yul\":12775:12788   */\n      lt\n        /* \"#utility.yul\":12756:13185   */\n      iszero\n      tag_314\n      jumpi\n        /* \"#utility.yul\":12852:12861   */\n      dup5\n        /* \"#utility.yul\":12846:12850   */\n      dup5\n        /* \"#utility.yul\":12842:12862   */\n      sub\n        /* \"#utility.yul\":12837:12840   */\n      dup10\n        /* \"#utility.yul\":12830:12863   */\n      mstore\n        /* \"#utility.yul\":12903:12909   */\n      dup2\n        /* \"#utility.yul\":12897:12910   */\n      mload\n        /* \"#utility.yul\":12931:13037   */\n      tag_315\n        /* \"#utility.yul\":13032:13036   */\n      dup6\n        /* \"#utility.yul\":13017:13030   */\n      dup3\n        /* \"#utility.yul\":12931:13037   */\n      tag_274\n      jump\t// in\n    tag_315:\n        /* \"#utility.yul\":12923:13037   */\n      swap5\n      pop\n        /* \"#utility.yul\":13060:13141   */\n      tag_316\n        /* \"#utility.yul\":13134:13140   */\n      dup4\n        /* \"#utility.yul\":13060:13141   */\n      tag_317\n      jump\t// in\n    tag_316:\n        /* \"#utility.yul\":13050:13141   */\n      swap3\n      pop\n        /* \"#utility.yul\":13170:13174   */\n      0x20\n        /* \"#utility.yul\":13165:13168   */\n      dup11\n        /* \"#utility.yul\":13161:13175   */\n      add\n        /* \"#utility.yul\":13154:13175   */\n      swap10\n      pop\n        /* \"#utility.yul\":12816:13185   */\n      pop\n        /* \"#utility.yul\":12803:12804   */\n      0x01\n        /* \"#utility.yul\":12800:12801   */\n      dup2\n        /* \"#utility.yul\":12796:12805   */\n      add\n        /* \"#utility.yul\":12791:12805   */\n      swap1\n      pop\n        /* \"#utility.yul\":12756:13185   */\n      jump(tag_312)\n    tag_314:\n        /* \"#utility.yul\":12760:12774   */\n      pop\n        /* \"#utility.yul\":13201:13205   */\n      dup3\n        /* \"#utility.yul\":13194:13205   */\n      swap8\n      pop\n        /* \"#utility.yul\":13221:13224   */\n      dup8\n        /* \"#utility.yul\":13214:13224   */\n      swap6\n      pop\n        /* \"#utility.yul\":12327:13230   */\n      pop\n      pop\n      pop\n      pop\n      pop\n        /* \"#utility.yul\":12171:13230   */\n      swap3\n      swap2\n      pop\n      pop\n      jump\t// out\n        /* \"#utility.yul\":13304:14355   */\n    tag_318:\n        /* \"#utility.yul\":13453:13456   */\n      0x00\n        /* \"#utility.yul\":13482:13556   */\n      tag_320\n        /* \"#utility.yul\":13550:13555   */\n      dup3\n        /* \"#utility.yul\":13482:13556   */\n      tag_321\n      jump\t// in\n    tag_320:\n        /* \"#utility.yul\":13572:13668   */\n      tag_322\n        /* \"#utility.yul\":13661:13667   */\n      dup2\n        /* \"#utility.yul\":13656:13659   */\n      dup6\n        /* \"#utility.yul\":13572:13668   */\n      tag_323\n      jump\t// in\n    tag_322:\n        /* \"#utility.yul\":13565:13668   */\n      swap4\n      pop\n        /* \"#utility.yul\":13694:13697   */\n      dup4\n        /* \"#utility.yul\":13739:13743   */\n      0x20\n        /* \"#utility.yul\":13731:13737   */\n      dup3\n        /* \"#utility.yul\":13727:13744   */\n      mul\n        /* \"#utility.yul\":13722:13725   */\n      dup6\n        /* \"#utility.yul\":13718:13745   */\n      add\n        /* \"#utility.yul\":13769:13845   */\n      tag_324\n        /* \"#utility.yul\":13839:13844   */\n      dup6\n        /* \"#utility.yul\":13769:13845   */\n      tag_325\n      jump\t// in\n    tag_324:\n        /* \"#utility.yul\":13868:13875   */\n      dup1\n        /* \"#utility.yul\":13899:13900   */\n      0x00\n        /* \"#utility.yul\":13884:14310   */\n    tag_326:\n        /* \"#utility.yul\":13909:13915   */\n      dup6\n        /* \"#utility.yul\":13906:13907   */\n      dup2\n        /* \"#utility.yul\":13903:13916   */\n      lt\n        /* \"#utility.yul\":13884:14310   */\n      iszero\n      tag_328\n      jumpi\n        /* \"#utility.yul\":13980:13989   */\n      dup5\n        /* \"#utility.yul\":13974:13978   */\n      dup5\n        /* \"#utility.yul\":13970:13990   */\n      sub\n        /* \"#utility.yul\":13965:13968   */\n      dup10\n        /* \"#utility.yul\":13958:13991   */\n      mstore\n        /* \"#utility.yul\":14031:14037   */\n      dup2\n        /* \"#utility.yul\":14025:14038   */\n      mload\n        /* \"#utility.yul\":14059:14163   */\n      tag_329\n        /* \"#utility.yul\":14158:14162   */\n      dup6\n        /* \"#utility.yul\":14143:14156   */\n      dup3\n        /* \"#utility.yul\":14059:14163   */\n      tag_278\n      jump\t// in\n    tag_329:\n        /* \"#utility.yul\":14051:14163   */\n      swap5\n      pop\n        /* \"#utility.yul\":14186:14266   */\n      tag_330\n        /* \"#utility.yul\":14259:14265   */\n      dup4\n        /* \"#utility.yul\":14186:14266   */\n      tag_331\n      jump\t// in\n    tag_330:\n        /* \"#utility.yul\":14176:14266   */\n      swap3\n      pop\n        /* \"#utility.yul\":14295:14299   */\n      0x20\n        /* \"#utility.yul\":14290:14293   */\n      dup11\n        /* \"#utility.yul\":14286:14300   */\n      add\n        /* \"#utility.yul\":14279:14300   */\n      swap10\n      pop\n        /* \"#utility.yul\":13944:14310   */\n      pop\n        /* \"#utility.yul\":13931:13932   */\n      0x01\n        /* \"#utility.yul\":13928:13929   */\n      dup2\n        /* \"#utility.yul\":13924:13933   */\n      add\n        /* \"#utility.yul\":13919:13933   */\n      swap1\n      pop\n        /* \"#utility.yul\":13884:14310   */\n      jump(tag_326)\n    tag_328:\n        /* \"#utility.yul\":13888:13902   */\n      pop\n        /* \"#utility.yul\":14326:14330   */\n      dup3\n        /* \"#utility.yul\":14319:14330   */\n      swap8\n      pop\n        /* \"#utility.yul\":14346:14349   */\n      dup8\n        /* \"#utility.yul\":14339:14349   */\n      swap6\n      pop\n        /* \"#utility.yul\":13458:14355   */\n      pop\n      pop\n      pop\n      pop\n      pop\n        /* \"#utility.yul\":13304:14355   */\n      swap3\n      swap2\n      pop\n      pop\n      jump\t// out\n        /* \"#utility.yul\":14437:15520   */\n    tag_332:\n        /* \"#utility.yul\":14594:14597   */\n      0x00\n        /* \"#utility.yul\":14623:14701   */\n      tag_334\n        /* \"#utility.yul\":14695:14700   */\n      dup3\n        /* \"#utility.yul\":14623:14701   */\n      tag_335\n      jump\t// in\n    tag_334:\n        /* \"#utility.yul\":14717:14817   */\n      tag_336\n        /* \"#utility.yul\":14810:14816   */\n      dup2\n        /* \"#utility.yul\":14805:14808   */\n      dup6\n        /* \"#utility.yul\":14717:14817   */\n      tag_337\n      jump\t// in\n    tag_336:\n        /* \"#utility.yul\":14710:14817   */\n      swap4\n      pop\n        /* \"#utility.yul\":14843:14846   */\n      dup4\n        /* \"#utility.yul\":14888:14892   */\n      0x20\n        /* \"#utility.yul\":14880:14886   */\n      dup3\n        /* \"#utility.yul\":14876:14893   */\n      mul\n        /* \"#utility.yul\":14871:14874   */\n      dup6\n        /* \"#utility.yul\":14867:14894   */\n      add\n        /* \"#utility.yul\":14918:14998   */\n      tag_338\n        /* \"#utility.yul\":14992:14997   */\n      dup6\n        /* \"#utility.yul\":14918:14998   */\n      tag_339\n      jump\t// in\n    tag_338:\n        /* \"#utility.yul\":15021:15028   */\n      dup1\n        /* \"#utility.yul\":15052:15053   */\n      0x00\n        /* \"#utility.yul\":15037:15475   */\n    tag_340:\n        /* \"#utility.yul\":15062:15068   */\n      dup6\n        /* \"#utility.yul\":15059:15060   */\n      dup2\n        /* \"#utility.yul\":15056:15069   */\n      lt\n        /* \"#utility.yul\":15037:15475   */\n      iszero\n      tag_342\n      jumpi\n        /* \"#utility.yul\":15133:15142   */\n      dup5\n        /* \"#utility.yul\":15127:15131   */\n      dup5\n        /* \"#utility.yul\":15123:15143   */\n      sub\n        /* \"#utility.yul\":15118:15121   */\n      dup10\n        /* \"#utility.yul\":15111:15144   */\n      mstore\n        /* \"#utility.yul\":15184:15190   */\n      dup2\n        /* \"#utility.yul\":15178:15191   */\n      mload\n        /* \"#utility.yul\":15212:15324   */\n      tag_343\n        /* \"#utility.yul\":15319:15323   */\n      dup6\n        /* \"#utility.yul\":15304:15317   */\n      dup3\n        /* \"#utility.yul\":15212:15324   */\n      tag_282\n      jump\t// in\n    tag_343:\n        /* \"#utility.yul\":15204:15324   */\n      swap5\n      pop\n        /* \"#utility.yul\":15347:15431   */\n      tag_344\n        /* \"#utility.yul\":15424:15430   */\n      dup4\n        /* \"#utility.yul\":15347:15431   */\n      tag_345\n      jump\t// in\n    tag_344:\n        /* \"#utility.yul\":15337:15431   */\n      swap3\n      pop\n        /* \"#utility.yul\":15460:15464   */\n      0x20\n        /* \"#utility.yul\":15455:15458   */\n      dup11\n        /* \"#utility.yul\":15451:15465   */\n      add\n        /* \"#utility.yul\":15444:15465   */\n      swap10\n      pop\n        /* \"#utility.yul\":15097:15475   */\n      pop\n        /* \"#utility.yul\":15084:15085   */\n      0x01\n        /* \"#utility.yul\":15081:15082   */\n      dup2\n        /* \"#utility.yul\":15077:15086   */\n      add\n        /* \"#utility.yul\":15072:15086   */\n      swap1\n      pop\n        /* \"#utility.yul\":15037:15475   */\n      jump(tag_340)\n    tag_342:\n        /* \"#utility.yul\":15041:15055   */\n      pop\n        /* \"#utility.yul\":15491:15495   */\n      dup3\n        /* \"#utility.yul\":15484:15495   */\n      swap8\n      pop\n        /* \"#utility.yul\":15511:15514   */\n      dup8\n        /* \"#utility.yul\":15504:15514   */\n      swap6\n      pop\n        /* \"#utility.yul\":14599:15520   */\n      pop\n      pop\n      pop\n      pop\n      pop\n        /* \"#utility.yul\":14437:15520   */\n      swap3\n      swap2\n      pop\n      pop\n      jump\t// out\n        /* \"#utility.yul\":15526:15870   */\n    tag_346:\n        /* \"#utility.yul\":15604:15607   */\n      0x00\n        /* \"#utility.yul\":15632:15671   */\n      tag_348\n        /* \"#utility.yul\":15665:15670   */\n      dup3\n        /* \"#utility.yul\":15632:15671   */\n      tag_349\n      jump\t// in\n    tag_348:\n        /* \"#utility.yul\":15687:15748   */\n      tag_350\n        /* \"#utility.yul\":15741:15747   */\n      dup2\n        /* \"#utility.yul\":15736:15739   */\n      dup6\n        /* \"#utility.yul\":15687:15748   */\n      tag_351\n      jump\t// in\n    tag_350:\n        /* \"#utility.yul\":15680:15748   */\n      swap4\n      pop\n        /* \"#utility.yul\":15757:15809   */\n      tag_352\n        /* \"#utility.yul\":15802:15808   */\n      dup2\n        /* \"#utility.yul\":15797:15800   */\n      dup6\n        /* \"#utility.yul\":15790:15794   */\n      0x20\n        /* \"#utility.yul\":15783:15788   */\n      dup7\n        /* \"#utility.yul\":15779:15795   */\n      add\n        /* \"#utility.yul\":15757:15809   */\n      tag_353\n      jump\t// in\n    tag_352:\n        /* \"#utility.yul\":15834:15863   */\n      tag_354\n        /* \"#utility.yul\":15856:15862   */\n      dup2\n        /* \"#utility.yul\":15834:15863   */\n      tag_355\n      jump\t// in\n    tag_354:\n        /* \"#utility.yul\":15829:15832   */\n      dup5\n        /* \"#utility.yul\":15825:15864   */\n      add\n        /* \"#utility.yul\":15818:15864   */\n      swap2\n      pop\n        /* \"#utility.yul\":15608:15870   */\n      pop\n        /* \"#utility.yul\":15526:15870   */\n      swap3\n      swap2\n      pop\n      pop\n      jump\t// out\n        /* \"#utility.yul\":15876:16240   */\n    tag_356:\n        /* \"#utility.yul\":15964:15967   */\n      0x00\n        /* \"#utility.yul\":15992:16031   */\n      tag_358\n        /* \"#utility.yul\":16025:16030   */\n      dup3\n        /* \"#utility.yul\":15992:16031   */\n      tag_349\n      jump\t// in\n    tag_358:\n        /* \"#utility.yul\":16047:16118   */\n      tag_359\n        /* \"#utility.yul\":16111:16117   */\n      dup2\n        /* \"#utility.yul\":16106:16109   */\n      dup6\n        /* \"#utility.yul\":16047:16118   */\n      tag_360\n      jump\t// in\n    tag_359:\n        /* \"#utility.yul\":16040:16118   */\n      swap4\n      pop\n        /* \"#utility.yul\":16127:16179   */\n      tag_361\n        /* \"#utility.yul\":16172:16178   */\n      dup2\n        /* \"#utility.yul\":16167:16170   */\n      dup6\n        /* \"#utility.yul\":16160:16164   */\n      0x20\n        /* \"#utility.yul\":16153:16158   */\n      dup7\n        /* \"#utility.yul\":16149:16165   */\n      add\n        /* \"#utility.yul\":16127:16179   */\n      tag_353\n      jump\t// in\n    tag_361:\n        /* \"#utility.yul\":16204:16233   */\n      tag_362\n        /* \"#utility.yul\":16226:16232   */\n      dup2\n        /* \"#utility.yul\":16204:16233   */\n      tag_355\n      jump\t// in\n    tag_362:\n        /* \"#utility.yul\":16199:16202   */\n      dup5\n        /* \"#utility.yul\":16195:16234   */\n      add\n        /* \"#utility.yul\":16188:16234   */\n      swap2\n      pop\n        /* \"#utility.yul\":15968:16240   */\n      pop\n        /* \"#utility.yul\":15876:16240   */\n      swap3\n      swap2\n      pop\n      pop\n      jump\t// out\n        /* \"#utility.yul\":16246:16612   */\n    tag_363:\n        /* \"#utility.yul\":16388:16391   */\n      0x00\n        /* \"#utility.yul\":16409:16476   */\n      tag_365\n        /* \"#utility.yul\":16473:16475   */\n      0x29\n        /* \"#utility.yul\":16468:16471   */\n      dup4\n        /* \"#utility.yul\":16409:16476   */\n      tag_360\n      jump\t// in\n    tag_365:\n        /* \"#utility.yul\":16402:16476   */\n      swap2\n      pop\n        /* \"#utility.yul\":16485:16578   */\n      tag_366\n        /* \"#utility.yul\":16574:16577   */\n      dup3\n        /* \"#utility.yul\":16485:16578   */\n      tag_367\n      jump\t// in\n    tag_366:\n        /* \"#utility.yul\":16603:16605   */\n      0x40\n        /* \"#utility.yul\":16598:16601   */\n      dup3\n        /* \"#utility.yul\":16594:16606   */\n      add\n        /* \"#utility.yul\":16587:16606   */\n      swap1\n      pop\n        /* \"#utility.yul\":16246:16612   */\n      swap2\n      swap1\n      pop\n      jump\t// out\n        /* \"#utility.yul\":16618:16984   */\n    tag_368:\n        /* \"#utility.yul\":16760:16763   */\n      0x00\n        /* \"#utility.yul\":16781:16848   */\n      tag_370\n        /* \"#utility.yul\":16845:16847   */\n      0x1d\n        /* \"#utility.yul\":16840:16843   */\n      dup4\n        /* \"#utility.yul\":16781:16848   */\n      tag_360\n      jump\t// in\n    tag_370:\n        /* \"#utility.yul\":16774:16848   */\n      swap2\n      pop\n        /* \"#utility.yul\":16857:16950   */\n      tag_371\n        /* \"#utility.yul\":16946:16949   */\n      dup3\n        /* \"#utility.yul\":16857:16950   */\n      tag_372\n      jump\t// in\n    tag_371:\n        /* \"#utility.yul\":16975:16977   */\n      0x20\n        /* \"#utility.yul\":16970:16973   */\n      dup3\n        /* \"#utility.yul\":16966:16978   */\n      add\n        /* \"#utility.yul\":16959:16978   */\n      swap1\n      pop\n        /* \"#utility.yul\":16618:16984   */\n      swap2\n      swap1\n      pop\n      jump\t// out\n        /* \"#utility.yul\":17060:18614   */\n    tag_273:\n        /* \"#utility.yul\":17165:17168   */\n      0x00\n        /* \"#utility.yul\":17201:17205   */\n      0xa0\n        /* \"#utility.yul\":17196:17199   */\n      dup4\n        /* \"#utility.yul\":17192:17206   */\n      add\n        /* \"#utility.yul\":17286:17290   */\n      0x00\n        /* \"#utility.yul\":17279:17284   */\n      dup4\n        /* \"#utility.yul\":17275:17291   */\n      add\n        /* \"#utility.yul\":17269:17292   */\n      mload\n        /* \"#utility.yul\":17305:17368   */\n      tag_374\n        /* \"#utility.yul\":17362:17366   */\n      0x00\n        /* \"#utility.yul\":17357:17360   */\n      dup7\n        /* \"#utility.yul\":17353:17367   */\n      add\n        /* \"#utility.yul\":17339:17351   */\n      dup3\n        /* \"#utility.yul\":17305:17368   */\n      tag_375\n      jump\t// in\n    tag_374:\n        /* \"#utility.yul\":17216:17378   */\n      pop\n        /* \"#utility.yul\":17460:17464   */\n      0x20\n        /* \"#utility.yul\":17453:17458   */\n      dup4\n        /* \"#utility.yul\":17449:17465   */\n      add\n        /* \"#utility.yul\":17443:17466   */\n      mload\n        /* \"#utility.yul\":17513:17516   */\n      dup5\n        /* \"#utility.yul\":17507:17511   */\n      dup3\n        /* \"#utility.yul\":17503:17517   */\n      sub\n        /* \"#utility.yul\":17496:17500   */\n      0x20\n        /* \"#utility.yul\":17491:17494   */\n      dup7\n        /* \"#utility.yul\":17487:17501   */\n      add\n        /* \"#utility.yul\":17480:17518   */\n      mstore\n        /* \"#utility.yul\":17539:17612   */\n      tag_376\n        /* \"#utility.yul\":17607:17611   */\n      dup3\n        /* \"#utility.yul\":17593:17605   */\n      dup3\n        /* \"#utility.yul\":17539:17612   */\n      tag_346\n      jump\t// in\n    tag_376:\n        /* \"#utility.yul\":17531:17612   */\n      swap2\n      pop\n        /* \"#utility.yul\":17388:17623   */\n      pop\n        /* \"#utility.yul\":17707:17711   */\n      0x40\n        /* \"#utility.yul\":17700:17705   */\n      dup4\n        /* \"#utility.yul\":17696:17712   */\n      add\n        /* \"#utility.yul\":17690:17713   */\n      mload\n        /* \"#utility.yul\":17760:17763   */\n      dup5\n        /* \"#utility.yul\":17754:17758   */\n      dup3\n        /* \"#utility.yul\":17750:17764   */\n      sub\n        /* \"#utility.yul\":17743:17747   */\n      0x40\n        /* \"#utility.yul\":17738:17741   */\n      dup7\n        /* \"#utility.yul\":17734:17748   */\n      add\n        /* \"#utility.yul\":17727:17765   */\n      mstore\n        /* \"#utility.yul\":17786:17931   */\n      tag_377\n        /* \"#utility.yul\":17926:17930   */\n      dup3\n        /* \"#utility.yul\":17912:17924   */\n      dup3\n        /* \"#utility.yul\":17786:17931   */\n      tag_304\n      jump\t// in\n    tag_377:\n        /* \"#utility.yul\":17778:17931   */\n      swap2\n      pop\n        /* \"#utility.yul\":17633:17942   */\n      pop\n        /* \"#utility.yul\":18025:18029   */\n      0x60\n        /* \"#utility.yul\":18018:18023   */\n      dup4\n        /* \"#utility.yul\":18014:18030   */\n      add\n        /* \"#utility.yul\":18008:18031   */\n      mload\n        /* \"#utility.yul\":18078:18081   */\n      dup5\n        /* \"#utility.yul\":18072:18076   */\n      dup3\n        /* \"#utility.yul\":18068:18082   */\n      sub\n        /* \"#utility.yul\":18061:18065   */\n      0x60\n        /* \"#utility.yul\":18056:18059   */\n      dup7\n        /* \"#utility.yul\":18052:18066   */\n      add\n        /* \"#utility.yul\":18045:18083   */\n      mstore\n        /* \"#utility.yul\":18104:18247   */\n      tag_378\n        /* \"#utility.yul\":18242:18246   */\n      dup3\n        /* \"#utility.yul\":18228:18240   */\n      dup3\n        /* \"#utility.yul\":18104:18247   */\n      tag_318\n      jump\t// in\n    tag_378:\n        /* \"#utility.yul\":18096:18247   */\n      swap2\n      pop\n        /* \"#utility.yul\":17952:18258   */\n      pop\n        /* \"#utility.yul\":18346:18350   */\n      0x80\n        /* \"#utility.yul\":18339:18344   */\n      dup4\n        /* \"#utility.yul\":18335:18351   */\n      add\n        /* \"#utility.yul\":18329:18352   */\n      mload\n        /* \"#utility.yul\":18399:18402   */\n      dup5\n        /* \"#utility.yul\":18393:18397   */\n      dup3\n        /* \"#utility.yul\":18389:18403   */\n      sub\n        /* \"#utility.yul\":18382:18386   */\n      0x80\n        /* \"#utility.yul\":18377:18380   */\n      dup7\n        /* \"#utility.yul\":18373:18387   */\n      add\n        /* \"#utility.yul\":18366:18404   */\n      mstore\n        /* \"#utility.yul\":18425:18576   */\n      tag_379\n        /* \"#utility.yul\":18571:18575   */\n      dup3\n        /* \"#utility.yul\":18557:18569   */\n      dup3\n        /* \"#utility.yul\":18425:18576   */\n      tag_332\n      jump\t// in\n    tag_379:\n        /* \"#utility.yul\":18417:18576   */\n      swap2\n      pop\n        /* \"#utility.yul\":18268:18587   */\n      pop\n        /* \"#utility.yul\":18604:18608   */\n      dup1\n        /* \"#utility.yul\":18597:18608   */\n      swap2\n      pop\n        /* \"#utility.yul\":17170:18614   */\n      pop\n        /* \"#utility.yul\":17060:18614   */\n      swap3\n      swap2\n      pop\n      pop\n      jump\t// out\n        /* \"#utility.yul\":18686:19352   */\n    tag_277:\n        /* \"#utility.yul\":18787:18790   */\n      0x00\n        /* \"#utility.yul\":18823:18827   */\n      0x40\n        /* \"#utility.yul\":18818:18821   */\n      dup4\n        /* \"#utility.yul\":18814:18828   */\n      add\n        /* \"#utility.yul\":18910:18914   */\n      0x00\n        /* \"#utility.yul\":18903:18908   */\n      dup4\n        /* \"#utility.yul\":18899:18915   */\n      add\n        /* \"#utility.yul\":18893:18916   */\n      mload\n        /* \"#utility.yul\":18963:18966   */\n      dup5\n        /* \"#utility.yul\":18957:18961   */\n      dup3\n        /* \"#utility.yul\":18953:18967   */\n      sub\n        /* \"#utility.yul\":18946:18950   */\n      0x00\n        /* \"#utility.yul\":18941:18944   */\n      dup7\n        /* \"#utility.yul\":18937:18951   */\n      add\n        /* \"#utility.yul\":18930:18968   */\n      mstore\n        /* \"#utility.yul\":18989:19062   */\n      tag_381\n        /* \"#utility.yul\":19057:19061   */\n      dup3\n        /* \"#utility.yul\":19043:19055   */\n      dup3\n        /* \"#utility.yul\":18989:19062   */\n      tag_346\n      jump\t// in\n    tag_381:\n        /* \"#utility.yul\":18981:19062   */\n      swap2\n      pop\n        /* \"#utility.yul\":18838:19073   */\n      pop\n        /* \"#utility.yul\":19162:19166   */\n      0x20\n        /* \"#utility.yul\":19155:19160   */\n      dup4\n        /* \"#utility.yul\":19151:19167   */\n      add\n        /* \"#utility.yul\":19145:19168   */\n      mload\n        /* \"#utility.yul\":19215:19218   */\n      dup5\n        /* \"#utility.yul\":19209:19213   */\n      dup3\n        /* \"#utility.yul\":19205:19219   */\n      sub\n        /* \"#utility.yul\":19198:19202   */\n      0x20\n        /* \"#utility.yul\":19193:19196   */\n      dup7\n        /* \"#utility.yul\":19189:19203   */\n      add\n        /* \"#utility.yul\":19182:19220   */\n      mstore\n        /* \"#utility.yul\":19241:19314   */\n      tag_382\n        /* \"#utility.yul\":19309:19313   */\n      dup3\n        /* \"#utility.yul\":19295:19307   */\n      dup3\n        /* \"#utility.yul\":19241:19314   */\n      tag_346\n      jump\t// in\n    tag_382:\n        /* \"#utility.yul\":19233:19314   */\n      swap2\n      pop\n        /* \"#utility.yul\":19083:19325   */\n      pop\n        /* \"#utility.yul\":19342:19346   */\n      dup1\n        /* \"#utility.yul\":19335:19346   */\n      swap2\n      pop\n        /* \"#utility.yul\":18792:19352   */\n      pop\n        /* \"#utility.yul\":18686:19352   */\n      swap3\n      swap2\n      pop\n      pop\n      jump\t// out\n        /* \"#utility.yul\":19422:19834   */\n    tag_281:\n        /* \"#utility.yul\":19521:19524   */\n      0x00\n        /* \"#utility.yul\":19557:19561   */\n      0x20\n        /* \"#utility.yul\":19552:19555   */\n      dup4\n        /* \"#utility.yul\":19548:19562   */\n      add\n        /* \"#utility.yul\":19644:19648   */\n      0x00\n        /* \"#utility.yul\":19637:19642   */\n      dup4\n        /* \"#utility.yul\":19633:19649   */\n      add\n        /* \"#utility.yul\":19627:19650   */\n      mload\n        /* \"#utility.yul\":19697:19700   */\n      dup5\n        /* \"#utility.yul\":19691:19695   */\n      dup3\n        /* \"#utility.yul\":19687:19701   */\n      sub\n        /* \"#utility.yul\":19680:19684   */\n      0x00\n        /* \"#utility.yul\":19675:19678   */\n      dup7\n        /* \"#utility.yul\":19671:19685   */\n      add\n        /* \"#utility.yul\":19664:19702   */\n      mstore\n        /* \"#utility.yul\":19723:19796   */\n      tag_384\n        /* \"#utility.yul\":19791:19795   */\n      dup3\n        /* \"#utility.yul\":19777:19789   */\n      dup3\n        /* \"#utility.yul\":19723:19796   */\n      tag_346\n      jump\t// in\n    tag_384:\n        /* \"#utility.yul\":19715:19796   */\n      swap2\n      pop\n        /* \"#utility.yul\":19572:19807   */\n      pop\n        /* \"#utility.yul\":19824:19828   */\n      dup1\n        /* \"#utility.yul\":19817:19828   */\n      swap2\n      pop\n        /* \"#utility.yul\":19526:19834   */\n      pop\n        /* \"#utility.yul\":19422:19834   */\n      swap3\n      swap2\n      pop\n      pop\n      jump\t// out\n        /* \"#utility.yul\":19912:20332   */\n    tag_285:\n        /* \"#utility.yul\":20019:20022   */\n      0x00\n        /* \"#utility.yul\":20055:20059   */\n      0x20\n        /* \"#utility.yul\":20050:20053   */\n      dup4\n        /* \"#utility.yul\":20046:20060   */\n      add\n        /* \"#utility.yul\":20142:20146   */\n      0x00\n        /* \"#utility.yul\":20135:20140   */\n      dup4\n        /* \"#utility.yul\":20131:20147   */\n      add\n        /* \"#utility.yul\":20125:20148   */\n      mload\n        /* \"#utility.yul\":20195:20198   */\n      dup5\n        /* \"#utility.yul\":20189:20193   */\n      dup3\n        /* \"#utility.yul\":20185:20199   */\n      sub\n        /* \"#utility.yul\":20178:20182   */\n      0x00\n        /* \"#utility.yul\":20173:20176   */\n      dup7\n        /* \"#utility.yul\":20169:20183   */\n      add\n        /* \"#utility.yul\":20162:20200   */\n      mstore\n        /* \"#utility.yul\":20221:20294   */\n      tag_386\n        /* \"#utility.yul\":20289:20293   */\n      dup3\n        /* \"#utility.yul\":20275:20287   */\n      dup3\n        /* \"#utility.yul\":20221:20294   */\n      tag_346\n      jump\t// in\n    tag_386:\n        /* \"#utility.yul\":20213:20294   */\n      swap2\n      pop\n        /* \"#utility.yul\":20070:20305   */\n      pop\n        /* \"#utility.yul\":20322:20326   */\n      dup1\n        /* \"#utility.yul\":20315:20326   */\n      swap2\n      pop\n        /* \"#utility.yul\":20024:20332   */\n      pop\n        /* \"#utility.yul\":19912:20332   */\n      swap3\n      swap2\n      pop\n      pop\n      jump\t// out\n        /* \"#utility.yul\":20338:20446   */\n    tag_375:\n        /* \"#utility.yul\":20415:20439   */\n      tag_388\n        /* \"#utility.yul\":20433:20438   */\n      dup2\n        /* \"#utility.yul\":20415:20439   */\n      tag_389\n      jump\t// in\n    tag_388:\n        /* \"#utility.yul\":20410:20413   */\n      dup3\n        /* \"#utility.yul\":20403:20440   */\n      mstore\n        /* \"#utility.yul\":20338:20446   */\n      pop\n      pop\n      jump\t// out\n        /* \"#utility.yul\":20452:20570   */\n    tag_390:\n        /* \"#utility.yul\":20539:20563   */\n      tag_392\n        /* \"#utility.yul\":20557:20562   */\n      dup2\n        /* \"#utility.yul\":20539:20563   */\n      tag_389\n      jump\t// in\n    tag_392:\n        /* \"#utility.yul\":20534:20537   */\n      dup3\n        /* \"#utility.yul\":20527:20564   */\n      mstore\n        /* \"#utility.yul\":20452:20570   */\n      pop\n      pop\n      jump\t// out\n        /* \"#utility.yul\":20576:20798   */\n    tag_12:\n        /* \"#utility.yul\":20669:20673   */\n      0x00\n        /* \"#utility.yul\":20707:20709   */\n      0x20\n        /* \"#utility.yul\":20696:20705   */\n      dup3\n        /* \"#utility.yul\":20692:20710   */\n      add\n        /* \"#utility.yul\":20684:20710   */\n      swap1\n      pop\n        /* \"#utility.yul\":20720:20791   */\n      tag_394\n        /* \"#utility.yul\":20788:20789   */\n      0x00\n        /* \"#utility.yul\":20777:20786   */\n      dup4\n        /* \"#utility.yul\":20773:20790   */\n      add\n        /* \"#utility.yul\":20764:20770   */\n      dup5\n        /* \"#utility.yul\":20720:20791   */\n      tag_286\n      jump\t// in\n    tag_394:\n        /* \"#utility.yul\":20576:20798   */\n      swap3\n      swap2\n      pop\n      pop\n      jump\t// out\n        /* \"#utility.yul\":20804:21269   */\n    tag_16:\n        /* \"#utility.yul\":20993:20997   */\n      0x00\n        /* \"#utility.yul\":21031:21033   */\n      0x20\n        /* \"#utility.yul\":21020:21029   */\n      dup3\n        /* \"#utility.yul\":21016:21034   */\n      add\n        /* \"#utility.yul\":21008:21034   */\n      swap1\n      pop\n        /* \"#utility.yul\":21080:21089   */\n      dup2\n        /* \"#utility.yul\":21074:21078   */\n      dup2\n        /* \"#utility.yul\":21070:21090   */\n      sub\n        /* \"#utility.yul\":21066:21067   */\n      0x00\n        /* \"#utility.yul\":21055:21064   */\n      dup4\n        /* \"#utility.yul\":21051:21068   */\n      add\n        /* \"#utility.yul\":21044:21091   */\n      mstore\n        /* \"#utility.yul\":21108:21262   */\n      tag_396\n        /* \"#utility.yul\":21257:21261   */\n      dup2\n        /* \"#utility.yul\":21248:21254   */\n      dup5\n        /* \"#utility.yul\":21108:21262   */\n      tag_290\n      jump\t// in\n    tag_396:\n        /* \"#utility.yul\":21100:21262   */\n      swap1\n      pop\n        /* \"#utility.yul\":20804:21269   */\n      swap3\n      swap2\n      pop\n      pop\n      jump\t// out\n        /* \"#utility.yul\":21275:21588   */\n    tag_126:\n        /* \"#utility.yul\":21388:21392   */\n      0x00\n        /* \"#utility.yul\":21426:21428   */\n      0x20\n        /* \"#utility.yul\":21415:21424   */\n      dup3\n        /* \"#utility.yul\":21411:21429   */\n      add\n        /* \"#utility.yul\":21403:21429   */\n      swap1\n      pop\n        /* \"#utility.yul\":21475:21484   */\n      dup2\n        /* \"#utility.yul\":21469:21473   */\n      dup2\n        /* \"#utility.yul\":21465:21485   */\n      sub\n        /* \"#utility.yul\":21461:21462   */\n      0x00\n        /* \"#utility.yul\":21450:21459   */\n      dup4\n        /* \"#utility.yul\":21446:21463   */\n      add\n        /* \"#utility.yul\":21439:21486   */\n      mstore\n        /* \"#utility.yul\":21503:21581   */\n      tag_398\n        /* \"#utility.yul\":21576:21580   */\n      dup2\n        /* \"#utility.yul\":21567:21573   */\n      dup5\n        /* \"#utility.yul\":21503:21581   */\n      tag_356\n      jump\t// in\n    tag_398:\n        /* \"#utility.yul\":21495:21581   */\n      swap1\n      pop\n        /* \"#utility.yul\":21275:21588   */\n      swap3\n      swap2\n      pop\n      pop\n      jump\t// out\n        /* \"#utility.yul\":21594:22013   */\n    tag_70:\n        /* \"#utility.yul\":21760:21764   */\n      0x00\n        /* \"#utility.yul\":21798:21800   */\n      0x20\n        /* \"#utility.yul\":21787:21796   */\n      dup3\n        /* \"#utility.yul\":21783:21801   */\n      add\n        /* \"#utility.yul\":21775:21801   */\n      swap1\n      pop\n        /* \"#utility.yul\":21847:21856   */\n      dup2\n        /* \"#utility.yul\":21841:21845   */\n      dup2\n        /* \"#utility.yul\":21837:21857   */\n      sub\n        /* \"#utility.yul\":21833:21834   */\n      0x00\n        /* \"#utility.yul\":21822:21831   */\n      dup4\n        /* \"#utility.yul\":21818:21835   */\n      add\n        /* \"#utility.yul\":21811:21858   */\n      mstore\n        /* \"#utility.yul\":21875:22006   */\n      tag_400\n        /* \"#utility.yul\":22001:22005   */\n      dup2\n        /* \"#utility.yul\":21875:22006   */\n      tag_363\n      jump\t// in\n    tag_400:\n        /* \"#utility.yul\":21867:22006   */\n      swap1\n      pop\n        /* \"#utility.yul\":21594:22013   */\n      swap2\n      swap1\n      pop\n      jump\t// out\n        /* \"#utility.yul\":22019:22438   */\n    tag_67:\n        /* \"#utility.yul\":22185:22189   */\n      0x00\n        /* \"#utility.yul\":22223:22225   */\n      0x20\n        /* \"#utility.yul\":22212:22221   */\n      dup3\n        /* \"#utility.yul\":22208:22226   */\n      add\n        /* \"#utility.yul\":22200:22226   */\n      swap1\n      pop\n        /* \"#utility.yul\":22272:22281   */\n      dup2\n        /* \"#utility.yul\":22266:22270   */\n      dup2\n        /* \"#utility.yul\":22262:22282   */\n      sub\n        /* \"#utility.yul\":22258:22259   */\n      0x00\n        /* \"#utility.yul\":22247:22256   */\n      dup4\n        /* \"#utility.yul\":22243:22260   */\n      add\n        /* \"#utility.yul\":22236:22283   */\n      mstore\n        /* \"#utility.yul\":22300:22431   */\n      tag_402\n        /* \"#utility.yul\":22426:22430   */\n      dup2\n        /* \"#utility.yul\":22300:22431   */\n      tag_368\n      jump\t// in\n    tag_402:\n        /* \"#utility.yul\":22292:22431   */\n      swap1\n      pop\n        /* \"#utility.yul\":22019:22438   */\n      swap2\n      swap1\n      pop\n      jump\t// out\n        /* \"#utility.yul\":22444:22776   */\n    tag_24:\n        /* \"#utility.yul\":22565:22569   */\n      0x00\n        /* \"#utility.yul\":22603:22605   */\n      0x40\n        /* \"#utility.yul\":22592:22601   */\n      dup3\n        /* \"#utility.yul\":22588:22606   */\n      add\n        /* \"#utility.yul\":22580:22606   */\n      swap1\n      pop\n        /* \"#utility.yul\":22616:22687   */\n      tag_404\n        /* \"#utility.yul\":22684:22685   */\n      0x00\n        /* \"#utility.yul\":22673:22682   */\n      dup4\n        /* \"#utility.yul\":22669:22686   */\n      add\n        /* \"#utility.yul\":22660:22666   */\n      dup6\n        /* \"#utility.yul\":22616:22687   */\n      tag_390\n      jump\t// in\n    tag_404:\n        /* \"#utility.yul\":22697:22769   */\n      tag_405\n        /* \"#utility.yul\":22765:22767   */\n      0x20\n        /* \"#utility.yul\":22754:22763   */\n      dup4\n        /* \"#utility.yul\":22750:22768   */\n      add\n        /* \"#utility.yul\":22741:22747   */\n      dup5\n        /* \"#utility.yul\":22697:22769   */\n      tag_390\n      jump\t// in\n    tag_405:\n        /* \"#utility.yul\":22444:22776   */\n      swap4\n      swap3\n      pop\n      pop\n      pop\n      jump\t// out\n        /* \"#utility.yul\":22782:22911   */\n    tag_148:\n        /* \"#utility.yul\":22816:22822   */\n      0x00\n        /* \"#utility.yul\":22843:22863   */\n      tag_407\n      tag_408\n      jump\t// in\n    tag_407:\n        /* \"#utility.yul\":22833:22863   */\n      swap1\n      pop\n        /* \"#utility.yul\":22872:22905   */\n      tag_409\n        /* \"#utility.yul\":22900:22904   */\n      dup3\n        /* \"#utility.yul\":22892:22898   */\n      dup3\n        /* \"#utility.yul\":22872:22905   */\n      tag_410\n      jump\t// in\n    tag_409:\n        /* \"#utility.yul\":22782:22911   */\n      swap2\n      swap1\n      pop\n      jump\t// out\n        /* \"#utility.yul\":22917:22992   */\n    tag_408:\n        /* \"#utility.yul\":22950:22956   */\n      0x00\n        /* \"#utility.yul\":22983:22985   */\n      0x40\n        /* \"#utility.yul\":22977:22986   */\n      mload\n        /* \"#utility.yul\":22967:22986   */\n      swap1\n      pop\n        /* \"#utility.yul\":22917:22992   */\n      swap1\n      jump\t// out\n        /* \"#utility.yul\":22998:23330   */\n    tag_147:\n        /* \"#utility.yul\":23096:23100   */\n      0x00\n        /* \"#utility.yul\":23186:23204   */\n      0xffffffffffffffff\n        /* \"#utility.yul\":23178:23184   */\n      dup3\n        /* \"#utility.yul\":23175:23205   */\n      gt\n        /* \"#utility.yul\":23172:23228   */\n      iszero\n      tag_413\n      jumpi\n        /* \"#utility.yul\":23208:23226   */\n      tag_414\n      tag_415\n      jump\t// in\n    tag_414:\n        /* \"#utility.yul\":23172:23228   */\n    tag_413:\n        /* \"#utility.yul\":23258:23262   */\n      0x20\n        /* \"#utility.yul\":23250:23256   */\n      dup3\n        /* \"#utility.yul\":23246:23263   */\n      mul\n        /* \"#utility.yul\":23238:23263   */\n      swap1\n      pop\n        /* \"#utility.yul\":23318:23322   */\n      0x20\n        /* \"#utility.yul\":23312:23316   */\n      dup2\n        /* \"#utility.yul\":23308:23323   */\n      add\n        /* \"#utility.yul\":23300:23323   */\n      swap1\n      pop\n        /* \"#utility.yul\":22998:23330   */\n      swap2\n      swap1\n      pop\n      jump\t// out\n        /* \"#utility.yul\":23336:23667   */\n    tag_164:\n        /* \"#utility.yul\":23433:23437   */\n      0x00\n        /* \"#utility.yul\":23523:23541   */\n      0xffffffffffffffff\n        /* \"#utility.yul\":23515:23521   */\n      dup3\n        /* \"#utility.yul\":23512:23542   */\n      gt\n        /* \"#utility.yul\":23509:23565   */\n      iszero\n      tag_417\n      jumpi\n        /* \"#utility.yul\":23545:23563   */\n      tag_418\n      tag_415\n      jump\t// in\n    tag_418:\n        /* \"#utility.yul\":23509:23565   */\n    tag_417:\n        /* \"#utility.yul\":23595:23599   */\n      0x20\n        /* \"#utility.yul\":23587:23593   */\n      dup3\n        /* \"#utility.yul\":23583:23600   */\n      mul\n        /* \"#utility.yul\":23575:23600   */\n      swap1\n      pop\n        /* \"#utility.yul\":23655:23659   */\n      0x20\n        /* \"#utility.yul\":23649:23653   */\n      dup2\n        /* \"#utility.yul\":23645:23660   */\n      add\n        /* \"#utility.yul\":23637:23660   */\n      swap1\n      pop\n        /* \"#utility.yul\":23336:23667   */\n      swap2\n      swap1\n      pop\n      jump\t// out\n        /* \"#utility.yul\":23673:24008   */\n    tag_178:\n        /* \"#utility.yul\":23774:23778   */\n      0x00\n        /* \"#utility.yul\":23864:23882   */\n      0xffffffffffffffff\n        /* \"#utility.yul\":23856:23862   */\n      dup3\n        /* \"#utility.yul\":23853:23883   */\n      gt\n        /* \"#utility.yul\":23850:23906   */\n      iszero\n      tag_420\n      jumpi\n        /* \"#utility.yul\":23886:23904   */\n      tag_421\n      tag_415\n      jump\t// in\n    tag_421:\n        /* \"#utility.yul\":23850:23906   */\n    tag_420:\n        /* \"#utility.yul\":23936:23940   */\n      0x20\n        /* \"#utility.yul\":23928:23934   */\n      dup3\n        /* \"#utility.yul\":23924:23941   */\n      mul\n        /* \"#utility.yul\":23916:23941   */\n      swap1\n      pop\n        /* \"#utility.yul\":23996:24000   */\n      0x20\n        /* \"#utility.yul\":23990:23994   */\n      dup2\n        /* \"#utility.yul\":23986:24001   */\n      add\n        /* \"#utility.yul\":23978:24001   */\n      swap1\n      pop\n        /* \"#utility.yul\":23673:24008   */\n      swap2\n      swap1\n      pop\n      jump\t// out\n        /* \"#utility.yul\":24014:24322   */\n    tag_192:\n        /* \"#utility.yul\":24076:24080   */\n      0x00\n        /* \"#utility.yul\":24166:24184   */\n      0xffffffffffffffff\n        /* \"#utility.yul\":24158:24164   */\n      dup3\n        /* \"#utility.yul\":24155:24185   */\n      gt\n        /* \"#utility.yul\":24152:24208   */\n      iszero\n      tag_423\n      jumpi\n        /* \"#utility.yul\":24188:24206   */\n      tag_424\n      tag_415\n      jump\t// in\n    tag_424:\n        /* \"#utility.yul\":24152:24208   */\n    tag_423:\n        /* \"#utility.yul\":24226:24255   */\n      tag_425\n        /* \"#utility.yul\":24248:24254   */\n      dup3\n        /* \"#utility.yul\":24226:24255   */\n      tag_355\n      jump\t// in\n    tag_425:\n        /* \"#utility.yul\":24218:24255   */\n      swap1\n      pop\n        /* \"#utility.yul\":24310:24314   */\n      0x20\n        /* \"#utility.yul\":24304:24308   */\n      dup2\n        /* \"#utility.yul\":24300:24315   */\n      add\n        /* \"#utility.yul\":24292:24315   */\n      swap1\n      pop\n        /* \"#utility.yul\":24014:24322   */\n      swap2\n      swap1\n      pop\n      jump\t// out\n        /* \"#utility.yul\":24328:24483   */\n    tag_297:\n        /* \"#utility.yul\":24418:24422   */\n      0x00\n        /* \"#utility.yul\":24441:24444   */\n      dup2\n        /* \"#utility.yul\":24433:24444   */\n      swap1\n      pop\n        /* \"#utility.yul\":24471:24475   */\n      0x20\n        /* \"#utility.yul\":24466:24469   */\n      dup3\n        /* \"#utility.yul\":24462:24476   */\n      add\n        /* \"#utility.yul\":24454:24476   */\n      swap1\n      pop\n        /* \"#utility.yul\":24328:24483   */\n      swap2\n      swap1\n      pop\n      jump\t// out\n        /* \"#utility.yul\":24489:24642   */\n    tag_311:\n        /* \"#utility.yul\":24577:24581   */\n      0x00\n        /* \"#utility.yul\":24600:24603   */\n      dup2\n        /* \"#utility.yul\":24592:24603   */\n      swap1\n      pop\n        /* \"#utility.yul\":24630:24634   */\n      0x20\n        /* \"#utility.yul\":24625:24628   */\n      dup3\n        /* \"#utility.yul\":24621:24635   */\n      add\n        /* \"#utility.yul\":24613:24635   */\n      swap1\n      pop\n        /* \"#utility.yul\":24489:24642   */\n      swap2\n      swap1\n      pop\n      jump\t// out\n        /* \"#utility.yul\":24648:24800   */\n    tag_325:\n        /* \"#utility.yul\":24735:24739   */\n      0x00\n        /* \"#utility.yul\":24758:24761   */\n      dup2\n        /* \"#utility.yul\":24750:24761   */\n      swap1\n      pop\n        /* \"#utility.yul\":24788:24792   */\n      0x20\n        /* \"#utility.yul\":24783:24786   */\n      dup3\n        /* \"#utility.yul\":24779:24793   */\n      add\n        /* \"#utility.yul\":24771:24793   */\n      swap1\n      pop\n        /* \"#utility.yul\":24648:24800   */\n      swap2\n      swap1\n      pop\n      jump\t// out\n        /* \"#utility.yul\":24806:24962   */\n    tag_339:\n        /* \"#utility.yul\":24897:24901   */\n      0x00\n        /* \"#utility.yul\":24920:24923   */\n      dup2\n        /* \"#utility.yul\":24912:24923   */\n      swap1\n      pop\n        /* \"#utility.yul\":24950:24954   */\n      0x20\n        /* \"#utility.yul\":24945:24948   */\n      dup3\n        /* \"#utility.yul\":24941:24955   */\n      add\n        /* \"#utility.yul\":24933:24955   */\n      swap1\n      pop\n        /* \"#utility.yul\":24806:24962   */\n      swap2\n      swap1\n      pop\n      jump\t// out\n        /* \"#utility.yul\":24968:25105   */\n    tag_293:\n        /* \"#utility.yul\":25058:25064   */\n      0x00\n        /* \"#utility.yul\":25092:25097   */\n      dup2\n        /* \"#utility.yul\":25086:25098   */\n      mload\n        /* \"#utility.yul\":25076:25098   */\n      swap1\n      pop\n        /* \"#utility.yul\":24968:25105   */\n      swap2\n      swap1\n      pop\n      jump\t// out\n        /* \"#utility.yul\":25111:25246   */\n    tag_307:\n        /* \"#utility.yul\":25199:25205   */\n      0x00\n        /* \"#utility.yul\":25233:25238   */\n      dup2\n        /* \"#utility.yul\":25227:25239   */\n      mload\n        /* \"#utility.yul\":25217:25239   */\n      swap1\n      pop\n        /* \"#utility.yul\":25111:25246   */\n      swap2\n      swap1\n      pop\n      jump\t// out\n        /* \"#utility.yul\":25252:25386   */\n    tag_321:\n        /* \"#utility.yul\":25339:25345   */\n      0x00\n        /* \"#utility.yul\":25373:25378   */\n      dup2\n        /* \"#utility.yul\":25367:25379   */\n      mload\n        /* \"#utility.yul\":25357:25379   */\n      swap1\n      pop\n        /* \"#utility.yul\":25252:25386   */\n      swap2\n      swap1\n      pop\n      jump\t// out\n        /* \"#utility.yul\":25392:25530   */\n    tag_335:\n        /* \"#utility.yul\":25483:25489   */\n      0x00\n        /* \"#utility.yul\":25517:25522   */\n      dup2\n        /* \"#utility.yul\":25511:25523   */\n      mload\n        /* \"#utility.yul\":25501:25523   */\n      swap1\n      pop\n        /* \"#utility.yul\":25392:25530   */\n      swap2\n      swap1\n      pop\n      jump\t// out\n        /* \"#utility.yul\":25536:25635   */\n    tag_349:\n        /* \"#utility.yul\":25588:25594   */\n      0x00\n        /* \"#utility.yul\":25622:25627   */\n      dup2\n        /* \"#utility.yul\":25616:25628   */\n      mload\n        /* \"#utility.yul\":25606:25628   */\n      swap1\n      pop\n        /* \"#utility.yul\":25536:25635   */\n      swap2\n      swap1\n      pop\n      jump\t// out\n        /* \"#utility.yul\":25641:25777   */\n    tag_303:\n        /* \"#utility.yul\":25734:25738   */\n      0x00\n        /* \"#utility.yul\":25766:25770   */\n      0x20\n        /* \"#utility.yul\":25761:25764   */\n      dup3\n        /* \"#utility.yul\":25757:25771   */\n      add\n        /* \"#utility.yul\":25749:25771   */\n      swap1\n      pop\n        /* \"#utility.yul\":25641:25777   */\n      swap2\n      swap1\n      pop\n      jump\t// out\n        /* \"#utility.yul\":25783:25917   */\n    tag_317:\n        /* \"#utility.yul\":25874:25878   */\n      0x00\n        /* \"#utility.yul\":25906:25910   */\n      0x20\n        /* \"#utility.yul\":25901:25904   */\n      dup3\n        /* \"#utility.yul\":25897:25911   */\n      add\n        /* \"#utility.yul\":25889:25911   */\n      swap1\n      pop\n        /* \"#utility.yul\":25783:25917   */\n      swap2\n      swap1\n      pop\n      jump\t// out\n        /* \"#utility.yul\":25923:26056   */\n    tag_331:\n        /* \"#utility.yul\":26013:26017   */\n      0x00\n        /* \"#utility.yul\":26045:26049   */\n      0x20\n        /* \"#utility.yul\":26040:26043   */\n      dup3\n        /* \"#utility.yul\":26036:26050   */\n      add\n        /* \"#utility.yul\":26028:26050   */\n      swap1\n      pop\n        /* \"#utility.yul\":25923:26056   */\n      swap2\n      swap1\n      pop\n      jump\t// out\n        /* \"#utility.yul\":26062:26199   */\n    tag_345:\n        /* \"#utility.yul\":26156:26160   */\n      0x00\n        /* \"#utility.yul\":26188:26192   */\n      0x20\n        /* \"#utility.yul\":26183:26186   */\n      dup3\n        /* \"#utility.yul\":26179:26193   */\n      add\n        /* \"#utility.yul\":26171:26193   */\n      swap1\n      pop\n        /* \"#utility.yul\":26062:26199   */\n      swap2\n      swap1\n      pop\n      jump\t// out\n        /* \"#utility.yul\":26205:26412   */\n    tag_295:\n        /* \"#utility.yul\":26327:26338   */\n      0x00\n        /* \"#utility.yul\":26361:26367   */\n      dup3\n        /* \"#utility.yul\":26356:26359   */\n      dup3\n        /* \"#utility.yul\":26349:26368   */\n      mstore\n        /* \"#utility.yul\":26401:26405   */\n      0x20\n        /* \"#utility.yul\":26396:26399   */\n      dup3\n        /* \"#utility.yul\":26392:26406   */\n      add\n        /* \"#utility.yul\":26377:26406   */\n      swap1\n      pop\n        /* \"#utility.yul\":26205:26412   */\n      swap3\n      swap2\n      pop\n      pop\n      jump\t// out\n        /* \"#utility.yul\":26418:26613   */\n    tag_309:\n        /* \"#utility.yul\":26528:26539   */\n      0x00\n        /* \"#utility.yul\":26562:26568   */\n      dup3\n        /* \"#utility.yul\":26557:26560   */\n      dup3\n        /* \"#utility.yul\":26550:26569   */\n      mstore\n        /* \"#utility.yul\":26602:26606   */\n      0x20\n        /* \"#utility.yul\":26597:26600   */\n      dup3\n        /* \"#utility.yul\":26593:26607   */\n      add\n        /* \"#utility.yul\":26578:26607   */\n      swap1\n      pop\n        /* \"#utility.yul\":26418:26613   */\n      swap3\n      swap2\n      pop\n      pop\n      jump\t// out\n        /* \"#utility.yul\":26619:26813   */\n    tag_323:\n        /* \"#utility.yul\":26728:26739   */\n      0x00\n        /* \"#utility.yul\":26762:26768   */\n      dup3\n        /* \"#utility.yul\":26757:26760   */\n      dup3\n        /* \"#utility.yul\":26750:26769   */\n      mstore\n        /* \"#utility.yul\":26802:26806   */\n      0x20\n        /* \"#utility.yul\":26797:26800   */\n      dup3\n        /* \"#utility.yul\":26793:26807   */\n      add\n        /* \"#utility.yul\":26778:26807   */\n      swap1\n      pop\n        /* \"#utility.yul\":26619:26813   */\n      swap3\n      swap2\n      pop\n      pop\n      jump\t// out\n        /* \"#utility.yul\":26819:27017   */\n    tag_337:\n        /* \"#utility.yul\":26932:26943   */\n      0x00\n        /* \"#utility.yul\":26966:26972   */\n      dup3\n        /* \"#utility.yul\":26961:26964   */\n      dup3\n        /* \"#utility.yul\":26954:26973   */\n      mstore\n        /* \"#utility.yul\":27006:27010   */\n      0x20\n        /* \"#utility.yul\":27001:27004   */\n      dup3\n        /* \"#utility.yul\":26997:27011   */\n      add\n        /* \"#utility.yul\":26982:27011   */\n      swap1\n      pop\n        /* \"#utility.yul\":26819:27017   */\n      swap3\n      swap2\n      pop\n      pop\n      jump\t// out\n        /* \"#utility.yul\":27023:27182   */\n    tag_351:\n        /* \"#utility.yul\":27097:27108   */\n      0x00\n        /* \"#utility.yul\":27131:27137   */\n      dup3\n        /* \"#utility.yul\":27126:27129   */\n      dup3\n        /* \"#utility.yul\":27119:27138   */\n      mstore\n        /* \"#utility.yul\":27171:27175   */\n      0x20\n        /* \"#utility.yul\":27166:27169   */\n      dup3\n        /* \"#utility.yul\":27162:27176   */\n      add\n        /* \"#utility.yul\":27147:27176   */\n      swap1\n      pop\n        /* \"#utility.yul\":27023:27182   */\n      swap3\n      swap2\n      pop\n      pop\n      jump\t// out\n        /* \"#utility.yul\":27188:27357   */\n    tag_360:\n        /* \"#utility.yul\":27272:27283   */\n      0x00\n        /* \"#utility.yul\":27306:27312   */\n      dup3\n        /* \"#utility.yul\":27301:27304   */\n      dup3\n        /* \"#utility.yul\":27294:27313   */\n      mstore\n        /* \"#utility.yul\":27346:27350   */\n      0x20\n        /* \"#utility.yul\":27341:27344   */\n      dup3\n        /* \"#utility.yul\":27337:27351   */\n      add\n        /* \"#utility.yul\":27322:27351   */\n      swap1\n      pop\n        /* \"#utility.yul\":27188:27357   */\n      swap3\n      swap2\n      pop\n      pop\n      jump\t// out\n        /* \"#utility.yul\":27363:27668   */\n    tag_131:\n        /* \"#utility.yul\":27403:27406   */\n      0x00\n        /* \"#utility.yul\":27422:27442   */\n      tag_446\n        /* \"#utility.yul\":27440:27441   */\n      dup3\n        /* \"#utility.yul\":27422:27442   */\n      tag_389\n      jump\t// in\n    tag_446:\n        /* \"#utility.yul\":27417:27442   */\n      swap2\n      pop\n        /* \"#utility.yul\":27456:27476   */\n      tag_447\n        /* \"#utility.yul\":27474:27475   */\n      dup4\n        /* \"#utility.yul\":27456:27476   */\n      tag_389\n      jump\t// in\n    tag_447:\n        /* \"#utility.yul\":27451:27476   */\n      swap3\n      pop\n        /* \"#utility.yul\":27610:27611   */\n      dup3\n        /* \"#utility.yul\":27542:27608   */\n      0xffffffffffffffffffffffffffffffffffffffffffffffffffffffffffffffff\n        /* \"#utility.yul\":27538:27612   */\n      sub\n        /* \"#utility.yul\":27535:27536   */\n      dup3\n        /* \"#utility.yul\":27532:27613   */\n      gt\n        /* \"#utility.yul\":27529:27636   */\n      iszero\n      tag_448\n      jumpi\n        /* \"#utility.yul\":27616:27634   */\n      tag_449\n      tag_450\n      jump\t// in\n    tag_449:\n        /* \"#utility.yul\":27529:27636   */\n    tag_448:\n        /* \"#utility.yul\":27660:27661   */\n      dup3\n        /* \"#utility.yul\":27657:27658   */\n      dup3\n        /* \"#utility.yul\":27653:27662   */\n      add\n        /* \"#utility.yul\":27646:27662   */\n      swap1\n      pop\n        /* \"#utility.yul\":27363:27668   */\n      swap3\n      swap2\n      pop\n      pop\n      jump\t// out\n        /* \"#utility.yul\":27674:28022   */\n    tag_129:\n        /* \"#utility.yul\":27714:27721   */\n      0x00\n        /* \"#utility.yul\":27737:27757   */\n      tag_452\n        /* \"#utility.yul\":27755:27756   */\n      dup3\n        /* \"#utility.yul\":27737:27757   */\n      tag_389\n      jump\t// in\n    tag_452:\n        /* \"#utility.yul\":27732:27757   */\n      swap2\n      pop\n        /* \"#utility.yul\":27771:27791   */\n      tag_453\n        /* \"#utility.yul\":27789:27790   */\n      dup4\n        /* \"#utility.yul\":27771:27791   */\n      tag_389\n      jump\t// in\n    tag_453:\n        /* \"#utility.yul\":27766:27791   */\n      swap3\n      pop\n        /* \"#utility.yul\":27959:27960   */\n      dup2\n        /* \"#utility.yul\":27891:27957   */\n      0xffffffffffffffffffffffffffffffffffffffffffffffffffffffffffffffff\n        /* \"#utility.yul\":27887:27961   */\n      div\n        /* \"#utility.yul\":27884:27885   */\n      dup4\n        /* \"#utility.yul\":27881:27962   */\n      gt\n        /* \"#utility.yul\":27876:27877   */\n      dup3\n        /* \"#utility.yul\":27869:27878   */\n      iszero\n        /* \"#utility.yul\":27862:27879   */\n      iszero\n        /* \"#utility.yul\":27858:27963   */\n      and\n        /* \"#utility.yul\":27855:27986   */\n      iszero\n      tag_454\n      jumpi\n        /* \"#utility.yul\":27966:27984   */\n      tag_455\n      tag_450\n      jump\t// in\n    tag_455:\n        /* \"#utility.yul\":27855:27986   */\n    tag_454:\n        /* \"#utility.yul\":28014:28015   */\n      dup3\n        /* \"#utility.yul\":28011:28012   */\n      dup3\n        /* \"#utility.yul\":28007:28016   */\n      mul\n        /* \"#utility.yul\":27996:28016   */\n      swap1\n      pop\n        /* \"#utility.yul\":27674:28022   */\n      swap3\n      swap2\n      pop\n      pop\n      jump\t// out\n        /* \"#utility.yul\":28028:28219   */\n    tag_73:\n        /* \"#utility.yul\":28068:28072   */\n      0x00\n        /* \"#utility.yul\":28088:28108   */\n      tag_457\n        /* \"#utility.yul\":28106:28107   */\n      dup3\n        /* \"#utility.yul\":28088:28108   */\n      tag_389\n      jump\t// in\n    tag_457:\n        /* \"#utility.yul\":28083:28108   */\n      swap2\n      pop\n        /* \"#utility.yul\":28122:28142   */\n      tag_458\n        /* \"#utility.yul\":28140:28141   */\n      dup4\n        /* \"#utility.yul\":28122:28142   */\n      tag_389\n      jump\t// in\n    tag_458:\n        /* \"#utility.yul\":28117:28142   */\n      swap3\n      pop\n        /* \"#utility.yul\":28161:28162   */\n      dup3\n        /* \"#utility.yul\":28158:28159   */\n      dup3\n        /* \"#utility.yul\":28155:28163   */\n      lt\n        /* \"#utility.yul\":28152:28186   */\n      iszero\n      tag_459\n      jumpi\n        /* \"#utility.yul\":28166:28184   */\n      tag_460\n      tag_450\n      jump\t// in\n    tag_460:\n        /* \"#utility.yul\":28152:28186   */\n    tag_459:\n        /* \"#utility.yul\":28211:28212   */\n      dup3\n        /* \"#utility.yul\":28208:28209   */\n      dup3\n        /* \"#utility.yul\":28204:28213   */\n      sub\n        /* \"#utility.yul\":28196:28213   */\n      swap1\n      pop\n        /* \"#utility.yul\":28028:28219   */\n      swap3\n      swap2\n      pop\n      pop\n      jump\t// out\n        /* \"#utility.yul\":28225:28321   */\n    tag_289:\n        /* \"#utility.yul\":28262:28269   */\n      0x00\n        /* \"#utility.yul\":28291:28315   */\n      tag_462\n        /* \"#utility.yul\":28309:28314   */\n      dup3\n        /* \"#utility.yul\":28291:28315   */\n      tag_463\n      jump\t// in\n    tag_462:\n        /* \"#utility.yul\":28280:28315   */\n      swap1\n      pop\n        /* \"#utility.yul\":28225:28321   */\n      swap2\n      swap1\n      pop\n      jump\t// out\n        /* \"#utility.yul\":28327:28453   */\n    tag_463:\n        /* \"#utility.yul\":28364:28371   */\n      0x00\n        /* \"#utility.yul\":28404:28446   */\n      0xffffffffffffffffffffffffffffffffffffffff\n        /* \"#utility.yul\":28397:28402   */\n      dup3\n        /* \"#utility.yul\":28393:28447   */\n      and\n        /* \"#utility.yul\":28382:28447   */\n      swap1\n      pop\n        /* \"#utility.yul\":28327:28453   */\n      swap2\n      swap1\n      pop\n      jump\t// out\n        /* \"#utility.yul\":28459:28536   */\n    tag_389:\n        /* \"#utility.yul\":28496:28503   */\n      0x00\n        /* \"#utility.yul\":28525:28530   */\n      dup2\n        /* \"#utility.yul\":28514:28530   */\n      swap1\n      pop\n        /* \"#utility.yul\":28459:28536   */\n      swap2\n      swap1\n      pop\n      jump\t// out\n        /* \"#utility.yul\":28542:28696   */\n    tag_197:\n        /* \"#utility.yul\":28626:28632   */\n      dup3\n        /* \"#utility.yul\":28621:28624   */\n      dup2\n        /* \"#utility.yul\":28616:28619   */\n      dup4\n        /* \"#utility.yul\":28603:28633   */\n      calldatacopy\n        /* \"#utility.yul\":28688:28689   */\n      0x00\n        /* \"#utility.yul\":28679:28685   */\n      dup4\n        /* \"#utility.yul\":28674:28677   */\n      dup4\n        /* \"#utility.yul\":28670:28686   */\n      add\n        /* \"#utility.yul\":28663:28690   */\n      mstore\n        /* \"#utility.yul\":28542:28696   */\n      pop\n      pop\n      pop\n      jump\t// out\n        /* \"#utility.yul\":28702:29009   */\n    tag_353:\n        /* \"#utility.yul\":28770:28771   */\n      0x00\n        /* \"#utility.yul\":28780:28893   */\n    tag_468:\n        /* \"#utility.yul\":28794:28800   */\n      dup4\n        /* \"#utility.yul\":28791:28792   */\n      dup2\n        /* \"#utility.yul\":28788:28801   */\n      lt\n        /* \"#utility.yul\":28780:28893   */\n      iszero\n      tag_470\n      jumpi\n        /* \"#utility.yul\":28879:28880   */\n      dup1\n        /* \"#utility.yul\":28874:28877   */\n      dup3\n        /* \"#utility.yul\":28870:28881   */\n      add\n        /* \"#utility.yul\":28864:28882   */\n      mload\n        /* \"#utility.yul\":28860:28861   */\n      dup2\n        /* \"#utility.yul\":28855:28858   */\n      dup5\n        /* \"#utility.yul\":28851:28862   */\n      add\n        /* \"#utility.yul\":28844:28883   */\n      mstore\n        /* \"#utility.yul\":28816:28818   */\n      0x20\n        /* \"#utility.yul\":28813:28814   */\n      dup2\n        /* \"#utility.yul\":28809:28819   */\n      add\n        /* \"#utility.yul\":28804:28819   */\n      swap1\n      pop\n        /* \"#utility.yul\":28780:28893   */\n      jump(tag_468)\n    tag_470:\n        /* \"#utility.yul\":28911:28917   */\n      dup4\n        /* \"#utility.yul\":28908:28909   */\n      dup2\n        /* \"#utility.yul\":28905:28918   */\n      gt\n        /* \"#utility.yul\":28902:29003   */\n      iszero\n      tag_471\n      jumpi\n        /* \"#utility.yul\":28991:28992   */\n      0x00\n        /* \"#utility.yul\":28982:28988   */\n      dup5\n        /* \"#utility.yul\":28977:28980   */\n      dup5\n        /* \"#utility.yul\":28973:28989   */\n      add\n        /* \"#utility.yul\":28966:28993   */\n      mstore\n        /* \"#utility.yul\":28902:29003   */\n    tag_471:\n        /* \"#utility.yul\":28751:29009   */\n      pop\n        /* \"#utility.yul\":28702:29009   */\n      pop\n      pop\n      pop\n      jump\t// out\n        /* \"#utility.yul\":29015:29335   */\n    tag_30:\n        /* \"#utility.yul\":29059:29065   */\n      0x00\n        /* \"#utility.yul\":29096:29097   */\n      0x02\n        /* \"#utility.yul\":29090:29094   */\n      dup3\n        /* \"#utility.yul\":29086:29098   */\n      div\n        /* \"#utility.yul\":29076:29098   */\n      swap1\n      pop\n        /* \"#utility.yul\":29143:29144   */\n      0x01\n        /* \"#utility.yul\":29137:29141   */\n      dup3\n        /* \"#utility.yul\":29133:29145   */\n      and\n        /* \"#utility.yul\":29164:29182   */\n      dup1\n        /* \"#utility.yul\":29154:29235   */\n      tag_473\n      jumpi\n        /* \"#utility.yul\":29220:29224   */\n      0x7f\n        /* \"#utility.yul\":29212:29218   */\n      dup3\n        /* \"#utility.yul\":29208:29225   */\n      and\n        /* \"#utility.yul\":29198:29225   */\n      swap2\n      pop\n        /* \"#utility.yul\":29154:29235   */\n    tag_473:\n        /* \"#utility.yul\":29282:29284   */\n      0x20\n        /* \"#utility.yul\":29274:29280   */\n      dup3\n        /* \"#utility.yul\":29271:29285   */\n      lt\n        /* \"#utility.yul\":29251:29269   */\n      dup2\n        /* \"#utility.yul\":29248:29286   */\n      eq\n        /* \"#utility.yul\":29245:29329   */\n      iszero\n      tag_474\n      jumpi\n        /* \"#utility.yul\":29301:29319   */\n      tag_475\n      tag_476\n      jump\t// in\n    tag_475:\n        /* \"#utility.yul\":29245:29329   */\n    tag_474:\n        /* \"#utility.yul\":29066:29335   */\n      pop\n        /* \"#utility.yul\":29015:29335   */\n      swap2\n      swap1\n      pop\n      jump\t// out\n        /* \"#utility.yul\":29341:29622   */\n    tag_410:\n        /* \"#utility.yul\":29424:29451   */\n      tag_478\n        /* \"#utility.yul\":29446:29450   */\n      dup3\n        /* \"#utility.yul\":29424:29451   */\n      tag_355\n      jump\t// in\n    tag_478:\n        /* \"#utility.yul\":29416:29422   */\n      dup2\n        /* \"#utility.yul\":29412:29452   */\n      add\n        /* \"#utility.yul\":29554:29560   */\n      dup2\n        /* \"#utility.yul\":29542:29552   */\n      dup2\n        /* \"#utility.yul\":29539:29561   */\n      lt\n        /* \"#utility.yul\":29518:29536   */\n      0xffffffffffffffff\n        /* \"#utility.yul\":29506:29516   */\n      dup3\n        /* \"#utility.yul\":29503:29537   */\n      gt\n        /* \"#utility.yul\":29500:29562   */\n      or\n        /* \"#utility.yul\":29497:29585   */\n      iszero\n      tag_479\n      jumpi\n        /* \"#utility.yul\":29565:29583   */\n      tag_480\n      tag_415\n      jump\t// in\n    tag_480:\n        /* \"#utility.yul\":29497:29585   */\n    tag_479:\n        /* \"#utility.yul\":29605:29615   */\n      dup1\n        /* \"#utility.yul\":29601:29603   */\n      0x40\n        /* \"#utility.yul\":29594:29616   */\n      mstore\n        /* \"#utility.yul\":29384:29622   */\n      pop\n        /* \"#utility.yul\":29341:29622   */\n      pop\n      pop\n      jump\t// out\n        /* \"#utility.yul\":29628:29861   */\n    tag_99:\n        /* \"#utility.yul\":29667:29670   */\n      0x00\n        /* \"#utility.yul\":29690:29714   */\n      tag_482\n        /* \"#utility.yul\":29708:29713   */\n      dup3\n        /* \"#utility.yul\":29690:29714   */\n      tag_389\n      jump\t// in\n    tag_482:\n        /* \"#utility.yul\":29681:29714   */\n      swap2\n      pop\n        /* \"#utility.yul\":29736:29802   */\n      0xffffffffffffffffffffffffffffffffffffffffffffffffffffffffffffffff\n        /* \"#utility.yul\":29729:29734   */\n      dup3\n        /* \"#utility.yul\":29726:29803   */\n      eq\n        /* \"#utility.yul\":29723:29826   */\n      iszero\n      tag_483\n      jumpi\n        /* \"#utility.yul\":29806:29824   */\n      tag_484\n      tag_450\n      jump\t// in\n    tag_484:\n        /* \"#utility.yul\":29723:29826   */\n    tag_483:\n        /* \"#utility.yul\":29853:29854   */\n      0x01\n        /* \"#utility.yul\":29846:29851   */\n      dup3\n        /* \"#utility.yul\":29842:29855   */\n      add\n        /* \"#utility.yul\":29835:29855   */\n      swap1\n      pop\n        /* \"#utility.yul\":29628:29861   */\n      swap2\n      swap1\n      pop\n      jump\t// out\n        /* \"#utility.yul\":29867:30047   */\n    tag_450:\n        /* \"#utility.yul\":29915:29992   */\n      0x4e487b7100000000000000000000000000000000000000000000000000000000\n        /* \"#utility.yul\":29912:29913   */\n      0x00\n        /* \"#utility.yul\":29905:29993   */\n      mstore\n        /* \"#utility.yul\":30012:30016   */\n      0x11\n        /* \"#utility.yul\":30009:30010   */\n      0x04\n        /* \"#utility.yul\":30002:30017   */\n      mstore\n        /* \"#utility.yul\":30036:30040   */\n      0x24\n        /* \"#utility.yul\":30033:30034   */\n      0x00\n        /* \"#utility.yul\":30026:30041   */\n      revert\n        /* \"#utility.yul\":30053:30233   */\n    tag_476:\n        /* \"#utility.yul\":30101:30178   */\n      0x4e487b7100000000000000000000000000000000000000000000000000000000\n        /* \"#utility.yul\":30098:30099   */\n      0x00\n        /* \"#utility.yul\":30091:30179   */\n      mstore\n        /* \"#utility.yul\":30198:30202   */\n      0x22\n        /* \"#utility.yul\":30195:30196   */\n      0x04\n        /* \"#utility.yul\":30188:30203   */\n      mstore\n        /* \"#utility.yul\":30222:30226   */\n      0x24\n        /* \"#utility.yul\":30219:30220   */\n      0x00\n        /* \"#utility.yul\":30212:30227   */\n      revert\n        /* \"#utility.yul\":30239:30419   */\n    tag_76:\n        /* \"#utility.yul\":30287:30364   */\n      0x4e487b7100000000000000000000000000000000000000000000000000000000\n        /* \"#utility.yul\":30284:30285   */\n      0x00\n        /* \"#utility.yul\":30277:30365   */\n      mstore\n        /* \"#utility.yul\":30384:30388   */\n      0x32\n        /* \"#utility.yul\":30381:30382   */\n      0x04\n        /* \"#utility.yul\":30374:30389   */\n      mstore\n        /* \"#utility.yul\":30408:30412   */\n      0x24\n        /* \"#utility.yul\":30405:30406   */\n      0x00\n        /* \"#utility.yul\":30398:30413   */\n      revert\n        /* \"#utility.yul\":30425:30605   */\n    tag_415:\n        /* \"#utility.yul\":30473:30550   */\n      0x4e487b7100000000000000000000000000000000000000000000000000000000\n        /* \"#utility.yul\":30470:30471   */\n      0x00\n        /* \"#utility.yul\":30463:30551   */\n      mstore\n        /* \"#utility.yul\":30570:30574   */\n      0x41\n        /* \"#utility.yul\":30567:30568   */\n      0x04\n        /* \"#utility.yul\":30560:30575   */\n      mstore\n        /* \"#utility.yul\":30594:30598   */\n      0x24\n        /* \"#utility.yul\":30591:30592   */\n      0x00\n        /* \"#utility.yul\":30584:30599   */\n      revert\n        /* \"#utility.yul\":30611:30728   */\n    tag_157:\n        /* \"#utility.yul\":30720:30721   */\n      0x00\n        /* \"#utility.yul\":30717:30718   */\n      dup1\n        /* \"#utility.yul\":30710:30722   */\n      revert\n        /* \"#utility.yul\":30734:30851   */\n    tag_221:\n        /* \"#utility.yul\":30843:30844   */\n      0x00\n        /* \"#utility.yul\":30840:30841   */\n      dup1\n        /* \"#utility.yul\":30833:30845   */\n      revert\n        /* \"#utility.yul\":30857:30974   */\n    tag_225:\n        /* \"#utility.yul\":30966:30967   */\n      0x00\n        /* \"#utility.yul\":30963:30964   */\n      dup1\n        /* \"#utility.yul\":30956:30968   */\n      revert\n        /* \"#utility.yul\":30980:31097   */\n    tag_151:\n        /* \"#utility.yul\":31089:31090   */\n      0x00\n        /* \"#utility.yul\":31086:31087   */\n      dup1\n        /* \"#utility.yul\":31079:31091   */\n      revert\n        /* \"#utility.yul\":31103:31220   */\n    tag_195:\n        /* \"#utility.yul\":31212:31213   */\n      0x00\n        /* \"#utility.yul\":31209:31210   */\n      dup1\n        /* \"#utility.yul\":31202:31214   */\n      revert\n        /* \"#utility.yul\":31226:31343   */\n    tag_254:\n        /* \"#utility.yul\":31335:31336   */\n      0x00\n        /* \"#utility.yul\":31332:31333   */\n      dup1\n        /* \"#utility.yul\":31325:31337   */\n      revert\n        /* \"#utility.yul\":31349:31466   */\n    tag_251:\n        /* \"#utility.yul\":31458:31459   */\n      0x00\n        /* \"#utility.yul\":31455:31456   */\n      dup1\n        /* \"#utility.yul\":31448:31460   */\n      revert\n        /* \"#utility.yul\":31472:31574   */\n    tag_355:\n        /* \"#utility.yul\":31513:31519   */\n      0x00\n        /* \"#utility.yul\":31564:31566   */\n      0x1f\n        /* \"#utility.yul\":31560:31567   */\n      not\n        /* \"#utility.yul\":31555:31557   */\n      0x1f\n        /* \"#utility.yul\":31548:31553   */\n      dup4\n        /* \"#utility.yul\":31544:31558   */\n      add\n        /* \"#utility.yul\":31540:31568   */\n      and\n        /* \"#utility.yul\":31530:31568   */\n      swap1\n      pop\n        /* \"#utility.yul\":31472:31574   */\n      swap2\n      swap1\n      pop\n      jump\t// out\n        /* \"#utility.yul\":31580:31808   */\n    tag_367:\n        /* \"#utility.yul\":31720:31754   */\n      0x546865206e616d65206d7573742068617665206d6f7265207468616e20322063\n        /* \"#utility.yul\":31716:31717   */\n      0x00\n        /* \"#utility.yul\":31708:31714   */\n      dup3\n        /* \"#utility.yul\":31704:31718   */\n      add\n        /* \"#utility.yul\":31697:31755   */\n      mstore\n        /* \"#utility.yul\":31789:31800   */\n      0x6861726163746572730000000000000000000000000000000000000000000000\n        /* \"#utility.yul\":31784:31786   */\n      0x20\n        /* \"#utility.yul\":31776:31782   */\n      dup3\n        /* \"#utility.yul\":31772:31787   */\n      add\n        /* \"#utility.yul\":31765:31801   */\n      mstore\n        /* \"#utility.yul\":31580:31808   */\n      pop\n      jump\t// out\n        /* \"#utility.yul\":31814:31993   */\n    tag_372:\n        /* \"#utility.yul\":31954:31985   */\n      0x546865206964206d7573742062652067726561746572207468616e2030000000\n        /* \"#utility.yul\":31950:31951   */\n      0x00\n        /* \"#utility.yul\":31942:31948   */\n      dup3\n        /* \"#utility.yul\":31938:31952   */\n      add\n        /* \"#utility.yul\":31931:31986   */\n      mstore\n        /* \"#utility.yul\":31814:31993   */\n      pop\n      jump\t// out\n        /* \"#utility.yul\":31999:32121   */\n    tag_247:\n        /* \"#utility.yul\":32072:32096   */\n      tag_500\n        /* \"#utility.yul\":32090:32095   */\n      dup2\n        /* \"#utility.yul\":32072:32096   */\n      tag_389\n      jump\t// in\n    tag_500:\n        /* \"#utility.yul\":32065:32070   */\n      dup2\n        /* \"#utility.yul\":32062:32097   */\n      eq\n        /* \"#utility.yul\":32052:32115   */\n      tag_501\n      jumpi\n        /* \"#utility.yul\":32111:32112   */\n      0x00\n        /* \"#utility.yul\":32108:32109   */\n      dup1\n        /* \"#utility.yul\":32101:32113   */\n      revert\n        /* \"#utility.yul\":32052:32115   */\n    tag_501:\n        /* \"#utility.yul\":31999:32121   */\n      pop\n      jump\t// out\n\n    auxdata: 0xa26469706673582212201cdf4b3cae8665c81463e4233dc9cd26c381163de0963d2a3f0bbcc206c034f364736f6c63430008070033\n}\n",
				"bytecode": {
					"linkReferences": {},
					"object": "608060405234801561001057600080fd5b50611a8e806100206000396000f3fe608060405234801561001057600080fd5b506004361061004c5760003560e01c80632f7467b3146100515780635e91679014610081578063710ebd111461009f578063de292789146100bb575b600080fd5b61006b60048036038101906100669190610fbf565b6100da565b6040516100789190611418565b60405180910390f35b61008961010d565b6040516100969190611433565b60405180910390f35b6100b960048036038101906100b49190610ed4565b610565565b005b6100c3610a0f565b6040516100d19291906114b7565b60405180910390f35b60016020528060005260406000206000915054906101000a900473ffffffffffffffffffffffffffffffffffffffff1681565b60606000805480602002602001604051908101604052809291908181526020016000905b8282101561055c57838290600052602060002090600502016040518060a00160405290816000820154815260200160018201805461016e9061182d565b80601f016020809104026020016040519081016040528092919081815260200182805461019a9061182d565b80156101e75780601f106101bc576101008083540402835291602001916101e7565b820191906000526020600020905b8154815290600101906020018083116101ca57829003601f168201915b5050505050815260200160028201805480602002602001604051908101604052809291908181526020016000905b8282101561036b57838290600052602060002090600202016040518060400160405290816000820180546102489061182d565b80601f01602080910402602001604051908101604052809291908181526020018280546102749061182d565b80156102c15780601f10610296576101008083540402835291602001916102c1565b820191906000526020600020905b8154815290600101906020018083116102a457829003601f168201915b505050505081526020016001820180546102da9061182d565b80601f01602080910402602001604051908101604052809291908181526020018280546103069061182d565b80156103535780601f1061032857610100808354040283529160200191610353565b820191906000526020600020905b81548152906001019060200180831161033657829003601f168201915b50505050508152505081526020019060010190610215565b50505050815260200160038201805480602002602001604051908101604052809291908181526020016000905b82821015610458578382906000526020600020016040518060200160405290816000820180546103c79061182d565b80601f01602080910402602001604051908101604052809291908181526020018280546103f39061182d565b80156104405780601f1061041557610100808354040283529160200191610440565b820191906000526020600020905b81548152906001019060200180831161042357829003601f168201915b50505050508152505081526020019060010190610398565b50505050815260200160048201805480602002602001604051908101604052809291908181526020016000905b82821015610545578382906000526020600020016040518060200160405290816000820180546104b49061182d565b80601f01602080910402602001604051908101604052809291908181526020018280546104e09061182d565b801561052d5780601f106105025761010080835404028352916020019161052d565b820191906000526020600020905b81548152906001019060200180831161051057829003601f168201915b50505050508152505081526020019060010190610485565b505050508152505081526020019060010190610131565b50505050905090565b600084116105a8576040517f08c379a000000000000000000000000000000000000000000000000000000000815260040161059f90611497565b60405180910390fd5b60028551116105ec576040517f08c379a00000000000000000000000000000000000000000000000000000000081526004016105e390611477565b60405180910390fd5b600060018160018154018082558091505003906000526020600020905050836000600160008054905061061f919061177b565b815481106106305761062f611937565b5b906000526020600020906005020160000181905550846000600160008054905061065a919061177b565b8154811061066b5761066a611937565b5b9060005260206000209060050201600101908051906020019061068f929190610a40565b5060005b835181101561079b57600060016000805490506106b0919061177b565b815481106106c1576106c0611937565b5b906000526020600020906005020160020160405180604001604052808684815181106106f0576106ef611937565b5b602002602001015160000151815260200186848151811061071457610713611937565b5b60200260200101516020015181525090806001815401808255809150506001900390600052602060002090600202016000909190919091506000820151816000019080519060200190610768929190610a40565b506020820151816001019080519060200190610785929190610a40565b505050808061079390611890565b915050610693565b5060005b825181101561086257600060016000805490506107bc919061177b565b815481106107cd576107cc611937565b5b906000526020600020906005020160030160405180602001604052808584815181106107fc576107fb611937565b5b60200260200101516000015181525090806001815401808255809150506001900390600052602060002001600090919091909150600082015181600001908051906020019061084c929190610a40565b505050808061085a90611890565b91505061079f565b5060005b81518110156109295760006001600080549050610883919061177b565b8154811061089457610893611937565b5b906000526020600020906005020160040160405180602001604052808484815181106108c3576108c2611937565b5b602002602001015160000151815250908060018154018082558091505060019003906000526020600020016000909190919091506000820151816000019080519060200190610913929190610a40565b505050808061092190611890565b915050610866565b50336001600086815260200190815260200160002060006101000a81548173ffffffffffffffffffffffffffffffffffffffff021916908373ffffffffffffffffffffffffffffffffffffffff160217905550600260003373ffffffffffffffffffffffffffffffffffffffff1673ffffffffffffffffffffffffffffffffffffffff16815260200190815260200160002060008154809291906109cc90611890565b91905055507f9018649032bdfabe07c5fa8e887df7dda6baf8eac2ef8026b39eebed1fdadeff85604051610a009190611455565b60405180910390a15050505050565b6000806000600190506000600290508082610a2a9190611721565b93508082610a3891906116cb565b925050509091565b828054610a4c9061182d565b90600052602060002090601f016020900481019282610a6e5760008555610ab5565b82601f10610a8757805160ff1916838001178555610ab5565b82800160010185558215610ab5579182015b82811115610ab4578251825591602001919060010190610a99565b5b509050610ac29190610ac6565b5090565b5b80821115610adf576000816000905550600101610ac7565b5090565b6000610af6610af184611505565b6114e0565b90508083825260208201905082856020860282011115610b1957610b186119a4565b5b60005b85811015610b6757813567ffffffffffffffff811115610b3f57610b3e611995565b5b808601610b4c8982610d87565b85526020850194506020840193505050600181019050610b1c565b5050509392505050565b6000610b84610b7f84611531565b6114e0565b90508083825260208201905082856020860282011115610ba757610ba66119a4565b5b60005b85811015610bf557813567ffffffffffffffff811115610bcd57610bcc611995565b5b808601610bda8982610e0f565b85526020850194506020840193505050600181019050610baa565b5050509392505050565b6000610c12610c0d8461155d565b6114e0565b90508083825260208201905082856020860282011115610c3557610c346119a4565b5b60005b85811015610c8357813567ffffffffffffffff811115610c5b57610c5a611995565b5b808601610c688982610e67565b85526020850194506020840193505050600181019050610c38565b5050509392505050565b6000610ca0610c9b84611589565b6114e0565b905082815260208101848484011115610cbc57610cbb6119a9565b5b610cc78482856117eb565b509392505050565b600082601f830112610ce457610ce3611995565b5b8135610cf4848260208601610ae3565b91505092915050565b600082601f830112610d1257610d11611995565b5b8135610d22848260208601610b71565b91505092915050565b600082601f830112610d4057610d3f611995565b5b8135610d50848260208601610bff565b91505092915050565b600082601f830112610d6e57610d6d611995565b5b8135610d7e848260208601610c8d565b91505092915050565b600060408284031215610d9d57610d9c61199a565b5b610da760406114e0565b9050600082013567ffffffffffffffff811115610dc757610dc661199f565b5b610dd384828501610d59565b600083015250602082013567ffffffffffffffff811115610df757610df661199f565b5b610e0384828501610d59565b60208301525092915050565b600060208284031215610e2557610e2461199a565b5b610e2f60206114e0565b9050600082013567ffffffffffffffff811115610e4f57610e4e61199f565b5b610e5b84828501610d59565b60008301525092915050565b600060208284031215610e7d57610e7c61199a565b5b610e8760206114e0565b9050600082013567ffffffffffffffff811115610ea757610ea661199f565b5b610eb384828501610d59565b60008301525092915050565b600081359050610ece81611a41565b92915050565b600080600080600060a08688031215610ef057610eef6119b3565b5b600086013567ffffffffffffffff811115610f0e57610f0d6119ae565b5b610f1a88828901610d59565b9550506020610f2b88828901610ebf565b945050604086013567ffffffffffffffff811115610f4c57610f4b6119ae565b5b610f5888828901610ccf565b935050606086013567ffffffffffffffff811115610f7957610f786119ae565b5b610f8588828901610cfd565b925050608086013567ffffffffffffffff811115610fa657610fa56119ae565b5b610fb288828901610d2b565b9150509295509295909350565b600060208284031215610fd557610fd46119b3565b5b6000610fe384828501610ebf565b91505092915050565b6000610ff883836112d7565b905092915050565b600061100c8383611362565b905092915050565b600061102083836113a6565b905092915050565b600061103483836113d0565b905092915050565b611045816117af565b82525050565b6000611056826115fa565b6110608185611665565b935083602082028501611072856115ba565b8060005b858110156110ae578484038952815161108f8582610fec565b945061109a83611631565b925060208a01995050600181019050611076565b50829750879550505050505092915050565b60006110cb82611605565b6110d58185611676565b9350836020820285016110e7856115ca565b8060005b8581101561112357848403895281516111048582611000565b945061110f8361163e565b925060208a019950506001810190506110eb565b50829750879550505050505092915050565b600061114082611610565b61114a8185611687565b93508360208202850161115c856115da565b8060005b8581101561119857848403895281516111798582611014565b94506111848361164b565b925060208a01995050600181019050611160565b50829750879550505050505092915050565b60006111b58261161b565b6111bf8185611698565b9350836020820285016111d1856115ea565b8060005b8581101561120d57848403895281516111ee8582611028565b94506111f983611658565b925060208a019950506001810190506111d5565b50829750879550505050505092915050565b600061122a82611626565b61123481856116a9565b93506112448185602086016117fa565b61124d816119b8565b840191505092915050565b600061126382611626565b61126d81856116ba565b935061127d8185602086016117fa565b611286816119b8565b840191505092915050565b600061129e6029836116ba565b91506112a9826119c9565b604082019050919050565b60006112c1601d836116ba565b91506112cc82611a18565b602082019050919050565b600060a0830160008301516112ef60008601826113fa565b5060208301518482036020860152611307828261121f565b9150506040830151848203604086015261132182826110c0565b9150506060830151848203606086015261133b8282611135565b9150506080830151848203608086015261135582826111aa565b9150508091505092915050565b6000604083016000830151848203600086015261137f828261121f565b91505060208301518482036020860152611399828261121f565b9150508091505092915050565b600060208301600083015184820360008601526113c3828261121f565b9150508091505092915050565b600060208301600083015184820360008601526113ed828261121f565b9150508091505092915050565b611403816117e1565b82525050565b611412816117e1565b82525050565b600060208201905061142d600083018461103c565b92915050565b6000602082019050818103600083015261144d818461104b565b905092915050565b6000602082019050818103600083015261146f8184611258565b905092915050565b6000602082019050818103600083015261149081611291565b9050919050565b600060208201905081810360008301526114b0816112b4565b9050919050565b60006040820190506114cc6000830185611409565b6114d96020830184611409565b9392505050565b60006114ea6114fb565b90506114f6828261185f565b919050565b6000604051905090565b600067ffffffffffffffff8211156115205761151f611966565b5b602082029050602081019050919050565b600067ffffffffffffffff82111561154c5761154b611966565b5b602082029050602081019050919050565b600067ffffffffffffffff82111561157857611577611966565b5b602082029050602081019050919050565b600067ffffffffffffffff8211156115a4576115a3611966565b5b6115ad826119b8565b9050602081019050919050565b6000819050602082019050919050565b6000819050602082019050919050565b6000819050602082019050919050565b6000819050602082019050919050565b600081519050919050565b600081519050919050565b600081519050919050565b600081519050919050565b600081519050919050565b6000602082019050919050565b6000602082019050919050565b6000602082019050919050565b6000602082019050919050565b600082825260208201905092915050565b600082825260208201905092915050565b600082825260208201905092915050565b600082825260208201905092915050565b600082825260208201905092915050565b600082825260208201905092915050565b60006116d6826117e1565b91506116e1836117e1565b9250827fffffffffffffffffffffffffffffffffffffffffffffffffffffffffffffffff03821115611716576117156118d9565b5b828201905092915050565b600061172c826117e1565b9150611737836117e1565b9250817fffffffffffffffffffffffffffffffffffffffffffffffffffffffffffffffff04831182151516156117705761176f6118d9565b5b828202905092915050565b6000611786826117e1565b9150611791836117e1565b9250828210156117a4576117a36118d9565b5b828203905092915050565b60006117ba826117c1565b9050919050565b600073ffffffffffffffffffffffffffffffffffffffff82169050919050565b6000819050919050565b82818337600083830152505050565b60005b838110156118185780820151818401526020810190506117fd565b83811115611827576000848401525b50505050565b6000600282049050600182168061184557607f821691505b6020821081141561185957611858611908565b5b50919050565b611868826119b8565b810181811067ffffffffffffffff8211171561188757611886611966565b5b80604052505050565b600061189b826117e1565b91507fffffffffffffffffffffffffffffffffffffffffffffffffffffffffffffffff8214156118ce576118cd6118d9565b5b600182019050919050565b7f4e487b7100000000000000000000000000000000000000000000000000000000600052601160045260246000fd5b7f4e487b7100000000000000000000000000000000000000000000000000000000600052602260045260246000fd5b7f4e487b7100000000000000000000000000000000000000000000000000000000600052603260045260246000fd5b7f4e487b7100000000000000000000000000000000000000000000000000000000600052604160045260246000fd5b600080fd5b600080fd5b600080fd5b600080fd5b600080fd5b600080fd5b600080fd5b6000601f19601f8301169050919050565b7f546865206e616d65206d7573742068617665206d6f7265207468616e2032206360008201527f6861726163746572730000000000000000000000000000000000000000000000602082015250565b7f546865206964206d7573742062652067726561746572207468616e2030000000600082015250565b611a4a816117e1565b8114611a5557600080fd5b5056fea26469706673582212201cdf4b3cae8665c81463e4233dc9cd26c381163de0963d2a3f0bbcc206c034f364736f6c63430008070033",
					"opcodes": "PUSH1 0x80 PUSH1 0x40 MSTORE CALLVALUE DUP1 ISZERO PUSH2 0x10 JUMPI PUSH1 0x0 DUP1 REVERT JUMPDEST POP PUSH2 0x1A8E DUP1 PUSH2 0x20 PUSH1 0x0 CODECOPY PUSH1 0x0 RETURN INVALID PUSH1 0x80 PUSH1 0x40 MSTORE CALLVALUE DUP1 ISZERO PUSH2 0x10 JUMPI PUSH1 0x0 DUP1 REVERT JUMPDEST POP PUSH1 0x4 CALLDATASIZE LT PUSH2 0x4C JUMPI PUSH1 0x0 CALLDATALOAD PUSH1 0xE0 SHR DUP1 PUSH4 0x2F7467B3 EQ PUSH2 0x51 JUMPI DUP1 PUSH4 0x5E916790 EQ PUSH2 0x81 JUMPI DUP1 PUSH4 0x710EBD11 EQ PUSH2 0x9F JUMPI DUP1 PUSH4 0xDE292789 EQ PUSH2 0xBB JUMPI JUMPDEST PUSH1 0x0 DUP1 REVERT JUMPDEST PUSH2 0x6B PUSH1 0x4 DUP1 CALLDATASIZE SUB DUP2 ADD SWAP1 PUSH2 0x66 SWAP2 SWAP1 PUSH2 0xFBF JUMP JUMPDEST PUSH2 0xDA JUMP JUMPDEST PUSH1 0x40 MLOAD PUSH2 0x78 SWAP2 SWAP1 PUSH2 0x1418 JUMP JUMPDEST PUSH1 0x40 MLOAD DUP1 SWAP2 SUB SWAP1 RETURN JUMPDEST PUSH2 0x89 PUSH2 0x10D JUMP JUMPDEST PUSH1 0x40 MLOAD PUSH2 0x96 SWAP2 SWAP1 PUSH2 0x1433 JUMP JUMPDEST PUSH1 0x40 MLOAD DUP1 SWAP2 SUB SWAP1 RETURN JUMPDEST PUSH2 0xB9 PUSH1 0x4 DUP1 CALLDATASIZE SUB DUP2 ADD SWAP1 PUSH2 0xB4 SWAP2 SWAP1 PUSH2 0xED4 JUMP JUMPDEST PUSH2 0x565 JUMP JUMPDEST STOP JUMPDEST PUSH2 0xC3 PUSH2 0xA0F JUMP JUMPDEST PUSH1 0x40 MLOAD PUSH2 0xD1 SWAP3 SWAP2 SWAP1 PUSH2 0x14B7 JUMP JUMPDEST PUSH1 0x40 MLOAD DUP1 SWAP2 SUB SWAP1 RETURN JUMPDEST PUSH1 0x1 PUSH1 0x20 MSTORE DUP1 PUSH1 0x0 MSTORE PUSH1 0x40 PUSH1 0x0 KECCAK256 PUSH1 0x0 SWAP2 POP SLOAD SWAP1 PUSH2 0x100 EXP SWAP1 DIV PUSH20 0xFFFFFFFFFFFFFFFFFFFFFFFFFFFFFFFFFFFFFFFF AND DUP2 JUMP JUMPDEST PUSH1 0x60 PUSH1 0x0 DUP1 SLOAD DUP1 PUSH1 0x20 MUL PUSH1 0x20 ADD PUSH1 0x40 MLOAD SWAP1 DUP2 ADD PUSH1 0x40 MSTORE DUP1 SWAP3 SWAP2 SWAP1 DUP2 DUP2 MSTORE PUSH1 0x20 ADD PUSH1 0x0 SWAP1 JUMPDEST DUP3 DUP3 LT ISZERO PUSH2 0x55C JUMPI DUP4 DUP3 SWAP1 PUSH1 0x0 MSTORE PUSH1 0x20 PUSH1 0x0 KECCAK256 SWAP1 PUSH1 0x5 MUL ADD PUSH1 0x40 MLOAD DUP1 PUSH1 0xA0 ADD PUSH1 0x40 MSTORE SWAP1 DUP2 PUSH1 0x0 DUP3 ADD SLOAD DUP2 MSTORE PUSH1 0x20 ADD PUSH1 0x1 DUP3 ADD DUP1 SLOAD PUSH2 0x16E SWAP1 PUSH2 0x182D JUMP JUMPDEST DUP1 PUSH1 0x1F ADD PUSH1 0x20 DUP1 SWAP2 DIV MUL PUSH1 0x20 ADD PUSH1 0x40 MLOAD SWAP1 DUP2 ADD PUSH1 0x40 MSTORE DUP1 SWAP3 SWAP2 SWAP1 DUP2 DUP2 MSTORE PUSH1 0x20 ADD DUP3 DUP1 SLOAD PUSH2 0x19A SWAP1 PUSH2 0x182D JUMP JUMPDEST DUP1 ISZERO PUSH2 0x1E7 JUMPI DUP1 PUSH1 0x1F LT PUSH2 0x1BC JUMPI PUSH2 0x100 DUP1 DUP4 SLOAD DIV MUL DUP4 MSTORE SWAP2 PUSH1 0x20 ADD SWAP2 PUSH2 0x1E7 JUMP JUMPDEST DUP3 ADD SWAP2 SWAP1 PUSH1 0x0 MSTORE PUSH1 0x20 PUSH1 0x0 KECCAK256 SWAP1 JUMPDEST DUP2 SLOAD DUP2 MSTORE SWAP1 PUSH1 0x1 ADD SWAP1 PUSH1 0x20 ADD DUP1 DUP4 GT PUSH2 0x1CA JUMPI DUP3 SWAP1 SUB PUSH1 0x1F AND DUP3 ADD SWAP2 JUMPDEST POP POP POP POP POP DUP2 MSTORE PUSH1 0x20 ADD PUSH1 0x2 DUP3 ADD DUP1 SLOAD DUP1 PUSH1 0x20 MUL PUSH1 0x20 ADD PUSH1 0x40 MLOAD SWAP1 DUP2 ADD PUSH1 0x40 MSTORE DUP1 SWAP3 SWAP2 SWAP1 DUP2 DUP2 MSTORE PUSH1 0x20 ADD PUSH1 0x0 SWAP1 JUMPDEST DUP3 DUP3 LT ISZERO PUSH2 0x36B JUMPI DUP4 DUP3 SWAP1 PUSH1 0x0 MSTORE PUSH1 0x20 PUSH1 0x0 KECCAK256 SWAP1 PUSH1 0x2 MUL ADD PUSH1 0x40 MLOAD DUP1 PUSH1 0x40 ADD PUSH1 0x40 MSTORE SWAP1 DUP2 PUSH1 0x0 DUP3 ADD DUP1 SLOAD PUSH2 0x248 SWAP1 PUSH2 0x182D JUMP JUMPDEST DUP1 PUSH1 0x1F ADD PUSH1 0x20 DUP1 SWAP2 DIV MUL PUSH1 0x20 ADD PUSH1 0x40 MLOAD SWAP1 DUP2 ADD PUSH1 0x40 MSTORE DUP1 SWAP3 SWAP2 SWAP1 DUP2 DUP2 MSTORE PUSH1 0x20 ADD DUP3 DUP1 SLOAD PUSH2 0x274 SWAP1 PUSH2 0x182D JUMP JUMPDEST DUP1 ISZERO PUSH2 0x2C1 JUMPI DUP1 PUSH1 0x1F LT PUSH2 0x296 JUMPI PUSH2 0x100 DUP1 DUP4 SLOAD DIV MUL DUP4 MSTORE SWAP2 PUSH1 0x20 ADD SWAP2 PUSH2 0x2C1 JUMP JUMPDEST DUP3 ADD SWAP2 SWAP1 PUSH1 0x0 MSTORE PUSH1 0x20 PUSH1 0x0 KECCAK256 SWAP1 JUMPDEST DUP2 SLOAD DUP2 MSTORE SWAP1 PUSH1 0x1 ADD SWAP1 PUSH1 0x20 ADD DUP1 DUP4 GT PUSH2 0x2A4 JUMPI DUP3 SWAP1 SUB PUSH1 0x1F AND DUP3 ADD SWAP2 JUMPDEST POP POP POP POP POP DUP2 MSTORE PUSH1 0x20 ADD PUSH1 0x1 DUP3 ADD DUP1 SLOAD PUSH2 0x2DA SWAP1 PUSH2 0x182D JUMP JUMPDEST DUP1 PUSH1 0x1F ADD PUSH1 0x20 DUP1 SWAP2 DIV MUL PUSH1 0x20 ADD PUSH1 0x40 MLOAD SWAP1 DUP2 ADD PUSH1 0x40 MSTORE DUP1 SWAP3 SWAP2 SWAP1 DUP2 DUP2 MSTORE PUSH1 0x20 ADD DUP3 DUP1 SLOAD PUSH2 0x306 SWAP1 PUSH2 0x182D JUMP JUMPDEST DUP1 ISZERO PUSH2 0x353 JUMPI DUP1 PUSH1 0x1F LT PUSH2 0x328 JUMPI PUSH2 0x100 DUP1 DUP4 SLOAD DIV MUL DUP4 MSTORE SWAP2 PUSH1 0x20 ADD SWAP2 PUSH2 0x353 JUMP JUMPDEST DUP3 ADD SWAP2 SWAP1 PUSH1 0x0 MSTORE PUSH1 0x20 PUSH1 0x0 KECCAK256 SWAP1 JUMPDEST DUP2 SLOAD DUP2 MSTORE SWAP1 PUSH1 0x1 ADD SWAP1 PUSH1 0x20 ADD DUP1 DUP4 GT PUSH2 0x336 JUMPI DUP3 SWAP1 SUB PUSH1 0x1F AND DUP3 ADD SWAP2 JUMPDEST POP POP POP POP POP DUP2 MSTORE POP POP DUP2 MSTORE PUSH1 0x20 ADD SWAP1 PUSH1 0x1 ADD SWAP1 PUSH2 0x215 JUMP JUMPDEST POP POP POP POP DUP2 MSTORE PUSH1 0x20 ADD PUSH1 0x3 DUP3 ADD DUP1 SLOAD DUP1 PUSH1 0x20 MUL PUSH1 0x20 ADD PUSH1 0x40 MLOAD SWAP1 DUP2 ADD PUSH1 0x40 MSTORE DUP1 SWAP3 SWAP2 SWAP1 DUP2 DUP2 MSTORE PUSH1 0x20 ADD PUSH1 0x0 SWAP1 JUMPDEST DUP3 DUP3 LT ISZERO PUSH2 0x458 JUMPI DUP4 DUP3 SWAP1 PUSH1 0x0 MSTORE PUSH1 0x20 PUSH1 0x0 KECCAK256 ADD PUSH1 0x40 MLOAD DUP1 PUSH1 0x20 ADD PUSH1 0x40 MSTORE SWAP1 DUP2 PUSH1 0x0 DUP3 ADD DUP1 SLOAD PUSH2 0x3C7 SWAP1 PUSH2 0x182D JUMP JUMPDEST DUP1 PUSH1 0x1F ADD PUSH1 0x20 DUP1 SWAP2 DIV MUL PUSH1 0x20 ADD PUSH1 0x40 MLOAD SWAP1 DUP2 ADD PUSH1 0x40 MSTORE DUP1 SWAP3 SWAP2 SWAP1 DUP2 DUP2 MSTORE PUSH1 0x20 ADD DUP3 DUP1 SLOAD PUSH2 0x3F3 SWAP1 PUSH2 0x182D JUMP JUMPDEST DUP1 ISZERO PUSH2 0x440 JUMPI DUP1 PUSH1 0x1F LT PUSH2 0x415 JUMPI PUSH2 0x100 DUP1 DUP4 SLOAD DIV MUL DUP4 MSTORE SWAP2 PUSH1 0x20 ADD SWAP2 PUSH2 0x440 JUMP JUMPDEST DUP3 ADD SWAP2 SWAP1 PUSH1 0x0 MSTORE PUSH1 0x20 PUSH1 0x0 KECCAK256 SWAP1 JUMPDEST DUP2 SLOAD DUP2 MSTORE SWAP1 PUSH1 0x1 ADD SWAP1 PUSH1 0x20 ADD DUP1 DUP4 GT PUSH2 0x423 JUMPI DUP3 SWAP1 SUB PUSH1 0x1F AND DUP3 ADD SWAP2 JUMPDEST POP POP POP POP POP DUP2 MSTORE POP POP DUP2 MSTORE PUSH1 0x20 ADD SWAP1 PUSH1 0x1 ADD SWAP1 PUSH2 0x398 JUMP JUMPDEST POP POP POP POP DUP2 MSTORE PUSH1 0x20 ADD PUSH1 0x4 DUP3 ADD DUP1 SLOAD DUP1 PUSH1 0x20 MUL PUSH1 0x20 ADD PUSH1 0x40 MLOAD SWAP1 DUP2 ADD PUSH1 0x40 MSTORE DUP1 SWAP3 SWAP2 SWAP1 DUP2 DUP2 MSTORE PUSH1 0x20 ADD PUSH1 0x0 SWAP1 JUMPDEST DUP3 DUP3 LT ISZERO PUSH2 0x545 JUMPI DUP4 DUP3 SWAP1 PUSH1 0x0 MSTORE PUSH1 0x20 PUSH1 0x0 KECCAK256 ADD PUSH1 0x40 MLOAD DUP1 PUSH1 0x20 ADD PUSH1 0x40 MSTORE SWAP1 DUP2 PUSH1 0x0 DUP3 ADD DUP1 SLOAD PUSH2 0x4B4 SWAP1 PUSH2 0x182D JUMP JUMPDEST DUP1 PUSH1 0x1F ADD PUSH1 0x20 DUP1 SWAP2 DIV MUL PUSH1 0x20 ADD PUSH1 0x40 MLOAD SWAP1 DUP2 ADD PUSH1 0x40 MSTORE DUP1 SWAP3 SWAP2 SWAP1 DUP2 DUP2 MSTORE PUSH1 0x20 ADD DUP3 DUP1 SLOAD PUSH2 0x4E0 SWAP1 PUSH2 0x182D JUMP JUMPDEST DUP1 ISZERO PUSH2 0x52D JUMPI DUP1 PUSH1 0x1F LT PUSH2 0x502 JUMPI PUSH2 0x100 DUP1 DUP4 SLOAD DIV MUL DUP4 MSTORE SWAP2 PUSH1 0x20 ADD SWAP2 PUSH2 0x52D JUMP JUMPDEST DUP3 ADD SWAP2 SWAP1 PUSH1 0x0 MSTORE PUSH1 0x20 PUSH1 0x0 KECCAK256 SWAP1 JUMPDEST DUP2 SLOAD DUP2 MSTORE SWAP1 PUSH1 0x1 ADD SWAP1 PUSH1 0x20 ADD DUP1 DUP4 GT PUSH2 0x510 JUMPI DUP3 SWAP1 SUB PUSH1 0x1F AND DUP3 ADD SWAP2 JUMPDEST POP POP POP POP POP DUP2 MSTORE POP POP DUP2 MSTORE PUSH1 0x20 ADD SWAP1 PUSH1 0x1 ADD SWAP1 PUSH2 0x485 JUMP JUMPDEST POP POP POP POP DUP2 MSTORE POP POP DUP2 MSTORE PUSH1 0x20 ADD SWAP1 PUSH1 0x1 ADD SWAP1 PUSH2 0x131 JUMP JUMPDEST POP POP POP POP SWAP1 POP SWAP1 JUMP JUMPDEST PUSH1 0x0 DUP5 GT PUSH2 0x5A8 JUMPI PUSH1 0x40 MLOAD PUSH32 0x8C379A000000000000000000000000000000000000000000000000000000000 DUP2 MSTORE PUSH1 0x4 ADD PUSH2 0x59F SWAP1 PUSH2 0x1497 JUMP JUMPDEST PUSH1 0x40 MLOAD DUP1 SWAP2 SUB SWAP1 REVERT JUMPDEST PUSH1 0x2 DUP6 MLOAD GT PUSH2 0x5EC JUMPI PUSH1 0x40 MLOAD PUSH32 0x8C379A000000000000000000000000000000000000000000000000000000000 DUP2 MSTORE PUSH1 0x4 ADD PUSH2 0x5E3 SWAP1 PUSH2 0x1477 JUMP JUMPDEST PUSH1 0x40 MLOAD DUP1 SWAP2 SUB SWAP1 REVERT JUMPDEST PUSH1 0x0 PUSH1 0x1 DUP2 PUSH1 0x1 DUP2 SLOAD ADD DUP1 DUP3 SSTORE DUP1 SWAP2 POP POP SUB SWAP1 PUSH1 0x0 MSTORE PUSH1 0x20 PUSH1 0x0 KECCAK256 SWAP1 POP POP DUP4 PUSH1 0x0 PUSH1 0x1 PUSH1 0x0 DUP1 SLOAD SWAP1 POP PUSH2 0x61F SWAP2 SWAP1 PUSH2 0x177B JUMP JUMPDEST DUP2 SLOAD DUP2 LT PUSH2 0x630 JUMPI PUSH2 0x62F PUSH2 0x1937 JUMP JUMPDEST JUMPDEST SWAP1 PUSH1 0x0 MSTORE PUSH1 0x20 PUSH1 0x0 KECCAK256 SWAP1 PUSH1 0x5 MUL ADD PUSH1 0x0 ADD DUP2 SWAP1 SSTORE POP DUP5 PUSH1 0x0 PUSH1 0x1 PUSH1 0x0 DUP1 SLOAD SWAP1 POP PUSH2 0x65A SWAP2 SWAP1 PUSH2 0x177B JUMP JUMPDEST DUP2 SLOAD DUP2 LT PUSH2 0x66B JUMPI PUSH2 0x66A PUSH2 0x1937 JUMP JUMPDEST JUMPDEST SWAP1 PUSH1 0x0 MSTORE PUSH1 0x20 PUSH1 0x0 KECCAK256 SWAP1 PUSH1 0x5 MUL ADD PUSH1 0x1 ADD SWAP1 DUP1 MLOAD SWAP1 PUSH1 0x20 ADD SWAP1 PUSH2 0x68F SWAP3 SWAP2 SWAP1 PUSH2 0xA40 JUMP JUMPDEST POP PUSH1 0x0 JUMPDEST DUP4 MLOAD DUP2 LT ISZERO PUSH2 0x79B JUMPI PUSH1 0x0 PUSH1 0x1 PUSH1 0x0 DUP1 SLOAD SWAP1 POP PUSH2 0x6B0 SWAP2 SWAP1 PUSH2 0x177B JUMP JUMPDEST DUP2 SLOAD DUP2 LT PUSH2 0x6C1 JUMPI PUSH2 0x6C0 PUSH2 0x1937 JUMP JUMPDEST JUMPDEST SWAP1 PUSH1 0x0 MSTORE PUSH1 0x20 PUSH1 0x0 KECCAK256 SWAP1 PUSH1 0x5 MUL ADD PUSH1 0x2 ADD PUSH1 0x40 MLOAD DUP1 PUSH1 0x40 ADD PUSH1 0x40 MSTORE DUP1 DUP7 DUP5 DUP2 MLOAD DUP2 LT PUSH2 0x6F0 JUMPI PUSH2 0x6EF PUSH2 0x1937 JUMP JUMPDEST JUMPDEST PUSH1 0x20 MUL PUSH1 0x20 ADD ADD MLOAD PUSH1 0x0 ADD MLOAD DUP2 MSTORE PUSH1 0x20 ADD DUP7 DUP5 DUP2 MLOAD DUP2 LT PUSH2 0x714 JUMPI PUSH2 0x713 PUSH2 0x1937 JUMP JUMPDEST JUMPDEST PUSH1 0x20 MUL PUSH1 0x20 ADD ADD MLOAD PUSH1 0x20 ADD MLOAD DUP2 MSTORE POP SWAP1 DUP1 PUSH1 0x1 DUP2 SLOAD ADD DUP1 DUP3 SSTORE DUP1 SWAP2 POP POP PUSH1 0x1 SWAP1 SUB SWAP1 PUSH1 0x0 MSTORE PUSH1 0x20 PUSH1 0x0 KECCAK256 SWAP1 PUSH1 0x2 MUL ADD PUSH1 0x0 SWAP1 SWAP2 SWAP1 SWAP2 SWAP1 SWAP2 POP PUSH1 0x0 DUP3 ADD MLOAD DUP2 PUSH1 0x0 ADD SWAP1 DUP1 MLOAD SWAP1 PUSH1 0x20 ADD SWAP1 PUSH2 0x768 SWAP3 SWAP2 SWAP1 PUSH2 0xA40 JUMP JUMPDEST POP PUSH1 0x20 DUP3 ADD MLOAD DUP2 PUSH1 0x1 ADD SWAP1 DUP1 MLOAD SWAP1 PUSH1 0x20 ADD SWAP1 PUSH2 0x785 SWAP3 SWAP2 SWAP1 PUSH2 0xA40 JUMP JUMPDEST POP POP POP DUP1 DUP1 PUSH2 0x793 SWAP1 PUSH2 0x1890 JUMP JUMPDEST SWAP2 POP POP PUSH2 0x693 JUMP JUMPDEST POP PUSH1 0x0 JUMPDEST DUP3 MLOAD DUP2 LT ISZERO PUSH2 0x862 JUMPI PUSH1 0x0 PUSH1 0x1 PUSH1 0x0 DUP1 SLOAD SWAP1 POP PUSH2 0x7BC SWAP2 SWAP1 PUSH2 0x177B JUMP JUMPDEST DUP2 SLOAD DUP2 LT PUSH2 0x7CD JUMPI PUSH2 0x7CC PUSH2 0x1937 JUMP JUMPDEST JUMPDEST SWAP1 PUSH1 0x0 MSTORE PUSH1 0x20 PUSH1 0x0 KECCAK256 SWAP1 PUSH1 0x5 MUL ADD PUSH1 0x3 ADD PUSH1 0x40 MLOAD DUP1 PUSH1 0x20 ADD PUSH1 0x40 MSTORE DUP1 DUP6 DUP5 DUP2 MLOAD DUP2 LT PUSH2 0x7FC JUMPI PUSH2 0x7FB PUSH2 0x1937 JUMP JUMPDEST JUMPDEST PUSH1 0x20 MUL PUSH1 0x20 ADD ADD MLOAD PUSH1 0x0 ADD MLOAD DUP2 MSTORE POP SWAP1 DUP1 PUSH1 0x1 DUP2 SLOAD ADD DUP1 DUP3 SSTORE DUP1 SWAP2 POP POP PUSH1 0x1 SWAP1 SUB SWAP1 PUSH1 0x0 MSTORE PUSH1 0x20 PUSH1 0x0 KECCAK256 ADD PUSH1 0x0 SWAP1 SWAP2 SWAP1 SWAP2 SWAP1 SWAP2 POP PUSH1 0x0 DUP3 ADD MLOAD DUP2 PUSH1 0x0 ADD SWAP1 DUP1 MLOAD SWAP1 PUSH1 0x20 ADD SWAP1 PUSH2 0x84C SWAP3 SWAP2 SWAP1 PUSH2 0xA40 JUMP JUMPDEST POP POP POP DUP1 DUP1 PUSH2 0x85A SWAP1 PUSH2 0x1890 JUMP JUMPDEST SWAP2 POP POP PUSH2 0x79F JUMP JUMPDEST POP PUSH1 0x0 JUMPDEST DUP2 MLOAD DUP2 LT ISZERO PUSH2 0x929 JUMPI PUSH1 0x0 PUSH1 0x1 PUSH1 0x0 DUP1 SLOAD SWAP1 POP PUSH2 0x883 SWAP2 SWAP1 PUSH2 0x177B JUMP JUMPDEST DUP2 SLOAD DUP2 LT PUSH2 0x894 JUMPI PUSH2 0x893 PUSH2 0x1937 JUMP JUMPDEST JUMPDEST SWAP1 PUSH1 0x0 MSTORE PUSH1 0x20 PUSH1 0x0 KECCAK256 SWAP1 PUSH1 0x5 MUL ADD PUSH1 0x4 ADD PUSH1 0x40 MLOAD DUP1 PUSH1 0x20 ADD PUSH1 0x40 MSTORE DUP1 DUP5 DUP5 DUP2 MLOAD DUP2 LT PUSH2 0x8C3 JUMPI PUSH2 0x8C2 PUSH2 0x1937 JUMP JUMPDEST JUMPDEST PUSH1 0x20 MUL PUSH1 0x20 ADD ADD MLOAD PUSH1 0x0 ADD MLOAD DUP2 MSTORE POP SWAP1 DUP1 PUSH1 0x1 DUP2 SLOAD ADD DUP1 DUP3 SSTORE DUP1 SWAP2 POP POP PUSH1 0x1 SWAP1 SUB SWAP1 PUSH1 0x0 MSTORE PUSH1 0x20 PUSH1 0x0 KECCAK256 ADD PUSH1 0x0 SWAP1 SWAP2 SWAP1 SWAP2 SWAP1 SWAP2 POP PUSH1 0x0 DUP3 ADD MLOAD DUP2 PUSH1 0x0 ADD SWAP1 DUP1 MLOAD SWAP1 PUSH1 0x20 ADD SWAP1 PUSH2 0x913 SWAP3 SWAP2 SWAP1 PUSH2 0xA40 JUMP JUMPDEST POP POP POP DUP1 DUP1 PUSH2 0x921 SWAP1 PUSH2 0x1890 JUMP JUMPDEST SWAP2 POP POP PUSH2 0x866 JUMP JUMPDEST POP CALLER PUSH1 0x1 PUSH1 0x0 DUP7 DUP2 MSTORE PUSH1 0x20 ADD SWAP1 DUP2 MSTORE PUSH1 0x20 ADD PUSH1 0x0 KECCAK256 PUSH1 0x0 PUSH2 0x100 EXP DUP2 SLOAD DUP2 PUSH20 0xFFFFFFFFFFFFFFFFFFFFFFFFFFFFFFFFFFFFFFFF MUL NOT AND SWAP1 DUP4 PUSH20 0xFFFFFFFFFFFFFFFFFFFFFFFFFFFFFFFFFFFFFFFF AND MUL OR SWAP1 SSTORE POP PUSH1 0x2 PUSH1 0x0 CALLER PUSH20 0xFFFFFFFFFFFFFFFFFFFFFFFFFFFFFFFFFFFFFFFF AND PUSH20 0xFFFFFFFFFFFFFFFFFFFFFFFFFFFFFFFFFFFFFFFF AND DUP2 MSTORE PUSH1 0x20 ADD SWAP1 DUP2 MSTORE PUSH1 0x20 ADD PUSH1 0x0 KECCAK256 PUSH1 0x0 DUP2 SLOAD DUP1 SWAP3 SWAP2 SWAP1 PUSH2 0x9CC SWAP1 PUSH2 0x1890 JUMP JUMPDEST SWAP2 SWAP1 POP SSTORE POP PUSH32 0x9018649032BDFABE07C5FA8E887DF7DDA6BAF8EAC2EF8026B39EEBED1FDADEFF DUP6 PUSH1 0x40 MLOAD PUSH2 0xA00 SWAP2 SWAP1 PUSH2 0x1455 JUMP JUMPDEST PUSH1 0x40 MLOAD DUP1 SWAP2 SUB SWAP1 LOG1 POP POP POP POP POP JUMP JUMPDEST PUSH1 0x0 DUP1 PUSH1 0x0 PUSH1 0x1 SWAP1 POP PUSH1 0x0 PUSH1 0x2 SWAP1 POP DUP1 DUP3 PUSH2 0xA2A SWAP2 SWAP1 PUSH2 0x1721 JUMP JUMPDEST SWAP4 POP DUP1 DUP3 PUSH2 0xA38 SWAP2 SWAP1 PUSH2 0x16CB JUMP JUMPDEST SWAP3 POP POP POP SWAP1 SWAP2 JUMP JUMPDEST DUP3 DUP1 SLOAD PUSH2 0xA4C SWAP1 PUSH2 0x182D JUMP JUMPDEST SWAP1 PUSH1 0x0 MSTORE PUSH1 0x20 PUSH1 0x0 KECCAK256 SWAP1 PUSH1 0x1F ADD PUSH1 0x20 SWAP1 DIV DUP2 ADD SWAP3 DUP3 PUSH2 0xA6E JUMPI PUSH1 0x0 DUP6 SSTORE PUSH2 0xAB5 JUMP JUMPDEST DUP3 PUSH1 0x1F LT PUSH2 0xA87 JUMPI DUP1 MLOAD PUSH1 0xFF NOT AND DUP4 DUP1 ADD OR DUP6 SSTORE PUSH2 0xAB5 JUMP JUMPDEST DUP3 DUP1 ADD PUSH1 0x1 ADD DUP6 SSTORE DUP3 ISZERO PUSH2 0xAB5 JUMPI SWAP2 DUP3 ADD JUMPDEST DUP3 DUP2 GT ISZERO PUSH2 0xAB4 JUMPI DUP3 MLOAD DUP3 SSTORE SWAP2 PUSH1 0x20 ADD SWAP2 SWAP1 PUSH1 0x1 ADD SWAP1 PUSH2 0xA99 JUMP JUMPDEST JUMPDEST POP SWAP1 POP PUSH2 0xAC2 SWAP2 SWAP1 PUSH2 0xAC6 JUMP JUMPDEST POP SWAP1 JUMP JUMPDEST JUMPDEST DUP1 DUP3 GT ISZERO PUSH2 0xADF JUMPI PUSH1 0x0 DUP2 PUSH1 0x0 SWAP1 SSTORE POP PUSH1 0x1 ADD PUSH2 0xAC7 JUMP JUMPDEST POP SWAP1 JUMP JUMPDEST PUSH1 0x0 PUSH2 0xAF6 PUSH2 0xAF1 DUP5 PUSH2 0x1505 JUMP JUMPDEST PUSH2 0x14E0 JUMP JUMPDEST SWAP1 POP DUP1 DUP4 DUP3 MSTORE PUSH1 0x20 DUP3 ADD SWAP1 POP DUP3 DUP6 PUSH1 0x20 DUP7 MUL DUP3 ADD GT ISZERO PUSH2 0xB19 JUMPI PUSH2 0xB18 PUSH2 0x19A4 JUMP JUMPDEST JUMPDEST PUSH1 0x0 JUMPDEST DUP6 DUP2 LT ISZERO PUSH2 0xB67 JUMPI DUP2 CALLDATALOAD PUSH8 0xFFFFFFFFFFFFFFFF DUP2 GT ISZERO PUSH2 0xB3F JUMPI PUSH2 0xB3E PUSH2 0x1995 JUMP JUMPDEST JUMPDEST DUP1 DUP7 ADD PUSH2 0xB4C DUP10 DUP3 PUSH2 0xD87 JUMP JUMPDEST DUP6 MSTORE PUSH1 0x20 DUP6 ADD SWAP5 POP PUSH1 0x20 DUP5 ADD SWAP4 POP POP POP PUSH1 0x1 DUP2 ADD SWAP1 POP PUSH2 0xB1C JUMP JUMPDEST POP POP POP SWAP4 SWAP3 POP POP POP JUMP JUMPDEST PUSH1 0x0 PUSH2 0xB84 PUSH2 0xB7F DUP5 PUSH2 0x1531 JUMP JUMPDEST PUSH2 0x14E0 JUMP JUMPDEST SWAP1 POP DUP1 DUP4 DUP3 MSTORE PUSH1 0x20 DUP3 ADD SWAP1 POP DUP3 DUP6 PUSH1 0x20 DUP7 MUL DUP3 ADD GT ISZERO PUSH2 0xBA7 JUMPI PUSH2 0xBA6 PUSH2 0x19A4 JUMP JUMPDEST JUMPDEST PUSH1 0x0 JUMPDEST DUP6 DUP2 LT ISZERO PUSH2 0xBF5 JUMPI DUP2 CALLDATALOAD PUSH8 0xFFFFFFFFFFFFFFFF DUP2 GT ISZERO PUSH2 0xBCD JUMPI PUSH2 0xBCC PUSH2 0x1995 JUMP JUMPDEST JUMPDEST DUP1 DUP7 ADD PUSH2 0xBDA DUP10 DUP3 PUSH2 0xE0F JUMP JUMPDEST DUP6 MSTORE PUSH1 0x20 DUP6 ADD SWAP5 POP PUSH1 0x20 DUP5 ADD SWAP4 POP POP POP PUSH1 0x1 DUP2 ADD SWAP1 POP PUSH2 0xBAA JUMP JUMPDEST POP POP POP SWAP4 SWAP3 POP POP POP JUMP JUMPDEST PUSH1 0x0 PUSH2 0xC12 PUSH2 0xC0D DUP5 PUSH2 0x155D JUMP JUMPDEST PUSH2 0x14E0 JUMP JUMPDEST SWAP1 POP DUP1 DUP4 DUP3 MSTORE PUSH1 0x20 DUP3 ADD SWAP1 POP DUP3 DUP6 PUSH1 0x20 DUP7 MUL DUP3 ADD GT ISZERO PUSH2 0xC35 JUMPI PUSH2 0xC34 PUSH2 0x19A4 JUMP JUMPDEST JUMPDEST PUSH1 0x0 JUMPDEST DUP6 DUP2 LT ISZERO PUSH2 0xC83 JUMPI DUP2 CALLDATALOAD PUSH8 0xFFFFFFFFFFFFFFFF DUP2 GT ISZERO PUSH2 0xC5B JUMPI PUSH2 0xC5A PUSH2 0x1995 JUMP JUMPDEST JUMPDEST DUP1 DUP7 ADD PUSH2 0xC68 DUP10 DUP3 PUSH2 0xE67 JUMP JUMPDEST DUP6 MSTORE PUSH1 0x20 DUP6 ADD SWAP5 POP PUSH1 0x20 DUP5 ADD SWAP4 POP POP POP PUSH1 0x1 DUP2 ADD SWAP1 POP PUSH2 0xC38 JUMP JUMPDEST POP POP POP SWAP4 SWAP3 POP POP POP JUMP JUMPDEST PUSH1 0x0 PUSH2 0xCA0 PUSH2 0xC9B DUP5 PUSH2 0x1589 JUMP JUMPDEST PUSH2 0x14E0 JUMP JUMPDEST SWAP1 POP DUP3 DUP2 MSTORE PUSH1 0x20 DUP2 ADD DUP5 DUP5 DUP5 ADD GT ISZERO PUSH2 0xCBC JUMPI PUSH2 0xCBB PUSH2 0x19A9 JUMP JUMPDEST JUMPDEST PUSH2 0xCC7 DUP5 DUP3 DUP6 PUSH2 0x17EB JUMP JUMPDEST POP SWAP4 SWAP3 POP POP POP JUMP JUMPDEST PUSH1 0x0 DUP3 PUSH1 0x1F DUP4 ADD SLT PUSH2 0xCE4 JUMPI PUSH2 0xCE3 PUSH2 0x1995 JUMP JUMPDEST JUMPDEST DUP2 CALLDATALOAD PUSH2 0xCF4 DUP5 DUP3 PUSH1 0x20 DUP7 ADD PUSH2 0xAE3 JUMP JUMPDEST SWAP2 POP POP SWAP3 SWAP2 POP POP JUMP JUMPDEST PUSH1 0x0 DUP3 PUSH1 0x1F DUP4 ADD SLT PUSH2 0xD12 JUMPI PUSH2 0xD11 PUSH2 0x1995 JUMP JUMPDEST JUMPDEST DUP2 CALLDATALOAD PUSH2 0xD22 DUP5 DUP3 PUSH1 0x20 DUP7 ADD PUSH2 0xB71 JUMP JUMPDEST SWAP2 POP POP SWAP3 SWAP2 POP POP JUMP JUMPDEST PUSH1 0x0 DUP3 PUSH1 0x1F DUP4 ADD SLT PUSH2 0xD40 JUMPI PUSH2 0xD3F PUSH2 0x1995 JUMP JUMPDEST JUMPDEST DUP2 CALLDATALOAD PUSH2 0xD50 DUP5 DUP3 PUSH1 0x20 DUP7 ADD PUSH2 0xBFF JUMP JUMPDEST SWAP2 POP POP SWAP3 SWAP2 POP POP JUMP JUMPDEST PUSH1 0x0 DUP3 PUSH1 0x1F DUP4 ADD SLT PUSH2 0xD6E JUMPI PUSH2 0xD6D PUSH2 0x1995 JUMP JUMPDEST JUMPDEST DUP2 CALLDATALOAD PUSH2 0xD7E DUP5 DUP3 PUSH1 0x20 DUP7 ADD PUSH2 0xC8D JUMP JUMPDEST SWAP2 POP POP SWAP3 SWAP2 POP POP JUMP JUMPDEST PUSH1 0x0 PUSH1 0x40 DUP3 DUP5 SUB SLT ISZERO PUSH2 0xD9D JUMPI PUSH2 0xD9C PUSH2 0x199A JUMP JUMPDEST JUMPDEST PUSH2 0xDA7 PUSH1 0x40 PUSH2 0x14E0 JUMP JUMPDEST SWAP1 POP PUSH1 0x0 DUP3 ADD CALLDATALOAD PUSH8 0xFFFFFFFFFFFFFFFF DUP2 GT ISZERO PUSH2 0xDC7 JUMPI PUSH2 0xDC6 PUSH2 0x199F JUMP JUMPDEST JUMPDEST PUSH2 0xDD3 DUP5 DUP3 DUP6 ADD PUSH2 0xD59 JUMP JUMPDEST PUSH1 0x0 DUP4 ADD MSTORE POP PUSH1 0x20 DUP3 ADD CALLDATALOAD PUSH8 0xFFFFFFFFFFFFFFFF DUP2 GT ISZERO PUSH2 0xDF7 JUMPI PUSH2 0xDF6 PUSH2 0x199F JUMP JUMPDEST JUMPDEST PUSH2 0xE03 DUP5 DUP3 DUP6 ADD PUSH2 0xD59 JUMP JUMPDEST PUSH1 0x20 DUP4 ADD MSTORE POP SWAP3 SWAP2 POP POP JUMP JUMPDEST PUSH1 0x0 PUSH1 0x20 DUP3 DUP5 SUB SLT ISZERO PUSH2 0xE25 JUMPI PUSH2 0xE24 PUSH2 0x199A JUMP JUMPDEST JUMPDEST PUSH2 0xE2F PUSH1 0x20 PUSH2 0x14E0 JUMP JUMPDEST SWAP1 POP PUSH1 0x0 DUP3 ADD CALLDATALOAD PUSH8 0xFFFFFFFFFFFFFFFF DUP2 GT ISZERO PUSH2 0xE4F JUMPI PUSH2 0xE4E PUSH2 0x199F JUMP JUMPDEST JUMPDEST PUSH2 0xE5B DUP5 DUP3 DUP6 ADD PUSH2 0xD59 JUMP JUMPDEST PUSH1 0x0 DUP4 ADD MSTORE POP SWAP3 SWAP2 POP POP JUMP JUMPDEST PUSH1 0x0 PUSH1 0x20 DUP3 DUP5 SUB SLT ISZERO PUSH2 0xE7D JUMPI PUSH2 0xE7C PUSH2 0x199A JUMP JUMPDEST JUMPDEST PUSH2 0xE87 PUSH1 0x20 PUSH2 0x14E0 JUMP JUMPDEST SWAP1 POP PUSH1 0x0 DUP3 ADD CALLDATALOAD PUSH8 0xFFFFFFFFFFFFFFFF DUP2 GT ISZERO PUSH2 0xEA7 JUMPI PUSH2 0xEA6 PUSH2 0x199F JUMP JUMPDEST JUMPDEST PUSH2 0xEB3 DUP5 DUP3 DUP6 ADD PUSH2 0xD59 JUMP JUMPDEST PUSH1 0x0 DUP4 ADD MSTORE POP SWAP3 SWAP2 POP POP JUMP JUMPDEST PUSH1 0x0 DUP2 CALLDATALOAD SWAP1 POP PUSH2 0xECE DUP2 PUSH2 0x1A41 JUMP JUMPDEST SWAP3 SWAP2 POP POP JUMP JUMPDEST PUSH1 0x0 DUP1 PUSH1 0x0 DUP1 PUSH1 0x0 PUSH1 0xA0 DUP7 DUP9 SUB SLT ISZERO PUSH2 0xEF0 JUMPI PUSH2 0xEEF PUSH2 0x19B3 JUMP JUMPDEST JUMPDEST PUSH1 0x0 DUP7 ADD CALLDATALOAD PUSH8 0xFFFFFFFFFFFFFFFF DUP2 GT ISZERO PUSH2 0xF0E JUMPI PUSH2 0xF0D PUSH2 0x19AE JUMP JUMPDEST JUMPDEST PUSH2 0xF1A DUP9 DUP3 DUP10 ADD PUSH2 0xD59 JUMP JUMPDEST SWAP6 POP POP PUSH1 0x20 PUSH2 0xF2B DUP9 DUP3 DUP10 ADD PUSH2 0xEBF JUMP JUMPDEST SWAP5 POP POP PUSH1 0x40 DUP7 ADD CALLDATALOAD PUSH8 0xFFFFFFFFFFFFFFFF DUP2 GT ISZERO PUSH2 0xF4C JUMPI PUSH2 0xF4B PUSH2 0x19AE JUMP JUMPDEST JUMPDEST PUSH2 0xF58 DUP9 DUP3 DUP10 ADD PUSH2 0xCCF JUMP JUMPDEST SWAP4 POP POP PUSH1 0x60 DUP7 ADD CALLDATALOAD PUSH8 0xFFFFFFFFFFFFFFFF DUP2 GT ISZERO PUSH2 0xF79 JUMPI PUSH2 0xF78 PUSH2 0x19AE JUMP JUMPDEST JUMPDEST PUSH2 0xF85 DUP9 DUP3 DUP10 ADD PUSH2 0xCFD JUMP JUMPDEST SWAP3 POP POP PUSH1 0x80 DUP7 ADD CALLDATALOAD PUSH8 0xFFFFFFFFFFFFFFFF DUP2 GT ISZERO PUSH2 0xFA6 JUMPI PUSH2 0xFA5 PUSH2 0x19AE JUMP JUMPDEST JUMPDEST PUSH2 0xFB2 DUP9 DUP3 DUP10 ADD PUSH2 0xD2B JUMP JUMPDEST SWAP2 POP POP SWAP3 SWAP6 POP SWAP3 SWAP6 SWAP1 SWAP4 POP JUMP JUMPDEST PUSH1 0x0 PUSH1 0x20 DUP3 DUP5 SUB SLT ISZERO PUSH2 0xFD5 JUMPI PUSH2 0xFD4 PUSH2 0x19B3 JUMP JUMPDEST JUMPDEST PUSH1 0x0 PUSH2 0xFE3 DUP5 DUP3 DUP6 ADD PUSH2 0xEBF JUMP JUMPDEST SWAP2 POP POP SWAP3 SWAP2 POP POP JUMP JUMPDEST PUSH1 0x0 PUSH2 0xFF8 DUP4 DUP4 PUSH2 0x12D7 JUMP JUMPDEST SWAP1 POP SWAP3 SWAP2 POP POP JUMP JUMPDEST PUSH1 0x0 PUSH2 0x100C DUP4 DUP4 PUSH2 0x1362 JUMP JUMPDEST SWAP1 POP SWAP3 SWAP2 POP POP JUMP JUMPDEST PUSH1 0x0 PUSH2 0x1020 DUP4 DUP4 PUSH2 0x13A6 JUMP JUMPDEST SWAP1 POP SWAP3 SWAP2 POP POP JUMP JUMPDEST PUSH1 0x0 PUSH2 0x1034 DUP4 DUP4 PUSH2 0x13D0 JUMP JUMPDEST SWAP1 POP SWAP3 SWAP2 POP POP JUMP JUMPDEST PUSH2 0x1045 DUP2 PUSH2 0x17AF JUMP JUMPDEST DUP3 MSTORE POP POP JUMP JUMPDEST PUSH1 0x0 PUSH2 0x1056 DUP3 PUSH2 0x15FA JUMP JUMPDEST PUSH2 0x1060 DUP2 DUP6 PUSH2 0x1665 JUMP JUMPDEST SWAP4 POP DUP4 PUSH1 0x20 DUP3 MUL DUP6 ADD PUSH2 0x1072 DUP6 PUSH2 0x15BA JUMP JUMPDEST DUP1 PUSH1 0x0 JUMPDEST DUP6 DUP2 LT ISZERO PUSH2 0x10AE JUMPI DUP5 DUP5 SUB DUP10 MSTORE DUP2 MLOAD PUSH2 0x108F DUP6 DUP3 PUSH2 0xFEC JUMP JUMPDEST SWAP5 POP PUSH2 0x109A DUP4 PUSH2 0x1631 JUMP JUMPDEST SWAP3 POP PUSH1 0x20 DUP11 ADD SWAP10 POP POP PUSH1 0x1 DUP2 ADD SWAP1 POP PUSH2 0x1076 JUMP JUMPDEST POP DUP3 SWAP8 POP DUP8 SWAP6 POP POP POP POP POP POP SWAP3 SWAP2 POP POP JUMP JUMPDEST PUSH1 0x0 PUSH2 0x10CB DUP3 PUSH2 0x1605 JUMP JUMPDEST PUSH2 0x10D5 DUP2 DUP6 PUSH2 0x1676 JUMP JUMPDEST SWAP4 POP DUP4 PUSH1 0x20 DUP3 MUL DUP6 ADD PUSH2 0x10E7 DUP6 PUSH2 0x15CA JUMP JUMPDEST DUP1 PUSH1 0x0 JUMPDEST DUP6 DUP2 LT ISZERO PUSH2 0x1123 JUMPI DUP5 DUP5 SUB DUP10 MSTORE DUP2 MLOAD PUSH2 0x1104 DUP6 DUP3 PUSH2 0x1000 JUMP JUMPDEST SWAP5 POP PUSH2 0x110F DUP4 PUSH2 0x163E JUMP JUMPDEST SWAP3 POP PUSH1 0x20 DUP11 ADD SWAP10 POP POP PUSH1 0x1 DUP2 ADD SWAP1 POP PUSH2 0x10EB JUMP JUMPDEST POP DUP3 SWAP8 POP DUP8 SWAP6 POP POP POP POP POP POP SWAP3 SWAP2 POP POP JUMP JUMPDEST PUSH1 0x0 PUSH2 0x1140 DUP3 PUSH2 0x1610 JUMP JUMPDEST PUSH2 0x114A DUP2 DUP6 PUSH2 0x1687 JUMP JUMPDEST SWAP4 POP DUP4 PUSH1 0x20 DUP3 MUL DUP6 ADD PUSH2 0x115C DUP6 PUSH2 0x15DA JUMP JUMPDEST DUP1 PUSH1 0x0 JUMPDEST DUP6 DUP2 LT ISZERO PUSH2 0x1198 JUMPI DUP5 DUP5 SUB DUP10 MSTORE DUP2 MLOAD PUSH2 0x1179 DUP6 DUP3 PUSH2 0x1014 JUMP JUMPDEST SWAP5 POP PUSH2 0x1184 DUP4 PUSH2 0x164B JUMP JUMPDEST SWAP3 POP PUSH1 0x20 DUP11 ADD SWAP10 POP POP PUSH1 0x1 DUP2 ADD SWAP1 POP PUSH2 0x1160 JUMP JUMPDEST POP DUP3 SWAP8 POP DUP8 SWAP6 POP POP POP POP POP POP SWAP3 SWAP2 POP POP JUMP JUMPDEST PUSH1 0x0 PUSH2 0x11B5 DUP3 PUSH2 0x161B JUMP JUMPDEST PUSH2 0x11BF DUP2 DUP6 PUSH2 0x1698 JUMP JUMPDEST SWAP4 POP DUP4 PUSH1 0x20 DUP3 MUL DUP6 ADD PUSH2 0x11D1 DUP6 PUSH2 0x15EA JUMP JUMPDEST DUP1 PUSH1 0x0 JUMPDEST DUP6 DUP2 LT ISZERO PUSH2 0x120D JUMPI DUP5 DUP5 SUB DUP10 MSTORE DUP2 MLOAD PUSH2 0x11EE DUP6 DUP3 PUSH2 0x1028 JUMP JUMPDEST SWAP5 POP PUSH2 0x11F9 DUP4 PUSH2 0x1658 JUMP JUMPDEST SWAP3 POP PUSH1 0x20 DUP11 ADD SWAP10 POP POP PUSH1 0x1 DUP2 ADD SWAP1 POP PUSH2 0x11D5 JUMP JUMPDEST POP DUP3 SWAP8 POP DUP8 SWAP6 POP POP POP POP POP POP SWAP3 SWAP2 POP POP JUMP JUMPDEST PUSH1 0x0 PUSH2 0x122A DUP3 PUSH2 0x1626 JUMP JUMPDEST PUSH2 0x1234 DUP2 DUP6 PUSH2 0x16A9 JUMP JUMPDEST SWAP4 POP PUSH2 0x1244 DUP2 DUP6 PUSH1 0x20 DUP7 ADD PUSH2 0x17FA JUMP JUMPDEST PUSH2 0x124D DUP2 PUSH2 0x19B8 JUMP JUMPDEST DUP5 ADD SWAP2 POP POP SWAP3 SWAP2 POP POP JUMP JUMPDEST PUSH1 0x0 PUSH2 0x1263 DUP3 PUSH2 0x1626 JUMP JUMPDEST PUSH2 0x126D DUP2 DUP6 PUSH2 0x16BA JUMP JUMPDEST SWAP4 POP PUSH2 0x127D DUP2 DUP6 PUSH1 0x20 DUP7 ADD PUSH2 0x17FA JUMP JUMPDEST PUSH2 0x1286 DUP2 PUSH2 0x19B8 JUMP JUMPDEST DUP5 ADD SWAP2 POP POP SWAP3 SWAP2 POP POP JUMP JUMPDEST PUSH1 0x0 PUSH2 0x129E PUSH1 0x29 DUP4 PUSH2 0x16BA JUMP JUMPDEST SWAP2 POP PUSH2 0x12A9 DUP3 PUSH2 0x19C9 JUMP JUMPDEST PUSH1 0x40 DUP3 ADD SWAP1 POP SWAP2 SWAP1 POP JUMP JUMPDEST PUSH1 0x0 PUSH2 0x12C1 PUSH1 0x1D DUP4 PUSH2 0x16BA JUMP JUMPDEST SWAP2 POP PUSH2 0x12CC DUP3 PUSH2 0x1A18 JUMP JUMPDEST PUSH1 0x20 DUP3 ADD SWAP1 POP SWAP2 SWAP1 POP JUMP JUMPDEST PUSH1 0x0 PUSH1 0xA0 DUP4 ADD PUSH1 0x0 DUP4 ADD MLOAD PUSH2 0x12EF PUSH1 0x0 DUP7 ADD DUP3 PUSH2 0x13FA JUMP JUMPDEST POP PUSH1 0x20 DUP4 ADD MLOAD DUP5 DUP3 SUB PUSH1 0x20 DUP7 ADD MSTORE PUSH2 0x1307 DUP3 DUP3 PUSH2 0x121F JUMP JUMPDEST SWAP2 POP POP PUSH1 0x40 DUP4 ADD MLOAD DUP5 DUP3 SUB PUSH1 0x40 DUP7 ADD MSTORE PUSH2 0x1321 DUP3 DUP3 PUSH2 0x10C0 JUMP JUMPDEST SWAP2 POP POP PUSH1 0x60 DUP4 ADD MLOAD DUP5 DUP3 SUB PUSH1 0x60 DUP7 ADD MSTORE PUSH2 0x133B DUP3 DUP3 PUSH2 0x1135 JUMP JUMPDEST SWAP2 POP POP PUSH1 0x80 DUP4 ADD MLOAD DUP5 DUP3 SUB PUSH1 0x80 DUP7 ADD MSTORE PUSH2 0x1355 DUP3 DUP3 PUSH2 0x11AA JUMP JUMPDEST SWAP2 POP POP DUP1 SWAP2 POP POP SWAP3 SWAP2 POP POP JUMP JUMPDEST PUSH1 0x0 PUSH1 0x40 DUP4 ADD PUSH1 0x0 DUP4 ADD MLOAD DUP5 DUP3 SUB PUSH1 0x0 DUP7 ADD MSTORE PUSH2 0x137F DUP3 DUP3 PUSH2 0x121F JUMP JUMPDEST SWAP2 POP POP PUSH1 0x20 DUP4 ADD MLOAD DUP5 DUP3 SUB PUSH1 0x20 DUP7 ADD MSTORE PUSH2 0x1399 DUP3 DUP3 PUSH2 0x121F JUMP JUMPDEST SWAP2 POP POP DUP1 SWAP2 POP POP SWAP3 SWAP2 POP POP JUMP JUMPDEST PUSH1 0x0 PUSH1 0x20 DUP4 ADD PUSH1 0x0 DUP4 ADD MLOAD DUP5 DUP3 SUB PUSH1 0x0 DUP7 ADD MSTORE PUSH2 0x13C3 DUP3 DUP3 PUSH2 0x121F JUMP JUMPDEST SWAP2 POP POP DUP1 SWAP2 POP POP SWAP3 SWAP2 POP POP JUMP JUMPDEST PUSH1 0x0 PUSH1 0x20 DUP4 ADD PUSH1 0x0 DUP4 ADD MLOAD DUP5 DUP3 SUB PUSH1 0x0 DUP7 ADD MSTORE PUSH2 0x13ED DUP3 DUP3 PUSH2 0x121F JUMP JUMPDEST SWAP2 POP POP DUP1 SWAP2 POP POP SWAP3 SWAP2 POP POP JUMP JUMPDEST PUSH2 0x1403 DUP2 PUSH2 0x17E1 JUMP JUMPDEST DUP3 MSTORE POP POP JUMP JUMPDEST PUSH2 0x1412 DUP2 PUSH2 0x17E1 JUMP JUMPDEST DUP3 MSTORE POP POP JUMP JUMPDEST PUSH1 0x0 PUSH1 0x20 DUP3 ADD SWAP1 POP PUSH2 0x142D PUSH1 0x0 DUP4 ADD DUP5 PUSH2 0x103C JUMP JUMPDEST SWAP3 SWAP2 POP POP JUMP JUMPDEST PUSH1 0x0 PUSH1 0x20 DUP3 ADD SWAP1 POP DUP2 DUP2 SUB PUSH1 0x0 DUP4 ADD MSTORE PUSH2 0x144D DUP2 DUP5 PUSH2 0x104B JUMP JUMPDEST SWAP1 POP SWAP3 SWAP2 POP POP JUMP JUMPDEST PUSH1 0x0 PUSH1 0x20 DUP3 ADD SWAP1 POP DUP2 DUP2 SUB PUSH1 0x0 DUP4 ADD MSTORE PUSH2 0x146F DUP2 DUP5 PUSH2 0x1258 JUMP JUMPDEST SWAP1 POP SWAP3 SWAP2 POP POP JUMP JUMPDEST PUSH1 0x0 PUSH1 0x20 DUP3 ADD SWAP1 POP DUP2 DUP2 SUB PUSH1 0x0 DUP4 ADD MSTORE PUSH2 0x1490 DUP2 PUSH2 0x1291 JUMP JUMPDEST SWAP1 POP SWAP2 SWAP1 POP JUMP JUMPDEST PUSH1 0x0 PUSH1 0x20 DUP3 ADD SWAP1 POP DUP2 DUP2 SUB PUSH1 0x0 DUP4 ADD MSTORE PUSH2 0x14B0 DUP2 PUSH2 0x12B4 JUMP JUMPDEST SWAP1 POP SWAP2 SWAP1 POP JUMP JUMPDEST PUSH1 0x0 PUSH1 0x40 DUP3 ADD SWAP1 POP PUSH2 0x14CC PUSH1 0x0 DUP4 ADD DUP6 PUSH2 0x1409 JUMP JUMPDEST PUSH2 0x14D9 PUSH1 0x20 DUP4 ADD DUP5 PUSH2 0x1409 JUMP JUMPDEST SWAP4 SWAP3 POP POP POP JUMP JUMPDEST PUSH1 0x0 PUSH2 0x14EA PUSH2 0x14FB JUMP JUMPDEST SWAP1 POP PUSH2 0x14F6 DUP3 DUP3 PUSH2 0x185F JUMP JUMPDEST SWAP2 SWAP1 POP JUMP JUMPDEST PUSH1 0x0 PUSH1 0x40 MLOAD SWAP1 POP SWAP1 JUMP JUMPDEST PUSH1 0x0 PUSH8 0xFFFFFFFFFFFFFFFF DUP3 GT ISZERO PUSH2 0x1520 JUMPI PUSH2 0x151F PUSH2 0x1966 JUMP JUMPDEST JUMPDEST PUSH1 0x20 DUP3 MUL SWAP1 POP PUSH1 0x20 DUP2 ADD SWAP1 POP SWAP2 SWAP1 POP JUMP JUMPDEST PUSH1 0x0 PUSH8 0xFFFFFFFFFFFFFFFF DUP3 GT ISZERO PUSH2 0x154C JUMPI PUSH2 0x154B PUSH2 0x1966 JUMP JUMPDEST JUMPDEST PUSH1 0x20 DUP3 MUL SWAP1 POP PUSH1 0x20 DUP2 ADD SWAP1 POP SWAP2 SWAP1 POP JUMP JUMPDEST PUSH1 0x0 PUSH8 0xFFFFFFFFFFFFFFFF DUP3 GT ISZERO PUSH2 0x1578 JUMPI PUSH2 0x1577 PUSH2 0x1966 JUMP JUMPDEST JUMPDEST PUSH1 0x20 DUP3 MUL SWAP1 POP PUSH1 0x20 DUP2 ADD SWAP1 POP SWAP2 SWAP1 POP JUMP JUMPDEST PUSH1 0x0 PUSH8 0xFFFFFFFFFFFFFFFF DUP3 GT ISZERO PUSH2 0x15A4 JUMPI PUSH2 0x15A3 PUSH2 0x1966 JUMP JUMPDEST JUMPDEST PUSH2 0x15AD DUP3 PUSH2 0x19B8 JUMP JUMPDEST SWAP1 POP PUSH1 0x20 DUP2 ADD SWAP1 POP SWAP2 SWAP1 POP JUMP JUMPDEST PUSH1 0x0 DUP2 SWAP1 POP PUSH1 0x20 DUP3 ADD SWAP1 POP SWAP2 SWAP1 POP JUMP JUMPDEST PUSH1 0x0 DUP2 SWAP1 POP PUSH1 0x20 DUP3 ADD SWAP1 POP SWAP2 SWAP1 POP JUMP JUMPDEST PUSH1 0x0 DUP2 SWAP1 POP PUSH1 0x20 DUP3 ADD SWAP1 POP SWAP2 SWAP1 POP JUMP JUMPDEST PUSH1 0x0 DUP2 SWAP1 POP PUSH1 0x20 DUP3 ADD SWAP1 POP SWAP2 SWAP1 POP JUMP JUMPDEST PUSH1 0x0 DUP2 MLOAD SWAP1 POP SWAP2 SWAP1 POP JUMP JUMPDEST PUSH1 0x0 DUP2 MLOAD SWAP1 POP SWAP2 SWAP1 POP JUMP JUMPDEST PUSH1 0x0 DUP2 MLOAD SWAP1 POP SWAP2 SWAP1 POP JUMP JUMPDEST PUSH1 0x0 DUP2 MLOAD SWAP1 POP SWAP2 SWAP1 POP JUMP JUMPDEST PUSH1 0x0 DUP2 MLOAD SWAP1 POP SWAP2 SWAP1 POP JUMP JUMPDEST PUSH1 0x0 PUSH1 0x20 DUP3 ADD SWAP1 POP SWAP2 SWAP1 POP JUMP JUMPDEST PUSH1 0x0 PUSH1 0x20 DUP3 ADD SWAP1 POP SWAP2 SWAP1 POP JUMP JUMPDEST PUSH1 0x0 PUSH1 0x20 DUP3 ADD SWAP1 POP SWAP2 SWAP1 POP JUMP JUMPDEST PUSH1 0x0 PUSH1 0x20 DUP3 ADD SWAP1 POP SWAP2 SWAP1 POP JUMP JUMPDEST PUSH1 0x0 DUP3 DUP3 MSTORE PUSH1 0x20 DUP3 ADD SWAP1 POP SWAP3 SWAP2 POP POP JUMP JUMPDEST PUSH1 0x0 DUP3 DUP3 MSTORE PUSH1 0x20 DUP3 ADD SWAP1 POP SWAP3 SWAP2 POP POP JUMP JUMPDEST PUSH1 0x0 DUP3 DUP3 MSTORE PUSH1 0x20 DUP3 ADD SWAP1 POP SWAP3 SWAP2 POP POP JUMP JUMPDEST PUSH1 0x0 DUP3 DUP3 MSTORE PUSH1 0x20 DUP3 ADD SWAP1 POP SWAP3 SWAP2 POP POP JUMP JUMPDEST PUSH1 0x0 DUP3 DUP3 MSTORE PUSH1 0x20 DUP3 ADD SWAP1 POP SWAP3 SWAP2 POP POP JUMP JUMPDEST PUSH1 0x0 DUP3 DUP3 MSTORE PUSH1 0x20 DUP3 ADD SWAP1 POP SWAP3 SWAP2 POP POP JUMP JUMPDEST PUSH1 0x0 PUSH2 0x16D6 DUP3 PUSH2 0x17E1 JUMP JUMPDEST SWAP2 POP PUSH2 0x16E1 DUP4 PUSH2 0x17E1 JUMP JUMPDEST SWAP3 POP DUP3 PUSH32 0xFFFFFFFFFFFFFFFFFFFFFFFFFFFFFFFFFFFFFFFFFFFFFFFFFFFFFFFFFFFFFFFF SUB DUP3 GT ISZERO PUSH2 0x1716 JUMPI PUSH2 0x1715 PUSH2 0x18D9 JUMP JUMPDEST JUMPDEST DUP3 DUP3 ADD SWAP1 POP SWAP3 SWAP2 POP POP JUMP JUMPDEST PUSH1 0x0 PUSH2 0x172C DUP3 PUSH2 0x17E1 JUMP JUMPDEST SWAP2 POP PUSH2 0x1737 DUP4 PUSH2 0x17E1 JUMP JUMPDEST SWAP3 POP DUP2 PUSH32 0xFFFFFFFFFFFFFFFFFFFFFFFFFFFFFFFFFFFFFFFFFFFFFFFFFFFFFFFFFFFFFFFF DIV DUP4 GT DUP3 ISZERO ISZERO AND ISZERO PUSH2 0x1770 JUMPI PUSH2 0x176F PUSH2 0x18D9 JUMP JUMPDEST JUMPDEST DUP3 DUP3 MUL SWAP1 POP SWAP3 SWAP2 POP POP JUMP JUMPDEST PUSH1 0x0 PUSH2 0x1786 DUP3 PUSH2 0x17E1 JUMP JUMPDEST SWAP2 POP PUSH2 0x1791 DUP4 PUSH2 0x17E1 JUMP JUMPDEST SWAP3 POP DUP3 DUP3 LT ISZERO PUSH2 0x17A4 JUMPI PUSH2 0x17A3 PUSH2 0x18D9 JUMP JUMPDEST JUMPDEST DUP3 DUP3 SUB SWAP1 POP SWAP3 SWAP2 POP POP JUMP JUMPDEST PUSH1 0x0 PUSH2 0x17BA DUP3 PUSH2 0x17C1 JUMP JUMPDEST SWAP1 POP SWAP2 SWAP1 POP JUMP JUMPDEST PUSH1 0x0 PUSH20 0xFFFFFFFFFFFFFFFFFFFFFFFFFFFFFFFFFFFFFFFF DUP3 AND SWAP1 POP SWAP2 SWAP1 POP JUMP JUMPDEST PUSH1 0x0 DUP2 SWAP1 POP SWAP2 SWAP1 POP JUMP JUMPDEST DUP3 DUP2 DUP4 CALLDATACOPY PUSH1 0x0 DUP4 DUP4 ADD MSTORE POP POP POP JUMP JUMPDEST PUSH1 0x0 JUMPDEST DUP4 DUP2 LT ISZERO PUSH2 0x1818 JUMPI DUP1 DUP3 ADD MLOAD DUP2 DUP5 ADD MSTORE PUSH1 0x20 DUP2 ADD SWAP1 POP PUSH2 0x17FD JUMP JUMPDEST DUP4 DUP2 GT ISZERO PUSH2 0x1827 JUMPI PUSH1 0x0 DUP5 DUP5 ADD MSTORE JUMPDEST POP POP POP POP JUMP JUMPDEST PUSH1 0x0 PUSH1 0x2 DUP3 DIV SWAP1 POP PUSH1 0x1 DUP3 AND DUP1 PUSH2 0x1845 JUMPI PUSH1 0x7F DUP3 AND SWAP2 POP JUMPDEST PUSH1 0x20 DUP3 LT DUP2 EQ ISZERO PUSH2 0x1859 JUMPI PUSH2 0x1858 PUSH2 0x1908 JUMP JUMPDEST JUMPDEST POP SWAP2 SWAP1 POP JUMP JUMPDEST PUSH2 0x1868 DUP3 PUSH2 0x19B8 JUMP JUMPDEST DUP2 ADD DUP2 DUP2 LT PUSH8 0xFFFFFFFFFFFFFFFF DUP3 GT OR ISZERO PUSH2 0x1887 JUMPI PUSH2 0x1886 PUSH2 0x1966 JUMP JUMPDEST JUMPDEST DUP1 PUSH1 0x40 MSTORE POP POP POP JUMP JUMPDEST PUSH1 0x0 PUSH2 0x189B DUP3 PUSH2 0x17E1 JUMP JUMPDEST SWAP2 POP PUSH32 0xFFFFFFFFFFFFFFFFFFFFFFFFFFFFFFFFFFFFFFFFFFFFFFFFFFFFFFFFFFFFFFFF DUP3 EQ ISZERO PUSH2 0x18CE JUMPI PUSH2 0x18CD PUSH2 0x18D9 JUMP JUMPDEST JUMPDEST PUSH1 0x1 DUP3 ADD SWAP1 POP SWAP2 SWAP1 POP JUMP JUMPDEST PUSH32 0x4E487B7100000000000000000000000000000000000000000000000000000000 PUSH1 0x0 MSTORE PUSH1 0x11 PUSH1 0x4 MSTORE PUSH1 0x24 PUSH1 0x0 REVERT JUMPDEST PUSH32 0x4E487B7100000000000000000000000000000000000000000000000000000000 PUSH1 0x0 MSTORE PUSH1 0x22 PUSH1 0x4 MSTORE PUSH1 0x24 PUSH1 0x0 REVERT JUMPDEST PUSH32 0x4E487B7100000000000000000000000000000000000000000000000000000000 PUSH1 0x0 MSTORE PUSH1 0x32 PUSH1 0x4 MSTORE PUSH1 0x24 PUSH1 0x0 REVERT JUMPDEST PUSH32 0x4E487B7100000000000000000000000000000000000000000000000000000000 PUSH1 0x0 MSTORE PUSH1 0x41 PUSH1 0x4 MSTORE PUSH1 0x24 PUSH1 0x0 REVERT JUMPDEST PUSH1 0x0 DUP1 REVERT JUMPDEST PUSH1 0x0 DUP1 REVERT JUMPDEST PUSH1 0x0 DUP1 REVERT JUMPDEST PUSH1 0x0 DUP1 REVERT JUMPDEST PUSH1 0x0 DUP1 REVERT JUMPDEST PUSH1 0x0 DUP1 REVERT JUMPDEST PUSH1 0x0 DUP1 REVERT JUMPDEST PUSH1 0x0 PUSH1 0x1F NOT PUSH1 0x1F DUP4 ADD AND SWAP1 POP SWAP2 SWAP1 POP JUMP JUMPDEST PUSH32 0x546865206E616D65206D7573742068617665206D6F7265207468616E20322063 PUSH1 0x0 DUP3 ADD MSTORE PUSH32 0x6861726163746572730000000000000000000000000000000000000000000000 PUSH1 0x20 DUP3 ADD MSTORE POP JUMP JUMPDEST PUSH32 0x546865206964206D7573742062652067726561746572207468616E2030000000 PUSH1 0x0 DUP3 ADD MSTORE POP JUMP JUMPDEST PUSH2 0x1A4A DUP2 PUSH2 0x17E1 JUMP JUMPDEST DUP2 EQ PUSH2 0x1A55 JUMPI PUSH1 0x0 DUP1 REVERT JUMPDEST POP JUMP INVALID LOG2 PUSH5 0x6970667358 0x22 SLT KECCAK256 SHR 0xDF 0x4B EXTCODECOPY 0xAE DUP7 PUSH6 0xC81463E4233D 0xC9 0xCD 0x26 0xC3 DUP2 AND RETURNDATASIZE 0xE0 SWAP7 RETURNDATASIZE 0x2A EXTCODEHASH SIGNEXTEND 0xBC 0xC2 MOD 0xC0 CALLVALUE RETURN PUSH5 0x736F6C6343 STOP ADDMOD SMOD STOP CALLER "
				},
				"gasEstimates": {
					"creation": {
						"codeDepositCost": "1359600",
						"executionCost": "1417",
						"totalCost": "1361017"
					},
					"external": {
						"createPokemon(string,uint256,(string,string)[],(string)[],(string)[])": "infinite",
						"getAllPokemons()": "infinite",
						"getResult()": "infinite",
						"pokemonToOwner(uint256)": "2817"
					}
				},
				"methodIdentifiers": {
					"createPokemon(string,uint256,(string,string)[],(string)[],(string)[])": "710ebd11",
					"getAllPokemons()": "5e916790",
					"getResult()": "de292789",
					"pokemonToOwner(uint256)": "2f7467b3"
				}
			},
			"storageLayout": {
				"storage": [
					{
						"astId": 37,
						"contract": "PokemonFactory.sol:PokemonFactory",
						"label": "pokemons",
						"offset": 0,
						"slot": "0",
						"type": "t_array(t_struct(Pokemon)33_storage)dyn_storage"
					},
					{
						"astId": 41,
						"contract": "PokemonFactory.sol:PokemonFactory",
						"label": "pokemonToOwner",
						"offset": 0,
						"slot": "1",
						"type": "t_mapping(t_uint256,t_address)"
					},
					{
						"astId": 45,
						"contract": "PokemonFactory.sol:PokemonFactory",
						"label": "ownerPokemonCount",
						"offset": 0,
						"slot": "2",
						"type": "t_mapping(t_address,t_uint256)"
					}
				],
				"types": {
					"t_address": {
						"encoding": "inplace",
						"label": "address",
						"numberOfBytes": "20"
					},
					"t_array(t_struct(Pokemon)33_storage)dyn_storage": {
						"base": "t_struct(Pokemon)33_storage",
						"encoding": "dynamic_array",
						"label": "struct PokemonFactory.Pokemon[]",
						"numberOfBytes": "32"
					},
					"t_array(t_struct(Skill)10_storage)dyn_storage": {
						"base": "t_struct(Skill)10_storage",
						"encoding": "dynamic_array",
						"label": "struct PokemonFactory.Skill[]",
						"numberOfBytes": "32"
					},
					"t_array(t_struct(Type)13_storage)dyn_storage": {
						"base": "t_struct(Type)13_storage",
						"encoding": "dynamic_array",
						"label": "struct PokemonFactory.Type[]",
						"numberOfBytes": "32"
					},
					"t_array(t_struct(Weakness)16_storage)dyn_storage": {
						"base": "t_struct(Weakness)16_storage",
						"encoding": "dynamic_array",
						"label": "struct PokemonFactory.Weakness[]",
						"numberOfBytes": "32"
					},
					"t_mapping(t_address,t_uint256)": {
						"encoding": "mapping",
						"key": "t_address",
						"label": "mapping(address => uint256)",
						"numberOfBytes": "32",
						"value": "t_uint256"
					},
					"t_mapping(t_uint256,t_address)": {
						"encoding": "mapping",
						"key": "t_uint256",
						"label": "mapping(uint256 => address)",
						"numberOfBytes": "32",
						"value": "t_address"
					},
					"t_string_storage": {
						"encoding": "bytes",
						"label": "string",
						"numberOfBytes": "32"
					},
					"t_struct(Pokemon)33_storage": {
						"encoding": "inplace",
						"label": "struct PokemonFactory.Pokemon",
						"members": [
							{
								"astId": 18,
								"contract": "PokemonFactory.sol:PokemonFactory",
								"label": "id",
								"offset": 0,
								"slot": "0",
								"type": "t_uint256"
							},
							{
								"astId": 20,
								"contract": "PokemonFactory.sol:PokemonFactory",
								"label": "name",
								"offset": 0,
								"slot": "1",
								"type": "t_string_storage"
							},
							{
								"astId": 24,
								"contract": "PokemonFactory.sol:PokemonFactory",
								"label": "skills",
								"offset": 0,
								"slot": "2",
								"type": "t_array(t_struct(Skill)10_storage)dyn_storage"
							},
							{
								"astId": 28,
								"contract": "PokemonFactory.sol:PokemonFactory",
								"label": "types",
								"offset": 0,
								"slot": "3",
								"type": "t_array(t_struct(Type)13_storage)dyn_storage"
							},
							{
								"astId": 32,
								"contract": "PokemonFactory.sol:PokemonFactory",
								"label": "weaknesses",
								"offset": 0,
								"slot": "4",
								"type": "t_array(t_struct(Weakness)16_storage)dyn_storage"
							}
						],
						"numberOfBytes": "160"
					},
					"t_struct(Skill)10_storage": {
						"encoding": "inplace",
						"label": "struct PokemonFactory.Skill",
						"members": [
							{
								"astId": 7,
								"contract": "PokemonFactory.sol:PokemonFactory",
								"label": "name",
								"offset": 0,
								"slot": "0",
								"type": "t_string_storage"
							},
							{
								"astId": 9,
								"contract": "PokemonFactory.sol:PokemonFactory",
								"label": "description",
								"offset": 0,
								"slot": "1",
								"type": "t_string_storage"
							}
						],
						"numberOfBytes": "64"
					},
					"t_struct(Type)13_storage": {
						"encoding": "inplace",
						"label": "struct PokemonFactory.Type",
						"members": [
							{
								"astId": 12,
								"contract": "PokemonFactory.sol:PokemonFactory",
								"label": "name",
								"offset": 0,
								"slot": "0",
								"type": "t_string_storage"
							}
						],
						"numberOfBytes": "32"
					},
					"t_struct(Weakness)16_storage": {
						"encoding": "inplace",
						"label": "struct PokemonFactory.Weakness",
						"members": [
							{
								"astId": 15,
								"contract": "PokemonFactory.sol:PokemonFactory",
								"label": "name",
								"offset": 0,
								"slot": "0",
								"type": "t_string_storage"
							}
						],
						"numberOfBytes": "32"
					},
					"t_uint256": {
						"encoding": "inplace",
						"label": "uint256",
						"numberOfBytes": "32"
					}
				}
			},
			"userdoc": {
				"kind": "user",
				"methods": {},
				"version": 1
			}
		}
	}
}