{
	"PokemonFactory.sol": {
		"PokemonFactory": {
			"abi": [
				{
					"anonymous": false,
					"inputs": [
						{
							"indexed": false,
							"internalType": "uint256",
							"name": "_id",
							"type": "uint256"
						},
						{
							"indexed": false,
							"internalType": "string",
							"name": "_name",
							"type": "string"
						}
					],
					"name": "eventNewPokemon",
					"type": "event"
				},
				{
					"inputs": [
						{
							"internalType": "string",
							"name": "_name",
							"type": "string"
						},
						{
							"internalType": "uint256",
							"name": "_id",
							"type": "uint256"
						},
						{
							"components": [
								{
									"internalType": "string",
									"name": "name",
									"type": "string"
								},
								{
									"internalType": "string",
									"name": "description",
									"type": "string"
								}
							],
							"internalType": "struct PokemonFactory.Ability[]",
							"name": "_ability",
							"type": "tuple[]"
						},
						{
							"components": [
								{
									"internalType": "string",
									"name": "name",
									"type": "string"
								}
							],
							"internalType": "struct PokemonFactory.Type[]",
							"name": "_types",
							"type": "tuple[]"
						},
						{
							"components": [
								{
									"internalType": "string",
									"name": "name",
									"type": "string"
								}
							],
							"internalType": "struct PokemonFactory.Weakness[]",
							"name": "_weaknesses",
							"type": "tuple[]"
						}
					],
					"name": "createPokemon",
					"outputs": [],
					"stateMutability": "nonpayable",
					"type": "function"
				},
				{
					"inputs": [],
					"name": "getAllPokemons",
					"outputs": [
						{
							"components": [
								{
									"internalType": "uint256",
									"name": "id",
									"type": "uint256"
								},
								{
									"internalType": "string",
									"name": "name",
									"type": "string"
								},
								{
									"components": [
										{
											"internalType": "string",
											"name": "name",
											"type": "string"
										},
										{
											"internalType": "string",
											"name": "description",
											"type": "string"
										}
									],
									"internalType": "struct PokemonFactory.Ability[]",
									"name": "abilities",
									"type": "tuple[]"
								},
								{
									"components": [
										{
											"internalType": "string",
											"name": "name",
											"type": "string"
										}
									],
									"internalType": "struct PokemonFactory.Type[]",
									"name": "types",
									"type": "tuple[]"
								},
								{
									"components": [
										{
											"internalType": "string",
											"name": "name",
											"type": "string"
										}
									],
									"internalType": "struct PokemonFactory.Weakness[]",
									"name": "weaknesses",
									"type": "tuple[]"
								}
							],
							"internalType": "struct PokemonFactory.Pokemon[]",
							"name": "",
							"type": "tuple[]"
						}
					],
					"stateMutability": "view",
					"type": "function"
				},
				{
					"inputs": [],
					"name": "getResult",
					"outputs": [
						{
							"internalType": "uint256",
							"name": "product",
							"type": "uint256"
						},
						{
							"internalType": "uint256",
							"name": "sum",
							"type": "uint256"
						}
					],
					"stateMutability": "pure",
					"type": "function"
				},
				{
					"inputs": [
						{
							"internalType": "uint256",
							"name": "",
							"type": "uint256"
						}
					],
					"name": "pokemonToOwner",
					"outputs": [
						{
							"internalType": "address",
							"name": "",
							"type": "address"
						}
					],
					"stateMutability": "view",
					"type": "function"
				}
			],
			"devdoc": {
				"kind": "dev",
				"methods": {},
				"version": 1
			},
			"evm": {
				"assembly": "    /* \"PokemonFactory.sol\":70:2042  contract PokemonFactory {... */\n  mstore(0x40, 0x80)\n  callvalue\n  dup1\n  iszero\n  tag_1\n  jumpi\n  0x00\n  dup1\n  revert\ntag_1:\n  pop\n  dataSize(sub_0)\n  dup1\n  dataOffset(sub_0)\n  0x00\n  codecopy\n  0x00\n  return\nstop\n\nsub_0: assembly {\n        /* \"PokemonFactory.sol\":70:2042  contract PokemonFactory {... */\n      mstore(0x40, 0x80)\n      callvalue\n      dup1\n      iszero\n      tag_1\n      jumpi\n      0x00\n      dup1\n      revert\n    tag_1:\n      pop\n      jumpi(tag_2, lt(calldatasize, 0x04))\n      shr(0xe0, calldataload(0x00))\n      dup1\n      0x2f7467b3\n      eq\n      tag_3\n      jumpi\n      dup1\n      0x5e916790\n      eq\n      tag_4\n      jumpi\n      dup1\n      0x710ebd11\n      eq\n      tag_5\n      jumpi\n      dup1\n      0xde292789\n      eq\n      tag_6\n      jumpi\n    tag_2:\n      0x00\n      dup1\n      revert\n        /* \"PokemonFactory.sol\":507:553  mapping(uint => address) public pokemonToOwner */\n    tag_3:\n      tag_7\n      0x04\n      dup1\n      calldatasize\n      sub\n      dup2\n      add\n      swap1\n      tag_8\n      swap2\n      swap1\n      tag_9\n      jump\t// in\n    tag_8:\n      tag_10\n      jump\t// in\n    tag_7:\n      mload(0x40)\n      tag_11\n      swap2\n      swap1\n      tag_12\n      jump\t// in\n    tag_11:\n      mload(0x40)\n      dup1\n      swap2\n      sub\n      swap1\n      return\n        /* \"PokemonFactory.sol\":1778:1875  function getAllPokemons() public view returns (Pokemon[] memory) {... */\n    tag_4:\n      tag_13\n      tag_14\n      jump\t// in\n    tag_13:\n      mload(0x40)\n      tag_15\n      swap2\n      swap1\n      tag_16\n      jump\t// in\n    tag_15:\n      mload(0x40)\n      dup1\n      swap2\n      sub\n      swap1\n      return\n        /* \"PokemonFactory.sol\":608:1772  function createPokemon(... */\n    tag_5:\n      tag_17\n      0x04\n      dup1\n      calldatasize\n      sub\n      dup2\n      add\n      swap1\n      tag_18\n      swap2\n      swap1\n      tag_19\n      jump\t// in\n    tag_18:\n      tag_20\n      jump\t// in\n    tag_17:\n      stop\n        /* \"PokemonFactory.sol\":1881:2040  function getResult() public pure returns (uint product, uint sum) {... */\n    tag_6:\n      tag_21\n      tag_22\n      jump\t// in\n    tag_21:\n      mload(0x40)\n      tag_23\n      swap3\n      swap2\n      swap1\n      tag_24\n      jump\t// in\n    tag_23:\n      mload(0x40)\n      dup1\n      swap2\n      sub\n      swap1\n      return\n        /* \"PokemonFactory.sol\":507:553  mapping(uint => address) public pokemonToOwner */\n    tag_10:\n      mstore(0x20, 0x01)\n      dup1\n      0x00\n      mstore\n      keccak256(0x00, 0x40)\n      0x00\n      swap2\n      pop\n      sload\n      swap1\n      0x0100\n      exp\n      swap1\n      div\n      0xffffffffffffffffffffffffffffffffffffffff\n      and\n      dup2\n      jump\t// out\n        /* \"PokemonFactory.sol\":1778:1875  function getAllPokemons() public view returns (Pokemon[] memory) {... */\n    tag_14:\n        /* \"PokemonFactory.sol\":1825:1841  Pokemon[] memory */\n      0x60\n        /* \"PokemonFactory.sol\":1860:1868  pokemons */\n      0x00\n        /* \"PokemonFactory.sol\":1853:1868  return pokemons */\n      dup1\n      sload\n      dup1\n      0x20\n      mul\n      0x20\n      add\n      mload(0x40)\n      swap1\n      dup2\n      add\n      0x40\n      mstore\n      dup1\n      swap3\n      swap2\n      swap1\n      dup2\n      dup2\n      mstore\n      0x20\n      add\n      0x00\n      swap1\n    tag_26:\n      dup3\n      dup3\n      lt\n      iszero\n      tag_27\n      jumpi\n      dup4\n      dup3\n      swap1\n      0x00\n      mstore\n      keccak256(0x00, 0x20)\n      swap1\n      0x05\n      mul\n      add\n      mload(0x40)\n      dup1\n      0xa0\n      add\n      0x40\n      mstore\n      swap1\n      dup2\n      0x00\n      dup3\n      add\n      sload\n      dup2\n      mstore\n      0x20\n      add\n      0x01\n      dup3\n      add\n      dup1\n      sload\n      tag_29\n      swap1\n      tag_30\n      jump\t// in\n    tag_29:\n      dup1\n      0x1f\n      add\n      0x20\n      dup1\n      swap2\n      div\n      mul\n      0x20\n      add\n      mload(0x40)\n      swap1\n      dup2\n      add\n      0x40\n      mstore\n      dup1\n      swap3\n      swap2\n      swap1\n      dup2\n      dup2\n      mstore\n      0x20\n      add\n      dup3\n      dup1\n      sload\n      tag_31\n      swap1\n      tag_30\n      jump\t// in\n    tag_31:\n      dup1\n      iszero\n      tag_32\n      jumpi\n      dup1\n      0x1f\n      lt\n      tag_33\n      jumpi\n      0x0100\n      dup1\n      dup4\n      sload\n      div\n      mul\n      dup4\n      mstore\n      swap2\n      0x20\n      add\n      swap2\n      jump(tag_32)\n    tag_33:\n      dup3\n      add\n      swap2\n      swap1\n      0x00\n      mstore\n      keccak256(0x00, 0x20)\n      swap1\n    tag_34:\n      dup2\n      sload\n      dup2\n      mstore\n      swap1\n      0x01\n      add\n      swap1\n      0x20\n      add\n      dup1\n      dup4\n      gt\n      tag_34\n      jumpi\n      dup3\n      swap1\n      sub\n      0x1f\n      and\n      dup3\n      add\n      swap2\n    tag_32:\n      pop\n      pop\n      pop\n      pop\n      pop\n      dup2\n      mstore\n      0x20\n      add\n      0x02\n      dup3\n      add\n      dup1\n      sload\n      dup1\n      0x20\n      mul\n      0x20\n      add\n      mload(0x40)\n      swap1\n      dup2\n      add\n      0x40\n      mstore\n      dup1\n      swap3\n      swap2\n      swap1\n      dup2\n      dup2\n      mstore\n      0x20\n      add\n      0x00\n      swap1\n    tag_35:\n      dup3\n      dup3\n      lt\n      iszero\n      tag_36\n      jumpi\n      dup4\n      dup3\n      swap1\n      0x00\n      mstore\n      keccak256(0x00, 0x20)\n      swap1\n      0x02\n      mul\n      add\n      mload(0x40)\n      dup1\n      0x40\n      add\n      0x40\n      mstore\n      swap1\n      dup2\n      0x00\n      dup3\n      add\n      dup1\n      sload\n      tag_38\n      swap1\n      tag_30\n      jump\t// in\n    tag_38:\n      dup1\n      0x1f\n      add\n      0x20\n      dup1\n      swap2\n      div\n      mul\n      0x20\n      add\n      mload(0x40)\n      swap1\n      dup2\n      add\n      0x40\n      mstore\n      dup1\n      swap3\n      swap2\n      swap1\n      dup2\n      dup2\n      mstore\n      0x20\n      add\n      dup3\n      dup1\n      sload\n      tag_39\n      swap1\n      tag_30\n      jump\t// in\n    tag_39:\n      dup1\n      iszero\n      tag_40\n      jumpi\n      dup1\n      0x1f\n      lt\n      tag_41\n      jumpi\n      0x0100\n      dup1\n      dup4\n      sload\n      div\n      mul\n      dup4\n      mstore\n      swap2\n      0x20\n      add\n      swap2\n      jump(tag_40)\n    tag_41:\n      dup3\n      add\n      swap2\n      swap1\n      0x00\n      mstore\n      keccak256(0x00, 0x20)\n      swap1\n    tag_42:\n      dup2\n      sload\n      dup2\n      mstore\n      swap1\n      0x01\n      add\n      swap1\n      0x20\n      add\n      dup1\n      dup4\n      gt\n      tag_42\n      jumpi\n      dup3\n      swap1\n      sub\n      0x1f\n      and\n      dup3\n      add\n      swap2\n    tag_40:\n      pop\n      pop\n      pop\n      pop\n      pop\n      dup2\n      mstore\n      0x20\n      add\n      0x01\n      dup3\n      add\n      dup1\n      sload\n      tag_43\n      swap1\n      tag_30\n      jump\t// in\n    tag_43:\n      dup1\n      0x1f\n      add\n      0x20\n      dup1\n      swap2\n      div\n      mul\n      0x20\n      add\n      mload(0x40)\n      swap1\n      dup2\n      add\n      0x40\n      mstore\n      dup1\n      swap3\n      swap2\n      swap1\n      dup2\n      dup2\n      mstore\n      0x20\n      add\n      dup3\n      dup1\n      sload\n      tag_44\n      swap1\n      tag_30\n      jump\t// in\n    tag_44:\n      dup1\n      iszero\n      tag_45\n      jumpi\n      dup1\n      0x1f\n      lt\n      tag_46\n      jumpi\n      0x0100\n      dup1\n      dup4\n      sload\n      div\n      mul\n      dup4\n      mstore\n      swap2\n      0x20\n      add\n      swap2\n      jump(tag_45)\n    tag_46:\n      dup3\n      add\n      swap2\n      swap1\n      0x00\n      mstore\n      keccak256(0x00, 0x20)\n      swap1\n    tag_47:\n      dup2\n      sload\n      dup2\n      mstore\n      swap1\n      0x01\n      add\n      swap1\n      0x20\n      add\n      dup1\n      dup4\n      gt\n      tag_47\n      jumpi\n      dup3\n      swap1\n      sub\n      0x1f\n      and\n      dup3\n      add\n      swap2\n    tag_45:\n      pop\n      pop\n      pop\n      pop\n      pop\n      dup2\n      mstore\n      pop\n      pop\n      dup2\n      mstore\n      0x20\n      add\n      swap1\n      0x01\n      add\n      swap1\n      jump(tag_35)\n    tag_36:\n      pop\n      pop\n      pop\n      pop\n      dup2\n      mstore\n      0x20\n      add\n      0x03\n      dup3\n      add\n      dup1\n      sload\n      dup1\n      0x20\n      mul\n      0x20\n      add\n      mload(0x40)\n      swap1\n      dup2\n      add\n      0x40\n      mstore\n      dup1\n      swap3\n      swap2\n      swap1\n      dup2\n      dup2\n      mstore\n      0x20\n      add\n      0x00\n      swap1\n    tag_48:\n      dup3\n      dup3\n      lt\n      iszero\n      tag_49\n      jumpi\n      dup4\n      dup3\n      swap1\n      0x00\n      mstore\n      keccak256(0x00, 0x20)\n      add\n      mload(0x40)\n      dup1\n      0x20\n      add\n      0x40\n      mstore\n      swap1\n      dup2\n      0x00\n      dup3\n      add\n      dup1\n      sload\n      tag_51\n      swap1\n      tag_30\n      jump\t// in\n    tag_51:\n      dup1\n      0x1f\n      add\n      0x20\n      dup1\n      swap2\n      div\n      mul\n      0x20\n      add\n      mload(0x40)\n      swap1\n      dup2\n      add\n      0x40\n      mstore\n      dup1\n      swap3\n      swap2\n      swap1\n      dup2\n      dup2\n      mstore\n      0x20\n      add\n      dup3\n      dup1\n      sload\n      tag_52\n      swap1\n      tag_30\n      jump\t// in\n    tag_52:\n      dup1\n      iszero\n      tag_53\n      jumpi\n      dup1\n      0x1f\n      lt\n      tag_54\n      jumpi\n      0x0100\n      dup1\n      dup4\n      sload\n      div\n      mul\n      dup4\n      mstore\n      swap2\n      0x20\n      add\n      swap2\n      jump(tag_53)\n    tag_54:\n      dup3\n      add\n      swap2\n      swap1\n      0x00\n      mstore\n      keccak256(0x00, 0x20)\n      swap1\n    tag_55:\n      dup2\n      sload\n      dup2\n      mstore\n      swap1\n      0x01\n      add\n      swap1\n      0x20\n      add\n      dup1\n      dup4\n      gt\n      tag_55\n      jumpi\n      dup3\n      swap1\n      sub\n      0x1f\n      and\n      dup3\n      add\n      swap2\n    tag_53:\n      pop\n      pop\n      pop\n      pop\n      pop\n      dup2\n      mstore\n      pop\n      pop\n      dup2\n      mstore\n      0x20\n      add\n      swap1\n      0x01\n      add\n      swap1\n      jump(tag_48)\n    tag_49:\n      pop\n      pop\n      pop\n      pop\n      dup2\n      mstore\n      0x20\n      add\n      0x04\n      dup3\n      add\n      dup1\n      sload\n      dup1\n      0x20\n      mul\n      0x20\n      add\n      mload(0x40)\n      swap1\n      dup2\n      add\n      0x40\n      mstore\n      dup1\n      swap3\n      swap2\n      swap1\n      dup2\n      dup2\n      mstore\n      0x20\n      add\n      0x00\n      swap1\n    tag_56:\n      dup3\n      dup3\n      lt\n      iszero\n      tag_57\n      jumpi\n      dup4\n      dup3\n      swap1\n      0x00\n      mstore\n      keccak256(0x00, 0x20)\n      add\n      mload(0x40)\n      dup1\n      0x20\n      add\n      0x40\n      mstore\n      swap1\n      dup2\n      0x00\n      dup3\n      add\n      dup1\n      sload\n      tag_59\n      swap1\n      tag_30\n      jump\t// in\n    tag_59:\n      dup1\n      0x1f\n      add\n      0x20\n      dup1\n      swap2\n      div\n      mul\n      0x20\n      add\n      mload(0x40)\n      swap1\n      dup2\n      add\n      0x40\n      mstore\n      dup1\n      swap3\n      swap2\n      swap1\n      dup2\n      dup2\n      mstore\n      0x20\n      add\n      dup3\n      dup1\n      sload\n      tag_60\n      swap1\n      tag_30\n      jump\t// in\n    tag_60:\n      dup1\n      iszero\n      tag_61\n      jumpi\n      dup1\n      0x1f\n      lt\n      tag_62\n      jumpi\n      0x0100\n      dup1\n      dup4\n      sload\n      div\n      mul\n      dup4\n      mstore\n      swap2\n      0x20\n      add\n      swap2\n      jump(tag_61)\n    tag_62:\n      dup3\n      add\n      swap2\n      swap1\n      0x00\n      mstore\n      keccak256(0x00, 0x20)\n      swap1\n    tag_63:\n      dup2\n      sload\n      dup2\n      mstore\n      swap1\n      0x01\n      add\n      swap1\n      0x20\n      add\n      dup1\n      dup4\n      gt\n      tag_63\n      jumpi\n      dup3\n      swap1\n      sub\n      0x1f\n      and\n      dup3\n      add\n      swap2\n    tag_61:\n      pop\n      pop\n      pop\n      pop\n      pop\n      dup2\n      mstore\n      pop\n      pop\n      dup2\n      mstore\n      0x20\n      add\n      swap1\n      0x01\n      add\n      swap1\n      jump(tag_56)\n    tag_57:\n      pop\n      pop\n      pop\n      pop\n      dup2\n      mstore\n      pop\n      pop\n      dup2\n      mstore\n      0x20\n      add\n      swap1\n      0x01\n      add\n      swap1\n      jump(tag_26)\n    tag_27:\n      pop\n      pop\n      pop\n      pop\n      swap1\n      pop\n        /* \"PokemonFactory.sol\":1778:1875  function getAllPokemons() public view returns (Pokemon[] memory) {... */\n      swap1\n      jump\t// out\n        /* \"PokemonFactory.sol\":608:1772  function createPokemon(... */\n    tag_20:\n        /* \"PokemonFactory.sol\":819:820  0 */\n      0x00\n        /* \"PokemonFactory.sol\":813:816  _id */\n      dup5\n        /* \"PokemonFactory.sol\":813:820  _id > 0 */\n      gt\n        /* \"PokemonFactory.sol\":805:854  require(_id > 0, \"The id must be greater than 0\") */\n      tag_65\n      jumpi\n      mload(0x40)\n      0x08c379a000000000000000000000000000000000000000000000000000000000\n      dup2\n      mstore\n      0x04\n      add\n      tag_66\n      swap1\n      tag_67\n      jump\t// in\n    tag_66:\n      mload(0x40)\n      dup1\n      swap2\n      sub\n      swap1\n      revert\n    tag_65:\n        /* \"PokemonFactory.sol\":907:908  2 */\n      0x02\n        /* \"PokemonFactory.sol\":891:896  _name */\n      dup6\n        /* \"PokemonFactory.sol\":885:904  bytes(_name).length */\n      mload\n        /* \"PokemonFactory.sol\":885:908  bytes(_name).length > 2 */\n      gt\n        /* \"PokemonFactory.sol\":864:975  require(... */\n      tag_68\n      jumpi\n      mload(0x40)\n      0x08c379a000000000000000000000000000000000000000000000000000000000\n      dup2\n      mstore\n      0x04\n      add\n      tag_69\n      swap1\n      tag_70\n      jump\t// in\n    tag_69:\n      mload(0x40)\n      dup1\n      swap2\n      sub\n      swap1\n      revert\n    tag_68:\n        /* \"PokemonFactory.sol\":986:994  pokemons */\n      0x00\n        /* \"PokemonFactory.sol\":986:1001  pokemons.push() */\n      0x01\n      dup2\n      0x01\n      dup2\n      sload\n      add\n      dup1\n      dup3\n      sstore\n      dup1\n      swap2\n      pop\n      pop\n      sub\n      swap1\n      0x00\n      mstore\n      keccak256(0x00, 0x20)\n      swap1\n      pop\n      pop\n        /* \"PokemonFactory.sol\":1046:1049  _id */\n      dup4\n        /* \"PokemonFactory.sol\":1011:1019  pokemons */\n      0x00\n        /* \"PokemonFactory.sol\":1038:1039  1 */\n      0x01\n        /* \"PokemonFactory.sol\":1020:1028  pokemons */\n      0x00\n        /* \"PokemonFactory.sol\":1020:1035  pokemons.length */\n      dup1\n      sload\n      swap1\n      pop\n        /* \"PokemonFactory.sol\":1020:1039  pokemons.length - 1 */\n      tag_72\n      swap2\n      swap1\n      tag_73\n      jump\t// in\n    tag_72:\n        /* \"PokemonFactory.sol\":1011:1040  pokemons[pokemons.length - 1] */\n      dup2\n      sload\n      dup2\n      lt\n      tag_74\n      jumpi\n      tag_75\n      tag_76\n      jump\t// in\n    tag_75:\n    tag_74:\n      swap1\n      0x00\n      mstore\n      keccak256(0x00, 0x20)\n      swap1\n      0x05\n      mul\n      add\n        /* \"PokemonFactory.sol\":1011:1043  pokemons[pokemons.length - 1].id */\n      0x00\n      add\n        /* \"PokemonFactory.sol\":1011:1049  pokemons[pokemons.length - 1].id = _id */\n      dup2\n      swap1\n      sstore\n      pop\n        /* \"PokemonFactory.sol\":1096:1101  _name */\n      dup5\n        /* \"PokemonFactory.sol\":1059:1067  pokemons */\n      0x00\n        /* \"PokemonFactory.sol\":1086:1087  1 */\n      0x01\n        /* \"PokemonFactory.sol\":1068:1076  pokemons */\n      0x00\n        /* \"PokemonFactory.sol\":1068:1083  pokemons.length */\n      dup1\n      sload\n      swap1\n      pop\n        /* \"PokemonFactory.sol\":1068:1087  pokemons.length - 1 */\n      tag_78\n      swap2\n      swap1\n      tag_73\n      jump\t// in\n    tag_78:\n        /* \"PokemonFactory.sol\":1059:1088  pokemons[pokemons.length - 1] */\n      dup2\n      sload\n      dup2\n      lt\n      tag_79\n      jumpi\n      tag_80\n      tag_76\n      jump\t// in\n    tag_80:\n    tag_79:\n      swap1\n      0x00\n      mstore\n      keccak256(0x00, 0x20)\n      swap1\n      0x05\n      mul\n      add\n        /* \"PokemonFactory.sol\":1059:1093  pokemons[pokemons.length - 1].name */\n      0x01\n      add\n        /* \"PokemonFactory.sol\":1059:1101  pokemons[pokemons.length - 1].name = _name */\n      swap1\n      dup1\n      mload\n      swap1\n      0x20\n      add\n      swap1\n      tag_82\n      swap3\n      swap2\n      swap1\n      tag_83\n      jump\t// in\n    tag_82:\n      pop\n        /* \"PokemonFactory.sol\":1117:1123  uint i */\n      0x00\n        /* \"PokemonFactory.sol\":1112:1306  for (uint i = 0; i < _ability.length; i++) {... */\n    tag_84:\n        /* \"PokemonFactory.sol\":1133:1141  _ability */\n      dup4\n        /* \"PokemonFactory.sol\":1133:1148  _ability.length */\n      mload\n        /* \"PokemonFactory.sol\":1129:1130  i */\n      dup2\n        /* \"PokemonFactory.sol\":1129:1148  i < _ability.length */\n      lt\n        /* \"PokemonFactory.sol\":1112:1306  for (uint i = 0; i < _ability.length; i++) {... */\n      iszero\n      tag_85\n      jumpi\n        /* \"PokemonFactory.sol\":1169:1177  pokemons */\n      0x00\n        /* \"PokemonFactory.sol\":1196:1197  1 */\n      0x01\n        /* \"PokemonFactory.sol\":1178:1186  pokemons */\n      0x00\n        /* \"PokemonFactory.sol\":1178:1193  pokemons.length */\n      dup1\n      sload\n      swap1\n      pop\n        /* \"PokemonFactory.sol\":1178:1197  pokemons.length - 1 */\n      tag_87\n      swap2\n      swap1\n      tag_73\n      jump\t// in\n    tag_87:\n        /* \"PokemonFactory.sol\":1169:1198  pokemons[pokemons.length - 1] */\n      dup2\n      sload\n      dup2\n      lt\n      tag_88\n      jumpi\n      tag_89\n      tag_76\n      jump\t// in\n    tag_89:\n    tag_88:\n      swap1\n      0x00\n      mstore\n      keccak256(0x00, 0x20)\n      swap1\n      0x05\n      mul\n      add\n        /* \"PokemonFactory.sol\":1169:1208  pokemons[pokemons.length - 1].abilities */\n      0x02\n      add\n        /* \"PokemonFactory.sol\":1231:1281  Ability(_ability[i].name, _ability[i].description) */\n      mload(0x40)\n      dup1\n      0x40\n      add\n      0x40\n      mstore\n      dup1\n        /* \"PokemonFactory.sol\":1239:1247  _ability */\n      dup7\n        /* \"PokemonFactory.sol\":1248:1249  i */\n      dup5\n        /* \"PokemonFactory.sol\":1239:1250  _ability[i] */\n      dup2\n      mload\n      dup2\n      lt\n      tag_91\n      jumpi\n      tag_92\n      tag_76\n      jump\t// in\n    tag_92:\n    tag_91:\n      0x20\n      mul\n      0x20\n      add\n      add\n      mload\n        /* \"PokemonFactory.sol\":1239:1255  _ability[i].name */\n      0x00\n      add\n      mload\n        /* \"PokemonFactory.sol\":1231:1281  Ability(_ability[i].name, _ability[i].description) */\n      dup2\n      mstore\n      0x20\n      add\n        /* \"PokemonFactory.sol\":1257:1265  _ability */\n      dup7\n        /* \"PokemonFactory.sol\":1266:1267  i */\n      dup5\n        /* \"PokemonFactory.sol\":1257:1268  _ability[i] */\n      dup2\n      mload\n      dup2\n      lt\n      tag_93\n      jumpi\n      tag_94\n      tag_76\n      jump\t// in\n    tag_94:\n    tag_93:\n      0x20\n      mul\n      0x20\n      add\n      add\n      mload\n        /* \"PokemonFactory.sol\":1257:1280  _ability[i].description */\n      0x20\n      add\n      mload\n        /* \"PokemonFactory.sol\":1231:1281  Ability(_ability[i].name, _ability[i].description) */\n      dup2\n      mstore\n      pop\n        /* \"PokemonFactory.sol\":1169:1295  pokemons[pokemons.length - 1].abilities.push(... */\n      swap1\n      dup1\n      0x01\n      dup2\n      sload\n      add\n      dup1\n      dup3\n      sstore\n      dup1\n      swap2\n      pop\n      pop\n      0x01\n      swap1\n      sub\n      swap1\n      0x00\n      mstore\n      keccak256(0x00, 0x20)\n      swap1\n      0x02\n      mul\n      add\n      0x00\n      swap1\n      swap2\n      swap1\n      swap2\n      swap1\n      swap2\n      pop\n      0x00\n      dup3\n      add\n      mload\n      dup2\n      0x00\n      add\n      swap1\n      dup1\n      mload\n      swap1\n      0x20\n      add\n      swap1\n      tag_96\n      swap3\n      swap2\n      swap1\n      tag_83\n      jump\t// in\n    tag_96:\n      pop\n      0x20\n      dup3\n      add\n      mload\n      dup2\n      0x01\n      add\n      swap1\n      dup1\n      mload\n      swap1\n      0x20\n      add\n      swap1\n      tag_97\n      swap3\n      swap2\n      swap1\n      tag_83\n      jump\t// in\n    tag_97:\n      pop\n      pop\n      pop\n        /* \"PokemonFactory.sol\":1150:1153  i++ */\n      dup1\n      dup1\n      tag_98\n      swap1\n      tag_99\n      jump\t// in\n    tag_98:\n      swap2\n      pop\n      pop\n        /* \"PokemonFactory.sol\":1112:1306  for (uint i = 0; i < _ability.length; i++) {... */\n      jump(tag_84)\n    tag_85:\n      pop\n        /* \"PokemonFactory.sol\":1321:1327  uint i */\n      0x00\n        /* \"PokemonFactory.sol\":1316:1444  for (uint i = 0; i < _types.length; i++) {... */\n    tag_100:\n        /* \"PokemonFactory.sol\":1337:1343  _types */\n      dup3\n        /* \"PokemonFactory.sol\":1337:1350  _types.length */\n      mload\n        /* \"PokemonFactory.sol\":1333:1334  i */\n      dup2\n        /* \"PokemonFactory.sol\":1333:1350  i < _types.length */\n      lt\n        /* \"PokemonFactory.sol\":1316:1444  for (uint i = 0; i < _types.length; i++) {... */\n      iszero\n      tag_101\n      jumpi\n        /* \"PokemonFactory.sol\":1371:1379  pokemons */\n      0x00\n        /* \"PokemonFactory.sol\":1398:1399  1 */\n      0x01\n        /* \"PokemonFactory.sol\":1380:1388  pokemons */\n      0x00\n        /* \"PokemonFactory.sol\":1380:1395  pokemons.length */\n      dup1\n      sload\n      swap1\n      pop\n        /* \"PokemonFactory.sol\":1380:1399  pokemons.length - 1 */\n      tag_103\n      swap2\n      swap1\n      tag_73\n      jump\t// in\n    tag_103:\n        /* \"PokemonFactory.sol\":1371:1400  pokemons[pokemons.length - 1] */\n      dup2\n      sload\n      dup2\n      lt\n      tag_104\n      jumpi\n      tag_105\n      tag_76\n      jump\t// in\n    tag_105:\n    tag_104:\n      swap1\n      0x00\n      mstore\n      keccak256(0x00, 0x20)\n      swap1\n      0x05\n      mul\n      add\n        /* \"PokemonFactory.sol\":1371:1406  pokemons[pokemons.length - 1].types */\n      0x03\n      add\n        /* \"PokemonFactory.sol\":1412:1432  Type(_types[i].name) */\n      mload(0x40)\n      dup1\n      0x20\n      add\n      0x40\n      mstore\n      dup1\n        /* \"PokemonFactory.sol\":1417:1423  _types */\n      dup6\n        /* \"PokemonFactory.sol\":1424:1425  i */\n      dup5\n        /* \"PokemonFactory.sol\":1417:1426  _types[i] */\n      dup2\n      mload\n      dup2\n      lt\n      tag_107\n      jumpi\n      tag_108\n      tag_76\n      jump\t// in\n    tag_108:\n    tag_107:\n      0x20\n      mul\n      0x20\n      add\n      add\n      mload\n        /* \"PokemonFactory.sol\":1417:1431  _types[i].name */\n      0x00\n      add\n      mload\n        /* \"PokemonFactory.sol\":1412:1432  Type(_types[i].name) */\n      dup2\n      mstore\n      pop\n        /* \"PokemonFactory.sol\":1371:1433  pokemons[pokemons.length - 1].types.push(Type(_types[i].name)) */\n      swap1\n      dup1\n      0x01\n      dup2\n      sload\n      add\n      dup1\n      dup3\n      sstore\n      dup1\n      swap2\n      pop\n      pop\n      0x01\n      swap1\n      sub\n      swap1\n      0x00\n      mstore\n      keccak256(0x00, 0x20)\n      add\n      0x00\n      swap1\n      swap2\n      swap1\n      swap2\n      swap1\n      swap2\n      pop\n      0x00\n      dup3\n      add\n      mload\n      dup2\n      0x00\n      add\n      swap1\n      dup1\n      mload\n      swap1\n      0x20\n      add\n      swap1\n      tag_110\n      swap3\n      swap2\n      swap1\n      tag_83\n      jump\t// in\n    tag_110:\n      pop\n      pop\n      pop\n        /* \"PokemonFactory.sol\":1352:1355  i++ */\n      dup1\n      dup1\n      tag_111\n      swap1\n      tag_99\n      jump\t// in\n    tag_111:\n      swap2\n      pop\n      pop\n        /* \"PokemonFactory.sol\":1316:1444  for (uint i = 0; i < _types.length; i++) {... */\n      jump(tag_100)\n    tag_101:\n      pop\n        /* \"PokemonFactory.sol\":1459:1465  uint i */\n      0x00\n        /* \"PokemonFactory.sol\":1454:1631  for (uint i = 0; i < _weaknesses.length; i++) {... */\n    tag_112:\n        /* \"PokemonFactory.sol\":1475:1486  _weaknesses */\n      dup2\n        /* \"PokemonFactory.sol\":1475:1493  _weaknesses.length */\n      mload\n        /* \"PokemonFactory.sol\":1471:1472  i */\n      dup2\n        /* \"PokemonFactory.sol\":1471:1493  i < _weaknesses.length */\n      lt\n        /* \"PokemonFactory.sol\":1454:1631  for (uint i = 0; i < _weaknesses.length; i++) {... */\n      iszero\n      tag_113\n      jumpi\n        /* \"PokemonFactory.sol\":1514:1522  pokemons */\n      0x00\n        /* \"PokemonFactory.sol\":1541:1542  1 */\n      0x01\n        /* \"PokemonFactory.sol\":1523:1531  pokemons */\n      0x00\n        /* \"PokemonFactory.sol\":1523:1538  pokemons.length */\n      dup1\n      sload\n      swap1\n      pop\n        /* \"PokemonFactory.sol\":1523:1542  pokemons.length - 1 */\n      tag_115\n      swap2\n      swap1\n      tag_73\n      jump\t// in\n    tag_115:\n        /* \"PokemonFactory.sol\":1514:1543  pokemons[pokemons.length - 1] */\n      dup2\n      sload\n      dup2\n      lt\n      tag_116\n      jumpi\n      tag_117\n      tag_76\n      jump\t// in\n    tag_117:\n    tag_116:\n      swap1\n      0x00\n      mstore\n      keccak256(0x00, 0x20)\n      swap1\n      0x05\n      mul\n      add\n        /* \"PokemonFactory.sol\":1514:1554  pokemons[pokemons.length - 1].weaknesses */\n      0x04\n      add\n        /* \"PokemonFactory.sol\":1577:1606  Weakness(_weaknesses[i].name) */\n      mload(0x40)\n      dup1\n      0x20\n      add\n      0x40\n      mstore\n      dup1\n        /* \"PokemonFactory.sol\":1586:1597  _weaknesses */\n      dup5\n        /* \"PokemonFactory.sol\":1598:1599  i */\n      dup5\n        /* \"PokemonFactory.sol\":1586:1600  _weaknesses[i] */\n      dup2\n      mload\n      dup2\n      lt\n      tag_119\n      jumpi\n      tag_120\n      tag_76\n      jump\t// in\n    tag_120:\n    tag_119:\n      0x20\n      mul\n      0x20\n      add\n      add\n      mload\n        /* \"PokemonFactory.sol\":1586:1605  _weaknesses[i].name */\n      0x00\n      add\n      mload\n        /* \"PokemonFactory.sol\":1577:1606  Weakness(_weaknesses[i].name) */\n      dup2\n      mstore\n      pop\n        /* \"PokemonFactory.sol\":1514:1620  pokemons[pokemons.length - 1].weaknesses.push(... */\n      swap1\n      dup1\n      0x01\n      dup2\n      sload\n      add\n      dup1\n      dup3\n      sstore\n      dup1\n      swap2\n      pop\n      pop\n      0x01\n      swap1\n      sub\n      swap1\n      0x00\n      mstore\n      keccak256(0x00, 0x20)\n      add\n      0x00\n      swap1\n      swap2\n      swap1\n      swap2\n      swap1\n      swap2\n      pop\n      0x00\n      dup3\n      add\n      mload\n      dup2\n      0x00\n      add\n      swap1\n      dup1\n      mload\n      swap1\n      0x20\n      add\n      swap1\n      tag_122\n      swap3\n      swap2\n      swap1\n      tag_83\n      jump\t// in\n    tag_122:\n      pop\n      pop\n      pop\n        /* \"PokemonFactory.sol\":1495:1498  i++ */\n      dup1\n      dup1\n      tag_123\n      swap1\n      tag_99\n      jump\t// in\n    tag_123:\n      swap2\n      pop\n      pop\n        /* \"PokemonFactory.sol\":1454:1631  for (uint i = 0; i < _weaknesses.length; i++) {... */\n      jump(tag_112)\n    tag_113:\n      pop\n        /* \"PokemonFactory.sol\":1663:1673  msg.sender */\n      caller\n        /* \"PokemonFactory.sol\":1641:1655  pokemonToOwner */\n      0x01\n        /* \"PokemonFactory.sol\":1641:1660  pokemonToOwner[_id] */\n      0x00\n        /* \"PokemonFactory.sol\":1656:1659  _id */\n      dup7\n        /* \"PokemonFactory.sol\":1641:1660  pokemonToOwner[_id] */\n      dup2\n      mstore\n      0x20\n      add\n      swap1\n      dup2\n      mstore\n      0x20\n      add\n      0x00\n      keccak256\n      0x00\n        /* \"PokemonFactory.sol\":1641:1673  pokemonToOwner[_id] = msg.sender */\n      0x0100\n      exp\n      dup2\n      sload\n      dup2\n      0xffffffffffffffffffffffffffffffffffffffff\n      mul\n      not\n      and\n      swap1\n      dup4\n      0xffffffffffffffffffffffffffffffffffffffff\n      and\n      mul\n      or\n      swap1\n      sstore\n      pop\n        /* \"PokemonFactory.sol\":1683:1700  ownerPokemonCount */\n      0x02\n        /* \"PokemonFactory.sol\":1683:1712  ownerPokemonCount[msg.sender] */\n      0x00\n        /* \"PokemonFactory.sol\":1701:1711  msg.sender */\n      caller\n        /* \"PokemonFactory.sol\":1683:1712  ownerPokemonCount[msg.sender] */\n      0xffffffffffffffffffffffffffffffffffffffff\n      and\n      0xffffffffffffffffffffffffffffffffffffffff\n      and\n      dup2\n      mstore\n      0x20\n      add\n      swap1\n      dup2\n      mstore\n      0x20\n      add\n      0x00\n      keccak256\n      0x00\n        /* \"PokemonFactory.sol\":1683:1714  ownerPokemonCount[msg.sender]++ */\n      dup2\n      sload\n      dup1\n      swap3\n      swap2\n      swap1\n      tag_124\n      swap1\n      tag_99\n      jump\t// in\n    tag_124:\n      swap2\n      swap1\n      pop\n      sstore\n      pop\n        /* \"PokemonFactory.sol\":1738:1765  eventNewPokemon(_id, _name) */\n      0x570a6686f18a686cdda2f62a7954c6bd78c21f4b33df90b0a5479f5ae8a9a8\n        /* \"PokemonFactory.sol\":1754:1757  _id */\n      dup5\n        /* \"PokemonFactory.sol\":1759:1764  _name */\n      dup7\n        /* \"PokemonFactory.sol\":1738:1765  eventNewPokemon(_id, _name) */\n      mload(0x40)\n      tag_125\n      swap3\n      swap2\n      swap1\n      tag_126\n      jump\t// in\n    tag_125:\n      mload(0x40)\n      dup1\n      swap2\n      sub\n      swap1\n      log1\n        /* \"PokemonFactory.sol\":608:1772  function createPokemon(... */\n      pop\n      pop\n      pop\n      pop\n      pop\n      jump\t// out\n        /* \"PokemonFactory.sol\":1881:2040  function getResult() public pure returns (uint product, uint sum) {... */\n    tag_22:\n        /* \"PokemonFactory.sol\":1923:1935  uint product */\n      0x00\n        /* \"PokemonFactory.sol\":1937:1945  uint sum */\n      dup1\n        /* \"PokemonFactory.sol\":1957:1963  uint a */\n      0x00\n        /* \"PokemonFactory.sol\":1966:1967  1 */\n      0x01\n        /* \"PokemonFactory.sol\":1957:1967  uint a = 1 */\n      swap1\n      pop\n        /* \"PokemonFactory.sol\":1977:1983  uint b */\n      0x00\n        /* \"PokemonFactory.sol\":1986:1987  2 */\n      0x02\n        /* \"PokemonFactory.sol\":1977:1987  uint b = 2 */\n      swap1\n      pop\n        /* \"PokemonFactory.sol\":2011:2012  b */\n      dup1\n        /* \"PokemonFactory.sol\":2007:2008  a */\n      dup3\n        /* \"PokemonFactory.sol\":2007:2012  a * b */\n      tag_128\n      swap2\n      swap1\n      tag_129\n      jump\t// in\n    tag_128:\n        /* \"PokemonFactory.sol\":1997:2012  product = a * b */\n      swap4\n      pop\n        /* \"PokemonFactory.sol\":2032:2033  b */\n      dup1\n        /* \"PokemonFactory.sol\":2028:2029  a */\n      dup3\n        /* \"PokemonFactory.sol\":2028:2033  a + b */\n      tag_130\n      swap2\n      swap1\n      tag_131\n      jump\t// in\n    tag_130:\n        /* \"PokemonFactory.sol\":2022:2033  sum = a + b */\n      swap3\n      pop\n        /* \"PokemonFactory.sol\":1947:2040  {... */\n      pop\n      pop\n        /* \"PokemonFactory.sol\":1881:2040  function getResult() public pure returns (uint product, uint sum) {... */\n      swap1\n      swap2\n      jump\t// out\n    tag_83:\n      dup3\n      dup1\n      sload\n      tag_132\n      swap1\n      tag_30\n      jump\t// in\n    tag_132:\n      swap1\n      0x00\n      mstore\n      keccak256(0x00, 0x20)\n      swap1\n      0x1f\n      add\n      0x20\n      swap1\n      div\n      dup2\n      add\n      swap3\n      dup3\n      tag_134\n      jumpi\n      0x00\n      dup6\n      sstore\n      jump(tag_133)\n    tag_134:\n      dup3\n      0x1f\n      lt\n      tag_135\n      jumpi\n      dup1\n      mload\n      not(0xff)\n      and\n      dup4\n      dup1\n      add\n      or\n      dup6\n      sstore\n      jump(tag_133)\n    tag_135:\n      dup3\n      dup1\n      add\n      0x01\n      add\n      dup6\n      sstore\n      dup3\n      iszero\n      tag_133\n      jumpi\n      swap2\n      dup3\n      add\n    tag_136:\n      dup3\n      dup2\n      gt\n      iszero\n      tag_137\n      jumpi\n      dup3\n      mload\n      dup3\n      sstore\n      swap2\n      0x20\n      add\n      swap2\n      swap1\n      0x01\n      add\n      swap1\n      jump(tag_136)\n    tag_137:\n    tag_133:\n      pop\n      swap1\n      pop\n      tag_138\n      swap2\n      swap1\n      tag_139\n      jump\t// in\n    tag_138:\n      pop\n      swap1\n      jump\t// out\n    tag_139:\n    tag_140:\n      dup1\n      dup3\n      gt\n      iszero\n      tag_141\n      jumpi\n      0x00\n      dup2\n      0x00\n      swap1\n      sstore\n      pop\n      0x01\n      add\n      jump(tag_140)\n    tag_141:\n      pop\n      swap1\n      jump\t// out\n        /* \"#utility.yul\":46:1042   */\n    tag_143:\n        /* \"#utility.yul\":165:170   */\n      0x00\n        /* \"#utility.yul\":190:294   */\n      tag_145\n        /* \"#utility.yul\":206:293   */\n      tag_146\n        /* \"#utility.yul\":286:292   */\n      dup5\n        /* \"#utility.yul\":206:293   */\n      tag_147\n      jump\t// in\n    tag_146:\n        /* \"#utility.yul\":190:294   */\n      tag_148\n      jump\t// in\n    tag_145:\n        /* \"#utility.yul\":181:294   */\n      swap1\n      pop\n        /* \"#utility.yul\":314:319   */\n      dup1\n        /* \"#utility.yul\":343:349   */\n      dup4\n        /* \"#utility.yul\":336:341   */\n      dup3\n        /* \"#utility.yul\":329:350   */\n      mstore\n        /* \"#utility.yul\":377:381   */\n      0x20\n        /* \"#utility.yul\":370:375   */\n      dup3\n        /* \"#utility.yul\":366:382   */\n      add\n        /* \"#utility.yul\":359:382   */\n      swap1\n      pop\n        /* \"#utility.yul\":403:409   */\n      dup3\n        /* \"#utility.yul\":453:456   */\n      dup6\n        /* \"#utility.yul\":445:449   */\n      0x20\n        /* \"#utility.yul\":437:443   */\n      dup7\n        /* \"#utility.yul\":433:450   */\n      mul\n        /* \"#utility.yul\":428:431   */\n      dup3\n        /* \"#utility.yul\":424:451   */\n      add\n        /* \"#utility.yul\":421:457   */\n      gt\n        /* \"#utility.yul\":418:561   */\n      iszero\n      tag_149\n      jumpi\n        /* \"#utility.yul\":472:551   */\n      tag_150\n      tag_151\n      jump\t// in\n    tag_150:\n        /* \"#utility.yul\":418:561   */\n    tag_149:\n        /* \"#utility.yul\":585:586   */\n      0x00\n        /* \"#utility.yul\":570:1036   */\n    tag_152:\n        /* \"#utility.yul\":595:601   */\n      dup6\n        /* \"#utility.yul\":592:593   */\n      dup2\n        /* \"#utility.yul\":589:602   */\n      lt\n        /* \"#utility.yul\":570:1036   */\n      iszero\n      tag_154\n      jumpi\n        /* \"#utility.yul\":677:680   */\n      dup2\n        /* \"#utility.yul\":664:681   */\n      calldataload\n        /* \"#utility.yul\":713:731   */\n      0xffffffffffffffff\n        /* \"#utility.yul\":700:711   */\n      dup2\n        /* \"#utility.yul\":697:732   */\n      gt\n        /* \"#utility.yul\":694:816   */\n      iszero\n      tag_155\n      jumpi\n        /* \"#utility.yul\":735:814   */\n      tag_156\n      tag_157\n      jump\t// in\n    tag_156:\n        /* \"#utility.yul\":694:816   */\n    tag_155:\n        /* \"#utility.yul\":859:870   */\n      dup1\n        /* \"#utility.yul\":851:857   */\n      dup7\n        /* \"#utility.yul\":847:871   */\n      add\n        /* \"#utility.yul\":897:957   */\n      tag_158\n        /* \"#utility.yul\":953:956   */\n      dup10\n        /* \"#utility.yul\":941:951   */\n      dup3\n        /* \"#utility.yul\":897:957   */\n      tag_159\n      jump\t// in\n    tag_158:\n        /* \"#utility.yul\":892:895   */\n      dup6\n        /* \"#utility.yul\":885:958   */\n      mstore\n        /* \"#utility.yul\":987:991   */\n      0x20\n        /* \"#utility.yul\":982:985   */\n      dup6\n        /* \"#utility.yul\":978:992   */\n      add\n        /* \"#utility.yul\":971:992   */\n      swap5\n      pop\n        /* \"#utility.yul\":1021:1025   */\n      0x20\n        /* \"#utility.yul\":1016:1019   */\n      dup5\n        /* \"#utility.yul\":1012:1026   */\n      add\n        /* \"#utility.yul\":1005:1026   */\n      swap4\n      pop\n        /* \"#utility.yul\":630:1036   */\n      pop\n      pop\n        /* \"#utility.yul\":617:618   */\n      0x01\n        /* \"#utility.yul\":614:615   */\n      dup2\n        /* \"#utility.yul\":610:619   */\n      add\n        /* \"#utility.yul\":605:619   */\n      swap1\n      pop\n        /* \"#utility.yul\":570:1036   */\n      jump(tag_152)\n    tag_154:\n        /* \"#utility.yul\":574:588   */\n      pop\n        /* \"#utility.yul\":171:1042   */\n      pop\n      pop\n        /* \"#utility.yul\":46:1042   */\n      swap4\n      swap3\n      pop\n      pop\n      pop\n      jump\t// out\n        /* \"#utility.yul\":1084:2071   */\n    tag_160:\n        /* \"#utility.yul\":1200:1205   */\n      0x00\n        /* \"#utility.yul\":1225:1326   */\n      tag_162\n        /* \"#utility.yul\":1241:1325   */\n      tag_163\n        /* \"#utility.yul\":1318:1324   */\n      dup5\n        /* \"#utility.yul\":1241:1325   */\n      tag_164\n      jump\t// in\n    tag_163:\n        /* \"#utility.yul\":1225:1326   */\n      tag_148\n      jump\t// in\n    tag_162:\n        /* \"#utility.yul\":1216:1326   */\n      swap1\n      pop\n        /* \"#utility.yul\":1346:1351   */\n      dup1\n        /* \"#utility.yul\":1375:1381   */\n      dup4\n        /* \"#utility.yul\":1368:1373   */\n      dup3\n        /* \"#utility.yul\":1361:1382   */\n      mstore\n        /* \"#utility.yul\":1409:1413   */\n      0x20\n        /* \"#utility.yul\":1402:1407   */\n      dup3\n        /* \"#utility.yul\":1398:1414   */\n      add\n        /* \"#utility.yul\":1391:1414   */\n      swap1\n      pop\n        /* \"#utility.yul\":1435:1441   */\n      dup3\n        /* \"#utility.yul\":1485:1488   */\n      dup6\n        /* \"#utility.yul\":1477:1481   */\n      0x20\n        /* \"#utility.yul\":1469:1475   */\n      dup7\n        /* \"#utility.yul\":1465:1482   */\n      mul\n        /* \"#utility.yul\":1460:1463   */\n      dup3\n        /* \"#utility.yul\":1456:1483   */\n      add\n        /* \"#utility.yul\":1453:1489   */\n      gt\n        /* \"#utility.yul\":1450:1593   */\n      iszero\n      tag_165\n      jumpi\n        /* \"#utility.yul\":1504:1583   */\n      tag_166\n      tag_151\n      jump\t// in\n    tag_166:\n        /* \"#utility.yul\":1450:1593   */\n    tag_165:\n        /* \"#utility.yul\":1617:1618   */\n      0x00\n        /* \"#utility.yul\":1602:2065   */\n    tag_167:\n        /* \"#utility.yul\":1627:1633   */\n      dup6\n        /* \"#utility.yul\":1624:1625   */\n      dup2\n        /* \"#utility.yul\":1621:1634   */\n      lt\n        /* \"#utility.yul\":1602:2065   */\n      iszero\n      tag_169\n      jumpi\n        /* \"#utility.yul\":1709:1712   */\n      dup2\n        /* \"#utility.yul\":1696:1713   */\n      calldataload\n        /* \"#utility.yul\":1745:1763   */\n      0xffffffffffffffff\n        /* \"#utility.yul\":1732:1743   */\n      dup2\n        /* \"#utility.yul\":1729:1764   */\n      gt\n        /* \"#utility.yul\":1726:1848   */\n      iszero\n      tag_170\n      jumpi\n        /* \"#utility.yul\":1767:1846   */\n      tag_171\n      tag_157\n      jump\t// in\n    tag_171:\n        /* \"#utility.yul\":1726:1848   */\n    tag_170:\n        /* \"#utility.yul\":1891:1902   */\n      dup1\n        /* \"#utility.yul\":1883:1889   */\n      dup7\n        /* \"#utility.yul\":1879:1903   */\n      add\n        /* \"#utility.yul\":1929:1986   */\n      tag_172\n        /* \"#utility.yul\":1982:1985   */\n      dup10\n        /* \"#utility.yul\":1970:1980   */\n      dup3\n        /* \"#utility.yul\":1929:1986   */\n      tag_173\n      jump\t// in\n    tag_172:\n        /* \"#utility.yul\":1924:1927   */\n      dup6\n        /* \"#utility.yul\":1917:1987   */\n      mstore\n        /* \"#utility.yul\":2016:2020   */\n      0x20\n        /* \"#utility.yul\":2011:2014   */\n      dup6\n        /* \"#utility.yul\":2007:2021   */\n      add\n        /* \"#utility.yul\":2000:2021   */\n      swap5\n      pop\n        /* \"#utility.yul\":2050:2054   */\n      0x20\n        /* \"#utility.yul\":2045:2048   */\n      dup5\n        /* \"#utility.yul\":2041:2055   */\n      add\n        /* \"#utility.yul\":2034:2055   */\n      swap4\n      pop\n        /* \"#utility.yul\":1662:2065   */\n      pop\n      pop\n        /* \"#utility.yul\":1649:1650   */\n      0x01\n        /* \"#utility.yul\":1646:1647   */\n      dup2\n        /* \"#utility.yul\":1642:1651   */\n      add\n        /* \"#utility.yul\":1637:1651   */\n      swap1\n      pop\n        /* \"#utility.yul\":1602:2065   */\n      jump(tag_167)\n    tag_169:\n        /* \"#utility.yul\":1606:1620   */\n      pop\n        /* \"#utility.yul\":1206:2071   */\n      pop\n      pop\n        /* \"#utility.yul\":1084:2071   */\n      swap4\n      swap3\n      pop\n      pop\n      pop\n      jump\t// out\n        /* \"#utility.yul\":2117:3116   */\n    tag_174:\n        /* \"#utility.yul\":2237:2242   */\n      0x00\n        /* \"#utility.yul\":2262:2367   */\n      tag_176\n        /* \"#utility.yul\":2278:2366   */\n      tag_177\n        /* \"#utility.yul\":2359:2365   */\n      dup5\n        /* \"#utility.yul\":2278:2366   */\n      tag_178\n      jump\t// in\n    tag_177:\n        /* \"#utility.yul\":2262:2367   */\n      tag_148\n      jump\t// in\n    tag_176:\n        /* \"#utility.yul\":2253:2367   */\n      swap1\n      pop\n        /* \"#utility.yul\":2387:2392   */\n      dup1\n        /* \"#utility.yul\":2416:2422   */\n      dup4\n        /* \"#utility.yul\":2409:2414   */\n      dup3\n        /* \"#utility.yul\":2402:2423   */\n      mstore\n        /* \"#utility.yul\":2450:2454   */\n      0x20\n        /* \"#utility.yul\":2443:2448   */\n      dup3\n        /* \"#utility.yul\":2439:2455   */\n      add\n        /* \"#utility.yul\":2432:2455   */\n      swap1\n      pop\n        /* \"#utility.yul\":2476:2482   */\n      dup3\n        /* \"#utility.yul\":2526:2529   */\n      dup6\n        /* \"#utility.yul\":2518:2522   */\n      0x20\n        /* \"#utility.yul\":2510:2516   */\n      dup7\n        /* \"#utility.yul\":2506:2523   */\n      mul\n        /* \"#utility.yul\":2501:2504   */\n      dup3\n        /* \"#utility.yul\":2497:2524   */\n      add\n        /* \"#utility.yul\":2494:2530   */\n      gt\n        /* \"#utility.yul\":2491:2634   */\n      iszero\n      tag_179\n      jumpi\n        /* \"#utility.yul\":2545:2624   */\n      tag_180\n      tag_151\n      jump\t// in\n    tag_180:\n        /* \"#utility.yul\":2491:2634   */\n    tag_179:\n        /* \"#utility.yul\":2658:2659   */\n      0x00\n        /* \"#utility.yul\":2643:3110   */\n    tag_181:\n        /* \"#utility.yul\":2668:2674   */\n      dup6\n        /* \"#utility.yul\":2665:2666   */\n      dup2\n        /* \"#utility.yul\":2662:2675   */\n      lt\n        /* \"#utility.yul\":2643:3110   */\n      iszero\n      tag_183\n      jumpi\n        /* \"#utility.yul\":2750:2753   */\n      dup2\n        /* \"#utility.yul\":2737:2754   */\n      calldataload\n        /* \"#utility.yul\":2786:2804   */\n      0xffffffffffffffff\n        /* \"#utility.yul\":2773:2784   */\n      dup2\n        /* \"#utility.yul\":2770:2805   */\n      gt\n        /* \"#utility.yul\":2767:2889   */\n      iszero\n      tag_184\n      jumpi\n        /* \"#utility.yul\":2808:2887   */\n      tag_185\n      tag_157\n      jump\t// in\n    tag_185:\n        /* \"#utility.yul\":2767:2889   */\n    tag_184:\n        /* \"#utility.yul\":2932:2943   */\n      dup1\n        /* \"#utility.yul\":2924:2930   */\n      dup7\n        /* \"#utility.yul\":2920:2944   */\n      add\n        /* \"#utility.yul\":2970:3031   */\n      tag_186\n        /* \"#utility.yul\":3027:3030   */\n      dup10\n        /* \"#utility.yul\":3015:3025   */\n      dup3\n        /* \"#utility.yul\":2970:3031   */\n      tag_187\n      jump\t// in\n    tag_186:\n        /* \"#utility.yul\":2965:2968   */\n      dup6\n        /* \"#utility.yul\":2958:3032   */\n      mstore\n        /* \"#utility.yul\":3061:3065   */\n      0x20\n        /* \"#utility.yul\":3056:3059   */\n      dup6\n        /* \"#utility.yul\":3052:3066   */\n      add\n        /* \"#utility.yul\":3045:3066   */\n      swap5\n      pop\n        /* \"#utility.yul\":3095:3099   */\n      0x20\n        /* \"#utility.yul\":3090:3093   */\n      dup5\n        /* \"#utility.yul\":3086:3100   */\n      add\n        /* \"#utility.yul\":3079:3100   */\n      swap4\n      pop\n        /* \"#utility.yul\":2703:3110   */\n      pop\n      pop\n        /* \"#utility.yul\":2690:2691   */\n      0x01\n        /* \"#utility.yul\":2687:2688   */\n      dup2\n        /* \"#utility.yul\":2683:2692   */\n      add\n        /* \"#utility.yul\":2678:2692   */\n      swap1\n      pop\n        /* \"#utility.yul\":2643:3110   */\n      jump(tag_181)\n    tag_183:\n        /* \"#utility.yul\":2647:2661   */\n      pop\n        /* \"#utility.yul\":2243:3116   */\n      pop\n      pop\n        /* \"#utility.yul\":2117:3116   */\n      swap4\n      swap3\n      pop\n      pop\n      pop\n      jump\t// out\n        /* \"#utility.yul\":3122:3534   */\n    tag_188:\n        /* \"#utility.yul\":3200:3205   */\n      0x00\n        /* \"#utility.yul\":3225:3291   */\n      tag_190\n        /* \"#utility.yul\":3241:3290   */\n      tag_191\n        /* \"#utility.yul\":3283:3289   */\n      dup5\n        /* \"#utility.yul\":3241:3290   */\n      tag_192\n      jump\t// in\n    tag_191:\n        /* \"#utility.yul\":3225:3291   */\n      tag_148\n      jump\t// in\n    tag_190:\n        /* \"#utility.yul\":3216:3291   */\n      swap1\n      pop\n        /* \"#utility.yul\":3314:3320   */\n      dup3\n        /* \"#utility.yul\":3307:3312   */\n      dup2\n        /* \"#utility.yul\":3300:3321   */\n      mstore\n        /* \"#utility.yul\":3352:3356   */\n      0x20\n        /* \"#utility.yul\":3345:3350   */\n      dup2\n        /* \"#utility.yul\":3341:3357   */\n      add\n        /* \"#utility.yul\":3390:3393   */\n      dup5\n        /* \"#utility.yul\":3381:3387   */\n      dup5\n        /* \"#utility.yul\":3376:3379   */\n      dup5\n        /* \"#utility.yul\":3372:3388   */\n      add\n        /* \"#utility.yul\":3369:3394   */\n      gt\n        /* \"#utility.yul\":3366:3478   */\n      iszero\n      tag_193\n      jumpi\n        /* \"#utility.yul\":3397:3476   */\n      tag_194\n      tag_195\n      jump\t// in\n    tag_194:\n        /* \"#utility.yul\":3366:3478   */\n    tag_193:\n        /* \"#utility.yul\":3487:3528   */\n      tag_196\n        /* \"#utility.yul\":3521:3527   */\n      dup5\n        /* \"#utility.yul\":3516:3519   */\n      dup3\n        /* \"#utility.yul\":3511:3514   */\n      dup6\n        /* \"#utility.yul\":3487:3528   */\n      tag_197\n      jump\t// in\n    tag_196:\n        /* \"#utility.yul\":3206:3534   */\n      pop\n        /* \"#utility.yul\":3122:3534   */\n      swap4\n      swap3\n      pop\n      pop\n      pop\n      jump\t// out\n        /* \"#utility.yul\":3579:3995   */\n    tag_198:\n        /* \"#utility.yul\":3673:3678   */\n      0x00\n        /* \"#utility.yul\":3722:3725   */\n      dup3\n        /* \"#utility.yul\":3715:3719   */\n      0x1f\n        /* \"#utility.yul\":3707:3713   */\n      dup4\n        /* \"#utility.yul\":3703:3720   */\n      add\n        /* \"#utility.yul\":3699:3726   */\n      slt\n        /* \"#utility.yul\":3689:3811   */\n      tag_200\n      jumpi\n        /* \"#utility.yul\":3730:3809   */\n      tag_201\n      tag_157\n      jump\t// in\n    tag_201:\n        /* \"#utility.yul\":3689:3811   */\n    tag_200:\n        /* \"#utility.yul\":3847:3853   */\n      dup2\n        /* \"#utility.yul\":3834:3854   */\n      calldataload\n        /* \"#utility.yul\":3872:3989   */\n      tag_202\n        /* \"#utility.yul\":3985:3988   */\n      dup5\n        /* \"#utility.yul\":3977:3983   */\n      dup3\n        /* \"#utility.yul\":3970:3974   */\n      0x20\n        /* \"#utility.yul\":3962:3968   */\n      dup7\n        /* \"#utility.yul\":3958:3975   */\n      add\n        /* \"#utility.yul\":3872:3989   */\n      tag_143\n      jump\t// in\n    tag_202:\n        /* \"#utility.yul\":3863:3989   */\n      swap2\n      pop\n        /* \"#utility.yul\":3679:3995   */\n      pop\n        /* \"#utility.yul\":3579:3995   */\n      swap3\n      swap2\n      pop\n      pop\n      jump\t// out\n        /* \"#utility.yul\":4037:4447   */\n    tag_203:\n        /* \"#utility.yul\":4128:4133   */\n      0x00\n        /* \"#utility.yul\":4177:4180   */\n      dup3\n        /* \"#utility.yul\":4170:4174   */\n      0x1f\n        /* \"#utility.yul\":4162:4168   */\n      dup4\n        /* \"#utility.yul\":4158:4175   */\n      add\n        /* \"#utility.yul\":4154:4181   */\n      slt\n        /* \"#utility.yul\":4144:4266   */\n      tag_205\n      jumpi\n        /* \"#utility.yul\":4185:4264   */\n      tag_206\n      tag_157\n      jump\t// in\n    tag_206:\n        /* \"#utility.yul\":4144:4266   */\n    tag_205:\n        /* \"#utility.yul\":4302:4308   */\n      dup2\n        /* \"#utility.yul\":4289:4309   */\n      calldataload\n        /* \"#utility.yul\":4327:4441   */\n      tag_207\n        /* \"#utility.yul\":4437:4440   */\n      dup5\n        /* \"#utility.yul\":4429:4435   */\n      dup3\n        /* \"#utility.yul\":4422:4426   */\n      0x20\n        /* \"#utility.yul\":4414:4420   */\n      dup7\n        /* \"#utility.yul\":4410:4427   */\n      add\n        /* \"#utility.yul\":4327:4441   */\n      tag_160\n      jump\t// in\n    tag_207:\n        /* \"#utility.yul\":4318:4441   */\n      swap2\n      pop\n        /* \"#utility.yul\":4134:4447   */\n      pop\n        /* \"#utility.yul\":4037:4447   */\n      swap3\n      swap2\n      pop\n      pop\n      jump\t// out\n        /* \"#utility.yul\":4493:4911   */\n    tag_208:\n        /* \"#utility.yul\":4588:4593   */\n      0x00\n        /* \"#utility.yul\":4637:4640   */\n      dup3\n        /* \"#utility.yul\":4630:4634   */\n      0x1f\n        /* \"#utility.yul\":4622:4628   */\n      dup4\n        /* \"#utility.yul\":4618:4635   */\n      add\n        /* \"#utility.yul\":4614:4641   */\n      slt\n        /* \"#utility.yul\":4604:4726   */\n      tag_210\n      jumpi\n        /* \"#utility.yul\":4645:4724   */\n      tag_211\n      tag_157\n      jump\t// in\n    tag_211:\n        /* \"#utility.yul\":4604:4726   */\n    tag_210:\n        /* \"#utility.yul\":4762:4768   */\n      dup2\n        /* \"#utility.yul\":4749:4769   */\n      calldataload\n        /* \"#utility.yul\":4787:4905   */\n      tag_212\n        /* \"#utility.yul\":4901:4904   */\n      dup5\n        /* \"#utility.yul\":4893:4899   */\n      dup3\n        /* \"#utility.yul\":4886:4890   */\n      0x20\n        /* \"#utility.yul\":4878:4884   */\n      dup7\n        /* \"#utility.yul\":4874:4891   */\n      add\n        /* \"#utility.yul\":4787:4905   */\n      tag_174\n      jump\t// in\n    tag_212:\n        /* \"#utility.yul\":4778:4905   */\n      swap2\n      pop\n        /* \"#utility.yul\":4594:4911   */\n      pop\n        /* \"#utility.yul\":4493:4911   */\n      swap3\n      swap2\n      pop\n      pop\n      jump\t// out\n        /* \"#utility.yul\":4931:5271   */\n    tag_213:\n        /* \"#utility.yul\":4987:4992   */\n      0x00\n        /* \"#utility.yul\":5036:5039   */\n      dup3\n        /* \"#utility.yul\":5029:5033   */\n      0x1f\n        /* \"#utility.yul\":5021:5027   */\n      dup4\n        /* \"#utility.yul\":5017:5034   */\n      add\n        /* \"#utility.yul\":5013:5040   */\n      slt\n        /* \"#utility.yul\":5003:5125   */\n      tag_215\n      jumpi\n        /* \"#utility.yul\":5044:5123   */\n      tag_216\n      tag_157\n      jump\t// in\n    tag_216:\n        /* \"#utility.yul\":5003:5125   */\n    tag_215:\n        /* \"#utility.yul\":5161:5167   */\n      dup2\n        /* \"#utility.yul\":5148:5168   */\n      calldataload\n        /* \"#utility.yul\":5186:5265   */\n      tag_217\n        /* \"#utility.yul\":5261:5264   */\n      dup5\n        /* \"#utility.yul\":5253:5259   */\n      dup3\n        /* \"#utility.yul\":5246:5250   */\n      0x20\n        /* \"#utility.yul\":5238:5244   */\n      dup7\n        /* \"#utility.yul\":5234:5251   */\n      add\n        /* \"#utility.yul\":5186:5265   */\n      tag_188\n      jump\t// in\n    tag_217:\n        /* \"#utility.yul\":5177:5265   */\n      swap2\n      pop\n        /* \"#utility.yul\":4993:5271   */\n      pop\n        /* \"#utility.yul\":4931:5271   */\n      swap3\n      swap2\n      pop\n      pop\n      jump\t// out\n        /* \"#utility.yul\":5314:6233   */\n    tag_159:\n        /* \"#utility.yul\":5386:5391   */\n      0x00\n        /* \"#utility.yul\":5430:5434   */\n      0x40\n        /* \"#utility.yul\":5418:5427   */\n      dup3\n        /* \"#utility.yul\":5413:5416   */\n      dup5\n        /* \"#utility.yul\":5409:5428   */\n      sub\n        /* \"#utility.yul\":5405:5435   */\n      slt\n        /* \"#utility.yul\":5402:5519   */\n      iszero\n      tag_219\n      jumpi\n        /* \"#utility.yul\":5438:5517   */\n      tag_220\n      tag_221\n      jump\t// in\n    tag_220:\n        /* \"#utility.yul\":5402:5519   */\n    tag_219:\n        /* \"#utility.yul\":5537:5558   */\n      tag_222\n        /* \"#utility.yul\":5553:5557   */\n      0x40\n        /* \"#utility.yul\":5537:5558   */\n      tag_148\n      jump\t// in\n    tag_222:\n        /* \"#utility.yul\":5528:5558   */\n      swap1\n      pop\n        /* \"#utility.yul\":5645:5646   */\n      0x00\n        /* \"#utility.yul\":5634:5643   */\n      dup3\n        /* \"#utility.yul\":5630:5647   */\n      add\n        /* \"#utility.yul\":5617:5648   */\n      calldataload\n        /* \"#utility.yul\":5675:5693   */\n      0xffffffffffffffff\n        /* \"#utility.yul\":5667:5673   */\n      dup2\n        /* \"#utility.yul\":5664:5694   */\n      gt\n        /* \"#utility.yul\":5661:5778   */\n      iszero\n      tag_223\n      jumpi\n        /* \"#utility.yul\":5697:5776   */\n      tag_224\n      tag_225\n      jump\t// in\n    tag_224:\n        /* \"#utility.yul\":5661:5778   */\n    tag_223:\n        /* \"#utility.yul\":5817:5876   */\n      tag_226\n        /* \"#utility.yul\":5872:5875   */\n      dup5\n        /* \"#utility.yul\":5863:5869   */\n      dup3\n        /* \"#utility.yul\":5852:5861   */\n      dup6\n        /* \"#utility.yul\":5848:5870   */\n      add\n        /* \"#utility.yul\":5817:5876   */\n      tag_213\n      jump\t// in\n    tag_226:\n        /* \"#utility.yul\":5810:5814   */\n      0x00\n        /* \"#utility.yul\":5803:5808   */\n      dup4\n        /* \"#utility.yul\":5799:5815   */\n      add\n        /* \"#utility.yul\":5792:5877   */\n      mstore\n        /* \"#utility.yul\":5568:5888   */\n      pop\n        /* \"#utility.yul\":5982:5984   */\n      0x20\n        /* \"#utility.yul\":5971:5980   */\n      dup3\n        /* \"#utility.yul\":5967:5985   */\n      add\n        /* \"#utility.yul\":5954:5986   */\n      calldataload\n        /* \"#utility.yul\":6013:6031   */\n      0xffffffffffffffff\n        /* \"#utility.yul\":6005:6011   */\n      dup2\n        /* \"#utility.yul\":6002:6032   */\n      gt\n        /* \"#utility.yul\":5999:6116   */\n      iszero\n      tag_227\n      jumpi\n        /* \"#utility.yul\":6035:6114   */\n      tag_228\n      tag_225\n      jump\t// in\n    tag_228:\n        /* \"#utility.yul\":5999:6116   */\n    tag_227:\n        /* \"#utility.yul\":6155:6214   */\n      tag_229\n        /* \"#utility.yul\":6210:6213   */\n      dup5\n        /* \"#utility.yul\":6201:6207   */\n      dup3\n        /* \"#utility.yul\":6190:6199   */\n      dup6\n        /* \"#utility.yul\":6186:6208   */\n      add\n        /* \"#utility.yul\":6155:6214   */\n      tag_213\n      jump\t// in\n    tag_229:\n        /* \"#utility.yul\":6148:6152   */\n      0x20\n        /* \"#utility.yul\":6141:6146   */\n      dup4\n        /* \"#utility.yul\":6137:6153   */\n      add\n        /* \"#utility.yul\":6130:6215   */\n      mstore\n        /* \"#utility.yul\":5898:6226   */\n      pop\n        /* \"#utility.yul\":5314:6233   */\n      swap3\n      swap2\n      pop\n      pop\n      jump\t// out\n        /* \"#utility.yul\":6273:6851   */\n    tag_173:\n        /* \"#utility.yul\":6342:6347   */\n      0x00\n        /* \"#utility.yul\":6386:6390   */\n      0x20\n        /* \"#utility.yul\":6374:6383   */\n      dup3\n        /* \"#utility.yul\":6369:6372   */\n      dup5\n        /* \"#utility.yul\":6365:6384   */\n      sub\n        /* \"#utility.yul\":6361:6391   */\n      slt\n        /* \"#utility.yul\":6358:6475   */\n      iszero\n      tag_231\n      jumpi\n        /* \"#utility.yul\":6394:6473   */\n      tag_232\n      tag_221\n      jump\t// in\n    tag_232:\n        /* \"#utility.yul\":6358:6475   */\n    tag_231:\n        /* \"#utility.yul\":6493:6514   */\n      tag_233\n        /* \"#utility.yul\":6509:6513   */\n      0x20\n        /* \"#utility.yul\":6493:6514   */\n      tag_148\n      jump\t// in\n    tag_233:\n        /* \"#utility.yul\":6484:6514   */\n      swap1\n      pop\n        /* \"#utility.yul\":6601:6602   */\n      0x00\n        /* \"#utility.yul\":6590:6599   */\n      dup3\n        /* \"#utility.yul\":6586:6603   */\n      add\n        /* \"#utility.yul\":6573:6604   */\n      calldataload\n        /* \"#utility.yul\":6631:6649   */\n      0xffffffffffffffff\n        /* \"#utility.yul\":6623:6629   */\n      dup2\n        /* \"#utility.yul\":6620:6650   */\n      gt\n        /* \"#utility.yul\":6617:6734   */\n      iszero\n      tag_234\n      jumpi\n        /* \"#utility.yul\":6653:6732   */\n      tag_235\n      tag_225\n      jump\t// in\n    tag_235:\n        /* \"#utility.yul\":6617:6734   */\n    tag_234:\n        /* \"#utility.yul\":6773:6832   */\n      tag_236\n        /* \"#utility.yul\":6828:6831   */\n      dup5\n        /* \"#utility.yul\":6819:6825   */\n      dup3\n        /* \"#utility.yul\":6808:6817   */\n      dup6\n        /* \"#utility.yul\":6804:6826   */\n      add\n        /* \"#utility.yul\":6773:6832   */\n      tag_213\n      jump\t// in\n    tag_236:\n        /* \"#utility.yul\":6766:6770   */\n      0x00\n        /* \"#utility.yul\":6759:6764   */\n      dup4\n        /* \"#utility.yul\":6755:6771   */\n      add\n        /* \"#utility.yul\":6748:6833   */\n      mstore\n        /* \"#utility.yul\":6524:6844   */\n      pop\n        /* \"#utility.yul\":6273:6851   */\n      swap3\n      swap2\n      pop\n      pop\n      jump\t// out\n        /* \"#utility.yul\":6895:7477   */\n    tag_187:\n        /* \"#utility.yul\":6968:6973   */\n      0x00\n        /* \"#utility.yul\":7012:7016   */\n      0x20\n        /* \"#utility.yul\":7000:7009   */\n      dup3\n        /* \"#utility.yul\":6995:6998   */\n      dup5\n        /* \"#utility.yul\":6991:7010   */\n      sub\n        /* \"#utility.yul\":6987:7017   */\n      slt\n        /* \"#utility.yul\":6984:7101   */\n      iszero\n      tag_238\n      jumpi\n        /* \"#utility.yul\":7020:7099   */\n      tag_239\n      tag_221\n      jump\t// in\n    tag_239:\n        /* \"#utility.yul\":6984:7101   */\n    tag_238:\n        /* \"#utility.yul\":7119:7140   */\n      tag_240\n        /* \"#utility.yul\":7135:7139   */\n      0x20\n        /* \"#utility.yul\":7119:7140   */\n      tag_148\n      jump\t// in\n    tag_240:\n        /* \"#utility.yul\":7110:7140   */\n      swap1\n      pop\n        /* \"#utility.yul\":7227:7228   */\n      0x00\n        /* \"#utility.yul\":7216:7225   */\n      dup3\n        /* \"#utility.yul\":7212:7229   */\n      add\n        /* \"#utility.yul\":7199:7230   */\n      calldataload\n        /* \"#utility.yul\":7257:7275   */\n      0xffffffffffffffff\n        /* \"#utility.yul\":7249:7255   */\n      dup2\n        /* \"#utility.yul\":7246:7276   */\n      gt\n        /* \"#utility.yul\":7243:7360   */\n      iszero\n      tag_241\n      jumpi\n        /* \"#utility.yul\":7279:7358   */\n      tag_242\n      tag_225\n      jump\t// in\n    tag_242:\n        /* \"#utility.yul\":7243:7360   */\n    tag_241:\n        /* \"#utility.yul\":7399:7458   */\n      tag_243\n        /* \"#utility.yul\":7454:7457   */\n      dup5\n        /* \"#utility.yul\":7445:7451   */\n      dup3\n        /* \"#utility.yul\":7434:7443   */\n      dup6\n        /* \"#utility.yul\":7430:7452   */\n      add\n        /* \"#utility.yul\":7399:7458   */\n      tag_213\n      jump\t// in\n    tag_243:\n        /* \"#utility.yul\":7392:7396   */\n      0x00\n        /* \"#utility.yul\":7385:7390   */\n      dup4\n        /* \"#utility.yul\":7381:7397   */\n      add\n        /* \"#utility.yul\":7374:7459   */\n      mstore\n        /* \"#utility.yul\":7150:7470   */\n      pop\n        /* \"#utility.yul\":6895:7477   */\n      swap3\n      swap2\n      pop\n      pop\n      jump\t// out\n        /* \"#utility.yul\":7483:7622   */\n    tag_244:\n        /* \"#utility.yul\":7529:7534   */\n      0x00\n        /* \"#utility.yul\":7567:7573   */\n      dup2\n        /* \"#utility.yul\":7554:7574   */\n      calldataload\n        /* \"#utility.yul\":7545:7574   */\n      swap1\n      pop\n        /* \"#utility.yul\":7583:7616   */\n      tag_246\n        /* \"#utility.yul\":7610:7615   */\n      dup2\n        /* \"#utility.yul\":7583:7616   */\n      tag_247\n      jump\t// in\n    tag_246:\n        /* \"#utility.yul\":7483:7622   */\n      swap3\n      swap2\n      pop\n      pop\n      jump\t// out\n        /* \"#utility.yul\":7628:9483   */\n    tag_19:\n        /* \"#utility.yul\":7875:7881   */\n      0x00\n        /* \"#utility.yul\":7883:7889   */\n      dup1\n        /* \"#utility.yul\":7891:7897   */\n      0x00\n        /* \"#utility.yul\":7899:7905   */\n      dup1\n        /* \"#utility.yul\":7907:7913   */\n      0x00\n        /* \"#utility.yul\":7956:7959   */\n      0xa0\n        /* \"#utility.yul\":7944:7953   */\n      dup7\n        /* \"#utility.yul\":7935:7942   */\n      dup9\n        /* \"#utility.yul\":7931:7954   */\n      sub\n        /* \"#utility.yul\":7927:7960   */\n      slt\n        /* \"#utility.yul\":7924:8044   */\n      iszero\n      tag_249\n      jumpi\n        /* \"#utility.yul\":7963:8042   */\n      tag_250\n      tag_251\n      jump\t// in\n    tag_250:\n        /* \"#utility.yul\":7924:8044   */\n    tag_249:\n        /* \"#utility.yul\":8111:8112   */\n      0x00\n        /* \"#utility.yul\":8100:8109   */\n      dup7\n        /* \"#utility.yul\":8096:8113   */\n      add\n        /* \"#utility.yul\":8083:8114   */\n      calldataload\n        /* \"#utility.yul\":8141:8159   */\n      0xffffffffffffffff\n        /* \"#utility.yul\":8133:8139   */\n      dup2\n        /* \"#utility.yul\":8130:8160   */\n      gt\n        /* \"#utility.yul\":8127:8244   */\n      iszero\n      tag_252\n      jumpi\n        /* \"#utility.yul\":8163:8242   */\n      tag_253\n      tag_254\n      jump\t// in\n    tag_253:\n        /* \"#utility.yul\":8127:8244   */\n    tag_252:\n        /* \"#utility.yul\":8268:8331   */\n      tag_255\n        /* \"#utility.yul\":8323:8330   */\n      dup9\n        /* \"#utility.yul\":8314:8320   */\n      dup3\n        /* \"#utility.yul\":8303:8312   */\n      dup10\n        /* \"#utility.yul\":8299:8321   */\n      add\n        /* \"#utility.yul\":8268:8331   */\n      tag_213\n      jump\t// in\n    tag_255:\n        /* \"#utility.yul\":8258:8331   */\n      swap6\n      pop\n        /* \"#utility.yul\":8054:8341   */\n      pop\n        /* \"#utility.yul\":8380:8382   */\n      0x20\n        /* \"#utility.yul\":8406:8459   */\n      tag_256\n        /* \"#utility.yul\":8451:8458   */\n      dup9\n        /* \"#utility.yul\":8442:8448   */\n      dup3\n        /* \"#utility.yul\":8431:8440   */\n      dup10\n        /* \"#utility.yul\":8427:8449   */\n      add\n        /* \"#utility.yul\":8406:8459   */\n      tag_244\n      jump\t// in\n    tag_256:\n        /* \"#utility.yul\":8396:8459   */\n      swap5\n      pop\n        /* \"#utility.yul\":8351:8469   */\n      pop\n        /* \"#utility.yul\":8536:8538   */\n      0x40\n        /* \"#utility.yul\":8525:8534   */\n      dup7\n        /* \"#utility.yul\":8521:8539   */\n      add\n        /* \"#utility.yul\":8508:8540   */\n      calldataload\n        /* \"#utility.yul\":8567:8585   */\n      0xffffffffffffffff\n        /* \"#utility.yul\":8559:8565   */\n      dup2\n        /* \"#utility.yul\":8556:8586   */\n      gt\n        /* \"#utility.yul\":8553:8670   */\n      iszero\n      tag_257\n      jumpi\n        /* \"#utility.yul\":8589:8668   */\n      tag_258\n      tag_254\n      jump\t// in\n    tag_258:\n        /* \"#utility.yul\":8553:8670   */\n    tag_257:\n        /* \"#utility.yul\":8694:8795   */\n      tag_259\n        /* \"#utility.yul\":8787:8794   */\n      dup9\n        /* \"#utility.yul\":8778:8784   */\n      dup3\n        /* \"#utility.yul\":8767:8776   */\n      dup10\n        /* \"#utility.yul\":8763:8785   */\n      add\n        /* \"#utility.yul\":8694:8795   */\n      tag_198\n      jump\t// in\n    tag_259:\n        /* \"#utility.yul\":8684:8795   */\n      swap4\n      pop\n        /* \"#utility.yul\":8479:8805   */\n      pop\n        /* \"#utility.yul\":8872:8874   */\n      0x60\n        /* \"#utility.yul\":8861:8870   */\n      dup7\n        /* \"#utility.yul\":8857:8875   */\n      add\n        /* \"#utility.yul\":8844:8876   */\n      calldataload\n        /* \"#utility.yul\":8903:8921   */\n      0xffffffffffffffff\n        /* \"#utility.yul\":8895:8901   */\n      dup2\n        /* \"#utility.yul\":8892:8922   */\n      gt\n        /* \"#utility.yul\":8889:9006   */\n      iszero\n      tag_260\n      jumpi\n        /* \"#utility.yul\":8925:9004   */\n      tag_261\n      tag_254\n      jump\t// in\n    tag_261:\n        /* \"#utility.yul\":8889:9006   */\n    tag_260:\n        /* \"#utility.yul\":9030:9128   */\n      tag_262\n        /* \"#utility.yul\":9120:9127   */\n      dup9\n        /* \"#utility.yul\":9111:9117   */\n      dup3\n        /* \"#utility.yul\":9100:9109   */\n      dup10\n        /* \"#utility.yul\":9096:9118   */\n      add\n        /* \"#utility.yul\":9030:9128   */\n      tag_203\n      jump\t// in\n    tag_262:\n        /* \"#utility.yul\":9020:9128   */\n      swap3\n      pop\n        /* \"#utility.yul\":8815:9138   */\n      pop\n        /* \"#utility.yul\":9205:9208   */\n      0x80\n        /* \"#utility.yul\":9194:9203   */\n      dup7\n        /* \"#utility.yul\":9190:9209   */\n      add\n        /* \"#utility.yul\":9177:9210   */\n      calldataload\n        /* \"#utility.yul\":9237:9255   */\n      0xffffffffffffffff\n        /* \"#utility.yul\":9229:9235   */\n      dup2\n        /* \"#utility.yul\":9226:9256   */\n      gt\n        /* \"#utility.yul\":9223:9340   */\n      iszero\n      tag_263\n      jumpi\n        /* \"#utility.yul\":9259:9338   */\n      tag_264\n      tag_254\n      jump\t// in\n    tag_264:\n        /* \"#utility.yul\":9223:9340   */\n    tag_263:\n        /* \"#utility.yul\":9364:9466   */\n      tag_265\n        /* \"#utility.yul\":9458:9465   */\n      dup9\n        /* \"#utility.yul\":9449:9455   */\n      dup3\n        /* \"#utility.yul\":9438:9447   */\n      dup10\n        /* \"#utility.yul\":9434:9456   */\n      add\n        /* \"#utility.yul\":9364:9466   */\n      tag_208\n      jump\t// in\n    tag_265:\n        /* \"#utility.yul\":9354:9466   */\n      swap2\n      pop\n        /* \"#utility.yul\":9148:9476   */\n      pop\n        /* \"#utility.yul\":7628:9483   */\n      swap3\n      swap6\n      pop\n      swap3\n      swap6\n      swap1\n      swap4\n      pop\n      jump\t// out\n        /* \"#utility.yul\":9489:9818   */\n    tag_9:\n        /* \"#utility.yul\":9548:9554   */\n      0x00\n        /* \"#utility.yul\":9597:9599   */\n      0x20\n        /* \"#utility.yul\":9585:9594   */\n      dup3\n        /* \"#utility.yul\":9576:9583   */\n      dup5\n        /* \"#utility.yul\":9572:9595   */\n      sub\n        /* \"#utility.yul\":9568:9600   */\n      slt\n        /* \"#utility.yul\":9565:9684   */\n      iszero\n      tag_267\n      jumpi\n        /* \"#utility.yul\":9603:9682   */\n      tag_268\n      tag_251\n      jump\t// in\n    tag_268:\n        /* \"#utility.yul\":9565:9684   */\n    tag_267:\n        /* \"#utility.yul\":9723:9724   */\n      0x00\n        /* \"#utility.yul\":9748:9801   */\n      tag_269\n        /* \"#utility.yul\":9793:9800   */\n      dup5\n        /* \"#utility.yul\":9784:9790   */\n      dup3\n        /* \"#utility.yul\":9773:9782   */\n      dup6\n        /* \"#utility.yul\":9769:9791   */\n      add\n        /* \"#utility.yul\":9748:9801   */\n      tag_244\n      jump\t// in\n    tag_269:\n        /* \"#utility.yul\":9738:9801   */\n      swap2\n      pop\n        /* \"#utility.yul\":9694:9811   */\n      pop\n        /* \"#utility.yul\":9489:9818   */\n      swap3\n      swap2\n      pop\n      pop\n      jump\t// out\n        /* \"#utility.yul\":9824:10072   */\n    tag_270:\n        /* \"#utility.yul\":9939:9949   */\n      0x00\n        /* \"#utility.yul\":9974:10066   */\n      tag_272\n        /* \"#utility.yul\":10062:10065   */\n      dup4\n        /* \"#utility.yul\":10054:10060   */\n      dup4\n        /* \"#utility.yul\":9974:10066   */\n      tag_273\n      jump\t// in\n    tag_272:\n        /* \"#utility.yul\":9960:10066   */\n      swap1\n      pop\n        /* \"#utility.yul\":9824:10072   */\n      swap3\n      swap2\n      pop\n      pop\n      jump\t// out\n        /* \"#utility.yul\":10078:10326   */\n    tag_274:\n        /* \"#utility.yul\":10193:10203   */\n      0x00\n        /* \"#utility.yul\":10228:10320   */\n      tag_276\n        /* \"#utility.yul\":10316:10319   */\n      dup4\n        /* \"#utility.yul\":10308:10314   */\n      dup4\n        /* \"#utility.yul\":10228:10320   */\n      tag_277\n      jump\t// in\n    tag_276:\n        /* \"#utility.yul\":10214:10320   */\n      swap1\n      pop\n        /* \"#utility.yul\":10078:10326   */\n      swap3\n      swap2\n      pop\n      pop\n      jump\t// out\n        /* \"#utility.yul\":10332:10568   */\n    tag_278:\n        /* \"#utility.yul\":10441:10451   */\n      0x00\n        /* \"#utility.yul\":10476:10562   */\n      tag_280\n        /* \"#utility.yul\":10558:10561   */\n      dup4\n        /* \"#utility.yul\":10550:10556   */\n      dup4\n        /* \"#utility.yul\":10476:10562   */\n      tag_281\n      jump\t// in\n    tag_280:\n        /* \"#utility.yul\":10462:10562   */\n      swap1\n      pop\n        /* \"#utility.yul\":10332:10568   */\n      swap3\n      swap2\n      pop\n      pop\n      jump\t// out\n        /* \"#utility.yul\":10574:10826   */\n    tag_282:\n        /* \"#utility.yul\":10691:10701   */\n      0x00\n        /* \"#utility.yul\":10726:10820   */\n      tag_284\n        /* \"#utility.yul\":10816:10819   */\n      dup4\n        /* \"#utility.yul\":10808:10814   */\n      dup4\n        /* \"#utility.yul\":10726:10820   */\n      tag_285\n      jump\t// in\n    tag_284:\n        /* \"#utility.yul\":10712:10820   */\n      swap1\n      pop\n        /* \"#utility.yul\":10574:10826   */\n      swap3\n      swap2\n      pop\n      pop\n      jump\t// out\n        /* \"#utility.yul\":10832:10950   */\n    tag_286:\n        /* \"#utility.yul\":10919:10943   */\n      tag_288\n        /* \"#utility.yul\":10937:10942   */\n      dup2\n        /* \"#utility.yul\":10919:10943   */\n      tag_289\n      jump\t// in\n    tag_288:\n        /* \"#utility.yul\":10914:10917   */\n      dup3\n        /* \"#utility.yul\":10907:10944   */\n      mstore\n        /* \"#utility.yul\":10832:10950   */\n      pop\n      pop\n      jump\t// out\n        /* \"#utility.yul\":11030:12105   */\n    tag_290:\n        /* \"#utility.yul\":11185:11188   */\n      0x00\n        /* \"#utility.yul\":11214:11291   */\n      tag_292\n        /* \"#utility.yul\":11285:11290   */\n      dup3\n        /* \"#utility.yul\":11214:11291   */\n      tag_293\n      jump\t// in\n    tag_292:\n        /* \"#utility.yul\":11307:11406   */\n      tag_294\n        /* \"#utility.yul\":11399:11405   */\n      dup2\n        /* \"#utility.yul\":11394:11397   */\n      dup6\n        /* \"#utility.yul\":11307:11406   */\n      tag_295\n      jump\t// in\n    tag_294:\n        /* \"#utility.yul\":11300:11406   */\n      swap4\n      pop\n        /* \"#utility.yul\":11432:11435   */\n      dup4\n        /* \"#utility.yul\":11477:11481   */\n      0x20\n        /* \"#utility.yul\":11469:11475   */\n      dup3\n        /* \"#utility.yul\":11465:11482   */\n      mul\n        /* \"#utility.yul\":11460:11463   */\n      dup6\n        /* \"#utility.yul\":11456:11483   */\n      add\n        /* \"#utility.yul\":11507:11586   */\n      tag_296\n        /* \"#utility.yul\":11580:11585   */\n      dup6\n        /* \"#utility.yul\":11507:11586   */\n      tag_297\n      jump\t// in\n    tag_296:\n        /* \"#utility.yul\":11609:11616   */\n      dup1\n        /* \"#utility.yul\":11640:11641   */\n      0x00\n        /* \"#utility.yul\":11625:12060   */\n    tag_298:\n        /* \"#utility.yul\":11650:11656   */\n      dup6\n        /* \"#utility.yul\":11647:11648   */\n      dup2\n        /* \"#utility.yul\":11644:11657   */\n      lt\n        /* \"#utility.yul\":11625:12060   */\n      iszero\n      tag_300\n      jumpi\n        /* \"#utility.yul\":11721:11730   */\n      dup5\n        /* \"#utility.yul\":11715:11719   */\n      dup5\n        /* \"#utility.yul\":11711:11731   */\n      sub\n        /* \"#utility.yul\":11706:11709   */\n      dup10\n        /* \"#utility.yul\":11699:11732   */\n      mstore\n        /* \"#utility.yul\":11772:11778   */\n      dup2\n        /* \"#utility.yul\":11766:11779   */\n      mload\n        /* \"#utility.yul\":11800:11910   */\n      tag_301\n        /* \"#utility.yul\":11905:11909   */\n      dup6\n        /* \"#utility.yul\":11890:11903   */\n      dup3\n        /* \"#utility.yul\":11800:11910   */\n      tag_270\n      jump\t// in\n    tag_301:\n        /* \"#utility.yul\":11792:11910   */\n      swap5\n      pop\n        /* \"#utility.yul\":11933:12016   */\n      tag_302\n        /* \"#utility.yul\":12009:12015   */\n      dup4\n        /* \"#utility.yul\":11933:12016   */\n      tag_303\n      jump\t// in\n    tag_302:\n        /* \"#utility.yul\":11923:12016   */\n      swap3\n      pop\n        /* \"#utility.yul\":12045:12049   */\n      0x20\n        /* \"#utility.yul\":12040:12043   */\n      dup11\n        /* \"#utility.yul\":12036:12050   */\n      add\n        /* \"#utility.yul\":12029:12050   */\n      swap10\n      pop\n        /* \"#utility.yul\":11685:12060   */\n      pop\n        /* \"#utility.yul\":11672:11673   */\n      0x01\n        /* \"#utility.yul\":11669:11670   */\n      dup2\n        /* \"#utility.yul\":11665:11674   */\n      add\n        /* \"#utility.yul\":11660:11674   */\n      swap1\n      pop\n        /* \"#utility.yul\":11625:12060   */\n      jump(tag_298)\n    tag_300:\n        /* \"#utility.yul\":11629:11643   */\n      pop\n        /* \"#utility.yul\":12076:12080   */\n      dup3\n        /* \"#utility.yul\":12069:12080   */\n      swap8\n      pop\n        /* \"#utility.yul\":12096:12099   */\n      dup8\n        /* \"#utility.yul\":12089:12099   */\n      swap6\n      pop\n        /* \"#utility.yul\":11190:12105   */\n      pop\n      pop\n      pop\n      pop\n      pop\n        /* \"#utility.yul\":11030:12105   */\n      swap3\n      swap2\n      pop\n      pop\n      jump\t// out\n        /* \"#utility.yul\":12185:13280   */\n    tag_304:\n        /* \"#utility.yul\":12350:12353   */\n      0x00\n        /* \"#utility.yul\":12379:12456   */\n      tag_306\n        /* \"#utility.yul\":12450:12455   */\n      dup3\n        /* \"#utility.yul\":12379:12456   */\n      tag_307\n      jump\t// in\n    tag_306:\n        /* \"#utility.yul\":12472:12581   */\n      tag_308\n        /* \"#utility.yul\":12574:12580   */\n      dup2\n        /* \"#utility.yul\":12569:12572   */\n      dup6\n        /* \"#utility.yul\":12472:12581   */\n      tag_309\n      jump\t// in\n    tag_308:\n        /* \"#utility.yul\":12465:12581   */\n      swap4\n      pop\n        /* \"#utility.yul\":12607:12610   */\n      dup4\n        /* \"#utility.yul\":12652:12656   */\n      0x20\n        /* \"#utility.yul\":12644:12650   */\n      dup3\n        /* \"#utility.yul\":12640:12657   */\n      mul\n        /* \"#utility.yul\":12635:12638   */\n      dup6\n        /* \"#utility.yul\":12631:12658   */\n      add\n        /* \"#utility.yul\":12682:12761   */\n      tag_310\n        /* \"#utility.yul\":12755:12760   */\n      dup6\n        /* \"#utility.yul\":12682:12761   */\n      tag_311\n      jump\t// in\n    tag_310:\n        /* \"#utility.yul\":12784:12791   */\n      dup1\n        /* \"#utility.yul\":12815:12816   */\n      0x00\n        /* \"#utility.yul\":12800:13235   */\n    tag_312:\n        /* \"#utility.yul\":12825:12831   */\n      dup6\n        /* \"#utility.yul\":12822:12823   */\n      dup2\n        /* \"#utility.yul\":12819:12832   */\n      lt\n        /* \"#utility.yul\":12800:13235   */\n      iszero\n      tag_314\n      jumpi\n        /* \"#utility.yul\":12896:12905   */\n      dup5\n        /* \"#utility.yul\":12890:12894   */\n      dup5\n        /* \"#utility.yul\":12886:12906   */\n      sub\n        /* \"#utility.yul\":12881:12884   */\n      dup10\n        /* \"#utility.yul\":12874:12907   */\n      mstore\n        /* \"#utility.yul\":12947:12953   */\n      dup2\n        /* \"#utility.yul\":12941:12954   */\n      mload\n        /* \"#utility.yul\":12975:13085   */\n      tag_315\n        /* \"#utility.yul\":13080:13084   */\n      dup6\n        /* \"#utility.yul\":13065:13078   */\n      dup3\n        /* \"#utility.yul\":12975:13085   */\n      tag_274\n      jump\t// in\n    tag_315:\n        /* \"#utility.yul\":12967:13085   */\n      swap5\n      pop\n        /* \"#utility.yul\":13108:13191   */\n      tag_316\n        /* \"#utility.yul\":13184:13190   */\n      dup4\n        /* \"#utility.yul\":13108:13191   */\n      tag_317\n      jump\t// in\n    tag_316:\n        /* \"#utility.yul\":13098:13191   */\n      swap3\n      pop\n        /* \"#utility.yul\":13220:13224   */\n      0x20\n        /* \"#utility.yul\":13215:13218   */\n      dup11\n        /* \"#utility.yul\":13211:13225   */\n      add\n        /* \"#utility.yul\":13204:13225   */\n      swap10\n      pop\n        /* \"#utility.yul\":12860:13235   */\n      pop\n        /* \"#utility.yul\":12847:12848   */\n      0x01\n        /* \"#utility.yul\":12844:12845   */\n      dup2\n        /* \"#utility.yul\":12840:12849   */\n      add\n        /* \"#utility.yul\":12835:12849   */\n      swap1\n      pop\n        /* \"#utility.yul\":12800:13235   */\n      jump(tag_312)\n    tag_314:\n        /* \"#utility.yul\":12804:12818   */\n      pop\n        /* \"#utility.yul\":13251:13255   */\n      dup3\n        /* \"#utility.yul\":13244:13255   */\n      swap8\n      pop\n        /* \"#utility.yul\":13271:13274   */\n      dup8\n        /* \"#utility.yul\":13264:13274   */\n      swap6\n      pop\n        /* \"#utility.yul\":12355:13280   */\n      pop\n      pop\n      pop\n      pop\n      pop\n        /* \"#utility.yul\":12185:13280   */\n      swap3\n      swap2\n      pop\n      pop\n      jump\t// out\n        /* \"#utility.yul\":13354:14405   */\n    tag_318:\n        /* \"#utility.yul\":13503:13506   */\n      0x00\n        /* \"#utility.yul\":13532:13606   */\n      tag_320\n        /* \"#utility.yul\":13600:13605   */\n      dup3\n        /* \"#utility.yul\":13532:13606   */\n      tag_321\n      jump\t// in\n    tag_320:\n        /* \"#utility.yul\":13622:13718   */\n      tag_322\n        /* \"#utility.yul\":13711:13717   */\n      dup2\n        /* \"#utility.yul\":13706:13709   */\n      dup6\n        /* \"#utility.yul\":13622:13718   */\n      tag_323\n      jump\t// in\n    tag_322:\n        /* \"#utility.yul\":13615:13718   */\n      swap4\n      pop\n        /* \"#utility.yul\":13744:13747   */\n      dup4\n        /* \"#utility.yul\":13789:13793   */\n      0x20\n        /* \"#utility.yul\":13781:13787   */\n      dup3\n        /* \"#utility.yul\":13777:13794   */\n      mul\n        /* \"#utility.yul\":13772:13775   */\n      dup6\n        /* \"#utility.yul\":13768:13795   */\n      add\n        /* \"#utility.yul\":13819:13895   */\n      tag_324\n        /* \"#utility.yul\":13889:13894   */\n      dup6\n        /* \"#utility.yul\":13819:13895   */\n      tag_325\n      jump\t// in\n    tag_324:\n        /* \"#utility.yul\":13918:13925   */\n      dup1\n        /* \"#utility.yul\":13949:13950   */\n      0x00\n        /* \"#utility.yul\":13934:14360   */\n    tag_326:\n        /* \"#utility.yul\":13959:13965   */\n      dup6\n        /* \"#utility.yul\":13956:13957   */\n      dup2\n        /* \"#utility.yul\":13953:13966   */\n      lt\n        /* \"#utility.yul\":13934:14360   */\n      iszero\n      tag_328\n      jumpi\n        /* \"#utility.yul\":14030:14039   */\n      dup5\n        /* \"#utility.yul\":14024:14028   */\n      dup5\n        /* \"#utility.yul\":14020:14040   */\n      sub\n        /* \"#utility.yul\":14015:14018   */\n      dup10\n        /* \"#utility.yul\":14008:14041   */\n      mstore\n        /* \"#utility.yul\":14081:14087   */\n      dup2\n        /* \"#utility.yul\":14075:14088   */\n      mload\n        /* \"#utility.yul\":14109:14213   */\n      tag_329\n        /* \"#utility.yul\":14208:14212   */\n      dup6\n        /* \"#utility.yul\":14193:14206   */\n      dup3\n        /* \"#utility.yul\":14109:14213   */\n      tag_278\n      jump\t// in\n    tag_329:\n        /* \"#utility.yul\":14101:14213   */\n      swap5\n      pop\n        /* \"#utility.yul\":14236:14316   */\n      tag_330\n        /* \"#utility.yul\":14309:14315   */\n      dup4\n        /* \"#utility.yul\":14236:14316   */\n      tag_331\n      jump\t// in\n    tag_330:\n        /* \"#utility.yul\":14226:14316   */\n      swap3\n      pop\n        /* \"#utility.yul\":14345:14349   */\n      0x20\n        /* \"#utility.yul\":14340:14343   */\n      dup11\n        /* \"#utility.yul\":14336:14350   */\n      add\n        /* \"#utility.yul\":14329:14350   */\n      swap10\n      pop\n        /* \"#utility.yul\":13994:14360   */\n      pop\n        /* \"#utility.yul\":13981:13982   */\n      0x01\n        /* \"#utility.yul\":13978:13979   */\n      dup2\n        /* \"#utility.yul\":13974:13983   */\n      add\n        /* \"#utility.yul\":13969:13983   */\n      swap1\n      pop\n        /* \"#utility.yul\":13934:14360   */\n      jump(tag_326)\n    tag_328:\n        /* \"#utility.yul\":13938:13952   */\n      pop\n        /* \"#utility.yul\":14376:14380   */\n      dup3\n        /* \"#utility.yul\":14369:14380   */\n      swap8\n      pop\n        /* \"#utility.yul\":14396:14399   */\n      dup8\n        /* \"#utility.yul\":14389:14399   */\n      swap6\n      pop\n        /* \"#utility.yul\":13508:14405   */\n      pop\n      pop\n      pop\n      pop\n      pop\n        /* \"#utility.yul\":13354:14405   */\n      swap3\n      swap2\n      pop\n      pop\n      jump\t// out\n        /* \"#utility.yul\":14487:15570   */\n    tag_332:\n        /* \"#utility.yul\":14644:14647   */\n      0x00\n        /* \"#utility.yul\":14673:14751   */\n      tag_334\n        /* \"#utility.yul\":14745:14750   */\n      dup3\n        /* \"#utility.yul\":14673:14751   */\n      tag_335\n      jump\t// in\n    tag_334:\n        /* \"#utility.yul\":14767:14867   */\n      tag_336\n        /* \"#utility.yul\":14860:14866   */\n      dup2\n        /* \"#utility.yul\":14855:14858   */\n      dup6\n        /* \"#utility.yul\":14767:14867   */\n      tag_337\n      jump\t// in\n    tag_336:\n        /* \"#utility.yul\":14760:14867   */\n      swap4\n      pop\n        /* \"#utility.yul\":14893:14896   */\n      dup4\n        /* \"#utility.yul\":14938:14942   */\n      0x20\n        /* \"#utility.yul\":14930:14936   */\n      dup3\n        /* \"#utility.yul\":14926:14943   */\n      mul\n        /* \"#utility.yul\":14921:14924   */\n      dup6\n        /* \"#utility.yul\":14917:14944   */\n      add\n        /* \"#utility.yul\":14968:15048   */\n      tag_338\n        /* \"#utility.yul\":15042:15047   */\n      dup6\n        /* \"#utility.yul\":14968:15048   */\n      tag_339\n      jump\t// in\n    tag_338:\n        /* \"#utility.yul\":15071:15078   */\n      dup1\n        /* \"#utility.yul\":15102:15103   */\n      0x00\n        /* \"#utility.yul\":15087:15525   */\n    tag_340:\n        /* \"#utility.yul\":15112:15118   */\n      dup6\n        /* \"#utility.yul\":15109:15110   */\n      dup2\n        /* \"#utility.yul\":15106:15119   */\n      lt\n        /* \"#utility.yul\":15087:15525   */\n      iszero\n      tag_342\n      jumpi\n        /* \"#utility.yul\":15183:15192   */\n      dup5\n        /* \"#utility.yul\":15177:15181   */\n      dup5\n        /* \"#utility.yul\":15173:15193   */\n      sub\n        /* \"#utility.yul\":15168:15171   */\n      dup10\n        /* \"#utility.yul\":15161:15194   */\n      mstore\n        /* \"#utility.yul\":15234:15240   */\n      dup2\n        /* \"#utility.yul\":15228:15241   */\n      mload\n        /* \"#utility.yul\":15262:15374   */\n      tag_343\n        /* \"#utility.yul\":15369:15373   */\n      dup6\n        /* \"#utility.yul\":15354:15367   */\n      dup3\n        /* \"#utility.yul\":15262:15374   */\n      tag_282\n      jump\t// in\n    tag_343:\n        /* \"#utility.yul\":15254:15374   */\n      swap5\n      pop\n        /* \"#utility.yul\":15397:15481   */\n      tag_344\n        /* \"#utility.yul\":15474:15480   */\n      dup4\n        /* \"#utility.yul\":15397:15481   */\n      tag_345\n      jump\t// in\n    tag_344:\n        /* \"#utility.yul\":15387:15481   */\n      swap3\n      pop\n        /* \"#utility.yul\":15510:15514   */\n      0x20\n        /* \"#utility.yul\":15505:15508   */\n      dup11\n        /* \"#utility.yul\":15501:15515   */\n      add\n        /* \"#utility.yul\":15494:15515   */\n      swap10\n      pop\n        /* \"#utility.yul\":15147:15525   */\n      pop\n        /* \"#utility.yul\":15134:15135   */\n      0x01\n        /* \"#utility.yul\":15131:15132   */\n      dup2\n        /* \"#utility.yul\":15127:15136   */\n      add\n        /* \"#utility.yul\":15122:15136   */\n      swap1\n      pop\n        /* \"#utility.yul\":15087:15525   */\n      jump(tag_340)\n    tag_342:\n        /* \"#utility.yul\":15091:15105   */\n      pop\n        /* \"#utility.yul\":15541:15545   */\n      dup3\n        /* \"#utility.yul\":15534:15545   */\n      swap8\n      pop\n        /* \"#utility.yul\":15561:15564   */\n      dup8\n        /* \"#utility.yul\":15554:15564   */\n      swap6\n      pop\n        /* \"#utility.yul\":14649:15570   */\n      pop\n      pop\n      pop\n      pop\n      pop\n        /* \"#utility.yul\":14487:15570   */\n      swap3\n      swap2\n      pop\n      pop\n      jump\t// out\n        /* \"#utility.yul\":15576:15920   */\n    tag_346:\n        /* \"#utility.yul\":15654:15657   */\n      0x00\n        /* \"#utility.yul\":15682:15721   */\n      tag_348\n        /* \"#utility.yul\":15715:15720   */\n      dup3\n        /* \"#utility.yul\":15682:15721   */\n      tag_349\n      jump\t// in\n    tag_348:\n        /* \"#utility.yul\":15737:15798   */\n      tag_350\n        /* \"#utility.yul\":15791:15797   */\n      dup2\n        /* \"#utility.yul\":15786:15789   */\n      dup6\n        /* \"#utility.yul\":15737:15798   */\n      tag_351\n      jump\t// in\n    tag_350:\n        /* \"#utility.yul\":15730:15798   */\n      swap4\n      pop\n        /* \"#utility.yul\":15807:15859   */\n      tag_352\n        /* \"#utility.yul\":15852:15858   */\n      dup2\n        /* \"#utility.yul\":15847:15850   */\n      dup6\n        /* \"#utility.yul\":15840:15844   */\n      0x20\n        /* \"#utility.yul\":15833:15838   */\n      dup7\n        /* \"#utility.yul\":15829:15845   */\n      add\n        /* \"#utility.yul\":15807:15859   */\n      tag_353\n      jump\t// in\n    tag_352:\n        /* \"#utility.yul\":15884:15913   */\n      tag_354\n        /* \"#utility.yul\":15906:15912   */\n      dup2\n        /* \"#utility.yul\":15884:15913   */\n      tag_355\n      jump\t// in\n    tag_354:\n        /* \"#utility.yul\":15879:15882   */\n      dup5\n        /* \"#utility.yul\":15875:15914   */\n      add\n        /* \"#utility.yul\":15868:15914   */\n      swap2\n      pop\n        /* \"#utility.yul\":15658:15920   */\n      pop\n        /* \"#utility.yul\":15576:15920   */\n      swap3\n      swap2\n      pop\n      pop\n      jump\t// out\n        /* \"#utility.yul\":15926:16290   */\n    tag_356:\n        /* \"#utility.yul\":16014:16017   */\n      0x00\n        /* \"#utility.yul\":16042:16081   */\n      tag_358\n        /* \"#utility.yul\":16075:16080   */\n      dup3\n        /* \"#utility.yul\":16042:16081   */\n      tag_349\n      jump\t// in\n    tag_358:\n        /* \"#utility.yul\":16097:16168   */\n      tag_359\n        /* \"#utility.yul\":16161:16167   */\n      dup2\n        /* \"#utility.yul\":16156:16159   */\n      dup6\n        /* \"#utility.yul\":16097:16168   */\n      tag_360\n      jump\t// in\n    tag_359:\n        /* \"#utility.yul\":16090:16168   */\n      swap4\n      pop\n        /* \"#utility.yul\":16177:16229   */\n      tag_361\n        /* \"#utility.yul\":16222:16228   */\n      dup2\n        /* \"#utility.yul\":16217:16220   */\n      dup6\n        /* \"#utility.yul\":16210:16214   */\n      0x20\n        /* \"#utility.yul\":16203:16208   */\n      dup7\n        /* \"#utility.yul\":16199:16215   */\n      add\n        /* \"#utility.yul\":16177:16229   */\n      tag_353\n      jump\t// in\n    tag_361:\n        /* \"#utility.yul\":16254:16283   */\n      tag_362\n        /* \"#utility.yul\":16276:16282   */\n      dup2\n        /* \"#utility.yul\":16254:16283   */\n      tag_355\n      jump\t// in\n    tag_362:\n        /* \"#utility.yul\":16249:16252   */\n      dup5\n        /* \"#utility.yul\":16245:16284   */\n      add\n        /* \"#utility.yul\":16238:16284   */\n      swap2\n      pop\n        /* \"#utility.yul\":16018:16290   */\n      pop\n        /* \"#utility.yul\":15926:16290   */\n      swap3\n      swap2\n      pop\n      pop\n      jump\t// out\n        /* \"#utility.yul\":16296:16662   */\n    tag_363:\n        /* \"#utility.yul\":16438:16441   */\n      0x00\n        /* \"#utility.yul\":16459:16526   */\n      tag_365\n        /* \"#utility.yul\":16523:16525   */\n      0x29\n        /* \"#utility.yul\":16518:16521   */\n      dup4\n        /* \"#utility.yul\":16459:16526   */\n      tag_360\n      jump\t// in\n    tag_365:\n        /* \"#utility.yul\":16452:16526   */\n      swap2\n      pop\n        /* \"#utility.yul\":16535:16628   */\n      tag_366\n        /* \"#utility.yul\":16624:16627   */\n      dup3\n        /* \"#utility.yul\":16535:16628   */\n      tag_367\n      jump\t// in\n    tag_366:\n        /* \"#utility.yul\":16653:16655   */\n      0x40\n        /* \"#utility.yul\":16648:16651   */\n      dup3\n        /* \"#utility.yul\":16644:16656   */\n      add\n        /* \"#utility.yul\":16637:16656   */\n      swap1\n      pop\n        /* \"#utility.yul\":16296:16662   */\n      swap2\n      swap1\n      pop\n      jump\t// out\n        /* \"#utility.yul\":16668:17034   */\n    tag_368:\n        /* \"#utility.yul\":16810:16813   */\n      0x00\n        /* \"#utility.yul\":16831:16898   */\n      tag_370\n        /* \"#utility.yul\":16895:16897   */\n      0x1d\n        /* \"#utility.yul\":16890:16893   */\n      dup4\n        /* \"#utility.yul\":16831:16898   */\n      tag_360\n      jump\t// in\n    tag_370:\n        /* \"#utility.yul\":16824:16898   */\n      swap2\n      pop\n        /* \"#utility.yul\":16907:17000   */\n      tag_371\n        /* \"#utility.yul\":16996:16999   */\n      dup3\n        /* \"#utility.yul\":16907:17000   */\n      tag_372\n      jump\t// in\n    tag_371:\n        /* \"#utility.yul\":17025:17027   */\n      0x20\n        /* \"#utility.yul\":17020:17023   */\n      dup3\n        /* \"#utility.yul\":17016:17028   */\n      add\n        /* \"#utility.yul\":17009:17028   */\n      swap1\n      pop\n        /* \"#utility.yul\":16668:17034   */\n      swap2\n      swap1\n      pop\n      jump\t// out\n        /* \"#utility.yul\":17110:17780   */\n    tag_273:\n        /* \"#utility.yul\":17215:17218   */\n      0x00\n        /* \"#utility.yul\":17251:17255   */\n      0x40\n        /* \"#utility.yul\":17246:17249   */\n      dup4\n        /* \"#utility.yul\":17242:17256   */\n      add\n        /* \"#utility.yul\":17338:17342   */\n      0x00\n        /* \"#utility.yul\":17331:17336   */\n      dup4\n        /* \"#utility.yul\":17327:17343   */\n      add\n        /* \"#utility.yul\":17321:17344   */\n      mload\n        /* \"#utility.yul\":17391:17394   */\n      dup5\n        /* \"#utility.yul\":17385:17389   */\n      dup3\n        /* \"#utility.yul\":17381:17395   */\n      sub\n        /* \"#utility.yul\":17374:17378   */\n      0x00\n        /* \"#utility.yul\":17369:17372   */\n      dup7\n        /* \"#utility.yul\":17365:17379   */\n      add\n        /* \"#utility.yul\":17358:17396   */\n      mstore\n        /* \"#utility.yul\":17417:17490   */\n      tag_374\n        /* \"#utility.yul\":17485:17489   */\n      dup3\n        /* \"#utility.yul\":17471:17483   */\n      dup3\n        /* \"#utility.yul\":17417:17490   */\n      tag_346\n      jump\t// in\n    tag_374:\n        /* \"#utility.yul\":17409:17490   */\n      swap2\n      pop\n        /* \"#utility.yul\":17266:17501   */\n      pop\n        /* \"#utility.yul\":17590:17594   */\n      0x20\n        /* \"#utility.yul\":17583:17588   */\n      dup4\n        /* \"#utility.yul\":17579:17595   */\n      add\n        /* \"#utility.yul\":17573:17596   */\n      mload\n        /* \"#utility.yul\":17643:17646   */\n      dup5\n        /* \"#utility.yul\":17637:17641   */\n      dup3\n        /* \"#utility.yul\":17633:17647   */\n      sub\n        /* \"#utility.yul\":17626:17630   */\n      0x20\n        /* \"#utility.yul\":17621:17624   */\n      dup7\n        /* \"#utility.yul\":17617:17631   */\n      add\n        /* \"#utility.yul\":17610:17648   */\n      mstore\n        /* \"#utility.yul\":17669:17742   */\n      tag_375\n        /* \"#utility.yul\":17737:17741   */\n      dup3\n        /* \"#utility.yul\":17723:17735   */\n      dup3\n        /* \"#utility.yul\":17669:17742   */\n      tag_346\n      jump\t// in\n    tag_375:\n        /* \"#utility.yul\":17661:17742   */\n      swap2\n      pop\n        /* \"#utility.yul\":17511:17753   */\n      pop\n        /* \"#utility.yul\":17770:17774   */\n      dup1\n        /* \"#utility.yul\":17763:17774   */\n      swap2\n      pop\n        /* \"#utility.yul\":17220:17780   */\n      pop\n        /* \"#utility.yul\":17110:17780   */\n      swap3\n      swap2\n      pop\n      pop\n      jump\t// out\n        /* \"#utility.yul\":17856:19417   */\n    tag_277:\n        /* \"#utility.yul\":17961:17964   */\n      0x00\n        /* \"#utility.yul\":17997:18001   */\n      0xa0\n        /* \"#utility.yul\":17992:17995   */\n      dup4\n        /* \"#utility.yul\":17988:18002   */\n      add\n        /* \"#utility.yul\":18082:18086   */\n      0x00\n        /* \"#utility.yul\":18075:18080   */\n      dup4\n        /* \"#utility.yul\":18071:18087   */\n      add\n        /* \"#utility.yul\":18065:18088   */\n      mload\n        /* \"#utility.yul\":18101:18164   */\n      tag_377\n        /* \"#utility.yul\":18158:18162   */\n      0x00\n        /* \"#utility.yul\":18153:18156   */\n      dup7\n        /* \"#utility.yul\":18149:18163   */\n      add\n        /* \"#utility.yul\":18135:18147   */\n      dup3\n        /* \"#utility.yul\":18101:18164   */\n      tag_378\n      jump\t// in\n    tag_377:\n        /* \"#utility.yul\":18012:18174   */\n      pop\n        /* \"#utility.yul\":18256:18260   */\n      0x20\n        /* \"#utility.yul\":18249:18254   */\n      dup4\n        /* \"#utility.yul\":18245:18261   */\n      add\n        /* \"#utility.yul\":18239:18262   */\n      mload\n        /* \"#utility.yul\":18309:18312   */\n      dup5\n        /* \"#utility.yul\":18303:18307   */\n      dup3\n        /* \"#utility.yul\":18299:18313   */\n      sub\n        /* \"#utility.yul\":18292:18296   */\n      0x20\n        /* \"#utility.yul\":18287:18290   */\n      dup7\n        /* \"#utility.yul\":18283:18297   */\n      add\n        /* \"#utility.yul\":18276:18314   */\n      mstore\n        /* \"#utility.yul\":18335:18408   */\n      tag_379\n        /* \"#utility.yul\":18403:18407   */\n      dup3\n        /* \"#utility.yul\":18389:18401   */\n      dup3\n        /* \"#utility.yul\":18335:18408   */\n      tag_346\n      jump\t// in\n    tag_379:\n        /* \"#utility.yul\":18327:18408   */\n      swap2\n      pop\n        /* \"#utility.yul\":18184:18419   */\n      pop\n        /* \"#utility.yul\":18506:18510   */\n      0x40\n        /* \"#utility.yul\":18499:18504   */\n      dup4\n        /* \"#utility.yul\":18495:18511   */\n      add\n        /* \"#utility.yul\":18489:18512   */\n      mload\n        /* \"#utility.yul\":18559:18562   */\n      dup5\n        /* \"#utility.yul\":18553:18557   */\n      dup3\n        /* \"#utility.yul\":18549:18563   */\n      sub\n        /* \"#utility.yul\":18542:18546   */\n      0x40\n        /* \"#utility.yul\":18537:18540   */\n      dup7\n        /* \"#utility.yul\":18533:18547   */\n      add\n        /* \"#utility.yul\":18526:18564   */\n      mstore\n        /* \"#utility.yul\":18585:18734   */\n      tag_380\n        /* \"#utility.yul\":18729:18733   */\n      dup3\n        /* \"#utility.yul\":18715:18727   */\n      dup3\n        /* \"#utility.yul\":18585:18734   */\n      tag_290\n      jump\t// in\n    tag_380:\n        /* \"#utility.yul\":18577:18734   */\n      swap2\n      pop\n        /* \"#utility.yul\":18429:18745   */\n      pop\n        /* \"#utility.yul\":18828:18832   */\n      0x60\n        /* \"#utility.yul\":18821:18826   */\n      dup4\n        /* \"#utility.yul\":18817:18833   */\n      add\n        /* \"#utility.yul\":18811:18834   */\n      mload\n        /* \"#utility.yul\":18881:18884   */\n      dup5\n        /* \"#utility.yul\":18875:18879   */\n      dup3\n        /* \"#utility.yul\":18871:18885   */\n      sub\n        /* \"#utility.yul\":18864:18868   */\n      0x60\n        /* \"#utility.yul\":18859:18862   */\n      dup7\n        /* \"#utility.yul\":18855:18869   */\n      add\n        /* \"#utility.yul\":18848:18886   */\n      mstore\n        /* \"#utility.yul\":18907:19050   */\n      tag_381\n        /* \"#utility.yul\":19045:19049   */\n      dup3\n        /* \"#utility.yul\":19031:19043   */\n      dup3\n        /* \"#utility.yul\":18907:19050   */\n      tag_318\n      jump\t// in\n    tag_381:\n        /* \"#utility.yul\":18899:19050   */\n      swap2\n      pop\n        /* \"#utility.yul\":18755:19061   */\n      pop\n        /* \"#utility.yul\":19149:19153   */\n      0x80\n        /* \"#utility.yul\":19142:19147   */\n      dup4\n        /* \"#utility.yul\":19138:19154   */\n      add\n        /* \"#utility.yul\":19132:19155   */\n      mload\n        /* \"#utility.yul\":19202:19205   */\n      dup5\n        /* \"#utility.yul\":19196:19200   */\n      dup3\n        /* \"#utility.yul\":19192:19206   */\n      sub\n        /* \"#utility.yul\":19185:19189   */\n      0x80\n        /* \"#utility.yul\":19180:19183   */\n      dup7\n        /* \"#utility.yul\":19176:19190   */\n      add\n        /* \"#utility.yul\":19169:19207   */\n      mstore\n        /* \"#utility.yul\":19228:19379   */\n      tag_382\n        /* \"#utility.yul\":19374:19378   */\n      dup3\n        /* \"#utility.yul\":19360:19372   */\n      dup3\n        /* \"#utility.yul\":19228:19379   */\n      tag_332\n      jump\t// in\n    tag_382:\n        /* \"#utility.yul\":19220:19379   */\n      swap2\n      pop\n        /* \"#utility.yul\":19071:19390   */\n      pop\n        /* \"#utility.yul\":19407:19411   */\n      dup1\n        /* \"#utility.yul\":19400:19411   */\n      swap2\n      pop\n        /* \"#utility.yul\":17966:19417   */\n      pop\n        /* \"#utility.yul\":17856:19417   */\n      swap3\n      swap2\n      pop\n      pop\n      jump\t// out\n        /* \"#utility.yul\":19487:19899   */\n    tag_281:\n        /* \"#utility.yul\":19586:19589   */\n      0x00\n        /* \"#utility.yul\":19622:19626   */\n      0x20\n        /* \"#utility.yul\":19617:19620   */\n      dup4\n        /* \"#utility.yul\":19613:19627   */\n      add\n        /* \"#utility.yul\":19709:19713   */\n      0x00\n        /* \"#utility.yul\":19702:19707   */\n      dup4\n        /* \"#utility.yul\":19698:19714   */\n      add\n        /* \"#utility.yul\":19692:19715   */\n      mload\n        /* \"#utility.yul\":19762:19765   */\n      dup5\n        /* \"#utility.yul\":19756:19760   */\n      dup3\n        /* \"#utility.yul\":19752:19766   */\n      sub\n        /* \"#utility.yul\":19745:19749   */\n      0x00\n        /* \"#utility.yul\":19740:19743   */\n      dup7\n        /* \"#utility.yul\":19736:19750   */\n      add\n        /* \"#utility.yul\":19729:19767   */\n      mstore\n        /* \"#utility.yul\":19788:19861   */\n      tag_384\n        /* \"#utility.yul\":19856:19860   */\n      dup3\n        /* \"#utility.yul\":19842:19854   */\n      dup3\n        /* \"#utility.yul\":19788:19861   */\n      tag_346\n      jump\t// in\n    tag_384:\n        /* \"#utility.yul\":19780:19861   */\n      swap2\n      pop\n        /* \"#utility.yul\":19637:19872   */\n      pop\n        /* \"#utility.yul\":19889:19893   */\n      dup1\n        /* \"#utility.yul\":19882:19893   */\n      swap2\n      pop\n        /* \"#utility.yul\":19591:19899   */\n      pop\n        /* \"#utility.yul\":19487:19899   */\n      swap3\n      swap2\n      pop\n      pop\n      jump\t// out\n        /* \"#utility.yul\":19977:20397   */\n    tag_285:\n        /* \"#utility.yul\":20084:20087   */\n      0x00\n        /* \"#utility.yul\":20120:20124   */\n      0x20\n        /* \"#utility.yul\":20115:20118   */\n      dup4\n        /* \"#utility.yul\":20111:20125   */\n      add\n        /* \"#utility.yul\":20207:20211   */\n      0x00\n        /* \"#utility.yul\":20200:20205   */\n      dup4\n        /* \"#utility.yul\":20196:20212   */\n      add\n        /* \"#utility.yul\":20190:20213   */\n      mload\n        /* \"#utility.yul\":20260:20263   */\n      dup5\n        /* \"#utility.yul\":20254:20258   */\n      dup3\n        /* \"#utility.yul\":20250:20264   */\n      sub\n        /* \"#utility.yul\":20243:20247   */\n      0x00\n        /* \"#utility.yul\":20238:20241   */\n      dup7\n        /* \"#utility.yul\":20234:20248   */\n      add\n        /* \"#utility.yul\":20227:20265   */\n      mstore\n        /* \"#utility.yul\":20286:20359   */\n      tag_386\n        /* \"#utility.yul\":20354:20358   */\n      dup3\n        /* \"#utility.yul\":20340:20352   */\n      dup3\n        /* \"#utility.yul\":20286:20359   */\n      tag_346\n      jump\t// in\n    tag_386:\n        /* \"#utility.yul\":20278:20359   */\n      swap2\n      pop\n        /* \"#utility.yul\":20135:20370   */\n      pop\n        /* \"#utility.yul\":20387:20391   */\n      dup1\n        /* \"#utility.yul\":20380:20391   */\n      swap2\n      pop\n        /* \"#utility.yul\":20089:20397   */\n      pop\n        /* \"#utility.yul\":19977:20397   */\n      swap3\n      swap2\n      pop\n      pop\n      jump\t// out\n        /* \"#utility.yul\":20403:20511   */\n    tag_378:\n        /* \"#utility.yul\":20480:20504   */\n      tag_388\n        /* \"#utility.yul\":20498:20503   */\n      dup2\n        /* \"#utility.yul\":20480:20504   */\n      tag_389\n      jump\t// in\n    tag_388:\n        /* \"#utility.yul\":20475:20478   */\n      dup3\n        /* \"#utility.yul\":20468:20505   */\n      mstore\n        /* \"#utility.yul\":20403:20511   */\n      pop\n      pop\n      jump\t// out\n        /* \"#utility.yul\":20517:20635   */\n    tag_390:\n        /* \"#utility.yul\":20604:20628   */\n      tag_392\n        /* \"#utility.yul\":20622:20627   */\n      dup2\n        /* \"#utility.yul\":20604:20628   */\n      tag_389\n      jump\t// in\n    tag_392:\n        /* \"#utility.yul\":20599:20602   */\n      dup3\n        /* \"#utility.yul\":20592:20629   */\n      mstore\n        /* \"#utility.yul\":20517:20635   */\n      pop\n      pop\n      jump\t// out\n        /* \"#utility.yul\":20641:20863   */\n    tag_12:\n        /* \"#utility.yul\":20734:20738   */\n      0x00\n        /* \"#utility.yul\":20772:20774   */\n      0x20\n        /* \"#utility.yul\":20761:20770   */\n      dup3\n        /* \"#utility.yul\":20757:20775   */\n      add\n        /* \"#utility.yul\":20749:20775   */\n      swap1\n      pop\n        /* \"#utility.yul\":20785:20856   */\n      tag_394\n        /* \"#utility.yul\":20853:20854   */\n      0x00\n        /* \"#utility.yul\":20842:20851   */\n      dup4\n        /* \"#utility.yul\":20838:20855   */\n      add\n        /* \"#utility.yul\":20829:20835   */\n      dup5\n        /* \"#utility.yul\":20785:20856   */\n      tag_286\n      jump\t// in\n    tag_394:\n        /* \"#utility.yul\":20641:20863   */\n      swap3\n      swap2\n      pop\n      pop\n      jump\t// out\n        /* \"#utility.yul\":20869:21334   */\n    tag_16:\n        /* \"#utility.yul\":21058:21062   */\n      0x00\n        /* \"#utility.yul\":21096:21098   */\n      0x20\n        /* \"#utility.yul\":21085:21094   */\n      dup3\n        /* \"#utility.yul\":21081:21099   */\n      add\n        /* \"#utility.yul\":21073:21099   */\n      swap1\n      pop\n        /* \"#utility.yul\":21145:21154   */\n      dup2\n        /* \"#utility.yul\":21139:21143   */\n      dup2\n        /* \"#utility.yul\":21135:21155   */\n      sub\n        /* \"#utility.yul\":21131:21132   */\n      0x00\n        /* \"#utility.yul\":21120:21129   */\n      dup4\n        /* \"#utility.yul\":21116:21133   */\n      add\n        /* \"#utility.yul\":21109:21156   */\n      mstore\n        /* \"#utility.yul\":21173:21327   */\n      tag_396\n        /* \"#utility.yul\":21322:21326   */\n      dup2\n        /* \"#utility.yul\":21313:21319   */\n      dup5\n        /* \"#utility.yul\":21173:21327   */\n      tag_304\n      jump\t// in\n    tag_396:\n        /* \"#utility.yul\":21165:21327   */\n      swap1\n      pop\n        /* \"#utility.yul\":20869:21334   */\n      swap3\n      swap2\n      pop\n      pop\n      jump\t// out\n        /* \"#utility.yul\":21340:21759   */\n    tag_70:\n        /* \"#utility.yul\":21506:21510   */\n      0x00\n        /* \"#utility.yul\":21544:21546   */\n      0x20\n        /* \"#utility.yul\":21533:21542   */\n      dup3\n        /* \"#utility.yul\":21529:21547   */\n      add\n        /* \"#utility.yul\":21521:21547   */\n      swap1\n      pop\n        /* \"#utility.yul\":21593:21602   */\n      dup2\n        /* \"#utility.yul\":21587:21591   */\n      dup2\n        /* \"#utility.yul\":21583:21603   */\n      sub\n        /* \"#utility.yul\":21579:21580   */\n      0x00\n        /* \"#utility.yul\":21568:21577   */\n      dup4\n        /* \"#utility.yul\":21564:21581   */\n      add\n        /* \"#utility.yul\":21557:21604   */\n      mstore\n        /* \"#utility.yul\":21621:21752   */\n      tag_398\n        /* \"#utility.yul\":21747:21751   */\n      dup2\n        /* \"#utility.yul\":21621:21752   */\n      tag_363\n      jump\t// in\n    tag_398:\n        /* \"#utility.yul\":21613:21752   */\n      swap1\n      pop\n        /* \"#utility.yul\":21340:21759   */\n      swap2\n      swap1\n      pop\n      jump\t// out\n        /* \"#utility.yul\":21765:22184   */\n    tag_67:\n        /* \"#utility.yul\":21931:21935   */\n      0x00\n        /* \"#utility.yul\":21969:21971   */\n      0x20\n        /* \"#utility.yul\":21958:21967   */\n      dup3\n        /* \"#utility.yul\":21954:21972   */\n      add\n        /* \"#utility.yul\":21946:21972   */\n      swap1\n      pop\n        /* \"#utility.yul\":22018:22027   */\n      dup2\n        /* \"#utility.yul\":22012:22016   */\n      dup2\n        /* \"#utility.yul\":22008:22028   */\n      sub\n        /* \"#utility.yul\":22004:22005   */\n      0x00\n        /* \"#utility.yul\":21993:22002   */\n      dup4\n        /* \"#utility.yul\":21989:22006   */\n      add\n        /* \"#utility.yul\":21982:22029   */\n      mstore\n        /* \"#utility.yul\":22046:22177   */\n      tag_400\n        /* \"#utility.yul\":22172:22176   */\n      dup2\n        /* \"#utility.yul\":22046:22177   */\n      tag_368\n      jump\t// in\n    tag_400:\n        /* \"#utility.yul\":22038:22177   */\n      swap1\n      pop\n        /* \"#utility.yul\":21765:22184   */\n      swap2\n      swap1\n      pop\n      jump\t// out\n        /* \"#utility.yul\":22190:22613   */\n    tag_126:\n        /* \"#utility.yul\":22331:22335   */\n      0x00\n        /* \"#utility.yul\":22369:22371   */\n      0x40\n        /* \"#utility.yul\":22358:22367   */\n      dup3\n        /* \"#utility.yul\":22354:22372   */\n      add\n        /* \"#utility.yul\":22346:22372   */\n      swap1\n      pop\n        /* \"#utility.yul\":22382:22453   */\n      tag_402\n        /* \"#utility.yul\":22450:22451   */\n      0x00\n        /* \"#utility.yul\":22439:22448   */\n      dup4\n        /* \"#utility.yul\":22435:22452   */\n      add\n        /* \"#utility.yul\":22426:22432   */\n      dup6\n        /* \"#utility.yul\":22382:22453   */\n      tag_390\n      jump\t// in\n    tag_402:\n        /* \"#utility.yul\":22500:22509   */\n      dup2\n        /* \"#utility.yul\":22494:22498   */\n      dup2\n        /* \"#utility.yul\":22490:22510   */\n      sub\n        /* \"#utility.yul\":22485:22487   */\n      0x20\n        /* \"#utility.yul\":22474:22483   */\n      dup4\n        /* \"#utility.yul\":22470:22488   */\n      add\n        /* \"#utility.yul\":22463:22511   */\n      mstore\n        /* \"#utility.yul\":22528:22606   */\n      tag_403\n        /* \"#utility.yul\":22601:22605   */\n      dup2\n        /* \"#utility.yul\":22592:22598   */\n      dup5\n        /* \"#utility.yul\":22528:22606   */\n      tag_356\n      jump\t// in\n    tag_403:\n        /* \"#utility.yul\":22520:22606   */\n      swap1\n      pop\n        /* \"#utility.yul\":22190:22613   */\n      swap4\n      swap3\n      pop\n      pop\n      pop\n      jump\t// out\n        /* \"#utility.yul\":22619:22951   */\n    tag_24:\n        /* \"#utility.yul\":22740:22744   */\n      0x00\n        /* \"#utility.yul\":22778:22780   */\n      0x40\n        /* \"#utility.yul\":22767:22776   */\n      dup3\n        /* \"#utility.yul\":22763:22781   */\n      add\n        /* \"#utility.yul\":22755:22781   */\n      swap1\n      pop\n        /* \"#utility.yul\":22791:22862   */\n      tag_405\n        /* \"#utility.yul\":22859:22860   */\n      0x00\n        /* \"#utility.yul\":22848:22857   */\n      dup4\n        /* \"#utility.yul\":22844:22861   */\n      add\n        /* \"#utility.yul\":22835:22841   */\n      dup6\n        /* \"#utility.yul\":22791:22862   */\n      tag_390\n      jump\t// in\n    tag_405:\n        /* \"#utility.yul\":22872:22944   */\n      tag_406\n        /* \"#utility.yul\":22940:22942   */\n      0x20\n        /* \"#utility.yul\":22929:22938   */\n      dup4\n        /* \"#utility.yul\":22925:22943   */\n      add\n        /* \"#utility.yul\":22916:22922   */\n      dup5\n        /* \"#utility.yul\":22872:22944   */\n      tag_390\n      jump\t// in\n    tag_406:\n        /* \"#utility.yul\":22619:22951   */\n      swap4\n      swap3\n      pop\n      pop\n      pop\n      jump\t// out\n        /* \"#utility.yul\":22957:23086   */\n    tag_148:\n        /* \"#utility.yul\":22991:22997   */\n      0x00\n        /* \"#utility.yul\":23018:23038   */\n      tag_408\n      tag_409\n      jump\t// in\n    tag_408:\n        /* \"#utility.yul\":23008:23038   */\n      swap1\n      pop\n        /* \"#utility.yul\":23047:23080   */\n      tag_410\n        /* \"#utility.yul\":23075:23079   */\n      dup3\n        /* \"#utility.yul\":23067:23073   */\n      dup3\n        /* \"#utility.yul\":23047:23080   */\n      tag_411\n      jump\t// in\n    tag_410:\n        /* \"#utility.yul\":22957:23086   */\n      swap2\n      swap1\n      pop\n      jump\t// out\n        /* \"#utility.yul\":23092:23167   */\n    tag_409:\n        /* \"#utility.yul\":23125:23131   */\n      0x00\n        /* \"#utility.yul\":23158:23160   */\n      0x40\n        /* \"#utility.yul\":23152:23161   */\n      mload\n        /* \"#utility.yul\":23142:23161   */\n      swap1\n      pop\n        /* \"#utility.yul\":23092:23167   */\n      swap1\n      jump\t// out\n        /* \"#utility.yul\":23173:23507   */\n    tag_147:\n        /* \"#utility.yul\":23273:23277   */\n      0x00\n        /* \"#utility.yul\":23363:23381   */\n      0xffffffffffffffff\n        /* \"#utility.yul\":23355:23361   */\n      dup3\n        /* \"#utility.yul\":23352:23382   */\n      gt\n        /* \"#utility.yul\":23349:23405   */\n      iszero\n      tag_414\n      jumpi\n        /* \"#utility.yul\":23385:23403   */\n      tag_415\n      tag_416\n      jump\t// in\n    tag_415:\n        /* \"#utility.yul\":23349:23405   */\n    tag_414:\n        /* \"#utility.yul\":23435:23439   */\n      0x20\n        /* \"#utility.yul\":23427:23433   */\n      dup3\n        /* \"#utility.yul\":23423:23440   */\n      mul\n        /* \"#utility.yul\":23415:23440   */\n      swap1\n      pop\n        /* \"#utility.yul\":23495:23499   */\n      0x20\n        /* \"#utility.yul\":23489:23493   */\n      dup2\n        /* \"#utility.yul\":23485:23500   */\n      add\n        /* \"#utility.yul\":23477:23500   */\n      swap1\n      pop\n        /* \"#utility.yul\":23173:23507   */\n      swap2\n      swap1\n      pop\n      jump\t// out\n        /* \"#utility.yul\":23513:23844   */\n    tag_164:\n        /* \"#utility.yul\":23610:23614   */\n      0x00\n        /* \"#utility.yul\":23700:23718   */\n      0xffffffffffffffff\n        /* \"#utility.yul\":23692:23698   */\n      dup3\n        /* \"#utility.yul\":23689:23719   */\n      gt\n        /* \"#utility.yul\":23686:23742   */\n      iszero\n      tag_418\n      jumpi\n        /* \"#utility.yul\":23722:23740   */\n      tag_419\n      tag_416\n      jump\t// in\n    tag_419:\n        /* \"#utility.yul\":23686:23742   */\n    tag_418:\n        /* \"#utility.yul\":23772:23776   */\n      0x20\n        /* \"#utility.yul\":23764:23770   */\n      dup3\n        /* \"#utility.yul\":23760:23777   */\n      mul\n        /* \"#utility.yul\":23752:23777   */\n      swap1\n      pop\n        /* \"#utility.yul\":23832:23836   */\n      0x20\n        /* \"#utility.yul\":23826:23830   */\n      dup2\n        /* \"#utility.yul\":23822:23837   */\n      add\n        /* \"#utility.yul\":23814:23837   */\n      swap1\n      pop\n        /* \"#utility.yul\":23513:23844   */\n      swap2\n      swap1\n      pop\n      jump\t// out\n        /* \"#utility.yul\":23850:24185   */\n    tag_178:\n        /* \"#utility.yul\":23951:23955   */\n      0x00\n        /* \"#utility.yul\":24041:24059   */\n      0xffffffffffffffff\n        /* \"#utility.yul\":24033:24039   */\n      dup3\n        /* \"#utility.yul\":24030:24060   */\n      gt\n        /* \"#utility.yul\":24027:24083   */\n      iszero\n      tag_421\n      jumpi\n        /* \"#utility.yul\":24063:24081   */\n      tag_422\n      tag_416\n      jump\t// in\n    tag_422:\n        /* \"#utility.yul\":24027:24083   */\n    tag_421:\n        /* \"#utility.yul\":24113:24117   */\n      0x20\n        /* \"#utility.yul\":24105:24111   */\n      dup3\n        /* \"#utility.yul\":24101:24118   */\n      mul\n        /* \"#utility.yul\":24093:24118   */\n      swap1\n      pop\n        /* \"#utility.yul\":24173:24177   */\n      0x20\n        /* \"#utility.yul\":24167:24171   */\n      dup2\n        /* \"#utility.yul\":24163:24178   */\n      add\n        /* \"#utility.yul\":24155:24178   */\n      swap1\n      pop\n        /* \"#utility.yul\":23850:24185   */\n      swap2\n      swap1\n      pop\n      jump\t// out\n        /* \"#utility.yul\":24191:24499   */\n    tag_192:\n        /* \"#utility.yul\":24253:24257   */\n      0x00\n        /* \"#utility.yul\":24343:24361   */\n      0xffffffffffffffff\n        /* \"#utility.yul\":24335:24341   */\n      dup3\n        /* \"#utility.yul\":24332:24362   */\n      gt\n        /* \"#utility.yul\":24329:24385   */\n      iszero\n      tag_424\n      jumpi\n        /* \"#utility.yul\":24365:24383   */\n      tag_425\n      tag_416\n      jump\t// in\n    tag_425:\n        /* \"#utility.yul\":24329:24385   */\n    tag_424:\n        /* \"#utility.yul\":24403:24432   */\n      tag_426\n        /* \"#utility.yul\":24425:24431   */\n      dup3\n        /* \"#utility.yul\":24403:24432   */\n      tag_355\n      jump\t// in\n    tag_426:\n        /* \"#utility.yul\":24395:24432   */\n      swap1\n      pop\n        /* \"#utility.yul\":24487:24491   */\n      0x20\n        /* \"#utility.yul\":24481:24485   */\n      dup2\n        /* \"#utility.yul\":24477:24492   */\n      add\n        /* \"#utility.yul\":24469:24492   */\n      swap1\n      pop\n        /* \"#utility.yul\":24191:24499   */\n      swap2\n      swap1\n      pop\n      jump\t// out\n        /* \"#utility.yul\":24505:24660   */\n    tag_297:\n        /* \"#utility.yul\":24595:24599   */\n      0x00\n        /* \"#utility.yul\":24618:24621   */\n      dup2\n        /* \"#utility.yul\":24610:24621   */\n      swap1\n      pop\n        /* \"#utility.yul\":24648:24652   */\n      0x20\n        /* \"#utility.yul\":24643:24646   */\n      dup3\n        /* \"#utility.yul\":24639:24653   */\n      add\n        /* \"#utility.yul\":24631:24653   */\n      swap1\n      pop\n        /* \"#utility.yul\":24505:24660   */\n      swap2\n      swap1\n      pop\n      jump\t// out\n        /* \"#utility.yul\":24666:24821   */\n    tag_311:\n        /* \"#utility.yul\":24756:24760   */\n      0x00\n        /* \"#utility.yul\":24779:24782   */\n      dup2\n        /* \"#utility.yul\":24771:24782   */\n      swap1\n      pop\n        /* \"#utility.yul\":24809:24813   */\n      0x20\n        /* \"#utility.yul\":24804:24807   */\n      dup3\n        /* \"#utility.yul\":24800:24814   */\n      add\n        /* \"#utility.yul\":24792:24814   */\n      swap1\n      pop\n        /* \"#utility.yul\":24666:24821   */\n      swap2\n      swap1\n      pop\n      jump\t// out\n        /* \"#utility.yul\":24827:24979   */\n    tag_325:\n        /* \"#utility.yul\":24914:24918   */\n      0x00\n        /* \"#utility.yul\":24937:24940   */\n      dup2\n        /* \"#utility.yul\":24929:24940   */\n      swap1\n      pop\n        /* \"#utility.yul\":24967:24971   */\n      0x20\n        /* \"#utility.yul\":24962:24965   */\n      dup3\n        /* \"#utility.yul\":24958:24972   */\n      add\n        /* \"#utility.yul\":24950:24972   */\n      swap1\n      pop\n        /* \"#utility.yul\":24827:24979   */\n      swap2\n      swap1\n      pop\n      jump\t// out\n        /* \"#utility.yul\":24985:25141   */\n    tag_339:\n        /* \"#utility.yul\":25076:25080   */\n      0x00\n        /* \"#utility.yul\":25099:25102   */\n      dup2\n        /* \"#utility.yul\":25091:25102   */\n      swap1\n      pop\n        /* \"#utility.yul\":25129:25133   */\n      0x20\n        /* \"#utility.yul\":25124:25127   */\n      dup3\n        /* \"#utility.yul\":25120:25134   */\n      add\n        /* \"#utility.yul\":25112:25134   */\n      swap1\n      pop\n        /* \"#utility.yul\":24985:25141   */\n      swap2\n      swap1\n      pop\n      jump\t// out\n        /* \"#utility.yul\":25147:25284   */\n    tag_293:\n        /* \"#utility.yul\":25237:25243   */\n      0x00\n        /* \"#utility.yul\":25271:25276   */\n      dup2\n        /* \"#utility.yul\":25265:25277   */\n      mload\n        /* \"#utility.yul\":25255:25277   */\n      swap1\n      pop\n        /* \"#utility.yul\":25147:25284   */\n      swap2\n      swap1\n      pop\n      jump\t// out\n        /* \"#utility.yul\":25290:25427   */\n    tag_307:\n        /* \"#utility.yul\":25380:25386   */\n      0x00\n        /* \"#utility.yul\":25414:25419   */\n      dup2\n        /* \"#utility.yul\":25408:25420   */\n      mload\n        /* \"#utility.yul\":25398:25420   */\n      swap1\n      pop\n        /* \"#utility.yul\":25290:25427   */\n      swap2\n      swap1\n      pop\n      jump\t// out\n        /* \"#utility.yul\":25433:25567   */\n    tag_321:\n        /* \"#utility.yul\":25520:25526   */\n      0x00\n        /* \"#utility.yul\":25554:25559   */\n      dup2\n        /* \"#utility.yul\":25548:25560   */\n      mload\n        /* \"#utility.yul\":25538:25560   */\n      swap1\n      pop\n        /* \"#utility.yul\":25433:25567   */\n      swap2\n      swap1\n      pop\n      jump\t// out\n        /* \"#utility.yul\":25573:25711   */\n    tag_335:\n        /* \"#utility.yul\":25664:25670   */\n      0x00\n        /* \"#utility.yul\":25698:25703   */\n      dup2\n        /* \"#utility.yul\":25692:25704   */\n      mload\n        /* \"#utility.yul\":25682:25704   */\n      swap1\n      pop\n        /* \"#utility.yul\":25573:25711   */\n      swap2\n      swap1\n      pop\n      jump\t// out\n        /* \"#utility.yul\":25717:25816   */\n    tag_349:\n        /* \"#utility.yul\":25769:25775   */\n      0x00\n        /* \"#utility.yul\":25803:25808   */\n      dup2\n        /* \"#utility.yul\":25797:25809   */\n      mload\n        /* \"#utility.yul\":25787:25809   */\n      swap1\n      pop\n        /* \"#utility.yul\":25717:25816   */\n      swap2\n      swap1\n      pop\n      jump\t// out\n        /* \"#utility.yul\":25822:25958   */\n    tag_303:\n        /* \"#utility.yul\":25915:25919   */\n      0x00\n        /* \"#utility.yul\":25947:25951   */\n      0x20\n        /* \"#utility.yul\":25942:25945   */\n      dup3\n        /* \"#utility.yul\":25938:25952   */\n      add\n        /* \"#utility.yul\":25930:25952   */\n      swap1\n      pop\n        /* \"#utility.yul\":25822:25958   */\n      swap2\n      swap1\n      pop\n      jump\t// out\n        /* \"#utility.yul\":25964:26100   */\n    tag_317:\n        /* \"#utility.yul\":26057:26061   */\n      0x00\n        /* \"#utility.yul\":26089:26093   */\n      0x20\n        /* \"#utility.yul\":26084:26087   */\n      dup3\n        /* \"#utility.yul\":26080:26094   */\n      add\n        /* \"#utility.yul\":26072:26094   */\n      swap1\n      pop\n        /* \"#utility.yul\":25964:26100   */\n      swap2\n      swap1\n      pop\n      jump\t// out\n        /* \"#utility.yul\":26106:26239   */\n    tag_331:\n        /* \"#utility.yul\":26196:26200   */\n      0x00\n        /* \"#utility.yul\":26228:26232   */\n      0x20\n        /* \"#utility.yul\":26223:26226   */\n      dup3\n        /* \"#utility.yul\":26219:26233   */\n      add\n        /* \"#utility.yul\":26211:26233   */\n      swap1\n      pop\n        /* \"#utility.yul\":26106:26239   */\n      swap2\n      swap1\n      pop\n      jump\t// out\n        /* \"#utility.yul\":26245:26382   */\n    tag_345:\n        /* \"#utility.yul\":26339:26343   */\n      0x00\n        /* \"#utility.yul\":26371:26375   */\n      0x20\n        /* \"#utility.yul\":26366:26369   */\n      dup3\n        /* \"#utility.yul\":26362:26376   */\n      add\n        /* \"#utility.yul\":26354:26376   */\n      swap1\n      pop\n        /* \"#utility.yul\":26245:26382   */\n      swap2\n      swap1\n      pop\n      jump\t// out\n        /* \"#utility.yul\":26388:26585   */\n    tag_295:\n        /* \"#utility.yul\":26500:26511   */\n      0x00\n        /* \"#utility.yul\":26534:26540   */\n      dup3\n        /* \"#utility.yul\":26529:26532   */\n      dup3\n        /* \"#utility.yul\":26522:26541   */\n      mstore\n        /* \"#utility.yul\":26574:26578   */\n      0x20\n        /* \"#utility.yul\":26569:26572   */\n      dup3\n        /* \"#utility.yul\":26565:26579   */\n      add\n        /* \"#utility.yul\":26550:26579   */\n      swap1\n      pop\n        /* \"#utility.yul\":26388:26585   */\n      swap3\n      swap2\n      pop\n      pop\n      jump\t// out\n        /* \"#utility.yul\":26591:26798   */\n    tag_309:\n        /* \"#utility.yul\":26713:26724   */\n      0x00\n        /* \"#utility.yul\":26747:26753   */\n      dup3\n        /* \"#utility.yul\":26742:26745   */\n      dup3\n        /* \"#utility.yul\":26735:26754   */\n      mstore\n        /* \"#utility.yul\":26787:26791   */\n      0x20\n        /* \"#utility.yul\":26782:26785   */\n      dup3\n        /* \"#utility.yul\":26778:26792   */\n      add\n        /* \"#utility.yul\":26763:26792   */\n      swap1\n      pop\n        /* \"#utility.yul\":26591:26798   */\n      swap3\n      swap2\n      pop\n      pop\n      jump\t// out\n        /* \"#utility.yul\":26804:26998   */\n    tag_323:\n        /* \"#utility.yul\":26913:26924   */\n      0x00\n        /* \"#utility.yul\":26947:26953   */\n      dup3\n        /* \"#utility.yul\":26942:26945   */\n      dup3\n        /* \"#utility.yul\":26935:26954   */\n      mstore\n        /* \"#utility.yul\":26987:26991   */\n      0x20\n        /* \"#utility.yul\":26982:26985   */\n      dup3\n        /* \"#utility.yul\":26978:26992   */\n      add\n        /* \"#utility.yul\":26963:26992   */\n      swap1\n      pop\n        /* \"#utility.yul\":26804:26998   */\n      swap3\n      swap2\n      pop\n      pop\n      jump\t// out\n        /* \"#utility.yul\":27004:27202   */\n    tag_337:\n        /* \"#utility.yul\":27117:27128   */\n      0x00\n        /* \"#utility.yul\":27151:27157   */\n      dup3\n        /* \"#utility.yul\":27146:27149   */\n      dup3\n        /* \"#utility.yul\":27139:27158   */\n      mstore\n        /* \"#utility.yul\":27191:27195   */\n      0x20\n        /* \"#utility.yul\":27186:27189   */\n      dup3\n        /* \"#utility.yul\":27182:27196   */\n      add\n        /* \"#utility.yul\":27167:27196   */\n      swap1\n      pop\n        /* \"#utility.yul\":27004:27202   */\n      swap3\n      swap2\n      pop\n      pop\n      jump\t// out\n        /* \"#utility.yul\":27208:27367   */\n    tag_351:\n        /* \"#utility.yul\":27282:27293   */\n      0x00\n        /* \"#utility.yul\":27316:27322   */\n      dup3\n        /* \"#utility.yul\":27311:27314   */\n      dup3\n        /* \"#utility.yul\":27304:27323   */\n      mstore\n        /* \"#utility.yul\":27356:27360   */\n      0x20\n        /* \"#utility.yul\":27351:27354   */\n      dup3\n        /* \"#utility.yul\":27347:27361   */\n      add\n        /* \"#utility.yul\":27332:27361   */\n      swap1\n      pop\n        /* \"#utility.yul\":27208:27367   */\n      swap3\n      swap2\n      pop\n      pop\n      jump\t// out\n        /* \"#utility.yul\":27373:27542   */\n    tag_360:\n        /* \"#utility.yul\":27457:27468   */\n      0x00\n        /* \"#utility.yul\":27491:27497   */\n      dup3\n        /* \"#utility.yul\":27486:27489   */\n      dup3\n        /* \"#utility.yul\":27479:27498   */\n      mstore\n        /* \"#utility.yul\":27531:27535   */\n      0x20\n        /* \"#utility.yul\":27526:27529   */\n      dup3\n        /* \"#utility.yul\":27522:27536   */\n      add\n        /* \"#utility.yul\":27507:27536   */\n      swap1\n      pop\n        /* \"#utility.yul\":27373:27542   */\n      swap3\n      swap2\n      pop\n      pop\n      jump\t// out\n        /* \"#utility.yul\":27548:27853   */\n    tag_131:\n        /* \"#utility.yul\":27588:27591   */\n      0x00\n        /* \"#utility.yul\":27607:27627   */\n      tag_447\n        /* \"#utility.yul\":27625:27626   */\n      dup3\n        /* \"#utility.yul\":27607:27627   */\n      tag_389\n      jump\t// in\n    tag_447:\n        /* \"#utility.yul\":27602:27627   */\n      swap2\n      pop\n        /* \"#utility.yul\":27641:27661   */\n      tag_448\n        /* \"#utility.yul\":27659:27660   */\n      dup4\n        /* \"#utility.yul\":27641:27661   */\n      tag_389\n      jump\t// in\n    tag_448:\n        /* \"#utility.yul\":27636:27661   */\n      swap3\n      pop\n        /* \"#utility.yul\":27795:27796   */\n      dup3\n        /* \"#utility.yul\":27727:27793   */\n      0xffffffffffffffffffffffffffffffffffffffffffffffffffffffffffffffff\n        /* \"#utility.yul\":27723:27797   */\n      sub\n        /* \"#utility.yul\":27720:27721   */\n      dup3\n        /* \"#utility.yul\":27717:27798   */\n      gt\n        /* \"#utility.yul\":27714:27821   */\n      iszero\n      tag_449\n      jumpi\n        /* \"#utility.yul\":27801:27819   */\n      tag_450\n      tag_451\n      jump\t// in\n    tag_450:\n        /* \"#utility.yul\":27714:27821   */\n    tag_449:\n        /* \"#utility.yul\":27845:27846   */\n      dup3\n        /* \"#utility.yul\":27842:27843   */\n      dup3\n        /* \"#utility.yul\":27838:27847   */\n      add\n        /* \"#utility.yul\":27831:27847   */\n      swap1\n      pop\n        /* \"#utility.yul\":27548:27853   */\n      swap3\n      swap2\n      pop\n      pop\n      jump\t// out\n        /* \"#utility.yul\":27859:28207   */\n    tag_129:\n        /* \"#utility.yul\":27899:27906   */\n      0x00\n        /* \"#utility.yul\":27922:27942   */\n      tag_453\n        /* \"#utility.yul\":27940:27941   */\n      dup3\n        /* \"#utility.yul\":27922:27942   */\n      tag_389\n      jump\t// in\n    tag_453:\n        /* \"#utility.yul\":27917:27942   */\n      swap2\n      pop\n        /* \"#utility.yul\":27956:27976   */\n      tag_454\n        /* \"#utility.yul\":27974:27975   */\n      dup4\n        /* \"#utility.yul\":27956:27976   */\n      tag_389\n      jump\t// in\n    tag_454:\n        /* \"#utility.yul\":27951:27976   */\n      swap3\n      pop\n        /* \"#utility.yul\":28144:28145   */\n      dup2\n        /* \"#utility.yul\":28076:28142   */\n      0xffffffffffffffffffffffffffffffffffffffffffffffffffffffffffffffff\n        /* \"#utility.yul\":28072:28146   */\n      div\n        /* \"#utility.yul\":28069:28070   */\n      dup4\n        /* \"#utility.yul\":28066:28147   */\n      gt\n        /* \"#utility.yul\":28061:28062   */\n      dup3\n        /* \"#utility.yul\":28054:28063   */\n      iszero\n        /* \"#utility.yul\":28047:28064   */\n      iszero\n        /* \"#utility.yul\":28043:28148   */\n      and\n        /* \"#utility.yul\":28040:28171   */\n      iszero\n      tag_455\n      jumpi\n        /* \"#utility.yul\":28151:28169   */\n      tag_456\n      tag_451\n      jump\t// in\n    tag_456:\n        /* \"#utility.yul\":28040:28171   */\n    tag_455:\n        /* \"#utility.yul\":28199:28200   */\n      dup3\n        /* \"#utility.yul\":28196:28197   */\n      dup3\n        /* \"#utility.yul\":28192:28201   */\n      mul\n        /* \"#utility.yul\":28181:28201   */\n      swap1\n      pop\n        /* \"#utility.yul\":27859:28207   */\n      swap3\n      swap2\n      pop\n      pop\n      jump\t// out\n        /* \"#utility.yul\":28213:28404   */\n    tag_73:\n        /* \"#utility.yul\":28253:28257   */\n      0x00\n        /* \"#utility.yul\":28273:28293   */\n      tag_458\n        /* \"#utility.yul\":28291:28292   */\n      dup3\n        /* \"#utility.yul\":28273:28293   */\n      tag_389\n      jump\t// in\n    tag_458:\n        /* \"#utility.yul\":28268:28293   */\n      swap2\n      pop\n        /* \"#utility.yul\":28307:28327   */\n      tag_459\n        /* \"#utility.yul\":28325:28326   */\n      dup4\n        /* \"#utility.yul\":28307:28327   */\n      tag_389\n      jump\t// in\n    tag_459:\n        /* \"#utility.yul\":28302:28327   */\n      swap3\n      pop\n        /* \"#utility.yul\":28346:28347   */\n      dup3\n        /* \"#utility.yul\":28343:28344   */\n      dup3\n        /* \"#utility.yul\":28340:28348   */\n      lt\n        /* \"#utility.yul\":28337:28371   */\n      iszero\n      tag_460\n      jumpi\n        /* \"#utility.yul\":28351:28369   */\n      tag_461\n      tag_451\n      jump\t// in\n    tag_461:\n        /* \"#utility.yul\":28337:28371   */\n    tag_460:\n        /* \"#utility.yul\":28396:28397   */\n      dup3\n        /* \"#utility.yul\":28393:28394   */\n      dup3\n        /* \"#utility.yul\":28389:28398   */\n      sub\n        /* \"#utility.yul\":28381:28398   */\n      swap1\n      pop\n        /* \"#utility.yul\":28213:28404   */\n      swap3\n      swap2\n      pop\n      pop\n      jump\t// out\n        /* \"#utility.yul\":28410:28506   */\n    tag_289:\n        /* \"#utility.yul\":28447:28454   */\n      0x00\n        /* \"#utility.yul\":28476:28500   */\n      tag_463\n        /* \"#utility.yul\":28494:28499   */\n      dup3\n        /* \"#utility.yul\":28476:28500   */\n      tag_464\n      jump\t// in\n    tag_463:\n        /* \"#utility.yul\":28465:28500   */\n      swap1\n      pop\n        /* \"#utility.yul\":28410:28506   */\n      swap2\n      swap1\n      pop\n      jump\t// out\n        /* \"#utility.yul\":28512:28638   */\n    tag_464:\n        /* \"#utility.yul\":28549:28556   */\n      0x00\n        /* \"#utility.yul\":28589:28631   */\n      0xffffffffffffffffffffffffffffffffffffffff\n        /* \"#utility.yul\":28582:28587   */\n      dup3\n        /* \"#utility.yul\":28578:28632   */\n      and\n        /* \"#utility.yul\":28567:28632   */\n      swap1\n      pop\n        /* \"#utility.yul\":28512:28638   */\n      swap2\n      swap1\n      pop\n      jump\t// out\n        /* \"#utility.yul\":28644:28721   */\n    tag_389:\n        /* \"#utility.yul\":28681:28688   */\n      0x00\n        /* \"#utility.yul\":28710:28715   */\n      dup2\n        /* \"#utility.yul\":28699:28715   */\n      swap1\n      pop\n        /* \"#utility.yul\":28644:28721   */\n      swap2\n      swap1\n      pop\n      jump\t// out\n        /* \"#utility.yul\":28727:28881   */\n    tag_197:\n        /* \"#utility.yul\":28811:28817   */\n      dup3\n        /* \"#utility.yul\":28806:28809   */\n      dup2\n        /* \"#utility.yul\":28801:28804   */\n      dup4\n        /* \"#utility.yul\":28788:28818   */\n      calldatacopy\n        /* \"#utility.yul\":28873:28874   */\n      0x00\n        /* \"#utility.yul\":28864:28870   */\n      dup4\n        /* \"#utility.yul\":28859:28862   */\n      dup4\n        /* \"#utility.yul\":28855:28871   */\n      add\n        /* \"#utility.yul\":28848:28875   */\n      mstore\n        /* \"#utility.yul\":28727:28881   */\n      pop\n      pop\n      pop\n      jump\t// out\n        /* \"#utility.yul\":28887:29194   */\n    tag_353:\n        /* \"#utility.yul\":28955:28956   */\n      0x00\n        /* \"#utility.yul\":28965:29078   */\n    tag_469:\n        /* \"#utility.yul\":28979:28985   */\n      dup4\n        /* \"#utility.yul\":28976:28977   */\n      dup2\n        /* \"#utility.yul\":28973:28986   */\n      lt\n        /* \"#utility.yul\":28965:29078   */\n      iszero\n      tag_471\n      jumpi\n        /* \"#utility.yul\":29064:29065   */\n      dup1\n        /* \"#utility.yul\":29059:29062   */\n      dup3\n        /* \"#utility.yul\":29055:29066   */\n      add\n        /* \"#utility.yul\":29049:29067   */\n      mload\n        /* \"#utility.yul\":29045:29046   */\n      dup2\n        /* \"#utility.yul\":29040:29043   */\n      dup5\n        /* \"#utility.yul\":29036:29047   */\n      add\n        /* \"#utility.yul\":29029:29068   */\n      mstore\n        /* \"#utility.yul\":29001:29003   */\n      0x20\n        /* \"#utility.yul\":28998:28999   */\n      dup2\n        /* \"#utility.yul\":28994:29004   */\n      add\n        /* \"#utility.yul\":28989:29004   */\n      swap1\n      pop\n        /* \"#utility.yul\":28965:29078   */\n      jump(tag_469)\n    tag_471:\n        /* \"#utility.yul\":29096:29102   */\n      dup4\n        /* \"#utility.yul\":29093:29094   */\n      dup2\n        /* \"#utility.yul\":29090:29103   */\n      gt\n        /* \"#utility.yul\":29087:29188   */\n      iszero\n      tag_472\n      jumpi\n        /* \"#utility.yul\":29176:29177   */\n      0x00\n        /* \"#utility.yul\":29167:29173   */\n      dup5\n        /* \"#utility.yul\":29162:29165   */\n      dup5\n        /* \"#utility.yul\":29158:29174   */\n      add\n        /* \"#utility.yul\":29151:29178   */\n      mstore\n        /* \"#utility.yul\":29087:29188   */\n    tag_472:\n        /* \"#utility.yul\":28936:29194   */\n      pop\n        /* \"#utility.yul\":28887:29194   */\n      pop\n      pop\n      pop\n      jump\t// out\n        /* \"#utility.yul\":29200:29520   */\n    tag_30:\n        /* \"#utility.yul\":29244:29250   */\n      0x00\n        /* \"#utility.yul\":29281:29282   */\n      0x02\n        /* \"#utility.yul\":29275:29279   */\n      dup3\n        /* \"#utility.yul\":29271:29283   */\n      div\n        /* \"#utility.yul\":29261:29283   */\n      swap1\n      pop\n        /* \"#utility.yul\":29328:29329   */\n      0x01\n        /* \"#utility.yul\":29322:29326   */\n      dup3\n        /* \"#utility.yul\":29318:29330   */\n      and\n        /* \"#utility.yul\":29349:29367   */\n      dup1\n        /* \"#utility.yul\":29339:29420   */\n      tag_474\n      jumpi\n        /* \"#utility.yul\":29405:29409   */\n      0x7f\n        /* \"#utility.yul\":29397:29403   */\n      dup3\n        /* \"#utility.yul\":29393:29410   */\n      and\n        /* \"#utility.yul\":29383:29410   */\n      swap2\n      pop\n        /* \"#utility.yul\":29339:29420   */\n    tag_474:\n        /* \"#utility.yul\":29467:29469   */\n      0x20\n        /* \"#utility.yul\":29459:29465   */\n      dup3\n        /* \"#utility.yul\":29456:29470   */\n      lt\n        /* \"#utility.yul\":29436:29454   */\n      dup2\n        /* \"#utility.yul\":29433:29471   */\n      eq\n        /* \"#utility.yul\":29430:29514   */\n      iszero\n      tag_475\n      jumpi\n        /* \"#utility.yul\":29486:29504   */\n      tag_476\n      tag_477\n      jump\t// in\n    tag_476:\n        /* \"#utility.yul\":29430:29514   */\n    tag_475:\n        /* \"#utility.yul\":29251:29520   */\n      pop\n        /* \"#utility.yul\":29200:29520   */\n      swap2\n      swap1\n      pop\n      jump\t// out\n        /* \"#utility.yul\":29526:29807   */\n    tag_411:\n        /* \"#utility.yul\":29609:29636   */\n      tag_479\n        /* \"#utility.yul\":29631:29635   */\n      dup3\n        /* \"#utility.yul\":29609:29636   */\n      tag_355\n      jump\t// in\n    tag_479:\n        /* \"#utility.yul\":29601:29607   */\n      dup2\n        /* \"#utility.yul\":29597:29637   */\n      add\n        /* \"#utility.yul\":29739:29745   */\n      dup2\n        /* \"#utility.yul\":29727:29737   */\n      dup2\n        /* \"#utility.yul\":29724:29746   */\n      lt\n        /* \"#utility.yul\":29703:29721   */\n      0xffffffffffffffff\n        /* \"#utility.yul\":29691:29701   */\n      dup3\n        /* \"#utility.yul\":29688:29722   */\n      gt\n        /* \"#utility.yul\":29685:29747   */\n      or\n        /* \"#utility.yul\":29682:29770   */\n      iszero\n      tag_480\n      jumpi\n        /* \"#utility.yul\":29750:29768   */\n      tag_481\n      tag_416\n      jump\t// in\n    tag_481:\n        /* \"#utility.yul\":29682:29770   */\n    tag_480:\n        /* \"#utility.yul\":29790:29800   */\n      dup1\n        /* \"#utility.yul\":29786:29788   */\n      0x40\n        /* \"#utility.yul\":29779:29801   */\n      mstore\n        /* \"#utility.yul\":29569:29807   */\n      pop\n        /* \"#utility.yul\":29526:29807   */\n      pop\n      pop\n      jump\t// out\n        /* \"#utility.yul\":29813:30046   */\n    tag_99:\n        /* \"#utility.yul\":29852:29855   */\n      0x00\n        /* \"#utility.yul\":29875:29899   */\n      tag_483\n        /* \"#utility.yul\":29893:29898   */\n      dup3\n        /* \"#utility.yul\":29875:29899   */\n      tag_389\n      jump\t// in\n    tag_483:\n        /* \"#utility.yul\":29866:29899   */\n      swap2\n      pop\n        /* \"#utility.yul\":29921:29987   */\n      0xffffffffffffffffffffffffffffffffffffffffffffffffffffffffffffffff\n        /* \"#utility.yul\":29914:29919   */\n      dup3\n        /* \"#utility.yul\":29911:29988   */\n      eq\n        /* \"#utility.yul\":29908:30011   */\n      iszero\n      tag_484\n      jumpi\n        /* \"#utility.yul\":29991:30009   */\n      tag_485\n      tag_451\n      jump\t// in\n    tag_485:\n        /* \"#utility.yul\":29908:30011   */\n    tag_484:\n        /* \"#utility.yul\":30038:30039   */\n      0x01\n        /* \"#utility.yul\":30031:30036   */\n      dup3\n        /* \"#utility.yul\":30027:30040   */\n      add\n        /* \"#utility.yul\":30020:30040   */\n      swap1\n      pop\n        /* \"#utility.yul\":29813:30046   */\n      swap2\n      swap1\n      pop\n      jump\t// out\n        /* \"#utility.yul\":30052:30232   */\n    tag_451:\n        /* \"#utility.yul\":30100:30177   */\n      0x4e487b7100000000000000000000000000000000000000000000000000000000\n        /* \"#utility.yul\":30097:30098   */\n      0x00\n        /* \"#utility.yul\":30090:30178   */\n      mstore\n        /* \"#utility.yul\":30197:30201   */\n      0x11\n        /* \"#utility.yul\":30194:30195   */\n      0x04\n        /* \"#utility.yul\":30187:30202   */\n      mstore\n        /* \"#utility.yul\":30221:30225   */\n      0x24\n        /* \"#utility.yul\":30218:30219   */\n      0x00\n        /* \"#utility.yul\":30211:30226   */\n      revert\n        /* \"#utility.yul\":30238:30418   */\n    tag_477:\n        /* \"#utility.yul\":30286:30363   */\n      0x4e487b7100000000000000000000000000000000000000000000000000000000\n        /* \"#utility.yul\":30283:30284   */\n      0x00\n        /* \"#utility.yul\":30276:30364   */\n      mstore\n        /* \"#utility.yul\":30383:30387   */\n      0x22\n        /* \"#utility.yul\":30380:30381   */\n      0x04\n        /* \"#utility.yul\":30373:30388   */\n      mstore\n        /* \"#utility.yul\":30407:30411   */\n      0x24\n        /* \"#utility.yul\":30404:30405   */\n      0x00\n        /* \"#utility.yul\":30397:30412   */\n      revert\n        /* \"#utility.yul\":30424:30604   */\n    tag_76:\n        /* \"#utility.yul\":30472:30549   */\n      0x4e487b7100000000000000000000000000000000000000000000000000000000\n        /* \"#utility.yul\":30469:30470   */\n      0x00\n        /* \"#utility.yul\":30462:30550   */\n      mstore\n        /* \"#utility.yul\":30569:30573   */\n      0x32\n        /* \"#utility.yul\":30566:30567   */\n      0x04\n        /* \"#utility.yul\":30559:30574   */\n      mstore\n        /* \"#utility.yul\":30593:30597   */\n      0x24\n        /* \"#utility.yul\":30590:30591   */\n      0x00\n        /* \"#utility.yul\":30583:30598   */\n      revert\n        /* \"#utility.yul\":30610:30790   */\n    tag_416:\n        /* \"#utility.yul\":30658:30735   */\n      0x4e487b7100000000000000000000000000000000000000000000000000000000\n        /* \"#utility.yul\":30655:30656   */\n      0x00\n        /* \"#utility.yul\":30648:30736   */\n      mstore\n        /* \"#utility.yul\":30755:30759   */\n      0x41\n        /* \"#utility.yul\":30752:30753   */\n      0x04\n        /* \"#utility.yul\":30745:30760   */\n      mstore\n        /* \"#utility.yul\":30779:30783   */\n      0x24\n        /* \"#utility.yul\":30776:30777   */\n      0x00\n        /* \"#utility.yul\":30769:30784   */\n      revert\n        /* \"#utility.yul\":30796:30913   */\n    tag_157:\n        /* \"#utility.yul\":30905:30906   */\n      0x00\n        /* \"#utility.yul\":30902:30903   */\n      dup1\n        /* \"#utility.yul\":30895:30907   */\n      revert\n        /* \"#utility.yul\":30919:31036   */\n    tag_221:\n        /* \"#utility.yul\":31028:31029   */\n      0x00\n        /* \"#utility.yul\":31025:31026   */\n      dup1\n        /* \"#utility.yul\":31018:31030   */\n      revert\n        /* \"#utility.yul\":31042:31159   */\n    tag_225:\n        /* \"#utility.yul\":31151:31152   */\n      0x00\n        /* \"#utility.yul\":31148:31149   */\n      dup1\n        /* \"#utility.yul\":31141:31153   */\n      revert\n        /* \"#utility.yul\":31165:31282   */\n    tag_151:\n        /* \"#utility.yul\":31274:31275   */\n      0x00\n        /* \"#utility.yul\":31271:31272   */\n      dup1\n        /* \"#utility.yul\":31264:31276   */\n      revert\n        /* \"#utility.yul\":31288:31405   */\n    tag_195:\n        /* \"#utility.yul\":31397:31398   */\n      0x00\n        /* \"#utility.yul\":31394:31395   */\n      dup1\n        /* \"#utility.yul\":31387:31399   */\n      revert\n        /* \"#utility.yul\":31411:31528   */\n    tag_254:\n        /* \"#utility.yul\":31520:31521   */\n      0x00\n        /* \"#utility.yul\":31517:31518   */\n      dup1\n        /* \"#utility.yul\":31510:31522   */\n      revert\n        /* \"#utility.yul\":31534:31651   */\n    tag_251:\n        /* \"#utility.yul\":31643:31644   */\n      0x00\n        /* \"#utility.yul\":31640:31641   */\n      dup1\n        /* \"#utility.yul\":31633:31645   */\n      revert\n        /* \"#utility.yul\":31657:31759   */\n    tag_355:\n        /* \"#utility.yul\":31698:31704   */\n      0x00\n        /* \"#utility.yul\":31749:31751   */\n      0x1f\n        /* \"#utility.yul\":31745:31752   */\n      not\n        /* \"#utility.yul\":31740:31742   */\n      0x1f\n        /* \"#utility.yul\":31733:31738   */\n      dup4\n        /* \"#utility.yul\":31729:31743   */\n      add\n        /* \"#utility.yul\":31725:31753   */\n      and\n        /* \"#utility.yul\":31715:31753   */\n      swap1\n      pop\n        /* \"#utility.yul\":31657:31759   */\n      swap2\n      swap1\n      pop\n      jump\t// out\n        /* \"#utility.yul\":31765:31993   */\n    tag_367:\n        /* \"#utility.yul\":31905:31939   */\n      0x546865206e616d65206d7573742068617665206d6f7265207468616e20322063\n        /* \"#utility.yul\":31901:31902   */\n      0x00\n        /* \"#utility.yul\":31893:31899   */\n      dup3\n        /* \"#utility.yul\":31889:31903   */\n      add\n        /* \"#utility.yul\":31882:31940   */\n      mstore\n        /* \"#utility.yul\":31974:31985   */\n      0x6861726163746572730000000000000000000000000000000000000000000000\n        /* \"#utility.yul\":31969:31971   */\n      0x20\n        /* \"#utility.yul\":31961:31967   */\n      dup3\n        /* \"#utility.yul\":31957:31972   */\n      add\n        /* \"#utility.yul\":31950:31986   */\n      mstore\n        /* \"#utility.yul\":31765:31993   */\n      pop\n      jump\t// out\n        /* \"#utility.yul\":31999:32178   */\n    tag_372:\n        /* \"#utility.yul\":32139:32170   */\n      0x546865206964206d7573742062652067726561746572207468616e2030000000\n        /* \"#utility.yul\":32135:32136   */\n      0x00\n        /* \"#utility.yul\":32127:32133   */\n      dup3\n        /* \"#utility.yul\":32123:32137   */\n      add\n        /* \"#utility.yul\":32116:32171   */\n      mstore\n        /* \"#utility.yul\":31999:32178   */\n      pop\n      jump\t// out\n        /* \"#utility.yul\":32184:32306   */\n    tag_247:\n        /* \"#utility.yul\":32257:32281   */\n      tag_501\n        /* \"#utility.yul\":32275:32280   */\n      dup2\n        /* \"#utility.yul\":32257:32281   */\n      tag_389\n      jump\t// in\n    tag_501:\n        /* \"#utility.yul\":32250:32255   */\n      dup2\n        /* \"#utility.yul\":32247:32282   */\n      eq\n        /* \"#utility.yul\":32237:32300   */\n      tag_502\n      jumpi\n        /* \"#utility.yul\":32296:32297   */\n      0x00\n        /* \"#utility.yul\":32293:32294   */\n      dup1\n        /* \"#utility.yul\":32286:32298   */\n      revert\n        /* \"#utility.yul\":32237:32300   */\n    tag_502:\n        /* \"#utility.yul\":32184:32306   */\n      pop\n      jump\t// out\n\n    auxdata: 0xa2646970667358221220a0f04e56a0e15aebb55f74cfadc2b4aa8128499c511e062a30cb6c6ab21dd8b464736f6c63430008070033\n}\n",
				"bytecode": {
					"linkReferences": {},
					"object": "608060405234801561001057600080fd5b50611a9d806100206000396000f3fe608060405234801561001057600080fd5b506004361061004c5760003560e01c80632f7467b3146100515780635e91679014610081578063710ebd111461009f578063de292789146100bb575b600080fd5b61006b60048036038101906100669190610fc0565b6100da565b6040516100789190611419565b60405180910390f35b61008961010d565b6040516100969190611434565b60405180910390f35b6100b960048036038101906100b49190610ed5565b610565565b005b6100c3610a10565b6040516100d19291906114c6565b60405180910390f35b60016020528060005260406000206000915054906101000a900473ffffffffffffffffffffffffffffffffffffffff1681565b60606000805480602002602001604051908101604052809291908181526020016000905b8282101561055c57838290600052602060002090600502016040518060a00160405290816000820154815260200160018201805461016e9061183c565b80601f016020809104026020016040519081016040528092919081815260200182805461019a9061183c565b80156101e75780601f106101bc576101008083540402835291602001916101e7565b820191906000526020600020905b8154815290600101906020018083116101ca57829003601f168201915b5050505050815260200160028201805480602002602001604051908101604052809291908181526020016000905b8282101561036b57838290600052602060002090600202016040518060400160405290816000820180546102489061183c565b80601f01602080910402602001604051908101604052809291908181526020018280546102749061183c565b80156102c15780601f10610296576101008083540402835291602001916102c1565b820191906000526020600020905b8154815290600101906020018083116102a457829003601f168201915b505050505081526020016001820180546102da9061183c565b80601f01602080910402602001604051908101604052809291908181526020018280546103069061183c565b80156103535780601f1061032857610100808354040283529160200191610353565b820191906000526020600020905b81548152906001019060200180831161033657829003601f168201915b50505050508152505081526020019060010190610215565b50505050815260200160038201805480602002602001604051908101604052809291908181526020016000905b82821015610458578382906000526020600020016040518060200160405290816000820180546103c79061183c565b80601f01602080910402602001604051908101604052809291908181526020018280546103f39061183c565b80156104405780601f1061041557610100808354040283529160200191610440565b820191906000526020600020905b81548152906001019060200180831161042357829003601f168201915b50505050508152505081526020019060010190610398565b50505050815260200160048201805480602002602001604051908101604052809291908181526020016000905b82821015610545578382906000526020600020016040518060200160405290816000820180546104b49061183c565b80601f01602080910402602001604051908101604052809291908181526020018280546104e09061183c565b801561052d5780601f106105025761010080835404028352916020019161052d565b820191906000526020600020905b81548152906001019060200180831161051057829003601f168201915b50505050508152505081526020019060010190610485565b505050508152505081526020019060010190610131565b50505050905090565b600084116105a8576040517f08c379a000000000000000000000000000000000000000000000000000000000815260040161059f90611476565b60405180910390fd5b60028551116105ec576040517f08c379a00000000000000000000000000000000000000000000000000000000081526004016105e390611456565b60405180910390fd5b600060018160018154018082558091505003906000526020600020905050836000600160008054905061061f919061178a565b815481106106305761062f611946565b5b906000526020600020906005020160000181905550846000600160008054905061065a919061178a565b8154811061066b5761066a611946565b5b9060005260206000209060050201600101908051906020019061068f929190610a41565b5060005b835181101561079b57600060016000805490506106b0919061178a565b815481106106c1576106c0611946565b5b906000526020600020906005020160020160405180604001604052808684815181106106f0576106ef611946565b5b602002602001015160000151815260200186848151811061071457610713611946565b5b60200260200101516020015181525090806001815401808255809150506001900390600052602060002090600202016000909190919091506000820151816000019080519060200190610768929190610a41565b506020820151816001019080519060200190610785929190610a41565b50505080806107939061189f565b915050610693565b5060005b825181101561086257600060016000805490506107bc919061178a565b815481106107cd576107cc611946565b5b906000526020600020906005020160030160405180602001604052808584815181106107fc576107fb611946565b5b60200260200101516000015181525090806001815401808255809150506001900390600052602060002001600090919091909150600082015181600001908051906020019061084c929190610a41565b505050808061085a9061189f565b91505061079f565b5060005b81518110156109295760006001600080549050610883919061178a565b8154811061089457610893611946565b5b906000526020600020906005020160040160405180602001604052808484815181106108c3576108c2611946565b5b602002602001015160000151815250908060018154018082558091505060019003906000526020600020016000909190919091506000820151816000019080519060200190610913929190610a41565b50505080806109219061189f565b915050610866565b50336001600086815260200190815260200160002060006101000a81548173ffffffffffffffffffffffffffffffffffffffff021916908373ffffffffffffffffffffffffffffffffffffffff160217905550600260003373ffffffffffffffffffffffffffffffffffffffff1673ffffffffffffffffffffffffffffffffffffffff16815260200190815260200160002060008154809291906109cc9061189f565b91905055507e570a6686f18a686cdda2f62a7954c6bd78c21f4b33df90b0a5479f5ae8a9a88486604051610a01929190611496565b60405180910390a15050505050565b6000806000600190506000600290508082610a2b9190611730565b93508082610a3991906116da565b925050509091565b828054610a4d9061183c565b90600052602060002090601f016020900481019282610a6f5760008555610ab6565b82601f10610a8857805160ff1916838001178555610ab6565b82800160010185558215610ab6579182015b82811115610ab5578251825591602001919060010190610a9a565b5b509050610ac39190610ac7565b5090565b5b80821115610ae0576000816000905550600101610ac8565b5090565b6000610af7610af284611514565b6114ef565b90508083825260208201905082856020860282011115610b1a57610b196119b3565b5b60005b85811015610b6857813567ffffffffffffffff811115610b4057610b3f6119a4565b5b808601610b4d8982610d88565b85526020850194506020840193505050600181019050610b1d565b5050509392505050565b6000610b85610b8084611540565b6114ef565b90508083825260208201905082856020860282011115610ba857610ba76119b3565b5b60005b85811015610bf657813567ffffffffffffffff811115610bce57610bcd6119a4565b5b808601610bdb8982610e10565b85526020850194506020840193505050600181019050610bab565b5050509392505050565b6000610c13610c0e8461156c565b6114ef565b90508083825260208201905082856020860282011115610c3657610c356119b3565b5b60005b85811015610c8457813567ffffffffffffffff811115610c5c57610c5b6119a4565b5b808601610c698982610e68565b85526020850194506020840193505050600181019050610c39565b5050509392505050565b6000610ca1610c9c84611598565b6114ef565b905082815260208101848484011115610cbd57610cbc6119b8565b5b610cc88482856117fa565b509392505050565b600082601f830112610ce557610ce46119a4565b5b8135610cf5848260208601610ae4565b91505092915050565b600082601f830112610d1357610d126119a4565b5b8135610d23848260208601610b72565b91505092915050565b600082601f830112610d4157610d406119a4565b5b8135610d51848260208601610c00565b91505092915050565b600082601f830112610d6f57610d6e6119a4565b5b8135610d7f848260208601610c8e565b91505092915050565b600060408284031215610d9e57610d9d6119a9565b5b610da860406114ef565b9050600082013567ffffffffffffffff811115610dc857610dc76119ae565b5b610dd484828501610d5a565b600083015250602082013567ffffffffffffffff811115610df857610df76119ae565b5b610e0484828501610d5a565b60208301525092915050565b600060208284031215610e2657610e256119a9565b5b610e3060206114ef565b9050600082013567ffffffffffffffff811115610e5057610e4f6119ae565b5b610e5c84828501610d5a565b60008301525092915050565b600060208284031215610e7e57610e7d6119a9565b5b610e8860206114ef565b9050600082013567ffffffffffffffff811115610ea857610ea76119ae565b5b610eb484828501610d5a565b60008301525092915050565b600081359050610ecf81611a50565b92915050565b600080600080600060a08688031215610ef157610ef06119c2565b5b600086013567ffffffffffffffff811115610f0f57610f0e6119bd565b5b610f1b88828901610d5a565b9550506020610f2c88828901610ec0565b945050604086013567ffffffffffffffff811115610f4d57610f4c6119bd565b5b610f5988828901610cd0565b935050606086013567ffffffffffffffff811115610f7a57610f796119bd565b5b610f8688828901610cfe565b925050608086013567ffffffffffffffff811115610fa757610fa66119bd565b5b610fb388828901610d2c565b9150509295509295909350565b600060208284031215610fd657610fd56119c2565b5b6000610fe484828501610ec0565b91505092915050565b6000610ff983836112d8565b905092915050565b600061100d838361131c565b905092915050565b600061102183836113a7565b905092915050565b600061103583836113d1565b905092915050565b611046816117be565b82525050565b600061105782611609565b6110618185611674565b935083602082028501611073856115c9565b8060005b858110156110af57848403895281516110908582610fed565b945061109b83611640565b925060208a01995050600181019050611077565b50829750879550505050505092915050565b60006110cc82611614565b6110d68185611685565b9350836020820285016110e8856115d9565b8060005b8581101561112457848403895281516111058582611001565b94506111108361164d565b925060208a019950506001810190506110ec565b50829750879550505050505092915050565b60006111418261161f565b61114b8185611696565b93508360208202850161115d856115e9565b8060005b85811015611199578484038952815161117a8582611015565b94506111858361165a565b925060208a01995050600181019050611161565b50829750879550505050505092915050565b60006111b68261162a565b6111c081856116a7565b9350836020820285016111d2856115f9565b8060005b8581101561120e57848403895281516111ef8582611029565b94506111fa83611667565b925060208a019950506001810190506111d6565b50829750879550505050505092915050565b600061122b82611635565b61123581856116b8565b9350611245818560208601611809565b61124e816119c7565b840191505092915050565b600061126482611635565b61126e81856116c9565b935061127e818560208601611809565b611287816119c7565b840191505092915050565b600061129f6029836116c9565b91506112aa826119d8565b604082019050919050565b60006112c2601d836116c9565b91506112cd82611a27565b602082019050919050565b600060408301600083015184820360008601526112f58282611220565b9150506020830151848203602086015261130f8282611220565b9150508091505092915050565b600060a08301600083015161133460008601826113fb565b506020830151848203602086015261134c8282611220565b91505060408301518482036040860152611366828261104c565b915050606083015184820360608601526113808282611136565b9150506080830151848203608086015261139a82826111ab565b9150508091505092915050565b600060208301600083015184820360008601526113c48282611220565b9150508091505092915050565b600060208301600083015184820360008601526113ee8282611220565b9150508091505092915050565b611404816117f0565b82525050565b611413816117f0565b82525050565b600060208201905061142e600083018461103d565b92915050565b6000602082019050818103600083015261144e81846110c1565b905092915050565b6000602082019050818103600083015261146f81611292565b9050919050565b6000602082019050818103600083015261148f816112b5565b9050919050565b60006040820190506114ab600083018561140a565b81810360208301526114bd8184611259565b90509392505050565b60006040820190506114db600083018561140a565b6114e8602083018461140a565b9392505050565b60006114f961150a565b9050611505828261186e565b919050565b6000604051905090565b600067ffffffffffffffff82111561152f5761152e611975565b5b602082029050602081019050919050565b600067ffffffffffffffff82111561155b5761155a611975565b5b602082029050602081019050919050565b600067ffffffffffffffff82111561158757611586611975565b5b602082029050602081019050919050565b600067ffffffffffffffff8211156115b3576115b2611975565b5b6115bc826119c7565b9050602081019050919050565b6000819050602082019050919050565b6000819050602082019050919050565b6000819050602082019050919050565b6000819050602082019050919050565b600081519050919050565b600081519050919050565b600081519050919050565b600081519050919050565b600081519050919050565b6000602082019050919050565b6000602082019050919050565b6000602082019050919050565b6000602082019050919050565b600082825260208201905092915050565b600082825260208201905092915050565b600082825260208201905092915050565b600082825260208201905092915050565b600082825260208201905092915050565b600082825260208201905092915050565b60006116e5826117f0565b91506116f0836117f0565b9250827fffffffffffffffffffffffffffffffffffffffffffffffffffffffffffffffff03821115611725576117246118e8565b5b828201905092915050565b600061173b826117f0565b9150611746836117f0565b9250817fffffffffffffffffffffffffffffffffffffffffffffffffffffffffffffffff048311821515161561177f5761177e6118e8565b5b828202905092915050565b6000611795826117f0565b91506117a0836117f0565b9250828210156117b3576117b26118e8565b5b828203905092915050565b60006117c9826117d0565b9050919050565b600073ffffffffffffffffffffffffffffffffffffffff82169050919050565b6000819050919050565b82818337600083830152505050565b60005b8381101561182757808201518184015260208101905061180c565b83811115611836576000848401525b50505050565b6000600282049050600182168061185457607f821691505b6020821081141561186857611867611917565b5b50919050565b611877826119c7565b810181811067ffffffffffffffff8211171561189657611895611975565b5b80604052505050565b60006118aa826117f0565b91507fffffffffffffffffffffffffffffffffffffffffffffffffffffffffffffffff8214156118dd576118dc6118e8565b5b600182019050919050565b7f4e487b7100000000000000000000000000000000000000000000000000000000600052601160045260246000fd5b7f4e487b7100000000000000000000000000000000000000000000000000000000600052602260045260246000fd5b7f4e487b7100000000000000000000000000000000000000000000000000000000600052603260045260246000fd5b7f4e487b7100000000000000000000000000000000000000000000000000000000600052604160045260246000fd5b600080fd5b600080fd5b600080fd5b600080fd5b600080fd5b600080fd5b600080fd5b6000601f19601f8301169050919050565b7f546865206e616d65206d7573742068617665206d6f7265207468616e2032206360008201527f6861726163746572730000000000000000000000000000000000000000000000602082015250565b7f546865206964206d7573742062652067726561746572207468616e2030000000600082015250565b611a59816117f0565b8114611a6457600080fd5b5056fea2646970667358221220a0f04e56a0e15aebb55f74cfadc2b4aa8128499c511e062a30cb6c6ab21dd8b464736f6c63430008070033",
					"opcodes": "PUSH1 0x80 PUSH1 0x40 MSTORE CALLVALUE DUP1 ISZERO PUSH2 0x10 JUMPI PUSH1 0x0 DUP1 REVERT JUMPDEST POP PUSH2 0x1A9D DUP1 PUSH2 0x20 PUSH1 0x0 CODECOPY PUSH1 0x0 RETURN INVALID PUSH1 0x80 PUSH1 0x40 MSTORE CALLVALUE DUP1 ISZERO PUSH2 0x10 JUMPI PUSH1 0x0 DUP1 REVERT JUMPDEST POP PUSH1 0x4 CALLDATASIZE LT PUSH2 0x4C JUMPI PUSH1 0x0 CALLDATALOAD PUSH1 0xE0 SHR DUP1 PUSH4 0x2F7467B3 EQ PUSH2 0x51 JUMPI DUP1 PUSH4 0x5E916790 EQ PUSH2 0x81 JUMPI DUP1 PUSH4 0x710EBD11 EQ PUSH2 0x9F JUMPI DUP1 PUSH4 0xDE292789 EQ PUSH2 0xBB JUMPI JUMPDEST PUSH1 0x0 DUP1 REVERT JUMPDEST PUSH2 0x6B PUSH1 0x4 DUP1 CALLDATASIZE SUB DUP2 ADD SWAP1 PUSH2 0x66 SWAP2 SWAP1 PUSH2 0xFC0 JUMP JUMPDEST PUSH2 0xDA JUMP JUMPDEST PUSH1 0x40 MLOAD PUSH2 0x78 SWAP2 SWAP1 PUSH2 0x1419 JUMP JUMPDEST PUSH1 0x40 MLOAD DUP1 SWAP2 SUB SWAP1 RETURN JUMPDEST PUSH2 0x89 PUSH2 0x10D JUMP JUMPDEST PUSH1 0x40 MLOAD PUSH2 0x96 SWAP2 SWAP1 PUSH2 0x1434 JUMP JUMPDEST PUSH1 0x40 MLOAD DUP1 SWAP2 SUB SWAP1 RETURN JUMPDEST PUSH2 0xB9 PUSH1 0x4 DUP1 CALLDATASIZE SUB DUP2 ADD SWAP1 PUSH2 0xB4 SWAP2 SWAP1 PUSH2 0xED5 JUMP JUMPDEST PUSH2 0x565 JUMP JUMPDEST STOP JUMPDEST PUSH2 0xC3 PUSH2 0xA10 JUMP JUMPDEST PUSH1 0x40 MLOAD PUSH2 0xD1 SWAP3 SWAP2 SWAP1 PUSH2 0x14C6 JUMP JUMPDEST PUSH1 0x40 MLOAD DUP1 SWAP2 SUB SWAP1 RETURN JUMPDEST PUSH1 0x1 PUSH1 0x20 MSTORE DUP1 PUSH1 0x0 MSTORE PUSH1 0x40 PUSH1 0x0 KECCAK256 PUSH1 0x0 SWAP2 POP SLOAD SWAP1 PUSH2 0x100 EXP SWAP1 DIV PUSH20 0xFFFFFFFFFFFFFFFFFFFFFFFFFFFFFFFFFFFFFFFF AND DUP2 JUMP JUMPDEST PUSH1 0x60 PUSH1 0x0 DUP1 SLOAD DUP1 PUSH1 0x20 MUL PUSH1 0x20 ADD PUSH1 0x40 MLOAD SWAP1 DUP2 ADD PUSH1 0x40 MSTORE DUP1 SWAP3 SWAP2 SWAP1 DUP2 DUP2 MSTORE PUSH1 0x20 ADD PUSH1 0x0 SWAP1 JUMPDEST DUP3 DUP3 LT ISZERO PUSH2 0x55C JUMPI DUP4 DUP3 SWAP1 PUSH1 0x0 MSTORE PUSH1 0x20 PUSH1 0x0 KECCAK256 SWAP1 PUSH1 0x5 MUL ADD PUSH1 0x40 MLOAD DUP1 PUSH1 0xA0 ADD PUSH1 0x40 MSTORE SWAP1 DUP2 PUSH1 0x0 DUP3 ADD SLOAD DUP2 MSTORE PUSH1 0x20 ADD PUSH1 0x1 DUP3 ADD DUP1 SLOAD PUSH2 0x16E SWAP1 PUSH2 0x183C JUMP JUMPDEST DUP1 PUSH1 0x1F ADD PUSH1 0x20 DUP1 SWAP2 DIV MUL PUSH1 0x20 ADD PUSH1 0x40 MLOAD SWAP1 DUP2 ADD PUSH1 0x40 MSTORE DUP1 SWAP3 SWAP2 SWAP1 DUP2 DUP2 MSTORE PUSH1 0x20 ADD DUP3 DUP1 SLOAD PUSH2 0x19A SWAP1 PUSH2 0x183C JUMP JUMPDEST DUP1 ISZERO PUSH2 0x1E7 JUMPI DUP1 PUSH1 0x1F LT PUSH2 0x1BC JUMPI PUSH2 0x100 DUP1 DUP4 SLOAD DIV MUL DUP4 MSTORE SWAP2 PUSH1 0x20 ADD SWAP2 PUSH2 0x1E7 JUMP JUMPDEST DUP3 ADD SWAP2 SWAP1 PUSH1 0x0 MSTORE PUSH1 0x20 PUSH1 0x0 KECCAK256 SWAP1 JUMPDEST DUP2 SLOAD DUP2 MSTORE SWAP1 PUSH1 0x1 ADD SWAP1 PUSH1 0x20 ADD DUP1 DUP4 GT PUSH2 0x1CA JUMPI DUP3 SWAP1 SUB PUSH1 0x1F AND DUP3 ADD SWAP2 JUMPDEST POP POP POP POP POP DUP2 MSTORE PUSH1 0x20 ADD PUSH1 0x2 DUP3 ADD DUP1 SLOAD DUP1 PUSH1 0x20 MUL PUSH1 0x20 ADD PUSH1 0x40 MLOAD SWAP1 DUP2 ADD PUSH1 0x40 MSTORE DUP1 SWAP3 SWAP2 SWAP1 DUP2 DUP2 MSTORE PUSH1 0x20 ADD PUSH1 0x0 SWAP1 JUMPDEST DUP3 DUP3 LT ISZERO PUSH2 0x36B JUMPI DUP4 DUP3 SWAP1 PUSH1 0x0 MSTORE PUSH1 0x20 PUSH1 0x0 KECCAK256 SWAP1 PUSH1 0x2 MUL ADD PUSH1 0x40 MLOAD DUP1 PUSH1 0x40 ADD PUSH1 0x40 MSTORE SWAP1 DUP2 PUSH1 0x0 DUP3 ADD DUP1 SLOAD PUSH2 0x248 SWAP1 PUSH2 0x183C JUMP JUMPDEST DUP1 PUSH1 0x1F ADD PUSH1 0x20 DUP1 SWAP2 DIV MUL PUSH1 0x20 ADD PUSH1 0x40 MLOAD SWAP1 DUP2 ADD PUSH1 0x40 MSTORE DUP1 SWAP3 SWAP2 SWAP1 DUP2 DUP2 MSTORE PUSH1 0x20 ADD DUP3 DUP1 SLOAD PUSH2 0x274 SWAP1 PUSH2 0x183C JUMP JUMPDEST DUP1 ISZERO PUSH2 0x2C1 JUMPI DUP1 PUSH1 0x1F LT PUSH2 0x296 JUMPI PUSH2 0x100 DUP1 DUP4 SLOAD DIV MUL DUP4 MSTORE SWAP2 PUSH1 0x20 ADD SWAP2 PUSH2 0x2C1 JUMP JUMPDEST DUP3 ADD SWAP2 SWAP1 PUSH1 0x0 MSTORE PUSH1 0x20 PUSH1 0x0 KECCAK256 SWAP1 JUMPDEST DUP2 SLOAD DUP2 MSTORE SWAP1 PUSH1 0x1 ADD SWAP1 PUSH1 0x20 ADD DUP1 DUP4 GT PUSH2 0x2A4 JUMPI DUP3 SWAP1 SUB PUSH1 0x1F AND DUP3 ADD SWAP2 JUMPDEST POP POP POP POP POP DUP2 MSTORE PUSH1 0x20 ADD PUSH1 0x1 DUP3 ADD DUP1 SLOAD PUSH2 0x2DA SWAP1 PUSH2 0x183C JUMP JUMPDEST DUP1 PUSH1 0x1F ADD PUSH1 0x20 DUP1 SWAP2 DIV MUL PUSH1 0x20 ADD PUSH1 0x40 MLOAD SWAP1 DUP2 ADD PUSH1 0x40 MSTORE DUP1 SWAP3 SWAP2 SWAP1 DUP2 DUP2 MSTORE PUSH1 0x20 ADD DUP3 DUP1 SLOAD PUSH2 0x306 SWAP1 PUSH2 0x183C JUMP JUMPDEST DUP1 ISZERO PUSH2 0x353 JUMPI DUP1 PUSH1 0x1F LT PUSH2 0x328 JUMPI PUSH2 0x100 DUP1 DUP4 SLOAD DIV MUL DUP4 MSTORE SWAP2 PUSH1 0x20 ADD SWAP2 PUSH2 0x353 JUMP JUMPDEST DUP3 ADD SWAP2 SWAP1 PUSH1 0x0 MSTORE PUSH1 0x20 PUSH1 0x0 KECCAK256 SWAP1 JUMPDEST DUP2 SLOAD DUP2 MSTORE SWAP1 PUSH1 0x1 ADD SWAP1 PUSH1 0x20 ADD DUP1 DUP4 GT PUSH2 0x336 JUMPI DUP3 SWAP1 SUB PUSH1 0x1F AND DUP3 ADD SWAP2 JUMPDEST POP POP POP POP POP DUP2 MSTORE POP POP DUP2 MSTORE PUSH1 0x20 ADD SWAP1 PUSH1 0x1 ADD SWAP1 PUSH2 0x215 JUMP JUMPDEST POP POP POP POP DUP2 MSTORE PUSH1 0x20 ADD PUSH1 0x3 DUP3 ADD DUP1 SLOAD DUP1 PUSH1 0x20 MUL PUSH1 0x20 ADD PUSH1 0x40 MLOAD SWAP1 DUP2 ADD PUSH1 0x40 MSTORE DUP1 SWAP3 SWAP2 SWAP1 DUP2 DUP2 MSTORE PUSH1 0x20 ADD PUSH1 0x0 SWAP1 JUMPDEST DUP3 DUP3 LT ISZERO PUSH2 0x458 JUMPI DUP4 DUP3 SWAP1 PUSH1 0x0 MSTORE PUSH1 0x20 PUSH1 0x0 KECCAK256 ADD PUSH1 0x40 MLOAD DUP1 PUSH1 0x20 ADD PUSH1 0x40 MSTORE SWAP1 DUP2 PUSH1 0x0 DUP3 ADD DUP1 SLOAD PUSH2 0x3C7 SWAP1 PUSH2 0x183C JUMP JUMPDEST DUP1 PUSH1 0x1F ADD PUSH1 0x20 DUP1 SWAP2 DIV MUL PUSH1 0x20 ADD PUSH1 0x40 MLOAD SWAP1 DUP2 ADD PUSH1 0x40 MSTORE DUP1 SWAP3 SWAP2 SWAP1 DUP2 DUP2 MSTORE PUSH1 0x20 ADD DUP3 DUP1 SLOAD PUSH2 0x3F3 SWAP1 PUSH2 0x183C JUMP JUMPDEST DUP1 ISZERO PUSH2 0x440 JUMPI DUP1 PUSH1 0x1F LT PUSH2 0x415 JUMPI PUSH2 0x100 DUP1 DUP4 SLOAD DIV MUL DUP4 MSTORE SWAP2 PUSH1 0x20 ADD SWAP2 PUSH2 0x440 JUMP JUMPDEST DUP3 ADD SWAP2 SWAP1 PUSH1 0x0 MSTORE PUSH1 0x20 PUSH1 0x0 KECCAK256 SWAP1 JUMPDEST DUP2 SLOAD DUP2 MSTORE SWAP1 PUSH1 0x1 ADD SWAP1 PUSH1 0x20 ADD DUP1 DUP4 GT PUSH2 0x423 JUMPI DUP3 SWAP1 SUB PUSH1 0x1F AND DUP3 ADD SWAP2 JUMPDEST POP POP POP POP POP DUP2 MSTORE POP POP DUP2 MSTORE PUSH1 0x20 ADD SWAP1 PUSH1 0x1 ADD SWAP1 PUSH2 0x398 JUMP JUMPDEST POP POP POP POP DUP2 MSTORE PUSH1 0x20 ADD PUSH1 0x4 DUP3 ADD DUP1 SLOAD DUP1 PUSH1 0x20 MUL PUSH1 0x20 ADD PUSH1 0x40 MLOAD SWAP1 DUP2 ADD PUSH1 0x40 MSTORE DUP1 SWAP3 SWAP2 SWAP1 DUP2 DUP2 MSTORE PUSH1 0x20 ADD PUSH1 0x0 SWAP1 JUMPDEST DUP3 DUP3 LT ISZERO PUSH2 0x545 JUMPI DUP4 DUP3 SWAP1 PUSH1 0x0 MSTORE PUSH1 0x20 PUSH1 0x0 KECCAK256 ADD PUSH1 0x40 MLOAD DUP1 PUSH1 0x20 ADD PUSH1 0x40 MSTORE SWAP1 DUP2 PUSH1 0x0 DUP3 ADD DUP1 SLOAD PUSH2 0x4B4 SWAP1 PUSH2 0x183C JUMP JUMPDEST DUP1 PUSH1 0x1F ADD PUSH1 0x20 DUP1 SWAP2 DIV MUL PUSH1 0x20 ADD PUSH1 0x40 MLOAD SWAP1 DUP2 ADD PUSH1 0x40 MSTORE DUP1 SWAP3 SWAP2 SWAP1 DUP2 DUP2 MSTORE PUSH1 0x20 ADD DUP3 DUP1 SLOAD PUSH2 0x4E0 SWAP1 PUSH2 0x183C JUMP JUMPDEST DUP1 ISZERO PUSH2 0x52D JUMPI DUP1 PUSH1 0x1F LT PUSH2 0x502 JUMPI PUSH2 0x100 DUP1 DUP4 SLOAD DIV MUL DUP4 MSTORE SWAP2 PUSH1 0x20 ADD SWAP2 PUSH2 0x52D JUMP JUMPDEST DUP3 ADD SWAP2 SWAP1 PUSH1 0x0 MSTORE PUSH1 0x20 PUSH1 0x0 KECCAK256 SWAP1 JUMPDEST DUP2 SLOAD DUP2 MSTORE SWAP1 PUSH1 0x1 ADD SWAP1 PUSH1 0x20 ADD DUP1 DUP4 GT PUSH2 0x510 JUMPI DUP3 SWAP1 SUB PUSH1 0x1F AND DUP3 ADD SWAP2 JUMPDEST POP POP POP POP POP DUP2 MSTORE POP POP DUP2 MSTORE PUSH1 0x20 ADD SWAP1 PUSH1 0x1 ADD SWAP1 PUSH2 0x485 JUMP JUMPDEST POP POP POP POP DUP2 MSTORE POP POP DUP2 MSTORE PUSH1 0x20 ADD SWAP1 PUSH1 0x1 ADD SWAP1 PUSH2 0x131 JUMP JUMPDEST POP POP POP POP SWAP1 POP SWAP1 JUMP JUMPDEST PUSH1 0x0 DUP5 GT PUSH2 0x5A8 JUMPI PUSH1 0x40 MLOAD PUSH32 0x8C379A000000000000000000000000000000000000000000000000000000000 DUP2 MSTORE PUSH1 0x4 ADD PUSH2 0x59F SWAP1 PUSH2 0x1476 JUMP JUMPDEST PUSH1 0x40 MLOAD DUP1 SWAP2 SUB SWAP1 REVERT JUMPDEST PUSH1 0x2 DUP6 MLOAD GT PUSH2 0x5EC JUMPI PUSH1 0x40 MLOAD PUSH32 0x8C379A000000000000000000000000000000000000000000000000000000000 DUP2 MSTORE PUSH1 0x4 ADD PUSH2 0x5E3 SWAP1 PUSH2 0x1456 JUMP JUMPDEST PUSH1 0x40 MLOAD DUP1 SWAP2 SUB SWAP1 REVERT JUMPDEST PUSH1 0x0 PUSH1 0x1 DUP2 PUSH1 0x1 DUP2 SLOAD ADD DUP1 DUP3 SSTORE DUP1 SWAP2 POP POP SUB SWAP1 PUSH1 0x0 MSTORE PUSH1 0x20 PUSH1 0x0 KECCAK256 SWAP1 POP POP DUP4 PUSH1 0x0 PUSH1 0x1 PUSH1 0x0 DUP1 SLOAD SWAP1 POP PUSH2 0x61F SWAP2 SWAP1 PUSH2 0x178A JUMP JUMPDEST DUP2 SLOAD DUP2 LT PUSH2 0x630 JUMPI PUSH2 0x62F PUSH2 0x1946 JUMP JUMPDEST JUMPDEST SWAP1 PUSH1 0x0 MSTORE PUSH1 0x20 PUSH1 0x0 KECCAK256 SWAP1 PUSH1 0x5 MUL ADD PUSH1 0x0 ADD DUP2 SWAP1 SSTORE POP DUP5 PUSH1 0x0 PUSH1 0x1 PUSH1 0x0 DUP1 SLOAD SWAP1 POP PUSH2 0x65A SWAP2 SWAP1 PUSH2 0x178A JUMP JUMPDEST DUP2 SLOAD DUP2 LT PUSH2 0x66B JUMPI PUSH2 0x66A PUSH2 0x1946 JUMP JUMPDEST JUMPDEST SWAP1 PUSH1 0x0 MSTORE PUSH1 0x20 PUSH1 0x0 KECCAK256 SWAP1 PUSH1 0x5 MUL ADD PUSH1 0x1 ADD SWAP1 DUP1 MLOAD SWAP1 PUSH1 0x20 ADD SWAP1 PUSH2 0x68F SWAP3 SWAP2 SWAP1 PUSH2 0xA41 JUMP JUMPDEST POP PUSH1 0x0 JUMPDEST DUP4 MLOAD DUP2 LT ISZERO PUSH2 0x79B JUMPI PUSH1 0x0 PUSH1 0x1 PUSH1 0x0 DUP1 SLOAD SWAP1 POP PUSH2 0x6B0 SWAP2 SWAP1 PUSH2 0x178A JUMP JUMPDEST DUP2 SLOAD DUP2 LT PUSH2 0x6C1 JUMPI PUSH2 0x6C0 PUSH2 0x1946 JUMP JUMPDEST JUMPDEST SWAP1 PUSH1 0x0 MSTORE PUSH1 0x20 PUSH1 0x0 KECCAK256 SWAP1 PUSH1 0x5 MUL ADD PUSH1 0x2 ADD PUSH1 0x40 MLOAD DUP1 PUSH1 0x40 ADD PUSH1 0x40 MSTORE DUP1 DUP7 DUP5 DUP2 MLOAD DUP2 LT PUSH2 0x6F0 JUMPI PUSH2 0x6EF PUSH2 0x1946 JUMP JUMPDEST JUMPDEST PUSH1 0x20 MUL PUSH1 0x20 ADD ADD MLOAD PUSH1 0x0 ADD MLOAD DUP2 MSTORE PUSH1 0x20 ADD DUP7 DUP5 DUP2 MLOAD DUP2 LT PUSH2 0x714 JUMPI PUSH2 0x713 PUSH2 0x1946 JUMP JUMPDEST JUMPDEST PUSH1 0x20 MUL PUSH1 0x20 ADD ADD MLOAD PUSH1 0x20 ADD MLOAD DUP2 MSTORE POP SWAP1 DUP1 PUSH1 0x1 DUP2 SLOAD ADD DUP1 DUP3 SSTORE DUP1 SWAP2 POP POP PUSH1 0x1 SWAP1 SUB SWAP1 PUSH1 0x0 MSTORE PUSH1 0x20 PUSH1 0x0 KECCAK256 SWAP1 PUSH1 0x2 MUL ADD PUSH1 0x0 SWAP1 SWAP2 SWAP1 SWAP2 SWAP1 SWAP2 POP PUSH1 0x0 DUP3 ADD MLOAD DUP2 PUSH1 0x0 ADD SWAP1 DUP1 MLOAD SWAP1 PUSH1 0x20 ADD SWAP1 PUSH2 0x768 SWAP3 SWAP2 SWAP1 PUSH2 0xA41 JUMP JUMPDEST POP PUSH1 0x20 DUP3 ADD MLOAD DUP2 PUSH1 0x1 ADD SWAP1 DUP1 MLOAD SWAP1 PUSH1 0x20 ADD SWAP1 PUSH2 0x785 SWAP3 SWAP2 SWAP1 PUSH2 0xA41 JUMP JUMPDEST POP POP POP DUP1 DUP1 PUSH2 0x793 SWAP1 PUSH2 0x189F JUMP JUMPDEST SWAP2 POP POP PUSH2 0x693 JUMP JUMPDEST POP PUSH1 0x0 JUMPDEST DUP3 MLOAD DUP2 LT ISZERO PUSH2 0x862 JUMPI PUSH1 0x0 PUSH1 0x1 PUSH1 0x0 DUP1 SLOAD SWAP1 POP PUSH2 0x7BC SWAP2 SWAP1 PUSH2 0x178A JUMP JUMPDEST DUP2 SLOAD DUP2 LT PUSH2 0x7CD JUMPI PUSH2 0x7CC PUSH2 0x1946 JUMP JUMPDEST JUMPDEST SWAP1 PUSH1 0x0 MSTORE PUSH1 0x20 PUSH1 0x0 KECCAK256 SWAP1 PUSH1 0x5 MUL ADD PUSH1 0x3 ADD PUSH1 0x40 MLOAD DUP1 PUSH1 0x20 ADD PUSH1 0x40 MSTORE DUP1 DUP6 DUP5 DUP2 MLOAD DUP2 LT PUSH2 0x7FC JUMPI PUSH2 0x7FB PUSH2 0x1946 JUMP JUMPDEST JUMPDEST PUSH1 0x20 MUL PUSH1 0x20 ADD ADD MLOAD PUSH1 0x0 ADD MLOAD DUP2 MSTORE POP SWAP1 DUP1 PUSH1 0x1 DUP2 SLOAD ADD DUP1 DUP3 SSTORE DUP1 SWAP2 POP POP PUSH1 0x1 SWAP1 SUB SWAP1 PUSH1 0x0 MSTORE PUSH1 0x20 PUSH1 0x0 KECCAK256 ADD PUSH1 0x0 SWAP1 SWAP2 SWAP1 SWAP2 SWAP1 SWAP2 POP PUSH1 0x0 DUP3 ADD MLOAD DUP2 PUSH1 0x0 ADD SWAP1 DUP1 MLOAD SWAP1 PUSH1 0x20 ADD SWAP1 PUSH2 0x84C SWAP3 SWAP2 SWAP1 PUSH2 0xA41 JUMP JUMPDEST POP POP POP DUP1 DUP1 PUSH2 0x85A SWAP1 PUSH2 0x189F JUMP JUMPDEST SWAP2 POP POP PUSH2 0x79F JUMP JUMPDEST POP PUSH1 0x0 JUMPDEST DUP2 MLOAD DUP2 LT ISZERO PUSH2 0x929 JUMPI PUSH1 0x0 PUSH1 0x1 PUSH1 0x0 DUP1 SLOAD SWAP1 POP PUSH2 0x883 SWAP2 SWAP1 PUSH2 0x178A JUMP JUMPDEST DUP2 SLOAD DUP2 LT PUSH2 0x894 JUMPI PUSH2 0x893 PUSH2 0x1946 JUMP JUMPDEST JUMPDEST SWAP1 PUSH1 0x0 MSTORE PUSH1 0x20 PUSH1 0x0 KECCAK256 SWAP1 PUSH1 0x5 MUL ADD PUSH1 0x4 ADD PUSH1 0x40 MLOAD DUP1 PUSH1 0x20 ADD PUSH1 0x40 MSTORE DUP1 DUP5 DUP5 DUP2 MLOAD DUP2 LT PUSH2 0x8C3 JUMPI PUSH2 0x8C2 PUSH2 0x1946 JUMP JUMPDEST JUMPDEST PUSH1 0x20 MUL PUSH1 0x20 ADD ADD MLOAD PUSH1 0x0 ADD MLOAD DUP2 MSTORE POP SWAP1 DUP1 PUSH1 0x1 DUP2 SLOAD ADD DUP1 DUP3 SSTORE DUP1 SWAP2 POP POP PUSH1 0x1 SWAP1 SUB SWAP1 PUSH1 0x0 MSTORE PUSH1 0x20 PUSH1 0x0 KECCAK256 ADD PUSH1 0x0 SWAP1 SWAP2 SWAP1 SWAP2 SWAP1 SWAP2 POP PUSH1 0x0 DUP3 ADD MLOAD DUP2 PUSH1 0x0 ADD SWAP1 DUP1 MLOAD SWAP1 PUSH1 0x20 ADD SWAP1 PUSH2 0x913 SWAP3 SWAP2 SWAP1 PUSH2 0xA41 JUMP JUMPDEST POP POP POP DUP1 DUP1 PUSH2 0x921 SWAP1 PUSH2 0x189F JUMP JUMPDEST SWAP2 POP POP PUSH2 0x866 JUMP JUMPDEST POP CALLER PUSH1 0x1 PUSH1 0x0 DUP7 DUP2 MSTORE PUSH1 0x20 ADD SWAP1 DUP2 MSTORE PUSH1 0x20 ADD PUSH1 0x0 KECCAK256 PUSH1 0x0 PUSH2 0x100 EXP DUP2 SLOAD DUP2 PUSH20 0xFFFFFFFFFFFFFFFFFFFFFFFFFFFFFFFFFFFFFFFF MUL NOT AND SWAP1 DUP4 PUSH20 0xFFFFFFFFFFFFFFFFFFFFFFFFFFFFFFFFFFFFFFFF AND MUL OR SWAP1 SSTORE POP PUSH1 0x2 PUSH1 0x0 CALLER PUSH20 0xFFFFFFFFFFFFFFFFFFFFFFFFFFFFFFFFFFFFFFFF AND PUSH20 0xFFFFFFFFFFFFFFFFFFFFFFFFFFFFFFFFFFFFFFFF AND DUP2 MSTORE PUSH1 0x20 ADD SWAP1 DUP2 MSTORE PUSH1 0x20 ADD PUSH1 0x0 KECCAK256 PUSH1 0x0 DUP2 SLOAD DUP1 SWAP3 SWAP2 SWAP1 PUSH2 0x9CC SWAP1 PUSH2 0x189F JUMP JUMPDEST SWAP2 SWAP1 POP SSTORE POP PUSH31 0x570A6686F18A686CDDA2F62A7954C6BD78C21F4B33DF90B0A5479F5AE8A9A8 DUP5 DUP7 PUSH1 0x40 MLOAD PUSH2 0xA01 SWAP3 SWAP2 SWAP1 PUSH2 0x1496 JUMP JUMPDEST PUSH1 0x40 MLOAD DUP1 SWAP2 SUB SWAP1 LOG1 POP POP POP POP POP JUMP JUMPDEST PUSH1 0x0 DUP1 PUSH1 0x0 PUSH1 0x1 SWAP1 POP PUSH1 0x0 PUSH1 0x2 SWAP1 POP DUP1 DUP3 PUSH2 0xA2B SWAP2 SWAP1 PUSH2 0x1730 JUMP JUMPDEST SWAP4 POP DUP1 DUP3 PUSH2 0xA39 SWAP2 SWAP1 PUSH2 0x16DA JUMP JUMPDEST SWAP3 POP POP POP SWAP1 SWAP2 JUMP JUMPDEST DUP3 DUP1 SLOAD PUSH2 0xA4D SWAP1 PUSH2 0x183C JUMP JUMPDEST SWAP1 PUSH1 0x0 MSTORE PUSH1 0x20 PUSH1 0x0 KECCAK256 SWAP1 PUSH1 0x1F ADD PUSH1 0x20 SWAP1 DIV DUP2 ADD SWAP3 DUP3 PUSH2 0xA6F JUMPI PUSH1 0x0 DUP6 SSTORE PUSH2 0xAB6 JUMP JUMPDEST DUP3 PUSH1 0x1F LT PUSH2 0xA88 JUMPI DUP1 MLOAD PUSH1 0xFF NOT AND DUP4 DUP1 ADD OR DUP6 SSTORE PUSH2 0xAB6 JUMP JUMPDEST DUP3 DUP1 ADD PUSH1 0x1 ADD DUP6 SSTORE DUP3 ISZERO PUSH2 0xAB6 JUMPI SWAP2 DUP3 ADD JUMPDEST DUP3 DUP2 GT ISZERO PUSH2 0xAB5 JUMPI DUP3 MLOAD DUP3 SSTORE SWAP2 PUSH1 0x20 ADD SWAP2 SWAP1 PUSH1 0x1 ADD SWAP1 PUSH2 0xA9A JUMP JUMPDEST JUMPDEST POP SWAP1 POP PUSH2 0xAC3 SWAP2 SWAP1 PUSH2 0xAC7 JUMP JUMPDEST POP SWAP1 JUMP JUMPDEST JUMPDEST DUP1 DUP3 GT ISZERO PUSH2 0xAE0 JUMPI PUSH1 0x0 DUP2 PUSH1 0x0 SWAP1 SSTORE POP PUSH1 0x1 ADD PUSH2 0xAC8 JUMP JUMPDEST POP SWAP1 JUMP JUMPDEST PUSH1 0x0 PUSH2 0xAF7 PUSH2 0xAF2 DUP5 PUSH2 0x1514 JUMP JUMPDEST PUSH2 0x14EF JUMP JUMPDEST SWAP1 POP DUP1 DUP4 DUP3 MSTORE PUSH1 0x20 DUP3 ADD SWAP1 POP DUP3 DUP6 PUSH1 0x20 DUP7 MUL DUP3 ADD GT ISZERO PUSH2 0xB1A JUMPI PUSH2 0xB19 PUSH2 0x19B3 JUMP JUMPDEST JUMPDEST PUSH1 0x0 JUMPDEST DUP6 DUP2 LT ISZERO PUSH2 0xB68 JUMPI DUP2 CALLDATALOAD PUSH8 0xFFFFFFFFFFFFFFFF DUP2 GT ISZERO PUSH2 0xB40 JUMPI PUSH2 0xB3F PUSH2 0x19A4 JUMP JUMPDEST JUMPDEST DUP1 DUP7 ADD PUSH2 0xB4D DUP10 DUP3 PUSH2 0xD88 JUMP JUMPDEST DUP6 MSTORE PUSH1 0x20 DUP6 ADD SWAP5 POP PUSH1 0x20 DUP5 ADD SWAP4 POP POP POP PUSH1 0x1 DUP2 ADD SWAP1 POP PUSH2 0xB1D JUMP JUMPDEST POP POP POP SWAP4 SWAP3 POP POP POP JUMP JUMPDEST PUSH1 0x0 PUSH2 0xB85 PUSH2 0xB80 DUP5 PUSH2 0x1540 JUMP JUMPDEST PUSH2 0x14EF JUMP JUMPDEST SWAP1 POP DUP1 DUP4 DUP3 MSTORE PUSH1 0x20 DUP3 ADD SWAP1 POP DUP3 DUP6 PUSH1 0x20 DUP7 MUL DUP3 ADD GT ISZERO PUSH2 0xBA8 JUMPI PUSH2 0xBA7 PUSH2 0x19B3 JUMP JUMPDEST JUMPDEST PUSH1 0x0 JUMPDEST DUP6 DUP2 LT ISZERO PUSH2 0xBF6 JUMPI DUP2 CALLDATALOAD PUSH8 0xFFFFFFFFFFFFFFFF DUP2 GT ISZERO PUSH2 0xBCE JUMPI PUSH2 0xBCD PUSH2 0x19A4 JUMP JUMPDEST JUMPDEST DUP1 DUP7 ADD PUSH2 0xBDB DUP10 DUP3 PUSH2 0xE10 JUMP JUMPDEST DUP6 MSTORE PUSH1 0x20 DUP6 ADD SWAP5 POP PUSH1 0x20 DUP5 ADD SWAP4 POP POP POP PUSH1 0x1 DUP2 ADD SWAP1 POP PUSH2 0xBAB JUMP JUMPDEST POP POP POP SWAP4 SWAP3 POP POP POP JUMP JUMPDEST PUSH1 0x0 PUSH2 0xC13 PUSH2 0xC0E DUP5 PUSH2 0x156C JUMP JUMPDEST PUSH2 0x14EF JUMP JUMPDEST SWAP1 POP DUP1 DUP4 DUP3 MSTORE PUSH1 0x20 DUP3 ADD SWAP1 POP DUP3 DUP6 PUSH1 0x20 DUP7 MUL DUP3 ADD GT ISZERO PUSH2 0xC36 JUMPI PUSH2 0xC35 PUSH2 0x19B3 JUMP JUMPDEST JUMPDEST PUSH1 0x0 JUMPDEST DUP6 DUP2 LT ISZERO PUSH2 0xC84 JUMPI DUP2 CALLDATALOAD PUSH8 0xFFFFFFFFFFFFFFFF DUP2 GT ISZERO PUSH2 0xC5C JUMPI PUSH2 0xC5B PUSH2 0x19A4 JUMP JUMPDEST JUMPDEST DUP1 DUP7 ADD PUSH2 0xC69 DUP10 DUP3 PUSH2 0xE68 JUMP JUMPDEST DUP6 MSTORE PUSH1 0x20 DUP6 ADD SWAP5 POP PUSH1 0x20 DUP5 ADD SWAP4 POP POP POP PUSH1 0x1 DUP2 ADD SWAP1 POP PUSH2 0xC39 JUMP JUMPDEST POP POP POP SWAP4 SWAP3 POP POP POP JUMP JUMPDEST PUSH1 0x0 PUSH2 0xCA1 PUSH2 0xC9C DUP5 PUSH2 0x1598 JUMP JUMPDEST PUSH2 0x14EF JUMP JUMPDEST SWAP1 POP DUP3 DUP2 MSTORE PUSH1 0x20 DUP2 ADD DUP5 DUP5 DUP5 ADD GT ISZERO PUSH2 0xCBD JUMPI PUSH2 0xCBC PUSH2 0x19B8 JUMP JUMPDEST JUMPDEST PUSH2 0xCC8 DUP5 DUP3 DUP6 PUSH2 0x17FA JUMP JUMPDEST POP SWAP4 SWAP3 POP POP POP JUMP JUMPDEST PUSH1 0x0 DUP3 PUSH1 0x1F DUP4 ADD SLT PUSH2 0xCE5 JUMPI PUSH2 0xCE4 PUSH2 0x19A4 JUMP JUMPDEST JUMPDEST DUP2 CALLDATALOAD PUSH2 0xCF5 DUP5 DUP3 PUSH1 0x20 DUP7 ADD PUSH2 0xAE4 JUMP JUMPDEST SWAP2 POP POP SWAP3 SWAP2 POP POP JUMP JUMPDEST PUSH1 0x0 DUP3 PUSH1 0x1F DUP4 ADD SLT PUSH2 0xD13 JUMPI PUSH2 0xD12 PUSH2 0x19A4 JUMP JUMPDEST JUMPDEST DUP2 CALLDATALOAD PUSH2 0xD23 DUP5 DUP3 PUSH1 0x20 DUP7 ADD PUSH2 0xB72 JUMP JUMPDEST SWAP2 POP POP SWAP3 SWAP2 POP POP JUMP JUMPDEST PUSH1 0x0 DUP3 PUSH1 0x1F DUP4 ADD SLT PUSH2 0xD41 JUMPI PUSH2 0xD40 PUSH2 0x19A4 JUMP JUMPDEST JUMPDEST DUP2 CALLDATALOAD PUSH2 0xD51 DUP5 DUP3 PUSH1 0x20 DUP7 ADD PUSH2 0xC00 JUMP JUMPDEST SWAP2 POP POP SWAP3 SWAP2 POP POP JUMP JUMPDEST PUSH1 0x0 DUP3 PUSH1 0x1F DUP4 ADD SLT PUSH2 0xD6F JUMPI PUSH2 0xD6E PUSH2 0x19A4 JUMP JUMPDEST JUMPDEST DUP2 CALLDATALOAD PUSH2 0xD7F DUP5 DUP3 PUSH1 0x20 DUP7 ADD PUSH2 0xC8E JUMP JUMPDEST SWAP2 POP POP SWAP3 SWAP2 POP POP JUMP JUMPDEST PUSH1 0x0 PUSH1 0x40 DUP3 DUP5 SUB SLT ISZERO PUSH2 0xD9E JUMPI PUSH2 0xD9D PUSH2 0x19A9 JUMP JUMPDEST JUMPDEST PUSH2 0xDA8 PUSH1 0x40 PUSH2 0x14EF JUMP JUMPDEST SWAP1 POP PUSH1 0x0 DUP3 ADD CALLDATALOAD PUSH8 0xFFFFFFFFFFFFFFFF DUP2 GT ISZERO PUSH2 0xDC8 JUMPI PUSH2 0xDC7 PUSH2 0x19AE JUMP JUMPDEST JUMPDEST PUSH2 0xDD4 DUP5 DUP3 DUP6 ADD PUSH2 0xD5A JUMP JUMPDEST PUSH1 0x0 DUP4 ADD MSTORE POP PUSH1 0x20 DUP3 ADD CALLDATALOAD PUSH8 0xFFFFFFFFFFFFFFFF DUP2 GT ISZERO PUSH2 0xDF8 JUMPI PUSH2 0xDF7 PUSH2 0x19AE JUMP JUMPDEST JUMPDEST PUSH2 0xE04 DUP5 DUP3 DUP6 ADD PUSH2 0xD5A JUMP JUMPDEST PUSH1 0x20 DUP4 ADD MSTORE POP SWAP3 SWAP2 POP POP JUMP JUMPDEST PUSH1 0x0 PUSH1 0x20 DUP3 DUP5 SUB SLT ISZERO PUSH2 0xE26 JUMPI PUSH2 0xE25 PUSH2 0x19A9 JUMP JUMPDEST JUMPDEST PUSH2 0xE30 PUSH1 0x20 PUSH2 0x14EF JUMP JUMPDEST SWAP1 POP PUSH1 0x0 DUP3 ADD CALLDATALOAD PUSH8 0xFFFFFFFFFFFFFFFF DUP2 GT ISZERO PUSH2 0xE50 JUMPI PUSH2 0xE4F PUSH2 0x19AE JUMP JUMPDEST JUMPDEST PUSH2 0xE5C DUP5 DUP3 DUP6 ADD PUSH2 0xD5A JUMP JUMPDEST PUSH1 0x0 DUP4 ADD MSTORE POP SWAP3 SWAP2 POP POP JUMP JUMPDEST PUSH1 0x0 PUSH1 0x20 DUP3 DUP5 SUB SLT ISZERO PUSH2 0xE7E JUMPI PUSH2 0xE7D PUSH2 0x19A9 JUMP JUMPDEST JUMPDEST PUSH2 0xE88 PUSH1 0x20 PUSH2 0x14EF JUMP JUMPDEST SWAP1 POP PUSH1 0x0 DUP3 ADD CALLDATALOAD PUSH8 0xFFFFFFFFFFFFFFFF DUP2 GT ISZERO PUSH2 0xEA8 JUMPI PUSH2 0xEA7 PUSH2 0x19AE JUMP JUMPDEST JUMPDEST PUSH2 0xEB4 DUP5 DUP3 DUP6 ADD PUSH2 0xD5A JUMP JUMPDEST PUSH1 0x0 DUP4 ADD MSTORE POP SWAP3 SWAP2 POP POP JUMP JUMPDEST PUSH1 0x0 DUP2 CALLDATALOAD SWAP1 POP PUSH2 0xECF DUP2 PUSH2 0x1A50 JUMP JUMPDEST SWAP3 SWAP2 POP POP JUMP JUMPDEST PUSH1 0x0 DUP1 PUSH1 0x0 DUP1 PUSH1 0x0 PUSH1 0xA0 DUP7 DUP9 SUB SLT ISZERO PUSH2 0xEF1 JUMPI PUSH2 0xEF0 PUSH2 0x19C2 JUMP JUMPDEST JUMPDEST PUSH1 0x0 DUP7 ADD CALLDATALOAD PUSH8 0xFFFFFFFFFFFFFFFF DUP2 GT ISZERO PUSH2 0xF0F JUMPI PUSH2 0xF0E PUSH2 0x19BD JUMP JUMPDEST JUMPDEST PUSH2 0xF1B DUP9 DUP3 DUP10 ADD PUSH2 0xD5A JUMP JUMPDEST SWAP6 POP POP PUSH1 0x20 PUSH2 0xF2C DUP9 DUP3 DUP10 ADD PUSH2 0xEC0 JUMP JUMPDEST SWAP5 POP POP PUSH1 0x40 DUP7 ADD CALLDATALOAD PUSH8 0xFFFFFFFFFFFFFFFF DUP2 GT ISZERO PUSH2 0xF4D JUMPI PUSH2 0xF4C PUSH2 0x19BD JUMP JUMPDEST JUMPDEST PUSH2 0xF59 DUP9 DUP3 DUP10 ADD PUSH2 0xCD0 JUMP JUMPDEST SWAP4 POP POP PUSH1 0x60 DUP7 ADD CALLDATALOAD PUSH8 0xFFFFFFFFFFFFFFFF DUP2 GT ISZERO PUSH2 0xF7A JUMPI PUSH2 0xF79 PUSH2 0x19BD JUMP JUMPDEST JUMPDEST PUSH2 0xF86 DUP9 DUP3 DUP10 ADD PUSH2 0xCFE JUMP JUMPDEST SWAP3 POP POP PUSH1 0x80 DUP7 ADD CALLDATALOAD PUSH8 0xFFFFFFFFFFFFFFFF DUP2 GT ISZERO PUSH2 0xFA7 JUMPI PUSH2 0xFA6 PUSH2 0x19BD JUMP JUMPDEST JUMPDEST PUSH2 0xFB3 DUP9 DUP3 DUP10 ADD PUSH2 0xD2C JUMP JUMPDEST SWAP2 POP POP SWAP3 SWAP6 POP SWAP3 SWAP6 SWAP1 SWAP4 POP JUMP JUMPDEST PUSH1 0x0 PUSH1 0x20 DUP3 DUP5 SUB SLT ISZERO PUSH2 0xFD6 JUMPI PUSH2 0xFD5 PUSH2 0x19C2 JUMP JUMPDEST JUMPDEST PUSH1 0x0 PUSH2 0xFE4 DUP5 DUP3 DUP6 ADD PUSH2 0xEC0 JUMP JUMPDEST SWAP2 POP POP SWAP3 SWAP2 POP POP JUMP JUMPDEST PUSH1 0x0 PUSH2 0xFF9 DUP4 DUP4 PUSH2 0x12D8 JUMP JUMPDEST SWAP1 POP SWAP3 SWAP2 POP POP JUMP JUMPDEST PUSH1 0x0 PUSH2 0x100D DUP4 DUP4 PUSH2 0x131C JUMP JUMPDEST SWAP1 POP SWAP3 SWAP2 POP POP JUMP JUMPDEST PUSH1 0x0 PUSH2 0x1021 DUP4 DUP4 PUSH2 0x13A7 JUMP JUMPDEST SWAP1 POP SWAP3 SWAP2 POP POP JUMP JUMPDEST PUSH1 0x0 PUSH2 0x1035 DUP4 DUP4 PUSH2 0x13D1 JUMP JUMPDEST SWAP1 POP SWAP3 SWAP2 POP POP JUMP JUMPDEST PUSH2 0x1046 DUP2 PUSH2 0x17BE JUMP JUMPDEST DUP3 MSTORE POP POP JUMP JUMPDEST PUSH1 0x0 PUSH2 0x1057 DUP3 PUSH2 0x1609 JUMP JUMPDEST PUSH2 0x1061 DUP2 DUP6 PUSH2 0x1674 JUMP JUMPDEST SWAP4 POP DUP4 PUSH1 0x20 DUP3 MUL DUP6 ADD PUSH2 0x1073 DUP6 PUSH2 0x15C9 JUMP JUMPDEST DUP1 PUSH1 0x0 JUMPDEST DUP6 DUP2 LT ISZERO PUSH2 0x10AF JUMPI DUP5 DUP5 SUB DUP10 MSTORE DUP2 MLOAD PUSH2 0x1090 DUP6 DUP3 PUSH2 0xFED JUMP JUMPDEST SWAP5 POP PUSH2 0x109B DUP4 PUSH2 0x1640 JUMP JUMPDEST SWAP3 POP PUSH1 0x20 DUP11 ADD SWAP10 POP POP PUSH1 0x1 DUP2 ADD SWAP1 POP PUSH2 0x1077 JUMP JUMPDEST POP DUP3 SWAP8 POP DUP8 SWAP6 POP POP POP POP POP POP SWAP3 SWAP2 POP POP JUMP JUMPDEST PUSH1 0x0 PUSH2 0x10CC DUP3 PUSH2 0x1614 JUMP JUMPDEST PUSH2 0x10D6 DUP2 DUP6 PUSH2 0x1685 JUMP JUMPDEST SWAP4 POP DUP4 PUSH1 0x20 DUP3 MUL DUP6 ADD PUSH2 0x10E8 DUP6 PUSH2 0x15D9 JUMP JUMPDEST DUP1 PUSH1 0x0 JUMPDEST DUP6 DUP2 LT ISZERO PUSH2 0x1124 JUMPI DUP5 DUP5 SUB DUP10 MSTORE DUP2 MLOAD PUSH2 0x1105 DUP6 DUP3 PUSH2 0x1001 JUMP JUMPDEST SWAP5 POP PUSH2 0x1110 DUP4 PUSH2 0x164D JUMP JUMPDEST SWAP3 POP PUSH1 0x20 DUP11 ADD SWAP10 POP POP PUSH1 0x1 DUP2 ADD SWAP1 POP PUSH2 0x10EC JUMP JUMPDEST POP DUP3 SWAP8 POP DUP8 SWAP6 POP POP POP POP POP POP SWAP3 SWAP2 POP POP JUMP JUMPDEST PUSH1 0x0 PUSH2 0x1141 DUP3 PUSH2 0x161F JUMP JUMPDEST PUSH2 0x114B DUP2 DUP6 PUSH2 0x1696 JUMP JUMPDEST SWAP4 POP DUP4 PUSH1 0x20 DUP3 MUL DUP6 ADD PUSH2 0x115D DUP6 PUSH2 0x15E9 JUMP JUMPDEST DUP1 PUSH1 0x0 JUMPDEST DUP6 DUP2 LT ISZERO PUSH2 0x1199 JUMPI DUP5 DUP5 SUB DUP10 MSTORE DUP2 MLOAD PUSH2 0x117A DUP6 DUP3 PUSH2 0x1015 JUMP JUMPDEST SWAP5 POP PUSH2 0x1185 DUP4 PUSH2 0x165A JUMP JUMPDEST SWAP3 POP PUSH1 0x20 DUP11 ADD SWAP10 POP POP PUSH1 0x1 DUP2 ADD SWAP1 POP PUSH2 0x1161 JUMP JUMPDEST POP DUP3 SWAP8 POP DUP8 SWAP6 POP POP POP POP POP POP SWAP3 SWAP2 POP POP JUMP JUMPDEST PUSH1 0x0 PUSH2 0x11B6 DUP3 PUSH2 0x162A JUMP JUMPDEST PUSH2 0x11C0 DUP2 DUP6 PUSH2 0x16A7 JUMP JUMPDEST SWAP4 POP DUP4 PUSH1 0x20 DUP3 MUL DUP6 ADD PUSH2 0x11D2 DUP6 PUSH2 0x15F9 JUMP JUMPDEST DUP1 PUSH1 0x0 JUMPDEST DUP6 DUP2 LT ISZERO PUSH2 0x120E JUMPI DUP5 DUP5 SUB DUP10 MSTORE DUP2 MLOAD PUSH2 0x11EF DUP6 DUP3 PUSH2 0x1029 JUMP JUMPDEST SWAP5 POP PUSH2 0x11FA DUP4 PUSH2 0x1667 JUMP JUMPDEST SWAP3 POP PUSH1 0x20 DUP11 ADD SWAP10 POP POP PUSH1 0x1 DUP2 ADD SWAP1 POP PUSH2 0x11D6 JUMP JUMPDEST POP DUP3 SWAP8 POP DUP8 SWAP6 POP POP POP POP POP POP SWAP3 SWAP2 POP POP JUMP JUMPDEST PUSH1 0x0 PUSH2 0x122B DUP3 PUSH2 0x1635 JUMP JUMPDEST PUSH2 0x1235 DUP2 DUP6 PUSH2 0x16B8 JUMP JUMPDEST SWAP4 POP PUSH2 0x1245 DUP2 DUP6 PUSH1 0x20 DUP7 ADD PUSH2 0x1809 JUMP JUMPDEST PUSH2 0x124E DUP2 PUSH2 0x19C7 JUMP JUMPDEST DUP5 ADD SWAP2 POP POP SWAP3 SWAP2 POP POP JUMP JUMPDEST PUSH1 0x0 PUSH2 0x1264 DUP3 PUSH2 0x1635 JUMP JUMPDEST PUSH2 0x126E DUP2 DUP6 PUSH2 0x16C9 JUMP JUMPDEST SWAP4 POP PUSH2 0x127E DUP2 DUP6 PUSH1 0x20 DUP7 ADD PUSH2 0x1809 JUMP JUMPDEST PUSH2 0x1287 DUP2 PUSH2 0x19C7 JUMP JUMPDEST DUP5 ADD SWAP2 POP POP SWAP3 SWAP2 POP POP JUMP JUMPDEST PUSH1 0x0 PUSH2 0x129F PUSH1 0x29 DUP4 PUSH2 0x16C9 JUMP JUMPDEST SWAP2 POP PUSH2 0x12AA DUP3 PUSH2 0x19D8 JUMP JUMPDEST PUSH1 0x40 DUP3 ADD SWAP1 POP SWAP2 SWAP1 POP JUMP JUMPDEST PUSH1 0x0 PUSH2 0x12C2 PUSH1 0x1D DUP4 PUSH2 0x16C9 JUMP JUMPDEST SWAP2 POP PUSH2 0x12CD DUP3 PUSH2 0x1A27 JUMP JUMPDEST PUSH1 0x20 DUP3 ADD SWAP1 POP SWAP2 SWAP1 POP JUMP JUMPDEST PUSH1 0x0 PUSH1 0x40 DUP4 ADD PUSH1 0x0 DUP4 ADD MLOAD DUP5 DUP3 SUB PUSH1 0x0 DUP7 ADD MSTORE PUSH2 0x12F5 DUP3 DUP3 PUSH2 0x1220 JUMP JUMPDEST SWAP2 POP POP PUSH1 0x20 DUP4 ADD MLOAD DUP5 DUP3 SUB PUSH1 0x20 DUP7 ADD MSTORE PUSH2 0x130F DUP3 DUP3 PUSH2 0x1220 JUMP JUMPDEST SWAP2 POP POP DUP1 SWAP2 POP POP SWAP3 SWAP2 POP POP JUMP JUMPDEST PUSH1 0x0 PUSH1 0xA0 DUP4 ADD PUSH1 0x0 DUP4 ADD MLOAD PUSH2 0x1334 PUSH1 0x0 DUP7 ADD DUP3 PUSH2 0x13FB JUMP JUMPDEST POP PUSH1 0x20 DUP4 ADD MLOAD DUP5 DUP3 SUB PUSH1 0x20 DUP7 ADD MSTORE PUSH2 0x134C DUP3 DUP3 PUSH2 0x1220 JUMP JUMPDEST SWAP2 POP POP PUSH1 0x40 DUP4 ADD MLOAD DUP5 DUP3 SUB PUSH1 0x40 DUP7 ADD MSTORE PUSH2 0x1366 DUP3 DUP3 PUSH2 0x104C JUMP JUMPDEST SWAP2 POP POP PUSH1 0x60 DUP4 ADD MLOAD DUP5 DUP3 SUB PUSH1 0x60 DUP7 ADD MSTORE PUSH2 0x1380 DUP3 DUP3 PUSH2 0x1136 JUMP JUMPDEST SWAP2 POP POP PUSH1 0x80 DUP4 ADD MLOAD DUP5 DUP3 SUB PUSH1 0x80 DUP7 ADD MSTORE PUSH2 0x139A DUP3 DUP3 PUSH2 0x11AB JUMP JUMPDEST SWAP2 POP POP DUP1 SWAP2 POP POP SWAP3 SWAP2 POP POP JUMP JUMPDEST PUSH1 0x0 PUSH1 0x20 DUP4 ADD PUSH1 0x0 DUP4 ADD MLOAD DUP5 DUP3 SUB PUSH1 0x0 DUP7 ADD MSTORE PUSH2 0x13C4 DUP3 DUP3 PUSH2 0x1220 JUMP JUMPDEST SWAP2 POP POP DUP1 SWAP2 POP POP SWAP3 SWAP2 POP POP JUMP JUMPDEST PUSH1 0x0 PUSH1 0x20 DUP4 ADD PUSH1 0x0 DUP4 ADD MLOAD DUP5 DUP3 SUB PUSH1 0x0 DUP7 ADD MSTORE PUSH2 0x13EE DUP3 DUP3 PUSH2 0x1220 JUMP JUMPDEST SWAP2 POP POP DUP1 SWAP2 POP POP SWAP3 SWAP2 POP POP JUMP JUMPDEST PUSH2 0x1404 DUP2 PUSH2 0x17F0 JUMP JUMPDEST DUP3 MSTORE POP POP JUMP JUMPDEST PUSH2 0x1413 DUP2 PUSH2 0x17F0 JUMP JUMPDEST DUP3 MSTORE POP POP JUMP JUMPDEST PUSH1 0x0 PUSH1 0x20 DUP3 ADD SWAP1 POP PUSH2 0x142E PUSH1 0x0 DUP4 ADD DUP5 PUSH2 0x103D JUMP JUMPDEST SWAP3 SWAP2 POP POP JUMP JUMPDEST PUSH1 0x0 PUSH1 0x20 DUP3 ADD SWAP1 POP DUP2 DUP2 SUB PUSH1 0x0 DUP4 ADD MSTORE PUSH2 0x144E DUP2 DUP5 PUSH2 0x10C1 JUMP JUMPDEST SWAP1 POP SWAP3 SWAP2 POP POP JUMP JUMPDEST PUSH1 0x0 PUSH1 0x20 DUP3 ADD SWAP1 POP DUP2 DUP2 SUB PUSH1 0x0 DUP4 ADD MSTORE PUSH2 0x146F DUP2 PUSH2 0x1292 JUMP JUMPDEST SWAP1 POP SWAP2 SWAP1 POP JUMP JUMPDEST PUSH1 0x0 PUSH1 0x20 DUP3 ADD SWAP1 POP DUP2 DUP2 SUB PUSH1 0x0 DUP4 ADD MSTORE PUSH2 0x148F DUP2 PUSH2 0x12B5 JUMP JUMPDEST SWAP1 POP SWAP2 SWAP1 POP JUMP JUMPDEST PUSH1 0x0 PUSH1 0x40 DUP3 ADD SWAP1 POP PUSH2 0x14AB PUSH1 0x0 DUP4 ADD DUP6 PUSH2 0x140A JUMP JUMPDEST DUP2 DUP2 SUB PUSH1 0x20 DUP4 ADD MSTORE PUSH2 0x14BD DUP2 DUP5 PUSH2 0x1259 JUMP JUMPDEST SWAP1 POP SWAP4 SWAP3 POP POP POP JUMP JUMPDEST PUSH1 0x0 PUSH1 0x40 DUP3 ADD SWAP1 POP PUSH2 0x14DB PUSH1 0x0 DUP4 ADD DUP6 PUSH2 0x140A JUMP JUMPDEST PUSH2 0x14E8 PUSH1 0x20 DUP4 ADD DUP5 PUSH2 0x140A JUMP JUMPDEST SWAP4 SWAP3 POP POP POP JUMP JUMPDEST PUSH1 0x0 PUSH2 0x14F9 PUSH2 0x150A JUMP JUMPDEST SWAP1 POP PUSH2 0x1505 DUP3 DUP3 PUSH2 0x186E JUMP JUMPDEST SWAP2 SWAP1 POP JUMP JUMPDEST PUSH1 0x0 PUSH1 0x40 MLOAD SWAP1 POP SWAP1 JUMP JUMPDEST PUSH1 0x0 PUSH8 0xFFFFFFFFFFFFFFFF DUP3 GT ISZERO PUSH2 0x152F JUMPI PUSH2 0x152E PUSH2 0x1975 JUMP JUMPDEST JUMPDEST PUSH1 0x20 DUP3 MUL SWAP1 POP PUSH1 0x20 DUP2 ADD SWAP1 POP SWAP2 SWAP1 POP JUMP JUMPDEST PUSH1 0x0 PUSH8 0xFFFFFFFFFFFFFFFF DUP3 GT ISZERO PUSH2 0x155B JUMPI PUSH2 0x155A PUSH2 0x1975 JUMP JUMPDEST JUMPDEST PUSH1 0x20 DUP3 MUL SWAP1 POP PUSH1 0x20 DUP2 ADD SWAP1 POP SWAP2 SWAP1 POP JUMP JUMPDEST PUSH1 0x0 PUSH8 0xFFFFFFFFFFFFFFFF DUP3 GT ISZERO PUSH2 0x1587 JUMPI PUSH2 0x1586 PUSH2 0x1975 JUMP JUMPDEST JUMPDEST PUSH1 0x20 DUP3 MUL SWAP1 POP PUSH1 0x20 DUP2 ADD SWAP1 POP SWAP2 SWAP1 POP JUMP JUMPDEST PUSH1 0x0 PUSH8 0xFFFFFFFFFFFFFFFF DUP3 GT ISZERO PUSH2 0x15B3 JUMPI PUSH2 0x15B2 PUSH2 0x1975 JUMP JUMPDEST JUMPDEST PUSH2 0x15BC DUP3 PUSH2 0x19C7 JUMP JUMPDEST SWAP1 POP PUSH1 0x20 DUP2 ADD SWAP1 POP SWAP2 SWAP1 POP JUMP JUMPDEST PUSH1 0x0 DUP2 SWAP1 POP PUSH1 0x20 DUP3 ADD SWAP1 POP SWAP2 SWAP1 POP JUMP JUMPDEST PUSH1 0x0 DUP2 SWAP1 POP PUSH1 0x20 DUP3 ADD SWAP1 POP SWAP2 SWAP1 POP JUMP JUMPDEST PUSH1 0x0 DUP2 SWAP1 POP PUSH1 0x20 DUP3 ADD SWAP1 POP SWAP2 SWAP1 POP JUMP JUMPDEST PUSH1 0x0 DUP2 SWAP1 POP PUSH1 0x20 DUP3 ADD SWAP1 POP SWAP2 SWAP1 POP JUMP JUMPDEST PUSH1 0x0 DUP2 MLOAD SWAP1 POP SWAP2 SWAP1 POP JUMP JUMPDEST PUSH1 0x0 DUP2 MLOAD SWAP1 POP SWAP2 SWAP1 POP JUMP JUMPDEST PUSH1 0x0 DUP2 MLOAD SWAP1 POP SWAP2 SWAP1 POP JUMP JUMPDEST PUSH1 0x0 DUP2 MLOAD SWAP1 POP SWAP2 SWAP1 POP JUMP JUMPDEST PUSH1 0x0 DUP2 MLOAD SWAP1 POP SWAP2 SWAP1 POP JUMP JUMPDEST PUSH1 0x0 PUSH1 0x20 DUP3 ADD SWAP1 POP SWAP2 SWAP1 POP JUMP JUMPDEST PUSH1 0x0 PUSH1 0x20 DUP3 ADD SWAP1 POP SWAP2 SWAP1 POP JUMP JUMPDEST PUSH1 0x0 PUSH1 0x20 DUP3 ADD SWAP1 POP SWAP2 SWAP1 POP JUMP JUMPDEST PUSH1 0x0 PUSH1 0x20 DUP3 ADD SWAP1 POP SWAP2 SWAP1 POP JUMP JUMPDEST PUSH1 0x0 DUP3 DUP3 MSTORE PUSH1 0x20 DUP3 ADD SWAP1 POP SWAP3 SWAP2 POP POP JUMP JUMPDEST PUSH1 0x0 DUP3 DUP3 MSTORE PUSH1 0x20 DUP3 ADD SWAP1 POP SWAP3 SWAP2 POP POP JUMP JUMPDEST PUSH1 0x0 DUP3 DUP3 MSTORE PUSH1 0x20 DUP3 ADD SWAP1 POP SWAP3 SWAP2 POP POP JUMP JUMPDEST PUSH1 0x0 DUP3 DUP3 MSTORE PUSH1 0x20 DUP3 ADD SWAP1 POP SWAP3 SWAP2 POP POP JUMP JUMPDEST PUSH1 0x0 DUP3 DUP3 MSTORE PUSH1 0x20 DUP3 ADD SWAP1 POP SWAP3 SWAP2 POP POP JUMP JUMPDEST PUSH1 0x0 DUP3 DUP3 MSTORE PUSH1 0x20 DUP3 ADD SWAP1 POP SWAP3 SWAP2 POP POP JUMP JUMPDEST PUSH1 0x0 PUSH2 0x16E5 DUP3 PUSH2 0x17F0 JUMP JUMPDEST SWAP2 POP PUSH2 0x16F0 DUP4 PUSH2 0x17F0 JUMP JUMPDEST SWAP3 POP DUP3 PUSH32 0xFFFFFFFFFFFFFFFFFFFFFFFFFFFFFFFFFFFFFFFFFFFFFFFFFFFFFFFFFFFFFFFF SUB DUP3 GT ISZERO PUSH2 0x1725 JUMPI PUSH2 0x1724 PUSH2 0x18E8 JUMP JUMPDEST JUMPDEST DUP3 DUP3 ADD SWAP1 POP SWAP3 SWAP2 POP POP JUMP JUMPDEST PUSH1 0x0 PUSH2 0x173B DUP3 PUSH2 0x17F0 JUMP JUMPDEST SWAP2 POP PUSH2 0x1746 DUP4 PUSH2 0x17F0 JUMP JUMPDEST SWAP3 POP DUP2 PUSH32 0xFFFFFFFFFFFFFFFFFFFFFFFFFFFFFFFFFFFFFFFFFFFFFFFFFFFFFFFFFFFFFFFF DIV DUP4 GT DUP3 ISZERO ISZERO AND ISZERO PUSH2 0x177F JUMPI PUSH2 0x177E PUSH2 0x18E8 JUMP JUMPDEST JUMPDEST DUP3 DUP3 MUL SWAP1 POP SWAP3 SWAP2 POP POP JUMP JUMPDEST PUSH1 0x0 PUSH2 0x1795 DUP3 PUSH2 0x17F0 JUMP JUMPDEST SWAP2 POP PUSH2 0x17A0 DUP4 PUSH2 0x17F0 JUMP JUMPDEST SWAP3 POP DUP3 DUP3 LT ISZERO PUSH2 0x17B3 JUMPI PUSH2 0x17B2 PUSH2 0x18E8 JUMP JUMPDEST JUMPDEST DUP3 DUP3 SUB SWAP1 POP SWAP3 SWAP2 POP POP JUMP JUMPDEST PUSH1 0x0 PUSH2 0x17C9 DUP3 PUSH2 0x17D0 JUMP JUMPDEST SWAP1 POP SWAP2 SWAP1 POP JUMP JUMPDEST PUSH1 0x0 PUSH20 0xFFFFFFFFFFFFFFFFFFFFFFFFFFFFFFFFFFFFFFFF DUP3 AND SWAP1 POP SWAP2 SWAP1 POP JUMP JUMPDEST PUSH1 0x0 DUP2 SWAP1 POP SWAP2 SWAP1 POP JUMP JUMPDEST DUP3 DUP2 DUP4 CALLDATACOPY PUSH1 0x0 DUP4 DUP4 ADD MSTORE POP POP POP JUMP JUMPDEST PUSH1 0x0 JUMPDEST DUP4 DUP2 LT ISZERO PUSH2 0x1827 JUMPI DUP1 DUP3 ADD MLOAD DUP2 DUP5 ADD MSTORE PUSH1 0x20 DUP2 ADD SWAP1 POP PUSH2 0x180C JUMP JUMPDEST DUP4 DUP2 GT ISZERO PUSH2 0x1836 JUMPI PUSH1 0x0 DUP5 DUP5 ADD MSTORE JUMPDEST POP POP POP POP JUMP JUMPDEST PUSH1 0x0 PUSH1 0x2 DUP3 DIV SWAP1 POP PUSH1 0x1 DUP3 AND DUP1 PUSH2 0x1854 JUMPI PUSH1 0x7F DUP3 AND SWAP2 POP JUMPDEST PUSH1 0x20 DUP3 LT DUP2 EQ ISZERO PUSH2 0x1868 JUMPI PUSH2 0x1867 PUSH2 0x1917 JUMP JUMPDEST JUMPDEST POP SWAP2 SWAP1 POP JUMP JUMPDEST PUSH2 0x1877 DUP3 PUSH2 0x19C7 JUMP JUMPDEST DUP2 ADD DUP2 DUP2 LT PUSH8 0xFFFFFFFFFFFFFFFF DUP3 GT OR ISZERO PUSH2 0x1896 JUMPI PUSH2 0x1895 PUSH2 0x1975 JUMP JUMPDEST JUMPDEST DUP1 PUSH1 0x40 MSTORE POP POP POP JUMP JUMPDEST PUSH1 0x0 PUSH2 0x18AA DUP3 PUSH2 0x17F0 JUMP JUMPDEST SWAP2 POP PUSH32 0xFFFFFFFFFFFFFFFFFFFFFFFFFFFFFFFFFFFFFFFFFFFFFFFFFFFFFFFFFFFFFFFF DUP3 EQ ISZERO PUSH2 0x18DD JUMPI PUSH2 0x18DC PUSH2 0x18E8 JUMP JUMPDEST JUMPDEST PUSH1 0x1 DUP3 ADD SWAP1 POP SWAP2 SWAP1 POP JUMP JUMPDEST PUSH32 0x4E487B7100000000000000000000000000000000000000000000000000000000 PUSH1 0x0 MSTORE PUSH1 0x11 PUSH1 0x4 MSTORE PUSH1 0x24 PUSH1 0x0 REVERT JUMPDEST PUSH32 0x4E487B7100000000000000000000000000000000000000000000000000000000 PUSH1 0x0 MSTORE PUSH1 0x22 PUSH1 0x4 MSTORE PUSH1 0x24 PUSH1 0x0 REVERT JUMPDEST PUSH32 0x4E487B7100000000000000000000000000000000000000000000000000000000 PUSH1 0x0 MSTORE PUSH1 0x32 PUSH1 0x4 MSTORE PUSH1 0x24 PUSH1 0x0 REVERT JUMPDEST PUSH32 0x4E487B7100000000000000000000000000000000000000000000000000000000 PUSH1 0x0 MSTORE PUSH1 0x41 PUSH1 0x4 MSTORE PUSH1 0x24 PUSH1 0x0 REVERT JUMPDEST PUSH1 0x0 DUP1 REVERT JUMPDEST PUSH1 0x0 DUP1 REVERT JUMPDEST PUSH1 0x0 DUP1 REVERT JUMPDEST PUSH1 0x0 DUP1 REVERT JUMPDEST PUSH1 0x0 DUP1 REVERT JUMPDEST PUSH1 0x0 DUP1 REVERT JUMPDEST PUSH1 0x0 DUP1 REVERT JUMPDEST PUSH1 0x0 PUSH1 0x1F NOT PUSH1 0x1F DUP4 ADD AND SWAP1 POP SWAP2 SWAP1 POP JUMP JUMPDEST PUSH32 0x546865206E616D65206D7573742068617665206D6F7265207468616E20322063 PUSH1 0x0 DUP3 ADD MSTORE PUSH32 0x6861726163746572730000000000000000000000000000000000000000000000 PUSH1 0x20 DUP3 ADD MSTORE POP JUMP JUMPDEST PUSH32 0x546865206964206D7573742062652067726561746572207468616E2030000000 PUSH1 0x0 DUP3 ADD MSTORE POP JUMP JUMPDEST PUSH2 0x1A59 DUP2 PUSH2 0x17F0 JUMP JUMPDEST DUP2 EQ PUSH2 0x1A64 JUMPI PUSH1 0x0 DUP1 REVERT JUMPDEST POP JUMP INVALID LOG2 PUSH5 0x6970667358 0x22 SLT KECCAK256 LOG0 CREATE 0x4E JUMP LOG0 0xE1 GAS 0xEB 0xB5 0x5F PUSH21 0xCFADC2B4AA8128499C511E062A30CB6C6AB21DD8B4 PUSH5 0x736F6C6343 STOP ADDMOD SMOD STOP CALLER "
				},
				"gasEstimates": {
					"creation": {
						"codeDepositCost": "1362600",
						"executionCost": "1417",
						"totalCost": "1364017"
					},
					"external": {
						"createPokemon(string,uint256,(string,string)[],(string)[],(string)[])": "infinite",
						"getAllPokemons()": "infinite",
						"getResult()": "infinite",
						"pokemonToOwner(uint256)": "2817"
					}
				},
				"methodIdentifiers": {
					"createPokemon(string,uint256,(string,string)[],(string)[],(string)[])": "710ebd11",
					"getAllPokemons()": "5e916790",
					"getResult()": "de292789",
					"pokemonToOwner(uint256)": "2f7467b3"
				}
			},
			"storageLayout": {
				"storage": [
					{
						"astId": 39,
						"contract": "PokemonFactory.sol:PokemonFactory",
						"label": "pokemons",
						"offset": 0,
						"slot": "0",
						"type": "t_array(t_struct(Pokemon)35_storage)dyn_storage"
					},
					{
						"astId": 43,
						"contract": "PokemonFactory.sol:PokemonFactory",
						"label": "pokemonToOwner",
						"offset": 0,
						"slot": "1",
						"type": "t_mapping(t_uint256,t_address)"
					},
					{
						"astId": 47,
						"contract": "PokemonFactory.sol:PokemonFactory",
						"label": "ownerPokemonCount",
						"offset": 0,
						"slot": "2",
						"type": "t_mapping(t_address,t_uint256)"
					}
				],
				"types": {
					"t_address": {
						"encoding": "inplace",
						"label": "address",
						"numberOfBytes": "20"
					},
					"t_array(t_struct(Ability)12_storage)dyn_storage": {
						"base": "t_struct(Ability)12_storage",
						"encoding": "dynamic_array",
						"label": "struct PokemonFactory.Ability[]",
						"numberOfBytes": "32"
					},
					"t_array(t_struct(Pokemon)35_storage)dyn_storage": {
						"base": "t_struct(Pokemon)35_storage",
						"encoding": "dynamic_array",
						"label": "struct PokemonFactory.Pokemon[]",
						"numberOfBytes": "32"
					},
					"t_array(t_struct(Type)15_storage)dyn_storage": {
						"base": "t_struct(Type)15_storage",
						"encoding": "dynamic_array",
						"label": "struct PokemonFactory.Type[]",
						"numberOfBytes": "32"
					},
					"t_array(t_struct(Weakness)18_storage)dyn_storage": {
						"base": "t_struct(Weakness)18_storage",
						"encoding": "dynamic_array",
						"label": "struct PokemonFactory.Weakness[]",
						"numberOfBytes": "32"
					},
					"t_mapping(t_address,t_uint256)": {
						"encoding": "mapping",
						"key": "t_address",
						"label": "mapping(address => uint256)",
						"numberOfBytes": "32",
						"value": "t_uint256"
					},
					"t_mapping(t_uint256,t_address)": {
						"encoding": "mapping",
						"key": "t_uint256",
						"label": "mapping(uint256 => address)",
						"numberOfBytes": "32",
						"value": "t_address"
					},
					"t_string_storage": {
						"encoding": "bytes",
						"label": "string",
						"numberOfBytes": "32"
					},
					"t_struct(Ability)12_storage": {
						"encoding": "inplace",
						"label": "struct PokemonFactory.Ability",
						"members": [
							{
								"astId": 9,
								"contract": "PokemonFactory.sol:PokemonFactory",
								"label": "name",
								"offset": 0,
								"slot": "0",
								"type": "t_string_storage"
							},
							{
								"astId": 11,
								"contract": "PokemonFactory.sol:PokemonFactory",
								"label": "description",
								"offset": 0,
								"slot": "1",
								"type": "t_string_storage"
							}
						],
						"numberOfBytes": "64"
					},
					"t_struct(Pokemon)35_storage": {
						"encoding": "inplace",
						"label": "struct PokemonFactory.Pokemon",
						"members": [
							{
								"astId": 20,
								"contract": "PokemonFactory.sol:PokemonFactory",
								"label": "id",
								"offset": 0,
								"slot": "0",
								"type": "t_uint256"
							},
							{
								"astId": 22,
								"contract": "PokemonFactory.sol:PokemonFactory",
								"label": "name",
								"offset": 0,
								"slot": "1",
								"type": "t_string_storage"
							},
							{
								"astId": 26,
								"contract": "PokemonFactory.sol:PokemonFactory",
								"label": "abilities",
								"offset": 0,
								"slot": "2",
								"type": "t_array(t_struct(Ability)12_storage)dyn_storage"
							},
							{
								"astId": 30,
								"contract": "PokemonFactory.sol:PokemonFactory",
								"label": "types",
								"offset": 0,
								"slot": "3",
								"type": "t_array(t_struct(Type)15_storage)dyn_storage"
							},
							{
								"astId": 34,
								"contract": "PokemonFactory.sol:PokemonFactory",
								"label": "weaknesses",
								"offset": 0,
								"slot": "4",
								"type": "t_array(t_struct(Weakness)18_storage)dyn_storage"
							}
						],
						"numberOfBytes": "160"
					},
					"t_struct(Type)15_storage": {
						"encoding": "inplace",
						"label": "struct PokemonFactory.Type",
						"members": [
							{
								"astId": 14,
								"contract": "PokemonFactory.sol:PokemonFactory",
								"label": "name",
								"offset": 0,
								"slot": "0",
								"type": "t_string_storage"
							}
						],
						"numberOfBytes": "32"
					},
					"t_struct(Weakness)18_storage": {
						"encoding": "inplace",
						"label": "struct PokemonFactory.Weakness",
						"members": [
							{
								"astId": 17,
								"contract": "PokemonFactory.sol:PokemonFactory",
								"label": "name",
								"offset": 0,
								"slot": "0",
								"type": "t_string_storage"
							}
						],
						"numberOfBytes": "32"
					},
					"t_uint256": {
						"encoding": "inplace",
						"label": "uint256",
						"numberOfBytes": "32"
					}
				}
			},
			"userdoc": {
				"kind": "user",
				"methods": {},
				"version": 1
			}
		}
	}
}