{"contracts/PokemonFactory.sol":{"PokemonFactory":{"abi":[{"anonymous":false,"inputs":[{"indexed":false,"internalType":"uint256","name":"id","type":"uint256"},{"indexed":false,"internalType":"string","name":"name","type":"string"}],"name":"eventNewPokemon","type":"event"},{"inputs":[{"internalType":"uint256","name":"_id","type":"uint256"},{"internalType":"string","name":"_name","type":"string"},{"internalType":"enum PokemonFactory.Tipos[]","name":"_Type","type":"uint8[]"},{"internalType":"enum PokemonFactory.Tipos[]","name":"_Weaknesses","type":"uint8[]"},{"internalType":"uint256[]","name":"_habilities","type":"uint256[]"}],"name":"createPokemon","outputs":[],"stateMutability":"nonpayable","type":"function"},{"inputs":[],"name":"getAllPokemons","outputs":[{"components":[{"internalType":"uint256","name":"id","type":"uint256"},{"internalType":"string","name":"name","type":"string"},{"internalType":"enum PokemonFactory.Tipos[]","name":"Type","type":"uint8[]"},{"internalType":"enum PokemonFactory.Tipos[]","name":"Weaknesses","type":"uint8[]"},{"internalType":"uint256[]","name":"Habilities","type":"uint256[]"}],"internalType":"struct PokemonFactory.Pokemon[]","name":"","type":"tuple[]"}],"stateMutability":"view","type":"function"},{"inputs":[],"name":"getResult","outputs":[{"internalType":"uint256","name":"product","type":"uint256"},{"internalType":"uint256","name":"sum","type":"uint256"}],"stateMutability":"pure","type":"function"},{"inputs":[{"internalType":"uint256","name":"_pokemonId","type":"uint256"},{"internalType":"uint256","name":"_habilityIndex","type":"uint256"},{"internalType":"string","name":"_name","type":"string"},{"internalType":"string","name":"_description","type":"string"}],"name":"pokemonEvolution","outputs":[],"stateMutability":"nonpayable","type":"function"},{"inputs":[{"internalType":"uint256","name":"","type":"uint256"},{"internalType":"uint256","name":"","type":"uint256"}],"name":"pokemonHabilities","outputs":[{"internalType":"string","name":"Name","type":"string"},{"internalType":"string","name":"Description","type":"string"}],"stateMutability":"view","type":"function"},{"inputs":[{"internalType":"uint256","name":"","type":"uint256"}],"name":"pokemonToOwner","outputs":[{"internalType":"address","name":"","type":"address"}],"stateMutability":"view","type":"function"}],"evm":{"bytecode":{"linkReferences":{},"object":"608060405234801561001057600080fd5b50611aa6806100206000396000f3fe608060405234801561001057600080fd5b50600436106100625760003560e01c80632f7467b3146100675780635affd2d4146100975780635c778444146100b35780635e916790146100e45780636f5a59d614610102578063de2927891461011e575b600080fd5b610081600480360381019061007c9190610ae2565b61013d565b60405161008e9190610b50565b60405180910390f35b6100b160048036038101906100ac9190610e61565b610170565b005b6100cd60048036038101906100c89190610f4c565b610469565b6040516100db92919061100b565b60405180910390f35b6100ec6105ba565b6040516100f991906113bd565b60405180910390f35b61011c600480360381019061011791906113df565b610827565b005b610126610947565b60405161013492919061148d565b60405180910390f35b60016020528060005260406000206000915054906101000a900473ffffffffffffffffffffffffffffffffffffffff1681565b84600081116101b4576040517f08c379a00000000000000000000000000000000000000000000000000000000081526004016101ab90611528565b60405180910390fd5b8460028151116101f9576040517f08c379a00000000000000000000000000000000000000000000000000000000081526004016101f0906115ba565b60405180910390fd5b60006040518060a0016040528089815260200188815260200187815260200186815260200185815250908060018154018082558091505060019003906000526020600020906005020160009091909190915060008201518160000155602082015181600101908161026a91906117e6565b506040820151816002019080519060200190610287929190610978565b5060608201518160030190805190602001906102a4929190610978565b5060808201518160040190805190602001906102c1929190610a2e565b505050336001600089815260200190815260200160002060006101000a81548173ffffffffffffffffffffffffffffffffffffffff021916908373ffffffffffffffffffffffffffffffffffffffff160217905550600260003373ffffffffffffffffffffffffffffffffffffffff1673ffffffffffffffffffffffffffffffffffffffff1681526020019081526020016000206000815480929190610366906118e7565b919050555060005b83518110156104275760036000898152602001908152602001600020604051806040016040528060405180602001604052806000815250815260200160405180602001604052806000815250815250908060018154018082558091505060019003906000526020600020906002020160009091909190915060008201518160000190816103fb91906117e6565b50602082015181600101908161041191906117e6565b505050808061041f906118e7565b91505061036e565b507e570a6686f18a686cdda2f62a7954c6bd78c21f4b33df90b0a5479f5ae8a9a8878760405161045892919061192f565b60405180910390a150505050505050565b6003602052816000526040600020818154811061048557600080fd5b9060005260206000209060020201600091509150508060000180546104a990611609565b80601f01602080910402602001604051908101604052809291908181526020018280546104d590611609565b80156105225780601f106104f757610100808354040283529160200191610522565b820191906000526020600020905b81548152906001019060200180831161050557829003601f168201915b50505050509080600101805461053790611609565b80601f016020809104026020016040519081016040528092919081815260200182805461056390611609565b80156105b05780601f10610585576101008083540402835291602001916105b0565b820191906000526020600020905b81548152906001019060200180831161059357829003601f168201915b5050505050905082565b60606000805480602002602001604051908101604052809291908181526020016000905b8282101561081e57838290600052602060002090600502016040518060a00160405290816000820154815260200160018201805461061b90611609565b80601f016020809104026020016040519081016040528092919081815260200182805461064790611609565b80156106945780601f1061066957610100808354040283529160200191610694565b820191906000526020600020905b81548152906001019060200180831161067757829003601f168201915b505050505081526020016002820180548060200260200160405190810160405280929190818152602001828054801561072157602002820191906000526020600020906000905b82829054906101000a900460ff1660118111156106fb576106fa6110f3565b5b815260200190600101906020826000010492830192600103820291508084116106db5790505b50505050508152602001600382018054806020026020016040519081016040528092919081815260200182805480156107ae57602002820191906000526020600020906000905b82829054906101000a900460ff166011811115610788576107876110f3565b5b815260200190600101906020826000010492830192600103820291508084116107685790505b505050505081526020016004820180548060200260200160405190810160405280929190818152602001828054801561080657602002820191906000526020600020905b8154815260200190600101908083116107f2575b505050505081525050815260200190600101906105de565b50505050905090565b836001600082815260200190815260200160002060009054906101000a900473ffffffffffffffffffffffffffffffffffffffff1673ffffffffffffffffffffffffffffffffffffffff163373ffffffffffffffffffffffffffffffffffffffff16146108c9576040517f08c379a00000000000000000000000000000000000000000000000000000000081526004016108c0906119ab565b60405180910390fd5b604051806040016040528084815260200183815250600360008781526020019081526020016000208581548110610903576109026119cb565b5b9060005260206000209060020201600082015181600001908161092691906117e6565b50602082015181600101908161093c91906117e6565b509050505050505050565b600080600060019050600060029050808261096291906119fa565b935080826109709190611a3c565b925050509091565b82805482825590600052602060002090601f01602090048101928215610a1d5791602002820160005b838211156109ee57835183826101000a81548160ff021916908360118111156109cd576109cc6110f3565b5b021790555092602001926001016020816000010492830192600103026109a1565b8015610a1b5782816101000a81549060ff02191690556001016020816000010492830192600103026109ee565b505b509050610a2a9190610a7b565b5090565b828054828255906000526020600020908101928215610a6a579160200282015b82811115610a69578251825591602001919060010190610a4e565b5b509050610a779190610a7b565b5090565b5b80821115610a94576000816000905550600101610a7c565b5090565b6000604051905090565b600080fd5b600080fd5b6000819050919050565b610abf81610aac565b8114610aca57600080fd5b50565b600081359050610adc81610ab6565b92915050565b600060208284031215610af857610af7610aa2565b5b6000610b0684828501610acd565b91505092915050565b600073ffffffffffffffffffffffffffffffffffffffff82169050919050565b6000610b3a82610b0f565b9050919050565b610b4a81610b2f565b82525050565b6000602082019050610b656000830184610b41565b92915050565b600080fd5b600080fd5b6000601f19601f8301169050919050565b7f4e487b7100000000000000000000000000000000000000000000000000000000600052604160045260246000fd5b610bbe82610b75565b810181811067ffffffffffffffff82111715610bdd57610bdc610b86565b5b80604052505050565b6000610bf0610a98565b9050610bfc8282610bb5565b919050565b600067ffffffffffffffff821115610c1c57610c1b610b86565b5b610c2582610b75565b9050602081019050919050565b82818337600083830152505050565b6000610c54610c4f84610c01565b610be6565b905082815260208101848484011115610c7057610c6f610b70565b5b610c7b848285610c32565b509392505050565b600082601f830112610c9857610c97610b6b565b5b8135610ca8848260208601610c41565b91505092915050565b600067ffffffffffffffff821115610ccc57610ccb610b86565b5b602082029050602081019050919050565b600080fd5b60128110610cef57600080fd5b50565b600081359050610d0181610ce2565b92915050565b6000610d1a610d1584610cb1565b610be6565b90508083825260208201905060208402830185811115610d3d57610d3c610cdd565b5b835b81811015610d665780610d528882610cf2565b845260208401935050602081019050610d3f565b5050509392505050565b600082601f830112610d8557610d84610b6b565b5b8135610d95848260208601610d07565b91505092915050565b600067ffffffffffffffff821115610db957610db8610b86565b5b602082029050602081019050919050565b6000610ddd610dd884610d9e565b610be6565b90508083825260208201905060208402830185811115610e0057610dff610cdd565b5b835b81811015610e295780610e158882610acd565b845260208401935050602081019050610e02565b5050509392505050565b600082601f830112610e4857610e47610b6b565b5b8135610e58848260208601610dca565b91505092915050565b600080600080600060a08688031215610e7d57610e7c610aa2565b5b6000610e8b88828901610acd565b955050602086013567ffffffffffffffff811115610eac57610eab610aa7565b5b610eb888828901610c83565b945050604086013567ffffffffffffffff811115610ed957610ed8610aa7565b5b610ee588828901610d70565b935050606086013567ffffffffffffffff811115610f0657610f05610aa7565b5b610f1288828901610d70565b925050608086013567ffffffffffffffff811115610f3357610f32610aa7565b5b610f3f88828901610e33565b9150509295509295909350565b60008060408385031215610f6357610f62610aa2565b5b6000610f7185828601610acd565b9250506020610f8285828601610acd565b9150509250929050565b600081519050919050565b600082825260208201905092915050565b60005b83811015610fc6578082015181840152602081019050610fab565b60008484015250505050565b6000610fdd82610f8c565b610fe78185610f97565b9350610ff7818560208601610fa8565b61100081610b75565b840191505092915050565b600060408201905081810360008301526110258185610fd2565b905081810360208301526110398184610fd2565b90509392505050565b600081519050919050565b600082825260208201905092915050565b6000819050602082019050919050565b61107781610aac565b82525050565b600082825260208201905092915050565b600061109982610f8c565b6110a3818561107d565b93506110b3818560208601610fa8565b6110bc81610b75565b840191505092915050565b600081519050919050565b600082825260208201905092915050565b6000819050602082019050919050565b7f4e487b7100000000000000000000000000000000000000000000000000000000600052602160045260246000fd5b60128110611133576111326110f3565b5b50565b600081905061114482611122565b919050565b600061115482611136565b9050919050565b61116481611149565b82525050565b6000611176838361115b565b60208301905092915050565b6000602082019050919050565b600061119a826110c7565b6111a481856110d2565b93506111af836110e3565b8060005b838110156111e05781516111c7888261116a565b97506111d283611182565b9250506001810190506111b3565b5085935050505092915050565b600081519050919050565b600082825260208201905092915050565b6000819050602082019050919050565b6000611225838361106e565b60208301905092915050565b6000602082019050919050565b6000611249826111ed565b61125381856111f8565b935061125e83611209565b8060005b8381101561128f5781516112768882611219565b975061128183611231565b925050600181019050611262565b5085935050505092915050565b600060a0830160008301516112b4600086018261106e565b50602083015184820360208601526112cc828261108e565b915050604083015184820360408601526112e6828261118f565b91505060608301518482036060860152611300828261118f565b9150506080830151848203608086015261131a828261123e565b9150508091505092915050565b6000611333838361129c565b905092915050565b6000602082019050919050565b600061135382611042565b61135d818561104d565b93508360208202850161136f8561105e565b8060005b858110156113ab578484038952815161138c8582611327565b94506113978361133b565b925060208a01995050600181019050611373565b50829750879550505050505092915050565b600060208201905081810360008301526113d78184611348565b905092915050565b600080600080608085870312156113f9576113f8610aa2565b5b600061140787828801610acd565b945050602061141887828801610acd565b935050604085013567ffffffffffffffff81111561143957611438610aa7565b5b61144587828801610c83565b925050606085013567ffffffffffffffff81111561146657611465610aa7565b5b61147287828801610c83565b91505092959194509250565b61148781610aac565b82525050565b60006040820190506114a2600083018561147e565b6114af602083018461147e565b9392505050565b7f456c20696420646520747520706f6b656d6f6e206465626520736572206d617960008201527f6f72206120300000000000000000000000000000000000000000000000000000602082015250565b6000611512602683610f97565b915061151d826114b6565b604082019050919050565b6000602082019050818103600083015261154181611505565b9050919050565b7f456c206e6f6d62726520646520747520706f6b656d6f6e20646562652073657260008201527f206d61796f722061203220636172616374657265730000000000000000000000602082015250565b60006115a4603583610f97565b91506115af82611548565b604082019050919050565b600060208201905081810360008301526115d381611597565b9050919050565b7f4e487b7100000000000000000000000000000000000000000000000000000000600052602260045260246000fd5b6000600282049050600182168061162157607f821691505b602082108103611634576116336115da565b5b50919050565b60008190508160005260206000209050919050565b60006020601f8301049050919050565b600082821b905092915050565b60006008830261169c7fffffffffffffffffffffffffffffffffffffffffffffffffffffffffffffffff8261165f565b6116a6868361165f565b95508019841693508086168417925050509392505050565b6000819050919050565b60006116e36116de6116d984610aac565b6116be565b610aac565b9050919050565b6000819050919050565b6116fd836116c8565b611711611709826116ea565b84845461166c565b825550505050565b600090565b611726611719565b6117318184846116f4565b505050565b5b818110156117555761174a60008261171e565b600181019050611737565b5050565b601f82111561179a5761176b8161163a565b6117748461164f565b81016020851015611783578190505b61179761178f8561164f565b830182611736565b50505b505050565b600082821c905092915050565b60006117bd6000198460080261179f565b1980831691505092915050565b60006117d683836117ac565b9150826002028217905092915050565b6117ef82610f8c565b67ffffffffffffffff81111561180857611807610b86565b5b6118128254611609565b61181d828285611759565b600060209050601f831160018114611850576000841561183e578287015190505b61184885826117ca565b8655506118b0565b601f19841661185e8661163a565b60005b8281101561188657848901518255600182019150602085019450602081019050611861565b868310156118a3578489015161189f601f8916826117ac565b8355505b6001600288020188555050505b505050505050565b7f4e487b7100000000000000000000000000000000000000000000000000000000600052601160045260246000fd5b60006118f282610aac565b91507fffffffffffffffffffffffffffffffffffffffffffffffffffffffffffffffff8203611924576119236118b8565b5b600182019050919050565b6000604082019050611944600083018561147e565b81810360208301526119568184610fd2565b90509392505050565b7f6573746520706f6b656d6f6e206e6f206573207475796f000000000000000000600082015250565b6000611995601783610f97565b91506119a08261195f565b602082019050919050565b600060208201905081810360008301526119c481611988565b9050919050565b7f4e487b7100000000000000000000000000000000000000000000000000000000600052603260045260246000fd5b6000611a0582610aac565b9150611a1083610aac565b9250828202611a1e81610aac565b91508282048414831517611a3557611a346118b8565b5b5092915050565b6000611a4782610aac565b9150611a5283610aac565b9250828201905080821115611a6a57611a696118b8565b5b9291505056fea2646970667358221220284cd34b063f6ef1b2dc08d2529d34313cd48db0eae260a7e4e8778b71f4dc3e64736f6c63430008120033","opcodes":"PUSH1 0x80 PUSH1 0x40 MSTORE CALLVALUE DUP1 ISZERO PUSH2 0x10 JUMPI PUSH1 0x0 DUP1 REVERT JUMPDEST POP PUSH2 0x1AA6 DUP1 PUSH2 0x20 PUSH1 0x0 CODECOPY PUSH1 0x0 RETURN INVALID PUSH1 0x80 PUSH1 0x40 MSTORE CALLVALUE DUP1 ISZERO PUSH2 0x10 JUMPI PUSH1 0x0 DUP1 REVERT JUMPDEST POP PUSH1 0x4 CALLDATASIZE LT PUSH2 0x62 JUMPI PUSH1 0x0 CALLDATALOAD PUSH1 0xE0 SHR DUP1 PUSH4 0x2F7467B3 EQ PUSH2 0x67 JUMPI DUP1 PUSH4 0x5AFFD2D4 EQ PUSH2 0x97 JUMPI DUP1 PUSH4 0x5C778444 EQ PUSH2 0xB3 JUMPI DUP1 PUSH4 0x5E916790 EQ PUSH2 0xE4 JUMPI DUP1 PUSH4 0x6F5A59D6 EQ PUSH2 0x102 JUMPI DUP1 PUSH4 0xDE292789 EQ PUSH2 0x11E JUMPI JUMPDEST PUSH1 0x0 DUP1 REVERT JUMPDEST PUSH2 0x81 PUSH1 0x4 DUP1 CALLDATASIZE SUB DUP2 ADD SWAP1 PUSH2 0x7C SWAP2 SWAP1 PUSH2 0xAE2 JUMP JUMPDEST PUSH2 0x13D JUMP JUMPDEST PUSH1 0x40 MLOAD PUSH2 0x8E SWAP2 SWAP1 PUSH2 0xB50 JUMP JUMPDEST PUSH1 0x40 MLOAD DUP1 SWAP2 SUB SWAP1 RETURN JUMPDEST PUSH2 0xB1 PUSH1 0x4 DUP1 CALLDATASIZE SUB DUP2 ADD SWAP1 PUSH2 0xAC SWAP2 SWAP1 PUSH2 0xE61 JUMP JUMPDEST PUSH2 0x170 JUMP JUMPDEST STOP JUMPDEST PUSH2 0xCD PUSH1 0x4 DUP1 CALLDATASIZE SUB DUP2 ADD SWAP1 PUSH2 0xC8 SWAP2 SWAP1 PUSH2 0xF4C JUMP JUMPDEST PUSH2 0x469 JUMP JUMPDEST PUSH1 0x40 MLOAD PUSH2 0xDB SWAP3 SWAP2 SWAP1 PUSH2 0x100B JUMP JUMPDEST PUSH1 0x40 MLOAD DUP1 SWAP2 SUB SWAP1 RETURN JUMPDEST PUSH2 0xEC PUSH2 0x5BA JUMP JUMPDEST PUSH1 0x40 MLOAD PUSH2 0xF9 SWAP2 SWAP1 PUSH2 0x13BD JUMP JUMPDEST PUSH1 0x40 MLOAD DUP1 SWAP2 SUB SWAP1 RETURN JUMPDEST PUSH2 0x11C PUSH1 0x4 DUP1 CALLDATASIZE SUB DUP2 ADD SWAP1 PUSH2 0x117 SWAP2 SWAP1 PUSH2 0x13DF JUMP JUMPDEST PUSH2 0x827 JUMP JUMPDEST STOP JUMPDEST PUSH2 0x126 PUSH2 0x947 JUMP JUMPDEST PUSH1 0x40 MLOAD PUSH2 0x134 SWAP3 SWAP2 SWAP1 PUSH2 0x148D JUMP JUMPDEST PUSH1 0x40 MLOAD DUP1 SWAP2 SUB SWAP1 RETURN JUMPDEST PUSH1 0x1 PUSH1 0x20 MSTORE DUP1 PUSH1 0x0 MSTORE PUSH1 0x40 PUSH1 0x0 KECCAK256 PUSH1 0x0 SWAP2 POP SLOAD SWAP1 PUSH2 0x100 EXP SWAP1 DIV PUSH20 0xFFFFFFFFFFFFFFFFFFFFFFFFFFFFFFFFFFFFFFFF AND DUP2 JUMP JUMPDEST DUP5 PUSH1 0x0 DUP2 GT PUSH2 0x1B4 JUMPI PUSH1 0x40 MLOAD PUSH32 0x8C379A000000000000000000000000000000000000000000000000000000000 DUP2 MSTORE PUSH1 0x4 ADD PUSH2 0x1AB SWAP1 PUSH2 0x1528 JUMP JUMPDEST PUSH1 0x40 MLOAD DUP1 SWAP2 SUB SWAP1 REVERT JUMPDEST DUP5 PUSH1 0x2 DUP2 MLOAD GT PUSH2 0x1F9 JUMPI PUSH1 0x40 MLOAD PUSH32 0x8C379A000000000000000000000000000000000000000000000000000000000 DUP2 MSTORE PUSH1 0x4 ADD PUSH2 0x1F0 SWAP1 PUSH2 0x15BA JUMP JUMPDEST PUSH1 0x40 MLOAD DUP1 SWAP2 SUB SWAP1 REVERT JUMPDEST PUSH1 0x0 PUSH1 0x40 MLOAD DUP1 PUSH1 0xA0 ADD PUSH1 0x40 MSTORE DUP1 DUP10 DUP2 MSTORE PUSH1 0x20 ADD DUP9 DUP2 MSTORE PUSH1 0x20 ADD DUP8 DUP2 MSTORE PUSH1 0x20 ADD DUP7 DUP2 MSTORE PUSH1 0x20 ADD DUP6 DUP2 MSTORE POP SWAP1 DUP1 PUSH1 0x1 DUP2 SLOAD ADD DUP1 DUP3 SSTORE DUP1 SWAP2 POP POP PUSH1 0x1 SWAP1 SUB SWAP1 PUSH1 0x0 MSTORE PUSH1 0x20 PUSH1 0x0 KECCAK256 SWAP1 PUSH1 0x5 MUL ADD PUSH1 0x0 SWAP1 SWAP2 SWAP1 SWAP2 SWAP1 SWAP2 POP PUSH1 0x0 DUP3 ADD MLOAD DUP2 PUSH1 0x0 ADD SSTORE PUSH1 0x20 DUP3 ADD MLOAD DUP2 PUSH1 0x1 ADD SWAP1 DUP2 PUSH2 0x26A SWAP2 SWAP1 PUSH2 0x17E6 JUMP JUMPDEST POP PUSH1 0x40 DUP3 ADD MLOAD DUP2 PUSH1 0x2 ADD SWAP1 DUP1 MLOAD SWAP1 PUSH1 0x20 ADD SWAP1 PUSH2 0x287 SWAP3 SWAP2 SWAP1 PUSH2 0x978 JUMP JUMPDEST POP PUSH1 0x60 DUP3 ADD MLOAD DUP2 PUSH1 0x3 ADD SWAP1 DUP1 MLOAD SWAP1 PUSH1 0x20 ADD SWAP1 PUSH2 0x2A4 SWAP3 SWAP2 SWAP1 PUSH2 0x978 JUMP JUMPDEST POP PUSH1 0x80 DUP3 ADD MLOAD DUP2 PUSH1 0x4 ADD SWAP1 DUP1 MLOAD SWAP1 PUSH1 0x20 ADD SWAP1 PUSH2 0x2C1 SWAP3 SWAP2 SWAP1 PUSH2 0xA2E JUMP JUMPDEST POP POP POP CALLER PUSH1 0x1 PUSH1 0x0 DUP10 DUP2 MSTORE PUSH1 0x20 ADD SWAP1 DUP2 MSTORE PUSH1 0x20 ADD PUSH1 0x0 KECCAK256 PUSH1 0x0 PUSH2 0x100 EXP DUP2 SLOAD DUP2 PUSH20 0xFFFFFFFFFFFFFFFFFFFFFFFFFFFFFFFFFFFFFFFF MUL NOT AND SWAP1 DUP4 PUSH20 0xFFFFFFFFFFFFFFFFFFFFFFFFFFFFFFFFFFFFFFFF AND MUL OR SWAP1 SSTORE POP PUSH1 0x2 PUSH1 0x0 CALLER PUSH20 0xFFFFFFFFFFFFFFFFFFFFFFFFFFFFFFFFFFFFFFFF AND PUSH20 0xFFFFFFFFFFFFFFFFFFFFFFFFFFFFFFFFFFFFFFFF AND DUP2 MSTORE PUSH1 0x20 ADD SWAP1 DUP2 MSTORE PUSH1 0x20 ADD PUSH1 0x0 KECCAK256 PUSH1 0x0 DUP2 SLOAD DUP1 SWAP3 SWAP2 SWAP1 PUSH2 0x366 SWAP1 PUSH2 0x18E7 JUMP JUMPDEST SWAP2 SWAP1 POP SSTORE POP PUSH1 0x0 JUMPDEST DUP4 MLOAD DUP2 LT ISZERO PUSH2 0x427 JUMPI PUSH1 0x3 PUSH1 0x0 DUP10 DUP2 MSTORE PUSH1 0x20 ADD SWAP1 DUP2 MSTORE PUSH1 0x20 ADD PUSH1 0x0 KECCAK256 PUSH1 0x40 MLOAD DUP1 PUSH1 0x40 ADD PUSH1 0x40 MSTORE DUP1 PUSH1 0x40 MLOAD DUP1 PUSH1 0x20 ADD PUSH1 0x40 MSTORE DUP1 PUSH1 0x0 DUP2 MSTORE POP DUP2 MSTORE PUSH1 0x20 ADD PUSH1 0x40 MLOAD DUP1 PUSH1 0x20 ADD PUSH1 0x40 MSTORE DUP1 PUSH1 0x0 DUP2 MSTORE POP DUP2 MSTORE POP SWAP1 DUP1 PUSH1 0x1 DUP2 SLOAD ADD DUP1 DUP3 SSTORE DUP1 SWAP2 POP POP PUSH1 0x1 SWAP1 SUB SWAP1 PUSH1 0x0 MSTORE PUSH1 0x20 PUSH1 0x0 KECCAK256 SWAP1 PUSH1 0x2 MUL ADD PUSH1 0x0 SWAP1 SWAP2 SWAP1 SWAP2 SWAP1 SWAP2 POP PUSH1 0x0 DUP3 ADD MLOAD DUP2 PUSH1 0x0 ADD SWAP1 DUP2 PUSH2 0x3FB SWAP2 SWAP1 PUSH2 0x17E6 JUMP JUMPDEST POP PUSH1 0x20 DUP3 ADD MLOAD DUP2 PUSH1 0x1 ADD SWAP1 DUP2 PUSH2 0x411 SWAP2 SWAP1 PUSH2 0x17E6 JUMP JUMPDEST POP POP POP DUP1 DUP1 PUSH2 0x41F SWAP1 PUSH2 0x18E7 JUMP JUMPDEST SWAP2 POP POP PUSH2 0x36E JUMP JUMPDEST POP PUSH31 0x570A6686F18A686CDDA2F62A7954C6BD78C21F4B33DF90B0A5479F5AE8A9A8 DUP8 DUP8 PUSH1 0x40 MLOAD PUSH2 0x458 SWAP3 SWAP2 SWAP1 PUSH2 0x192F JUMP JUMPDEST PUSH1 0x40 MLOAD DUP1 SWAP2 SUB SWAP1 LOG1 POP POP POP POP POP POP POP JUMP JUMPDEST PUSH1 0x3 PUSH1 0x20 MSTORE DUP2 PUSH1 0x0 MSTORE PUSH1 0x40 PUSH1 0x0 KECCAK256 DUP2 DUP2 SLOAD DUP2 LT PUSH2 0x485 JUMPI PUSH1 0x0 DUP1 REVERT JUMPDEST SWAP1 PUSH1 0x0 MSTORE PUSH1 0x20 PUSH1 0x0 KECCAK256 SWAP1 PUSH1 0x2 MUL ADD PUSH1 0x0 SWAP2 POP SWAP2 POP POP DUP1 PUSH1 0x0 ADD DUP1 SLOAD PUSH2 0x4A9 SWAP1 PUSH2 0x1609 JUMP JUMPDEST DUP1 PUSH1 0x1F ADD PUSH1 0x20 DUP1 SWAP2 DIV MUL PUSH1 0x20 ADD PUSH1 0x40 MLOAD SWAP1 DUP2 ADD PUSH1 0x40 MSTORE DUP1 SWAP3 SWAP2 SWAP1 DUP2 DUP2 MSTORE PUSH1 0x20 ADD DUP3 DUP1 SLOAD PUSH2 0x4D5 SWAP1 PUSH2 0x1609 JUMP JUMPDEST DUP1 ISZERO PUSH2 0x522 JUMPI DUP1 PUSH1 0x1F LT PUSH2 0x4F7 JUMPI PUSH2 0x100 DUP1 DUP4 SLOAD DIV MUL DUP4 MSTORE SWAP2 PUSH1 0x20 ADD SWAP2 PUSH2 0x522 JUMP JUMPDEST DUP3 ADD SWAP2 SWAP1 PUSH1 0x0 MSTORE PUSH1 0x20 PUSH1 0x0 KECCAK256 SWAP1 JUMPDEST DUP2 SLOAD DUP2 MSTORE SWAP1 PUSH1 0x1 ADD SWAP1 PUSH1 0x20 ADD DUP1 DUP4 GT PUSH2 0x505 JUMPI DUP3 SWAP1 SUB PUSH1 0x1F AND DUP3 ADD SWAP2 JUMPDEST POP POP POP POP POP SWAP1 DUP1 PUSH1 0x1 ADD DUP1 SLOAD PUSH2 0x537 SWAP1 PUSH2 0x1609 JUMP JUMPDEST DUP1 PUSH1 0x1F ADD PUSH1 0x20 DUP1 SWAP2 DIV MUL PUSH1 0x20 ADD PUSH1 0x40 MLOAD SWAP1 DUP2 ADD PUSH1 0x40 MSTORE DUP1 SWAP3 SWAP2 SWAP1 DUP2 DUP2 MSTORE PUSH1 0x20 ADD DUP3 DUP1 SLOAD PUSH2 0x563 SWAP1 PUSH2 0x1609 JUMP JUMPDEST DUP1 ISZERO PUSH2 0x5B0 JUMPI DUP1 PUSH1 0x1F LT PUSH2 0x585 JUMPI PUSH2 0x100 DUP1 DUP4 SLOAD DIV MUL DUP4 MSTORE SWAP2 PUSH1 0x20 ADD SWAP2 PUSH2 0x5B0 JUMP JUMPDEST DUP3 ADD SWAP2 SWAP1 PUSH1 0x0 MSTORE PUSH1 0x20 PUSH1 0x0 KECCAK256 SWAP1 JUMPDEST DUP2 SLOAD DUP2 MSTORE SWAP1 PUSH1 0x1 ADD SWAP1 PUSH1 0x20 ADD DUP1 DUP4 GT PUSH2 0x593 JUMPI DUP3 SWAP1 SUB PUSH1 0x1F AND DUP3 ADD SWAP2 JUMPDEST POP POP POP POP POP SWAP1 POP DUP3 JUMP JUMPDEST PUSH1 0x60 PUSH1 0x0 DUP1 SLOAD DUP1 PUSH1 0x20 MUL PUSH1 0x20 ADD PUSH1 0x40 MLOAD SWAP1 DUP2 ADD PUSH1 0x40 MSTORE DUP1 SWAP3 SWAP2 SWAP1 DUP2 DUP2 MSTORE PUSH1 0x20 ADD PUSH1 0x0 SWAP1 JUMPDEST DUP3 DUP3 LT ISZERO PUSH2 0x81E JUMPI DUP4 DUP3 SWAP1 PUSH1 0x0 MSTORE PUSH1 0x20 PUSH1 0x0 KECCAK256 SWAP1 PUSH1 0x5 MUL ADD PUSH1 0x40 MLOAD DUP1 PUSH1 0xA0 ADD PUSH1 0x40 MSTORE SWAP1 DUP2 PUSH1 0x0 DUP3 ADD SLOAD DUP2 MSTORE PUSH1 0x20 ADD PUSH1 0x1 DUP3 ADD DUP1 SLOAD PUSH2 0x61B SWAP1 PUSH2 0x1609 JUMP JUMPDEST DUP1 PUSH1 0x1F ADD PUSH1 0x20 DUP1 SWAP2 DIV MUL PUSH1 0x20 ADD PUSH1 0x40 MLOAD SWAP1 DUP2 ADD PUSH1 0x40 MSTORE DUP1 SWAP3 SWAP2 SWAP1 DUP2 DUP2 MSTORE PUSH1 0x20 ADD DUP3 DUP1 SLOAD PUSH2 0x647 SWAP1 PUSH2 0x1609 JUMP JUMPDEST DUP1 ISZERO PUSH2 0x694 JUMPI DUP1 PUSH1 0x1F LT PUSH2 0x669 JUMPI PUSH2 0x100 DUP1 DUP4 SLOAD DIV MUL DUP4 MSTORE SWAP2 PUSH1 0x20 ADD SWAP2 PUSH2 0x694 JUMP JUMPDEST DUP3 ADD SWAP2 SWAP1 PUSH1 0x0 MSTORE PUSH1 0x20 PUSH1 0x0 KECCAK256 SWAP1 JUMPDEST DUP2 SLOAD DUP2 MSTORE SWAP1 PUSH1 0x1 ADD SWAP1 PUSH1 0x20 ADD DUP1 DUP4 GT PUSH2 0x677 JUMPI DUP3 SWAP1 SUB PUSH1 0x1F AND DUP3 ADD SWAP2 JUMPDEST POP POP POP POP POP DUP2 MSTORE PUSH1 0x20 ADD PUSH1 0x2 DUP3 ADD DUP1 SLOAD DUP1 PUSH1 0x20 MUL PUSH1 0x20 ADD PUSH1 0x40 MLOAD SWAP1 DUP2 ADD PUSH1 0x40 MSTORE DUP1 SWAP3 SWAP2 SWAP1 DUP2 DUP2 MSTORE PUSH1 0x20 ADD DUP3 DUP1 SLOAD DUP1 ISZERO PUSH2 0x721 JUMPI PUSH1 0x20 MUL DUP3 ADD SWAP2 SWAP1 PUSH1 0x0 MSTORE PUSH1 0x20 PUSH1 0x0 KECCAK256 SWAP1 PUSH1 0x0 SWAP1 JUMPDEST DUP3 DUP3 SWAP1 SLOAD SWAP1 PUSH2 0x100 EXP SWAP1 DIV PUSH1 0xFF AND PUSH1 0x11 DUP2 GT ISZERO PUSH2 0x6FB JUMPI PUSH2 0x6FA PUSH2 0x10F3 JUMP JUMPDEST JUMPDEST DUP2 MSTORE PUSH1 0x20 ADD SWAP1 PUSH1 0x1 ADD SWAP1 PUSH1 0x20 DUP3 PUSH1 0x0 ADD DIV SWAP3 DUP4 ADD SWAP3 PUSH1 0x1 SUB DUP3 MUL SWAP2 POP DUP1 DUP5 GT PUSH2 0x6DB JUMPI SWAP1 POP JUMPDEST POP POP POP POP POP DUP2 MSTORE PUSH1 0x20 ADD PUSH1 0x3 DUP3 ADD DUP1 SLOAD DUP1 PUSH1 0x20 MUL PUSH1 0x20 ADD PUSH1 0x40 MLOAD SWAP1 DUP2 ADD PUSH1 0x40 MSTORE DUP1 SWAP3 SWAP2 SWAP1 DUP2 DUP2 MSTORE PUSH1 0x20 ADD DUP3 DUP1 SLOAD DUP1 ISZERO PUSH2 0x7AE JUMPI PUSH1 0x20 MUL DUP3 ADD SWAP2 SWAP1 PUSH1 0x0 MSTORE PUSH1 0x20 PUSH1 0x0 KECCAK256 SWAP1 PUSH1 0x0 SWAP1 JUMPDEST DUP3 DUP3 SWAP1 SLOAD SWAP1 PUSH2 0x100 EXP SWAP1 DIV PUSH1 0xFF AND PUSH1 0x11 DUP2 GT ISZERO PUSH2 0x788 JUMPI PUSH2 0x787 PUSH2 0x10F3 JUMP JUMPDEST JUMPDEST DUP2 MSTORE PUSH1 0x20 ADD SWAP1 PUSH1 0x1 ADD SWAP1 PUSH1 0x20 DUP3 PUSH1 0x0 ADD DIV SWAP3 DUP4 ADD SWAP3 PUSH1 0x1 SUB DUP3 MUL SWAP2 POP DUP1 DUP5 GT PUSH2 0x768 JUMPI SWAP1 POP JUMPDEST POP POP POP POP POP DUP2 MSTORE PUSH1 0x20 ADD PUSH1 0x4 DUP3 ADD DUP1 SLOAD DUP1 PUSH1 0x20 MUL PUSH1 0x20 ADD PUSH1 0x40 MLOAD SWAP1 DUP2 ADD PUSH1 0x40 MSTORE DUP1 SWAP3 SWAP2 SWAP1 DUP2 DUP2 MSTORE PUSH1 0x20 ADD DUP3 DUP1 SLOAD DUP1 ISZERO PUSH2 0x806 JUMPI PUSH1 0x20 MUL DUP3 ADD SWAP2 SWAP1 PUSH1 0x0 MSTORE PUSH1 0x20 PUSH1 0x0 KECCAK256 SWAP1 JUMPDEST DUP2 SLOAD DUP2 MSTORE PUSH1 0x20 ADD SWAP1 PUSH1 0x1 ADD SWAP1 DUP1 DUP4 GT PUSH2 0x7F2 JUMPI JUMPDEST POP POP POP POP POP DUP2 MSTORE POP POP DUP2 MSTORE PUSH1 0x20 ADD SWAP1 PUSH1 0x1 ADD SWAP1 PUSH2 0x5DE JUMP JUMPDEST POP POP POP POP SWAP1 POP SWAP1 JUMP JUMPDEST DUP4 PUSH1 0x1 PUSH1 0x0 DUP3 DUP2 MSTORE PUSH1 0x20 ADD SWAP1 DUP2 MSTORE PUSH1 0x20 ADD PUSH1 0x0 KECCAK256 PUSH1 0x0 SWAP1 SLOAD SWAP1 PUSH2 0x100 EXP SWAP1 DIV PUSH20 0xFFFFFFFFFFFFFFFFFFFFFFFFFFFFFFFFFFFFFFFF AND PUSH20 0xFFFFFFFFFFFFFFFFFFFFFFFFFFFFFFFFFFFFFFFF AND CALLER PUSH20 0xFFFFFFFFFFFFFFFFFFFFFFFFFFFFFFFFFFFFFFFF AND EQ PUSH2 0x8C9 JUMPI PUSH1 0x40 MLOAD PUSH32 0x8C379A000000000000000000000000000000000000000000000000000000000 DUP2 MSTORE PUSH1 0x4 ADD PUSH2 0x8C0 SWAP1 PUSH2 0x19AB JUMP JUMPDEST PUSH1 0x40 MLOAD DUP1 SWAP2 SUB SWAP1 REVERT JUMPDEST PUSH1 0x40 MLOAD DUP1 PUSH1 0x40 ADD PUSH1 0x40 MSTORE DUP1 DUP5 DUP2 MSTORE PUSH1 0x20 ADD DUP4 DUP2 MSTORE POP PUSH1 0x3 PUSH1 0x0 DUP8 DUP2 MSTORE PUSH1 0x20 ADD SWAP1 DUP2 MSTORE PUSH1 0x20 ADD PUSH1 0x0 KECCAK256 DUP6 DUP2 SLOAD DUP2 LT PUSH2 0x903 JUMPI PUSH2 0x902 PUSH2 0x19CB JUMP JUMPDEST JUMPDEST SWAP1 PUSH1 0x0 MSTORE PUSH1 0x20 PUSH1 0x0 KECCAK256 SWAP1 PUSH1 0x2 MUL ADD PUSH1 0x0 DUP3 ADD MLOAD DUP2 PUSH1 0x0 ADD SWAP1 DUP2 PUSH2 0x926 SWAP2 SWAP1 PUSH2 0x17E6 JUMP JUMPDEST POP PUSH1 0x20 DUP3 ADD MLOAD DUP2 PUSH1 0x1 ADD SWAP1 DUP2 PUSH2 0x93C SWAP2 SWAP1 PUSH2 0x17E6 JUMP JUMPDEST POP SWAP1 POP POP POP POP POP POP POP JUMP JUMPDEST PUSH1 0x0 DUP1 PUSH1 0x0 PUSH1 0x1 SWAP1 POP PUSH1 0x0 PUSH1 0x2 SWAP1 POP DUP1 DUP3 PUSH2 0x962 SWAP2 SWAP1 PUSH2 0x19FA JUMP JUMPDEST SWAP4 POP DUP1 DUP3 PUSH2 0x970 SWAP2 SWAP1 PUSH2 0x1A3C JUMP JUMPDEST SWAP3 POP POP POP SWAP1 SWAP2 JUMP JUMPDEST DUP3 DUP1 SLOAD DUP3 DUP3 SSTORE SWAP1 PUSH1 0x0 MSTORE PUSH1 0x20 PUSH1 0x0 KECCAK256 SWAP1 PUSH1 0x1F ADD PUSH1 0x20 SWAP1 DIV DUP2 ADD SWAP3 DUP3 ISZERO PUSH2 0xA1D JUMPI SWAP2 PUSH1 0x20 MUL DUP3 ADD PUSH1 0x0 JUMPDEST DUP4 DUP3 GT ISZERO PUSH2 0x9EE JUMPI DUP4 MLOAD DUP4 DUP3 PUSH2 0x100 EXP DUP2 SLOAD DUP2 PUSH1 0xFF MUL NOT AND SWAP1 DUP4 PUSH1 0x11 DUP2 GT ISZERO PUSH2 0x9CD JUMPI PUSH2 0x9CC PUSH2 0x10F3 JUMP JUMPDEST JUMPDEST MUL OR SWAP1 SSTORE POP SWAP3 PUSH1 0x20 ADD SWAP3 PUSH1 0x1 ADD PUSH1 0x20 DUP2 PUSH1 0x0 ADD DIV SWAP3 DUP4 ADD SWAP3 PUSH1 0x1 SUB MUL PUSH2 0x9A1 JUMP JUMPDEST DUP1 ISZERO PUSH2 0xA1B JUMPI DUP3 DUP2 PUSH2 0x100 EXP DUP2 SLOAD SWAP1 PUSH1 0xFF MUL NOT AND SWAP1 SSTORE PUSH1 0x1 ADD PUSH1 0x20 DUP2 PUSH1 0x0 ADD DIV SWAP3 DUP4 ADD SWAP3 PUSH1 0x1 SUB MUL PUSH2 0x9EE JUMP JUMPDEST POP JUMPDEST POP SWAP1 POP PUSH2 0xA2A SWAP2 SWAP1 PUSH2 0xA7B JUMP JUMPDEST POP SWAP1 JUMP JUMPDEST DUP3 DUP1 SLOAD DUP3 DUP3 SSTORE SWAP1 PUSH1 0x0 MSTORE PUSH1 0x20 PUSH1 0x0 KECCAK256 SWAP1 DUP2 ADD SWAP3 DUP3 ISZERO PUSH2 0xA6A JUMPI SWAP2 PUSH1 0x20 MUL DUP3 ADD JUMPDEST DUP3 DUP2 GT ISZERO PUSH2 0xA69 JUMPI DUP3 MLOAD DUP3 SSTORE SWAP2 PUSH1 0x20 ADD SWAP2 SWAP1 PUSH1 0x1 ADD SWAP1 PUSH2 0xA4E JUMP JUMPDEST JUMPDEST POP SWAP1 POP PUSH2 0xA77 SWAP2 SWAP1 PUSH2 0xA7B JUMP JUMPDEST POP SWAP1 JUMP JUMPDEST JUMPDEST DUP1 DUP3 GT ISZERO PUSH2 0xA94 JUMPI PUSH1 0x0 DUP2 PUSH1 0x0 SWAP1 SSTORE POP PUSH1 0x1 ADD PUSH2 0xA7C JUMP JUMPDEST POP SWAP1 JUMP JUMPDEST PUSH1 0x0 PUSH1 0x40 MLOAD SWAP1 POP SWAP1 JUMP JUMPDEST PUSH1 0x0 DUP1 REVERT JUMPDEST PUSH1 0x0 DUP1 REVERT JUMPDEST PUSH1 0x0 DUP2 SWAP1 POP SWAP2 SWAP1 POP JUMP JUMPDEST PUSH2 0xABF DUP2 PUSH2 0xAAC JUMP JUMPDEST DUP2 EQ PUSH2 0xACA JUMPI PUSH1 0x0 DUP1 REVERT JUMPDEST POP JUMP JUMPDEST PUSH1 0x0 DUP2 CALLDATALOAD SWAP1 POP PUSH2 0xADC DUP2 PUSH2 0xAB6 JUMP JUMPDEST SWAP3 SWAP2 POP POP JUMP JUMPDEST PUSH1 0x0 PUSH1 0x20 DUP3 DUP5 SUB SLT ISZERO PUSH2 0xAF8 JUMPI PUSH2 0xAF7 PUSH2 0xAA2 JUMP JUMPDEST JUMPDEST PUSH1 0x0 PUSH2 0xB06 DUP5 DUP3 DUP6 ADD PUSH2 0xACD JUMP JUMPDEST SWAP2 POP POP SWAP3 SWAP2 POP POP JUMP JUMPDEST PUSH1 0x0 PUSH20 0xFFFFFFFFFFFFFFFFFFFFFFFFFFFFFFFFFFFFFFFF DUP3 AND SWAP1 POP SWAP2 SWAP1 POP JUMP JUMPDEST PUSH1 0x0 PUSH2 0xB3A DUP3 PUSH2 0xB0F JUMP JUMPDEST SWAP1 POP SWAP2 SWAP1 POP JUMP JUMPDEST PUSH2 0xB4A DUP2 PUSH2 0xB2F JUMP JUMPDEST DUP3 MSTORE POP POP JUMP JUMPDEST PUSH1 0x0 PUSH1 0x20 DUP3 ADD SWAP1 POP PUSH2 0xB65 PUSH1 0x0 DUP4 ADD DUP5 PUSH2 0xB41 JUMP JUMPDEST SWAP3 SWAP2 POP POP JUMP JUMPDEST PUSH1 0x0 DUP1 REVERT JUMPDEST PUSH1 0x0 DUP1 REVERT JUMPDEST PUSH1 0x0 PUSH1 0x1F NOT PUSH1 0x1F DUP4 ADD AND SWAP1 POP SWAP2 SWAP1 POP JUMP JUMPDEST PUSH32 0x4E487B7100000000000000000000000000000000000000000000000000000000 PUSH1 0x0 MSTORE PUSH1 0x41 PUSH1 0x4 MSTORE PUSH1 0x24 PUSH1 0x0 REVERT JUMPDEST PUSH2 0xBBE DUP3 PUSH2 0xB75 JUMP JUMPDEST DUP2 ADD DUP2 DUP2 LT PUSH8 0xFFFFFFFFFFFFFFFF DUP3 GT OR ISZERO PUSH2 0xBDD JUMPI PUSH2 0xBDC PUSH2 0xB86 JUMP JUMPDEST JUMPDEST DUP1 PUSH1 0x40 MSTORE POP POP POP JUMP JUMPDEST PUSH1 0x0 PUSH2 0xBF0 PUSH2 0xA98 JUMP JUMPDEST SWAP1 POP PUSH2 0xBFC DUP3 DUP3 PUSH2 0xBB5 JUMP JUMPDEST SWAP2 SWAP1 POP JUMP JUMPDEST PUSH1 0x0 PUSH8 0xFFFFFFFFFFFFFFFF DUP3 GT ISZERO PUSH2 0xC1C JUMPI PUSH2 0xC1B PUSH2 0xB86 JUMP JUMPDEST JUMPDEST PUSH2 0xC25 DUP3 PUSH2 0xB75 JUMP JUMPDEST SWAP1 POP PUSH1 0x20 DUP2 ADD SWAP1 POP SWAP2 SWAP1 POP JUMP JUMPDEST DUP3 DUP2 DUP4 CALLDATACOPY PUSH1 0x0 DUP4 DUP4 ADD MSTORE POP POP POP JUMP JUMPDEST PUSH1 0x0 PUSH2 0xC54 PUSH2 0xC4F DUP5 PUSH2 0xC01 JUMP JUMPDEST PUSH2 0xBE6 JUMP JUMPDEST SWAP1 POP DUP3 DUP2 MSTORE PUSH1 0x20 DUP2 ADD DUP5 DUP5 DUP5 ADD GT ISZERO PUSH2 0xC70 JUMPI PUSH2 0xC6F PUSH2 0xB70 JUMP JUMPDEST JUMPDEST PUSH2 0xC7B DUP5 DUP3 DUP6 PUSH2 0xC32 JUMP JUMPDEST POP SWAP4 SWAP3 POP POP POP JUMP JUMPDEST PUSH1 0x0 DUP3 PUSH1 0x1F DUP4 ADD SLT PUSH2 0xC98 JUMPI PUSH2 0xC97 PUSH2 0xB6B JUMP JUMPDEST JUMPDEST DUP2 CALLDATALOAD PUSH2 0xCA8 DUP5 DUP3 PUSH1 0x20 DUP7 ADD PUSH2 0xC41 JUMP JUMPDEST SWAP2 POP POP SWAP3 SWAP2 POP POP JUMP JUMPDEST PUSH1 0x0 PUSH8 0xFFFFFFFFFFFFFFFF DUP3 GT ISZERO PUSH2 0xCCC JUMPI PUSH2 0xCCB PUSH2 0xB86 JUMP JUMPDEST JUMPDEST PUSH1 0x20 DUP3 MUL SWAP1 POP PUSH1 0x20 DUP2 ADD SWAP1 POP SWAP2 SWAP1 POP JUMP JUMPDEST PUSH1 0x0 DUP1 REVERT JUMPDEST PUSH1 0x12 DUP2 LT PUSH2 0xCEF JUMPI PUSH1 0x0 DUP1 REVERT JUMPDEST POP JUMP JUMPDEST PUSH1 0x0 DUP2 CALLDATALOAD SWAP1 POP PUSH2 0xD01 DUP2 PUSH2 0xCE2 JUMP JUMPDEST SWAP3 SWAP2 POP POP JUMP JUMPDEST PUSH1 0x0 PUSH2 0xD1A PUSH2 0xD15 DUP5 PUSH2 0xCB1 JUMP JUMPDEST PUSH2 0xBE6 JUMP JUMPDEST SWAP1 POP DUP1 DUP4 DUP3 MSTORE PUSH1 0x20 DUP3 ADD SWAP1 POP PUSH1 0x20 DUP5 MUL DUP4 ADD DUP6 DUP2 GT ISZERO PUSH2 0xD3D JUMPI PUSH2 0xD3C PUSH2 0xCDD JUMP JUMPDEST JUMPDEST DUP4 JUMPDEST DUP2 DUP2 LT ISZERO PUSH2 0xD66 JUMPI DUP1 PUSH2 0xD52 DUP9 DUP3 PUSH2 0xCF2 JUMP JUMPDEST DUP5 MSTORE PUSH1 0x20 DUP5 ADD SWAP4 POP POP PUSH1 0x20 DUP2 ADD SWAP1 POP PUSH2 0xD3F JUMP JUMPDEST POP POP POP SWAP4 SWAP3 POP POP POP JUMP JUMPDEST PUSH1 0x0 DUP3 PUSH1 0x1F DUP4 ADD SLT PUSH2 0xD85 JUMPI PUSH2 0xD84 PUSH2 0xB6B JUMP JUMPDEST JUMPDEST DUP2 CALLDATALOAD PUSH2 0xD95 DUP5 DUP3 PUSH1 0x20 DUP7 ADD PUSH2 0xD07 JUMP JUMPDEST SWAP2 POP POP SWAP3 SWAP2 POP POP JUMP JUMPDEST PUSH1 0x0 PUSH8 0xFFFFFFFFFFFFFFFF DUP3 GT ISZERO PUSH2 0xDB9 JUMPI PUSH2 0xDB8 PUSH2 0xB86 JUMP JUMPDEST JUMPDEST PUSH1 0x20 DUP3 MUL SWAP1 POP PUSH1 0x20 DUP2 ADD SWAP1 POP SWAP2 SWAP1 POP JUMP JUMPDEST PUSH1 0x0 PUSH2 0xDDD PUSH2 0xDD8 DUP5 PUSH2 0xD9E JUMP JUMPDEST PUSH2 0xBE6 JUMP JUMPDEST SWAP1 POP DUP1 DUP4 DUP3 MSTORE PUSH1 0x20 DUP3 ADD SWAP1 POP PUSH1 0x20 DUP5 MUL DUP4 ADD DUP6 DUP2 GT ISZERO PUSH2 0xE00 JUMPI PUSH2 0xDFF PUSH2 0xCDD JUMP JUMPDEST JUMPDEST DUP4 JUMPDEST DUP2 DUP2 LT ISZERO PUSH2 0xE29 JUMPI DUP1 PUSH2 0xE15 DUP9 DUP3 PUSH2 0xACD JUMP JUMPDEST DUP5 MSTORE PUSH1 0x20 DUP5 ADD SWAP4 POP POP PUSH1 0x20 DUP2 ADD SWAP1 POP PUSH2 0xE02 JUMP JUMPDEST POP POP POP SWAP4 SWAP3 POP POP POP JUMP JUMPDEST PUSH1 0x0 DUP3 PUSH1 0x1F DUP4 ADD SLT PUSH2 0xE48 JUMPI PUSH2 0xE47 PUSH2 0xB6B JUMP JUMPDEST JUMPDEST DUP2 CALLDATALOAD PUSH2 0xE58 DUP5 DUP3 PUSH1 0x20 DUP7 ADD PUSH2 0xDCA JUMP JUMPDEST SWAP2 POP POP SWAP3 SWAP2 POP POP JUMP JUMPDEST PUSH1 0x0 DUP1 PUSH1 0x0 DUP1 PUSH1 0x0 PUSH1 0xA0 DUP7 DUP9 SUB SLT ISZERO PUSH2 0xE7D JUMPI PUSH2 0xE7C PUSH2 0xAA2 JUMP JUMPDEST JUMPDEST PUSH1 0x0 PUSH2 0xE8B DUP9 DUP3 DUP10 ADD PUSH2 0xACD JUMP JUMPDEST SWAP6 POP POP PUSH1 0x20 DUP7 ADD CALLDATALOAD PUSH8 0xFFFFFFFFFFFFFFFF DUP2 GT ISZERO PUSH2 0xEAC JUMPI PUSH2 0xEAB PUSH2 0xAA7 JUMP JUMPDEST JUMPDEST PUSH2 0xEB8 DUP9 DUP3 DUP10 ADD PUSH2 0xC83 JUMP JUMPDEST SWAP5 POP POP PUSH1 0x40 DUP7 ADD CALLDATALOAD PUSH8 0xFFFFFFFFFFFFFFFF DUP2 GT ISZERO PUSH2 0xED9 JUMPI PUSH2 0xED8 PUSH2 0xAA7 JUMP JUMPDEST JUMPDEST PUSH2 0xEE5 DUP9 DUP3 DUP10 ADD PUSH2 0xD70 JUMP JUMPDEST SWAP4 POP POP PUSH1 0x60 DUP7 ADD CALLDATALOAD PUSH8 0xFFFFFFFFFFFFFFFF DUP2 GT ISZERO PUSH2 0xF06 JUMPI PUSH2 0xF05 PUSH2 0xAA7 JUMP JUMPDEST JUMPDEST PUSH2 0xF12 DUP9 DUP3 DUP10 ADD PUSH2 0xD70 JUMP JUMPDEST SWAP3 POP POP PUSH1 0x80 DUP7 ADD CALLDATALOAD PUSH8 0xFFFFFFFFFFFFFFFF DUP2 GT ISZERO PUSH2 0xF33 JUMPI PUSH2 0xF32 PUSH2 0xAA7 JUMP JUMPDEST JUMPDEST PUSH2 0xF3F DUP9 DUP3 DUP10 ADD PUSH2 0xE33 JUMP JUMPDEST SWAP2 POP POP SWAP3 SWAP6 POP SWAP3 SWAP6 SWAP1 SWAP4 POP JUMP JUMPDEST PUSH1 0x0 DUP1 PUSH1 0x40 DUP4 DUP6 SUB SLT ISZERO PUSH2 0xF63 JUMPI PUSH2 0xF62 PUSH2 0xAA2 JUMP JUMPDEST JUMPDEST PUSH1 0x0 PUSH2 0xF71 DUP6 DUP3 DUP7 ADD PUSH2 0xACD JUMP JUMPDEST SWAP3 POP POP PUSH1 0x20 PUSH2 0xF82 DUP6 DUP3 DUP7 ADD PUSH2 0xACD JUMP JUMPDEST SWAP2 POP POP SWAP3 POP SWAP3 SWAP1 POP JUMP JUMPDEST PUSH1 0x0 DUP2 MLOAD SWAP1 POP SWAP2 SWAP1 POP JUMP JUMPDEST PUSH1 0x0 DUP3 DUP3 MSTORE PUSH1 0x20 DUP3 ADD SWAP1 POP SWAP3 SWAP2 POP POP JUMP JUMPDEST PUSH1 0x0 JUMPDEST DUP4 DUP2 LT ISZERO PUSH2 0xFC6 JUMPI DUP1 DUP3 ADD MLOAD DUP2 DUP5 ADD MSTORE PUSH1 0x20 DUP2 ADD SWAP1 POP PUSH2 0xFAB JUMP JUMPDEST PUSH1 0x0 DUP5 DUP5 ADD MSTORE POP POP POP POP JUMP JUMPDEST PUSH1 0x0 PUSH2 0xFDD DUP3 PUSH2 0xF8C JUMP JUMPDEST PUSH2 0xFE7 DUP2 DUP6 PUSH2 0xF97 JUMP JUMPDEST SWAP4 POP PUSH2 0xFF7 DUP2 DUP6 PUSH1 0x20 DUP7 ADD PUSH2 0xFA8 JUMP JUMPDEST PUSH2 0x1000 DUP2 PUSH2 0xB75 JUMP JUMPDEST DUP5 ADD SWAP2 POP POP SWAP3 SWAP2 POP POP JUMP JUMPDEST PUSH1 0x0 PUSH1 0x40 DUP3 ADD SWAP1 POP DUP2 DUP2 SUB PUSH1 0x0 DUP4 ADD MSTORE PUSH2 0x1025 DUP2 DUP6 PUSH2 0xFD2 JUMP JUMPDEST SWAP1 POP DUP2 DUP2 SUB PUSH1 0x20 DUP4 ADD MSTORE PUSH2 0x1039 DUP2 DUP5 PUSH2 0xFD2 JUMP JUMPDEST SWAP1 POP SWAP4 SWAP3 POP POP POP JUMP JUMPDEST PUSH1 0x0 DUP2 MLOAD SWAP1 POP SWAP2 SWAP1 POP JUMP JUMPDEST PUSH1 0x0 DUP3 DUP3 MSTORE PUSH1 0x20 DUP3 ADD SWAP1 POP SWAP3 SWAP2 POP POP JUMP JUMPDEST PUSH1 0x0 DUP2 SWAP1 POP PUSH1 0x20 DUP3 ADD SWAP1 POP SWAP2 SWAP1 POP JUMP JUMPDEST PUSH2 0x1077 DUP2 PUSH2 0xAAC JUMP JUMPDEST DUP3 MSTORE POP POP JUMP JUMPDEST PUSH1 0x0 DUP3 DUP3 MSTORE PUSH1 0x20 DUP3 ADD SWAP1 POP SWAP3 SWAP2 POP POP JUMP JUMPDEST PUSH1 0x0 PUSH2 0x1099 DUP3 PUSH2 0xF8C JUMP JUMPDEST PUSH2 0x10A3 DUP2 DUP6 PUSH2 0x107D JUMP JUMPDEST SWAP4 POP PUSH2 0x10B3 DUP2 DUP6 PUSH1 0x20 DUP7 ADD PUSH2 0xFA8 JUMP JUMPDEST PUSH2 0x10BC DUP2 PUSH2 0xB75 JUMP JUMPDEST DUP5 ADD SWAP2 POP POP SWAP3 SWAP2 POP POP JUMP JUMPDEST PUSH1 0x0 DUP2 MLOAD SWAP1 POP SWAP2 SWAP1 POP JUMP JUMPDEST PUSH1 0x0 DUP3 DUP3 MSTORE PUSH1 0x20 DUP3 ADD SWAP1 POP SWAP3 SWAP2 POP POP JUMP JUMPDEST PUSH1 0x0 DUP2 SWAP1 POP PUSH1 0x20 DUP3 ADD SWAP1 POP SWAP2 SWAP1 POP JUMP JUMPDEST PUSH32 0x4E487B7100000000000000000000000000000000000000000000000000000000 PUSH1 0x0 MSTORE PUSH1 0x21 PUSH1 0x4 MSTORE PUSH1 0x24 PUSH1 0x0 REVERT JUMPDEST PUSH1 0x12 DUP2 LT PUSH2 0x1133 JUMPI PUSH2 0x1132 PUSH2 0x10F3 JUMP JUMPDEST JUMPDEST POP JUMP JUMPDEST PUSH1 0x0 DUP2 SWAP1 POP PUSH2 0x1144 DUP3 PUSH2 0x1122 JUMP JUMPDEST SWAP2 SWAP1 POP JUMP JUMPDEST PUSH1 0x0 PUSH2 0x1154 DUP3 PUSH2 0x1136 JUMP JUMPDEST SWAP1 POP SWAP2 SWAP1 POP JUMP JUMPDEST PUSH2 0x1164 DUP2 PUSH2 0x1149 JUMP JUMPDEST DUP3 MSTORE POP POP JUMP JUMPDEST PUSH1 0x0 PUSH2 0x1176 DUP4 DUP4 PUSH2 0x115B JUMP JUMPDEST PUSH1 0x20 DUP4 ADD SWAP1 POP SWAP3 SWAP2 POP POP JUMP JUMPDEST PUSH1 0x0 PUSH1 0x20 DUP3 ADD SWAP1 POP SWAP2 SWAP1 POP JUMP JUMPDEST PUSH1 0x0 PUSH2 0x119A DUP3 PUSH2 0x10C7 JUMP JUMPDEST PUSH2 0x11A4 DUP2 DUP6 PUSH2 0x10D2 JUMP JUMPDEST SWAP4 POP PUSH2 0x11AF DUP4 PUSH2 0x10E3 JUMP JUMPDEST DUP1 PUSH1 0x0 JUMPDEST DUP4 DUP2 LT ISZERO PUSH2 0x11E0 JUMPI DUP2 MLOAD PUSH2 0x11C7 DUP9 DUP3 PUSH2 0x116A JUMP JUMPDEST SWAP8 POP PUSH2 0x11D2 DUP4 PUSH2 0x1182 JUMP JUMPDEST SWAP3 POP POP PUSH1 0x1 DUP2 ADD SWAP1 POP PUSH2 0x11B3 JUMP JUMPDEST POP DUP6 SWAP4 POP POP POP POP SWAP3 SWAP2 POP POP JUMP JUMPDEST PUSH1 0x0 DUP2 MLOAD SWAP1 POP SWAP2 SWAP1 POP JUMP JUMPDEST PUSH1 0x0 DUP3 DUP3 MSTORE PUSH1 0x20 DUP3 ADD SWAP1 POP SWAP3 SWAP2 POP POP JUMP JUMPDEST PUSH1 0x0 DUP2 SWAP1 POP PUSH1 0x20 DUP3 ADD SWAP1 POP SWAP2 SWAP1 POP JUMP JUMPDEST PUSH1 0x0 PUSH2 0x1225 DUP4 DUP4 PUSH2 0x106E JUMP JUMPDEST PUSH1 0x20 DUP4 ADD SWAP1 POP SWAP3 SWAP2 POP POP JUMP JUMPDEST PUSH1 0x0 PUSH1 0x20 DUP3 ADD SWAP1 POP SWAP2 SWAP1 POP JUMP JUMPDEST PUSH1 0x0 PUSH2 0x1249 DUP3 PUSH2 0x11ED JUMP JUMPDEST PUSH2 0x1253 DUP2 DUP6 PUSH2 0x11F8 JUMP JUMPDEST SWAP4 POP PUSH2 0x125E DUP4 PUSH2 0x1209 JUMP JUMPDEST DUP1 PUSH1 0x0 JUMPDEST DUP4 DUP2 LT ISZERO PUSH2 0x128F JUMPI DUP2 MLOAD PUSH2 0x1276 DUP9 DUP3 PUSH2 0x1219 JUMP JUMPDEST SWAP8 POP PUSH2 0x1281 DUP4 PUSH2 0x1231 JUMP JUMPDEST SWAP3 POP POP PUSH1 0x1 DUP2 ADD SWAP1 POP PUSH2 0x1262 JUMP JUMPDEST POP DUP6 SWAP4 POP POP POP POP SWAP3 SWAP2 POP POP JUMP JUMPDEST PUSH1 0x0 PUSH1 0xA0 DUP4 ADD PUSH1 0x0 DUP4 ADD MLOAD PUSH2 0x12B4 PUSH1 0x0 DUP7 ADD DUP3 PUSH2 0x106E JUMP JUMPDEST POP PUSH1 0x20 DUP4 ADD MLOAD DUP5 DUP3 SUB PUSH1 0x20 DUP7 ADD MSTORE PUSH2 0x12CC DUP3 DUP3 PUSH2 0x108E JUMP JUMPDEST SWAP2 POP POP PUSH1 0x40 DUP4 ADD MLOAD DUP5 DUP3 SUB PUSH1 0x40 DUP7 ADD MSTORE PUSH2 0x12E6 DUP3 DUP3 PUSH2 0x118F JUMP JUMPDEST SWAP2 POP POP PUSH1 0x60 DUP4 ADD MLOAD DUP5 DUP3 SUB PUSH1 0x60 DUP7 ADD MSTORE PUSH2 0x1300 DUP3 DUP3 PUSH2 0x118F JUMP JUMPDEST SWAP2 POP POP PUSH1 0x80 DUP4 ADD MLOAD DUP5 DUP3 SUB PUSH1 0x80 DUP7 ADD MSTORE PUSH2 0x131A DUP3 DUP3 PUSH2 0x123E JUMP JUMPDEST SWAP2 POP POP DUP1 SWAP2 POP POP SWAP3 SWAP2 POP POP JUMP JUMPDEST PUSH1 0x0 PUSH2 0x1333 DUP4 DUP4 PUSH2 0x129C JUMP JUMPDEST SWAP1 POP SWAP3 SWAP2 POP POP JUMP JUMPDEST PUSH1 0x0 PUSH1 0x20 DUP3 ADD SWAP1 POP SWAP2 SWAP1 POP JUMP JUMPDEST PUSH1 0x0 PUSH2 0x1353 DUP3 PUSH2 0x1042 JUMP JUMPDEST PUSH2 0x135D DUP2 DUP6 PUSH2 0x104D JUMP JUMPDEST SWAP4 POP DUP4 PUSH1 0x20 DUP3 MUL DUP6 ADD PUSH2 0x136F DUP6 PUSH2 0x105E JUMP JUMPDEST DUP1 PUSH1 0x0 JUMPDEST DUP6 DUP2 LT ISZERO PUSH2 0x13AB JUMPI DUP5 DUP5 SUB DUP10 MSTORE DUP2 MLOAD PUSH2 0x138C DUP6 DUP3 PUSH2 0x1327 JUMP JUMPDEST SWAP5 POP PUSH2 0x1397 DUP4 PUSH2 0x133B JUMP JUMPDEST SWAP3 POP PUSH1 0x20 DUP11 ADD SWAP10 POP POP PUSH1 0x1 DUP2 ADD SWAP1 POP PUSH2 0x1373 JUMP JUMPDEST POP DUP3 SWAP8 POP DUP8 SWAP6 POP POP POP POP POP POP SWAP3 SWAP2 POP POP JUMP JUMPDEST PUSH1 0x0 PUSH1 0x20 DUP3 ADD SWAP1 POP DUP2 DUP2 SUB PUSH1 0x0 DUP4 ADD MSTORE PUSH2 0x13D7 DUP2 DUP5 PUSH2 0x1348 JUMP JUMPDEST SWAP1 POP SWAP3 SWAP2 POP POP JUMP JUMPDEST PUSH1 0x0 DUP1 PUSH1 0x0 DUP1 PUSH1 0x80 DUP6 DUP8 SUB SLT ISZERO PUSH2 0x13F9 JUMPI PUSH2 0x13F8 PUSH2 0xAA2 JUMP JUMPDEST JUMPDEST PUSH1 0x0 PUSH2 0x1407 DUP8 DUP3 DUP9 ADD PUSH2 0xACD JUMP JUMPDEST SWAP5 POP POP PUSH1 0x20 PUSH2 0x1418 DUP8 DUP3 DUP9 ADD PUSH2 0xACD JUMP JUMPDEST SWAP4 POP POP PUSH1 0x40 DUP6 ADD CALLDATALOAD PUSH8 0xFFFFFFFFFFFFFFFF DUP2 GT ISZERO PUSH2 0x1439 JUMPI PUSH2 0x1438 PUSH2 0xAA7 JUMP JUMPDEST JUMPDEST PUSH2 0x1445 DUP8 DUP3 DUP9 ADD PUSH2 0xC83 JUMP JUMPDEST SWAP3 POP POP PUSH1 0x60 DUP6 ADD CALLDATALOAD PUSH8 0xFFFFFFFFFFFFFFFF DUP2 GT ISZERO PUSH2 0x1466 JUMPI PUSH2 0x1465 PUSH2 0xAA7 JUMP JUMPDEST JUMPDEST PUSH2 0x1472 DUP8 DUP3 DUP9 ADD PUSH2 0xC83 JUMP JUMPDEST SWAP2 POP POP SWAP3 SWAP6 SWAP2 SWAP5 POP SWAP3 POP JUMP JUMPDEST PUSH2 0x1487 DUP2 PUSH2 0xAAC JUMP JUMPDEST DUP3 MSTORE POP POP JUMP JUMPDEST PUSH1 0x0 PUSH1 0x40 DUP3 ADD SWAP1 POP PUSH2 0x14A2 PUSH1 0x0 DUP4 ADD DUP6 PUSH2 0x147E JUMP JUMPDEST PUSH2 0x14AF PUSH1 0x20 DUP4 ADD DUP5 PUSH2 0x147E JUMP JUMPDEST SWAP4 SWAP3 POP POP POP JUMP JUMPDEST PUSH32 0x456C20696420646520747520706F6B656D6F6E206465626520736572206D6179 PUSH1 0x0 DUP3 ADD MSTORE PUSH32 0x6F72206120300000000000000000000000000000000000000000000000000000 PUSH1 0x20 DUP3 ADD MSTORE POP JUMP JUMPDEST PUSH1 0x0 PUSH2 0x1512 PUSH1 0x26 DUP4 PUSH2 0xF97 JUMP JUMPDEST SWAP2 POP PUSH2 0x151D DUP3 PUSH2 0x14B6 JUMP JUMPDEST PUSH1 0x40 DUP3 ADD SWAP1 POP SWAP2 SWAP1 POP JUMP JUMPDEST PUSH1 0x0 PUSH1 0x20 DUP3 ADD SWAP1 POP DUP2 DUP2 SUB PUSH1 0x0 DUP4 ADD MSTORE PUSH2 0x1541 DUP2 PUSH2 0x1505 JUMP JUMPDEST SWAP1 POP SWAP2 SWAP1 POP JUMP JUMPDEST PUSH32 0x456C206E6F6D62726520646520747520706F6B656D6F6E206465626520736572 PUSH1 0x0 DUP3 ADD MSTORE PUSH32 0x206D61796F722061203220636172616374657265730000000000000000000000 PUSH1 0x20 DUP3 ADD MSTORE POP JUMP JUMPDEST PUSH1 0x0 PUSH2 0x15A4 PUSH1 0x35 DUP4 PUSH2 0xF97 JUMP JUMPDEST SWAP2 POP PUSH2 0x15AF DUP3 PUSH2 0x1548 JUMP JUMPDEST PUSH1 0x40 DUP3 ADD SWAP1 POP SWAP2 SWAP1 POP JUMP JUMPDEST PUSH1 0x0 PUSH1 0x20 DUP3 ADD SWAP1 POP DUP2 DUP2 SUB PUSH1 0x0 DUP4 ADD MSTORE PUSH2 0x15D3 DUP2 PUSH2 0x1597 JUMP JUMPDEST SWAP1 POP SWAP2 SWAP1 POP JUMP JUMPDEST PUSH32 0x4E487B7100000000000000000000000000000000000000000000000000000000 PUSH1 0x0 MSTORE PUSH1 0x22 PUSH1 0x4 MSTORE PUSH1 0x24 PUSH1 0x0 REVERT JUMPDEST PUSH1 0x0 PUSH1 0x2 DUP3 DIV SWAP1 POP PUSH1 0x1 DUP3 AND DUP1 PUSH2 0x1621 JUMPI PUSH1 0x7F DUP3 AND SWAP2 POP JUMPDEST PUSH1 0x20 DUP3 LT DUP2 SUB PUSH2 0x1634 JUMPI PUSH2 0x1633 PUSH2 0x15DA JUMP JUMPDEST JUMPDEST POP SWAP2 SWAP1 POP JUMP JUMPDEST PUSH1 0x0 DUP2 SWAP1 POP DUP2 PUSH1 0x0 MSTORE PUSH1 0x20 PUSH1 0x0 KECCAK256 SWAP1 POP SWAP2 SWAP1 POP JUMP JUMPDEST PUSH1 0x0 PUSH1 0x20 PUSH1 0x1F DUP4 ADD DIV SWAP1 POP SWAP2 SWAP1 POP JUMP JUMPDEST PUSH1 0x0 DUP3 DUP3 SHL SWAP1 POP SWAP3 SWAP2 POP POP JUMP JUMPDEST PUSH1 0x0 PUSH1 0x8 DUP4 MUL PUSH2 0x169C PUSH32 0xFFFFFFFFFFFFFFFFFFFFFFFFFFFFFFFFFFFFFFFFFFFFFFFFFFFFFFFFFFFFFFFF DUP3 PUSH2 0x165F JUMP JUMPDEST PUSH2 0x16A6 DUP7 DUP4 PUSH2 0x165F JUMP JUMPDEST SWAP6 POP DUP1 NOT DUP5 AND SWAP4 POP DUP1 DUP7 AND DUP5 OR SWAP3 POP POP POP SWAP4 SWAP3 POP POP POP JUMP JUMPDEST PUSH1 0x0 DUP2 SWAP1 POP SWAP2 SWAP1 POP JUMP JUMPDEST PUSH1 0x0 PUSH2 0x16E3 PUSH2 0x16DE PUSH2 0x16D9 DUP5 PUSH2 0xAAC JUMP JUMPDEST PUSH2 0x16BE JUMP JUMPDEST PUSH2 0xAAC JUMP JUMPDEST SWAP1 POP SWAP2 SWAP1 POP JUMP JUMPDEST PUSH1 0x0 DUP2 SWAP1 POP SWAP2 SWAP1 POP JUMP JUMPDEST PUSH2 0x16FD DUP4 PUSH2 0x16C8 JUMP JUMPDEST PUSH2 0x1711 PUSH2 0x1709 DUP3 PUSH2 0x16EA JUMP JUMPDEST DUP5 DUP5 SLOAD PUSH2 0x166C JUMP JUMPDEST DUP3 SSTORE POP POP POP POP JUMP JUMPDEST PUSH1 0x0 SWAP1 JUMP JUMPDEST PUSH2 0x1726 PUSH2 0x1719 JUMP JUMPDEST PUSH2 0x1731 DUP2 DUP5 DUP5 PUSH2 0x16F4 JUMP JUMPDEST POP POP POP JUMP JUMPDEST JUMPDEST DUP2 DUP2 LT ISZERO PUSH2 0x1755 JUMPI PUSH2 0x174A PUSH1 0x0 DUP3 PUSH2 0x171E JUMP JUMPDEST PUSH1 0x1 DUP2 ADD SWAP1 POP PUSH2 0x1737 JUMP JUMPDEST POP POP JUMP JUMPDEST PUSH1 0x1F DUP3 GT ISZERO PUSH2 0x179A JUMPI PUSH2 0x176B DUP2 PUSH2 0x163A JUMP JUMPDEST PUSH2 0x1774 DUP5 PUSH2 0x164F JUMP JUMPDEST DUP2 ADD PUSH1 0x20 DUP6 LT ISZERO PUSH2 0x1783 JUMPI DUP2 SWAP1 POP JUMPDEST PUSH2 0x1797 PUSH2 0x178F DUP6 PUSH2 0x164F JUMP JUMPDEST DUP4 ADD DUP3 PUSH2 0x1736 JUMP JUMPDEST POP POP JUMPDEST POP POP POP JUMP JUMPDEST PUSH1 0x0 DUP3 DUP3 SHR SWAP1 POP SWAP3 SWAP2 POP POP JUMP JUMPDEST PUSH1 0x0 PUSH2 0x17BD PUSH1 0x0 NOT DUP5 PUSH1 0x8 MUL PUSH2 0x179F JUMP JUMPDEST NOT DUP1 DUP4 AND SWAP2 POP POP SWAP3 SWAP2 POP POP JUMP JUMPDEST PUSH1 0x0 PUSH2 0x17D6 DUP4 DUP4 PUSH2 0x17AC JUMP JUMPDEST SWAP2 POP DUP3 PUSH1 0x2 MUL DUP3 OR SWAP1 POP SWAP3 SWAP2 POP POP JUMP JUMPDEST PUSH2 0x17EF DUP3 PUSH2 0xF8C JUMP JUMPDEST PUSH8 0xFFFFFFFFFFFFFFFF DUP2 GT ISZERO PUSH2 0x1808 JUMPI PUSH2 0x1807 PUSH2 0xB86 JUMP JUMPDEST JUMPDEST PUSH2 0x1812 DUP3 SLOAD PUSH2 0x1609 JUMP JUMPDEST PUSH2 0x181D DUP3 DUP3 DUP6 PUSH2 0x1759 JUMP JUMPDEST PUSH1 0x0 PUSH1 0x20 SWAP1 POP PUSH1 0x1F DUP4 GT PUSH1 0x1 DUP2 EQ PUSH2 0x1850 JUMPI PUSH1 0x0 DUP5 ISZERO PUSH2 0x183E JUMPI DUP3 DUP8 ADD MLOAD SWAP1 POP JUMPDEST PUSH2 0x1848 DUP6 DUP3 PUSH2 0x17CA JUMP JUMPDEST DUP7 SSTORE POP PUSH2 0x18B0 JUMP JUMPDEST PUSH1 0x1F NOT DUP5 AND PUSH2 0x185E DUP7 PUSH2 0x163A JUMP JUMPDEST PUSH1 0x0 JUMPDEST DUP3 DUP2 LT ISZERO PUSH2 0x1886 JUMPI DUP5 DUP10 ADD MLOAD DUP3 SSTORE PUSH1 0x1 DUP3 ADD SWAP2 POP PUSH1 0x20 DUP6 ADD SWAP5 POP PUSH1 0x20 DUP2 ADD SWAP1 POP PUSH2 0x1861 JUMP JUMPDEST DUP7 DUP4 LT ISZERO PUSH2 0x18A3 JUMPI DUP5 DUP10 ADD MLOAD PUSH2 0x189F PUSH1 0x1F DUP10 AND DUP3 PUSH2 0x17AC JUMP JUMPDEST DUP4 SSTORE POP JUMPDEST PUSH1 0x1 PUSH1 0x2 DUP9 MUL ADD DUP9 SSTORE POP POP POP JUMPDEST POP POP POP POP POP POP JUMP JUMPDEST PUSH32 0x4E487B7100000000000000000000000000000000000000000000000000000000 PUSH1 0x0 MSTORE PUSH1 0x11 PUSH1 0x4 MSTORE PUSH1 0x24 PUSH1 0x0 REVERT JUMPDEST PUSH1 0x0 PUSH2 0x18F2 DUP3 PUSH2 0xAAC JUMP JUMPDEST SWAP2 POP PUSH32 0xFFFFFFFFFFFFFFFFFFFFFFFFFFFFFFFFFFFFFFFFFFFFFFFFFFFFFFFFFFFFFFFF DUP3 SUB PUSH2 0x1924 JUMPI PUSH2 0x1923 PUSH2 0x18B8 JUMP JUMPDEST JUMPDEST PUSH1 0x1 DUP3 ADD SWAP1 POP SWAP2 SWAP1 POP JUMP JUMPDEST PUSH1 0x0 PUSH1 0x40 DUP3 ADD SWAP1 POP PUSH2 0x1944 PUSH1 0x0 DUP4 ADD DUP6 PUSH2 0x147E JUMP JUMPDEST DUP2 DUP2 SUB PUSH1 0x20 DUP4 ADD MSTORE PUSH2 0x1956 DUP2 DUP5 PUSH2 0xFD2 JUMP JUMPDEST SWAP1 POP SWAP4 SWAP3 POP POP POP JUMP JUMPDEST PUSH32 0x6573746520706F6B656D6F6E206E6F206573207475796F000000000000000000 PUSH1 0x0 DUP3 ADD MSTORE POP JUMP JUMPDEST PUSH1 0x0 PUSH2 0x1995 PUSH1 0x17 DUP4 PUSH2 0xF97 JUMP JUMPDEST SWAP2 POP PUSH2 0x19A0 DUP3 PUSH2 0x195F JUMP JUMPDEST PUSH1 0x20 DUP3 ADD SWAP1 POP SWAP2 SWAP1 POP JUMP JUMPDEST PUSH1 0x0 PUSH1 0x20 DUP3 ADD SWAP1 POP DUP2 DUP2 SUB PUSH1 0x0 DUP4 ADD MSTORE PUSH2 0x19C4 DUP2 PUSH2 0x1988 JUMP JUMPDEST SWAP1 POP SWAP2 SWAP1 POP JUMP JUMPDEST PUSH32 0x4E487B7100000000000000000000000000000000000000000000000000000000 PUSH1 0x0 MSTORE PUSH1 0x32 PUSH1 0x4 MSTORE PUSH1 0x24 PUSH1 0x0 REVERT JUMPDEST PUSH1 0x0 PUSH2 0x1A05 DUP3 PUSH2 0xAAC JUMP JUMPDEST SWAP2 POP PUSH2 0x1A10 DUP4 PUSH2 0xAAC JUMP JUMPDEST SWAP3 POP DUP3 DUP3 MUL PUSH2 0x1A1E DUP2 PUSH2 0xAAC JUMP JUMPDEST SWAP2 POP DUP3 DUP3 DIV DUP5 EQ DUP4 ISZERO OR PUSH2 0x1A35 JUMPI PUSH2 0x1A34 PUSH2 0x18B8 JUMP JUMPDEST JUMPDEST POP SWAP3 SWAP2 POP POP JUMP JUMPDEST PUSH1 0x0 PUSH2 0x1A47 DUP3 PUSH2 0xAAC JUMP JUMPDEST SWAP2 POP PUSH2 0x1A52 DUP4 PUSH2 0xAAC JUMP JUMPDEST SWAP3 POP DUP3 DUP3 ADD SWAP1 POP DUP1 DUP3 GT ISZERO PUSH2 0x1A6A JUMPI PUSH2 0x1A69 PUSH2 0x18B8 JUMP JUMPDEST JUMPDEST SWAP3 SWAP2 POP POP JUMP INVALID LOG2 PUSH5 0x6970667358 0x22 SLT KECCAK256 0x28 0x4C 0xD3 0x4B MOD EXTCODEHASH PUSH15 0xF1B2DC08D2529D34313CD48DB0EAE2 PUSH1 0xA7 0xE4 0xE8 PUSH24 0x8B71F4DC3E64736F6C634300081200330000000000000000 "},"methodIdentifiers":{"createPokemon(uint256,string,uint8[],uint8[],uint256[])":"5affd2d4","getAllPokemons()":"5e916790","getResult()":"de292789","pokemonEvolution(uint256,uint256,string,string)":"6f5a59d6","pokemonHabilities(uint256,uint256)":"5c778444","pokemonToOwner(uint256)":"2f7467b3"}}}}}