{
  "_format": "hh-sol-artifact-1",
  "contractName": "PokemonFactory",
  "sourceName": "contracts/PokemonFactory.sol",
  "abi": [
    {
      "anonymous": false,
      "inputs": [
        {
          "indexed": false,
          "internalType": "uint256",
          "name": "id",
          "type": "uint256"
        },
        {
          "indexed": false,
          "internalType": "string",
          "name": "name",
          "type": "string"
        }
      ],
      "name": "eventNewPokemon",
      "type": "event"
    },
    {
      "inputs": [
        {
          "internalType": "string",
          "name": "_name",
          "type": "string"
        },
        {
          "internalType": "uint256",
          "name": "_id",
          "type": "uint256"
        }
      ],
      "name": "createPokemon",
      "outputs": [],
      "stateMutability": "nonpayable",
      "type": "function"
    },
    {
      "inputs": [
        {
          "internalType": "string",
          "name": "_Name",
          "type": "string"
        },
        {
          "internalType": "string",
          "name": "_Description",
          "type": "string"
        },
        {
          "internalType": "uint256",
          "name": "_id",
          "type": "uint256"
        }
      ],
      "name": "evolutionPokemon",
      "outputs": [],
      "stateMutability": "nonpayable",
      "type": "function"
    },
    {
      "inputs": [],
      "name": "getAllPokemons",
      "outputs": [
        {
          "components": [
            {
              "internalType": "uint256",
              "name": "id",
              "type": "uint256"
            },
            {
              "internalType": "string",
              "name": "name",
              "type": "string"
            }
          ],
          "internalType": "struct PokemonFactory.Pokemon[]",
          "name": "",
          "type": "tuple[]"
        },
        {
          "components": [
            {
              "internalType": "string",
              "name": "Name",
              "type": "string"
            },
            {
              "internalType": "string",
              "name": "Description",
              "type": "string"
            }
          ],
          "internalType": "struct PokemonFactory.Habilities[]",
          "name": "",
          "type": "tuple[]"
        }
      ],
      "stateMutability": "view",
      "type": "function"
    },
    {
      "inputs": [],
      "name": "getResult",
      "outputs": [
        {
          "internalType": "uint256",
          "name": "product",
          "type": "uint256"
        },
        {
          "internalType": "uint256",
          "name": "sum",
          "type": "uint256"
        }
      ],
      "stateMutability": "pure",
      "type": "function"
    },
    {
      "inputs": [
        {
          "internalType": "uint256",
          "name": "",
          "type": "uint256"
        }
      ],
      "name": "pokemonToOwner",
      "outputs": [
        {
          "internalType": "address",
          "name": "",
          "type": "address"
        }
      ],
      "stateMutability": "view",
      "type": "function"
    }
  ],
  "bytecode": "0x608060405234801561001057600080fd5b5061121d806100206000396000f3fe608060405234801561001057600080fd5b50600436106100575760003560e01c80630a3bd50b1461005c5780632f7467b3146100785780635153b338146100a85780635e916790146100c4578063de292789146100e3575b600080fd5b6100766004803603810190610071919061080c565b610102565b005b610092600480360381019061008d9190610868565b6102d2565b60405161009f91906108d6565b60405180910390f35b6100c260048036038101906100bd91906108f1565b610305565b005b6100cc6103ca565b6040516100da929190610c0f565b60405180910390f35b6100eb61064b565b6040516100f9929190610c55565b60405180910390f35b8060008111610146576040517f08c379a000000000000000000000000000000000000000000000000000000000815260040161013d90610d01565b60405180910390fd5b82600281511161018b576040517f08c379a000000000000000000000000000000000000000000000000000000000815260040161018290610d93565b60405180910390fd5b600060405180604001604052808581526020018681525090806001815401808255809150506001900390600052602060002090600202016000909190919091506000820151816000015560208201518160010190816101ea9190610fbf565b505050336002600085815260200190815260200160002060006101000a81548173ffffffffffffffffffffffffffffffffffffffff021916908373ffffffffffffffffffffffffffffffffffffffff160217905550600360003373ffffffffffffffffffffffffffffffffffffffff1673ffffffffffffffffffffffffffffffffffffffff168152602001908152602001600020600081548092919061028f906110c0565b91905055507e570a6686f18a686cdda2f62a7954c6bd78c21f4b33df90b0a5479f5ae8a9a883856040516102c4929190611141565b60405180910390a150505050565b60026020528060005260406000206000915054906101000a900473ffffffffffffffffffffffffffffffffffffffff1681565b60016040518060400160405280858152602001848152509080600181540180825580915050600190039060005260206000209060020201600090919091909150600082015181600001908161035a9190610fbf565b5060208201518160010190816103709190610fbf565b505050336002600083815260200190815260200160002060006101000a81548173ffffffffffffffffffffffffffffffffffffffff021916908373ffffffffffffffffffffffffffffffffffffffff160217905550505050565b6060806000600181805480602002602001604051908101604052809291908181526020016000905b828210156104c057838290600052602060002090600202016040518060400160405290816000820154815260200160018201805461042f90610de2565b80601f016020809104026020016040519081016040528092919081815260200182805461045b90610de2565b80156104a85780601f1061047d576101008083540402835291602001916104a8565b820191906000526020600020905b81548152906001019060200180831161048b57829003601f168201915b505050505081525050815260200190600101906103f2565b50505050915080805480602002602001604051908101604052809291908181526020016000905b8282101561063d578382906000526020600020906002020160405180604001604052908160008201805461051a90610de2565b80601f016020809104026020016040519081016040528092919081815260200182805461054690610de2565b80156105935780601f1061056857610100808354040283529160200191610593565b820191906000526020600020905b81548152906001019060200180831161057657829003601f168201915b505050505081526020016001820180546105ac90610de2565b80601f01602080910402602001604051908101604052809291908181526020018280546105d890610de2565b80156106255780601f106105fa57610100808354040283529160200191610625565b820191906000526020600020905b81548152906001019060200180831161060857829003601f168201915b505050505081525050815260200190600101906104e7565b505050509050915091509091565b60008060006001905060006002905080826106669190611171565b9350808261067491906111b3565b925050509091565b6000604051905090565b600080fd5b600080fd5b600080fd5b600080fd5b6000601f19601f8301169050919050565b7f4e487b7100000000000000000000000000000000000000000000000000000000600052604160045260246000fd5b6106e38261069a565b810181811067ffffffffffffffff82111715610702576107016106ab565b5b80604052505050565b600061071561067c565b905061072182826106da565b919050565b600067ffffffffffffffff821115610741576107406106ab565b5b61074a8261069a565b9050602081019050919050565b82818337600083830152505050565b600061077961077484610726565b61070b565b90508281526020810184848401111561079557610794610695565b5b6107a0848285610757565b509392505050565b600082601f8301126107bd576107bc610690565b5b81356107cd848260208601610766565b91505092915050565b6000819050919050565b6107e9816107d6565b81146107f457600080fd5b50565b600081359050610806816107e0565b92915050565b6000806040838503121561082357610822610686565b5b600083013567ffffffffffffffff8111156108415761084061068b565b5b61084d858286016107a8565b925050602061085e858286016107f7565b9150509250929050565b60006020828403121561087e5761087d610686565b5b600061088c848285016107f7565b91505092915050565b600073ffffffffffffffffffffffffffffffffffffffff82169050919050565b60006108c082610895565b9050919050565b6108d0816108b5565b82525050565b60006020820190506108eb60008301846108c7565b92915050565b60008060006060848603121561090a57610909610686565b5b600084013567ffffffffffffffff8111156109285761092761068b565b5b610934868287016107a8565b935050602084013567ffffffffffffffff8111156109555761095461068b565b5b610961868287016107a8565b9250506040610972868287016107f7565b9150509250925092565b600081519050919050565b600082825260208201905092915050565b6000819050602082019050919050565b6109b1816107d6565b82525050565b600081519050919050565b600082825260208201905092915050565b60005b838110156109f15780820151818401526020810190506109d6565b60008484015250505050565b6000610a08826109b7565b610a1281856109c2565b9350610a228185602086016109d3565b610a2b8161069a565b840191505092915050565b6000604083016000830151610a4e60008601826109a8565b5060208301518482036020860152610a6682826109fd565b9150508091505092915050565b6000610a7f8383610a36565b905092915050565b6000602082019050919050565b6000610a9f8261097c565b610aa98185610987565b935083602082028501610abb85610998565b8060005b85811015610af75784840389528151610ad88582610a73565b9450610ae383610a87565b925060208a01995050600181019050610abf565b50829750879550505050505092915050565b600081519050919050565b600082825260208201905092915050565b6000819050602082019050919050565b60006040830160008301518482036000860152610b5282826109fd565b91505060208301518482036020860152610b6c82826109fd565b9150508091505092915050565b6000610b858383610b35565b905092915050565b6000602082019050919050565b6000610ba582610b09565b610baf8185610b14565b935083602082028501610bc185610b25565b8060005b85811015610bfd5784840389528151610bde8582610b79565b9450610be983610b8d565b925060208a01995050600181019050610bc5565b50829750879550505050505092915050565b60006040820190508181036000830152610c298185610a94565b90508181036020830152610c3d8184610b9a565b90509392505050565b610c4f816107d6565b82525050565b6000604082019050610c6a6000830185610c46565b610c776020830184610c46565b9392505050565b600082825260208201905092915050565b7f456c20696420646520747520706f6b656d6f6e206465626520736572206d617960008201527f6f72206120300000000000000000000000000000000000000000000000000000602082015250565b6000610ceb602683610c7e565b9150610cf682610c8f565b604082019050919050565b60006020820190508181036000830152610d1a81610cde565b9050919050565b7f456c206e6f6d62726520646520747520706f6b656d6f6e20646562652073657260008201527f206d61796f722061203220636172616374657265730000000000000000000000602082015250565b6000610d7d603583610c7e565b9150610d8882610d21565b604082019050919050565b60006020820190508181036000830152610dac81610d70565b9050919050565b7f4e487b7100000000000000000000000000000000000000000000000000000000600052602260045260246000fd5b60006002820490506001821680610dfa57607f821691505b602082108103610e0d57610e0c610db3565b5b50919050565b60008190508160005260206000209050919050565b60006020601f8301049050919050565b600082821b905092915050565b600060088302610e757fffffffffffffffffffffffffffffffffffffffffffffffffffffffffffffffff82610e38565b610e7f8683610e38565b95508019841693508086168417925050509392505050565b6000819050919050565b6000610ebc610eb7610eb2846107d6565b610e97565b6107d6565b9050919050565b6000819050919050565b610ed683610ea1565b610eea610ee282610ec3565b848454610e45565b825550505050565b600090565b610eff610ef2565b610f0a818484610ecd565b505050565b5b81811015610f2e57610f23600082610ef7565b600181019050610f10565b5050565b601f821115610f7357610f4481610e13565b610f4d84610e28565b81016020851015610f5c578190505b610f70610f6885610e28565b830182610f0f565b50505b505050565b600082821c905092915050565b6000610f9660001984600802610f78565b1980831691505092915050565b6000610faf8383610f85565b9150826002028217905092915050565b610fc8826109b7565b67ffffffffffffffff811115610fe157610fe06106ab565b5b610feb8254610de2565b610ff6828285610f32565b600060209050601f8311600181146110295760008415611017578287015190505b6110218582610fa3565b865550611089565b601f19841661103786610e13565b60005b8281101561105f5784890151825560018201915060208501945060208101905061103a565b8683101561107c5784890151611078601f891682610f85565b8355505b6001600288020188555050505b505050505050565b7f4e487b7100000000000000000000000000000000000000000000000000000000600052601160045260246000fd5b60006110cb826107d6565b91507fffffffffffffffffffffffffffffffffffffffffffffffffffffffffffffffff82036110fd576110fc611091565b5b600182019050919050565b6000611113826109b7565b61111d8185610c7e565b935061112d8185602086016109d3565b6111368161069a565b840191505092915050565b60006040820190506111566000830185610c46565b81810360208301526111688184611108565b90509392505050565b600061117c826107d6565b9150611187836107d6565b9250828202611195816107d6565b915082820484148315176111ac576111ab611091565b5b5092915050565b60006111be826107d6565b91506111c9836107d6565b92508282019050808211156111e1576111e0611091565b5b9291505056fea2646970667358221220314e342a371b36e7d5b880e689dcaf7b848641a6cb00e9fb3f72db47f56bd63364736f6c63430008120033",
  "linkReferences": {},
  "deployedLinkReferences": {}
}