{
  "_format": "hh-sol-artifact-1",
  "contractName": "PokemonFactory",
  "sourceName": "contracts/PokemonFactory.sol",
  "abi": [
    {
      "anonymous": false,
      "inputs": [
        {
          "indexed": false,
          "internalType": "uint256",
          "name": "id",
          "type": "uint256"
        },
        {
          "indexed": false,
          "internalType": "string",
          "name": "name",
          "type": "string"
        }
      ],
      "name": "eventNewPokemon",
      "type": "event"
    },
    {
      "inputs": [
        {
          "internalType": "uint256",
          "name": "_id",
          "type": "uint256"
        },
        {
          "internalType": "string",
          "name": "_name",
          "type": "string"
        },
        {
          "internalType": "enum PokemonFactory.Tipos[]",
          "name": "_Type",
          "type": "uint8[]"
        },
        {
          "internalType": "enum PokemonFactory.Tipos[]",
          "name": "_Weaknesses",
          "type": "uint8[]"
        },
        {
          "internalType": "uint256[]",
          "name": "_habilities",
          "type": "uint256[]"
        }
      ],
      "name": "createPokemon",
      "outputs": [],
      "stateMutability": "nonpayable",
      "type": "function"
    },
    {
      "inputs": [],
      "name": "getAllPokemons",
      "outputs": [
        {
          "components": [
            {
              "internalType": "uint256",
              "name": "id",
              "type": "uint256"
            },
            {
              "internalType": "string",
              "name": "name",
              "type": "string"
            },
            {
              "internalType": "enum PokemonFactory.Tipos[]",
              "name": "Type",
              "type": "uint8[]"
            },
            {
              "internalType": "enum PokemonFactory.Tipos[]",
              "name": "Weaknesses",
              "type": "uint8[]"
            },
            {
              "internalType": "uint256[]",
              "name": "Habilities",
              "type": "uint256[]"
            }
          ],
          "internalType": "struct PokemonFactory.Pokemon[]",
          "name": "",
          "type": "tuple[]"
        }
      ],
      "stateMutability": "view",
      "type": "function"
    },
    {
      "inputs": [],
      "name": "getResult",
      "outputs": [
        {
          "internalType": "uint256",
          "name": "product",
          "type": "uint256"
        },
        {
          "internalType": "uint256",
          "name": "sum",
          "type": "uint256"
        }
      ],
      "stateMutability": "pure",
      "type": "function"
    },
    {
      "inputs": [
        {
          "internalType": "uint256",
          "name": "_pokemonId",
          "type": "uint256"
        },
        {
          "internalType": "uint256",
          "name": "_habilityIndex",
          "type": "uint256"
        },
        {
          "internalType": "string",
          "name": "_name",
          "type": "string"
        },
        {
          "internalType": "string",
          "name": "_description",
          "type": "string"
        }
      ],
      "name": "pokemonEvolution",
      "outputs": [],
      "stateMutability": "nonpayable",
      "type": "function"
    },
    {
      "inputs": [
        {
          "internalType": "uint256",
          "name": "",
          "type": "uint256"
        },
        {
          "internalType": "uint256",
          "name": "",
          "type": "uint256"
        }
      ],
      "name": "pokemonHabilities",
      "outputs": [
        {
          "internalType": "string",
          "name": "Name",
          "type": "string"
        },
        {
          "internalType": "string",
          "name": "Description",
          "type": "string"
        }
      ],
      "stateMutability": "view",
      "type": "function"
    },
    {
      "inputs": [
        {
          "internalType": "uint256",
          "name": "",
          "type": "uint256"
        }
      ],
      "name": "pokemonToOwner",
      "outputs": [
        {
          "internalType": "address",
          "name": "",
          "type": "address"
        }
      ],
      "stateMutability": "view",
      "type": "function"
    }
  ],
  "bytecode": "0x608060405234801561001057600080fd5b50611997806100206000396000f3fe608060405234801561001057600080fd5b50600436106100625760003560e01c80632f7467b3146100675780635affd2d4146100975780635c778444146100b35780635e916790146100e45780636f5a59d614610102578063de2927891461011e575b600080fd5b610081600480360381019061007c9190610a3f565b61013d565b60405161008e9190610aad565b60405180910390f35b6100b160048036038101906100ac9190610dbe565b610170565b005b6100cd60048036038101906100c89190610ea9565b610469565b6040516100db929190610f68565b60405180910390f35b6100ec6105ba565b6040516100f9919061131a565b60405180910390f35b61011c6004803603810190610117919061133c565b610827565b005b6101266108a4565b6040516101349291906113ea565b60405180910390f35b60016020528060005260406000206000915054906101000a900473ffffffffffffffffffffffffffffffffffffffff1681565b84600081116101b4576040517f08c379a00000000000000000000000000000000000000000000000000000000081526004016101ab90611485565b60405180910390fd5b8460028151116101f9576040517f08c379a00000000000000000000000000000000000000000000000000000000081526004016101f090611517565b60405180910390fd5b60006040518060a0016040528089815260200188815260200187815260200186815260200185815250908060018154018082558091505060019003906000526020600020906005020160009091909190915060008201518160000155602082015181600101908161026a9190611743565b5060408201518160020190805190602001906102879291906108d5565b5060608201518160030190805190602001906102a49291906108d5565b5060808201518160040190805190602001906102c192919061098b565b505050336001600089815260200190815260200160002060006101000a81548173ffffffffffffffffffffffffffffffffffffffff021916908373ffffffffffffffffffffffffffffffffffffffff160217905550600260003373ffffffffffffffffffffffffffffffffffffffff1673ffffffffffffffffffffffffffffffffffffffff168152602001908152602001600020600081548092919061036690611844565b919050555060005b83518110156104275760036000898152602001908152602001600020604051806040016040528060405180602001604052806000815250815260200160405180602001604052806000815250815250908060018154018082558091505060019003906000526020600020906002020160009091909190915060008201518160000190816103fb9190611743565b5060208201518160010190816104119190611743565b505050808061041f90611844565b91505061036e565b507e570a6686f18a686cdda2f62a7954c6bd78c21f4b33df90b0a5479f5ae8a9a8878760405161045892919061188c565b60405180910390a150505050505050565b6003602052816000526040600020818154811061048557600080fd5b9060005260206000209060020201600091509150508060000180546104a990611566565b80601f01602080910402602001604051908101604052809291908181526020018280546104d590611566565b80156105225780601f106104f757610100808354040283529160200191610522565b820191906000526020600020905b81548152906001019060200180831161050557829003601f168201915b50505050509080600101805461053790611566565b80601f016020809104026020016040519081016040528092919081815260200182805461056390611566565b80156105b05780601f10610585576101008083540402835291602001916105b0565b820191906000526020600020905b81548152906001019060200180831161059357829003601f168201915b5050505050905082565b60606000805480602002602001604051908101604052809291908181526020016000905b8282101561081e57838290600052602060002090600502016040518060a00160405290816000820154815260200160018201805461061b90611566565b80601f016020809104026020016040519081016040528092919081815260200182805461064790611566565b80156106945780601f1061066957610100808354040283529160200191610694565b820191906000526020600020905b81548152906001019060200180831161067757829003601f168201915b505050505081526020016002820180548060200260200160405190810160405280929190818152602001828054801561072157602002820191906000526020600020906000905b82829054906101000a900460ff1660118111156106fb576106fa611050565b5b815260200190600101906020826000010492830192600103820291508084116106db5790505b50505050508152602001600382018054806020026020016040519081016040528092919081815260200182805480156107ae57602002820191906000526020600020906000905b82829054906101000a900460ff16601181111561078857610787611050565b5b815260200190600101906020826000010492830192600103820291508084116107685790505b505050505081526020016004820180548060200260200160405190810160405280929190818152602001828054801561080657602002820191906000526020600020905b8154815260200190600101908083116107f2575b505050505081525050815260200190600101906105de565b50505050905090565b604051806040016040528083815260200182815250600360008681526020019081526020016000208481548110610861576108606118bc565b5b906000526020600020906002020160008201518160000190816108849190611743565b50602082015181600101908161089a9190611743565b5090505050505050565b60008060006001905060006002905080826108bf91906118eb565b935080826108cd919061192d565b925050509091565b82805482825590600052602060002090601f0160209004810192821561097a5791602002820160005b8382111561094b57835183826101000a81548160ff0219169083601181111561092a57610929611050565b5b021790555092602001926001016020816000010492830192600103026108fe565b80156109785782816101000a81549060ff021916905560010160208160000104928301926001030261094b565b505b50905061098791906109d8565b5090565b8280548282559060005260206000209081019282156109c7579160200282015b828111156109c65782518255916020019190600101906109ab565b5b5090506109d491906109d8565b5090565b5b808211156109f15760008160009055506001016109d9565b5090565b6000604051905090565b600080fd5b600080fd5b6000819050919050565b610a1c81610a09565b8114610a2757600080fd5b50565b600081359050610a3981610a13565b92915050565b600060208284031215610a5557610a546109ff565b5b6000610a6384828501610a2a565b91505092915050565b600073ffffffffffffffffffffffffffffffffffffffff82169050919050565b6000610a9782610a6c565b9050919050565b610aa781610a8c565b82525050565b6000602082019050610ac26000830184610a9e565b92915050565b600080fd5b600080fd5b6000601f19601f8301169050919050565b7f4e487b7100000000000000000000000000000000000000000000000000000000600052604160045260246000fd5b610b1b82610ad2565b810181811067ffffffffffffffff82111715610b3a57610b39610ae3565b5b80604052505050565b6000610b4d6109f5565b9050610b598282610b12565b919050565b600067ffffffffffffffff821115610b7957610b78610ae3565b5b610b8282610ad2565b9050602081019050919050565b82818337600083830152505050565b6000610bb1610bac84610b5e565b610b43565b905082815260208101848484011115610bcd57610bcc610acd565b5b610bd8848285610b8f565b509392505050565b600082601f830112610bf557610bf4610ac8565b5b8135610c05848260208601610b9e565b91505092915050565b600067ffffffffffffffff821115610c2957610c28610ae3565b5b602082029050602081019050919050565b600080fd5b60128110610c4c57600080fd5b50565b600081359050610c5e81610c3f565b92915050565b6000610c77610c7284610c0e565b610b43565b90508083825260208201905060208402830185811115610c9a57610c99610c3a565b5b835b81811015610cc35780610caf8882610c4f565b845260208401935050602081019050610c9c565b5050509392505050565b600082601f830112610ce257610ce1610ac8565b5b8135610cf2848260208601610c64565b91505092915050565b600067ffffffffffffffff821115610d1657610d15610ae3565b5b602082029050602081019050919050565b6000610d3a610d3584610cfb565b610b43565b90508083825260208201905060208402830185811115610d5d57610d5c610c3a565b5b835b81811015610d865780610d728882610a2a565b845260208401935050602081019050610d5f565b5050509392505050565b600082601f830112610da557610da4610ac8565b5b8135610db5848260208601610d27565b91505092915050565b600080600080600060a08688031215610dda57610dd96109ff565b5b6000610de888828901610a2a565b955050602086013567ffffffffffffffff811115610e0957610e08610a04565b5b610e1588828901610be0565b945050604086013567ffffffffffffffff811115610e3657610e35610a04565b5b610e4288828901610ccd565b935050606086013567ffffffffffffffff811115610e6357610e62610a04565b5b610e6f88828901610ccd565b925050608086013567ffffffffffffffff811115610e9057610e8f610a04565b5b610e9c88828901610d90565b9150509295509295909350565b60008060408385031215610ec057610ebf6109ff565b5b6000610ece85828601610a2a565b9250506020610edf85828601610a2a565b9150509250929050565b600081519050919050565b600082825260208201905092915050565b60005b83811015610f23578082015181840152602081019050610f08565b60008484015250505050565b6000610f3a82610ee9565b610f448185610ef4565b9350610f54818560208601610f05565b610f5d81610ad2565b840191505092915050565b60006040820190508181036000830152610f828185610f2f565b90508181036020830152610f968184610f2f565b90509392505050565b600081519050919050565b600082825260208201905092915050565b6000819050602082019050919050565b610fd481610a09565b82525050565b600082825260208201905092915050565b6000610ff682610ee9565b6110008185610fda565b9350611010818560208601610f05565b61101981610ad2565b840191505092915050565b600081519050919050565b600082825260208201905092915050565b6000819050602082019050919050565b7f4e487b7100000000000000000000000000000000000000000000000000000000600052602160045260246000fd5b601281106110905761108f611050565b5b50565b60008190506110a18261107f565b919050565b60006110b182611093565b9050919050565b6110c1816110a6565b82525050565b60006110d383836110b8565b60208301905092915050565b6000602082019050919050565b60006110f782611024565b611101818561102f565b935061110c83611040565b8060005b8381101561113d57815161112488826110c7565b975061112f836110df565b925050600181019050611110565b5085935050505092915050565b600081519050919050565b600082825260208201905092915050565b6000819050602082019050919050565b60006111828383610fcb565b60208301905092915050565b6000602082019050919050565b60006111a68261114a565b6111b08185611155565b93506111bb83611166565b8060005b838110156111ec5781516111d38882611176565b97506111de8361118e565b9250506001810190506111bf565b5085935050505092915050565b600060a0830160008301516112116000860182610fcb565b50602083015184820360208601526112298282610feb565b9150506040830151848203604086015261124382826110ec565b9150506060830151848203606086015261125d82826110ec565b91505060808301518482036080860152611277828261119b565b9150508091505092915050565b600061129083836111f9565b905092915050565b6000602082019050919050565b60006112b082610f9f565b6112ba8185610faa565b9350836020820285016112cc85610fbb565b8060005b8581101561130857848403895281516112e98582611284565b94506112f483611298565b925060208a019950506001810190506112d0565b50829750879550505050505092915050565b6000602082019050818103600083015261133481846112a5565b905092915050565b60008060008060808587031215611356576113556109ff565b5b600061136487828801610a2a565b945050602061137587828801610a2a565b935050604085013567ffffffffffffffff81111561139657611395610a04565b5b6113a287828801610be0565b925050606085013567ffffffffffffffff8111156113c3576113c2610a04565b5b6113cf87828801610be0565b91505092959194509250565b6113e481610a09565b82525050565b60006040820190506113ff60008301856113db565b61140c60208301846113db565b9392505050565b7f456c20696420646520747520706f6b656d6f6e206465626520736572206d617960008201527f6f72206120300000000000000000000000000000000000000000000000000000602082015250565b600061146f602683610ef4565b915061147a82611413565b604082019050919050565b6000602082019050818103600083015261149e81611462565b9050919050565b7f456c206e6f6d62726520646520747520706f6b656d6f6e20646562652073657260008201527f206d61796f722061203220636172616374657265730000000000000000000000602082015250565b6000611501603583610ef4565b915061150c826114a5565b604082019050919050565b60006020820190508181036000830152611530816114f4565b9050919050565b7f4e487b7100000000000000000000000000000000000000000000000000000000600052602260045260246000fd5b6000600282049050600182168061157e57607f821691505b60208210810361159157611590611537565b5b50919050565b60008190508160005260206000209050919050565b60006020601f8301049050919050565b600082821b905092915050565b6000600883026115f97fffffffffffffffffffffffffffffffffffffffffffffffffffffffffffffffff826115bc565b61160386836115bc565b95508019841693508086168417925050509392505050565b6000819050919050565b600061164061163b61163684610a09565b61161b565b610a09565b9050919050565b6000819050919050565b61165a83611625565b61166e61166682611647565b8484546115c9565b825550505050565b600090565b611683611676565b61168e818484611651565b505050565b5b818110156116b2576116a760008261167b565b600181019050611694565b5050565b601f8211156116f7576116c881611597565b6116d1846115ac565b810160208510156116e0578190505b6116f46116ec856115ac565b830182611693565b50505b505050565b600082821c905092915050565b600061171a600019846008026116fc565b1980831691505092915050565b60006117338383611709565b9150826002028217905092915050565b61174c82610ee9565b67ffffffffffffffff81111561176557611764610ae3565b5b61176f8254611566565b61177a8282856116b6565b600060209050601f8311600181146117ad576000841561179b578287015190505b6117a58582611727565b86555061180d565b601f1984166117bb86611597565b60005b828110156117e3578489015182556001820191506020850194506020810190506117be565b8683101561180057848901516117fc601f891682611709565b8355505b6001600288020188555050505b505050505050565b7f4e487b7100000000000000000000000000000000000000000000000000000000600052601160045260246000fd5b600061184f82610a09565b91507fffffffffffffffffffffffffffffffffffffffffffffffffffffffffffffffff820361188157611880611815565b5b600182019050919050565b60006040820190506118a160008301856113db565b81810360208301526118b38184610f2f565b90509392505050565b7f4e487b7100000000000000000000000000000000000000000000000000000000600052603260045260246000fd5b60006118f682610a09565b915061190183610a09565b925082820261190f81610a09565b9150828204841483151761192657611925611815565b5b5092915050565b600061193882610a09565b915061194383610a09565b925082820190508082111561195b5761195a611815565b5b9291505056fea2646970667358221220a13864f1e09d5b151fdda956cdfc113314e056194d881330228066a2f2647fb064736f6c63430008120033",
  "linkReferences": {},
  "deployedLinkReferences": {}
}