{
  "_format": "hh-sol-artifact-1",
  "contractName": "PokemonFactory",
  "sourceName": "contracts/PokemonFactory.sol",
  "abi": [
    {
      "anonymous": false,
      "inputs": [
        {
          "indexed": false,
          "internalType": "uint256",
          "name": "id",
          "type": "uint256"
        },
        {
          "indexed": false,
          "internalType": "string",
          "name": "name",
          "type": "string"
        }
      ],
      "name": "eventNewPokemon",
      "type": "event"
    },
    {
      "inputs": [
        {
          "internalType": "uint256",
          "name": "_id",
          "type": "uint256"
        },
        {
          "internalType": "string",
          "name": "_name",
          "type": "string"
        },
        {
          "internalType": "enum PokemonFactory.Tipos[]",
          "name": "_Type",
          "type": "uint8[]"
        },
        {
          "internalType": "enum PokemonFactory.Tipos[]",
          "name": "_Weaknesses",
          "type": "uint8[]"
        },
        {
          "internalType": "uint256[]",
          "name": "_habilities",
          "type": "uint256[]"
        }
      ],
      "name": "createPokemon",
      "outputs": [],
      "stateMutability": "nonpayable",
      "type": "function"
    },
    {
      "inputs": [],
      "name": "getAllPokemons",
      "outputs": [
        {
          "components": [
            {
              "internalType": "uint256",
              "name": "id",
              "type": "uint256"
            },
            {
              "internalType": "string",
              "name": "name",
              "type": "string"
            },
            {
              "internalType": "enum PokemonFactory.Tipos[]",
              "name": "Type",
              "type": "uint8[]"
            },
            {
              "internalType": "enum PokemonFactory.Tipos[]",
              "name": "Weaknesses",
              "type": "uint8[]"
            },
            {
              "internalType": "uint256[]",
              "name": "Habilities",
              "type": "uint256[]"
            }
          ],
          "internalType": "struct PokemonFactory.Pokemon[]",
          "name": "",
          "type": "tuple[]"
        }
      ],
      "stateMutability": "view",
      "type": "function"
    },
    {
      "inputs": [],
      "name": "getResult",
      "outputs": [
        {
          "internalType": "uint256",
          "name": "product",
          "type": "uint256"
        },
        {
          "internalType": "uint256",
          "name": "sum",
          "type": "uint256"
        }
      ],
      "stateMutability": "pure",
      "type": "function"
    },
    {
      "inputs": [
        {
          "internalType": "uint256",
          "name": "_pokemonId",
          "type": "uint256"
        },
        {
          "internalType": "uint256",
          "name": "_habilityIndex",
          "type": "uint256"
        },
        {
          "internalType": "string",
          "name": "_name",
          "type": "string"
        },
        {
          "internalType": "string",
          "name": "_description",
          "type": "string"
        }
      ],
      "name": "pokemonEvolution",
      "outputs": [],
      "stateMutability": "nonpayable",
      "type": "function"
    },
    {
      "inputs": [
        {
          "internalType": "uint256",
          "name": "",
          "type": "uint256"
        },
        {
          "internalType": "uint256",
          "name": "",
          "type": "uint256"
        }
      ],
      "name": "pokemonHabilities",
      "outputs": [
        {
          "internalType": "string",
          "name": "Name",
          "type": "string"
        },
        {
          "internalType": "string",
          "name": "Description",
          "type": "string"
        }
      ],
      "stateMutability": "view",
      "type": "function"
    },
    {
      "inputs": [
        {
          "internalType": "uint256",
          "name": "",
          "type": "uint256"
        }
      ],
      "name": "pokemonToOwner",
      "outputs": [
        {
          "internalType": "address",
          "name": "",
          "type": "address"
        }
      ],
      "stateMutability": "view",
      "type": "function"
    }
  ],
  "bytecode": "0x608060405234801561001057600080fd5b50611aa6806100206000396000f3fe608060405234801561001057600080fd5b50600436106100625760003560e01c80632f7467b3146100675780635affd2d4146100975780635c778444146100b35780635e916790146100e45780636f5a59d614610102578063de2927891461011e575b600080fd5b610081600480360381019061007c9190610ae2565b61013d565b60405161008e9190610b50565b60405180910390f35b6100b160048036038101906100ac9190610e61565b610170565b005b6100cd60048036038101906100c89190610f4c565b610469565b6040516100db92919061100b565b60405180910390f35b6100ec6105ba565b6040516100f991906113bd565b60405180910390f35b61011c600480360381019061011791906113df565b610827565b005b610126610947565b60405161013492919061148d565b60405180910390f35b60016020528060005260406000206000915054906101000a900473ffffffffffffffffffffffffffffffffffffffff1681565b84600081116101b4576040517f08c379a00000000000000000000000000000000000000000000000000000000081526004016101ab90611528565b60405180910390fd5b8460028151116101f9576040517f08c379a00000000000000000000000000000000000000000000000000000000081526004016101f0906115ba565b60405180910390fd5b60006040518060a0016040528089815260200188815260200187815260200186815260200185815250908060018154018082558091505060019003906000526020600020906005020160009091909190915060008201518160000155602082015181600101908161026a91906117e6565b506040820151816002019080519060200190610287929190610978565b5060608201518160030190805190602001906102a4929190610978565b5060808201518160040190805190602001906102c1929190610a2e565b505050336001600089815260200190815260200160002060006101000a81548173ffffffffffffffffffffffffffffffffffffffff021916908373ffffffffffffffffffffffffffffffffffffffff160217905550600260003373ffffffffffffffffffffffffffffffffffffffff1673ffffffffffffffffffffffffffffffffffffffff1681526020019081526020016000206000815480929190610366906118e7565b919050555060005b83518110156104275760036000898152602001908152602001600020604051806040016040528060405180602001604052806000815250815260200160405180602001604052806000815250815250908060018154018082558091505060019003906000526020600020906002020160009091909190915060008201518160000190816103fb91906117e6565b50602082015181600101908161041191906117e6565b505050808061041f906118e7565b91505061036e565b507e570a6686f18a686cdda2f62a7954c6bd78c21f4b33df90b0a5479f5ae8a9a8878760405161045892919061192f565b60405180910390a150505050505050565b6003602052816000526040600020818154811061048557600080fd5b9060005260206000209060020201600091509150508060000180546104a990611609565b80601f01602080910402602001604051908101604052809291908181526020018280546104d590611609565b80156105225780601f106104f757610100808354040283529160200191610522565b820191906000526020600020905b81548152906001019060200180831161050557829003601f168201915b50505050509080600101805461053790611609565b80601f016020809104026020016040519081016040528092919081815260200182805461056390611609565b80156105b05780601f10610585576101008083540402835291602001916105b0565b820191906000526020600020905b81548152906001019060200180831161059357829003601f168201915b5050505050905082565b60606000805480602002602001604051908101604052809291908181526020016000905b8282101561081e57838290600052602060002090600502016040518060a00160405290816000820154815260200160018201805461061b90611609565b80601f016020809104026020016040519081016040528092919081815260200182805461064790611609565b80156106945780601f1061066957610100808354040283529160200191610694565b820191906000526020600020905b81548152906001019060200180831161067757829003601f168201915b505050505081526020016002820180548060200260200160405190810160405280929190818152602001828054801561072157602002820191906000526020600020906000905b82829054906101000a900460ff1660118111156106fb576106fa6110f3565b5b815260200190600101906020826000010492830192600103820291508084116106db5790505b50505050508152602001600382018054806020026020016040519081016040528092919081815260200182805480156107ae57602002820191906000526020600020906000905b82829054906101000a900460ff166011811115610788576107876110f3565b5b815260200190600101906020826000010492830192600103820291508084116107685790505b505050505081526020016004820180548060200260200160405190810160405280929190818152602001828054801561080657602002820191906000526020600020905b8154815260200190600101908083116107f2575b505050505081525050815260200190600101906105de565b50505050905090565b836001600082815260200190815260200160002060009054906101000a900473ffffffffffffffffffffffffffffffffffffffff1673ffffffffffffffffffffffffffffffffffffffff163373ffffffffffffffffffffffffffffffffffffffff16146108c9576040517f08c379a00000000000000000000000000000000000000000000000000000000081526004016108c0906119ab565b60405180910390fd5b604051806040016040528084815260200183815250600360008781526020019081526020016000208581548110610903576109026119cb565b5b9060005260206000209060020201600082015181600001908161092691906117e6565b50602082015181600101908161093c91906117e6565b509050505050505050565b600080600060019050600060029050808261096291906119fa565b935080826109709190611a3c565b925050509091565b82805482825590600052602060002090601f01602090048101928215610a1d5791602002820160005b838211156109ee57835183826101000a81548160ff021916908360118111156109cd576109cc6110f3565b5b021790555092602001926001016020816000010492830192600103026109a1565b8015610a1b5782816101000a81549060ff02191690556001016020816000010492830192600103026109ee565b505b509050610a2a9190610a7b565b5090565b828054828255906000526020600020908101928215610a6a579160200282015b82811115610a69578251825591602001919060010190610a4e565b5b509050610a779190610a7b565b5090565b5b80821115610a94576000816000905550600101610a7c565b5090565b6000604051905090565b600080fd5b600080fd5b6000819050919050565b610abf81610aac565b8114610aca57600080fd5b50565b600081359050610adc81610ab6565b92915050565b600060208284031215610af857610af7610aa2565b5b6000610b0684828501610acd565b91505092915050565b600073ffffffffffffffffffffffffffffffffffffffff82169050919050565b6000610b3a82610b0f565b9050919050565b610b4a81610b2f565b82525050565b6000602082019050610b656000830184610b41565b92915050565b600080fd5b600080fd5b6000601f19601f8301169050919050565b7f4e487b7100000000000000000000000000000000000000000000000000000000600052604160045260246000fd5b610bbe82610b75565b810181811067ffffffffffffffff82111715610bdd57610bdc610b86565b5b80604052505050565b6000610bf0610a98565b9050610bfc8282610bb5565b919050565b600067ffffffffffffffff821115610c1c57610c1b610b86565b5b610c2582610b75565b9050602081019050919050565b82818337600083830152505050565b6000610c54610c4f84610c01565b610be6565b905082815260208101848484011115610c7057610c6f610b70565b5b610c7b848285610c32565b509392505050565b600082601f830112610c9857610c97610b6b565b5b8135610ca8848260208601610c41565b91505092915050565b600067ffffffffffffffff821115610ccc57610ccb610b86565b5b602082029050602081019050919050565b600080fd5b60128110610cef57600080fd5b50565b600081359050610d0181610ce2565b92915050565b6000610d1a610d1584610cb1565b610be6565b90508083825260208201905060208402830185811115610d3d57610d3c610cdd565b5b835b81811015610d665780610d528882610cf2565b845260208401935050602081019050610d3f565b5050509392505050565b600082601f830112610d8557610d84610b6b565b5b8135610d95848260208601610d07565b91505092915050565b600067ffffffffffffffff821115610db957610db8610b86565b5b602082029050602081019050919050565b6000610ddd610dd884610d9e565b610be6565b90508083825260208201905060208402830185811115610e0057610dff610cdd565b5b835b81811015610e295780610e158882610acd565b845260208401935050602081019050610e02565b5050509392505050565b600082601f830112610e4857610e47610b6b565b5b8135610e58848260208601610dca565b91505092915050565b600080600080600060a08688031215610e7d57610e7c610aa2565b5b6000610e8b88828901610acd565b955050602086013567ffffffffffffffff811115610eac57610eab610aa7565b5b610eb888828901610c83565b945050604086013567ffffffffffffffff811115610ed957610ed8610aa7565b5b610ee588828901610d70565b935050606086013567ffffffffffffffff811115610f0657610f05610aa7565b5b610f1288828901610d70565b925050608086013567ffffffffffffffff811115610f3357610f32610aa7565b5b610f3f88828901610e33565b9150509295509295909350565b60008060408385031215610f6357610f62610aa2565b5b6000610f7185828601610acd565b9250506020610f8285828601610acd565b9150509250929050565b600081519050919050565b600082825260208201905092915050565b60005b83811015610fc6578082015181840152602081019050610fab565b60008484015250505050565b6000610fdd82610f8c565b610fe78185610f97565b9350610ff7818560208601610fa8565b61100081610b75565b840191505092915050565b600060408201905081810360008301526110258185610fd2565b905081810360208301526110398184610fd2565b90509392505050565b600081519050919050565b600082825260208201905092915050565b6000819050602082019050919050565b61107781610aac565b82525050565b600082825260208201905092915050565b600061109982610f8c565b6110a3818561107d565b93506110b3818560208601610fa8565b6110bc81610b75565b840191505092915050565b600081519050919050565b600082825260208201905092915050565b6000819050602082019050919050565b7f4e487b7100000000000000000000000000000000000000000000000000000000600052602160045260246000fd5b60128110611133576111326110f3565b5b50565b600081905061114482611122565b919050565b600061115482611136565b9050919050565b61116481611149565b82525050565b6000611176838361115b565b60208301905092915050565b6000602082019050919050565b600061119a826110c7565b6111a481856110d2565b93506111af836110e3565b8060005b838110156111e05781516111c7888261116a565b97506111d283611182565b9250506001810190506111b3565b5085935050505092915050565b600081519050919050565b600082825260208201905092915050565b6000819050602082019050919050565b6000611225838361106e565b60208301905092915050565b6000602082019050919050565b6000611249826111ed565b61125381856111f8565b935061125e83611209565b8060005b8381101561128f5781516112768882611219565b975061128183611231565b925050600181019050611262565b5085935050505092915050565b600060a0830160008301516112b4600086018261106e565b50602083015184820360208601526112cc828261108e565b915050604083015184820360408601526112e6828261118f565b91505060608301518482036060860152611300828261118f565b9150506080830151848203608086015261131a828261123e565b9150508091505092915050565b6000611333838361129c565b905092915050565b6000602082019050919050565b600061135382611042565b61135d818561104d565b93508360208202850161136f8561105e565b8060005b858110156113ab578484038952815161138c8582611327565b94506113978361133b565b925060208a01995050600181019050611373565b50829750879550505050505092915050565b600060208201905081810360008301526113d78184611348565b905092915050565b600080600080608085870312156113f9576113f8610aa2565b5b600061140787828801610acd565b945050602061141887828801610acd565b935050604085013567ffffffffffffffff81111561143957611438610aa7565b5b61144587828801610c83565b925050606085013567ffffffffffffffff81111561146657611465610aa7565b5b61147287828801610c83565b91505092959194509250565b61148781610aac565b82525050565b60006040820190506114a2600083018561147e565b6114af602083018461147e565b9392505050565b7f456c20696420646520747520706f6b656d6f6e206465626520736572206d617960008201527f6f72206120300000000000000000000000000000000000000000000000000000602082015250565b6000611512602683610f97565b915061151d826114b6565b604082019050919050565b6000602082019050818103600083015261154181611505565b9050919050565b7f456c206e6f6d62726520646520747520706f6b656d6f6e20646562652073657260008201527f206d61796f722061203220636172616374657265730000000000000000000000602082015250565b60006115a4603583610f97565b91506115af82611548565b604082019050919050565b600060208201905081810360008301526115d381611597565b9050919050565b7f4e487b7100000000000000000000000000000000000000000000000000000000600052602260045260246000fd5b6000600282049050600182168061162157607f821691505b602082108103611634576116336115da565b5b50919050565b60008190508160005260206000209050919050565b60006020601f8301049050919050565b600082821b905092915050565b60006008830261169c7fffffffffffffffffffffffffffffffffffffffffffffffffffffffffffffffff8261165f565b6116a6868361165f565b95508019841693508086168417925050509392505050565b6000819050919050565b60006116e36116de6116d984610aac565b6116be565b610aac565b9050919050565b6000819050919050565b6116fd836116c8565b611711611709826116ea565b84845461166c565b825550505050565b600090565b611726611719565b6117318184846116f4565b505050565b5b818110156117555761174a60008261171e565b600181019050611737565b5050565b601f82111561179a5761176b8161163a565b6117748461164f565b81016020851015611783578190505b61179761178f8561164f565b830182611736565b50505b505050565b600082821c905092915050565b60006117bd6000198460080261179f565b1980831691505092915050565b60006117d683836117ac565b9150826002028217905092915050565b6117ef82610f8c565b67ffffffffffffffff81111561180857611807610b86565b5b6118128254611609565b61181d828285611759565b600060209050601f831160018114611850576000841561183e578287015190505b61184885826117ca565b8655506118b0565b601f19841661185e8661163a565b60005b8281101561188657848901518255600182019150602085019450602081019050611861565b868310156118a3578489015161189f601f8916826117ac565b8355505b6001600288020188555050505b505050505050565b7f4e487b7100000000000000000000000000000000000000000000000000000000600052601160045260246000fd5b60006118f282610aac565b91507fffffffffffffffffffffffffffffffffffffffffffffffffffffffffffffffff8203611924576119236118b8565b5b600182019050919050565b6000604082019050611944600083018561147e565b81810360208301526119568184610fd2565b90509392505050565b7f6573746520706f6b656d6f6e206e6f206573207475796f000000000000000000600082015250565b6000611995601783610f97565b91506119a08261195f565b602082019050919050565b600060208201905081810360008301526119c481611988565b9050919050565b7f4e487b7100000000000000000000000000000000000000000000000000000000600052603260045260246000fd5b6000611a0582610aac565b9150611a1083610aac565b9250828202611a1e81610aac565b91508282048414831517611a3557611a346118b8565b5b5092915050565b6000611a4782610aac565b9150611a5283610aac565b9250828201905080821115611a6a57611a696118b8565b5b9291505056fea2646970667358221220284cd34b063f6ef1b2dc08d2529d34313cd48db0eae260a7e4e8778b71f4dc3e64736f6c63430008120033",
  "linkReferences": {},
  "deployedLinkReferences": {}
}