{
  "_format": "hh-sol-artifact-1",
  "contractName": "PokemonFactory",
  "sourceName": "contracts/PokemonFactory.sol",
  "abi": [
    {
      "anonymous": false,
      "inputs": [
        {
          "indexed": false,
          "internalType": "string",
          "name": "_n",
          "type": "string"
        }
      ],
      "name": "eventNewPokemon",
      "type": "event"
    },
    {
      "inputs": [
        {
          "internalType": "uint256",
          "name": "_pokemonId",
          "type": "uint256"
        },
        {
          "internalType": "uint256",
          "name": "_habilityIndex",
          "type": "uint256"
        },
        {
          "internalType": "string",
          "name": "_name",
          "type": "string"
        },
        {
          "internalType": "string",
          "name": "_description",
          "type": "string"
        }
      ],
      "name": "addHabilityToPokemon",
      "outputs": [],
      "stateMutability": "nonpayable",
      "type": "function"
    },
    {
      "inputs": [
        {
          "internalType": "string",
          "name": "_name",
          "type": "string"
        },
        {
          "internalType": "uint256",
          "name": "_id",
          "type": "uint256"
        },
        {
          "internalType": "uint256[]",
          "name": "_habilities",
          "type": "uint256[]"
        },
        {
          "internalType": "string[]",
          "name": "_types",
          "type": "string[]"
        },
        {
          "internalType": "string[]",
          "name": "_weaknesses",
          "type": "string[]"
        }
      ],
      "name": "createPokemon",
      "outputs": [],
      "stateMutability": "nonpayable",
      "type": "function"
    },
    {
      "inputs": [],
      "name": "getAllPokemons",
      "outputs": [
        {
          "components": [
            {
              "internalType": "uint256",
              "name": "id",
              "type": "uint256"
            },
            {
              "internalType": "string",
              "name": "name",
              "type": "string"
            },
            {
              "internalType": "uint256[]",
              "name": "habilities",
              "type": "uint256[]"
            },
            {
              "internalType": "string[]",
              "name": "types",
              "type": "string[]"
            },
            {
              "internalType": "string[]",
              "name": "weaknesses",
              "type": "string[]"
            }
          ],
          "internalType": "struct PokemonFactory.Pokemon[]",
          "name": "",
          "type": "tuple[]"
        }
      ],
      "stateMutability": "view",
      "type": "function"
    },
    {
      "inputs": [
        {
          "internalType": "uint256",
          "name": "_pokemonId",
          "type": "uint256"
        }
      ],
      "name": "getPokemonTypes",
      "outputs": [
        {
          "internalType": "string[]",
          "name": "",
          "type": "string[]"
        }
      ],
      "stateMutability": "view",
      "type": "function"
    },
    {
      "inputs": [
        {
          "internalType": "uint256",
          "name": "_pokemonId",
          "type": "uint256"
        }
      ],
      "name": "getPokemonWeaknesses",
      "outputs": [
        {
          "internalType": "string[]",
          "name": "",
          "type": "string[]"
        }
      ],
      "stateMutability": "view",
      "type": "function"
    },
    {
      "inputs": [],
      "name": "getResult",
      "outputs": [
        {
          "internalType": "uint256",
          "name": "product",
          "type": "uint256"
        },
        {
          "internalType": "uint256",
          "name": "sum",
          "type": "uint256"
        }
      ],
      "stateMutability": "pure",
      "type": "function"
    },
    {
      "inputs": [
        {
          "internalType": "uint256",
          "name": "",
          "type": "uint256"
        },
        {
          "internalType": "uint256",
          "name": "",
          "type": "uint256"
        }
      ],
      "name": "pokemonHabilities",
      "outputs": [
        {
          "internalType": "string",
          "name": "name",
          "type": "string"
        },
        {
          "internalType": "string",
          "name": "description",
          "type": "string"
        }
      ],
      "stateMutability": "view",
      "type": "function"
    },
    {
      "inputs": [
        {
          "internalType": "uint256",
          "name": "",
          "type": "uint256"
        }
      ],
      "name": "pokemonToOwner",
      "outputs": [
        {
          "internalType": "address",
          "name": "",
          "type": "address"
        }
      ],
      "stateMutability": "view",
      "type": "function"
    }
  ],
  "bytecode": "0x608060405234801561001057600080fd5b506120a7806100206000396000f3fe608060405234801561001057600080fd5b50600436106100885760003560e01c80635e9167901161005b5780635e9167901461013a578063a4e22a6614610158578063b5120cff14610174578063de292789146101a457610088565b80630e314e711461008d57806327a0cec6146100a95780632f7467b3146100d95780635c77844414610109575b600080fd5b6100a760048036038101906100a29190611271565b6101c3565b005b6100c360048036038101906100be919061135c565b6104b7565b6040516100d091906114ca565b60405180910390f35b6100f360048036038101906100ee919061135c565b61064c565b604051610100919061152d565b60405180910390f35b610123600480360381019061011e9190611548565b61067f565b6040516101319291906115d2565b60405180910390f35b6101426107d0565b60405161014f919061189a565b60405180910390f35b610172600480360381019061016d91906118bc565b610ad5565b005b61018e6004803603810190610189919061135c565b610c4b565b60405161019b91906114ca565b60405180910390f35b6101ac610de0565b6040516101ba92919061196a565b60405180910390f35b60008411610206576040517f08c379a00000000000000000000000000000000000000000000000000000000081526004016101fd906119df565b60405180910390fd5b600285511161024a576040517f08c379a000000000000000000000000000000000000000000000000000000000815260040161024190611a71565b60405180910390fd5b60006040518060a001604052808681526020018781526020018581526020018481526020018381525090806001815401808255809150506001900390600052602060002090600502016000909190919091506000820151816000015560208201518160010190816102bb9190611c9d565b5060408201518160020190805190602001906102d8929190610e11565b5060608201518160030190805190602001906102f5929190610e5e565b506080820151816004019080519060200190610312929190610e5e565b505050336001600086815260200190815260200160002060006101000a81548173ffffffffffffffffffffffffffffffffffffffff021916908373ffffffffffffffffffffffffffffffffffffffff160217905550600260003373ffffffffffffffffffffffffffffffffffffffff1673ffffffffffffffffffffffffffffffffffffffff16815260200190815260200160002060008154809291906103b790611d9e565b91905055507f9018649032bdfabe07c5fa8e887df7dda6baf8eac2ef8026b39eebed1fdadeff856040516103eb9190611de6565b60405180910390a160005b83518110156104af5760036000868152602001908152602001600020604051806040016040528060405180602001604052806000815250815260200160405180602001604052806000815250815250908060018154018082558091505060019003906000526020600020906002020160009091909190915060008201518160000190816104839190611c9d565b5060208201518160010190816104999190611c9d565b50505080806104a790611d9e565b9150506103f6565b505050505050565b6060600082116104fc576040517f08c379a00000000000000000000000000000000000000000000000000000000081526004016104f3906119df565b60405180910390fd5b600080549050821115610544576040517f08c379a000000000000000000000000000000000000000000000000000000000815260040161053b90611e54565b60405180910390fd5b60006001836105539190611e74565b8154811061056457610563611ea8565b5b9060005260206000209060050201600301805480602002602001604051908101604052809291908181526020016000905b828210156106415783829060005260206000200180546105b490611ac0565b80601f01602080910402602001604051908101604052809291908181526020018280546105e090611ac0565b801561062d5780601f106106025761010080835404028352916020019161062d565b820191906000526020600020905b81548152906001019060200180831161061057829003601f168201915b505050505081526020019060010190610595565b505050509050919050565b60016020528060005260406000206000915054906101000a900473ffffffffffffffffffffffffffffffffffffffff1681565b6003602052816000526040600020818154811061069b57600080fd5b9060005260206000209060020201600091509150508060000180546106bf90611ac0565b80601f01602080910402602001604051908101604052809291908181526020018280546106eb90611ac0565b80156107385780601f1061070d57610100808354040283529160200191610738565b820191906000526020600020905b81548152906001019060200180831161071b57829003601f168201915b50505050509080600101805461074d90611ac0565b80601f016020809104026020016040519081016040528092919081815260200182805461077990611ac0565b80156107c65780601f1061079b576101008083540402835291602001916107c6565b820191906000526020600020905b8154815290600101906020018083116107a957829003601f168201915b5050505050905082565b60606000805480602002602001604051908101604052809291908181526020016000905b82821015610acc57838290600052602060002090600502016040518060a00160405290816000820154815260200160018201805461083190611ac0565b80601f016020809104026020016040519081016040528092919081815260200182805461085d90611ac0565b80156108aa5780601f1061087f576101008083540402835291602001916108aa565b820191906000526020600020905b81548152906001019060200180831161088d57829003601f168201915b505050505081526020016002820180548060200260200160405190810160405280929190818152602001828054801561090257602002820191906000526020600020905b8154815260200190600101908083116108ee575b5050505050815260200160038201805480602002602001604051908101604052809291908181526020016000905b828210156109dc57838290600052602060002001805461094f90611ac0565b80601f016020809104026020016040519081016040528092919081815260200182805461097b90611ac0565b80156109c85780601f1061099d576101008083540402835291602001916109c8565b820191906000526020600020905b8154815290600101906020018083116109ab57829003601f168201915b505050505081526020019060010190610930565b50505050815260200160048201805480602002602001604051908101604052809291908181526020016000905b82821015610ab5578382906000526020600020018054610a2890611ac0565b80601f0160208091040260200160405190810160405280929190818152602001828054610a5490611ac0565b8015610aa15780601f10610a7657610100808354040283529160200191610aa1565b820191906000526020600020905b815481529060010190602001808311610a8457829003601f168201915b505050505081526020019060010190610a09565b5050505081525050815260200190600101906107f4565b50505050905090565b3373ffffffffffffffffffffffffffffffffffffffff166001600086815260200190815260200160002060009054906101000a900473ffffffffffffffffffffffffffffffffffffffff1673ffffffffffffffffffffffffffffffffffffffff1614610b76576040517f08c379a0000000000000000000000000000000000000000000000000000000008152600401610b6d90611f49565b60405180910390fd5b60036000858152602001908152602001600020805490508310610bce576040517f08c379a0000000000000000000000000000000000000000000000000000000008152600401610bc590611fdb565b60405180910390fd5b604051806040016040528083815260200182815250600360008681526020019081526020016000208481548110610c0857610c07611ea8565b5b90600052602060002090600202016000820151816000019081610c2b9190611c9d565b506020820151816001019081610c419190611c9d565b5090505050505050565b606060008211610c90576040517f08c379a0000000000000000000000000000000000000000000000000000000008152600401610c87906119df565b60405180910390fd5b600080549050821115610cd8576040517f08c379a0000000000000000000000000000000000000000000000000000000008152600401610ccf90611e54565b60405180910390fd5b6000600183610ce79190611e74565b81548110610cf857610cf7611ea8565b5b9060005260206000209060050201600401805480602002602001604051908101604052809291908181526020016000905b82821015610dd5578382906000526020600020018054610d4890611ac0565b80601f0160208091040260200160405190810160405280929190818152602001828054610d7490611ac0565b8015610dc15780601f10610d9657610100808354040283529160200191610dc1565b820191906000526020600020905b815481529060010190602001808311610da457829003601f168201915b505050505081526020019060010190610d29565b505050509050919050565b6000806000600190506000600290508082610dfb9190611ffb565b93508082610e09919061203d565b925050509091565b828054828255906000526020600020908101928215610e4d579160200282015b82811115610e4c578251825591602001919060010190610e31565b5b509050610e5a9190610eb7565b5090565b828054828255906000526020600020908101928215610ea6579160200282015b82811115610ea5578251829081610e959190611c9d565b5091602001919060010190610e7e565b5b509050610eb39190610ed4565b5090565b5b80821115610ed0576000816000905550600101610eb8565b5090565b5b80821115610ef45760008181610eeb9190610ef8565b50600101610ed5565b5090565b508054610f0490611ac0565b6000825580601f10610f165750610f35565b601f016020900490600052602060002090810190610f349190610eb7565b5b50565b6000604051905090565b600080fd5b600080fd5b600080fd5b600080fd5b6000601f19601f8301169050919050565b7f4e487b7100000000000000000000000000000000000000000000000000000000600052604160045260246000fd5b610f9f82610f56565b810181811067ffffffffffffffff82111715610fbe57610fbd610f67565b5b80604052505050565b6000610fd1610f38565b9050610fdd8282610f96565b919050565b600067ffffffffffffffff821115610ffd57610ffc610f67565b5b61100682610f56565b9050602081019050919050565b82818337600083830152505050565b600061103561103084610fe2565b610fc7565b90508281526020810184848401111561105157611050610f51565b5b61105c848285611013565b509392505050565b600082601f83011261107957611078610f4c565b5b8135611089848260208601611022565b91505092915050565b6000819050919050565b6110a581611092565b81146110b057600080fd5b50565b6000813590506110c28161109c565b92915050565b600067ffffffffffffffff8211156110e3576110e2610f67565b5b602082029050602081019050919050565b600080fd5b600061110c611107846110c8565b610fc7565b9050808382526020820190506020840283018581111561112f5761112e6110f4565b5b835b81811015611158578061114488826110b3565b845260208401935050602081019050611131565b5050509392505050565b600082601f83011261117757611176610f4c565b5b81356111878482602086016110f9565b91505092915050565b600067ffffffffffffffff8211156111ab576111aa610f67565b5b602082029050602081019050919050565b60006111cf6111ca84611190565b610fc7565b905080838252602082019050602084028301858111156111f2576111f16110f4565b5b835b8181101561123957803567ffffffffffffffff81111561121757611216610f4c565b5b8086016112248982611064565b855260208501945050506020810190506111f4565b5050509392505050565b600082601f83011261125857611257610f4c565b5b81356112688482602086016111bc565b91505092915050565b600080600080600060a0868803121561128d5761128c610f42565b5b600086013567ffffffffffffffff8111156112ab576112aa610f47565b5b6112b788828901611064565b95505060206112c8888289016110b3565b945050604086013567ffffffffffffffff8111156112e9576112e8610f47565b5b6112f588828901611162565b935050606086013567ffffffffffffffff81111561131657611315610f47565b5b61132288828901611243565b925050608086013567ffffffffffffffff81111561134357611342610f47565b5b61134f88828901611243565b9150509295509295909350565b60006020828403121561137257611371610f42565b5b6000611380848285016110b3565b91505092915050565b600081519050919050565b600082825260208201905092915050565b6000819050602082019050919050565b600081519050919050565b600082825260208201905092915050565b60005b838110156113ef5780820151818401526020810190506113d4565b60008484015250505050565b6000611406826113b5565b61141081856113c0565b93506114208185602086016113d1565b61142981610f56565b840191505092915050565b600061144083836113fb565b905092915050565b6000602082019050919050565b600061146082611389565b61146a8185611394565b93508360208202850161147c856113a5565b8060005b858110156114b857848403895281516114998582611434565b94506114a483611448565b925060208a01995050600181019050611480565b50829750879550505050505092915050565b600060208201905081810360008301526114e48184611455565b905092915050565b600073ffffffffffffffffffffffffffffffffffffffff82169050919050565b6000611517826114ec565b9050919050565b6115278161150c565b82525050565b6000602082019050611542600083018461151e565b92915050565b6000806040838503121561155f5761155e610f42565b5b600061156d858286016110b3565b925050602061157e858286016110b3565b9150509250929050565b600082825260208201905092915050565b60006115a4826113b5565b6115ae8185611588565b93506115be8185602086016113d1565b6115c781610f56565b840191505092915050565b600060408201905081810360008301526115ec8185611599565b905081810360208301526116008184611599565b90509392505050565b600081519050919050565b600082825260208201905092915050565b6000819050602082019050919050565b61163e81611092565b82525050565b600081519050919050565b600082825260208201905092915050565b6000819050602082019050919050565b600061167c8383611635565b60208301905092915050565b6000602082019050919050565b60006116a082611644565b6116aa818561164f565b93506116b583611660565b8060005b838110156116e65781516116cd8882611670565b97506116d883611688565b9250506001810190506116b9565b5085935050505092915050565b600082825260208201905092915050565b600061170f82611389565b61171981856116f3565b93508360208202850161172b856113a5565b8060005b8581101561176757848403895281516117488582611434565b945061175383611448565b925060208a0199505060018101905061172f565b50829750879550505050505092915050565b600060a0830160008301516117916000860182611635565b50602083015184820360208601526117a982826113fb565b915050604083015184820360408601526117c38282611695565b915050606083015184820360608601526117dd8282611704565b915050608083015184820360808601526117f78282611704565b9150508091505092915050565b60006118108383611779565b905092915050565b6000602082019050919050565b600061183082611609565b61183a8185611614565b93508360208202850161184c85611625565b8060005b8581101561188857848403895281516118698582611804565b945061187483611818565b925060208a01995050600181019050611850565b50829750879550505050505092915050565b600060208201905081810360008301526118b48184611825565b905092915050565b600080600080608085870312156118d6576118d5610f42565b5b60006118e4878288016110b3565b94505060206118f5878288016110b3565b935050604085013567ffffffffffffffff81111561191657611915610f47565b5b61192287828801611064565b925050606085013567ffffffffffffffff81111561194357611942610f47565b5b61194f87828801611064565b91505092959194509250565b61196481611092565b82525050565b600060408201905061197f600083018561195b565b61198c602083018461195b565b9392505050565b7f456c204944206465626520736572206d61796f72206120302e00000000000000600082015250565b60006119c9601983611588565b91506119d482611993565b602082019050919050565b600060208201905081810360008301526119f8816119bc565b9050919050565b7f456c206e6f6d62726520646562652074656e657220616c206d656e6f7320332060008201527f636172616374657265732e000000000000000000000000000000000000000000602082015250565b6000611a5b602b83611588565b9150611a66826119ff565b604082019050919050565b60006020820190508181036000830152611a8a81611a4e565b9050919050565b7f4e487b7100000000000000000000000000000000000000000000000000000000600052602260045260246000fd5b60006002820490506001821680611ad857607f821691505b602082108103611aeb57611aea611a91565b5b50919050565b60008190508160005260206000209050919050565b60006020601f8301049050919050565b600082821b905092915050565b600060088302611b537fffffffffffffffffffffffffffffffffffffffffffffffffffffffffffffffff82611b16565b611b5d8683611b16565b95508019841693508086168417925050509392505050565b6000819050919050565b6000611b9a611b95611b9084611092565b611b75565b611092565b9050919050565b6000819050919050565b611bb483611b7f565b611bc8611bc082611ba1565b848454611b23565b825550505050565b600090565b611bdd611bd0565b611be8818484611bab565b505050565b5b81811015611c0c57611c01600082611bd5565b600181019050611bee565b5050565b601f821115611c5157611c2281611af1565b611c2b84611b06565b81016020851015611c3a578190505b611c4e611c4685611b06565b830182611bed565b50505b505050565b600082821c905092915050565b6000611c7460001984600802611c56565b1980831691505092915050565b6000611c8d8383611c63565b9150826002028217905092915050565b611ca6826113b5565b67ffffffffffffffff811115611cbf57611cbe610f67565b5b611cc98254611ac0565b611cd4828285611c10565b600060209050601f831160018114611d075760008415611cf5578287015190505b611cff8582611c81565b865550611d67565b601f198416611d1586611af1565b60005b82811015611d3d57848901518255600182019150602085019450602081019050611d18565b86831015611d5a5784890151611d56601f891682611c63565b8355505b6001600288020188555050505b505050505050565b7f4e487b7100000000000000000000000000000000000000000000000000000000600052601160045260246000fd5b6000611da982611092565b91507fffffffffffffffffffffffffffffffffffffffffffffffffffffffffffffffff8203611ddb57611dda611d6f565b5b600182019050919050565b60006020820190508181036000830152611e008184611599565b905092915050565b7f456c20506f6b656d6f6e206e6f206578697374652e0000000000000000000000600082015250565b6000611e3e601583611588565b9150611e4982611e08565b602082019050919050565b60006020820190508181036000830152611e6d81611e31565b9050919050565b6000611e7f82611092565b9150611e8a83611092565b9250828203905081811115611ea257611ea1611d6f565b5b92915050565b7f4e487b7100000000000000000000000000000000000000000000000000000000600052603260045260246000fd5b7f536f6c6f20656c206475656e6f2064656c20506f6b656d6f6e2070756564652060008201527f6167726567617220686162696c6964616465732e000000000000000000000000602082015250565b6000611f33603483611588565b9150611f3e82611ed7565b604082019050919050565b60006020820190508181036000830152611f6281611f26565b9050919050565b7f456c20696e6469636520646520686162696c6964616420657320696e76616c6960008201527f646f2e0000000000000000000000000000000000000000000000000000000000602082015250565b6000611fc5602383611588565b9150611fd082611f69565b604082019050919050565b60006020820190508181036000830152611ff481611fb8565b9050919050565b600061200682611092565b915061201183611092565b925082820261201f81611092565b9150828204841483151761203657612035611d6f565b5b5092915050565b600061204882611092565b915061205383611092565b925082820190508082111561206b5761206a611d6f565b5b9291505056fea26469706673582212206a32b2fdd88ae932abeddee0f13b7f66e197645262097820ea369a4428490f7564736f6c63430008120033",
  "linkReferences": {},
  "deployedLinkReferences": {}
}