{
  "_format": "hh-sol-artifact-1",
  "contractName": "PokemonFactory",
  "sourceName": "contracts/PokemonFactory.sol",
  "abi": [
    {
      "anonymous": false,
      "inputs": [
        {
          "indexed": true,
          "internalType": "address",
          "name": "user",
          "type": "address"
        },
        {
          "indexed": false,
          "internalType": "string",
          "name": "message",
          "type": "string"
        }
      ],
      "name": "eventNewPokemon",
      "type": "event"
    },
    {
      "inputs": [
        {
          "internalType": "string",
          "name": "_name",
          "type": "string"
        },
        {
          "internalType": "uint256",
          "name": "_id",
          "type": "uint256"
        },
        {
          "components": [
            {
              "internalType": "string",
              "name": "name",
              "type": "string"
            },
            {
              "internalType": "string",
              "name": "description",
              "type": "string"
            }
          ],
          "internalType": "struct PokemonFactory.Ability[]",
          "name": "_abilities",
          "type": "tuple[]"
        },
        {
          "internalType": "enum PokemonFactory.Type[]",
          "name": "_types",
          "type": "uint8[]"
        },
        {
          "internalType": "enum PokemonFactory.Type[]",
          "name": "_weakness",
          "type": "uint8[]"
        }
      ],
      "name": "createPokemon",
      "outputs": [],
      "stateMutability": "nonpayable",
      "type": "function"
    },
    {
      "inputs": [],
      "name": "getAllPokemons",
      "outputs": [
        {
          "components": [
            {
              "internalType": "uint256",
              "name": "id",
              "type": "uint256"
            },
            {
              "internalType": "string",
              "name": "name",
              "type": "string"
            },
            {
              "components": [
                {
                  "internalType": "string",
                  "name": "name",
                  "type": "string"
                },
                {
                  "internalType": "string",
                  "name": "description",
                  "type": "string"
                }
              ],
              "internalType": "struct PokemonFactory.Ability[]",
              "name": "abilities",
              "type": "tuple[]"
            },
            {
              "internalType": "enum PokemonFactory.Type[]",
              "name": "types",
              "type": "uint8[]"
            },
            {
              "internalType": "enum PokemonFactory.Type[]",
              "name": "weakness",
              "type": "uint8[]"
            }
          ],
          "internalType": "struct PokemonFactory.Pokemon[]",
          "name": "",
          "type": "tuple[]"
        }
      ],
      "stateMutability": "view",
      "type": "function"
    },
    {
      "inputs": [
        {
          "internalType": "uint256",
          "name": "",
          "type": "uint256"
        }
      ],
      "name": "pokemonToOwner",
      "outputs": [
        {
          "internalType": "address",
          "name": "",
          "type": "address"
        }
      ],
      "stateMutability": "view",
      "type": "function"
    }
  ],
  "bytecode": "0x608060405234801561001057600080fd5b506119b4806100206000396000f3fe608060405234801561001057600080fd5b50600436106100415760003560e01c80632f7467b3146100465780635e91679014610076578063982d564a14610094575b600080fd5b610060600480360381019061005b919061096e565b6100b0565b60405161006d91906109dc565b60405180910390f35b61007e6100e3565b60405161008b9190610e0f565b60405180910390f35b6100ae60048036038101906100a991906111c6565b61047b565b005b60026020528060005260406000206000915054906101000a900473ffffffffffffffffffffffffffffffffffffffff1681565b60606000805480602002602001604051908101604052809291908181526020016000905b8282101561047257838290600052602060002090600502016040518060a001604052908160008201548152602001600182018054610144906112e0565b80601f0160208091040260200160405190810160405280929190818152602001828054610170906112e0565b80156101bd5780601f10610192576101008083540402835291602001916101bd565b820191906000526020600020905b8154815290600101906020018083116101a057829003601f168201915b5050505050815260200160028201805480602002602001604051908101604052809291908181526020016000905b82821015610341578382906000526020600020906002020160405180604001604052908160008201805461021e906112e0565b80601f016020809104026020016040519081016040528092919081815260200182805461024a906112e0565b80156102975780601f1061026c57610100808354040283529160200191610297565b820191906000526020600020905b81548152906001019060200180831161027a57829003601f168201915b505050505081526020016001820180546102b0906112e0565b80601f01602080910402602001604051908101604052809291908181526020018280546102dc906112e0565b80156103295780601f106102fe57610100808354040283529160200191610329565b820191906000526020600020905b81548152906001019060200180831161030c57829003601f168201915b505050505081525050815260200190600101906101eb565b505050508152602001600382018054806020026020016040519081016040528092919081815260200182805480156103cd57602002820191906000526020600020906000905b82829054906101000a900460ff1660118111156103a7576103a6610bf4565b5b815260200190600101906020826000010492830192600103820291508084116103875790505b505050505081526020016004820180548060200260200160405190810160405280929190818152602001828054801561045a57602002820191906000526020600020906000905b82829054906101000a900460ff16601181111561043457610433610bf4565b5b815260200190600101906020826000010492830192600103820291508084116104145790505b50505050508152505081526020019060010190610107565b50505050905090565b600084116104be576040517f08c379a00000000000000000000000000000000000000000000000000000000081526004016104b590611394565b60405180910390fd5b60008590506000815103610507576040517f08c379a00000000000000000000000000000000000000000000000000000000081526004016104fe90611426565b60405180910390fd5b600281511161054b576040517f08c379a0000000000000000000000000000000000000000000000000000000008152600401610542906114b8565b60405180910390fd5b6000600181600181540180825580915050039060005260206000209050506000600160008054905061057d9190611507565b905086600082815481106105945761059361153b565b5b906000526020600020906005020160010190816105b19190611716565b5085600082815481106105c7576105c661153b565b5b90600052602060002090600502016000018190555060005b85518160ff16101561069857600082815481106105ff576105fe61153b565b5b9060005260206000209060050201600201868260ff16815181106106265761062561153b565b5b60200260200101519080600181540180825580915050600190039060005260206000209060020201600090919091909150600082015181600001908161066c9190611716565b5060208201518160010190816106829190611716565b5050508080610690906117f5565b9150506105df565b5060005b84518160ff16101561074f57600082815481106106bc576106bb61153b565b5b9060005260206000209060050201600301858260ff16815181106106e3576106e261153b565b5b602002602001015190806001815401808255809150506001900390600052602060002090602091828204019190069091909190916101000a81548160ff0219169083601181111561073757610736610bf4565b5b02179055508080610747906117f5565b91505061069c565b5060005b83518160ff16101561080657600082815481106107735761077261153b565b5b9060005260206000209060050201600401848260ff168151811061079a5761079961153b565b5b602002602001015190806001815401808255809150506001900390600052602060002090602091828204019190069091909190916101000a81548160ff021916908360118111156107ee576107ed610bf4565b5b021790555080806107fe906117f5565b915050610753565b50336002600088815260200190815260200160002060006101000a81548173ffffffffffffffffffffffffffffffffffffffff021916908373ffffffffffffffffffffffffffffffffffffffff160217905550600360003373ffffffffffffffffffffffffffffffffffffffff1673ffffffffffffffffffffffffffffffffffffffff16815260200190815260200160002060008154809291906108a99061181e565b91905055503373ffffffffffffffffffffffffffffffffffffffff167fe5a4c13681fc1ec969a5d1e2a8f13730bca81a4041367c6493477d52103b1ce2886040516020016108f791906118ee565b604051602081830303815290604052604051610913919061195c565b60405180910390a250505050505050565b6000604051905090565b600080fd5b600080fd5b6000819050919050565b61094b81610938565b811461095657600080fd5b50565b60008135905061096881610942565b92915050565b6000602082840312156109845761098361092e565b5b600061099284828501610959565b91505092915050565b600073ffffffffffffffffffffffffffffffffffffffff82169050919050565b60006109c68261099b565b9050919050565b6109d6816109bb565b82525050565b60006020820190506109f160008301846109cd565b92915050565b600081519050919050565b600082825260208201905092915050565b6000819050602082019050919050565b610a2c81610938565b82525050565b600081519050919050565b600082825260208201905092915050565b60005b83811015610a6c578082015181840152602081019050610a51565b60008484015250505050565b6000601f19601f8301169050919050565b6000610a9482610a32565b610a9e8185610a3d565b9350610aae818560208601610a4e565b610ab781610a78565b840191505092915050565b600081519050919050565b600082825260208201905092915050565b6000819050602082019050919050565b60006040830160008301518482036000860152610b0b8282610a89565b91505060208301518482036020860152610b258282610a89565b9150508091505092915050565b6000610b3e8383610aee565b905092915050565b6000602082019050919050565b6000610b5e82610ac2565b610b688185610acd565b935083602082028501610b7a85610ade565b8060005b85811015610bb65784840389528151610b978582610b32565b9450610ba283610b46565b925060208a01995050600181019050610b7e565b50829750879550505050505092915050565b600081519050919050565b600082825260208201905092915050565b6000819050602082019050919050565b7f4e487b7100000000000000000000000000000000000000000000000000000000600052602160045260246000fd5b60128110610c3457610c33610bf4565b5b50565b6000819050610c4582610c23565b919050565b6000610c5582610c37565b9050919050565b610c6581610c4a565b82525050565b6000610c778383610c5c565b60208301905092915050565b6000602082019050919050565b6000610c9b82610bc8565b610ca58185610bd3565b9350610cb083610be4565b8060005b83811015610ce1578151610cc88882610c6b565b9750610cd383610c83565b925050600181019050610cb4565b5085935050505092915050565b600060a083016000830151610d066000860182610a23565b5060208301518482036020860152610d1e8282610a89565b91505060408301518482036040860152610d388282610b53565b91505060608301518482036060860152610d528282610c90565b91505060808301518482036080860152610d6c8282610c90565b9150508091505092915050565b6000610d858383610cee565b905092915050565b6000602082019050919050565b6000610da5826109f7565b610daf8185610a02565b935083602082028501610dc185610a13565b8060005b85811015610dfd5784840389528151610dde8582610d79565b9450610de983610d8d565b925060208a01995050600181019050610dc5565b50829750879550505050505092915050565b60006020820190508181036000830152610e298184610d9a565b905092915050565b600080fd5b600080fd5b7f4e487b7100000000000000000000000000000000000000000000000000000000600052604160045260246000fd5b610e7382610a78565b810181811067ffffffffffffffff82111715610e9257610e91610e3b565b5b80604052505050565b6000610ea5610924565b9050610eb18282610e6a565b919050565b600067ffffffffffffffff821115610ed157610ed0610e3b565b5b610eda82610a78565b9050602081019050919050565b82818337600083830152505050565b6000610f09610f0484610eb6565b610e9b565b905082815260208101848484011115610f2557610f24610e36565b5b610f30848285610ee7565b509392505050565b600082601f830112610f4d57610f4c610e31565b5b8135610f5d848260208601610ef6565b91505092915050565b600067ffffffffffffffff821115610f8157610f80610e3b565b5b602082029050602081019050919050565b600080fd5b600080fd5b600080fd5b600060408284031215610fb757610fb6610f97565b5b610fc16040610e9b565b9050600082013567ffffffffffffffff811115610fe157610fe0610f9c565b5b610fed84828501610f38565b600083015250602082013567ffffffffffffffff81111561101157611010610f9c565b5b61101d84828501610f38565b60208301525092915050565b600061103c61103784610f66565b610e9b565b9050808382526020820190506020840283018581111561105f5761105e610f92565b5b835b818110156110a657803567ffffffffffffffff81111561108457611083610e31565b5b8086016110918982610fa1565b85526020850194505050602081019050611061565b5050509392505050565b600082601f8301126110c5576110c4610e31565b5b81356110d5848260208601611029565b91505092915050565b600067ffffffffffffffff8211156110f9576110f8610e3b565b5b602082029050602081019050919050565b6012811061111757600080fd5b50565b6000813590506111298161110a565b92915050565b600061114261113d846110de565b610e9b565b9050808382526020820190506020840283018581111561116557611164610f92565b5b835b8181101561118e578061117a888261111a565b845260208401935050602081019050611167565b5050509392505050565b600082601f8301126111ad576111ac610e31565b5b81356111bd84826020860161112f565b91505092915050565b600080600080600060a086880312156111e2576111e161092e565b5b600086013567ffffffffffffffff811115611200576111ff610933565b5b61120c88828901610f38565b955050602061121d88828901610959565b945050604086013567ffffffffffffffff81111561123e5761123d610933565b5b61124a888289016110b0565b935050606086013567ffffffffffffffff81111561126b5761126a610933565b5b61127788828901611198565b925050608086013567ffffffffffffffff81111561129857611297610933565b5b6112a488828901611198565b9150509295509295909350565b7f4e487b7100000000000000000000000000000000000000000000000000000000600052602260045260246000fd5b600060028204905060018216806112f857607f821691505b60208210810361130b5761130a6112b1565b5b50919050565b600082825260208201905092915050565b7f4465626520696e67726573617220756e2069642071756520736561206d61796f60008201527f7220612030000000000000000000000000000000000000000000000000000000602082015250565b600061137e602583611311565b915061138982611322565b604082019050919050565b600060208201905081810360008301526113ad81611371565b9050919050565b7f456c206e6f6d627265206e6f20707565646520657374617220656e20626c616e60008201527f636f2e0000000000000000000000000000000000000000000000000000000000602082015250565b6000611410602383611311565b915061141b826113b4565b604082019050919050565b6000602082019050818103600083015261143f81611403565b9050919050565b7f456c206e6f6d62726520646562652074656e6572206d696e696d6f206d61732060008201527f646520646f7320636172616374657265732e0000000000000000000000000000602082015250565b60006114a2603283611311565b91506114ad82611446565b604082019050919050565b600060208201905081810360008301526114d181611495565b9050919050565b7f4e487b7100000000000000000000000000000000000000000000000000000000600052601160045260246000fd5b600061151282610938565b915061151d83610938565b9250828203905081811115611535576115346114d8565b5b92915050565b7f4e487b7100000000000000000000000000000000000000000000000000000000600052603260045260246000fd5b60008190508160005260206000209050919050565b60006020601f8301049050919050565b600082821b905092915050565b6000600883026115cc7fffffffffffffffffffffffffffffffffffffffffffffffffffffffffffffffff8261158f565b6115d6868361158f565b95508019841693508086168417925050509392505050565b6000819050919050565b600061161361160e61160984610938565b6115ee565b610938565b9050919050565b6000819050919050565b61162d836115f8565b6116416116398261161a565b84845461159c565b825550505050565b600090565b611656611649565b611661818484611624565b505050565b5b818110156116855761167a60008261164e565b600181019050611667565b5050565b601f8211156116ca5761169b8161156a565b6116a48461157f565b810160208510156116b3578190505b6116c76116bf8561157f565b830182611666565b50505b505050565b600082821c905092915050565b60006116ed600019846008026116cf565b1980831691505092915050565b600061170683836116dc565b9150826002028217905092915050565b61171f82610a32565b67ffffffffffffffff81111561173857611737610e3b565b5b61174282546112e0565b61174d828285611689565b600060209050601f831160018114611780576000841561176e578287015190505b61177885826116fa565b8655506117e0565b601f19841661178e8661156a565b60005b828110156117b657848901518255600182019150602085019450602081019050611791565b868310156117d357848901516117cf601f8916826116dc565b8355505b6001600288020188555050505b505050505050565b600060ff82169050919050565b6000611800826117e8565b915060ff8203611813576118126114d8565b5b600182019050919050565b600061182982610938565b91507fffffffffffffffffffffffffffffffffffffffffffffffffffffffffffffffff820361185b5761185a6114d8565b5b600182019050919050565b7f54686520706f6b656d6f6e200000000000000000000000000000000000000000815250565b600081905092915050565b60006118a282610a32565b6118ac818561188c565b93506118bc818560208601610a4e565b80840191505092915050565b7f68617665206265656e2063726561746564000000000000000000000000000000815250565b60006118f982611866565b600c820191506119098284611897565b9150611914826118c8565b60118201915081905092915050565b600061192e82610a32565b6119388185611311565b9350611948818560208601610a4e565b61195181610a78565b840191505092915050565b600060208201905081810360008301526119768184611923565b90509291505056fea2646970667358221220d8f3774d0fa5b44c01f0a92e41de96c7e15176c7e004e3b7ff8226ad39ba717964736f6c63430008120033",
  "linkReferences": {},
  "deployedLinkReferences": {}
}