{
  "_format": "hh-sol-artifact-1",
  "contractName": "PokemonFactory",
  "sourceName": "contracts/PokemonFactory.sol",
  "abi": [
    {
      "anonymous": false,
      "inputs": [
        {
          "components": [
            {
              "internalType": "uint256",
              "name": "id",
              "type": "uint256"
            },
            {
              "internalType": "string",
              "name": "name",
              "type": "string"
            }
          ],
          "indexed": false,
          "internalType": "struct PokemonFactory.Pokemon",
          "name": "",
          "type": "tuple"
        }
      ],
      "name": "eventNewPokemon",
      "type": "event"
    },
    {
      "inputs": [
        {
          "internalType": "uint256",
          "name": "_pokemonId",
          "type": "uint256"
        },
        {
          "internalType": "string",
          "name": "_name",
          "type": "string"
        },
        {
          "internalType": "string",
          "name": "_description",
          "type": "string"
        }
      ],
      "name": "addHability",
      "outputs": [],
      "stateMutability": "nonpayable",
      "type": "function"
    },
    {
      "inputs": [
        {
          "internalType": "uint256",
          "name": "_pokemonId",
          "type": "uint256"
        },
        {
          "internalType": "enum PokemonFactory.Type",
          "name": "_type",
          "type": "uint8"
        }
      ],
      "name": "addType",
      "outputs": [],
      "stateMutability": "nonpayable",
      "type": "function"
    },
    {
      "inputs": [
        {
          "internalType": "uint256",
          "name": "_pokemonId",
          "type": "uint256"
        },
        {
          "internalType": "enum PokemonFactory.Type",
          "name": "_type",
          "type": "uint8"
        }
      ],
      "name": "addWeakness",
      "outputs": [],
      "stateMutability": "nonpayable",
      "type": "function"
    },
    {
      "inputs": [
        {
          "internalType": "string",
          "name": "_name",
          "type": "string"
        },
        {
          "internalType": "uint256",
          "name": "_id",
          "type": "uint256"
        }
      ],
      "name": "createPokemon",
      "outputs": [],
      "stateMutability": "nonpayable",
      "type": "function"
    },
    {
      "inputs": [],
      "name": "getAllPokemons",
      "outputs": [
        {
          "components": [
            {
              "internalType": "uint256",
              "name": "id",
              "type": "uint256"
            },
            {
              "internalType": "string",
              "name": "name",
              "type": "string"
            }
          ],
          "internalType": "struct PokemonFactory.Pokemon[]",
          "name": "",
          "type": "tuple[]"
        }
      ],
      "stateMutability": "view",
      "type": "function"
    },
    {
      "inputs": [
        {
          "internalType": "uint256",
          "name": "",
          "type": "uint256"
        },
        {
          "internalType": "uint256",
          "name": "",
          "type": "uint256"
        }
      ],
      "name": "habilities",
      "outputs": [
        {
          "internalType": "string",
          "name": "name",
          "type": "string"
        },
        {
          "internalType": "string",
          "name": "description",
          "type": "string"
        }
      ],
      "stateMutability": "view",
      "type": "function"
    },
    {
      "inputs": [
        {
          "internalType": "uint256",
          "name": "",
          "type": "uint256"
        }
      ],
      "name": "pokemonToOwner",
      "outputs": [
        {
          "internalType": "address",
          "name": "",
          "type": "address"
        }
      ],
      "stateMutability": "view",
      "type": "function"
    },
    {
      "inputs": [
        {
          "internalType": "uint256",
          "name": "",
          "type": "uint256"
        },
        {
          "internalType": "uint256",
          "name": "",
          "type": "uint256"
        }
      ],
      "name": "types",
      "outputs": [
        {
          "internalType": "enum PokemonFactory.Type",
          "name": "",
          "type": "uint8"
        }
      ],
      "stateMutability": "view",
      "type": "function"
    },
    {
      "inputs": [
        {
          "internalType": "uint256",
          "name": "",
          "type": "uint256"
        },
        {
          "internalType": "uint256",
          "name": "",
          "type": "uint256"
        }
      ],
      "name": "weaknesses",
      "outputs": [
        {
          "internalType": "enum PokemonFactory.Type",
          "name": "",
          "type": "uint8"
        }
      ],
      "stateMutability": "view",
      "type": "function"
    }
  ],
  "bytecode": "0x608060405234801561001057600080fd5b50611270806100206000396000f3fe608060405234801561001057600080fd5b50600436106100935760003560e01c80634eed4586116100665780634eed4586146101315780635e9167901461016157806376d8431d1461017f578063d6816dcf1461019b578063f548c4c0146101b757610093565b80630a3bd50b146100985780632f7467b3146100b4578063329dac70146100e457806336eeb9d414610115575b600080fd5b6100b260048036038101906100ad9190610902565b6101e7565b005b6100ce60048036038101906100c9919061095e565b610317565b6040516100db91906109cc565b60405180910390f35b6100fe60048036038101906100f991906109e7565b61034a565b60405161010c929190610aa6565b60405180910390f35b61012f600480360381019061012a9190610add565b61049b565b005b61014b600480360381019061014691906109e7565b61051f565b6040516101589190610bdf565b60405180910390f35b610169610562565b6040516101769190610d52565b60405180910390f35b61019960048036038101906101949190610d99565b61065d565b005b6101b560048036038101906101b09190610d99565b6106c6565b005b6101d160048036038101906101cc91906109e7565b61072f565b6040516101de9190610bdf565b60405180910390f35b6000811161022a576040517f08c379a000000000000000000000000000000000000000000000000000000000815260040161022190610e4b565b60405180910390fd5b60008290506002815111610273576040517f08c379a000000000000000000000000000000000000000000000000000000000815260040161026a90610edd565b60405180910390fd5b6000604051806040016040528084815260200185815250905060008190806001815401808255809150506001900390600052602060002090600202016000909190919091506000820151816000015560208201518160010190816102d79190611109565b5050507f6527206c6a5a1fb0a39122dc18d677d712be011bed59d43146a4a80eb1e4e680816040516103099190611218565b60405180910390a150505050565b60016020528060005260406000206000915054906101000a900473ffffffffffffffffffffffffffffffffffffffff1681565b6003602052816000526040600020818154811061036657600080fd5b90600052602060002090600202016000915091505080600001805461038a90610f2c565b80601f01602080910402602001604051908101604052809291908181526020018280546103b690610f2c565b80156104035780601f106103d857610100808354040283529160200191610403565b820191906000526020600020905b8154815290600101906020018083116103e657829003601f168201915b50505050509080600101805461041890610f2c565b80601f016020809104026020016040519081016040528092919081815260200182805461044490610f2c565b80156104915780601f1061046657610100808354040283529160200191610491565b820191906000526020600020905b81548152906001019060200180831161047457829003601f168201915b5050505050905082565b60036000848152602001908152602001600020604051806040016040528084815260200183815250908060018154018082558091505060019003906000526020600020906002020160009091909190915060008201518160000190816105019190611109565b5060208201518160010190816105179190611109565b505050505050565b6004602052816000526040600020818154811061053b57600080fd5b9060005260206000209060209182820401919006915091509054906101000a900460ff1681565b60606000805480602002602001604051908101604052809291908181526020016000905b828210156106545783829060005260206000209060020201604051806040016040529081600082015481526020016001820180546105c390610f2c565b80601f01602080910402602001604051908101604052809291908181526020018280546105ef90610f2c565b801561063c5780601f106106115761010080835404028352916020019161063c565b820191906000526020600020905b81548152906001019060200180831161061f57829003601f168201915b50505050508152505081526020019060010190610586565b50505050905090565b600560008381526020019081526020016000208190806001815401808255809150506001900390600052602060002090602091828204019190069091909190916101000a81548160ff021916908360118111156106bd576106bc610b68565b5b02179055505050565b600460008381526020019081526020016000208190806001815401808255809150506001900390600052602060002090602091828204019190069091909190916101000a81548160ff0219169083601181111561072657610725610b68565b5b02179055505050565b6005602052816000526040600020818154811061074b57600080fd5b9060005260206000209060209182820401919006915091509054906101000a900460ff1681565b6000604051905090565b600080fd5b600080fd5b600080fd5b600080fd5b6000601f19601f8301169050919050565b7f4e487b7100000000000000000000000000000000000000000000000000000000600052604160045260246000fd5b6107d982610790565b810181811067ffffffffffffffff821117156107f8576107f76107a1565b5b80604052505050565b600061080b610772565b905061081782826107d0565b919050565b600067ffffffffffffffff821115610837576108366107a1565b5b61084082610790565b9050602081019050919050565b82818337600083830152505050565b600061086f61086a8461081c565b610801565b90508281526020810184848401111561088b5761088a61078b565b5b61089684828561084d565b509392505050565b600082601f8301126108b3576108b2610786565b5b81356108c384826020860161085c565b91505092915050565b6000819050919050565b6108df816108cc565b81146108ea57600080fd5b50565b6000813590506108fc816108d6565b92915050565b600080604083850312156109195761091861077c565b5b600083013567ffffffffffffffff81111561093757610936610781565b5b6109438582860161089e565b9250506020610954858286016108ed565b9150509250929050565b6000602082840312156109745761097361077c565b5b6000610982848285016108ed565b91505092915050565b600073ffffffffffffffffffffffffffffffffffffffff82169050919050565b60006109b68261098b565b9050919050565b6109c6816109ab565b82525050565b60006020820190506109e160008301846109bd565b92915050565b600080604083850312156109fe576109fd61077c565b5b6000610a0c858286016108ed565b9250506020610a1d858286016108ed565b9150509250929050565b600081519050919050565b600082825260208201905092915050565b60005b83811015610a61578082015181840152602081019050610a46565b60008484015250505050565b6000610a7882610a27565b610a828185610a32565b9350610a92818560208601610a43565b610a9b81610790565b840191505092915050565b60006040820190508181036000830152610ac08185610a6d565b90508181036020830152610ad48184610a6d565b90509392505050565b600080600060608486031215610af657610af561077c565b5b6000610b04868287016108ed565b935050602084013567ffffffffffffffff811115610b2557610b24610781565b5b610b318682870161089e565b925050604084013567ffffffffffffffff811115610b5257610b51610781565b5b610b5e8682870161089e565b9150509250925092565b7f4e487b7100000000000000000000000000000000000000000000000000000000600052602160045260246000fd5b60128110610ba857610ba7610b68565b5b50565b6000819050610bb982610b97565b919050565b6000610bc982610bab565b9050919050565b610bd981610bbe565b82525050565b6000602082019050610bf46000830184610bd0565b92915050565b600081519050919050565b600082825260208201905092915050565b6000819050602082019050919050565b610c2f816108cc565b82525050565b600082825260208201905092915050565b6000610c5182610a27565b610c5b8185610c35565b9350610c6b818560208601610a43565b610c7481610790565b840191505092915050565b6000604083016000830151610c976000860182610c26565b5060208301518482036020860152610caf8282610c46565b9150508091505092915050565b6000610cc88383610c7f565b905092915050565b6000602082019050919050565b6000610ce882610bfa565b610cf28185610c05565b935083602082028501610d0485610c16565b8060005b85811015610d405784840389528151610d218582610cbc565b9450610d2c83610cd0565b925060208a01995050600181019050610d08565b50829750879550505050505092915050565b60006020820190508181036000830152610d6c8184610cdd565b905092915050565b60128110610d8157600080fd5b50565b600081359050610d9381610d74565b92915050565b60008060408385031215610db057610daf61077c565b5b6000610dbe858286016108ed565b9250506020610dcf85828601610d84565b9150509250929050565b7f506f6b656d6f6e2773204964206d75737420626520677265617465722074686160008201527f6e20300000000000000000000000000000000000000000000000000000000000602082015250565b6000610e35602383610a32565b9150610e4082610dd9565b604082019050919050565b60006020820190508181036000830152610e6481610e28565b9050919050565b7f506f6b656d6f6e2773204e616d652073686f756c64206265206772656174657260008201527f207468616e203220636861726163746572730000000000000000000000000000602082015250565b6000610ec7603283610a32565b9150610ed282610e6b565b604082019050919050565b60006020820190508181036000830152610ef681610eba565b9050919050565b7f4e487b7100000000000000000000000000000000000000000000000000000000600052602260045260246000fd5b60006002820490506001821680610f4457607f821691505b602082108103610f5757610f56610efd565b5b50919050565b60008190508160005260206000209050919050565b60006020601f8301049050919050565b600082821b905092915050565b600060088302610fbf7fffffffffffffffffffffffffffffffffffffffffffffffffffffffffffffffff82610f82565b610fc98683610f82565b95508019841693508086168417925050509392505050565b6000819050919050565b6000611006611001610ffc846108cc565b610fe1565b6108cc565b9050919050565b6000819050919050565b61102083610feb565b61103461102c8261100d565b848454610f8f565b825550505050565b600090565b61104961103c565b611054818484611017565b505050565b5b818110156110785761106d600082611041565b60018101905061105a565b5050565b601f8211156110bd5761108e81610f5d565b61109784610f72565b810160208510156110a6578190505b6110ba6110b285610f72565b830182611059565b50505b505050565b600082821c905092915050565b60006110e0600019846008026110c2565b1980831691505092915050565b60006110f983836110cf565b9150826002028217905092915050565b61111282610a27565b67ffffffffffffffff81111561112b5761112a6107a1565b5b6111358254610f2c565b61114082828561107c565b600060209050601f8311600181146111735760008415611161578287015190505b61116b85826110ed565b8655506111d3565b601f19841661118186610f5d565b60005b828110156111a957848901518255600182019150602085019450602081019050611184565b868310156111c657848901516111c2601f8916826110cf565b8355505b6001600288020188555050505b505050505050565b60006040830160008301516111f36000860182610c26565b506020830151848203602086015261120b8282610c46565b9150508091505092915050565b6000602082019050818103600083015261123281846111db565b90509291505056fea26469706673582212205a72b3e7154f6baa08c0ba77efb44ee8cc095f66c3d3b38ae4bb7b2a223059da64736f6c63430008120033",
  "linkReferences": {},
  "deployedLinkReferences": {}
}