{
  "_format": "hh-sol-artifact-1",
  "contractName": "PokemonFactory",
  "sourceName": "contracts/PokemonFactory.sol",
  "abi": [
    {
      "anonymous": false,
      "inputs": [
        {
          "indexed": false,
          "internalType": "uint256",
          "name": "id",
          "type": "uint256"
        },
        {
          "indexed": false,
          "internalType": "string",
          "name": "name",
          "type": "string"
        }
      ],
      "name": "eventNewPokemon",
      "type": "event"
    },
    {
      "inputs": [
        {
          "internalType": "string",
          "name": "_name",
          "type": "string"
        },
        {
          "internalType": "uint256",
          "name": "_id",
          "type": "uint256"
        },
        {
          "internalType": "enum PokemonFactory.Tipos[]",
          "name": "_Type",
          "type": "uint8[]"
        },
        {
          "internalType": "enum PokemonFactory.Tipos[]",
          "name": "_Weaknesses",
          "type": "uint8[]"
        }
      ],
      "name": "createPokemon",
      "outputs": [],
      "stateMutability": "nonpayable",
      "type": "function"
    },
    {
      "inputs": [
        {
          "internalType": "string",
          "name": "_Name",
          "type": "string"
        },
        {
          "internalType": "string",
          "name": "_Description",
          "type": "string"
        },
        {
          "internalType": "uint256",
          "name": "_id",
          "type": "uint256"
        }
      ],
      "name": "evolutionPokemon",
      "outputs": [],
      "stateMutability": "nonpayable",
      "type": "function"
    },
    {
      "inputs": [],
      "name": "getAllPokemons",
      "outputs": [
        {
          "components": [
            {
              "internalType": "uint256",
              "name": "id",
              "type": "uint256"
            },
            {
              "internalType": "string",
              "name": "name",
              "type": "string"
            },
            {
              "internalType": "enum PokemonFactory.Tipos[]",
              "name": "Type",
              "type": "uint8[]"
            },
            {
              "internalType": "enum PokemonFactory.Tipos[]",
              "name": "Weaknesses",
              "type": "uint8[]"
            }
          ],
          "internalType": "struct PokemonFactory.Pokemon[]",
          "name": "",
          "type": "tuple[]"
        },
        {
          "components": [
            {
              "internalType": "string",
              "name": "Name",
              "type": "string"
            },
            {
              "internalType": "string",
              "name": "Description",
              "type": "string"
            }
          ],
          "internalType": "struct PokemonFactory.Habilities[]",
          "name": "",
          "type": "tuple[]"
        }
      ],
      "stateMutability": "view",
      "type": "function"
    },
    {
      "inputs": [],
      "name": "getResult",
      "outputs": [
        {
          "internalType": "uint256",
          "name": "product",
          "type": "uint256"
        },
        {
          "internalType": "uint256",
          "name": "sum",
          "type": "uint256"
        }
      ],
      "stateMutability": "pure",
      "type": "function"
    },
    {
      "inputs": [
        {
          "internalType": "uint256",
          "name": "",
          "type": "uint256"
        }
      ],
      "name": "pokemonToOwner",
      "outputs": [
        {
          "internalType": "address",
          "name": "",
          "type": "address"
        }
      ],
      "stateMutability": "view",
      "type": "function"
    }
  ],
  "bytecode": "0x608060405234801561001057600080fd5b506116f8806100206000396000f3fe608060405234801561001057600080fd5b50600436106100575760003560e01c80632f7467b31461005c5780635153b3381461008c5780635e916790146100a8578063c684c3e1146100c7578063de292789146100e3575b600080fd5b610076600480360381019061007191906108fb565b610102565b6040516100839190610969565b60405180910390f35b6100a660048036038101906100a19190610aca565b610135565b005b6100b06101fa565b6040516100be929190610f42565b60405180910390f35b6100e160048036038101906100dc9190611066565b610595565b005b6100eb6107ad565b6040516100f9929190611130565b60405180910390f35b60026020528060005260406000206000915054906101000a900473ffffffffffffffffffffffffffffffffffffffff1681565b60016040518060400160405280858152602001848152509080600181540180825580915050600190039060005260206000209060020201600090919091909150600082015181600001908161018a9190611365565b5060208201518160010190816101a09190611365565b505050336002600083815260200190815260200160002060006101000a81548173ffffffffffffffffffffffffffffffffffffffff021916908373ffffffffffffffffffffffffffffffffffffffff160217905550505050565b6060806000600181805480602002602001604051908101604052809291908181526020016000905b8282101561040a57838290600052602060002090600402016040518060800160405290816000820154815260200160018201805461025f90611188565b80601f016020809104026020016040519081016040528092919081815260200182805461028b90611188565b80156102d85780601f106102ad576101008083540402835291602001916102d8565b820191906000526020600020905b8154815290600101906020018083116102bb57829003601f168201915b505050505081526020016002820180548060200260200160405190810160405280929190818152602001828054801561036557602002820191906000526020600020906000905b82829054906101000a900460ff16601181111561033f5761033e610c3b565b5b8152602001906001019060208260000104928301926001038202915080841161031f5790505b50505050508152602001600382018054806020026020016040519081016040528092919081815260200182805480156103f257602002820191906000526020600020906000905b82829054906101000a900460ff1660118111156103cc576103cb610c3b565b5b815260200190600101906020826000010492830192600103820291508084116103ac5790505b50505050508152505081526020019060010190610222565b50505050915080805480602002602001604051908101604052809291908181526020016000905b82821015610587578382906000526020600020906002020160405180604001604052908160008201805461046490611188565b80601f016020809104026020016040519081016040528092919081815260200182805461049090611188565b80156104dd5780601f106104b2576101008083540402835291602001916104dd565b820191906000526020600020905b8154815290600101906020018083116104c057829003601f168201915b505050505081526020016001820180546104f690611188565b80601f016020809104026020016040519081016040528092919081815260200182805461052290611188565b801561056f5780601f106105445761010080835404028352916020019161056f565b820191906000526020600020905b81548152906001019060200180831161055257829003601f168201915b50505050508152505081526020019060010190610431565b505050509050915091509091565b82600081116105d9576040517f08c379a00000000000000000000000000000000000000000000000000000000081526004016105d0906114ba565b60405180910390fd5b84600281511161061e576040517f08c379a00000000000000000000000000000000000000000000000000000000081526004016106159061154c565b60405180910390fd5b600060405180608001604052808781526020018881526020018681526020018581525090806001815401808255809150506001900390600052602060002090600402016000909190919091506000820151816000015560208201518160010190816106899190611365565b5060408201518160020190805190602001906106a69291906107de565b5060608201518160030190805190602001906106c39291906107de565b505050336002600087815260200190815260200160002060006101000a81548173ffffffffffffffffffffffffffffffffffffffff021916908373ffffffffffffffffffffffffffffffffffffffff160217905550600360003373ffffffffffffffffffffffffffffffffffffffff1673ffffffffffffffffffffffffffffffffffffffff16815260200190815260200160002060008154809291906107689061159b565b91905055507e570a6686f18a686cdda2f62a7954c6bd78c21f4b33df90b0a5479f5ae8a9a8858760405161079d92919061161c565b60405180910390a1505050505050565b60008060006001905060006002905080826107c8919061164c565b935080826107d6919061168e565b925050509091565b82805482825590600052602060002090601f016020900481019282156108835791602002820160005b8382111561085457835183826101000a81548160ff0219169083601181111561083357610832610c3b565b5b02179055509260200192600101602081600001049283019260010302610807565b80156108815782816101000a81549060ff0219169055600101602081600001049283019260010302610854565b505b5090506108909190610894565b5090565b5b808211156108ad576000816000905550600101610895565b5090565b6000604051905090565b600080fd5b600080fd5b6000819050919050565b6108d8816108c5565b81146108e357600080fd5b50565b6000813590506108f5816108cf565b92915050565b600060208284031215610911576109106108bb565b5b600061091f848285016108e6565b91505092915050565b600073ffffffffffffffffffffffffffffffffffffffff82169050919050565b600061095382610928565b9050919050565b61096381610948565b82525050565b600060208201905061097e600083018461095a565b92915050565b600080fd5b600080fd5b6000601f19601f8301169050919050565b7f4e487b7100000000000000000000000000000000000000000000000000000000600052604160045260246000fd5b6109d78261098e565b810181811067ffffffffffffffff821117156109f6576109f561099f565b5b80604052505050565b6000610a096108b1565b9050610a1582826109ce565b919050565b600067ffffffffffffffff821115610a3557610a3461099f565b5b610a3e8261098e565b9050602081019050919050565b82818337600083830152505050565b6000610a6d610a6884610a1a565b6109ff565b905082815260208101848484011115610a8957610a88610989565b5b610a94848285610a4b565b509392505050565b600082601f830112610ab157610ab0610984565b5b8135610ac1848260208601610a5a565b91505092915050565b600080600060608486031215610ae357610ae26108bb565b5b600084013567ffffffffffffffff811115610b0157610b006108c0565b5b610b0d86828701610a9c565b935050602084013567ffffffffffffffff811115610b2e57610b2d6108c0565b5b610b3a86828701610a9c565b9250506040610b4b868287016108e6565b9150509250925092565b600081519050919050565b600082825260208201905092915050565b6000819050602082019050919050565b610b8a816108c5565b82525050565b600081519050919050565b600082825260208201905092915050565b60005b83811015610bca578082015181840152602081019050610baf565b60008484015250505050565b6000610be182610b90565b610beb8185610b9b565b9350610bfb818560208601610bac565b610c048161098e565b840191505092915050565b600081519050919050565b600082825260208201905092915050565b6000819050602082019050919050565b7f4e487b7100000000000000000000000000000000000000000000000000000000600052602160045260246000fd5b60128110610c7b57610c7a610c3b565b5b50565b6000819050610c8c82610c6a565b919050565b6000610c9c82610c7e565b9050919050565b610cac81610c91565b82525050565b6000610cbe8383610ca3565b60208301905092915050565b6000602082019050919050565b6000610ce282610c0f565b610cec8185610c1a565b9350610cf783610c2b565b8060005b83811015610d28578151610d0f8882610cb2565b9750610d1a83610cca565b925050600181019050610cfb565b5085935050505092915050565b6000608083016000830151610d4d6000860182610b81565b5060208301518482036020860152610d658282610bd6565b91505060408301518482036040860152610d7f8282610cd7565b91505060608301518482036060860152610d998282610cd7565b9150508091505092915050565b6000610db28383610d35565b905092915050565b6000602082019050919050565b6000610dd282610b55565b610ddc8185610b60565b935083602082028501610dee85610b71565b8060005b85811015610e2a5784840389528151610e0b8582610da6565b9450610e1683610dba565b925060208a01995050600181019050610df2565b50829750879550505050505092915050565b600081519050919050565b600082825260208201905092915050565b6000819050602082019050919050565b60006040830160008301518482036000860152610e858282610bd6565b91505060208301518482036020860152610e9f8282610bd6565b9150508091505092915050565b6000610eb88383610e68565b905092915050565b6000602082019050919050565b6000610ed882610e3c565b610ee28185610e47565b935083602082028501610ef485610e58565b8060005b85811015610f305784840389528151610f118582610eac565b9450610f1c83610ec0565b925060208a01995050600181019050610ef8565b50829750879550505050505092915050565b60006040820190508181036000830152610f5c8185610dc7565b90508181036020830152610f708184610ecd565b90509392505050565b600067ffffffffffffffff821115610f9457610f9361099f565b5b602082029050602081019050919050565b600080fd5b60128110610fb757600080fd5b50565b600081359050610fc981610faa565b92915050565b6000610fe2610fdd84610f79565b6109ff565b9050808382526020820190506020840283018581111561100557611004610fa5565b5b835b8181101561102e578061101a8882610fba565b845260208401935050602081019050611007565b5050509392505050565b600082601f83011261104d5761104c610984565b5b813561105d848260208601610fcf565b91505092915050565b600080600080608085870312156110805761107f6108bb565b5b600085013567ffffffffffffffff81111561109e5761109d6108c0565b5b6110aa87828801610a9c565b94505060206110bb878288016108e6565b935050604085013567ffffffffffffffff8111156110dc576110db6108c0565b5b6110e887828801611038565b925050606085013567ffffffffffffffff811115611109576111086108c0565b5b61111587828801611038565b91505092959194509250565b61112a816108c5565b82525050565b60006040820190506111456000830185611121565b6111526020830184611121565b9392505050565b7f4e487b7100000000000000000000000000000000000000000000000000000000600052602260045260246000fd5b600060028204905060018216806111a057607f821691505b6020821081036111b3576111b2611159565b5b50919050565b60008190508160005260206000209050919050565b60006020601f8301049050919050565b600082821b905092915050565b60006008830261121b7fffffffffffffffffffffffffffffffffffffffffffffffffffffffffffffffff826111de565b61122586836111de565b95508019841693508086168417925050509392505050565b6000819050919050565b600061126261125d611258846108c5565b61123d565b6108c5565b9050919050565b6000819050919050565b61127c83611247565b61129061128882611269565b8484546111eb565b825550505050565b600090565b6112a5611298565b6112b0818484611273565b505050565b5b818110156112d4576112c960008261129d565b6001810190506112b6565b5050565b601f821115611319576112ea816111b9565b6112f3846111ce565b81016020851015611302578190505b61131661130e856111ce565b8301826112b5565b50505b505050565b600082821c905092915050565b600061133c6000198460080261131e565b1980831691505092915050565b6000611355838361132b565b9150826002028217905092915050565b61136e82610b90565b67ffffffffffffffff8111156113875761138661099f565b5b6113918254611188565b61139c8282856112d8565b600060209050601f8311600181146113cf57600084156113bd578287015190505b6113c78582611349565b86555061142f565b601f1984166113dd866111b9565b60005b82811015611405578489015182556001820191506020850194506020810190506113e0565b86831015611422578489015161141e601f89168261132b565b8355505b6001600288020188555050505b505050505050565b600082825260208201905092915050565b7f456c20696420646520747520706f6b656d6f6e206465626520736572206d617960008201527f6f72206120300000000000000000000000000000000000000000000000000000602082015250565b60006114a4602683611437565b91506114af82611448565b604082019050919050565b600060208201905081810360008301526114d381611497565b9050919050565b7f456c206e6f6d62726520646520747520706f6b656d6f6e20646562652073657260008201527f206d61796f722061203220636172616374657265730000000000000000000000602082015250565b6000611536603583611437565b9150611541826114da565b604082019050919050565b6000602082019050818103600083015261156581611529565b9050919050565b7f4e487b7100000000000000000000000000000000000000000000000000000000600052601160045260246000fd5b60006115a6826108c5565b91507fffffffffffffffffffffffffffffffffffffffffffffffffffffffffffffffff82036115d8576115d761156c565b5b600182019050919050565b60006115ee82610b90565b6115f88185611437565b9350611608818560208601610bac565b6116118161098e565b840191505092915050565b60006040820190506116316000830185611121565b818103602083015261164381846115e3565b90509392505050565b6000611657826108c5565b9150611662836108c5565b9250828202611670816108c5565b915082820484148315176116875761168661156c565b5b5092915050565b6000611699826108c5565b91506116a4836108c5565b92508282019050808211156116bc576116bb61156c565b5b9291505056fea2646970667358221220a9942a627b0008bed6b73cab512eb8a1bbf692615758cdc9a65ce0879620baf364736f6c63430008120033",
  "linkReferences": {},
  "deployedLinkReferences": {}
}