{
  "_format": "hh-sol-artifact-1",
  "contractName": "PokemonFactory",
  "sourceName": "contracts/PokemonFactory.sol",
  "abi": [
    {
      "inputs": [],
      "stateMutability": "nonpayable",
      "type": "constructor"
    },
    {
      "anonymous": false,
      "inputs": [
        {
          "components": [
            {
              "internalType": "uint256",
              "name": "id",
              "type": "uint256"
            },
            {
              "internalType": "string",
              "name": "name",
              "type": "string"
            },
            {
              "internalType": "uint16[]",
              "name": "skills",
              "type": "uint16[]"
            },
            {
              "internalType": "uint8[]",
              "name": "types",
              "type": "uint8[]"
            },
            {
              "internalType": "uint8[]",
              "name": "weaknesses",
              "type": "uint8[]"
            }
          ],
          "indexed": false,
          "internalType": "struct PokemonFactory.Pokemon",
          "name": "_pokemon",
          "type": "tuple"
        }
      ],
      "name": "eventNewPokemon",
      "type": "event"
    },
    {
      "anonymous": false,
      "inputs": [
        {
          "indexed": false,
          "internalType": "uint256",
          "name": "_id",
          "type": "uint256"
        },
        {
          "components": [
            {
              "internalType": "uint256",
              "name": "id",
              "type": "uint256"
            },
            {
              "internalType": "string",
              "name": "name",
              "type": "string"
            },
            {
              "internalType": "string",
              "name": "description",
              "type": "string"
            }
          ],
          "indexed": false,
          "internalType": "struct PokemonFactory.PokemonSkill",
          "name": "_pokemonSkill",
          "type": "tuple"
        }
      ],
      "name": "newPokemosSkill",
      "type": "event"
    },
    {
      "anonymous": false,
      "inputs": [
        {
          "indexed": false,
          "internalType": "uint256",
          "name": "_id",
          "type": "uint256"
        },
        {
          "components": [
            {
              "internalType": "uint256",
              "name": "id",
              "type": "uint256"
            },
            {
              "internalType": "string",
              "name": "name",
              "type": "string"
            },
            {
              "internalType": "string",
              "name": "description",
              "type": "string"
            }
          ],
          "indexed": false,
          "internalType": "struct PokemonFactory.PokemonType",
          "name": "_pokemonType",
          "type": "tuple"
        }
      ],
      "name": "newPokemosType",
      "type": "event"
    },
    {
      "inputs": [
        {
          "internalType": "string",
          "name": "_name",
          "type": "string"
        },
        {
          "internalType": "uint256",
          "name": "_id",
          "type": "uint256"
        },
        {
          "internalType": "uint16[]",
          "name": "_skills",
          "type": "uint16[]"
        },
        {
          "internalType": "uint8[]",
          "name": "_types",
          "type": "uint8[]"
        },
        {
          "internalType": "uint8[]",
          "name": "_weaknesses",
          "type": "uint8[]"
        }
      ],
      "name": "createPokemon",
      "outputs": [],
      "stateMutability": "nonpayable",
      "type": "function"
    },
    {
      "inputs": [
        {
          "internalType": "string",
          "name": "_name",
          "type": "string"
        },
        {
          "internalType": "string",
          "name": "_description",
          "type": "string"
        }
      ],
      "name": "createPokemonSkill",
      "outputs": [
        {
          "internalType": "uint256",
          "name": "",
          "type": "uint256"
        }
      ],
      "stateMutability": "nonpayable",
      "type": "function"
    },
    {
      "inputs": [
        {
          "internalType": "string",
          "name": "_name",
          "type": "string"
        },
        {
          "internalType": "string",
          "name": "_description",
          "type": "string"
        }
      ],
      "name": "createPokemonType",
      "outputs": [
        {
          "internalType": "uint256",
          "name": "",
          "type": "uint256"
        }
      ],
      "stateMutability": "nonpayable",
      "type": "function"
    },
    {
      "inputs": [],
      "name": "getAllPokemons",
      "outputs": [
        {
          "components": [
            {
              "internalType": "uint256",
              "name": "id",
              "type": "uint256"
            },
            {
              "internalType": "string",
              "name": "name",
              "type": "string"
            },
            {
              "internalType": "uint16[]",
              "name": "skills",
              "type": "uint16[]"
            },
            {
              "internalType": "uint8[]",
              "name": "types",
              "type": "uint8[]"
            },
            {
              "internalType": "uint8[]",
              "name": "weaknesses",
              "type": "uint8[]"
            }
          ],
          "internalType": "struct PokemonFactory.Pokemon[]",
          "name": "",
          "type": "tuple[]"
        }
      ],
      "stateMutability": "view",
      "type": "function"
    },
    {
      "inputs": [
        {
          "internalType": "uint256",
          "name": "",
          "type": "uint256"
        }
      ],
      "name": "pokemonSkills",
      "outputs": [
        {
          "internalType": "uint256",
          "name": "id",
          "type": "uint256"
        },
        {
          "internalType": "string",
          "name": "name",
          "type": "string"
        },
        {
          "internalType": "string",
          "name": "description",
          "type": "string"
        }
      ],
      "stateMutability": "view",
      "type": "function"
    },
    {
      "inputs": [
        {
          "internalType": "uint256",
          "name": "",
          "type": "uint256"
        }
      ],
      "name": "pokemonToOwner",
      "outputs": [
        {
          "internalType": "address",
          "name": "",
          "type": "address"
        }
      ],
      "stateMutability": "view",
      "type": "function"
    },
    {
      "inputs": [
        {
          "internalType": "uint256",
          "name": "",
          "type": "uint256"
        }
      ],
      "name": "pokemonTypes",
      "outputs": [
        {
          "internalType": "uint256",
          "name": "id",
          "type": "uint256"
        },
        {
          "internalType": "string",
          "name": "name",
          "type": "string"
        },
        {
          "internalType": "string",
          "name": "description",
          "type": "string"
        }
      ],
      "stateMutability": "view",
      "type": "function"
    },
    {
      "inputs": [
        {
          "internalType": "uint16[]",
          "name": "_skills",
          "type": "uint16[]"
        },
        {
          "internalType": "uint8[]",
          "name": "_types",
          "type": "uint8[]"
        },
        {
          "internalType": "uint8[]",
          "name": "_weaknesses",
          "type": "uint8[]"
        }
      ],
      "name": "verifyPokemon",
      "outputs": [
        {
          "internalType": "bool",
          "name": "",
          "type": "bool"
        }
      ],
      "stateMutability": "view",
      "type": "function"
    }
  ],
  "bytecode": "0x60806040523480156200001157600080fd5b50620000726040518060400160405280600481526020017f46697265000000000000000000000000000000000000000000000000000000008152506040518060600160405280603f815260200162003822603f91396200050560201b60201c565b50620000d36040518060400160405280600581526020017f57617465720000000000000000000000000000000000000000000000000000008152506040518060800160405280604381526020016200398e604391396200050560201b60201c565b50620001346040518060400160405280600581526020017f47726173730000000000000000000000000000000000000000000000000000008152506040518060600160405280603d81526020016200389b603d91396200050560201b60201c565b50620001956040518060400160405280600881526020017f456c6563747269630000000000000000000000000000000000000000000000008152506040518060600160405280603a815260200162003861603a91396200050560201b60201c565b50620001f66040518060400160405280600381526020017f496365000000000000000000000000000000000000000000000000000000000081525060405180606001604052806040815260200162003ad1604091396200050560201b60201c565b50620002576040518060400160405280600881526020017f4669676874696e67000000000000000000000000000000000000000000000000815250604051806080016040528060468152602001620037a8604691396200050560201b60201c565b50620002b86040518060400160405280600681526020017f5461636b6c6500000000000000000000000000000000000000000000000000008152506040518060800160405280605a815260200162003b11605a91396200068560201b60201c565b50620003196040518060400160405280600581526020017f456d62657200000000000000000000000000000000000000000000000000000081525060405180608001604052806055815260200162003939605591396200068560201b60201c565b506200037a6040518060400160405280600981526020017f56696e652057686970000000000000000000000000000000000000000000000081525060405180608001604052806044815260200162003a8d604491396200068560201b60201c565b50620003db6040518060400160405280600981526020017f57617465722047756e0000000000000000000000000000000000000000000000815250604051806060016040528060348152602001620037ee603491396200068560201b60201c565b506200043c6040518060400160405280600981526020017f54616b6520446f776e00000000000000000000000000000000000000000000008152506040518060a0016040528060668152602001620039d1606691396200068560201b60201c565b506200049d6040518060400160405280600481526020017f426974650000000000000000000000000000000000000000000000000000000081525060405180608001604052806056815260200162003a37605691396200068560201b60201c565b50620004fe6040518060400160405280600c81526020017f466c616d657468726f77657200000000000000000000000000000000000000008152506040518060a0016040528060618152602001620038d8606191396200068560201b60201c565b5062000ec7565b60006002835110156200054f576040517f08c379a000000000000000000000000000000000000000000000000000000000815260040162000546906200088d565b60405180910390fd5b6032600480549050106200059a576040517f08c379a00000000000000000000000000000000000000000000000000000000081526004016200059190620008ff565b60405180910390fd5b60006004805490509050600460405180606001604052808381526020018681526020018581525090806001815401808255809150506001900390600052602060002090600302016000909190919091506000820151816000015560208201518160010190816200060b919062000b9b565b50604082015181600201908162000623919062000b9b565b5050507f6b54179a51d98751b56e9854f101a8bc66580317818848ffe11418b2a070df56816040518060600160405280848152602001878152602001868152506040516200067392919062000d90565b60405180910390a18091505092915050565b6000600283511015620006cf576040517f08c379a0000000000000000000000000000000000000000000000000000000008152600401620006c6906200088d565b60405180910390fd5b6101f4600380549050106200071b576040517f08c379a0000000000000000000000000000000000000000000000000000000008152600401620007129062000e14565b60405180910390fd5b60006003805490509050600360405180606001604052808381526020018681526020018581525090806001815401808255809150506001900390600052602060002090600302016000909190919091506000820151816000015560208201518160010190816200078c919062000b9b565b506040820151816002019081620007a4919062000b9b565b5050507f80e541f486172623665f7d923cf03b7164d42f9823d756f08c19790192be7e1381604051806060016040528084815260200187815260200186815250604051620007f492919062000e93565b60405180910390a18091505092915050565b600082825260208201905092915050565b7f4e616d65206d757374206265206174206c65617374203220636861726163746560008201527f7273206c6f6e6700000000000000000000000000000000000000000000000000602082015250565b60006200087560278362000806565b9150620008828262000817565b604082019050919050565b60006020820190508181036000830152620008a88162000866565b9050919050565b7f4d6178696d756d206e756d626572206f66207479706573207265616368656400600082015250565b6000620008e7601f8362000806565b9150620008f482620008af565b602082019050919050565b600060208201905081810360008301526200091a81620008d8565b9050919050565b600081519050919050565b7f4e487b7100000000000000000000000000000000000000000000000000000000600052604160045260246000fd5b7f4e487b7100000000000000000000000000000000000000000000000000000000600052602260045260246000fd5b60006002820490506001821680620009a357607f821691505b602082108103620009b957620009b86200095b565b5b50919050565b60008190508160005260206000209050919050565b60006020601f8301049050919050565b600082821b905092915050565b60006008830262000a237fffffffffffffffffffffffffffffffffffffffffffffffffffffffffffffffff82620009e4565b62000a2f8683620009e4565b95508019841693508086168417925050509392505050565b6000819050919050565b6000819050919050565b600062000a7c62000a7662000a708462000a47565b62000a51565b62000a47565b9050919050565b6000819050919050565b62000a988362000a5b565b62000ab062000aa78262000a83565b848454620009f1565b825550505050565b600090565b62000ac762000ab8565b62000ad481848462000a8d565b505050565b5b8181101562000afc5762000af060008262000abd565b60018101905062000ada565b5050565b601f82111562000b4b5762000b1581620009bf565b62000b2084620009d4565b8101602085101562000b30578190505b62000b4862000b3f85620009d4565b83018262000ad9565b50505b505050565b600082821c905092915050565b600062000b706000198460080262000b50565b1980831691505092915050565b600062000b8b838362000b5d565b9150826002028217905092915050565b62000ba68262000921565b67ffffffffffffffff81111562000bc25762000bc16200092c565b5b62000bce82546200098a565b62000bdb82828562000b00565b600060209050601f83116001811462000c13576000841562000bfe578287015190505b62000c0a858262000b7d565b86555062000c7a565b601f19841662000c2386620009bf565b60005b8281101562000c4d5784890151825560018201915060208501945060208101905062000c26565b8683101562000c6d578489015162000c69601f89168262000b5d565b8355505b6001600288020188555050505b505050505050565b62000c8d8162000a47565b82525050565b62000c9e8162000a47565b82525050565b600082825260208201905092915050565b60005b8381101562000cd557808201518184015260208101905062000cb8565b60008484015250505050565b6000601f19601f8301169050919050565b600062000cff8262000921565b62000d0b818562000ca4565b935062000d1d81856020860162000cb5565b62000d288162000ce1565b840191505092915050565b600060608301600083015162000d4d600086018262000c93565b506020830151848203602086015262000d67828262000cf2565b9150506040830151848203604086015262000d83828262000cf2565b9150508091505092915050565b600060408201905062000da7600083018562000c82565b818103602083015262000dbb818462000d33565b90509392505050565b7f4d6178696d756d206e756d626572206f6620736b696c6c732072656163686564600082015250565b600062000dfc60208362000806565b915062000e098262000dc4565b602082019050919050565b6000602082019050818103600083015262000e2f8162000ded565b9050919050565b600060608301600083015162000e50600086018262000c93565b506020830151848203602086015262000e6a828262000cf2565b9150506040830151848203604086015262000e86828262000cf2565b9150508091505092915050565b600060408201905062000eaa600083018562000c82565b818103602083015262000ebe818462000e36565b90509392505050565b6128d18062000ed76000396000f3fe608060405234801561001057600080fd5b50600436106100885760003560e01c8063c250736e1161005b578063c250736e14610127578063c8ab830314610159578063d859e91e14610189578063dfce7dc6146101b957610088565b80630ce919061461008d5780632f7467b3146100a957806342dae541146100d95780635e91679014610109575b600080fd5b6100a760048036038101906100a29190611466565b6101eb565b005b6100c360048036038101906100be9190611562565b6107f6565b6040516100d091906115d0565b60405180910390f35b6100f360048036038101906100ee919061172c565b610829565b60405161010091906117b3565b60405180910390f35b61011161099e565b60405161011e9190611b40565b60405180910390f35b610141600480360381019061013c9190611562565b610c15565b60405161015093929190611bac565b60405180910390f35b610173600480360381019061016e919061172c565b610d5f565b60405161018091906117b3565b60405180910390f35b6101a3600480360381019061019e9190611dcf565b610ed3565b6040516101b09190611e91565b60405180910390f35b6101d360048036038101906101ce9190611562565b610f09565b6040516101e293929190611bac565b60405180910390f35b6000871161022e576040517f08c379a000000000000000000000000000000000000000000000000000000000815260040161022590611ef8565b60405180910390fd5b6002898990501015610275576040517f08c379a000000000000000000000000000000000000000000000000000000000815260040161026c90611f8a565b60405180910390fd5b600084849050116102bb576040517f08c379a00000000000000000000000000000000000000000000000000000000081526004016102b29061201c565b60405180910390fd5b60008282905011610301576040517f08c379a00000000000000000000000000000000000000000000000000000000081526004016102f8906120ae565b60405180910390fd5b6103cf868680806020026020016040519081016040528093929190818152602001838360200280828437600081840152601f19601f82011690508083019250505050505050858580806020026020016040519081016040528093929190818152602001838360200280828437600081840152601f19601f82011690508083019250505050505050848480806020026020016040519081016040528093929190818152602001838360200280828437600081840152601f19601f82011690508083019250505050505050610ed3565b61040e576040517f08c379a000000000000000000000000000000000000000000000000000000000815260040161040590612140565b60405180910390fd5b60006040518060a001604052808981526020018b8b8080601f016020809104026020016040519081016040528093929190818152602001838380828437600081840152601f19601f820116905080830192505050505050508152602001888880806020026020016040519081016040528093929190818152602001838360200280828437600081840152601f19601f820116905080830192505050505050508152602001868680806020026020016040519081016040528093929190818152602001838360200280828437600081840152601f19601f820116905080830192505050505050508152602001848480806020026020016040519081016040528093929190818152602001838360200280828437600081840152601f19601f820116905080830192505050505050508152509080600181540180825580915050600190039060005260206000209060050201600090919091909150600082015181600001556020820151816001019081610586919061236c565b5060408201518160020190805190602001906105a392919061119d565b5060608201518160030190805190602001906105c0929190611247565b5060808201518160040190805190602001906105dd929190611247565b505050336001600089815260200190815260200160002060006101000a81548173ffffffffffffffffffffffffffffffffffffffff021916908373ffffffffffffffffffffffffffffffffffffffff160217905550600260003373ffffffffffffffffffffffffffffffffffffffff1673ffffffffffffffffffffffffffffffffffffffff16815260200190815260200160002060008154809291906106829061246d565b91905055507fb10986948ffb7be81da4fbc5ecc25588b81398f5a5e78ebb740668db90c352386040518060a001604052808981526020018b8b8080601f016020809104026020016040519081016040528093929190818152602001838380828437600081840152601f19601f820116905080830192505050505050508152602001888880806020026020016040519081016040528093929190818152602001838360200280828437600081840152601f19601f820116905080830192505050505050508152602001868680806020026020016040519081016040528093929190818152602001838360200280828437600081840152601f19601f820116905080830192505050505050508152602001848480806020026020016040519081016040528093929190818152602001838360200280828437600081840152601f19601f820116905080830192505050505050508152506040516107e39190612540565b60405180910390a1505050505050505050565b60016020528060005260406000206000915054906101000a900473ffffffffffffffffffffffffffffffffffffffff1681565b6000600283511015610870576040517f08c379a000000000000000000000000000000000000000000000000000000000815260040161086790611f8a565b60405180910390fd5b6101f4600380549050106108b9576040517f08c379a00000000000000000000000000000000000000000000000000000000081526004016108b0906125ae565b60405180910390fd5b6000600380549050905060036040518060600160405280838152602001868152602001858152509080600181540180825580915050600190039060005260206000209060030201600090919091909150600082015181600001556020820151816001019081610928919061236c565b50604082015181600201908161093e919061236c565b5050507f80e541f486172623665f7d923cf03b7164d42f9823d756f08c19790192be7e138160405180606001604052808481526020018781526020018681525060405161098c929190612625565b60405180910390a18091505092915050565b60606000805480602002602001604051908101604052809291908181526020016000905b82821015610c0c57838290600052602060002090600502016040518060a0016040529081600082015481526020016001820180546109ff9061218f565b80601f0160208091040260200160405190810160405280929190818152602001828054610a2b9061218f565b8015610a785780601f10610a4d57610100808354040283529160200191610a78565b820191906000526020600020905b815481529060010190602001808311610a5b57829003601f168201915b5050505050815260200160028201805480602002602001604051908101604052809291908181526020018280548015610af857602002820191906000526020600020906000905b82829054906101000a900461ffff1661ffff1681526020019060020190602082600101049283019260010382029150808411610abf5790505b5050505050815260200160038201805480602002602001604051908101604052809291908181526020018280548015610b7657602002820191906000526020600020906000905b82829054906101000a900460ff1660ff1681526020019060010190602082600001049283019260010382029150808411610b3f5790505b5050505050815260200160048201805480602002602001604051908101604052809291908181526020018280548015610bf457602002820191906000526020600020906000905b82829054906101000a900460ff1660ff1681526020019060010190602082600001049283019260010382029150808411610bbd5790505b505050505081525050815260200190600101906109c2565b50505050905090565b60048181548110610c2557600080fd5b9060005260206000209060030201600091509050806000015490806001018054610c4e9061218f565b80601f0160208091040260200160405190810160405280929190818152602001828054610c7a9061218f565b8015610cc75780601f10610c9c57610100808354040283529160200191610cc7565b820191906000526020600020905b815481529060010190602001808311610caa57829003601f168201915b505050505090806002018054610cdc9061218f565b80601f0160208091040260200160405190810160405280929190818152602001828054610d089061218f565b8015610d555780601f10610d2a57610100808354040283529160200191610d55565b820191906000526020600020905b815481529060010190602001808311610d3857829003601f168201915b5050505050905083565b6000600283511015610da6576040517f08c379a0000000000000000000000000000000000000000000000000000000008152600401610d9d90611f8a565b60405180910390fd5b603260048054905010610dee576040517f08c379a0000000000000000000000000000000000000000000000000000000008152600401610de5906126a1565b60405180910390fd5b6000600480549050905060046040518060600160405280838152602001868152602001858152509080600181540180825580915050600190039060005260206000209060030201600090919091909150600082015181600001556020820151816001019081610e5d919061236c565b506040820151816002019081610e73919061236c565b5050507f6b54179a51d98751b56e9854f101a8bc66580317818848ffe11418b2a070df5681604051806060016040528084815260200187815260200186815250604051610ec1929190612718565b60405180910390a18091505092915050565b6000610ede84611053565b8015610eef5750610eee8361113b565b5b8015610f005750610eff8261113b565b5b90509392505050565b60038181548110610f1957600080fd5b9060005260206000209060030201600091509050806000015490806001018054610f429061218f565b80601f0160208091040260200160405190810160405280929190818152602001828054610f6e9061218f565b8015610fbb5780601f10610f9057610100808354040283529160200191610fbb565b820191906000526020600020905b815481529060010190602001808311610f9e57829003601f168201915b505050505090806002018054610fd09061218f565b80601f0160208091040260200160405190810160405280929190818152602001828054610ffc9061218f565b80156110495780601f1061101e57610100808354040283529160200191611049565b820191906000526020600020905b81548152906001019060200180831161102c57829003601f168201915b5050505050905083565b600080825111611098576040517f08c379a000000000000000000000000000000000000000000000000000000000815260040161108f906127ba565b60405180910390fd5b6004825111156110dd576040517f08c379a00000000000000000000000000000000000000000000000000000000081526004016110d49061284c565b60405180910390fd5b60005b8251811015611130576003805490508382815181106111025761110161286c565b5b602002602001015161ffff161061111d576000915050611136565b80806111289061246d565b9150506110e0565b50600190505b919050565b600080600090505b8251811015611192576004805490508382815181106111655761116461286c565b5b602002602001015160ff161061117f576000915050611198565b808061118a9061246d565b915050611143565b50600190505b919050565b82805482825590600052602060002090600f016010900481019282156112365791602002820160005b8382111561120657835183826101000a81548161ffff021916908361ffff16021790555092602001926002016020816001010492830192600103026111c6565b80156112345782816101000a81549061ffff0219169055600201602081600101049283019260010302611206565b505b50905061124391906112ee565b5090565b82805482825590600052602060002090601f016020900481019282156112dd5791602002820160005b838211156112ae57835183826101000a81548160ff021916908360ff1602179055509260200192600101602081600001049283019260010302611270565b80156112db5782816101000a81549060ff02191690556001016020816000010492830192600103026112ae565b505b5090506112ea91906112ee565b5090565b5b808211156113075760008160009055506001016112ef565b5090565b6000604051905090565b600080fd5b600080fd5b600080fd5b600080fd5b600080fd5b60008083601f8401126113445761134361131f565b5b8235905067ffffffffffffffff81111561136157611360611324565b5b60208301915083600182028301111561137d5761137c611329565b5b9250929050565b6000819050919050565b61139781611384565b81146113a257600080fd5b50565b6000813590506113b48161138e565b92915050565b60008083601f8401126113d0576113cf61131f565b5b8235905067ffffffffffffffff8111156113ed576113ec611324565b5b60208301915083602082028301111561140957611408611329565b5b9250929050565b60008083601f8401126114265761142561131f565b5b8235905067ffffffffffffffff81111561144357611442611324565b5b60208301915083602082028301111561145f5761145e611329565b5b9250929050565b600080600080600080600080600060a08a8c03121561148857611487611315565b5b60008a013567ffffffffffffffff8111156114a6576114a561131a565b5b6114b28c828d0161132e565b995099505060206114c58c828d016113a5565b97505060408a013567ffffffffffffffff8111156114e6576114e561131a565b5b6114f28c828d016113ba565b965096505060608a013567ffffffffffffffff8111156115155761151461131a565b5b6115218c828d01611410565b945094505060808a013567ffffffffffffffff8111156115445761154361131a565b5b6115508c828d01611410565b92509250509295985092959850929598565b60006020828403121561157857611577611315565b5b6000611586848285016113a5565b91505092915050565b600073ffffffffffffffffffffffffffffffffffffffff82169050919050565b60006115ba8261158f565b9050919050565b6115ca816115af565b82525050565b60006020820190506115e560008301846115c1565b92915050565b600080fd5b6000601f19601f8301169050919050565b7f4e487b7100000000000000000000000000000000000000000000000000000000600052604160045260246000fd5b611639826115f0565b810181811067ffffffffffffffff8211171561165857611657611601565b5b80604052505050565b600061166b61130b565b90506116778282611630565b919050565b600067ffffffffffffffff82111561169757611696611601565b5b6116a0826115f0565b9050602081019050919050565b82818337600083830152505050565b60006116cf6116ca8461167c565b611661565b9050828152602081018484840111156116eb576116ea6115eb565b5b6116f68482856116ad565b509392505050565b600082601f8301126117135761171261131f565b5b81356117238482602086016116bc565b91505092915050565b6000806040838503121561174357611742611315565b5b600083013567ffffffffffffffff8111156117615761176061131a565b5b61176d858286016116fe565b925050602083013567ffffffffffffffff81111561178e5761178d61131a565b5b61179a858286016116fe565b9150509250929050565b6117ad81611384565b82525050565b60006020820190506117c860008301846117a4565b92915050565b600081519050919050565b600082825260208201905092915050565b6000819050602082019050919050565b61180381611384565b82525050565b600081519050919050565b600082825260208201905092915050565b60005b83811015611843578082015181840152602081019050611828565b60008484015250505050565b600061185a82611809565b6118648185611814565b9350611874818560208601611825565b61187d816115f0565b840191505092915050565b600081519050919050565b600082825260208201905092915050565b6000819050602082019050919050565b600061ffff82169050919050565b6118cb816118b4565b82525050565b60006118dd83836118c2565b60208301905092915050565b6000602082019050919050565b600061190182611888565b61190b8185611893565b9350611916836118a4565b8060005b8381101561194757815161192e88826118d1565b9750611939836118e9565b92505060018101905061191a565b5085935050505092915050565b600081519050919050565b600082825260208201905092915050565b6000819050602082019050919050565b600060ff82169050919050565b61199681611980565b82525050565b60006119a8838361198d565b60208301905092915050565b6000602082019050919050565b60006119cc82611954565b6119d6818561195f565b93506119e183611970565b8060005b83811015611a125781516119f9888261199c565b9750611a04836119b4565b9250506001810190506119e5565b5085935050505092915050565b600060a083016000830151611a3760008601826117fa565b5060208301518482036020860152611a4f828261184f565b91505060408301518482036040860152611a6982826118f6565b91505060608301518482036060860152611a8382826119c1565b91505060808301518482036080860152611a9d82826119c1565b9150508091505092915050565b6000611ab68383611a1f565b905092915050565b6000602082019050919050565b6000611ad6826117ce565b611ae081856117d9565b935083602082028501611af2856117ea565b8060005b85811015611b2e5784840389528151611b0f8582611aaa565b9450611b1a83611abe565b925060208a01995050600181019050611af6565b50829750879550505050505092915050565b60006020820190508181036000830152611b5a8184611acb565b905092915050565b600082825260208201905092915050565b6000611b7e82611809565b611b888185611b62565b9350611b98818560208601611825565b611ba1816115f0565b840191505092915050565b6000606082019050611bc160008301866117a4565b8181036020830152611bd38185611b73565b90508181036040830152611be78184611b73565b9050949350505050565b600067ffffffffffffffff821115611c0c57611c0b611601565b5b602082029050602081019050919050565b611c26816118b4565b8114611c3157600080fd5b50565b600081359050611c4381611c1d565b92915050565b6000611c5c611c5784611bf1565b611661565b90508083825260208201905060208402830185811115611c7f57611c7e611329565b5b835b81811015611ca85780611c948882611c34565b845260208401935050602081019050611c81565b5050509392505050565b600082601f830112611cc757611cc661131f565b5b8135611cd7848260208601611c49565b91505092915050565b600067ffffffffffffffff821115611cfb57611cfa611601565b5b602082029050602081019050919050565b611d1581611980565b8114611d2057600080fd5b50565b600081359050611d3281611d0c565b92915050565b6000611d4b611d4684611ce0565b611661565b90508083825260208201905060208402830185811115611d6e57611d6d611329565b5b835b81811015611d975780611d838882611d23565b845260208401935050602081019050611d70565b5050509392505050565b600082601f830112611db657611db561131f565b5b8135611dc6848260208601611d38565b91505092915050565b600080600060608486031215611de857611de7611315565b5b600084013567ffffffffffffffff811115611e0657611e0561131a565b5b611e1286828701611cb2565b935050602084013567ffffffffffffffff811115611e3357611e3261131a565b5b611e3f86828701611da1565b925050604084013567ffffffffffffffff811115611e6057611e5f61131a565b5b611e6c86828701611da1565b9150509250925092565b60008115159050919050565b611e8b81611e76565b82525050565b6000602082019050611ea66000830184611e82565b92915050565b7f4964206d7573742062652067726561746572207468616e203000000000000000600082015250565b6000611ee2601983611b62565b9150611eed82611eac565b602082019050919050565b60006020820190508181036000830152611f1181611ed5565b9050919050565b7f4e616d65206d757374206265206174206c65617374203220636861726163746560008201527f7273206c6f6e6700000000000000000000000000000000000000000000000000602082015250565b6000611f74602783611b62565b9150611f7f82611f18565b604082019050919050565b60006020820190508181036000830152611fa381611f67565b9050919050565b7f506f6b656d6f6e206d7573742068617665206174206c65617374206f6e65207460008201527f7970650000000000000000000000000000000000000000000000000000000000602082015250565b6000612006602383611b62565b915061201182611faa565b604082019050919050565b6000602082019050818103600083015261203581611ff9565b9050919050565b7f506f6b656d6f6e206d7573742068617665206174206c65617374206f6e65207760008201527f65616b6e65737300000000000000000000000000000000000000000000000000602082015250565b6000612098602783611b62565b91506120a38261203c565b604082019050919050565b600060208201905081810360008301526120c78161208b565b9050919050565b7f506f6b656d6f6e20736b696c6c732c20747970657320616e64207765616b6e6560008201527f73736573206d7573742062652076616c69640000000000000000000000000000602082015250565b600061212a603283611b62565b9150612135826120ce565b604082019050919050565b600060208201905081810360008301526121598161211d565b9050919050565b7f4e487b7100000000000000000000000000000000000000000000000000000000600052602260045260246000fd5b600060028204905060018216806121a757607f821691505b6020821081036121ba576121b9612160565b5b50919050565b60008190508160005260206000209050919050565b60006020601f8301049050919050565b600082821b905092915050565b6000600883026122227fffffffffffffffffffffffffffffffffffffffffffffffffffffffffffffffff826121e5565b61222c86836121e5565b95508019841693508086168417925050509392505050565b6000819050919050565b600061226961226461225f84611384565b612244565b611384565b9050919050565b6000819050919050565b6122838361224e565b61229761228f82612270565b8484546121f2565b825550505050565b600090565b6122ac61229f565b6122b781848461227a565b505050565b5b818110156122db576122d06000826122a4565b6001810190506122bd565b5050565b601f821115612320576122f1816121c0565b6122fa846121d5565b81016020851015612309578190505b61231d612315856121d5565b8301826122bc565b50505b505050565b600082821c905092915050565b600061234360001984600802612325565b1980831691505092915050565b600061235c8383612332565b9150826002028217905092915050565b61237582611809565b67ffffffffffffffff81111561238e5761238d611601565b5b612398825461218f565b6123a38282856122df565b600060209050601f8311600181146123d657600084156123c4578287015190505b6123ce8582612350565b865550612436565b601f1984166123e4866121c0565b60005b8281101561240c578489015182556001820191506020850194506020810190506123e7565b868310156124295784890151612425601f891682612332565b8355505b6001600288020188555050505b505050505050565b7f4e487b7100000000000000000000000000000000000000000000000000000000600052601160045260246000fd5b600061247882611384565b91507fffffffffffffffffffffffffffffffffffffffffffffffffffffffffffffffff82036124aa576124a961243e565b5b600182019050919050565b600060a0830160008301516124cd60008601826117fa565b50602083015184820360208601526124e5828261184f565b915050604083015184820360408601526124ff82826118f6565b9150506060830151848203606086015261251982826119c1565b9150506080830151848203608086015261253382826119c1565b9150508091505092915050565b6000602082019050818103600083015261255a81846124b5565b905092915050565b7f4d6178696d756d206e756d626572206f6620736b696c6c732072656163686564600082015250565b6000612598602083611b62565b91506125a382612562565b602082019050919050565b600060208201905081810360008301526125c78161258b565b9050919050565b60006060830160008301516125e660008601826117fa565b50602083015184820360208601526125fe828261184f565b91505060408301518482036040860152612618828261184f565b9150508091505092915050565b600060408201905061263a60008301856117a4565b818103602083015261264c81846125ce565b90509392505050565b7f4d6178696d756d206e756d626572206f66207479706573207265616368656400600082015250565b600061268b601f83611b62565b915061269682612655565b602082019050919050565b600060208201905081810360008301526126ba8161267e565b9050919050565b60006060830160008301516126d960008601826117fa565b50602083015184820360208601526126f1828261184f565b9150506040830151848203604086015261270b828261184f565b9150508091505092915050565b600060408201905061272d60008301856117a4565b818103602083015261273f81846126c1565b90509392505050565b7f506f6b656d6f6e206d7573742068617665206174206c65617374206f6e65207360008201527f6b696c6c00000000000000000000000000000000000000000000000000000000602082015250565b60006127a4602483611b62565b91506127af82612748565b604082019050919050565b600060208201905081810360008301526127d381612797565b9050919050565b7f506f6b656d6f6e206d7573742068617665206174206d6f7374203420736b696c60008201527f6c73000000000000000000000000000000000000000000000000000000000000602082015250565b6000612836602283611b62565b9150612841826127da565b604082019050919050565b6000602082019050818103600083015261286581612829565b9050919050565b7f4e487b7100000000000000000000000000000000000000000000000000000000600052603260045260246000fdfea2646970667358221220e6b393d255817739655d07b8e1625d38656c2234ca14702e618355d152e7b9b864736f6c634300081200334669676874696e67207479706520706f6b656d6f6e20617265207765616b20616761696e737420666c79696e6720616e642070737963686963207479706520706f6b656d6f6e5468652074617267657420697320626c61737465642077697468206120666f72636566756c2073686f74206f662077617465722e46697265207479706520706f6b656d6f6e20617265207765616b20616761696e737420776174657220616e64206772617373207479706520706f6b656d6f6e456c656374726963207479706520706f6b656d6f6e20617265207765616b20616761696e73742067726f756e64207479706520706f6b656d6f6e4772617373207479706520706f6b656d6f6e20617265207765616b20616761696e7374206669726520616e6420696365207479706520706f6b656d6f6e546865207461726765742069732073636f7263686564207769746820616e20696e74656e736520626c617374206f6620666972652e2054686973206d617920616c736f206c65617665207468652074617267657420776974682061206275726e2e546865207461726765742069732061747461636b6564207769746820736d616c6c20666c616d65732e2054686973206d617920616c736f206c65617665207468652074617267657420776974682061206275726e2e5761746572207479706520706f6b656d6f6e20617265207765616b20616761696e737420677261737320616e6420656c656374726963207479706520706f6b656d6f6e41207265636b6c6573732c2066756c6c2d626f6479206368617267652061747461636b20666f7220736c616d6d696e6720696e746f20746865207461726765742e205468697320616c736f2064616d616765732074686520757365722061206c6974746c652e546865207461726765742069732062697474656e207769746820766963696f75736c792073686172702066616e67732e2054686973206d617920616c736f206d616b65207468652074617267657420666c696e63682e546865207461726765742069732073747275636b207769746820736c656e6465722c20776869706c696b652076696e657320746f20696e666c6963742064616d6167652e496365207479706520706f6b656d6f6e20617265207765616b20616761696e7374206669726520616e64206669676874696e67207479706520706f6b656d6f6e4120706879736963616c2061747461636b20696e207768696368207468652075736572206368617267657320616e6420736c616d7320696e746f20746865207461726765742077697468206974732077686f6c6520626f64792e",
  "linkReferences": {},
  "deployedLinkReferences": {}
}