{
	"PersonalRepo/solidity-eth-challenge/contracts/PokemonFactory.sol": {
		"PokemonFactory": {
			"abi": [
				{
					"inputs": [],
					"stateMutability": "nonpayable",
					"type": "constructor"
				},
				{
					"anonymous": false,
					"inputs": [
						{
							"components": [
								{
									"internalType": "uint256",
									"name": "id",
									"type": "uint256"
								},
								{
									"internalType": "string",
									"name": "name",
									"type": "string"
								},
								{
									"internalType": "uint256[]",
									"name": "skills",
									"type": "uint256[]"
								},
								{
									"internalType": "uint256[]",
									"name": "types",
									"type": "uint256[]"
								},
								{
									"internalType": "uint256[]",
									"name": "weaknesses",
									"type": "uint256[]"
								}
							],
							"indexed": false,
							"internalType": "struct PokemonFactory.Pokemon",
							"name": "_pokemon",
							"type": "tuple"
						}
					],
					"name": "eventNewPokemon",
					"type": "event"
				},
				{
					"anonymous": false,
					"inputs": [
						{
							"indexed": false,
							"internalType": "uint256",
							"name": "_id",
							"type": "uint256"
						},
						{
							"components": [
								{
									"internalType": "uint256",
									"name": "id",
									"type": "uint256"
								},
								{
									"internalType": "string",
									"name": "name",
									"type": "string"
								},
								{
									"internalType": "string",
									"name": "description",
									"type": "string"
								}
							],
							"indexed": false,
							"internalType": "struct PokemonFactory.PokemonSkill",
							"name": "_pokemonSkill",
							"type": "tuple"
						}
					],
					"name": "newPokemosSkill",
					"type": "event"
				},
				{
					"anonymous": false,
					"inputs": [
						{
							"indexed": false,
							"internalType": "uint256",
							"name": "_id",
							"type": "uint256"
						},
						{
							"components": [
								{
									"internalType": "uint256",
									"name": "id",
									"type": "uint256"
								},
								{
									"internalType": "string",
									"name": "name",
									"type": "string"
								},
								{
									"internalType": "string",
									"name": "description",
									"type": "string"
								}
							],
							"indexed": false,
							"internalType": "struct PokemonFactory.PokemonType",
							"name": "_pokemonType",
							"type": "tuple"
						}
					],
					"name": "newPokemosType",
					"type": "event"
				},
				{
					"inputs": [
						{
							"internalType": "string",
							"name": "_name",
							"type": "string"
						},
						{
							"internalType": "uint256",
							"name": "_id",
							"type": "uint256"
						},
						{
							"internalType": "uint256[]",
							"name": "_skills",
							"type": "uint256[]"
						},
						{
							"internalType": "uint256[]",
							"name": "_types",
							"type": "uint256[]"
						},
						{
							"internalType": "uint256[]",
							"name": "_weaknesses",
							"type": "uint256[]"
						}
					],
					"name": "createPokemon",
					"outputs": [],
					"stateMutability": "nonpayable",
					"type": "function"
				},
				{
					"inputs": [],
					"name": "getAllPokemons",
					"outputs": [
						{
							"components": [
								{
									"internalType": "uint256",
									"name": "id",
									"type": "uint256"
								},
								{
									"internalType": "string",
									"name": "name",
									"type": "string"
								},
								{
									"internalType": "uint256[]",
									"name": "skills",
									"type": "uint256[]"
								},
								{
									"internalType": "uint256[]",
									"name": "types",
									"type": "uint256[]"
								},
								{
									"internalType": "uint256[]",
									"name": "weaknesses",
									"type": "uint256[]"
								}
							],
							"internalType": "struct PokemonFactory.Pokemon[]",
							"name": "",
							"type": "tuple[]"
						}
					],
					"stateMutability": "view",
					"type": "function"
				},
				{
					"inputs": [],
					"name": "getResult",
					"outputs": [
						{
							"internalType": "uint256",
							"name": "product",
							"type": "uint256"
						},
						{
							"internalType": "uint256",
							"name": "sum",
							"type": "uint256"
						}
					],
					"stateMutability": "pure",
					"type": "function"
				},
				{
					"inputs": [
						{
							"internalType": "uint256",
							"name": "",
							"type": "uint256"
						}
					],
					"name": "pokemonSkills",
					"outputs": [
						{
							"internalType": "uint256",
							"name": "id",
							"type": "uint256"
						},
						{
							"internalType": "string",
							"name": "name",
							"type": "string"
						},
						{
							"internalType": "string",
							"name": "description",
							"type": "string"
						}
					],
					"stateMutability": "view",
					"type": "function"
				},
				{
					"inputs": [
						{
							"internalType": "uint256",
							"name": "",
							"type": "uint256"
						}
					],
					"name": "pokemonToOwner",
					"outputs": [
						{
							"internalType": "address",
							"name": "",
							"type": "address"
						}
					],
					"stateMutability": "view",
					"type": "function"
				},
				{
					"inputs": [
						{
							"internalType": "uint256",
							"name": "",
							"type": "uint256"
						}
					],
					"name": "pokemonTypes",
					"outputs": [
						{
							"internalType": "uint256",
							"name": "id",
							"type": "uint256"
						},
						{
							"internalType": "string",
							"name": "name",
							"type": "string"
						},
						{
							"internalType": "string",
							"name": "description",
							"type": "string"
						}
					],
					"stateMutability": "view",
					"type": "function"
				}
			],
			"devdoc": {
				"kind": "dev",
				"methods": {},
				"version": 1
			},
			"evm": {
				"assembly": "    /* \"PersonalRepo/solidity-eth-challenge/contracts/PokemonFactory.sol\":74:4118  contract PokemonFactory {... */\n  mstore(0x40, 0x80)\n    /* \"PersonalRepo/solidity-eth-challenge/contracts/PokemonFactory.sol\":807:2318  constructor () {... */\n  callvalue\n  dup1\n  iszero\n  tag_1\n  jumpi\n  0x00\n  dup1\n  revert\ntag_1:\n  pop\n    /* \"PersonalRepo/solidity-eth-challenge/contracts/PokemonFactory.sol\":831:922  createPokemonType(\"Fire\",\"Fire type pokemon are weak against water and grass type pokemon\") */\n  tag_4\n  mload(0x40)\n  dup1\n  0x40\n  add\n  0x40\n  mstore\n  dup1\n  0x04\n  dup2\n  mstore\n  0x20\n  add\n  0x4669726500000000000000000000000000000000000000000000000000000000\n  dup2\n  mstore\n  pop\n  mload(0x40)\n  dup1\n  0x60\n  add\n  0x40\n  mstore\n  dup1\n  0x3f\n  dup2\n  mstore\n  0x20\n  add\n  data_34b9d92c2ccd6d8463a38e64c4cdc228bc859cba6a7f0b7062460843f6f284af\n  0x3f\n  swap2\n  codecopy\n    /* \"PersonalRepo/solidity-eth-challenge/contracts/PokemonFactory.sol\":831:848  createPokemonType */\n  shl(0x20, tag_5)\n    /* \"PersonalRepo/solidity-eth-challenge/contracts/PokemonFactory.sol\":831:922  createPokemonType(\"Fire\",\"Fire type pokemon are weak against water and grass type pokemon\") */\n  0x20\n  shr\n  jump\t// in\ntag_4:\n  pop\n    /* \"PersonalRepo/solidity-eth-challenge/contracts/PokemonFactory.sol\":931:1027  createPokemonType(\"Water\",\"Water type pokemon are weak against grass and electric type pokemon\") */\n  tag_6\n  mload(0x40)\n  dup1\n  0x40\n  add\n  0x40\n  mstore\n  dup1\n  0x05\n  dup2\n  mstore\n  0x20\n  add\n  0x5761746572000000000000000000000000000000000000000000000000000000\n  dup2\n  mstore\n  pop\n  mload(0x40)\n  dup1\n  0x80\n  add\n  0x40\n  mstore\n  dup1\n  0x43\n  dup2\n  mstore\n  0x20\n  add\n  data_ae7f5747b7576ea49b40ae7303c6021a90522f651959910f0db9dbab64b72477\n  0x43\n  swap2\n  codecopy\n    /* \"PersonalRepo/solidity-eth-challenge/contracts/PokemonFactory.sol\":931:948  createPokemonType */\n  shl(0x20, tag_5)\n    /* \"PersonalRepo/solidity-eth-challenge/contracts/PokemonFactory.sol\":931:1027  createPokemonType(\"Water\",\"Water type pokemon are weak against grass and electric type pokemon\") */\n  0x20\n  shr\n  jump\t// in\ntag_6:\n  pop\n    /* \"PersonalRepo/solidity-eth-challenge/contracts/PokemonFactory.sol\":1036:1126  createPokemonType(\"Grass\",\"Grass type pokemon are weak against fire and ice type pokemon\") */\n  tag_7\n  mload(0x40)\n  dup1\n  0x40\n  add\n  0x40\n  mstore\n  dup1\n  0x05\n  dup2\n  mstore\n  0x20\n  add\n  0x4772617373000000000000000000000000000000000000000000000000000000\n  dup2\n  mstore\n  pop\n  mload(0x40)\n  dup1\n  0x60\n  add\n  0x40\n  mstore\n  dup1\n  0x3d\n  dup2\n  mstore\n  0x20\n  add\n  data_39de8000e50e5d660a870f4002f69957bc3eb3098a523d5c45f6665d169abcf2\n  0x3d\n  swap2\n  codecopy\n    /* \"PersonalRepo/solidity-eth-challenge/contracts/PokemonFactory.sol\":1036:1053  createPokemonType */\n  shl(0x20, tag_5)\n    /* \"PersonalRepo/solidity-eth-challenge/contracts/PokemonFactory.sol\":1036:1126  createPokemonType(\"Grass\",\"Grass type pokemon are weak against fire and ice type pokemon\") */\n  0x20\n  shr\n  jump\t// in\ntag_7:\n  pop\n    /* \"PersonalRepo/solidity-eth-challenge/contracts/PokemonFactory.sol\":1135:1225  createPokemonType(\"Electric\",\"Electric type pokemon are weak against ground type pokemon\") */\n  tag_8\n  mload(0x40)\n  dup1\n  0x40\n  add\n  0x40\n  mstore\n  dup1\n  0x08\n  dup2\n  mstore\n  0x20\n  add\n  0x456c656374726963000000000000000000000000000000000000000000000000\n  dup2\n  mstore\n  pop\n  mload(0x40)\n  dup1\n  0x60\n  add\n  0x40\n  mstore\n  dup1\n  0x3a\n  dup2\n  mstore\n  0x20\n  add\n  data_37fc6f7be9015687eeab03ca24bc67a48ada5dc2224f506e12f930417db5d536\n  0x3a\n  swap2\n  codecopy\n    /* \"PersonalRepo/solidity-eth-challenge/contracts/PokemonFactory.sol\":1135:1152  createPokemonType */\n  shl(0x20, tag_5)\n    /* \"PersonalRepo/solidity-eth-challenge/contracts/PokemonFactory.sol\":1135:1225  createPokemonType(\"Electric\",\"Electric type pokemon are weak against ground type pokemon\") */\n  0x20\n  shr\n  jump\t// in\ntag_8:\n  pop\n    /* \"PersonalRepo/solidity-eth-challenge/contracts/PokemonFactory.sol\":1234:1325  createPokemonType(\"Ice\",\"Ice type pokemon are weak against fire and fighting type pokemon\") */\n  tag_9\n  mload(0x40)\n  dup1\n  0x40\n  add\n  0x40\n  mstore\n  dup1\n  0x03\n  dup2\n  mstore\n  0x20\n  add\n  0x4963650000000000000000000000000000000000000000000000000000000000\n  dup2\n  mstore\n  pop\n  mload(0x40)\n  dup1\n  0x60\n  add\n  0x40\n  mstore\n  dup1\n  0x40\n  dup2\n  mstore\n  0x20\n  add\n  data_dcd5f7be2b3962c9154b1fa0f4eb4504f8b7f882c03aedfdb87004cbe099f56e\n  0x40\n  swap2\n  codecopy\n    /* \"PersonalRepo/solidity-eth-challenge/contracts/PokemonFactory.sol\":1234:1251  createPokemonType */\n  shl(0x20, tag_5)\n    /* \"PersonalRepo/solidity-eth-challenge/contracts/PokemonFactory.sol\":1234:1325  createPokemonType(\"Ice\",\"Ice type pokemon are weak against fire and fighting type pokemon\") */\n  0x20\n  shr\n  jump\t// in\ntag_9:\n  pop\n    /* \"PersonalRepo/solidity-eth-challenge/contracts/PokemonFactory.sol\":1334:1436  createPokemonType(\"Fighting\",\"Fighting type pokemon are weak against flying and psychic type pokemon\") */\n  tag_10\n  mload(0x40)\n  dup1\n  0x40\n  add\n  0x40\n  mstore\n  dup1\n  0x08\n  dup2\n  mstore\n  0x20\n  add\n  0x4669676874696e67000000000000000000000000000000000000000000000000\n  dup2\n  mstore\n  pop\n  mload(0x40)\n  dup1\n  0x80\n  add\n  0x40\n  mstore\n  dup1\n  0x46\n  dup2\n  mstore\n  0x20\n  add\n  data_0582bbc0b5f7d3c3638be0945379340329c840ef69b57c1a72c47d0bfcd74f56\n  0x46\n  swap2\n  codecopy\n    /* \"PersonalRepo/solidity-eth-challenge/contracts/PokemonFactory.sol\":1334:1351  createPokemonType */\n  shl(0x20, tag_5)\n    /* \"PersonalRepo/solidity-eth-challenge/contracts/PokemonFactory.sol\":1334:1436  createPokemonType(\"Fighting\",\"Fighting type pokemon are weak against flying and psychic type pokemon\") */\n  0x20\n  shr\n  jump\t// in\ntag_10:\n  pop\n    /* \"PersonalRepo/solidity-eth-challenge/contracts/PokemonFactory.sol\":1447:1568  createPokemonSkill(\"Tackle\",\"A physical attack in which the user charges and slams into the target with its whole body.\") */\n  tag_11\n  mload(0x40)\n  dup1\n  0x40\n  add\n  0x40\n  mstore\n  dup1\n  0x06\n  dup2\n  mstore\n  0x20\n  add\n  0x5461636b6c650000000000000000000000000000000000000000000000000000\n  dup2\n  mstore\n  pop\n  mload(0x40)\n  dup1\n  0x80\n  add\n  0x40\n  mstore\n  dup1\n  0x5a\n  dup2\n  mstore\n  0x20\n  add\n  data_e1cc9c62505e15dd0735afaeacc8ee9579bb00bb72e8f23921d863aa16bb5327\n  0x5a\n  swap2\n  codecopy\n    /* \"PersonalRepo/solidity-eth-challenge/contracts/PokemonFactory.sol\":1447:1465  createPokemonSkill */\n  shl(0x20, tag_12)\n    /* \"PersonalRepo/solidity-eth-challenge/contracts/PokemonFactory.sol\":1447:1568  createPokemonSkill(\"Tackle\",\"A physical attack in which the user charges and slams into the target with its whole body.\") */\n  0x20\n  shr\n  jump\t// in\ntag_11:\n  pop\n    /* \"PersonalRepo/solidity-eth-challenge/contracts/PokemonFactory.sol\":1577:1692  createPokemonSkill(\"Ember\",\"The target is attacked with small flames. This may also leave the target with a burn.\") */\n  tag_13\n  mload(0x40)\n  dup1\n  0x40\n  add\n  0x40\n  mstore\n  dup1\n  0x05\n  dup2\n  mstore\n  0x20\n  add\n  0x456d626572000000000000000000000000000000000000000000000000000000\n  dup2\n  mstore\n  pop\n  mload(0x40)\n  dup1\n  0x80\n  add\n  0x40\n  mstore\n  dup1\n  0x55\n  dup2\n  mstore\n  0x20\n  add\n  data_8a5bc958f580eaaae5ad9e41f00c6a2b07b0fce3fbdbd2316ced737d2bea2fc6\n  0x55\n  swap2\n  codecopy\n    /* \"PersonalRepo/solidity-eth-challenge/contracts/PokemonFactory.sol\":1577:1595  createPokemonSkill */\n  shl(0x20, tag_12)\n    /* \"PersonalRepo/solidity-eth-challenge/contracts/PokemonFactory.sol\":1577:1692  createPokemonSkill(\"Ember\",\"The target is attacked with small flames. This may also leave the target with a burn.\") */\n  0x20\n  shr\n  jump\t// in\ntag_13:\n  pop\n    /* \"PersonalRepo/solidity-eth-challenge/contracts/PokemonFactory.sol\":1701:1803  createPokemonSkill(\"Vine Whip\",\"The target is struck with slender, whiplike vines to inflict damage.\") */\n  tag_14\n  mload(0x40)\n  dup1\n  0x40\n  add\n  0x40\n  mstore\n  dup1\n  0x09\n  dup2\n  mstore\n  0x20\n  add\n  0x56696e6520576869700000000000000000000000000000000000000000000000\n  dup2\n  mstore\n  pop\n  mload(0x40)\n  dup1\n  0x80\n  add\n  0x40\n  mstore\n  dup1\n  0x44\n  dup2\n  mstore\n  0x20\n  add\n  data_da711a57656ae451439bfba4f68491de9ce2a0a34d62710a3a861da2eddde1f9\n  0x44\n  swap2\n  codecopy\n    /* \"PersonalRepo/solidity-eth-challenge/contracts/PokemonFactory.sol\":1701:1719  createPokemonSkill */\n  shl(0x20, tag_12)\n    /* \"PersonalRepo/solidity-eth-challenge/contracts/PokemonFactory.sol\":1701:1803  createPokemonSkill(\"Vine Whip\",\"The target is struck with slender, whiplike vines to inflict damage.\") */\n  0x20\n  shr\n  jump\t// in\ntag_14:\n  pop\n    /* \"PersonalRepo/solidity-eth-challenge/contracts/PokemonFactory.sol\":1812:1898  createPokemonSkill(\"Water Gun\",\"The target is blasted with a forceful shot of water.\") */\n  tag_15\n  mload(0x40)\n  dup1\n  0x40\n  add\n  0x40\n  mstore\n  dup1\n  0x09\n  dup2\n  mstore\n  0x20\n  add\n  0x57617465722047756e0000000000000000000000000000000000000000000000\n  dup2\n  mstore\n  pop\n  mload(0x40)\n  dup1\n  0x60\n  add\n  0x40\n  mstore\n  dup1\n  0x34\n  dup2\n  mstore\n  0x20\n  add\n  data_0d0785018c6410a6fbac61575f0a4c67b6d687423d1764ca9acb0cb9cce703bf\n  0x34\n  swap2\n  codecopy\n    /* \"PersonalRepo/solidity-eth-challenge/contracts/PokemonFactory.sol\":1812:1830  createPokemonSkill */\n  shl(0x20, tag_12)\n    /* \"PersonalRepo/solidity-eth-challenge/contracts/PokemonFactory.sol\":1812:1898  createPokemonSkill(\"Water Gun\",\"The target is blasted with a forceful shot of water.\") */\n  0x20\n  shr\n  jump\t// in\ntag_15:\n  pop\n    /* \"PersonalRepo/solidity-eth-challenge/contracts/PokemonFactory.sol\":1907:2043  createPokemonSkill(\"Take Down\",\"A reckless, full-body charge attack for slamming into the target. This also damages the user a little.\") */\n  tag_16\n  mload(0x40)\n  dup1\n  0x40\n  add\n  0x40\n  mstore\n  dup1\n  0x09\n  dup2\n  mstore\n  0x20\n  add\n  0x54616b6520446f776e0000000000000000000000000000000000000000000000\n  dup2\n  mstore\n  pop\n  mload(0x40)\n  dup1\n  0xa0\n  add\n  0x40\n  mstore\n  dup1\n  0x66\n  dup2\n  mstore\n  0x20\n  add\n  data_ca404ee9eafe7b2ae9b928dbd338138af8d95f565c47517dd15346af5aa088a8\n  0x66\n  swap2\n  codecopy\n    /* \"PersonalRepo/solidity-eth-challenge/contracts/PokemonFactory.sol\":1907:1925  createPokemonSkill */\n  shl(0x20, tag_12)\n    /* \"PersonalRepo/solidity-eth-challenge/contracts/PokemonFactory.sol\":1907:2043  createPokemonSkill(\"Take Down\",\"A reckless, full-body charge attack for slamming into the target. This also damages the user a little.\") */\n  0x20\n  shr\n  jump\t// in\ntag_16:\n  pop\n    /* \"PersonalRepo/solidity-eth-challenge/contracts/PokemonFactory.sol\":2052:2167  createPokemonSkill(\"Bite\",\"The target is bitten with viciously sharp fangs. This may also make the target flinch.\") */\n  tag_17\n  mload(0x40)\n  dup1\n  0x40\n  add\n  0x40\n  mstore\n  dup1\n  0x04\n  dup2\n  mstore\n  0x20\n  add\n  0x4269746500000000000000000000000000000000000000000000000000000000\n  dup2\n  mstore\n  pop\n  mload(0x40)\n  dup1\n  0x80\n  add\n  0x40\n  mstore\n  dup1\n  0x56\n  dup2\n  mstore\n  0x20\n  add\n  data_cddc5086ecd25ac569608a9197e5dedc5d0f85faa00a0f87e61f4250471fe63b\n  0x56\n  swap2\n  codecopy\n    /* \"PersonalRepo/solidity-eth-challenge/contracts/PokemonFactory.sol\":2052:2070  createPokemonSkill */\n  shl(0x20, tag_12)\n    /* \"PersonalRepo/solidity-eth-challenge/contracts/PokemonFactory.sol\":2052:2167  createPokemonSkill(\"Bite\",\"The target is bitten with viciously sharp fangs. This may also make the target flinch.\") */\n  0x20\n  shr\n  jump\t// in\ntag_17:\n  pop\n    /* \"PersonalRepo/solidity-eth-challenge/contracts/PokemonFactory.sol\":2176:2310  createPokemonSkill(\"Flamethrower\",\"The target is scorched with an intense blast of fire. This may also leave the target with a burn.\") */\n  tag_18\n  mload(0x40)\n  dup1\n  0x40\n  add\n  0x40\n  mstore\n  dup1\n  0x0c\n  dup2\n  mstore\n  0x20\n  add\n  0x466c616d657468726f7765720000000000000000000000000000000000000000\n  dup2\n  mstore\n  pop\n  mload(0x40)\n  dup1\n  0xa0\n  add\n  0x40\n  mstore\n  dup1\n  0x61\n  dup2\n  mstore\n  0x20\n  add\n  data_406c611b6361b15ebf1b84bc5ee34dd645a0789cfc9fc4aab820f62d00216ab4\n  0x61\n  swap2\n  codecopy\n    /* \"PersonalRepo/solidity-eth-challenge/contracts/PokemonFactory.sol\":2176:2194  createPokemonSkill */\n  shl(0x20, tag_12)\n    /* \"PersonalRepo/solidity-eth-challenge/contracts/PokemonFactory.sol\":2176:2310  createPokemonSkill(\"Flamethrower\",\"The target is scorched with an intense blast of fire. This may also leave the target with a burn.\") */\n  0x20\n  shr\n  jump\t// in\ntag_18:\n  pop\n    /* \"PersonalRepo/solidity-eth-challenge/contracts/PokemonFactory.sol\":74:4118  contract PokemonFactory {... */\n  jump(tag_19)\n    /* \"PersonalRepo/solidity-eth-challenge/contracts/PokemonFactory.sol\":2717:3092  function createPokemonType(string memory _name,string memory _description) private returns (uint){... */\ntag_5:\n    /* \"PersonalRepo/solidity-eth-challenge/contracts/PokemonFactory.sol\":2809:2813  uint */\n  0x00\n    /* \"PersonalRepo/solidity-eth-challenge/contracts/PokemonFactory.sol\":2854:2855  2 */\n  0x02\n    /* \"PersonalRepo/solidity-eth-challenge/contracts/PokemonFactory.sol\":2837:2842  _name */\n  dup4\n    /* \"PersonalRepo/solidity-eth-challenge/contracts/PokemonFactory.sol\":2831:2850  bytes(_name).length */\n  mload\n    /* \"PersonalRepo/solidity-eth-challenge/contracts/PokemonFactory.sol\":2831:2855  bytes(_name).length >= 2 */\n  lt\n  iszero\n    /* \"PersonalRepo/solidity-eth-challenge/contracts/PokemonFactory.sol\":2823:2899  require(bytes(_name).length >= 2, \"Name must be at least 2 characters long\") */\n  tag_21\n  jumpi\n  mload(0x40)\n  0x08c379a000000000000000000000000000000000000000000000000000000000\n  dup2\n  mstore\n  0x04\n  add\n  tag_22\n  swap1\n  tag_23\n  jump\t// in\ntag_22:\n  mload(0x40)\n  dup1\n  swap2\n  sub\n  swap1\n  revert\ntag_21:\n    /* \"PersonalRepo/solidity-eth-challenge/contracts/PokemonFactory.sol\":2908:2915  uint id */\n  0x00\n    /* \"PersonalRepo/solidity-eth-challenge/contracts/PokemonFactory.sol\":2918:2930  pokemonTypes */\n  0x04\n    /* \"PersonalRepo/solidity-eth-challenge/contracts/PokemonFactory.sol\":2918:2937  pokemonTypes.length */\n  dup1\n  sload\n  swap1\n  pop\n    /* \"PersonalRepo/solidity-eth-challenge/contracts/PokemonFactory.sol\":2908:2937  uint id = pokemonTypes.length */\n  swap1\n  pop\n    /* \"PersonalRepo/solidity-eth-challenge/contracts/PokemonFactory.sol\":2946:2958  pokemonTypes */\n  0x04\n    /* \"PersonalRepo/solidity-eth-challenge/contracts/PokemonFactory.sol\":2964:2998  PokemonType(id,_name,_description) */\n  mload(0x40)\n  dup1\n  0x60\n  add\n  0x40\n  mstore\n  dup1\n    /* \"PersonalRepo/solidity-eth-challenge/contracts/PokemonFactory.sol\":2976:2978  id */\n  dup4\n    /* \"PersonalRepo/solidity-eth-challenge/contracts/PokemonFactory.sol\":2964:2998  PokemonType(id,_name,_description) */\n  dup2\n  mstore\n  0x20\n  add\n    /* \"PersonalRepo/solidity-eth-challenge/contracts/PokemonFactory.sol\":2979:2984  _name */\n  dup7\n    /* \"PersonalRepo/solidity-eth-challenge/contracts/PokemonFactory.sol\":2964:2998  PokemonType(id,_name,_description) */\n  dup2\n  mstore\n  0x20\n  add\n    /* \"PersonalRepo/solidity-eth-challenge/contracts/PokemonFactory.sol\":2985:2997  _description */\n  dup6\n    /* \"PersonalRepo/solidity-eth-challenge/contracts/PokemonFactory.sol\":2964:2998  PokemonType(id,_name,_description) */\n  dup2\n  mstore\n  pop\n    /* \"PersonalRepo/solidity-eth-challenge/contracts/PokemonFactory.sol\":2946:2999  pokemonTypes.push(PokemonType(id,_name,_description)) */\n  swap1\n  dup1\n  0x01\n  dup2\n  sload\n  add\n  dup1\n  dup3\n  sstore\n  dup1\n  swap2\n  pop\n  pop\n  0x01\n  swap1\n  sub\n  swap1\n  0x00\n  mstore\n  keccak256(0x00, 0x20)\n  swap1\n  0x03\n  mul\n  add\n  0x00\n  swap1\n  swap2\n  swap1\n  swap2\n  swap1\n  swap2\n  pop\n  0x00\n  dup3\n  add\n  mload\n  dup2\n  0x00\n  add\n  sstore\n  0x20\n  dup3\n  add\n  mload\n  dup2\n  0x01\n  add\n  swap1\n  dup2\n  tag_25\n  swap2\n  swap1\n  tag_26\n  jump\t// in\ntag_25:\n  pop\n  0x40\n  dup3\n  add\n  mload\n  dup2\n  0x02\n  add\n  swap1\n  dup2\n  tag_27\n  swap2\n  swap1\n  tag_26\n  jump\t// in\ntag_27:\n  pop\n  pop\n  pop\n    /* \"PersonalRepo/solidity-eth-challenge/contracts/PokemonFactory.sol\":3013:3066  newPokemosType(id,PokemonType(id,_name,_description)) */\n  0x6b54179a51d98751b56e9854f101a8bc66580317818848ffe11418b2a070df56\n    /* \"PersonalRepo/solidity-eth-challenge/contracts/PokemonFactory.sol\":3028:3030  id */\n  dup2\n    /* \"PersonalRepo/solidity-eth-challenge/contracts/PokemonFactory.sol\":3031:3065  PokemonType(id,_name,_description) */\n  mload(0x40)\n  dup1\n  0x60\n  add\n  0x40\n  mstore\n  dup1\n    /* \"PersonalRepo/solidity-eth-challenge/contracts/PokemonFactory.sol\":3043:3045  id */\n  dup5\n    /* \"PersonalRepo/solidity-eth-challenge/contracts/PokemonFactory.sol\":3031:3065  PokemonType(id,_name,_description) */\n  dup2\n  mstore\n  0x20\n  add\n    /* \"PersonalRepo/solidity-eth-challenge/contracts/PokemonFactory.sol\":3046:3051  _name */\n  dup8\n    /* \"PersonalRepo/solidity-eth-challenge/contracts/PokemonFactory.sol\":3031:3065  PokemonType(id,_name,_description) */\n  dup2\n  mstore\n  0x20\n  add\n    /* \"PersonalRepo/solidity-eth-challenge/contracts/PokemonFactory.sol\":3052:3064  _description */\n  dup7\n    /* \"PersonalRepo/solidity-eth-challenge/contracts/PokemonFactory.sol\":3031:3065  PokemonType(id,_name,_description) */\n  dup2\n  mstore\n  pop\n    /* \"PersonalRepo/solidity-eth-challenge/contracts/PokemonFactory.sol\":3013:3066  newPokemosType(id,PokemonType(id,_name,_description)) */\n  mload(0x40)\n  tag_28\n  swap3\n  swap2\n  swap1\n  tag_29\n  jump\t// in\ntag_28:\n  mload(0x40)\n  dup1\n  swap2\n  sub\n  swap1\n  log1\n    /* \"PersonalRepo/solidity-eth-challenge/contracts/PokemonFactory.sol\":3082:3084  id */\n  dup1\n    /* \"PersonalRepo/solidity-eth-challenge/contracts/PokemonFactory.sol\":3075:3084  return id */\n  swap2\n  pop\n  pop\n    /* \"PersonalRepo/solidity-eth-challenge/contracts/PokemonFactory.sol\":2717:3092  function createPokemonType(string memory _name,string memory _description) private returns (uint){... */\n  swap3\n  swap2\n  pop\n  pop\n  jump\t// out\n    /* \"PersonalRepo/solidity-eth-challenge/contracts/PokemonFactory.sol\":2328:2709  function createPokemonSkill(string memory _name,string memory _description) private returns (uint){... */\ntag_12:\n    /* \"PersonalRepo/solidity-eth-challenge/contracts/PokemonFactory.sol\":2421:2425  uint */\n  0x00\n    /* \"PersonalRepo/solidity-eth-challenge/contracts/PokemonFactory.sol\":2466:2467  2 */\n  0x02\n    /* \"PersonalRepo/solidity-eth-challenge/contracts/PokemonFactory.sol\":2449:2454  _name */\n  dup4\n    /* \"PersonalRepo/solidity-eth-challenge/contracts/PokemonFactory.sol\":2443:2462  bytes(_name).length */\n  mload\n    /* \"PersonalRepo/solidity-eth-challenge/contracts/PokemonFactory.sol\":2443:2467  bytes(_name).length >= 2 */\n  lt\n  iszero\n    /* \"PersonalRepo/solidity-eth-challenge/contracts/PokemonFactory.sol\":2435:2511  require(bytes(_name).length >= 2, \"Name must be at least 2 characters long\") */\n  tag_31\n  jumpi\n  mload(0x40)\n  0x08c379a000000000000000000000000000000000000000000000000000000000\n  dup2\n  mstore\n  0x04\n  add\n  tag_32\n  swap1\n  tag_23\n  jump\t// in\ntag_32:\n  mload(0x40)\n  dup1\n  swap2\n  sub\n  swap1\n  revert\ntag_31:\n    /* \"PersonalRepo/solidity-eth-challenge/contracts/PokemonFactory.sol\":2520:2527  uint id */\n  0x00\n    /* \"PersonalRepo/solidity-eth-challenge/contracts/PokemonFactory.sol\":2530:2543  pokemonSkills */\n  0x03\n    /* \"PersonalRepo/solidity-eth-challenge/contracts/PokemonFactory.sol\":2530:2550  pokemonSkills.length */\n  dup1\n  sload\n  swap1\n  pop\n    /* \"PersonalRepo/solidity-eth-challenge/contracts/PokemonFactory.sol\":2520:2550  uint id = pokemonSkills.length */\n  swap1\n  pop\n    /* \"PersonalRepo/solidity-eth-challenge/contracts/PokemonFactory.sol\":2559:2572  pokemonSkills */\n  0x03\n    /* \"PersonalRepo/solidity-eth-challenge/contracts/PokemonFactory.sol\":2578:2613  PokemonSkill(id,_name,_description) */\n  mload(0x40)\n  dup1\n  0x60\n  add\n  0x40\n  mstore\n  dup1\n    /* \"PersonalRepo/solidity-eth-challenge/contracts/PokemonFactory.sol\":2591:2593  id */\n  dup4\n    /* \"PersonalRepo/solidity-eth-challenge/contracts/PokemonFactory.sol\":2578:2613  PokemonSkill(id,_name,_description) */\n  dup2\n  mstore\n  0x20\n  add\n    /* \"PersonalRepo/solidity-eth-challenge/contracts/PokemonFactory.sol\":2594:2599  _name */\n  dup7\n    /* \"PersonalRepo/solidity-eth-challenge/contracts/PokemonFactory.sol\":2578:2613  PokemonSkill(id,_name,_description) */\n  dup2\n  mstore\n  0x20\n  add\n    /* \"PersonalRepo/solidity-eth-challenge/contracts/PokemonFactory.sol\":2600:2612  _description */\n  dup6\n    /* \"PersonalRepo/solidity-eth-challenge/contracts/PokemonFactory.sol\":2578:2613  PokemonSkill(id,_name,_description) */\n  dup2\n  mstore\n  pop\n    /* \"PersonalRepo/solidity-eth-challenge/contracts/PokemonFactory.sol\":2559:2614  pokemonSkills.push(PokemonSkill(id,_name,_description)) */\n  swap1\n  dup1\n  0x01\n  dup2\n  sload\n  add\n  dup1\n  dup3\n  sstore\n  dup1\n  swap2\n  pop\n  pop\n  0x01\n  swap1\n  sub\n  swap1\n  0x00\n  mstore\n  keccak256(0x00, 0x20)\n  swap1\n  0x03\n  mul\n  add\n  0x00\n  swap1\n  swap2\n  swap1\n  swap2\n  swap1\n  swap2\n  pop\n  0x00\n  dup3\n  add\n  mload\n  dup2\n  0x00\n  add\n  sstore\n  0x20\n  dup3\n  add\n  mload\n  dup2\n  0x01\n  add\n  swap1\n  dup2\n  tag_34\n  swap2\n  swap1\n  tag_26\n  jump\t// in\ntag_34:\n  pop\n  0x40\n  dup3\n  add\n  mload\n  dup2\n  0x02\n  add\n  swap1\n  dup2\n  tag_35\n  swap2\n  swap1\n  tag_26\n  jump\t// in\ntag_35:\n  pop\n  pop\n  pop\n    /* \"PersonalRepo/solidity-eth-challenge/contracts/PokemonFactory.sol\":2628:2683  newPokemosSkill(id,PokemonSkill(id,_name,_description)) */\n  0x80e541f486172623665f7d923cf03b7164d42f9823d756f08c19790192be7e13\n    /* \"PersonalRepo/solidity-eth-challenge/contracts/PokemonFactory.sol\":2644:2646  id */\n  dup2\n    /* \"PersonalRepo/solidity-eth-challenge/contracts/PokemonFactory.sol\":2647:2682  PokemonSkill(id,_name,_description) */\n  mload(0x40)\n  dup1\n  0x60\n  add\n  0x40\n  mstore\n  dup1\n    /* \"PersonalRepo/solidity-eth-challenge/contracts/PokemonFactory.sol\":2660:2662  id */\n  dup5\n    /* \"PersonalRepo/solidity-eth-challenge/contracts/PokemonFactory.sol\":2647:2682  PokemonSkill(id,_name,_description) */\n  dup2\n  mstore\n  0x20\n  add\n    /* \"PersonalRepo/solidity-eth-challenge/contracts/PokemonFactory.sol\":2663:2668  _name */\n  dup8\n    /* \"PersonalRepo/solidity-eth-challenge/contracts/PokemonFactory.sol\":2647:2682  PokemonSkill(id,_name,_description) */\n  dup2\n  mstore\n  0x20\n  add\n    /* \"PersonalRepo/solidity-eth-challenge/contracts/PokemonFactory.sol\":2669:2681  _description */\n  dup7\n    /* \"PersonalRepo/solidity-eth-challenge/contracts/PokemonFactory.sol\":2647:2682  PokemonSkill(id,_name,_description) */\n  dup2\n  mstore\n  pop\n    /* \"PersonalRepo/solidity-eth-challenge/contracts/PokemonFactory.sol\":2628:2683  newPokemosSkill(id,PokemonSkill(id,_name,_description)) */\n  mload(0x40)\n  tag_36\n  swap3\n  swap2\n  swap1\n  tag_37\n  jump\t// in\ntag_36:\n  mload(0x40)\n  dup1\n  swap2\n  sub\n  swap1\n  log1\n    /* \"PersonalRepo/solidity-eth-challenge/contracts/PokemonFactory.sol\":2699:2701  id */\n  dup1\n    /* \"PersonalRepo/solidity-eth-challenge/contracts/PokemonFactory.sol\":2692:2701  return id */\n  swap2\n  pop\n  pop\n    /* \"PersonalRepo/solidity-eth-challenge/contracts/PokemonFactory.sol\":2328:2709  function createPokemonSkill(string memory _name,string memory _description) private returns (uint){... */\n  swap3\n  swap2\n  pop\n  pop\n  jump\t// out\n    /* \"#utility.yul\":7:176   */\ntag_38:\n    /* \"#utility.yul\":91:102   */\n  0x00\n    /* \"#utility.yul\":125:131   */\n  dup3\n    /* \"#utility.yul\":120:123   */\n  dup3\n    /* \"#utility.yul\":113:132   */\n  mstore\n    /* \"#utility.yul\":165:169   */\n  0x20\n    /* \"#utility.yul\":160:163   */\n  dup3\n    /* \"#utility.yul\":156:170   */\n  add\n    /* \"#utility.yul\":141:170   */\n  swap1\n  pop\n    /* \"#utility.yul\":7:176   */\n  swap3\n  swap2\n  pop\n  pop\n  jump\t// out\n    /* \"#utility.yul\":182:408   */\ntag_39:\n    /* \"#utility.yul\":322:356   */\n  0x4e616d65206d757374206265206174206c656173742032206368617261637465\n    /* \"#utility.yul\":318:319   */\n  0x00\n    /* \"#utility.yul\":310:316   */\n  dup3\n    /* \"#utility.yul\":306:320   */\n  add\n    /* \"#utility.yul\":299:357   */\n  mstore\n    /* \"#utility.yul\":391:400   */\n  0x7273206c6f6e6700000000000000000000000000000000000000000000000000\n    /* \"#utility.yul\":386:388   */\n  0x20\n    /* \"#utility.yul\":378:384   */\n  dup3\n    /* \"#utility.yul\":374:389   */\n  add\n    /* \"#utility.yul\":367:401   */\n  mstore\n    /* \"#utility.yul\":182:408   */\n  pop\n  jump\t// out\n    /* \"#utility.yul\":414:780   */\ntag_40:\n    /* \"#utility.yul\":556:559   */\n  0x00\n    /* \"#utility.yul\":577:644   */\n  tag_73\n    /* \"#utility.yul\":641:643   */\n  0x27\n    /* \"#utility.yul\":636:639   */\n  dup4\n    /* \"#utility.yul\":577:644   */\n  tag_38\n  jump\t// in\ntag_73:\n    /* \"#utility.yul\":570:644   */\n  swap2\n  pop\n    /* \"#utility.yul\":653:746   */\n  tag_74\n    /* \"#utility.yul\":742:745   */\n  dup3\n    /* \"#utility.yul\":653:746   */\n  tag_39\n  jump\t// in\ntag_74:\n    /* \"#utility.yul\":771:773   */\n  0x40\n    /* \"#utility.yul\":766:769   */\n  dup3\n    /* \"#utility.yul\":762:774   */\n  add\n    /* \"#utility.yul\":755:774   */\n  swap1\n  pop\n    /* \"#utility.yul\":414:780   */\n  swap2\n  swap1\n  pop\n  jump\t// out\n    /* \"#utility.yul\":786:1205   */\ntag_23:\n    /* \"#utility.yul\":952:956   */\n  0x00\n    /* \"#utility.yul\":990:992   */\n  0x20\n    /* \"#utility.yul\":979:988   */\n  dup3\n    /* \"#utility.yul\":975:993   */\n  add\n    /* \"#utility.yul\":967:993   */\n  swap1\n  pop\n    /* \"#utility.yul\":1039:1048   */\n  dup2\n    /* \"#utility.yul\":1033:1037   */\n  dup2\n    /* \"#utility.yul\":1029:1049   */\n  sub\n    /* \"#utility.yul\":1025:1026   */\n  0x00\n    /* \"#utility.yul\":1014:1023   */\n  dup4\n    /* \"#utility.yul\":1010:1027   */\n  add\n    /* \"#utility.yul\":1003:1050   */\n  mstore\n    /* \"#utility.yul\":1067:1198   */\n  tag_76\n    /* \"#utility.yul\":1193:1197   */\n  dup2\n    /* \"#utility.yul\":1067:1198   */\n  tag_40\n  jump\t// in\ntag_76:\n    /* \"#utility.yul\":1059:1198   */\n  swap1\n  pop\n    /* \"#utility.yul\":786:1205   */\n  swap2\n  swap1\n  pop\n  jump\t// out\n    /* \"#utility.yul\":1211:1310   */\ntag_41:\n    /* \"#utility.yul\":1263:1269   */\n  0x00\n    /* \"#utility.yul\":1297:1302   */\n  dup2\n    /* \"#utility.yul\":1291:1303   */\n  mload\n    /* \"#utility.yul\":1281:1303   */\n  swap1\n  pop\n    /* \"#utility.yul\":1211:1310   */\n  swap2\n  swap1\n  pop\n  jump\t// out\n    /* \"#utility.yul\":1316:1496   */\ntag_42:\n    /* \"#utility.yul\":1364:1441   */\n  0x4e487b7100000000000000000000000000000000000000000000000000000000\n    /* \"#utility.yul\":1361:1362   */\n  0x00\n    /* \"#utility.yul\":1354:1442   */\n  mstore\n    /* \"#utility.yul\":1461:1465   */\n  0x41\n    /* \"#utility.yul\":1458:1459   */\n  0x04\n    /* \"#utility.yul\":1451:1466   */\n  mstore\n    /* \"#utility.yul\":1485:1489   */\n  0x24\n    /* \"#utility.yul\":1482:1483   */\n  0x00\n    /* \"#utility.yul\":1475:1490   */\n  revert\n    /* \"#utility.yul\":1502:1682   */\ntag_43:\n    /* \"#utility.yul\":1550:1627   */\n  0x4e487b7100000000000000000000000000000000000000000000000000000000\n    /* \"#utility.yul\":1547:1548   */\n  0x00\n    /* \"#utility.yul\":1540:1628   */\n  mstore\n    /* \"#utility.yul\":1647:1651   */\n  0x22\n    /* \"#utility.yul\":1644:1645   */\n  0x04\n    /* \"#utility.yul\":1637:1652   */\n  mstore\n    /* \"#utility.yul\":1671:1675   */\n  0x24\n    /* \"#utility.yul\":1668:1669   */\n  0x00\n    /* \"#utility.yul\":1661:1676   */\n  revert\n    /* \"#utility.yul\":1688:2008   */\ntag_44:\n    /* \"#utility.yul\":1732:1738   */\n  0x00\n    /* \"#utility.yul\":1769:1770   */\n  0x02\n    /* \"#utility.yul\":1763:1767   */\n  dup3\n    /* \"#utility.yul\":1759:1771   */\n  div\n    /* \"#utility.yul\":1749:1771   */\n  swap1\n  pop\n    /* \"#utility.yul\":1816:1817   */\n  0x01\n    /* \"#utility.yul\":1810:1814   */\n  dup3\n    /* \"#utility.yul\":1806:1818   */\n  and\n    /* \"#utility.yul\":1837:1855   */\n  dup1\n    /* \"#utility.yul\":1827:1908   */\n  tag_81\n  jumpi\n    /* \"#utility.yul\":1893:1897   */\n  0x7f\n    /* \"#utility.yul\":1885:1891   */\n  dup3\n    /* \"#utility.yul\":1881:1898   */\n  and\n    /* \"#utility.yul\":1871:1898   */\n  swap2\n  pop\n    /* \"#utility.yul\":1827:1908   */\ntag_81:\n    /* \"#utility.yul\":1955:1957   */\n  0x20\n    /* \"#utility.yul\":1947:1953   */\n  dup3\n    /* \"#utility.yul\":1944:1958   */\n  lt\n    /* \"#utility.yul\":1924:1942   */\n  dup2\n    /* \"#utility.yul\":1921:1959   */\n  sub\n    /* \"#utility.yul\":1918:2002   */\n  tag_82\n  jumpi\n    /* \"#utility.yul\":1974:1992   */\n  tag_83\n  tag_43\n  jump\t// in\ntag_83:\n    /* \"#utility.yul\":1918:2002   */\ntag_82:\n    /* \"#utility.yul\":1739:2008   */\n  pop\n    /* \"#utility.yul\":1688:2008   */\n  swap2\n  swap1\n  pop\n  jump\t// out\n    /* \"#utility.yul\":2014:2155   */\ntag_45:\n    /* \"#utility.yul\":2063:2067   */\n  0x00\n    /* \"#utility.yul\":2086:2089   */\n  dup2\n    /* \"#utility.yul\":2078:2089   */\n  swap1\n  pop\n    /* \"#utility.yul\":2109:2112   */\n  dup2\n    /* \"#utility.yul\":2106:2107   */\n  0x00\n    /* \"#utility.yul\":2099:2113   */\n  mstore\n    /* \"#utility.yul\":2143:2147   */\n  0x20\n    /* \"#utility.yul\":2140:2141   */\n  0x00\n    /* \"#utility.yul\":2130:2148   */\n  keccak256\n    /* \"#utility.yul\":2122:2148   */\n  swap1\n  pop\n    /* \"#utility.yul\":2014:2155   */\n  swap2\n  swap1\n  pop\n  jump\t// out\n    /* \"#utility.yul\":2161:2254   */\ntag_46:\n    /* \"#utility.yul\":2198:2204   */\n  0x00\n    /* \"#utility.yul\":2245:2247   */\n  0x20\n    /* \"#utility.yul\":2240:2242   */\n  0x1f\n    /* \"#utility.yul\":2233:2238   */\n  dup4\n    /* \"#utility.yul\":2229:2243   */\n  add\n    /* \"#utility.yul\":2225:2248   */\n  div\n    /* \"#utility.yul\":2215:2248   */\n  swap1\n  pop\n    /* \"#utility.yul\":2161:2254   */\n  swap2\n  swap1\n  pop\n  jump\t// out\n    /* \"#utility.yul\":2260:2367   */\ntag_47:\n    /* \"#utility.yul\":2304:2312   */\n  0x00\n    /* \"#utility.yul\":2354:2359   */\n  dup3\n    /* \"#utility.yul\":2348:2352   */\n  dup3\n    /* \"#utility.yul\":2344:2360   */\n  shl\n    /* \"#utility.yul\":2323:2360   */\n  swap1\n  pop\n    /* \"#utility.yul\":2260:2367   */\n  swap3\n  swap2\n  pop\n  pop\n  jump\t// out\n    /* \"#utility.yul\":2373:2766   */\ntag_48:\n    /* \"#utility.yul\":2442:2448   */\n  0x00\n    /* \"#utility.yul\":2492:2493   */\n  0x08\n    /* \"#utility.yul\":2480:2490   */\n  dup4\n    /* \"#utility.yul\":2476:2494   */\n  mul\n    /* \"#utility.yul\":2515:2612   */\n  tag_88\n    /* \"#utility.yul\":2545:2611   */\n  0xffffffffffffffffffffffffffffffffffffffffffffffffffffffffffffffff\n    /* \"#utility.yul\":2534:2543   */\n  dup3\n    /* \"#utility.yul\":2515:2612   */\n  tag_47\n  jump\t// in\ntag_88:\n    /* \"#utility.yul\":2633:2672   */\n  tag_89\n    /* \"#utility.yul\":2663:2671   */\n  dup7\n    /* \"#utility.yul\":2652:2661   */\n  dup4\n    /* \"#utility.yul\":2633:2672   */\n  tag_47\n  jump\t// in\ntag_89:\n    /* \"#utility.yul\":2621:2672   */\n  swap6\n  pop\n    /* \"#utility.yul\":2705:2709   */\n  dup1\n    /* \"#utility.yul\":2701:2710   */\n  not\n    /* \"#utility.yul\":2694:2699   */\n  dup5\n    /* \"#utility.yul\":2690:2711   */\n  and\n    /* \"#utility.yul\":2681:2711   */\n  swap4\n  pop\n    /* \"#utility.yul\":2754:2758   */\n  dup1\n    /* \"#utility.yul\":2744:2752   */\n  dup7\n    /* \"#utility.yul\":2740:2759   */\n  and\n    /* \"#utility.yul\":2733:2738   */\n  dup5\n    /* \"#utility.yul\":2730:2760   */\n  or\n    /* \"#utility.yul\":2720:2760   */\n  swap3\n  pop\n    /* \"#utility.yul\":2449:2766   */\n  pop\n  pop\n    /* \"#utility.yul\":2373:2766   */\n  swap4\n  swap3\n  pop\n  pop\n  pop\n  jump\t// out\n    /* \"#utility.yul\":2772:2849   */\ntag_49:\n    /* \"#utility.yul\":2809:2816   */\n  0x00\n    /* \"#utility.yul\":2838:2843   */\n  dup2\n    /* \"#utility.yul\":2827:2843   */\n  swap1\n  pop\n    /* \"#utility.yul\":2772:2849   */\n  swap2\n  swap1\n  pop\n  jump\t// out\n    /* \"#utility.yul\":2855:2915   */\ntag_50:\n    /* \"#utility.yul\":2883:2886   */\n  0x00\n    /* \"#utility.yul\":2904:2909   */\n  dup2\n    /* \"#utility.yul\":2897:2909   */\n  swap1\n  pop\n    /* \"#utility.yul\":2855:2915   */\n  swap2\n  swap1\n  pop\n  jump\t// out\n    /* \"#utility.yul\":2921:3063   */\ntag_51:\n    /* \"#utility.yul\":2971:2980   */\n  0x00\n    /* \"#utility.yul\":3004:3057   */\n  tag_93\n    /* \"#utility.yul\":3022:3056   */\n  tag_94\n    /* \"#utility.yul\":3031:3055   */\n  tag_95\n    /* \"#utility.yul\":3049:3054   */\n  dup5\n    /* \"#utility.yul\":3031:3055   */\n  tag_49\n  jump\t// in\ntag_95:\n    /* \"#utility.yul\":3022:3056   */\n  tag_50\n  jump\t// in\ntag_94:\n    /* \"#utility.yul\":3004:3057   */\n  tag_49\n  jump\t// in\ntag_93:\n    /* \"#utility.yul\":2991:3057   */\n  swap1\n  pop\n    /* \"#utility.yul\":2921:3063   */\n  swap2\n  swap1\n  pop\n  jump\t// out\n    /* \"#utility.yul\":3069:3144   */\ntag_52:\n    /* \"#utility.yul\":3112:3115   */\n  0x00\n    /* \"#utility.yul\":3133:3138   */\n  dup2\n    /* \"#utility.yul\":3126:3138   */\n  swap1\n  pop\n    /* \"#utility.yul\":3069:3144   */\n  swap2\n  swap1\n  pop\n  jump\t// out\n    /* \"#utility.yul\":3150:3419   */\ntag_53:\n    /* \"#utility.yul\":3260:3299   */\n  tag_98\n    /* \"#utility.yul\":3291:3298   */\n  dup4\n    /* \"#utility.yul\":3260:3299   */\n  tag_51\n  jump\t// in\ntag_98:\n    /* \"#utility.yul\":3321:3412   */\n  tag_99\n    /* \"#utility.yul\":3370:3411   */\n  tag_100\n    /* \"#utility.yul\":3394:3410   */\n  dup3\n    /* \"#utility.yul\":3370:3411   */\n  tag_52\n  jump\t// in\ntag_100:\n    /* \"#utility.yul\":3362:3368   */\n  dup5\n    /* \"#utility.yul\":3355:3359   */\n  dup5\n    /* \"#utility.yul\":3349:3360   */\n  sload\n    /* \"#utility.yul\":3321:3412   */\n  tag_48\n  jump\t// in\ntag_99:\n    /* \"#utility.yul\":3315:3319   */\n  dup3\n    /* \"#utility.yul\":3308:3413   */\n  sstore\n    /* \"#utility.yul\":3226:3419   */\n  pop\n    /* \"#utility.yul\":3150:3419   */\n  pop\n  pop\n  pop\n  jump\t// out\n    /* \"#utility.yul\":3425:3498   */\ntag_54:\n    /* \"#utility.yul\":3470:3473   */\n  0x00\n    /* \"#utility.yul\":3425:3498   */\n  swap1\n  jump\t// out\n    /* \"#utility.yul\":3504:3693   */\ntag_55:\n    /* \"#utility.yul\":3581:3613   */\n  tag_103\n  tag_54\n  jump\t// in\ntag_103:\n    /* \"#utility.yul\":3622:3687   */\n  tag_104\n    /* \"#utility.yul\":3680:3686   */\n  dup2\n    /* \"#utility.yul\":3672:3678   */\n  dup5\n    /* \"#utility.yul\":3666:3670   */\n  dup5\n    /* \"#utility.yul\":3622:3687   */\n  tag_53\n  jump\t// in\ntag_104:\n    /* \"#utility.yul\":3557:3693   */\n  pop\n    /* \"#utility.yul\":3504:3693   */\n  pop\n  pop\n  jump\t// out\n    /* \"#utility.yul\":3699:3885   */\ntag_56:\n    /* \"#utility.yul\":3759:3879   */\ntag_106:\n    /* \"#utility.yul\":3776:3779   */\n  dup2\n    /* \"#utility.yul\":3769:3774   */\n  dup2\n    /* \"#utility.yul\":3766:3780   */\n  lt\n    /* \"#utility.yul\":3759:3879   */\n  iszero\n  tag_108\n  jumpi\n    /* \"#utility.yul\":3830:3869   */\n  tag_109\n    /* \"#utility.yul\":3867:3868   */\n  0x00\n    /* \"#utility.yul\":3860:3865   */\n  dup3\n    /* \"#utility.yul\":3830:3869   */\n  tag_55\n  jump\t// in\ntag_109:\n    /* \"#utility.yul\":3803:3804   */\n  0x01\n    /* \"#utility.yul\":3796:3801   */\n  dup2\n    /* \"#utility.yul\":3792:3805   */\n  add\n    /* \"#utility.yul\":3783:3805   */\n  swap1\n  pop\n    /* \"#utility.yul\":3759:3879   */\n  jump(tag_106)\ntag_108:\n    /* \"#utility.yul\":3699:3885   */\n  pop\n  pop\n  jump\t// out\n    /* \"#utility.yul\":3891:4434   */\ntag_57:\n    /* \"#utility.yul\":3992:3994   */\n  0x1f\n    /* \"#utility.yul\":3987:3990   */\n  dup3\n    /* \"#utility.yul\":3984:3995   */\n  gt\n    /* \"#utility.yul\":3981:4427   */\n  iszero\n  tag_111\n  jumpi\n    /* \"#utility.yul\":4026:4064   */\n  tag_112\n    /* \"#utility.yul\":4058:4063   */\n  dup2\n    /* \"#utility.yul\":4026:4064   */\n  tag_45\n  jump\t// in\ntag_112:\n    /* \"#utility.yul\":4110:4139   */\n  tag_113\n    /* \"#utility.yul\":4128:4138   */\n  dup5\n    /* \"#utility.yul\":4110:4139   */\n  tag_46\n  jump\t// in\ntag_113:\n    /* \"#utility.yul\":4100:4108   */\n  dup2\n    /* \"#utility.yul\":4096:4140   */\n  add\n    /* \"#utility.yul\":4293:4295   */\n  0x20\n    /* \"#utility.yul\":4281:4291   */\n  dup6\n    /* \"#utility.yul\":4278:4296   */\n  lt\n    /* \"#utility.yul\":4275:4324   */\n  iszero\n  tag_114\n  jumpi\n    /* \"#utility.yul\":4314:4322   */\n  dup2\n    /* \"#utility.yul\":4299:4322   */\n  swap1\n  pop\n    /* \"#utility.yul\":4275:4324   */\ntag_114:\n    /* \"#utility.yul\":4337:4417   */\n  tag_115\n    /* \"#utility.yul\":4393:4415   */\n  tag_116\n    /* \"#utility.yul\":4411:4414   */\n  dup6\n    /* \"#utility.yul\":4393:4415   */\n  tag_46\n  jump\t// in\ntag_116:\n    /* \"#utility.yul\":4383:4391   */\n  dup4\n    /* \"#utility.yul\":4379:4416   */\n  add\n    /* \"#utility.yul\":4366:4377   */\n  dup3\n    /* \"#utility.yul\":4337:4417   */\n  tag_56\n  jump\t// in\ntag_115:\n    /* \"#utility.yul\":3996:4427   */\n  pop\n  pop\n    /* \"#utility.yul\":3981:4427   */\ntag_111:\n    /* \"#utility.yul\":3891:4434   */\n  pop\n  pop\n  pop\n  jump\t// out\n    /* \"#utility.yul\":4440:4557   */\ntag_58:\n    /* \"#utility.yul\":4494:4502   */\n  0x00\n    /* \"#utility.yul\":4544:4549   */\n  dup3\n    /* \"#utility.yul\":4538:4542   */\n  dup3\n    /* \"#utility.yul\":4534:4550   */\n  shr\n    /* \"#utility.yul\":4513:4550   */\n  swap1\n  pop\n    /* \"#utility.yul\":4440:4557   */\n  swap3\n  swap2\n  pop\n  pop\n  jump\t// out\n    /* \"#utility.yul\":4563:4732   */\ntag_59:\n    /* \"#utility.yul\":4607:4613   */\n  0x00\n    /* \"#utility.yul\":4640:4691   */\n  tag_119\n    /* \"#utility.yul\":4688:4689   */\n  0x00\n    /* \"#utility.yul\":4684:4690   */\n  not\n    /* \"#utility.yul\":4676:4681   */\n  dup5\n    /* \"#utility.yul\":4673:4674   */\n  0x08\n    /* \"#utility.yul\":4669:4682   */\n  mul\n    /* \"#utility.yul\":4640:4691   */\n  tag_58\n  jump\t// in\ntag_119:\n    /* \"#utility.yul\":4636:4692   */\n  not\n    /* \"#utility.yul\":4721:4725   */\n  dup1\n    /* \"#utility.yul\":4715:4719   */\n  dup4\n    /* \"#utility.yul\":4711:4726   */\n  and\n    /* \"#utility.yul\":4701:4726   */\n  swap2\n  pop\n    /* \"#utility.yul\":4614:4732   */\n  pop\n    /* \"#utility.yul\":4563:4732   */\n  swap3\n  swap2\n  pop\n  pop\n  jump\t// out\n    /* \"#utility.yul\":4737:5032   */\ntag_60:\n    /* \"#utility.yul\":4813:4817   */\n  0x00\n    /* \"#utility.yul\":4959:4988   */\n  tag_121\n    /* \"#utility.yul\":4984:4987   */\n  dup4\n    /* \"#utility.yul\":4978:4982   */\n  dup4\n    /* \"#utility.yul\":4959:4988   */\n  tag_59\n  jump\t// in\ntag_121:\n    /* \"#utility.yul\":4951:4988   */\n  swap2\n  pop\n    /* \"#utility.yul\":5021:5024   */\n  dup3\n    /* \"#utility.yul\":5018:5019   */\n  0x02\n    /* \"#utility.yul\":5014:5025   */\n  mul\n    /* \"#utility.yul\":5008:5012   */\n  dup3\n    /* \"#utility.yul\":5005:5026   */\n  or\n    /* \"#utility.yul\":4997:5026   */\n  swap1\n  pop\n    /* \"#utility.yul\":4737:5032   */\n  swap3\n  swap2\n  pop\n  pop\n  jump\t// out\n    /* \"#utility.yul\":5037:6432   */\ntag_26:\n    /* \"#utility.yul\":5154:5191   */\n  tag_123\n    /* \"#utility.yul\":5187:5190   */\n  dup3\n    /* \"#utility.yul\":5154:5191   */\n  tag_41\n  jump\t// in\ntag_123:\n    /* \"#utility.yul\":5256:5274   */\n  0xffffffffffffffff\n    /* \"#utility.yul\":5248:5254   */\n  dup2\n    /* \"#utility.yul\":5245:5275   */\n  gt\n    /* \"#utility.yul\":5242:5298   */\n  iszero\n  tag_124\n  jumpi\n    /* \"#utility.yul\":5278:5296   */\n  tag_125\n  tag_42\n  jump\t// in\ntag_125:\n    /* \"#utility.yul\":5242:5298   */\ntag_124:\n    /* \"#utility.yul\":5322:5360   */\n  tag_126\n    /* \"#utility.yul\":5354:5358   */\n  dup3\n    /* \"#utility.yul\":5348:5359   */\n  sload\n    /* \"#utility.yul\":5322:5360   */\n  tag_44\n  jump\t// in\ntag_126:\n    /* \"#utility.yul\":5407:5474   */\n  tag_127\n    /* \"#utility.yul\":5467:5473   */\n  dup3\n    /* \"#utility.yul\":5459:5465   */\n  dup3\n    /* \"#utility.yul\":5453:5457   */\n  dup6\n    /* \"#utility.yul\":5407:5474   */\n  tag_57\n  jump\t// in\ntag_127:\n    /* \"#utility.yul\":5501:5502   */\n  0x00\n    /* \"#utility.yul\":5525:5529   */\n  0x20\n    /* \"#utility.yul\":5512:5529   */\n  swap1\n  pop\n    /* \"#utility.yul\":5557:5559   */\n  0x1f\n    /* \"#utility.yul\":5549:5555   */\n  dup4\n    /* \"#utility.yul\":5546:5560   */\n  gt\n    /* \"#utility.yul\":5574:5575   */\n  0x01\n    /* \"#utility.yul\":5569:6187   */\n  dup2\n  eq\n  tag_129\n  jumpi\n    /* \"#utility.yul\":6231:6232   */\n  0x00\n    /* \"#utility.yul\":6248:6254   */\n  dup5\n    /* \"#utility.yul\":6245:6322   */\n  iszero\n  tag_130\n  jumpi\n    /* \"#utility.yul\":6297:6306   */\n  dup3\n    /* \"#utility.yul\":6292:6295   */\n  dup8\n    /* \"#utility.yul\":6288:6307   */\n  add\n    /* \"#utility.yul\":6282:6308   */\n  mload\n    /* \"#utility.yul\":6273:6308   */\n  swap1\n  pop\n    /* \"#utility.yul\":6245:6322   */\ntag_130:\n    /* \"#utility.yul\":6348:6415   */\n  tag_131\n    /* \"#utility.yul\":6408:6414   */\n  dup6\n    /* \"#utility.yul\":6401:6406   */\n  dup3\n    /* \"#utility.yul\":6348:6415   */\n  tag_60\n  jump\t// in\ntag_131:\n    /* \"#utility.yul\":6342:6346   */\n  dup7\n    /* \"#utility.yul\":6335:6416   */\n  sstore\n    /* \"#utility.yul\":6204:6426   */\n  pop\n    /* \"#utility.yul\":5539:6426   */\n  jump(tag_128)\n    /* \"#utility.yul\":5569:6187   */\ntag_129:\n    /* \"#utility.yul\":5621:5625   */\n  0x1f\n    /* \"#utility.yul\":5617:5626   */\n  not\n    /* \"#utility.yul\":5609:5615   */\n  dup5\n    /* \"#utility.yul\":5605:5627   */\n  and\n    /* \"#utility.yul\":5655:5692   */\n  tag_132\n    /* \"#utility.yul\":5687:5691   */\n  dup7\n    /* \"#utility.yul\":5655:5692   */\n  tag_45\n  jump\t// in\ntag_132:\n    /* \"#utility.yul\":5714:5715   */\n  0x00\n    /* \"#utility.yul\":5728:5936   */\ntag_133:\n    /* \"#utility.yul\":5742:5749   */\n  dup3\n    /* \"#utility.yul\":5739:5740   */\n  dup2\n    /* \"#utility.yul\":5736:5750   */\n  lt\n    /* \"#utility.yul\":5728:5936   */\n  iszero\n  tag_135\n  jumpi\n    /* \"#utility.yul\":5821:5830   */\n  dup5\n    /* \"#utility.yul\":5816:5819   */\n  dup10\n    /* \"#utility.yul\":5812:5831   */\n  add\n    /* \"#utility.yul\":5806:5832   */\n  mload\n    /* \"#utility.yul\":5798:5804   */\n  dup3\n    /* \"#utility.yul\":5791:5833   */\n  sstore\n    /* \"#utility.yul\":5872:5873   */\n  0x01\n    /* \"#utility.yul\":5864:5870   */\n  dup3\n    /* \"#utility.yul\":5860:5874   */\n  add\n    /* \"#utility.yul\":5850:5874   */\n  swap2\n  pop\n    /* \"#utility.yul\":5919:5921   */\n  0x20\n    /* \"#utility.yul\":5908:5917   */\n  dup6\n    /* \"#utility.yul\":5904:5922   */\n  add\n    /* \"#utility.yul\":5891:5922   */\n  swap5\n  pop\n    /* \"#utility.yul\":5765:5769   */\n  0x20\n    /* \"#utility.yul\":5762:5763   */\n  dup2\n    /* \"#utility.yul\":5758:5770   */\n  add\n    /* \"#utility.yul\":5753:5770   */\n  swap1\n  pop\n    /* \"#utility.yul\":5728:5936   */\n  jump(tag_133)\ntag_135:\n    /* \"#utility.yul\":5964:5970   */\n  dup7\n    /* \"#utility.yul\":5955:5962   */\n  dup4\n    /* \"#utility.yul\":5952:5971   */\n  lt\n    /* \"#utility.yul\":5949:6128   */\n  iszero\n  tag_136\n  jumpi\n    /* \"#utility.yul\":6022:6031   */\n  dup5\n    /* \"#utility.yul\":6017:6020   */\n  dup10\n    /* \"#utility.yul\":6013:6032   */\n  add\n    /* \"#utility.yul\":6007:6033   */\n  mload\n    /* \"#utility.yul\":6065:6113   */\n  tag_137\n    /* \"#utility.yul\":6107:6111   */\n  0x1f\n    /* \"#utility.yul\":6099:6105   */\n  dup10\n    /* \"#utility.yul\":6095:6112   */\n  and\n    /* \"#utility.yul\":6084:6093   */\n  dup3\n    /* \"#utility.yul\":6065:6113   */\n  tag_59\n  jump\t// in\ntag_137:\n    /* \"#utility.yul\":6057:6063   */\n  dup4\n    /* \"#utility.yul\":6050:6114   */\n  sstore\n    /* \"#utility.yul\":5972:6128   */\n  pop\n    /* \"#utility.yul\":5949:6128   */\ntag_136:\n    /* \"#utility.yul\":6174:6175   */\n  0x01\n    /* \"#utility.yul\":6170:6171   */\n  0x02\n    /* \"#utility.yul\":6162:6168   */\n  dup9\n    /* \"#utility.yul\":6158:6172   */\n  mul\n    /* \"#utility.yul\":6154:6176   */\n  add\n    /* \"#utility.yul\":6148:6152   */\n  dup9\n    /* \"#utility.yul\":6141:6177   */\n  sstore\n    /* \"#utility.yul\":5576:6187   */\n  pop\n  pop\n  pop\n    /* \"#utility.yul\":5539:6426   */\ntag_128:\n  pop\n    /* \"#utility.yul\":5129:6432   */\n  pop\n  pop\n  pop\n    /* \"#utility.yul\":5037:6432   */\n  pop\n  pop\n  jump\t// out\n    /* \"#utility.yul\":6438:6556   */\ntag_61:\n    /* \"#utility.yul\":6525:6549   */\n  tag_139\n    /* \"#utility.yul\":6543:6548   */\n  dup2\n    /* \"#utility.yul\":6525:6549   */\n  tag_49\n  jump\t// in\ntag_139:\n    /* \"#utility.yul\":6520:6523   */\n  dup3\n    /* \"#utility.yul\":6513:6550   */\n  mstore\n    /* \"#utility.yul\":6438:6556   */\n  pop\n  pop\n  jump\t// out\n    /* \"#utility.yul\":6562:6670   */\ntag_62:\n    /* \"#utility.yul\":6639:6663   */\n  tag_141\n    /* \"#utility.yul\":6657:6662   */\n  dup2\n    /* \"#utility.yul\":6639:6663   */\n  tag_49\n  jump\t// in\ntag_141:\n    /* \"#utility.yul\":6634:6637   */\n  dup3\n    /* \"#utility.yul\":6627:6664   */\n  mstore\n    /* \"#utility.yul\":6562:6670   */\n  pop\n  pop\n  jump\t// out\n    /* \"#utility.yul\":6676:6835   */\ntag_63:\n    /* \"#utility.yul\":6750:6761   */\n  0x00\n    /* \"#utility.yul\":6784:6790   */\n  dup3\n    /* \"#utility.yul\":6779:6782   */\n  dup3\n    /* \"#utility.yul\":6772:6791   */\n  mstore\n    /* \"#utility.yul\":6824:6828   */\n  0x20\n    /* \"#utility.yul\":6819:6822   */\n  dup3\n    /* \"#utility.yul\":6815:6829   */\n  add\n    /* \"#utility.yul\":6800:6829   */\n  swap1\n  pop\n    /* \"#utility.yul\":6676:6835   */\n  swap3\n  swap2\n  pop\n  pop\n  jump\t// out\n    /* \"#utility.yul\":6841:7087   */\ntag_64:\n    /* \"#utility.yul\":6922:6923   */\n  0x00\n    /* \"#utility.yul\":6932:7045   */\ntag_144:\n    /* \"#utility.yul\":6946:6952   */\n  dup4\n    /* \"#utility.yul\":6943:6944   */\n  dup2\n    /* \"#utility.yul\":6940:6953   */\n  lt\n    /* \"#utility.yul\":6932:7045   */\n  iszero\n  tag_146\n  jumpi\n    /* \"#utility.yul\":7031:7032   */\n  dup1\n    /* \"#utility.yul\":7026:7029   */\n  dup3\n    /* \"#utility.yul\":7022:7033   */\n  add\n    /* \"#utility.yul\":7016:7034   */\n  mload\n    /* \"#utility.yul\":7012:7013   */\n  dup2\n    /* \"#utility.yul\":7007:7010   */\n  dup5\n    /* \"#utility.yul\":7003:7014   */\n  add\n    /* \"#utility.yul\":6996:7035   */\n  mstore\n    /* \"#utility.yul\":6968:6970   */\n  0x20\n    /* \"#utility.yul\":6965:6966   */\n  dup2\n    /* \"#utility.yul\":6961:6971   */\n  add\n    /* \"#utility.yul\":6956:6971   */\n  swap1\n  pop\n    /* \"#utility.yul\":6932:7045   */\n  jump(tag_144)\ntag_146:\n    /* \"#utility.yul\":7079:7080   */\n  0x00\n    /* \"#utility.yul\":7070:7076   */\n  dup5\n    /* \"#utility.yul\":7065:7068   */\n  dup5\n    /* \"#utility.yul\":7061:7077   */\n  add\n    /* \"#utility.yul\":7054:7081   */\n  mstore\n    /* \"#utility.yul\":6903:7087   */\n  pop\n    /* \"#utility.yul\":6841:7087   */\n  pop\n  pop\n  pop\n  jump\t// out\n    /* \"#utility.yul\":7093:7195   */\ntag_65:\n    /* \"#utility.yul\":7134:7140   */\n  0x00\n    /* \"#utility.yul\":7185:7187   */\n  0x1f\n    /* \"#utility.yul\":7181:7188   */\n  not\n    /* \"#utility.yul\":7176:7178   */\n  0x1f\n    /* \"#utility.yul\":7169:7174   */\n  dup4\n    /* \"#utility.yul\":7165:7179   */\n  add\n    /* \"#utility.yul\":7161:7189   */\n  and\n    /* \"#utility.yul\":7151:7189   */\n  swap1\n  pop\n    /* \"#utility.yul\":7093:7195   */\n  swap2\n  swap1\n  pop\n  jump\t// out\n    /* \"#utility.yul\":7201:7558   */\ntag_66:\n    /* \"#utility.yul\":7279:7282   */\n  0x00\n    /* \"#utility.yul\":7307:7346   */\n  tag_149\n    /* \"#utility.yul\":7340:7345   */\n  dup3\n    /* \"#utility.yul\":7307:7346   */\n  tag_41\n  jump\t// in\ntag_149:\n    /* \"#utility.yul\":7362:7423   */\n  tag_150\n    /* \"#utility.yul\":7416:7422   */\n  dup2\n    /* \"#utility.yul\":7411:7414   */\n  dup6\n    /* \"#utility.yul\":7362:7423   */\n  tag_63\n  jump\t// in\ntag_150:\n    /* \"#utility.yul\":7355:7423   */\n  swap4\n  pop\n    /* \"#utility.yul\":7432:7497   */\n  tag_151\n    /* \"#utility.yul\":7490:7496   */\n  dup2\n    /* \"#utility.yul\":7485:7488   */\n  dup6\n    /* \"#utility.yul\":7478:7482   */\n  0x20\n    /* \"#utility.yul\":7471:7476   */\n  dup7\n    /* \"#utility.yul\":7467:7483   */\n  add\n    /* \"#utility.yul\":7432:7497   */\n  tag_64\n  jump\t// in\ntag_151:\n    /* \"#utility.yul\":7522:7551   */\n  tag_152\n    /* \"#utility.yul\":7544:7550   */\n  dup2\n    /* \"#utility.yul\":7522:7551   */\n  tag_65\n  jump\t// in\ntag_152:\n    /* \"#utility.yul\":7517:7520   */\n  dup5\n    /* \"#utility.yul\":7513:7552   */\n  add\n    /* \"#utility.yul\":7506:7552   */\n  swap2\n  pop\n    /* \"#utility.yul\":7283:7558   */\n  pop\n    /* \"#utility.yul\":7201:7558   */\n  swap3\n  swap2\n  pop\n  pop\n  jump\t// out\n    /* \"#utility.yul\":7642:8502   */\ntag_67:\n    /* \"#utility.yul\":7765:7768   */\n  0x00\n    /* \"#utility.yul\":7801:7805   */\n  0x60\n    /* \"#utility.yul\":7796:7799   */\n  dup4\n    /* \"#utility.yul\":7792:7806   */\n  add\n    /* \"#utility.yul\":7886:7890   */\n  0x00\n    /* \"#utility.yul\":7879:7884   */\n  dup4\n    /* \"#utility.yul\":7875:7891   */\n  add\n    /* \"#utility.yul\":7869:7892   */\n  mload\n    /* \"#utility.yul\":7905:7968   */\n  tag_154\n    /* \"#utility.yul\":7962:7966   */\n  0x00\n    /* \"#utility.yul\":7957:7960   */\n  dup7\n    /* \"#utility.yul\":7953:7967   */\n  add\n    /* \"#utility.yul\":7939:7951   */\n  dup3\n    /* \"#utility.yul\":7905:7968   */\n  tag_62\n  jump\t// in\ntag_154:\n    /* \"#utility.yul\":7816:7978   */\n  pop\n    /* \"#utility.yul\":8060:8064   */\n  0x20\n    /* \"#utility.yul\":8053:8058   */\n  dup4\n    /* \"#utility.yul\":8049:8065   */\n  add\n    /* \"#utility.yul\":8043:8066   */\n  mload\n    /* \"#utility.yul\":8113:8116   */\n  dup5\n    /* \"#utility.yul\":8107:8111   */\n  dup3\n    /* \"#utility.yul\":8103:8117   */\n  sub\n    /* \"#utility.yul\":8096:8100   */\n  0x20\n    /* \"#utility.yul\":8091:8094   */\n  dup7\n    /* \"#utility.yul\":8087:8101   */\n  add\n    /* \"#utility.yul\":8080:8118   */\n  mstore\n    /* \"#utility.yul\":8139:8212   */\n  tag_155\n    /* \"#utility.yul\":8207:8211   */\n  dup3\n    /* \"#utility.yul\":8193:8205   */\n  dup3\n    /* \"#utility.yul\":8139:8212   */\n  tag_66\n  jump\t// in\ntag_155:\n    /* \"#utility.yul\":8131:8212   */\n  swap2\n  pop\n    /* \"#utility.yul\":7988:8223   */\n  pop\n    /* \"#utility.yul\":8312:8316   */\n  0x40\n    /* \"#utility.yul\":8305:8310   */\n  dup4\n    /* \"#utility.yul\":8301:8317   */\n  add\n    /* \"#utility.yul\":8295:8318   */\n  mload\n    /* \"#utility.yul\":8365:8368   */\n  dup5\n    /* \"#utility.yul\":8359:8363   */\n  dup3\n    /* \"#utility.yul\":8355:8369   */\n  sub\n    /* \"#utility.yul\":8348:8352   */\n  0x40\n    /* \"#utility.yul\":8343:8346   */\n  dup7\n    /* \"#utility.yul\":8339:8353   */\n  add\n    /* \"#utility.yul\":8332:8370   */\n  mstore\n    /* \"#utility.yul\":8391:8464   */\n  tag_156\n    /* \"#utility.yul\":8459:8463   */\n  dup3\n    /* \"#utility.yul\":8445:8457   */\n  dup3\n    /* \"#utility.yul\":8391:8464   */\n  tag_66\n  jump\t// in\ntag_156:\n    /* \"#utility.yul\":8383:8464   */\n  swap2\n  pop\n    /* \"#utility.yul\":8233:8475   */\n  pop\n    /* \"#utility.yul\":8492:8496   */\n  dup1\n    /* \"#utility.yul\":8485:8496   */\n  swap2\n  pop\n    /* \"#utility.yul\":7770:8502   */\n  pop\n    /* \"#utility.yul\":7642:8502   */\n  swap3\n  swap2\n  pop\n  pop\n  jump\t// out\n    /* \"#utility.yul\":8508:8999   */\ntag_29:\n    /* \"#utility.yul\":8683:8687   */\n  0x00\n    /* \"#utility.yul\":8721:8723   */\n  0x40\n    /* \"#utility.yul\":8710:8719   */\n  dup3\n    /* \"#utility.yul\":8706:8724   */\n  add\n    /* \"#utility.yul\":8698:8724   */\n  swap1\n  pop\n    /* \"#utility.yul\":8734:8805   */\n  tag_158\n    /* \"#utility.yul\":8802:8803   */\n  0x00\n    /* \"#utility.yul\":8791:8800   */\n  dup4\n    /* \"#utility.yul\":8787:8804   */\n  add\n    /* \"#utility.yul\":8778:8784   */\n  dup6\n    /* \"#utility.yul\":8734:8805   */\n  tag_61\n  jump\t// in\ntag_158:\n    /* \"#utility.yul\":8852:8861   */\n  dup2\n    /* \"#utility.yul\":8846:8850   */\n  dup2\n    /* \"#utility.yul\":8842:8862   */\n  sub\n    /* \"#utility.yul\":8837:8839   */\n  0x20\n    /* \"#utility.yul\":8826:8835   */\n  dup4\n    /* \"#utility.yul\":8822:8840   */\n  add\n    /* \"#utility.yul\":8815:8863   */\n  mstore\n    /* \"#utility.yul\":8880:8992   */\n  tag_159\n    /* \"#utility.yul\":8987:8991   */\n  dup2\n    /* \"#utility.yul\":8978:8984   */\n  dup5\n    /* \"#utility.yul\":8880:8992   */\n  tag_67\n  jump\t// in\ntag_159:\n    /* \"#utility.yul\":8872:8992   */\n  swap1\n  pop\n    /* \"#utility.yul\":8508:8999   */\n  swap4\n  swap3\n  pop\n  pop\n  pop\n  jump\t// out\n    /* \"#utility.yul\":9085:9947   */\ntag_68:\n    /* \"#utility.yul\":9210:9213   */\n  0x00\n    /* \"#utility.yul\":9246:9250   */\n  0x60\n    /* \"#utility.yul\":9241:9244   */\n  dup4\n    /* \"#utility.yul\":9237:9251   */\n  add\n    /* \"#utility.yul\":9331:9335   */\n  0x00\n    /* \"#utility.yul\":9324:9329   */\n  dup4\n    /* \"#utility.yul\":9320:9336   */\n  add\n    /* \"#utility.yul\":9314:9337   */\n  mload\n    /* \"#utility.yul\":9350:9413   */\n  tag_161\n    /* \"#utility.yul\":9407:9411   */\n  0x00\n    /* \"#utility.yul\":9402:9405   */\n  dup7\n    /* \"#utility.yul\":9398:9412   */\n  add\n    /* \"#utility.yul\":9384:9396   */\n  dup3\n    /* \"#utility.yul\":9350:9413   */\n  tag_62\n  jump\t// in\ntag_161:\n    /* \"#utility.yul\":9261:9423   */\n  pop\n    /* \"#utility.yul\":9505:9509   */\n  0x20\n    /* \"#utility.yul\":9498:9503   */\n  dup4\n    /* \"#utility.yul\":9494:9510   */\n  add\n    /* \"#utility.yul\":9488:9511   */\n  mload\n    /* \"#utility.yul\":9558:9561   */\n  dup5\n    /* \"#utility.yul\":9552:9556   */\n  dup3\n    /* \"#utility.yul\":9548:9562   */\n  sub\n    /* \"#utility.yul\":9541:9545   */\n  0x20\n    /* \"#utility.yul\":9536:9539   */\n  dup7\n    /* \"#utility.yul\":9532:9546   */\n  add\n    /* \"#utility.yul\":9525:9563   */\n  mstore\n    /* \"#utility.yul\":9584:9657   */\n  tag_162\n    /* \"#utility.yul\":9652:9656   */\n  dup3\n    /* \"#utility.yul\":9638:9650   */\n  dup3\n    /* \"#utility.yul\":9584:9657   */\n  tag_66\n  jump\t// in\ntag_162:\n    /* \"#utility.yul\":9576:9657   */\n  swap2\n  pop\n    /* \"#utility.yul\":9433:9668   */\n  pop\n    /* \"#utility.yul\":9757:9761   */\n  0x40\n    /* \"#utility.yul\":9750:9755   */\n  dup4\n    /* \"#utility.yul\":9746:9762   */\n  add\n    /* \"#utility.yul\":9740:9763   */\n  mload\n    /* \"#utility.yul\":9810:9813   */\n  dup5\n    /* \"#utility.yul\":9804:9808   */\n  dup3\n    /* \"#utility.yul\":9800:9814   */\n  sub\n    /* \"#utility.yul\":9793:9797   */\n  0x40\n    /* \"#utility.yul\":9788:9791   */\n  dup7\n    /* \"#utility.yul\":9784:9798   */\n  add\n    /* \"#utility.yul\":9777:9815   */\n  mstore\n    /* \"#utility.yul\":9836:9909   */\n  tag_163\n    /* \"#utility.yul\":9904:9908   */\n  dup3\n    /* \"#utility.yul\":9890:9902   */\n  dup3\n    /* \"#utility.yul\":9836:9909   */\n  tag_66\n  jump\t// in\ntag_163:\n    /* \"#utility.yul\":9828:9909   */\n  swap2\n  pop\n    /* \"#utility.yul\":9678:9920   */\n  pop\n    /* \"#utility.yul\":9937:9941   */\n  dup1\n    /* \"#utility.yul\":9930:9941   */\n  swap2\n  pop\n    /* \"#utility.yul\":9215:9947   */\n  pop\n    /* \"#utility.yul\":9085:9947   */\n  swap3\n  swap2\n  pop\n  pop\n  jump\t// out\n    /* \"#utility.yul\":9953:10448   */\ntag_37:\n    /* \"#utility.yul\":10130:10134   */\n  0x00\n    /* \"#utility.yul\":10168:10170   */\n  0x40\n    /* \"#utility.yul\":10157:10166   */\n  dup3\n    /* \"#utility.yul\":10153:10171   */\n  add\n    /* \"#utility.yul\":10145:10171   */\n  swap1\n  pop\n    /* \"#utility.yul\":10181:10252   */\n  tag_165\n    /* \"#utility.yul\":10249:10250   */\n  0x00\n    /* \"#utility.yul\":10238:10247   */\n  dup4\n    /* \"#utility.yul\":10234:10251   */\n  add\n    /* \"#utility.yul\":10225:10231   */\n  dup6\n    /* \"#utility.yul\":10181:10252   */\n  tag_61\n  jump\t// in\ntag_165:\n    /* \"#utility.yul\":10299:10308   */\n  dup2\n    /* \"#utility.yul\":10293:10297   */\n  dup2\n    /* \"#utility.yul\":10289:10309   */\n  sub\n    /* \"#utility.yul\":10284:10286   */\n  0x20\n    /* \"#utility.yul\":10273:10282   */\n  dup4\n    /* \"#utility.yul\":10269:10287   */\n  add\n    /* \"#utility.yul\":10262:10310   */\n  mstore\n    /* \"#utility.yul\":10327:10441   */\n  tag_166\n    /* \"#utility.yul\":10436:10440   */\n  dup2\n    /* \"#utility.yul\":10427:10433   */\n  dup5\n    /* \"#utility.yul\":10327:10441   */\n  tag_68\n  jump\t// in\ntag_166:\n    /* \"#utility.yul\":10319:10441   */\n  swap1\n  pop\n    /* \"#utility.yul\":9953:10448   */\n  swap4\n  swap3\n  pop\n  pop\n  pop\n  jump\t// out\n    /* \"PersonalRepo/solidity-eth-challenge/contracts/PokemonFactory.sol\":74:4118  contract PokemonFactory {... */\ntag_19:\n  dataSize(sub_0)\n  dup1\n  dataOffset(sub_0)\n  0x00\n  codecopy\n  0x00\n  return\nstop\ndata_0582bbc0b5f7d3c3638be0945379340329c840ef69b57c1a72c47d0bfcd74f56 4669676874696e67207479706520706f6b656d6f6e20617265207765616b20616761696e737420666c79696e6720616e642070737963686963207479706520706f6b656d6f6e\ndata_0d0785018c6410a6fbac61575f0a4c67b6d687423d1764ca9acb0cb9cce703bf 5468652074617267657420697320626c61737465642077697468206120666f72636566756c2073686f74206f662077617465722e\ndata_34b9d92c2ccd6d8463a38e64c4cdc228bc859cba6a7f0b7062460843f6f284af 46697265207479706520706f6b656d6f6e20617265207765616b20616761696e737420776174657220616e64206772617373207479706520706f6b656d6f6e\ndata_37fc6f7be9015687eeab03ca24bc67a48ada5dc2224f506e12f930417db5d536 456c656374726963207479706520706f6b656d6f6e20617265207765616b20616761696e73742067726f756e64207479706520706f6b656d6f6e\ndata_39de8000e50e5d660a870f4002f69957bc3eb3098a523d5c45f6665d169abcf2 4772617373207479706520706f6b656d6f6e20617265207765616b20616761696e7374206669726520616e6420696365207479706520706f6b656d6f6e\ndata_406c611b6361b15ebf1b84bc5ee34dd645a0789cfc9fc4aab820f62d00216ab4 546865207461726765742069732073636f7263686564207769746820616e20696e74656e736520626c617374206f6620666972652e2054686973206d617920616c736f206c65617665207468652074617267657420776974682061206275726e2e\ndata_8a5bc958f580eaaae5ad9e41f00c6a2b07b0fce3fbdbd2316ced737d2bea2fc6 546865207461726765742069732061747461636b6564207769746820736d616c6c20666c616d65732e2054686973206d617920616c736f206c65617665207468652074617267657420776974682061206275726e2e\ndata_ae7f5747b7576ea49b40ae7303c6021a90522f651959910f0db9dbab64b72477 5761746572207479706520706f6b656d6f6e20617265207765616b20616761696e737420677261737320616e6420656c656374726963207479706520706f6b656d6f6e\ndata_ca404ee9eafe7b2ae9b928dbd338138af8d95f565c47517dd15346af5aa088a8 41207265636b6c6573732c2066756c6c2d626f6479206368617267652061747461636b20666f7220736c616d6d696e6720696e746f20746865207461726765742e205468697320616c736f2064616d616765732074686520757365722061206c6974746c652e\ndata_cddc5086ecd25ac569608a9197e5dedc5d0f85faa00a0f87e61f4250471fe63b 546865207461726765742069732062697474656e207769746820766963696f75736c792073686172702066616e67732e2054686973206d617920616c736f206d616b65207468652074617267657420666c696e63682e\ndata_da711a57656ae451439bfba4f68491de9ce2a0a34d62710a3a861da2eddde1f9 546865207461726765742069732073747275636b207769746820736c656e6465722c20776869706c696b652076696e657320746f20696e666c6963742064616d6167652e\ndata_dcd5f7be2b3962c9154b1fa0f4eb4504f8b7f882c03aedfdb87004cbe099f56e 496365207479706520706f6b656d6f6e20617265207765616b20616761696e7374206669726520616e64206669676874696e67207479706520706f6b656d6f6e\ndata_e1cc9c62505e15dd0735afaeacc8ee9579bb00bb72e8f23921d863aa16bb5327 4120706879736963616c2061747461636b20696e207768696368207468652075736572206368617267657320616e6420736c616d7320696e746f20746865207461726765742077697468206974732077686f6c6520626f64792e\n\nsub_0: assembly {\n        /* \"PersonalRepo/solidity-eth-challenge/contracts/PokemonFactory.sol\":74:4118  contract PokemonFactory {... */\n      mstore(0x40, 0x80)\n      callvalue\n      dup1\n      iszero\n      tag_1\n      jumpi\n      0x00\n      dup1\n      revert\n    tag_1:\n      pop\n      jumpi(tag_2, lt(calldatasize, 0x04))\n      shr(0xe0, calldataload(0x00))\n      dup1\n      0x2f7467b3\n      eq\n      tag_3\n      jumpi\n      dup1\n      0x5e916790\n      eq\n      tag_4\n      jumpi\n      dup1\n      0xc250736e\n      eq\n      tag_5\n      jumpi\n      dup1\n      0xddf5ba4e\n      eq\n      tag_6\n      jumpi\n      dup1\n      0xde292789\n      eq\n      tag_7\n      jumpi\n      dup1\n      0xdfce7dc6\n      eq\n      tag_8\n      jumpi\n    tag_2:\n      0x00\n      dup1\n      revert\n        /* \"PersonalRepo/solidity-eth-challenge/contracts/PokemonFactory.sol\":439:486  mapping (uint => address) public pokemonToOwner */\n    tag_3:\n      tag_9\n      0x04\n      dup1\n      calldatasize\n      sub\n      dup2\n      add\n      swap1\n      tag_10\n      swap2\n      swap1\n      tag_11\n      jump\t// in\n    tag_10:\n      tag_12\n      jump\t// in\n    tag_9:\n      mload(0x40)\n      tag_13\n      swap2\n      swap1\n      tag_14\n      jump\t// in\n    tag_13:\n      mload(0x40)\n      dup1\n      swap2\n      sub\n      swap1\n      return\n        /* \"PersonalRepo/solidity-eth-challenge/contracts/PokemonFactory.sol\":3851:3948  function getAllPokemons() public view returns (Pokemon[] memory) {... */\n    tag_4:\n      tag_15\n      tag_16\n      jump\t// in\n    tag_15:\n      mload(0x40)\n      tag_17\n      swap2\n      swap1\n      tag_18\n      jump\t// in\n    tag_17:\n      mload(0x40)\n      dup1\n      swap2\n      sub\n      swap1\n      return\n        /* \"PersonalRepo/solidity-eth-challenge/contracts/PokemonFactory.sol\":587:620  PokemonType[] public pokemonTypes */\n    tag_5:\n      tag_19\n      0x04\n      dup1\n      calldatasize\n      sub\n      dup2\n      add\n      swap1\n      tag_20\n      swap2\n      swap1\n      tag_11\n      jump\t// in\n    tag_20:\n      tag_21\n      jump\t// in\n    tag_19:\n      mload(0x40)\n      tag_22\n      swap4\n      swap3\n      swap2\n      swap1\n      tag_23\n      jump\t// in\n    tag_22:\n      mload(0x40)\n      dup1\n      swap2\n      sub\n      swap1\n      return\n        /* \"PersonalRepo/solidity-eth-challenge/contracts/PokemonFactory.sol\":3100:3843  function createPokemon (string calldata _name, uint _id,uint[] calldata _skills,uint[] calldata _types,uint[] calldata _weaknesses) public {... */\n    tag_6:\n      tag_24\n      0x04\n      dup1\n      calldatasize\n      sub\n      dup2\n      add\n      swap1\n      tag_25\n      swap2\n      swap1\n      tag_26\n      jump\t// in\n    tag_25:\n      tag_27\n      jump\t// in\n    tag_24:\n      stop\n        /* \"PersonalRepo/solidity-eth-challenge/contracts/PokemonFactory.sol\":3958:4113  function getResult() public pure returns(uint product, uint sum){... */\n    tag_7:\n      tag_28\n      tag_29\n      jump\t// in\n    tag_28:\n      mload(0x40)\n      tag_30\n      swap3\n      swap2\n      swap1\n      tag_31\n      jump\t// in\n    tag_30:\n      mload(0x40)\n      dup1\n      swap2\n      sub\n      swap1\n      return\n        /* \"PersonalRepo/solidity-eth-challenge/contracts/PokemonFactory.sol\":545:580  PokemonSkill[] public pokemonSkills */\n    tag_8:\n      tag_32\n      0x04\n      dup1\n      calldatasize\n      sub\n      dup2\n      add\n      swap1\n      tag_33\n      swap2\n      swap1\n      tag_11\n      jump\t// in\n    tag_33:\n      tag_34\n      jump\t// in\n    tag_32:\n      mload(0x40)\n      tag_35\n      swap4\n      swap3\n      swap2\n      swap1\n      tag_23\n      jump\t// in\n    tag_35:\n      mload(0x40)\n      dup1\n      swap2\n      sub\n      swap1\n      return\n        /* \"PersonalRepo/solidity-eth-challenge/contracts/PokemonFactory.sol\":439:486  mapping (uint => address) public pokemonToOwner */\n    tag_12:\n      mstore(0x20, 0x01)\n      dup1\n      0x00\n      mstore\n      keccak256(0x00, 0x40)\n      0x00\n      swap2\n      pop\n      sload\n      swap1\n      0x0100\n      exp\n      swap1\n      div\n      0xffffffffffffffffffffffffffffffffffffffff\n      and\n      dup2\n      jump\t// out\n        /* \"PersonalRepo/solidity-eth-challenge/contracts/PokemonFactory.sol\":3851:3948  function getAllPokemons() public view returns (Pokemon[] memory) {... */\n    tag_16:\n        /* \"PersonalRepo/solidity-eth-challenge/contracts/PokemonFactory.sol\":3898:3914  Pokemon[] memory */\n      0x60\n        /* \"PersonalRepo/solidity-eth-challenge/contracts/PokemonFactory.sol\":3932:3940  pokemons */\n      0x00\n        /* \"PersonalRepo/solidity-eth-challenge/contracts/PokemonFactory.sol\":3925:3940  return pokemons */\n      dup1\n      sload\n      dup1\n      0x20\n      mul\n      0x20\n      add\n      mload(0x40)\n      swap1\n      dup2\n      add\n      0x40\n      mstore\n      dup1\n      swap3\n      swap2\n      swap1\n      dup2\n      dup2\n      mstore\n      0x20\n      add\n      0x00\n      swap1\n    tag_37:\n      dup3\n      dup3\n      lt\n      iszero\n      tag_38\n      jumpi\n      dup4\n      dup3\n      swap1\n      0x00\n      mstore\n      keccak256(0x00, 0x20)\n      swap1\n      0x05\n      mul\n      add\n      mload(0x40)\n      dup1\n      0xa0\n      add\n      0x40\n      mstore\n      swap1\n      dup2\n      0x00\n      dup3\n      add\n      sload\n      dup2\n      mstore\n      0x20\n      add\n      0x01\n      dup3\n      add\n      dup1\n      sload\n      tag_40\n      swap1\n      tag_41\n      jump\t// in\n    tag_40:\n      dup1\n      0x1f\n      add\n      0x20\n      dup1\n      swap2\n      div\n      mul\n      0x20\n      add\n      mload(0x40)\n      swap1\n      dup2\n      add\n      0x40\n      mstore\n      dup1\n      swap3\n      swap2\n      swap1\n      dup2\n      dup2\n      mstore\n      0x20\n      add\n      dup3\n      dup1\n      sload\n      tag_42\n      swap1\n      tag_41\n      jump\t// in\n    tag_42:\n      dup1\n      iszero\n      tag_43\n      jumpi\n      dup1\n      0x1f\n      lt\n      tag_44\n      jumpi\n      0x0100\n      dup1\n      dup4\n      sload\n      div\n      mul\n      dup4\n      mstore\n      swap2\n      0x20\n      add\n      swap2\n      jump(tag_43)\n    tag_44:\n      dup3\n      add\n      swap2\n      swap1\n      0x00\n      mstore\n      keccak256(0x00, 0x20)\n      swap1\n    tag_45:\n      dup2\n      sload\n      dup2\n      mstore\n      swap1\n      0x01\n      add\n      swap1\n      0x20\n      add\n      dup1\n      dup4\n      gt\n      tag_45\n      jumpi\n      dup3\n      swap1\n      sub\n      0x1f\n      and\n      dup3\n      add\n      swap2\n    tag_43:\n      pop\n      pop\n      pop\n      pop\n      pop\n      dup2\n      mstore\n      0x20\n      add\n      0x02\n      dup3\n      add\n      dup1\n      sload\n      dup1\n      0x20\n      mul\n      0x20\n      add\n      mload(0x40)\n      swap1\n      dup2\n      add\n      0x40\n      mstore\n      dup1\n      swap3\n      swap2\n      swap1\n      dup2\n      dup2\n      mstore\n      0x20\n      add\n      dup3\n      dup1\n      sload\n      dup1\n      iszero\n      tag_46\n      jumpi\n      0x20\n      mul\n      dup3\n      add\n      swap2\n      swap1\n      0x00\n      mstore\n      keccak256(0x00, 0x20)\n      swap1\n    tag_47:\n      dup2\n      sload\n      dup2\n      mstore\n      0x20\n      add\n      swap1\n      0x01\n      add\n      swap1\n      dup1\n      dup4\n      gt\n      tag_47\n      jumpi\n    tag_46:\n      pop\n      pop\n      pop\n      pop\n      pop\n      dup2\n      mstore\n      0x20\n      add\n      0x03\n      dup3\n      add\n      dup1\n      sload\n      dup1\n      0x20\n      mul\n      0x20\n      add\n      mload(0x40)\n      swap1\n      dup2\n      add\n      0x40\n      mstore\n      dup1\n      swap3\n      swap2\n      swap1\n      dup2\n      dup2\n      mstore\n      0x20\n      add\n      dup3\n      dup1\n      sload\n      dup1\n      iszero\n      tag_48\n      jumpi\n      0x20\n      mul\n      dup3\n      add\n      swap2\n      swap1\n      0x00\n      mstore\n      keccak256(0x00, 0x20)\n      swap1\n    tag_49:\n      dup2\n      sload\n      dup2\n      mstore\n      0x20\n      add\n      swap1\n      0x01\n      add\n      swap1\n      dup1\n      dup4\n      gt\n      tag_49\n      jumpi\n    tag_48:\n      pop\n      pop\n      pop\n      pop\n      pop\n      dup2\n      mstore\n      0x20\n      add\n      0x04\n      dup3\n      add\n      dup1\n      sload\n      dup1\n      0x20\n      mul\n      0x20\n      add\n      mload(0x40)\n      swap1\n      dup2\n      add\n      0x40\n      mstore\n      dup1\n      swap3\n      swap2\n      swap1\n      dup2\n      dup2\n      mstore\n      0x20\n      add\n      dup3\n      dup1\n      sload\n      dup1\n      iszero\n      tag_50\n      jumpi\n      0x20\n      mul\n      dup3\n      add\n      swap2\n      swap1\n      0x00\n      mstore\n      keccak256(0x00, 0x20)\n      swap1\n    tag_51:\n      dup2\n      sload\n      dup2\n      mstore\n      0x20\n      add\n      swap1\n      0x01\n      add\n      swap1\n      dup1\n      dup4\n      gt\n      tag_51\n      jumpi\n    tag_50:\n      pop\n      pop\n      pop\n      pop\n      pop\n      dup2\n      mstore\n      pop\n      pop\n      dup2\n      mstore\n      0x20\n      add\n      swap1\n      0x01\n      add\n      swap1\n      jump(tag_37)\n    tag_38:\n      pop\n      pop\n      pop\n      pop\n      swap1\n      pop\n        /* \"PersonalRepo/solidity-eth-challenge/contracts/PokemonFactory.sol\":3851:3948  function getAllPokemons() public view returns (Pokemon[] memory) {... */\n      swap1\n      jump\t// out\n        /* \"PersonalRepo/solidity-eth-challenge/contracts/PokemonFactory.sol\":587:620  PokemonType[] public pokemonTypes */\n    tag_21:\n      0x04\n      dup2\n      dup2\n      sload\n      dup2\n      lt\n      tag_52\n      jumpi\n      0x00\n      dup1\n      revert\n    tag_52:\n      swap1\n      0x00\n      mstore\n      keccak256(0x00, 0x20)\n      swap1\n      0x03\n      mul\n      add\n      0x00\n      swap2\n      pop\n      swap1\n      pop\n      dup1\n      0x00\n      add\n      sload\n      swap1\n      dup1\n      0x01\n      add\n      dup1\n      sload\n      tag_54\n      swap1\n      tag_41\n      jump\t// in\n    tag_54:\n      dup1\n      0x1f\n      add\n      0x20\n      dup1\n      swap2\n      div\n      mul\n      0x20\n      add\n      mload(0x40)\n      swap1\n      dup2\n      add\n      0x40\n      mstore\n      dup1\n      swap3\n      swap2\n      swap1\n      dup2\n      dup2\n      mstore\n      0x20\n      add\n      dup3\n      dup1\n      sload\n      tag_55\n      swap1\n      tag_41\n      jump\t// in\n    tag_55:\n      dup1\n      iszero\n      tag_56\n      jumpi\n      dup1\n      0x1f\n      lt\n      tag_57\n      jumpi\n      0x0100\n      dup1\n      dup4\n      sload\n      div\n      mul\n      dup4\n      mstore\n      swap2\n      0x20\n      add\n      swap2\n      jump(tag_56)\n    tag_57:\n      dup3\n      add\n      swap2\n      swap1\n      0x00\n      mstore\n      keccak256(0x00, 0x20)\n      swap1\n    tag_58:\n      dup2\n      sload\n      dup2\n      mstore\n      swap1\n      0x01\n      add\n      swap1\n      0x20\n      add\n      dup1\n      dup4\n      gt\n      tag_58\n      jumpi\n      dup3\n      swap1\n      sub\n      0x1f\n      and\n      dup3\n      add\n      swap2\n    tag_56:\n      pop\n      pop\n      pop\n      pop\n      pop\n      swap1\n      dup1\n      0x02\n      add\n      dup1\n      sload\n      tag_59\n      swap1\n      tag_41\n      jump\t// in\n    tag_59:\n      dup1\n      0x1f\n      add\n      0x20\n      dup1\n      swap2\n      div\n      mul\n      0x20\n      add\n      mload(0x40)\n      swap1\n      dup2\n      add\n      0x40\n      mstore\n      dup1\n      swap3\n      swap2\n      swap1\n      dup2\n      dup2\n      mstore\n      0x20\n      add\n      dup3\n      dup1\n      sload\n      tag_60\n      swap1\n      tag_41\n      jump\t// in\n    tag_60:\n      dup1\n      iszero\n      tag_61\n      jumpi\n      dup1\n      0x1f\n      lt\n      tag_62\n      jumpi\n      0x0100\n      dup1\n      dup4\n      sload\n      div\n      mul\n      dup4\n      mstore\n      swap2\n      0x20\n      add\n      swap2\n      jump(tag_61)\n    tag_62:\n      dup3\n      add\n      swap2\n      swap1\n      0x00\n      mstore\n      keccak256(0x00, 0x20)\n      swap1\n    tag_63:\n      dup2\n      sload\n      dup2\n      mstore\n      swap1\n      0x01\n      add\n      swap1\n      0x20\n      add\n      dup1\n      dup4\n      gt\n      tag_63\n      jumpi\n      dup3\n      swap1\n      sub\n      0x1f\n      and\n      dup3\n      add\n      swap2\n    tag_61:\n      pop\n      pop\n      pop\n      pop\n      pop\n      swap1\n      pop\n      dup4\n      jump\t// out\n        /* \"PersonalRepo/solidity-eth-challenge/contracts/PokemonFactory.sol\":3100:3843  function createPokemon (string calldata _name, uint _id,uint[] calldata _skills,uint[] calldata _types,uint[] calldata _weaknesses) public {... */\n    tag_27:\n        /* \"PersonalRepo/solidity-eth-challenge/contracts/PokemonFactory.sol\":3260:3261  0 */\n      0x00\n        /* \"PersonalRepo/solidity-eth-challenge/contracts/PokemonFactory.sol\":3256:3259  _id */\n      dup8\n        /* \"PersonalRepo/solidity-eth-challenge/contracts/PokemonFactory.sol\":3256:3261  _id>0 */\n      gt\n        /* \"PersonalRepo/solidity-eth-challenge/contracts/PokemonFactory.sol\":3248:3291  require(_id>0, \"Id must be greater than 0\") */\n      tag_65\n      jumpi\n      mload(0x40)\n      0x08c379a000000000000000000000000000000000000000000000000000000000\n      dup2\n      mstore\n      0x04\n      add\n      tag_66\n      swap1\n      tag_67\n      jump\t// in\n    tag_66:\n      mload(0x40)\n      dup1\n      swap2\n      sub\n      swap1\n      revert\n    tag_65:\n        /* \"PersonalRepo/solidity-eth-challenge/contracts/PokemonFactory.sol\":3331:3332  2 */\n      0x02\n        /* \"PersonalRepo/solidity-eth-challenge/contracts/PokemonFactory.sol\":3314:3319  _name */\n      dup10\n      dup10\n        /* \"PersonalRepo/solidity-eth-challenge/contracts/PokemonFactory.sol\":3308:3327  bytes(_name).length */\n      swap1\n      pop\n        /* \"PersonalRepo/solidity-eth-challenge/contracts/PokemonFactory.sol\":3308:3332  bytes(_name).length >= 2 */\n      lt\n      iszero\n        /* \"PersonalRepo/solidity-eth-challenge/contracts/PokemonFactory.sol\":3300:3376  require(bytes(_name).length >= 2, \"Name must be at least 2 characters long\") */\n      tag_68\n      jumpi\n      mload(0x40)\n      0x08c379a000000000000000000000000000000000000000000000000000000000\n      dup2\n      mstore\n      0x04\n      add\n      tag_69\n      swap1\n      tag_70\n      jump\t// in\n    tag_69:\n      mload(0x40)\n      dup1\n      swap2\n      sub\n      swap1\n      revert\n    tag_68:\n        /* \"PersonalRepo/solidity-eth-challenge/contracts/PokemonFactory.sol\":3410:3411  0 */\n      0x00\n        /* \"PersonalRepo/solidity-eth-challenge/contracts/PokemonFactory.sol\":3393:3400  _skills */\n      dup7\n      dup7\n        /* \"PersonalRepo/solidity-eth-challenge/contracts/PokemonFactory.sol\":3393:3407  _skills.length */\n      swap1\n      pop\n        /* \"PersonalRepo/solidity-eth-challenge/contracts/PokemonFactory.sol\":3393:3411  _skills.length > 0 */\n      gt\n        /* \"PersonalRepo/solidity-eth-challenge/contracts/PokemonFactory.sol\":3385:3452  require(_skills.length > 0, \"Pokemon must have at least one skill\") */\n      tag_71\n      jumpi\n      mload(0x40)\n      0x08c379a000000000000000000000000000000000000000000000000000000000\n      dup2\n      mstore\n      0x04\n      add\n      tag_72\n      swap1\n      tag_73\n      jump\t// in\n    tag_72:\n      mload(0x40)\n      dup1\n      swap2\n      sub\n      swap1\n      revert\n    tag_71:\n        /* \"PersonalRepo/solidity-eth-challenge/contracts/PokemonFactory.sol\":3485:3486  0 */\n      0x00\n        /* \"PersonalRepo/solidity-eth-challenge/contracts/PokemonFactory.sol\":3469:3475  _types */\n      dup5\n      dup5\n        /* \"PersonalRepo/solidity-eth-challenge/contracts/PokemonFactory.sol\":3469:3482  _types.length */\n      swap1\n      pop\n        /* \"PersonalRepo/solidity-eth-challenge/contracts/PokemonFactory.sol\":3469:3486  _types.length > 0 */\n      gt\n        /* \"PersonalRepo/solidity-eth-challenge/contracts/PokemonFactory.sol\":3461:3526  require(_types.length > 0, \"Pokemon must have at least one type\") */\n      tag_74\n      jumpi\n      mload(0x40)\n      0x08c379a000000000000000000000000000000000000000000000000000000000\n      dup2\n      mstore\n      0x04\n      add\n      tag_75\n      swap1\n      tag_76\n      jump\t// in\n    tag_75:\n      mload(0x40)\n      dup1\n      swap2\n      sub\n      swap1\n      revert\n    tag_74:\n        /* \"PersonalRepo/solidity-eth-challenge/contracts/PokemonFactory.sol\":3564:3565  0 */\n      0x00\n        /* \"PersonalRepo/solidity-eth-challenge/contracts/PokemonFactory.sol\":3543:3554  _weaknesses */\n      dup3\n      dup3\n        /* \"PersonalRepo/solidity-eth-challenge/contracts/PokemonFactory.sol\":3543:3561  _weaknesses.length */\n      swap1\n      pop\n        /* \"PersonalRepo/solidity-eth-challenge/contracts/PokemonFactory.sol\":3543:3565  _weaknesses.length > 0 */\n      gt\n        /* \"PersonalRepo/solidity-eth-challenge/contracts/PokemonFactory.sol\":3535:3609  require(_weaknesses.length > 0, \"Pokemon must have at least one weakness\") */\n      tag_77\n      jumpi\n      mload(0x40)\n      0x08c379a000000000000000000000000000000000000000000000000000000000\n      dup2\n      mstore\n      0x04\n      add\n      tag_78\n      swap1\n      tag_79\n      jump\t// in\n    tag_78:\n      mload(0x40)\n      dup1\n      swap2\n      sub\n      swap1\n      revert\n    tag_77:\n        /* \"PersonalRepo/solidity-eth-challenge/contracts/PokemonFactory.sol\":3618:3626  pokemons */\n      0x00\n        /* \"PersonalRepo/solidity-eth-challenge/contracts/PokemonFactory.sol\":3632:3677  Pokemon(_id,_name,_skills,_types,_weaknesses) */\n      mload(0x40)\n      dup1\n      0xa0\n      add\n      0x40\n      mstore\n      dup1\n        /* \"PersonalRepo/solidity-eth-challenge/contracts/PokemonFactory.sol\":3640:3643  _id */\n      dup10\n        /* \"PersonalRepo/solidity-eth-challenge/contracts/PokemonFactory.sol\":3632:3677  Pokemon(_id,_name,_skills,_types,_weaknesses) */\n      dup2\n      mstore\n      0x20\n      add\n        /* \"PersonalRepo/solidity-eth-challenge/contracts/PokemonFactory.sol\":3644:3649  _name */\n      dup12\n      dup12\n        /* \"PersonalRepo/solidity-eth-challenge/contracts/PokemonFactory.sol\":3632:3677  Pokemon(_id,_name,_skills,_types,_weaknesses) */\n      dup1\n      dup1\n      0x1f\n      add\n      0x20\n      dup1\n      swap2\n      div\n      mul\n      0x20\n      add\n      mload(0x40)\n      swap1\n      dup2\n      add\n      0x40\n      mstore\n      dup1\n      swap4\n      swap3\n      swap2\n      swap1\n      dup2\n      dup2\n      mstore\n      0x20\n      add\n      dup4\n      dup4\n      dup1\n      dup3\n      dup5\n      calldatacopy\n      0x00\n      dup2\n      dup5\n      add\n      mstore\n      not(0x1f)\n      0x1f\n      dup3\n      add\n      and\n      swap1\n      pop\n      dup1\n      dup4\n      add\n      swap3\n      pop\n      pop\n      pop\n      pop\n      pop\n      pop\n      pop\n      dup2\n      mstore\n      0x20\n      add\n        /* \"PersonalRepo/solidity-eth-challenge/contracts/PokemonFactory.sol\":3650:3657  _skills */\n      dup9\n      dup9\n        /* \"PersonalRepo/solidity-eth-challenge/contracts/PokemonFactory.sol\":3632:3677  Pokemon(_id,_name,_skills,_types,_weaknesses) */\n      dup1\n      dup1\n      0x20\n      mul\n      0x20\n      add\n      mload(0x40)\n      swap1\n      dup2\n      add\n      0x40\n      mstore\n      dup1\n      swap4\n      swap3\n      swap2\n      swap1\n      dup2\n      dup2\n      mstore\n      0x20\n      add\n      dup4\n      dup4\n      0x20\n      mul\n      dup1\n      dup3\n      dup5\n      calldatacopy\n      0x00\n      dup2\n      dup5\n      add\n      mstore\n      not(0x1f)\n      0x1f\n      dup3\n      add\n      and\n      swap1\n      pop\n      dup1\n      dup4\n      add\n      swap3\n      pop\n      pop\n      pop\n      pop\n      pop\n      pop\n      pop\n      dup2\n      mstore\n      0x20\n      add\n        /* \"PersonalRepo/solidity-eth-challenge/contracts/PokemonFactory.sol\":3658:3664  _types */\n      dup7\n      dup7\n        /* \"PersonalRepo/solidity-eth-challenge/contracts/PokemonFactory.sol\":3632:3677  Pokemon(_id,_name,_skills,_types,_weaknesses) */\n      dup1\n      dup1\n      0x20\n      mul\n      0x20\n      add\n      mload(0x40)\n      swap1\n      dup2\n      add\n      0x40\n      mstore\n      dup1\n      swap4\n      swap3\n      swap2\n      swap1\n      dup2\n      dup2\n      mstore\n      0x20\n      add\n      dup4\n      dup4\n      0x20\n      mul\n      dup1\n      dup3\n      dup5\n      calldatacopy\n      0x00\n      dup2\n      dup5\n      add\n      mstore\n      not(0x1f)\n      0x1f\n      dup3\n      add\n      and\n      swap1\n      pop\n      dup1\n      dup4\n      add\n      swap3\n      pop\n      pop\n      pop\n      pop\n      pop\n      pop\n      pop\n      dup2\n      mstore\n      0x20\n      add\n        /* \"PersonalRepo/solidity-eth-challenge/contracts/PokemonFactory.sol\":3665:3676  _weaknesses */\n      dup5\n      dup5\n        /* \"PersonalRepo/solidity-eth-challenge/contracts/PokemonFactory.sol\":3632:3677  Pokemon(_id,_name,_skills,_types,_weaknesses) */\n      dup1\n      dup1\n      0x20\n      mul\n      0x20\n      add\n      mload(0x40)\n      swap1\n      dup2\n      add\n      0x40\n      mstore\n      dup1\n      swap4\n      swap3\n      swap2\n      swap1\n      dup2\n      dup2\n      mstore\n      0x20\n      add\n      dup4\n      dup4\n      0x20\n      mul\n      dup1\n      dup3\n      dup5\n      calldatacopy\n      0x00\n      dup2\n      dup5\n      add\n      mstore\n      not(0x1f)\n      0x1f\n      dup3\n      add\n      and\n      swap1\n      pop\n      dup1\n      dup4\n      add\n      swap3\n      pop\n      pop\n      pop\n      pop\n      pop\n      pop\n      pop\n      dup2\n      mstore\n      pop\n        /* \"PersonalRepo/solidity-eth-challenge/contracts/PokemonFactory.sol\":3618:3678  pokemons.push(Pokemon(_id,_name,_skills,_types,_weaknesses)) */\n      swap1\n      dup1\n      0x01\n      dup2\n      sload\n      add\n      dup1\n      dup3\n      sstore\n      dup1\n      swap2\n      pop\n      pop\n      0x01\n      swap1\n      sub\n      swap1\n      0x00\n      mstore\n      keccak256(0x00, 0x20)\n      swap1\n      0x05\n      mul\n      add\n      0x00\n      swap1\n      swap2\n      swap1\n      swap2\n      swap1\n      swap2\n      pop\n      0x00\n      dup3\n      add\n      mload\n      dup2\n      0x00\n      add\n      sstore\n      0x20\n      dup3\n      add\n      mload\n      dup2\n      0x01\n      add\n      swap1\n      dup2\n      tag_81\n      swap2\n      swap1\n      tag_82\n      jump\t// in\n    tag_81:\n      pop\n      0x40\n      dup3\n      add\n      mload\n      dup2\n      0x02\n      add\n      swap1\n      dup1\n      mload\n      swap1\n      0x20\n      add\n      swap1\n      tag_83\n      swap3\n      swap2\n      swap1\n      tag_84\n      jump\t// in\n    tag_83:\n      pop\n      0x60\n      dup3\n      add\n      mload\n      dup2\n      0x03\n      add\n      swap1\n      dup1\n      mload\n      swap1\n      0x20\n      add\n      swap1\n      tag_85\n      swap3\n      swap2\n      swap1\n      tag_84\n      jump\t// in\n    tag_85:\n      pop\n      0x80\n      dup3\n      add\n      mload\n      dup2\n      0x04\n      add\n      swap1\n      dup1\n      mload\n      swap1\n      0x20\n      add\n      swap1\n      tag_86\n      swap3\n      swap2\n      swap1\n      tag_84\n      jump\t// in\n    tag_86:\n      pop\n      pop\n      pop\n        /* \"PersonalRepo/solidity-eth-challenge/contracts/PokemonFactory.sol\":3709:3719  msg.sender */\n      caller\n        /* \"PersonalRepo/solidity-eth-challenge/contracts/PokemonFactory.sol\":3687:3701  pokemonToOwner */\n      0x01\n        /* \"PersonalRepo/solidity-eth-challenge/contracts/PokemonFactory.sol\":3687:3706  pokemonToOwner[_id] */\n      0x00\n        /* \"PersonalRepo/solidity-eth-challenge/contracts/PokemonFactory.sol\":3702:3705  _id */\n      dup10\n        /* \"PersonalRepo/solidity-eth-challenge/contracts/PokemonFactory.sol\":3687:3706  pokemonToOwner[_id] */\n      dup2\n      mstore\n      0x20\n      add\n      swap1\n      dup2\n      mstore\n      0x20\n      add\n      0x00\n      keccak256\n      0x00\n        /* \"PersonalRepo/solidity-eth-challenge/contracts/PokemonFactory.sol\":3687:3719  pokemonToOwner[_id] = msg.sender */\n      0x0100\n      exp\n      dup2\n      sload\n      dup2\n      0xffffffffffffffffffffffffffffffffffffffff\n      mul\n      not\n      and\n      swap1\n      dup4\n      0xffffffffffffffffffffffffffffffffffffffff\n      and\n      mul\n      or\n      swap1\n      sstore\n      pop\n        /* \"PersonalRepo/solidity-eth-challenge/contracts/PokemonFactory.sol\":3728:3745  ownerPokemonCount */\n      0x02\n        /* \"PersonalRepo/solidity-eth-challenge/contracts/PokemonFactory.sol\":3728:3757  ownerPokemonCount[msg.sender] */\n      0x00\n        /* \"PersonalRepo/solidity-eth-challenge/contracts/PokemonFactory.sol\":3746:3756  msg.sender */\n      caller\n        /* \"PersonalRepo/solidity-eth-challenge/contracts/PokemonFactory.sol\":3728:3757  ownerPokemonCount[msg.sender] */\n      0xffffffffffffffffffffffffffffffffffffffff\n      and\n      0xffffffffffffffffffffffffffffffffffffffff\n      and\n      dup2\n      mstore\n      0x20\n      add\n      swap1\n      dup2\n      mstore\n      0x20\n      add\n      0x00\n      keccak256\n      0x00\n        /* \"PersonalRepo/solidity-eth-challenge/contracts/PokemonFactory.sol\":3728:3759  ownerPokemonCount[msg.sender]++ */\n      dup2\n      sload\n      dup1\n      swap3\n      swap2\n      swap1\n      tag_87\n      swap1\n      tag_88\n      jump\t// in\n    tag_87:\n      swap2\n      swap1\n      pop\n      sstore\n      pop\n        /* \"PersonalRepo/solidity-eth-challenge/contracts/PokemonFactory.sol\":3773:3835  eventNewPokemon(Pokemon(_id,_name,_skills,_types,_weaknesses)) */\n      0x3fe2b01362012085de0bd7be248169688dac314bf1d93d69416e32118881ccdb\n        /* \"PersonalRepo/solidity-eth-challenge/contracts/PokemonFactory.sol\":3789:3834  Pokemon(_id,_name,_skills,_types,_weaknesses) */\n      mload(0x40)\n      dup1\n      0xa0\n      add\n      0x40\n      mstore\n      dup1\n        /* \"PersonalRepo/solidity-eth-challenge/contracts/PokemonFactory.sol\":3797:3800  _id */\n      dup10\n        /* \"PersonalRepo/solidity-eth-challenge/contracts/PokemonFactory.sol\":3789:3834  Pokemon(_id,_name,_skills,_types,_weaknesses) */\n      dup2\n      mstore\n      0x20\n      add\n        /* \"PersonalRepo/solidity-eth-challenge/contracts/PokemonFactory.sol\":3801:3806  _name */\n      dup12\n      dup12\n        /* \"PersonalRepo/solidity-eth-challenge/contracts/PokemonFactory.sol\":3789:3834  Pokemon(_id,_name,_skills,_types,_weaknesses) */\n      dup1\n      dup1\n      0x1f\n      add\n      0x20\n      dup1\n      swap2\n      div\n      mul\n      0x20\n      add\n      mload(0x40)\n      swap1\n      dup2\n      add\n      0x40\n      mstore\n      dup1\n      swap4\n      swap3\n      swap2\n      swap1\n      dup2\n      dup2\n      mstore\n      0x20\n      add\n      dup4\n      dup4\n      dup1\n      dup3\n      dup5\n      calldatacopy\n      0x00\n      dup2\n      dup5\n      add\n      mstore\n      not(0x1f)\n      0x1f\n      dup3\n      add\n      and\n      swap1\n      pop\n      dup1\n      dup4\n      add\n      swap3\n      pop\n      pop\n      pop\n      pop\n      pop\n      pop\n      pop\n      dup2\n      mstore\n      0x20\n      add\n        /* \"PersonalRepo/solidity-eth-challenge/contracts/PokemonFactory.sol\":3807:3814  _skills */\n      dup9\n      dup9\n        /* \"PersonalRepo/solidity-eth-challenge/contracts/PokemonFactory.sol\":3789:3834  Pokemon(_id,_name,_skills,_types,_weaknesses) */\n      dup1\n      dup1\n      0x20\n      mul\n      0x20\n      add\n      mload(0x40)\n      swap1\n      dup2\n      add\n      0x40\n      mstore\n      dup1\n      swap4\n      swap3\n      swap2\n      swap1\n      dup2\n      dup2\n      mstore\n      0x20\n      add\n      dup4\n      dup4\n      0x20\n      mul\n      dup1\n      dup3\n      dup5\n      calldatacopy\n      0x00\n      dup2\n      dup5\n      add\n      mstore\n      not(0x1f)\n      0x1f\n      dup3\n      add\n      and\n      swap1\n      pop\n      dup1\n      dup4\n      add\n      swap3\n      pop\n      pop\n      pop\n      pop\n      pop\n      pop\n      pop\n      dup2\n      mstore\n      0x20\n      add\n        /* \"PersonalRepo/solidity-eth-challenge/contracts/PokemonFactory.sol\":3815:3821  _types */\n      dup7\n      dup7\n        /* \"PersonalRepo/solidity-eth-challenge/contracts/PokemonFactory.sol\":3789:3834  Pokemon(_id,_name,_skills,_types,_weaknesses) */\n      dup1\n      dup1\n      0x20\n      mul\n      0x20\n      add\n      mload(0x40)\n      swap1\n      dup2\n      add\n      0x40\n      mstore\n      dup1\n      swap4\n      swap3\n      swap2\n      swap1\n      dup2\n      dup2\n      mstore\n      0x20\n      add\n      dup4\n      dup4\n      0x20\n      mul\n      dup1\n      dup3\n      dup5\n      calldatacopy\n      0x00\n      dup2\n      dup5\n      add\n      mstore\n      not(0x1f)\n      0x1f\n      dup3\n      add\n      and\n      swap1\n      pop\n      dup1\n      dup4\n      add\n      swap3\n      pop\n      pop\n      pop\n      pop\n      pop\n      pop\n      pop\n      dup2\n      mstore\n      0x20\n      add\n        /* \"PersonalRepo/solidity-eth-challenge/contracts/PokemonFactory.sol\":3822:3833  _weaknesses */\n      dup5\n      dup5\n        /* \"PersonalRepo/solidity-eth-challenge/contracts/PokemonFactory.sol\":3789:3834  Pokemon(_id,_name,_skills,_types,_weaknesses) */\n      dup1\n      dup1\n      0x20\n      mul\n      0x20\n      add\n      mload(0x40)\n      swap1\n      dup2\n      add\n      0x40\n      mstore\n      dup1\n      swap4\n      swap3\n      swap2\n      swap1\n      dup2\n      dup2\n      mstore\n      0x20\n      add\n      dup4\n      dup4\n      0x20\n      mul\n      dup1\n      dup3\n      dup5\n      calldatacopy\n      0x00\n      dup2\n      dup5\n      add\n      mstore\n      not(0x1f)\n      0x1f\n      dup3\n      add\n      and\n      swap1\n      pop\n      dup1\n      dup4\n      add\n      swap3\n      pop\n      pop\n      pop\n      pop\n      pop\n      pop\n      pop\n      dup2\n      mstore\n      pop\n        /* \"PersonalRepo/solidity-eth-challenge/contracts/PokemonFactory.sol\":3773:3835  eventNewPokemon(Pokemon(_id,_name,_skills,_types,_weaknesses)) */\n      mload(0x40)\n      tag_89\n      swap2\n      swap1\n      tag_90\n      jump\t// in\n    tag_89:\n      mload(0x40)\n      dup1\n      swap2\n      sub\n      swap1\n      log1\n        /* \"PersonalRepo/solidity-eth-challenge/contracts/PokemonFactory.sol\":3100:3843  function createPokemon (string calldata _name, uint _id,uint[] calldata _skills,uint[] calldata _types,uint[] calldata _weaknesses) public {... */\n      pop\n      pop\n      pop\n      pop\n      pop\n      pop\n      pop\n      pop\n      pop\n      jump\t// out\n        /* \"PersonalRepo/solidity-eth-challenge/contracts/PokemonFactory.sol\":3958:4113  function getResult() public pure returns(uint product, uint sum){... */\n    tag_29:\n        /* \"PersonalRepo/solidity-eth-challenge/contracts/PokemonFactory.sol\":3999:4011  uint product */\n      0x00\n        /* \"PersonalRepo/solidity-eth-challenge/contracts/PokemonFactory.sol\":4013:4021  uint sum */\n      dup1\n        /* \"PersonalRepo/solidity-eth-challenge/contracts/PokemonFactory.sol\":4031:4037  uint a */\n      0x00\n        /* \"PersonalRepo/solidity-eth-challenge/contracts/PokemonFactory.sol\":4040:4041  1 */\n      0x01\n        /* \"PersonalRepo/solidity-eth-challenge/contracts/PokemonFactory.sol\":4031:4041  uint a = 1 */\n      swap1\n      pop\n        /* \"PersonalRepo/solidity-eth-challenge/contracts/PokemonFactory.sol\":4051:4057  uint b */\n      0x00\n        /* \"PersonalRepo/solidity-eth-challenge/contracts/PokemonFactory.sol\":4060:4061  2 */\n      0x02\n        /* \"PersonalRepo/solidity-eth-challenge/contracts/PokemonFactory.sol\":4051:4061  uint b = 2 */\n      swap1\n      pop\n        /* \"PersonalRepo/solidity-eth-challenge/contracts/PokemonFactory.sol\":4084:4085  b */\n      dup1\n        /* \"PersonalRepo/solidity-eth-challenge/contracts/PokemonFactory.sol\":4080:4081  a */\n      dup3\n        /* \"PersonalRepo/solidity-eth-challenge/contracts/PokemonFactory.sol\":4080:4085  a * b */\n      tag_92\n      swap2\n      swap1\n      tag_93\n      jump\t// in\n    tag_92:\n        /* \"PersonalRepo/solidity-eth-challenge/contracts/PokemonFactory.sol\":4070:4085  product = a * b */\n      swap4\n      pop\n        /* \"PersonalRepo/solidity-eth-challenge/contracts/PokemonFactory.sol\":4104:4105  b */\n      dup1\n        /* \"PersonalRepo/solidity-eth-challenge/contracts/PokemonFactory.sol\":4100:4101  a */\n      dup3\n        /* \"PersonalRepo/solidity-eth-challenge/contracts/PokemonFactory.sol\":4100:4105  a + b */\n      tag_94\n      swap2\n      swap1\n      tag_95\n      jump\t// in\n    tag_94:\n        /* \"PersonalRepo/solidity-eth-challenge/contracts/PokemonFactory.sol\":4094:4105  sum = a + b */\n      swap3\n      pop\n        /* \"PersonalRepo/solidity-eth-challenge/contracts/PokemonFactory.sol\":4022:4113  {... */\n      pop\n      pop\n        /* \"PersonalRepo/solidity-eth-challenge/contracts/PokemonFactory.sol\":3958:4113  function getResult() public pure returns(uint product, uint sum){... */\n      swap1\n      swap2\n      jump\t// out\n        /* \"PersonalRepo/solidity-eth-challenge/contracts/PokemonFactory.sol\":545:580  PokemonSkill[] public pokemonSkills */\n    tag_34:\n      0x03\n      dup2\n      dup2\n      sload\n      dup2\n      lt\n      tag_96\n      jumpi\n      0x00\n      dup1\n      revert\n    tag_96:\n      swap1\n      0x00\n      mstore\n      keccak256(0x00, 0x20)\n      swap1\n      0x03\n      mul\n      add\n      0x00\n      swap2\n      pop\n      swap1\n      pop\n      dup1\n      0x00\n      add\n      sload\n      swap1\n      dup1\n      0x01\n      add\n      dup1\n      sload\n      tag_98\n      swap1\n      tag_41\n      jump\t// in\n    tag_98:\n      dup1\n      0x1f\n      add\n      0x20\n      dup1\n      swap2\n      div\n      mul\n      0x20\n      add\n      mload(0x40)\n      swap1\n      dup2\n      add\n      0x40\n      mstore\n      dup1\n      swap3\n      swap2\n      swap1\n      dup2\n      dup2\n      mstore\n      0x20\n      add\n      dup3\n      dup1\n      sload\n      tag_99\n      swap1\n      tag_41\n      jump\t// in\n    tag_99:\n      dup1\n      iszero\n      tag_100\n      jumpi\n      dup1\n      0x1f\n      lt\n      tag_101\n      jumpi\n      0x0100\n      dup1\n      dup4\n      sload\n      div\n      mul\n      dup4\n      mstore\n      swap2\n      0x20\n      add\n      swap2\n      jump(tag_100)\n    tag_101:\n      dup3\n      add\n      swap2\n      swap1\n      0x00\n      mstore\n      keccak256(0x00, 0x20)\n      swap1\n    tag_102:\n      dup2\n      sload\n      dup2\n      mstore\n      swap1\n      0x01\n      add\n      swap1\n      0x20\n      add\n      dup1\n      dup4\n      gt\n      tag_102\n      jumpi\n      dup3\n      swap1\n      sub\n      0x1f\n      and\n      dup3\n      add\n      swap2\n    tag_100:\n      pop\n      pop\n      pop\n      pop\n      pop\n      swap1\n      dup1\n      0x02\n      add\n      dup1\n      sload\n      tag_103\n      swap1\n      tag_41\n      jump\t// in\n    tag_103:\n      dup1\n      0x1f\n      add\n      0x20\n      dup1\n      swap2\n      div\n      mul\n      0x20\n      add\n      mload(0x40)\n      swap1\n      dup2\n      add\n      0x40\n      mstore\n      dup1\n      swap3\n      swap2\n      swap1\n      dup2\n      dup2\n      mstore\n      0x20\n      add\n      dup3\n      dup1\n      sload\n      tag_104\n      swap1\n      tag_41\n      jump\t// in\n    tag_104:\n      dup1\n      iszero\n      tag_105\n      jumpi\n      dup1\n      0x1f\n      lt\n      tag_106\n      jumpi\n      0x0100\n      dup1\n      dup4\n      sload\n      div\n      mul\n      dup4\n      mstore\n      swap2\n      0x20\n      add\n      swap2\n      jump(tag_105)\n    tag_106:\n      dup3\n      add\n      swap2\n      swap1\n      0x00\n      mstore\n      keccak256(0x00, 0x20)\n      swap1\n    tag_107:\n      dup2\n      sload\n      dup2\n      mstore\n      swap1\n      0x01\n      add\n      swap1\n      0x20\n      add\n      dup1\n      dup4\n      gt\n      tag_107\n      jumpi\n      dup3\n      swap1\n      sub\n      0x1f\n      and\n      dup3\n      add\n      swap2\n    tag_105:\n      pop\n      pop\n      pop\n      pop\n      pop\n      swap1\n      pop\n      dup4\n      jump\t// out\n    tag_84:\n      dup3\n      dup1\n      sload\n      dup3\n      dup3\n      sstore\n      swap1\n      0x00\n      mstore\n      keccak256(0x00, 0x20)\n      swap1\n      dup2\n      add\n      swap3\n      dup3\n      iszero\n      tag_108\n      jumpi\n      swap2\n      0x20\n      mul\n      dup3\n      add\n    tag_109:\n      dup3\n      dup2\n      gt\n      iszero\n      tag_110\n      jumpi\n      dup3\n      mload\n      dup3\n      sstore\n      swap2\n      0x20\n      add\n      swap2\n      swap1\n      0x01\n      add\n      swap1\n      jump(tag_109)\n    tag_110:\n    tag_108:\n      pop\n      swap1\n      pop\n      tag_111\n      swap2\n      swap1\n      tag_112\n      jump\t// in\n    tag_111:\n      pop\n      swap1\n      jump\t// out\n    tag_112:\n    tag_113:\n      dup1\n      dup3\n      gt\n      iszero\n      tag_114\n      jumpi\n      0x00\n      dup2\n      0x00\n      swap1\n      sstore\n      pop\n      0x01\n      add\n      jump(tag_113)\n    tag_114:\n      pop\n      swap1\n      jump\t// out\n        /* \"#utility.yul\":88:205   */\n    tag_116:\n        /* \"#utility.yul\":197:198   */\n      0x00\n        /* \"#utility.yul\":194:195   */\n      dup1\n        /* \"#utility.yul\":187:199   */\n      revert\n        /* \"#utility.yul\":211:328   */\n    tag_117:\n        /* \"#utility.yul\":320:321   */\n      0x00\n        /* \"#utility.yul\":317:318   */\n      dup1\n        /* \"#utility.yul\":310:322   */\n      revert\n        /* \"#utility.yul\":334:411   */\n    tag_118:\n        /* \"#utility.yul\":371:378   */\n      0x00\n        /* \"#utility.yul\":400:405   */\n      dup2\n        /* \"#utility.yul\":389:405   */\n      swap1\n      pop\n        /* \"#utility.yul\":334:411   */\n      swap2\n      swap1\n      pop\n      jump\t// out\n        /* \"#utility.yul\":417:539   */\n    tag_119:\n        /* \"#utility.yul\":490:514   */\n      tag_186\n        /* \"#utility.yul\":508:513   */\n      dup2\n        /* \"#utility.yul\":490:514   */\n      tag_118\n      jump\t// in\n    tag_186:\n        /* \"#utility.yul\":483:488   */\n      dup2\n        /* \"#utility.yul\":480:515   */\n      eq\n        /* \"#utility.yul\":470:533   */\n      tag_187\n      jumpi\n        /* \"#utility.yul\":529:530   */\n      0x00\n        /* \"#utility.yul\":526:527   */\n      dup1\n        /* \"#utility.yul\":519:531   */\n      revert\n        /* \"#utility.yul\":470:533   */\n    tag_187:\n        /* \"#utility.yul\":417:539   */\n      pop\n      jump\t// out\n        /* \"#utility.yul\":545:684   */\n    tag_120:\n        /* \"#utility.yul\":591:596   */\n      0x00\n        /* \"#utility.yul\":629:635   */\n      dup2\n        /* \"#utility.yul\":616:636   */\n      calldataload\n        /* \"#utility.yul\":607:636   */\n      swap1\n      pop\n        /* \"#utility.yul\":645:678   */\n      tag_189\n        /* \"#utility.yul\":672:677   */\n      dup2\n        /* \"#utility.yul\":645:678   */\n      tag_119\n      jump\t// in\n    tag_189:\n        /* \"#utility.yul\":545:684   */\n      swap3\n      swap2\n      pop\n      pop\n      jump\t// out\n        /* \"#utility.yul\":690:1019   */\n    tag_11:\n        /* \"#utility.yul\":749:755   */\n      0x00\n        /* \"#utility.yul\":798:800   */\n      0x20\n        /* \"#utility.yul\":786:795   */\n      dup3\n        /* \"#utility.yul\":777:784   */\n      dup5\n        /* \"#utility.yul\":773:796   */\n      sub\n        /* \"#utility.yul\":769:801   */\n      slt\n        /* \"#utility.yul\":766:885   */\n      iszero\n      tag_191\n      jumpi\n        /* \"#utility.yul\":804:883   */\n      tag_192\n      tag_116\n      jump\t// in\n    tag_192:\n        /* \"#utility.yul\":766:885   */\n    tag_191:\n        /* \"#utility.yul\":924:925   */\n      0x00\n        /* \"#utility.yul\":949:1002   */\n      tag_193\n        /* \"#utility.yul\":994:1001   */\n      dup5\n        /* \"#utility.yul\":985:991   */\n      dup3\n        /* \"#utility.yul\":974:983   */\n      dup6\n        /* \"#utility.yul\":970:992   */\n      add\n        /* \"#utility.yul\":949:1002   */\n      tag_120\n      jump\t// in\n    tag_193:\n        /* \"#utility.yul\":939:1002   */\n      swap2\n      pop\n        /* \"#utility.yul\":895:1012   */\n      pop\n        /* \"#utility.yul\":690:1019   */\n      swap3\n      swap2\n      pop\n      pop\n      jump\t// out\n        /* \"#utility.yul\":1025:1151   */\n    tag_121:\n        /* \"#utility.yul\":1062:1069   */\n      0x00\n        /* \"#utility.yul\":1102:1144   */\n      0xffffffffffffffffffffffffffffffffffffffff\n        /* \"#utility.yul\":1095:1100   */\n      dup3\n        /* \"#utility.yul\":1091:1145   */\n      and\n        /* \"#utility.yul\":1080:1145   */\n      swap1\n      pop\n        /* \"#utility.yul\":1025:1151   */\n      swap2\n      swap1\n      pop\n      jump\t// out\n        /* \"#utility.yul\":1157:1253   */\n    tag_122:\n        /* \"#utility.yul\":1194:1201   */\n      0x00\n        /* \"#utility.yul\":1223:1247   */\n      tag_196\n        /* \"#utility.yul\":1241:1246   */\n      dup3\n        /* \"#utility.yul\":1223:1247   */\n      tag_121\n      jump\t// in\n    tag_196:\n        /* \"#utility.yul\":1212:1247   */\n      swap1\n      pop\n        /* \"#utility.yul\":1157:1253   */\n      swap2\n      swap1\n      pop\n      jump\t// out\n        /* \"#utility.yul\":1259:1377   */\n    tag_123:\n        /* \"#utility.yul\":1346:1370   */\n      tag_198\n        /* \"#utility.yul\":1364:1369   */\n      dup2\n        /* \"#utility.yul\":1346:1370   */\n      tag_122\n      jump\t// in\n    tag_198:\n        /* \"#utility.yul\":1341:1344   */\n      dup3\n        /* \"#utility.yul\":1334:1371   */\n      mstore\n        /* \"#utility.yul\":1259:1377   */\n      pop\n      pop\n      jump\t// out\n        /* \"#utility.yul\":1383:1605   */\n    tag_14:\n        /* \"#utility.yul\":1476:1480   */\n      0x00\n        /* \"#utility.yul\":1514:1516   */\n      0x20\n        /* \"#utility.yul\":1503:1512   */\n      dup3\n        /* \"#utility.yul\":1499:1517   */\n      add\n        /* \"#utility.yul\":1491:1517   */\n      swap1\n      pop\n        /* \"#utility.yul\":1527:1598   */\n      tag_200\n        /* \"#utility.yul\":1595:1596   */\n      0x00\n        /* \"#utility.yul\":1584:1593   */\n      dup4\n        /* \"#utility.yul\":1580:1597   */\n      add\n        /* \"#utility.yul\":1571:1577   */\n      dup5\n        /* \"#utility.yul\":1527:1598   */\n      tag_123\n      jump\t// in\n    tag_200:\n        /* \"#utility.yul\":1383:1605   */\n      swap3\n      swap2\n      pop\n      pop\n      jump\t// out\n        /* \"#utility.yul\":1611:1748   */\n    tag_124:\n        /* \"#utility.yul\":1701:1707   */\n      0x00\n        /* \"#utility.yul\":1735:1740   */\n      dup2\n        /* \"#utility.yul\":1729:1741   */\n      mload\n        /* \"#utility.yul\":1719:1741   */\n      swap1\n      pop\n        /* \"#utility.yul\":1611:1748   */\n      swap2\n      swap1\n      pop\n      jump\t// out\n        /* \"#utility.yul\":1754:1961   */\n    tag_125:\n        /* \"#utility.yul\":1876:1887   */\n      0x00\n        /* \"#utility.yul\":1910:1916   */\n      dup3\n        /* \"#utility.yul\":1905:1908   */\n      dup3\n        /* \"#utility.yul\":1898:1917   */\n      mstore\n        /* \"#utility.yul\":1950:1954   */\n      0x20\n        /* \"#utility.yul\":1945:1948   */\n      dup3\n        /* \"#utility.yul\":1941:1955   */\n      add\n        /* \"#utility.yul\":1926:1955   */\n      swap1\n      pop\n        /* \"#utility.yul\":1754:1961   */\n      swap3\n      swap2\n      pop\n      pop\n      jump\t// out\n        /* \"#utility.yul\":1967:2122   */\n    tag_126:\n        /* \"#utility.yul\":2057:2061   */\n      0x00\n        /* \"#utility.yul\":2080:2083   */\n      dup2\n        /* \"#utility.yul\":2072:2083   */\n      swap1\n      pop\n        /* \"#utility.yul\":2110:2114   */\n      0x20\n        /* \"#utility.yul\":2105:2108   */\n      dup3\n        /* \"#utility.yul\":2101:2115   */\n      add\n        /* \"#utility.yul\":2093:2115   */\n      swap1\n      pop\n        /* \"#utility.yul\":1967:2122   */\n      swap2\n      swap1\n      pop\n      jump\t// out\n        /* \"#utility.yul\":2128:2236   */\n    tag_127:\n        /* \"#utility.yul\":2205:2229   */\n      tag_205\n        /* \"#utility.yul\":2223:2228   */\n      dup2\n        /* \"#utility.yul\":2205:2229   */\n      tag_118\n      jump\t// in\n    tag_205:\n        /* \"#utility.yul\":2200:2203   */\n      dup3\n        /* \"#utility.yul\":2193:2230   */\n      mstore\n        /* \"#utility.yul\":2128:2236   */\n      pop\n      pop\n      jump\t// out\n        /* \"#utility.yul\":2242:2341   */\n    tag_128:\n        /* \"#utility.yul\":2294:2300   */\n      0x00\n        /* \"#utility.yul\":2328:2333   */\n      dup2\n        /* \"#utility.yul\":2322:2334   */\n      mload\n        /* \"#utility.yul\":2312:2334   */\n      swap1\n      pop\n        /* \"#utility.yul\":2242:2341   */\n      swap2\n      swap1\n      pop\n      jump\t// out\n        /* \"#utility.yul\":2347:2506   */\n    tag_129:\n        /* \"#utility.yul\":2421:2432   */\n      0x00\n        /* \"#utility.yul\":2455:2461   */\n      dup3\n        /* \"#utility.yul\":2450:2453   */\n      dup3\n        /* \"#utility.yul\":2443:2462   */\n      mstore\n        /* \"#utility.yul\":2495:2499   */\n      0x20\n        /* \"#utility.yul\":2490:2493   */\n      dup3\n        /* \"#utility.yul\":2486:2500   */\n      add\n        /* \"#utility.yul\":2471:2500   */\n      swap1\n      pop\n        /* \"#utility.yul\":2347:2506   */\n      swap3\n      swap2\n      pop\n      pop\n      jump\t// out\n        /* \"#utility.yul\":2512:2758   */\n    tag_130:\n        /* \"#utility.yul\":2593:2594   */\n      0x00\n        /* \"#utility.yul\":2603:2716   */\n    tag_209:\n        /* \"#utility.yul\":2617:2623   */\n      dup4\n        /* \"#utility.yul\":2614:2615   */\n      dup2\n        /* \"#utility.yul\":2611:2624   */\n      lt\n        /* \"#utility.yul\":2603:2716   */\n      iszero\n      tag_211\n      jumpi\n        /* \"#utility.yul\":2702:2703   */\n      dup1\n        /* \"#utility.yul\":2697:2700   */\n      dup3\n        /* \"#utility.yul\":2693:2704   */\n      add\n        /* \"#utility.yul\":2687:2705   */\n      mload\n        /* \"#utility.yul\":2683:2684   */\n      dup2\n        /* \"#utility.yul\":2678:2681   */\n      dup5\n        /* \"#utility.yul\":2674:2685   */\n      add\n        /* \"#utility.yul\":2667:2706   */\n      mstore\n        /* \"#utility.yul\":2639:2641   */\n      0x20\n        /* \"#utility.yul\":2636:2637   */\n      dup2\n        /* \"#utility.yul\":2632:2642   */\n      add\n        /* \"#utility.yul\":2627:2642   */\n      swap1\n      pop\n        /* \"#utility.yul\":2603:2716   */\n      jump(tag_209)\n    tag_211:\n        /* \"#utility.yul\":2750:2751   */\n      0x00\n        /* \"#utility.yul\":2741:2747   */\n      dup5\n        /* \"#utility.yul\":2736:2739   */\n      dup5\n        /* \"#utility.yul\":2732:2748   */\n      add\n        /* \"#utility.yul\":2725:2752   */\n      mstore\n        /* \"#utility.yul\":2574:2758   */\n      pop\n        /* \"#utility.yul\":2512:2758   */\n      pop\n      pop\n      pop\n      jump\t// out\n        /* \"#utility.yul\":2764:2866   */\n    tag_131:\n        /* \"#utility.yul\":2805:2811   */\n      0x00\n        /* \"#utility.yul\":2856:2858   */\n      0x1f\n        /* \"#utility.yul\":2852:2859   */\n      not\n        /* \"#utility.yul\":2847:2849   */\n      0x1f\n        /* \"#utility.yul\":2840:2845   */\n      dup4\n        /* \"#utility.yul\":2836:2850   */\n      add\n        /* \"#utility.yul\":2832:2860   */\n      and\n        /* \"#utility.yul\":2822:2860   */\n      swap1\n      pop\n        /* \"#utility.yul\":2764:2866   */\n      swap2\n      swap1\n      pop\n      jump\t// out\n        /* \"#utility.yul\":2872:3229   */\n    tag_132:\n        /* \"#utility.yul\":2950:2953   */\n      0x00\n        /* \"#utility.yul\":2978:3017   */\n      tag_214\n        /* \"#utility.yul\":3011:3016   */\n      dup3\n        /* \"#utility.yul\":2978:3017   */\n      tag_128\n      jump\t// in\n    tag_214:\n        /* \"#utility.yul\":3033:3094   */\n      tag_215\n        /* \"#utility.yul\":3087:3093   */\n      dup2\n        /* \"#utility.yul\":3082:3085   */\n      dup6\n        /* \"#utility.yul\":3033:3094   */\n      tag_129\n      jump\t// in\n    tag_215:\n        /* \"#utility.yul\":3026:3094   */\n      swap4\n      pop\n        /* \"#utility.yul\":3103:3168   */\n      tag_216\n        /* \"#utility.yul\":3161:3167   */\n      dup2\n        /* \"#utility.yul\":3156:3159   */\n      dup6\n        /* \"#utility.yul\":3149:3153   */\n      0x20\n        /* \"#utility.yul\":3142:3147   */\n      dup7\n        /* \"#utility.yul\":3138:3154   */\n      add\n        /* \"#utility.yul\":3103:3168   */\n      tag_130\n      jump\t// in\n    tag_216:\n        /* \"#utility.yul\":3193:3222   */\n      tag_217\n        /* \"#utility.yul\":3215:3221   */\n      dup2\n        /* \"#utility.yul\":3193:3222   */\n      tag_131\n      jump\t// in\n    tag_217:\n        /* \"#utility.yul\":3188:3191   */\n      dup5\n        /* \"#utility.yul\":3184:3223   */\n      add\n        /* \"#utility.yul\":3177:3223   */\n      swap2\n      pop\n        /* \"#utility.yul\":2954:3229   */\n      pop\n        /* \"#utility.yul\":2872:3229   */\n      swap3\n      swap2\n      pop\n      pop\n      jump\t// out\n        /* \"#utility.yul\":3235:3349   */\n    tag_133:\n        /* \"#utility.yul\":3302:3308   */\n      0x00\n        /* \"#utility.yul\":3336:3341   */\n      dup2\n        /* \"#utility.yul\":3330:3342   */\n      mload\n        /* \"#utility.yul\":3320:3342   */\n      swap1\n      pop\n        /* \"#utility.yul\":3235:3349   */\n      swap2\n      swap1\n      pop\n      jump\t// out\n        /* \"#utility.yul\":3355:3529   */\n    tag_134:\n        /* \"#utility.yul\":3444:3455   */\n      0x00\n        /* \"#utility.yul\":3478:3484   */\n      dup3\n        /* \"#utility.yul\":3473:3476   */\n      dup3\n        /* \"#utility.yul\":3466:3485   */\n      mstore\n        /* \"#utility.yul\":3518:3522   */\n      0x20\n        /* \"#utility.yul\":3513:3516   */\n      dup3\n        /* \"#utility.yul\":3509:3523   */\n      add\n        /* \"#utility.yul\":3494:3523   */\n      swap1\n      pop\n        /* \"#utility.yul\":3355:3529   */\n      swap3\n      swap2\n      pop\n      pop\n      jump\t// out\n        /* \"#utility.yul\":3535:3667   */\n    tag_135:\n        /* \"#utility.yul\":3602:3606   */\n      0x00\n        /* \"#utility.yul\":3625:3628   */\n      dup2\n        /* \"#utility.yul\":3617:3628   */\n      swap1\n      pop\n        /* \"#utility.yul\":3655:3659   */\n      0x20\n        /* \"#utility.yul\":3650:3653   */\n      dup3\n        /* \"#utility.yul\":3646:3660   */\n      add\n        /* \"#utility.yul\":3638:3660   */\n      swap1\n      pop\n        /* \"#utility.yul\":3535:3667   */\n      swap2\n      swap1\n      pop\n      jump\t// out\n        /* \"#utility.yul\":3673:3852   */\n    tag_136:\n        /* \"#utility.yul\":3742:3752   */\n      0x00\n        /* \"#utility.yul\":3763:3809   */\n      tag_222\n        /* \"#utility.yul\":3805:3808   */\n      dup4\n        /* \"#utility.yul\":3797:3803   */\n      dup4\n        /* \"#utility.yul\":3763:3809   */\n      tag_127\n      jump\t// in\n    tag_222:\n        /* \"#utility.yul\":3841:3845   */\n      0x20\n        /* \"#utility.yul\":3836:3839   */\n      dup4\n        /* \"#utility.yul\":3832:3846   */\n      add\n        /* \"#utility.yul\":3818:3846   */\n      swap1\n      pop\n        /* \"#utility.yul\":3673:3852   */\n      swap3\n      swap2\n      pop\n      pop\n      jump\t// out\n        /* \"#utility.yul\":3858:3971   */\n    tag_137:\n        /* \"#utility.yul\":3928:3932   */\n      0x00\n        /* \"#utility.yul\":3960:3964   */\n      0x20\n        /* \"#utility.yul\":3955:3958   */\n      dup3\n        /* \"#utility.yul\":3951:3965   */\n      add\n        /* \"#utility.yul\":3943:3965   */\n      swap1\n      pop\n        /* \"#utility.yul\":3858:3971   */\n      swap2\n      swap1\n      pop\n      jump\t// out\n        /* \"#utility.yul\":4007:4719   */\n    tag_138:\n        /* \"#utility.yul\":4116:4119   */\n      0x00\n        /* \"#utility.yul\":4145:4199   */\n      tag_225\n        /* \"#utility.yul\":4193:4198   */\n      dup3\n        /* \"#utility.yul\":4145:4199   */\n      tag_133\n      jump\t// in\n    tag_225:\n        /* \"#utility.yul\":4215:4291   */\n      tag_226\n        /* \"#utility.yul\":4284:4290   */\n      dup2\n        /* \"#utility.yul\":4279:4282   */\n      dup6\n        /* \"#utility.yul\":4215:4291   */\n      tag_134\n      jump\t// in\n    tag_226:\n        /* \"#utility.yul\":4208:4291   */\n      swap4\n      pop\n        /* \"#utility.yul\":4315:4371   */\n      tag_227\n        /* \"#utility.yul\":4365:4370   */\n      dup4\n        /* \"#utility.yul\":4315:4371   */\n      tag_135\n      jump\t// in\n    tag_227:\n        /* \"#utility.yul\":4394:4401   */\n      dup1\n        /* \"#utility.yul\":4425:4426   */\n      0x00\n        /* \"#utility.yul\":4410:4694   */\n    tag_228:\n        /* \"#utility.yul\":4435:4441   */\n      dup4\n        /* \"#utility.yul\":4432:4433   */\n      dup2\n        /* \"#utility.yul\":4429:4442   */\n      lt\n        /* \"#utility.yul\":4410:4694   */\n      iszero\n      tag_230\n      jumpi\n        /* \"#utility.yul\":4511:4517   */\n      dup2\n        /* \"#utility.yul\":4505:4518   */\n      mload\n        /* \"#utility.yul\":4538:4601   */\n      tag_231\n        /* \"#utility.yul\":4597:4600   */\n      dup9\n        /* \"#utility.yul\":4582:4595   */\n      dup3\n        /* \"#utility.yul\":4538:4601   */\n      tag_136\n      jump\t// in\n    tag_231:\n        /* \"#utility.yul\":4531:4601   */\n      swap8\n      pop\n        /* \"#utility.yul\":4624:4684   */\n      tag_232\n        /* \"#utility.yul\":4677:4683   */\n      dup4\n        /* \"#utility.yul\":4624:4684   */\n      tag_137\n      jump\t// in\n    tag_232:\n        /* \"#utility.yul\":4614:4684   */\n      swap3\n      pop\n        /* \"#utility.yul\":4470:4694   */\n      pop\n        /* \"#utility.yul\":4457:4458   */\n      0x01\n        /* \"#utility.yul\":4454:4455   */\n      dup2\n        /* \"#utility.yul\":4450:4459   */\n      add\n        /* \"#utility.yul\":4445:4459   */\n      swap1\n      pop\n        /* \"#utility.yul\":4410:4694   */\n      jump(tag_228)\n    tag_230:\n        /* \"#utility.yul\":4414:4428   */\n      pop\n        /* \"#utility.yul\":4710:4713   */\n      dup6\n        /* \"#utility.yul\":4703:4713   */\n      swap4\n      pop\n        /* \"#utility.yul\":4121:4719   */\n      pop\n      pop\n      pop\n        /* \"#utility.yul\":4007:4719   */\n      swap3\n      swap2\n      pop\n      pop\n      jump\t// out\n        /* \"#utility.yul\":4795:6219   */\n    tag_139:\n        /* \"#utility.yul\":4900:4903   */\n      0x00\n        /* \"#utility.yul\":4936:4940   */\n      0xa0\n        /* \"#utility.yul\":4931:4934   */\n      dup4\n        /* \"#utility.yul\":4927:4941   */\n      add\n        /* \"#utility.yul\":5021:5025   */\n      0x00\n        /* \"#utility.yul\":5014:5019   */\n      dup4\n        /* \"#utility.yul\":5010:5026   */\n      add\n        /* \"#utility.yul\":5004:5027   */\n      mload\n        /* \"#utility.yul\":5040:5103   */\n      tag_234\n        /* \"#utility.yul\":5097:5101   */\n      0x00\n        /* \"#utility.yul\":5092:5095   */\n      dup7\n        /* \"#utility.yul\":5088:5102   */\n      add\n        /* \"#utility.yul\":5074:5086   */\n      dup3\n        /* \"#utility.yul\":5040:5103   */\n      tag_127\n      jump\t// in\n    tag_234:\n        /* \"#utility.yul\":4951:5113   */\n      pop\n        /* \"#utility.yul\":5195:5199   */\n      0x20\n        /* \"#utility.yul\":5188:5193   */\n      dup4\n        /* \"#utility.yul\":5184:5200   */\n      add\n        /* \"#utility.yul\":5178:5201   */\n      mload\n        /* \"#utility.yul\":5248:5251   */\n      dup5\n        /* \"#utility.yul\":5242:5246   */\n      dup3\n        /* \"#utility.yul\":5238:5252   */\n      sub\n        /* \"#utility.yul\":5231:5235   */\n      0x20\n        /* \"#utility.yul\":5226:5229   */\n      dup7\n        /* \"#utility.yul\":5222:5236   */\n      add\n        /* \"#utility.yul\":5215:5253   */\n      mstore\n        /* \"#utility.yul\":5274:5347   */\n      tag_235\n        /* \"#utility.yul\":5342:5346   */\n      dup3\n        /* \"#utility.yul\":5328:5340   */\n      dup3\n        /* \"#utility.yul\":5274:5347   */\n      tag_132\n      jump\t// in\n    tag_235:\n        /* \"#utility.yul\":5266:5347   */\n      swap2\n      pop\n        /* \"#utility.yul\":5123:5358   */\n      pop\n        /* \"#utility.yul\":5442:5446   */\n      0x40\n        /* \"#utility.yul\":5435:5440   */\n      dup4\n        /* \"#utility.yul\":5431:5447   */\n      add\n        /* \"#utility.yul\":5425:5448   */\n      mload\n        /* \"#utility.yul\":5495:5498   */\n      dup5\n        /* \"#utility.yul\":5489:5493   */\n      dup3\n        /* \"#utility.yul\":5485:5499   */\n      sub\n        /* \"#utility.yul\":5478:5482   */\n      0x40\n        /* \"#utility.yul\":5473:5476   */\n      dup7\n        /* \"#utility.yul\":5469:5483   */\n      add\n        /* \"#utility.yul\":5462:5500   */\n      mstore\n        /* \"#utility.yul\":5521:5624   */\n      tag_236\n        /* \"#utility.yul\":5619:5623   */\n      dup3\n        /* \"#utility.yul\":5605:5617   */\n      dup3\n        /* \"#utility.yul\":5521:5624   */\n      tag_138\n      jump\t// in\n    tag_236:\n        /* \"#utility.yul\":5513:5624   */\n      swap2\n      pop\n        /* \"#utility.yul\":5368:5635   */\n      pop\n        /* \"#utility.yul\":5718:5722   */\n      0x60\n        /* \"#utility.yul\":5711:5716   */\n      dup4\n        /* \"#utility.yul\":5707:5723   */\n      add\n        /* \"#utility.yul\":5701:5724   */\n      mload\n        /* \"#utility.yul\":5771:5774   */\n      dup5\n        /* \"#utility.yul\":5765:5769   */\n      dup3\n        /* \"#utility.yul\":5761:5775   */\n      sub\n        /* \"#utility.yul\":5754:5758   */\n      0x60\n        /* \"#utility.yul\":5749:5752   */\n      dup7\n        /* \"#utility.yul\":5745:5759   */\n      add\n        /* \"#utility.yul\":5738:5776   */\n      mstore\n        /* \"#utility.yul\":5797:5900   */\n      tag_237\n        /* \"#utility.yul\":5895:5899   */\n      dup3\n        /* \"#utility.yul\":5881:5893   */\n      dup3\n        /* \"#utility.yul\":5797:5900   */\n      tag_138\n      jump\t// in\n    tag_237:\n        /* \"#utility.yul\":5789:5900   */\n      swap2\n      pop\n        /* \"#utility.yul\":5645:5911   */\n      pop\n        /* \"#utility.yul\":5999:6003   */\n      0x80\n        /* \"#utility.yul\":5992:5997   */\n      dup4\n        /* \"#utility.yul\":5988:6004   */\n      add\n        /* \"#utility.yul\":5982:6005   */\n      mload\n        /* \"#utility.yul\":6052:6055   */\n      dup5\n        /* \"#utility.yul\":6046:6050   */\n      dup3\n        /* \"#utility.yul\":6042:6056   */\n      sub\n        /* \"#utility.yul\":6035:6039   */\n      0x80\n        /* \"#utility.yul\":6030:6033   */\n      dup7\n        /* \"#utility.yul\":6026:6040   */\n      add\n        /* \"#utility.yul\":6019:6057   */\n      mstore\n        /* \"#utility.yul\":6078:6181   */\n      tag_238\n        /* \"#utility.yul\":6176:6180   */\n      dup3\n        /* \"#utility.yul\":6162:6174   */\n      dup3\n        /* \"#utility.yul\":6078:6181   */\n      tag_138\n      jump\t// in\n    tag_238:\n        /* \"#utility.yul\":6070:6181   */\n      swap2\n      pop\n        /* \"#utility.yul\":5921:6192   */\n      pop\n        /* \"#utility.yul\":6209:6213   */\n      dup1\n        /* \"#utility.yul\":6202:6213   */\n      swap2\n      pop\n        /* \"#utility.yul\":4905:6219   */\n      pop\n        /* \"#utility.yul\":4795:6219   */\n      swap3\n      swap2\n      pop\n      pop\n      jump\t// out\n        /* \"#utility.yul\":6225:6473   */\n    tag_140:\n        /* \"#utility.yul\":6340:6350   */\n      0x00\n        /* \"#utility.yul\":6375:6467   */\n      tag_240\n        /* \"#utility.yul\":6463:6466   */\n      dup4\n        /* \"#utility.yul\":6455:6461   */\n      dup4\n        /* \"#utility.yul\":6375:6467   */\n      tag_139\n      jump\t// in\n    tag_240:\n        /* \"#utility.yul\":6361:6467   */\n      swap1\n      pop\n        /* \"#utility.yul\":6225:6473   */\n      swap3\n      swap2\n      pop\n      pop\n      jump\t// out\n        /* \"#utility.yul\":6479:6615   */\n    tag_141:\n        /* \"#utility.yul\":6572:6576   */\n      0x00\n        /* \"#utility.yul\":6604:6608   */\n      0x20\n        /* \"#utility.yul\":6599:6602   */\n      dup3\n        /* \"#utility.yul\":6595:6609   */\n      add\n        /* \"#utility.yul\":6587:6609   */\n      swap1\n      pop\n        /* \"#utility.yul\":6479:6615   */\n      swap2\n      swap1\n      pop\n      jump\t// out\n        /* \"#utility.yul\":6695:7790   */\n    tag_142:\n        /* \"#utility.yul\":6860:6863   */\n      0x00\n        /* \"#utility.yul\":6889:6966   */\n      tag_243\n        /* \"#utility.yul\":6960:6965   */\n      dup3\n        /* \"#utility.yul\":6889:6966   */\n      tag_124\n      jump\t// in\n    tag_243:\n        /* \"#utility.yul\":6982:7091   */\n      tag_244\n        /* \"#utility.yul\":7084:7090   */\n      dup2\n        /* \"#utility.yul\":7079:7082   */\n      dup6\n        /* \"#utility.yul\":6982:7091   */\n      tag_125\n      jump\t// in\n    tag_244:\n        /* \"#utility.yul\":6975:7091   */\n      swap4\n      pop\n        /* \"#utility.yul\":7117:7120   */\n      dup4\n        /* \"#utility.yul\":7162:7166   */\n      0x20\n        /* \"#utility.yul\":7154:7160   */\n      dup3\n        /* \"#utility.yul\":7150:7167   */\n      mul\n        /* \"#utility.yul\":7145:7148   */\n      dup6\n        /* \"#utility.yul\":7141:7168   */\n      add\n        /* \"#utility.yul\":7192:7271   */\n      tag_245\n        /* \"#utility.yul\":7265:7270   */\n      dup6\n        /* \"#utility.yul\":7192:7271   */\n      tag_126\n      jump\t// in\n    tag_245:\n        /* \"#utility.yul\":7294:7301   */\n      dup1\n        /* \"#utility.yul\":7325:7326   */\n      0x00\n        /* \"#utility.yul\":7310:7745   */\n    tag_246:\n        /* \"#utility.yul\":7335:7341   */\n      dup6\n        /* \"#utility.yul\":7332:7333   */\n      dup2\n        /* \"#utility.yul\":7329:7342   */\n      lt\n        /* \"#utility.yul\":7310:7745   */\n      iszero\n      tag_248\n      jumpi\n        /* \"#utility.yul\":7406:7415   */\n      dup5\n        /* \"#utility.yul\":7400:7404   */\n      dup5\n        /* \"#utility.yul\":7396:7416   */\n      sub\n        /* \"#utility.yul\":7391:7394   */\n      dup10\n        /* \"#utility.yul\":7384:7417   */\n      mstore\n        /* \"#utility.yul\":7457:7463   */\n      dup2\n        /* \"#utility.yul\":7451:7464   */\n      mload\n        /* \"#utility.yul\":7485:7595   */\n      tag_249\n        /* \"#utility.yul\":7590:7594   */\n      dup6\n        /* \"#utility.yul\":7575:7588   */\n      dup3\n        /* \"#utility.yul\":7485:7595   */\n      tag_140\n      jump\t// in\n    tag_249:\n        /* \"#utility.yul\":7477:7595   */\n      swap5\n      pop\n        /* \"#utility.yul\":7618:7701   */\n      tag_250\n        /* \"#utility.yul\":7694:7700   */\n      dup4\n        /* \"#utility.yul\":7618:7701   */\n      tag_141\n      jump\t// in\n    tag_250:\n        /* \"#utility.yul\":7608:7701   */\n      swap3\n      pop\n        /* \"#utility.yul\":7730:7734   */\n      0x20\n        /* \"#utility.yul\":7725:7728   */\n      dup11\n        /* \"#utility.yul\":7721:7735   */\n      add\n        /* \"#utility.yul\":7714:7735   */\n      swap10\n      pop\n        /* \"#utility.yul\":7370:7745   */\n      pop\n        /* \"#utility.yul\":7357:7358   */\n      0x01\n        /* \"#utility.yul\":7354:7355   */\n      dup2\n        /* \"#utility.yul\":7350:7359   */\n      add\n        /* \"#utility.yul\":7345:7359   */\n      swap1\n      pop\n        /* \"#utility.yul\":7310:7745   */\n      jump(tag_246)\n    tag_248:\n        /* \"#utility.yul\":7314:7328   */\n      pop\n        /* \"#utility.yul\":7761:7765   */\n      dup3\n        /* \"#utility.yul\":7754:7765   */\n      swap8\n      pop\n        /* \"#utility.yul\":7781:7784   */\n      dup8\n        /* \"#utility.yul\":7774:7784   */\n      swap6\n      pop\n        /* \"#utility.yul\":6865:7790   */\n      pop\n      pop\n      pop\n      pop\n      pop\n        /* \"#utility.yul\":6695:7790   */\n      swap3\n      swap2\n      pop\n      pop\n      jump\t// out\n        /* \"#utility.yul\":7796:8261   */\n    tag_18:\n        /* \"#utility.yul\":7985:7989   */\n      0x00\n        /* \"#utility.yul\":8023:8025   */\n      0x20\n        /* \"#utility.yul\":8012:8021   */\n      dup3\n        /* \"#utility.yul\":8008:8026   */\n      add\n        /* \"#utility.yul\":8000:8026   */\n      swap1\n      pop\n        /* \"#utility.yul\":8072:8081   */\n      dup2\n        /* \"#utility.yul\":8066:8070   */\n      dup2\n        /* \"#utility.yul\":8062:8082   */\n      sub\n        /* \"#utility.yul\":8058:8059   */\n      0x00\n        /* \"#utility.yul\":8047:8056   */\n      dup4\n        /* \"#utility.yul\":8043:8060   */\n      add\n        /* \"#utility.yul\":8036:8083   */\n      mstore\n        /* \"#utility.yul\":8100:8254   */\n      tag_252\n        /* \"#utility.yul\":8249:8253   */\n      dup2\n        /* \"#utility.yul\":8240:8246   */\n      dup5\n        /* \"#utility.yul\":8100:8254   */\n      tag_142\n      jump\t// in\n    tag_252:\n        /* \"#utility.yul\":8092:8254   */\n      swap1\n      pop\n        /* \"#utility.yul\":7796:8261   */\n      swap3\n      swap2\n      pop\n      pop\n      jump\t// out\n        /* \"#utility.yul\":8267:8385   */\n    tag_143:\n        /* \"#utility.yul\":8354:8378   */\n      tag_254\n        /* \"#utility.yul\":8372:8377   */\n      dup2\n        /* \"#utility.yul\":8354:8378   */\n      tag_118\n      jump\t// in\n    tag_254:\n        /* \"#utility.yul\":8349:8352   */\n      dup3\n        /* \"#utility.yul\":8342:8379   */\n      mstore\n        /* \"#utility.yul\":8267:8385   */\n      pop\n      pop\n      jump\t// out\n        /* \"#utility.yul\":8391:8560   */\n    tag_144:\n        /* \"#utility.yul\":8475:8486   */\n      0x00\n        /* \"#utility.yul\":8509:8515   */\n      dup3\n        /* \"#utility.yul\":8504:8507   */\n      dup3\n        /* \"#utility.yul\":8497:8516   */\n      mstore\n        /* \"#utility.yul\":8549:8553   */\n      0x20\n        /* \"#utility.yul\":8544:8547   */\n      dup3\n        /* \"#utility.yul\":8540:8554   */\n      add\n        /* \"#utility.yul\":8525:8554   */\n      swap1\n      pop\n        /* \"#utility.yul\":8391:8560   */\n      swap3\n      swap2\n      pop\n      pop\n      jump\t// out\n        /* \"#utility.yul\":8566:8943   */\n    tag_145:\n        /* \"#utility.yul\":8654:8657   */\n      0x00\n        /* \"#utility.yul\":8682:8721   */\n      tag_257\n        /* \"#utility.yul\":8715:8720   */\n      dup3\n        /* \"#utility.yul\":8682:8721   */\n      tag_128\n      jump\t// in\n    tag_257:\n        /* \"#utility.yul\":8737:8808   */\n      tag_258\n        /* \"#utility.yul\":8801:8807   */\n      dup2\n        /* \"#utility.yul\":8796:8799   */\n      dup6\n        /* \"#utility.yul\":8737:8808   */\n      tag_144\n      jump\t// in\n    tag_258:\n        /* \"#utility.yul\":8730:8808   */\n      swap4\n      pop\n        /* \"#utility.yul\":8817:8882   */\n      tag_259\n        /* \"#utility.yul\":8875:8881   */\n      dup2\n        /* \"#utility.yul\":8870:8873   */\n      dup6\n        /* \"#utility.yul\":8863:8867   */\n      0x20\n        /* \"#utility.yul\":8856:8861   */\n      dup7\n        /* \"#utility.yul\":8852:8868   */\n      add\n        /* \"#utility.yul\":8817:8882   */\n      tag_130\n      jump\t// in\n    tag_259:\n        /* \"#utility.yul\":8907:8936   */\n      tag_260\n        /* \"#utility.yul\":8929:8935   */\n      dup2\n        /* \"#utility.yul\":8907:8936   */\n      tag_131\n      jump\t// in\n    tag_260:\n        /* \"#utility.yul\":8902:8905   */\n      dup5\n        /* \"#utility.yul\":8898:8937   */\n      add\n        /* \"#utility.yul\":8891:8937   */\n      swap2\n      pop\n        /* \"#utility.yul\":8658:8943   */\n      pop\n        /* \"#utility.yul\":8566:8943   */\n      swap3\n      swap2\n      pop\n      pop\n      jump\t// out\n        /* \"#utility.yul\":8949:9573   */\n    tag_23:\n        /* \"#utility.yul\":9138:9142   */\n      0x00\n        /* \"#utility.yul\":9176:9178   */\n      0x60\n        /* \"#utility.yul\":9165:9174   */\n      dup3\n        /* \"#utility.yul\":9161:9179   */\n      add\n        /* \"#utility.yul\":9153:9179   */\n      swap1\n      pop\n        /* \"#utility.yul\":9189:9260   */\n      tag_262\n        /* \"#utility.yul\":9257:9258   */\n      0x00\n        /* \"#utility.yul\":9246:9255   */\n      dup4\n        /* \"#utility.yul\":9242:9259   */\n      add\n        /* \"#utility.yul\":9233:9239   */\n      dup7\n        /* \"#utility.yul\":9189:9260   */\n      tag_143\n      jump\t// in\n    tag_262:\n        /* \"#utility.yul\":9307:9316   */\n      dup2\n        /* \"#utility.yul\":9301:9305   */\n      dup2\n        /* \"#utility.yul\":9297:9317   */\n      sub\n        /* \"#utility.yul\":9292:9294   */\n      0x20\n        /* \"#utility.yul\":9281:9290   */\n      dup4\n        /* \"#utility.yul\":9277:9295   */\n      add\n        /* \"#utility.yul\":9270:9318   */\n      mstore\n        /* \"#utility.yul\":9335:9413   */\n      tag_263\n        /* \"#utility.yul\":9408:9412   */\n      dup2\n        /* \"#utility.yul\":9399:9405   */\n      dup6\n        /* \"#utility.yul\":9335:9413   */\n      tag_145\n      jump\t// in\n    tag_263:\n        /* \"#utility.yul\":9327:9413   */\n      swap1\n      pop\n        /* \"#utility.yul\":9460:9469   */\n      dup2\n        /* \"#utility.yul\":9454:9458   */\n      dup2\n        /* \"#utility.yul\":9450:9470   */\n      sub\n        /* \"#utility.yul\":9445:9447   */\n      0x40\n        /* \"#utility.yul\":9434:9443   */\n      dup4\n        /* \"#utility.yul\":9430:9448   */\n      add\n        /* \"#utility.yul\":9423:9471   */\n      mstore\n        /* \"#utility.yul\":9488:9566   */\n      tag_264\n        /* \"#utility.yul\":9561:9565   */\n      dup2\n        /* \"#utility.yul\":9552:9558   */\n      dup5\n        /* \"#utility.yul\":9488:9566   */\n      tag_145\n      jump\t// in\n    tag_264:\n        /* \"#utility.yul\":9480:9566   */\n      swap1\n      pop\n        /* \"#utility.yul\":8949:9573   */\n      swap5\n      swap4\n      pop\n      pop\n      pop\n      pop\n      jump\t// out\n        /* \"#utility.yul\":9579:9696   */\n    tag_146:\n        /* \"#utility.yul\":9688:9689   */\n      0x00\n        /* \"#utility.yul\":9685:9686   */\n      dup1\n        /* \"#utility.yul\":9678:9690   */\n      revert\n        /* \"#utility.yul\":9702:9819   */\n    tag_147:\n        /* \"#utility.yul\":9811:9812   */\n      0x00\n        /* \"#utility.yul\":9808:9809   */\n      dup1\n        /* \"#utility.yul\":9801:9813   */\n      revert\n        /* \"#utility.yul\":9825:9942   */\n    tag_148:\n        /* \"#utility.yul\":9934:9935   */\n      0x00\n        /* \"#utility.yul\":9931:9932   */\n      dup1\n        /* \"#utility.yul\":9924:9936   */\n      revert\n        /* \"#utility.yul\":9962:10515   */\n    tag_149:\n        /* \"#utility.yul\":10020:10028   */\n      0x00\n        /* \"#utility.yul\":10030:10036   */\n      dup1\n        /* \"#utility.yul\":10080:10083   */\n      dup4\n        /* \"#utility.yul\":10073:10077   */\n      0x1f\n        /* \"#utility.yul\":10065:10071   */\n      dup5\n        /* \"#utility.yul\":10061:10078   */\n      add\n        /* \"#utility.yul\":10057:10084   */\n      slt\n        /* \"#utility.yul\":10047:10169   */\n      tag_269\n      jumpi\n        /* \"#utility.yul\":10088:10167   */\n      tag_270\n      tag_146\n      jump\t// in\n    tag_270:\n        /* \"#utility.yul\":10047:10169   */\n    tag_269:\n        /* \"#utility.yul\":10201:10207   */\n      dup3\n        /* \"#utility.yul\":10188:10208   */\n      calldataload\n        /* \"#utility.yul\":10178:10208   */\n      swap1\n      pop\n        /* \"#utility.yul\":10231:10249   */\n      0xffffffffffffffff\n        /* \"#utility.yul\":10223:10229   */\n      dup2\n        /* \"#utility.yul\":10220:10250   */\n      gt\n        /* \"#utility.yul\":10217:10334   */\n      iszero\n      tag_271\n      jumpi\n        /* \"#utility.yul\":10253:10332   */\n      tag_272\n      tag_147\n      jump\t// in\n    tag_272:\n        /* \"#utility.yul\":10217:10334   */\n    tag_271:\n        /* \"#utility.yul\":10367:10371   */\n      0x20\n        /* \"#utility.yul\":10359:10365   */\n      dup4\n        /* \"#utility.yul\":10355:10372   */\n      add\n        /* \"#utility.yul\":10343:10372   */\n      swap2\n      pop\n        /* \"#utility.yul\":10421:10424   */\n      dup4\n        /* \"#utility.yul\":10413:10417   */\n      0x01\n        /* \"#utility.yul\":10405:10411   */\n      dup3\n        /* \"#utility.yul\":10401:10418   */\n      mul\n        /* \"#utility.yul\":10391:10399   */\n      dup4\n        /* \"#utility.yul\":10387:10419   */\n      add\n        /* \"#utility.yul\":10384:10425   */\n      gt\n        /* \"#utility.yul\":10381:10509   */\n      iszero\n      tag_273\n      jumpi\n        /* \"#utility.yul\":10428:10507   */\n      tag_274\n      tag_148\n      jump\t// in\n    tag_274:\n        /* \"#utility.yul\":10381:10509   */\n    tag_273:\n        /* \"#utility.yul\":9962:10515   */\n      swap3\n      pop\n      swap3\n      swap1\n      pop\n      jump\t// out\n        /* \"#utility.yul\":10538:11106   */\n    tag_150:\n        /* \"#utility.yul\":10611:10619   */\n      0x00\n        /* \"#utility.yul\":10621:10627   */\n      dup1\n        /* \"#utility.yul\":10671:10674   */\n      dup4\n        /* \"#utility.yul\":10664:10668   */\n      0x1f\n        /* \"#utility.yul\":10656:10662   */\n      dup5\n        /* \"#utility.yul\":10652:10669   */\n      add\n        /* \"#utility.yul\":10648:10675   */\n      slt\n        /* \"#utility.yul\":10638:10760   */\n      tag_276\n      jumpi\n        /* \"#utility.yul\":10679:10758   */\n      tag_277\n      tag_146\n      jump\t// in\n    tag_277:\n        /* \"#utility.yul\":10638:10760   */\n    tag_276:\n        /* \"#utility.yul\":10792:10798   */\n      dup3\n        /* \"#utility.yul\":10779:10799   */\n      calldataload\n        /* \"#utility.yul\":10769:10799   */\n      swap1\n      pop\n        /* \"#utility.yul\":10822:10840   */\n      0xffffffffffffffff\n        /* \"#utility.yul\":10814:10820   */\n      dup2\n        /* \"#utility.yul\":10811:10841   */\n      gt\n        /* \"#utility.yul\":10808:10925   */\n      iszero\n      tag_278\n      jumpi\n        /* \"#utility.yul\":10844:10923   */\n      tag_279\n      tag_147\n      jump\t// in\n    tag_279:\n        /* \"#utility.yul\":10808:10925   */\n    tag_278:\n        /* \"#utility.yul\":10958:10962   */\n      0x20\n        /* \"#utility.yul\":10950:10956   */\n      dup4\n        /* \"#utility.yul\":10946:10963   */\n      add\n        /* \"#utility.yul\":10934:10963   */\n      swap2\n      pop\n        /* \"#utility.yul\":11012:11015   */\n      dup4\n        /* \"#utility.yul\":11004:11008   */\n      0x20\n        /* \"#utility.yul\":10996:11002   */\n      dup3\n        /* \"#utility.yul\":10992:11009   */\n      mul\n        /* \"#utility.yul\":10982:10990   */\n      dup4\n        /* \"#utility.yul\":10978:11010   */\n      add\n        /* \"#utility.yul\":10975:11016   */\n      gt\n        /* \"#utility.yul\":10972:11100   */\n      iszero\n      tag_280\n      jumpi\n        /* \"#utility.yul\":11019:11098   */\n      tag_281\n      tag_148\n      jump\t// in\n    tag_281:\n        /* \"#utility.yul\":10972:11100   */\n    tag_280:\n        /* \"#utility.yul\":10538:11106   */\n      swap3\n      pop\n      swap3\n      swap1\n      pop\n      jump\t// out\n        /* \"#utility.yul\":11112:12913   */\n    tag_26:\n        /* \"#utility.yul\":11300:11306   */\n      0x00\n        /* \"#utility.yul\":11308:11314   */\n      dup1\n        /* \"#utility.yul\":11316:11322   */\n      0x00\n        /* \"#utility.yul\":11324:11330   */\n      dup1\n        /* \"#utility.yul\":11332:11338   */\n      0x00\n        /* \"#utility.yul\":11340:11346   */\n      dup1\n        /* \"#utility.yul\":11348:11354   */\n      0x00\n        /* \"#utility.yul\":11356:11362   */\n      dup1\n        /* \"#utility.yul\":11364:11370   */\n      0x00\n        /* \"#utility.yul\":11413:11416   */\n      0xa0\n        /* \"#utility.yul\":11401:11410   */\n      dup11\n        /* \"#utility.yul\":11392:11399   */\n      dup13\n        /* \"#utility.yul\":11388:11411   */\n      sub\n        /* \"#utility.yul\":11384:11417   */\n      slt\n        /* \"#utility.yul\":11381:11501   */\n      iszero\n      tag_283\n      jumpi\n        /* \"#utility.yul\":11420:11499   */\n      tag_284\n      tag_116\n      jump\t// in\n    tag_284:\n        /* \"#utility.yul\":11381:11501   */\n    tag_283:\n        /* \"#utility.yul\":11568:11569   */\n      0x00\n        /* \"#utility.yul\":11557:11566   */\n      dup11\n        /* \"#utility.yul\":11553:11570   */\n      add\n        /* \"#utility.yul\":11540:11571   */\n      calldataload\n        /* \"#utility.yul\":11598:11616   */\n      0xffffffffffffffff\n        /* \"#utility.yul\":11590:11596   */\n      dup2\n        /* \"#utility.yul\":11587:11617   */\n      gt\n        /* \"#utility.yul\":11584:11701   */\n      iszero\n      tag_285\n      jumpi\n        /* \"#utility.yul\":11620:11699   */\n      tag_286\n      tag_117\n      jump\t// in\n    tag_286:\n        /* \"#utility.yul\":11584:11701   */\n    tag_285:\n        /* \"#utility.yul\":11733:11798   */\n      tag_287\n        /* \"#utility.yul\":11790:11797   */\n      dup13\n        /* \"#utility.yul\":11781:11787   */\n      dup3\n        /* \"#utility.yul\":11770:11779   */\n      dup14\n        /* \"#utility.yul\":11766:11788   */\n      add\n        /* \"#utility.yul\":11733:11798   */\n      tag_149\n      jump\t// in\n    tag_287:\n        /* \"#utility.yul\":11715:11798   */\n      swap10\n      pop\n      swap10\n      pop\n        /* \"#utility.yul\":11511:11808   */\n      pop\n        /* \"#utility.yul\":11847:11849   */\n      0x20\n        /* \"#utility.yul\":11873:11926   */\n      tag_288\n        /* \"#utility.yul\":11918:11925   */\n      dup13\n        /* \"#utility.yul\":11909:11915   */\n      dup3\n        /* \"#utility.yul\":11898:11907   */\n      dup14\n        /* \"#utility.yul\":11894:11916   */\n      add\n        /* \"#utility.yul\":11873:11926   */\n      tag_120\n      jump\t// in\n    tag_288:\n        /* \"#utility.yul\":11863:11926   */\n      swap8\n      pop\n        /* \"#utility.yul\":11818:11936   */\n      pop\n        /* \"#utility.yul\":12003:12005   */\n      0x40\n        /* \"#utility.yul\":11992:12001   */\n      dup11\n        /* \"#utility.yul\":11988:12006   */\n      add\n        /* \"#utility.yul\":11975:12007   */\n      calldataload\n        /* \"#utility.yul\":12034:12052   */\n      0xffffffffffffffff\n        /* \"#utility.yul\":12026:12032   */\n      dup2\n        /* \"#utility.yul\":12023:12053   */\n      gt\n        /* \"#utility.yul\":12020:12137   */\n      iszero\n      tag_289\n      jumpi\n        /* \"#utility.yul\":12056:12135   */\n      tag_290\n      tag_117\n      jump\t// in\n    tag_290:\n        /* \"#utility.yul\":12020:12137   */\n    tag_289:\n        /* \"#utility.yul\":12169:12249   */\n      tag_291\n        /* \"#utility.yul\":12241:12248   */\n      dup13\n        /* \"#utility.yul\":12232:12238   */\n      dup3\n        /* \"#utility.yul\":12221:12230   */\n      dup14\n        /* \"#utility.yul\":12217:12239   */\n      add\n        /* \"#utility.yul\":12169:12249   */\n      tag_150\n      jump\t// in\n    tag_291:\n        /* \"#utility.yul\":12151:12249   */\n      swap7\n      pop\n      swap7\n      pop\n        /* \"#utility.yul\":11946:12259   */\n      pop\n        /* \"#utility.yul\":12326:12328   */\n      0x60\n        /* \"#utility.yul\":12315:12324   */\n      dup11\n        /* \"#utility.yul\":12311:12329   */\n      add\n        /* \"#utility.yul\":12298:12330   */\n      calldataload\n        /* \"#utility.yul\":12357:12375   */\n      0xffffffffffffffff\n        /* \"#utility.yul\":12349:12355   */\n      dup2\n        /* \"#utility.yul\":12346:12376   */\n      gt\n        /* \"#utility.yul\":12343:12460   */\n      iszero\n      tag_292\n      jumpi\n        /* \"#utility.yul\":12379:12458   */\n      tag_293\n      tag_117\n      jump\t// in\n    tag_293:\n        /* \"#utility.yul\":12343:12460   */\n    tag_292:\n        /* \"#utility.yul\":12492:12572   */\n      tag_294\n        /* \"#utility.yul\":12564:12571   */\n      dup13\n        /* \"#utility.yul\":12555:12561   */\n      dup3\n        /* \"#utility.yul\":12544:12553   */\n      dup14\n        /* \"#utility.yul\":12540:12562   */\n      add\n        /* \"#utility.yul\":12492:12572   */\n      tag_150\n      jump\t// in\n    tag_294:\n        /* \"#utility.yul\":12474:12572   */\n      swap5\n      pop\n      swap5\n      pop\n        /* \"#utility.yul\":12269:12582   */\n      pop\n        /* \"#utility.yul\":12649:12652   */\n      0x80\n        /* \"#utility.yul\":12638:12647   */\n      dup11\n        /* \"#utility.yul\":12634:12653   */\n      add\n        /* \"#utility.yul\":12621:12654   */\n      calldataload\n        /* \"#utility.yul\":12681:12699   */\n      0xffffffffffffffff\n        /* \"#utility.yul\":12673:12679   */\n      dup2\n        /* \"#utility.yul\":12670:12700   */\n      gt\n        /* \"#utility.yul\":12667:12784   */\n      iszero\n      tag_295\n      jumpi\n        /* \"#utility.yul\":12703:12782   */\n      tag_296\n      tag_117\n      jump\t// in\n    tag_296:\n        /* \"#utility.yul\":12667:12784   */\n    tag_295:\n        /* \"#utility.yul\":12816:12896   */\n      tag_297\n        /* \"#utility.yul\":12888:12895   */\n      dup13\n        /* \"#utility.yul\":12879:12885   */\n      dup3\n        /* \"#utility.yul\":12868:12877   */\n      dup14\n        /* \"#utility.yul\":12864:12886   */\n      add\n        /* \"#utility.yul\":12816:12896   */\n      tag_150\n      jump\t// in\n    tag_297:\n        /* \"#utility.yul\":12798:12896   */\n      swap3\n      pop\n      swap3\n      pop\n        /* \"#utility.yul\":12592:12906   */\n      pop\n        /* \"#utility.yul\":11112:12913   */\n      swap3\n      swap6\n      swap9\n      pop\n      swap3\n      swap6\n      swap9\n      pop\n      swap3\n      swap6\n      swap9\n      jump\t// out\n        /* \"#utility.yul\":12919:13251   */\n    tag_31:\n        /* \"#utility.yul\":13040:13044   */\n      0x00\n        /* \"#utility.yul\":13078:13080   */\n      0x40\n        /* \"#utility.yul\":13067:13076   */\n      dup3\n        /* \"#utility.yul\":13063:13081   */\n      add\n        /* \"#utility.yul\":13055:13081   */\n      swap1\n      pop\n        /* \"#utility.yul\":13091:13162   */\n      tag_299\n        /* \"#utility.yul\":13159:13160   */\n      0x00\n        /* \"#utility.yul\":13148:13157   */\n      dup4\n        /* \"#utility.yul\":13144:13161   */\n      add\n        /* \"#utility.yul\":13135:13141   */\n      dup6\n        /* \"#utility.yul\":13091:13162   */\n      tag_143\n      jump\t// in\n    tag_299:\n        /* \"#utility.yul\":13172:13244   */\n      tag_300\n        /* \"#utility.yul\":13240:13242   */\n      0x20\n        /* \"#utility.yul\":13229:13238   */\n      dup4\n        /* \"#utility.yul\":13225:13243   */\n      add\n        /* \"#utility.yul\":13216:13222   */\n      dup5\n        /* \"#utility.yul\":13172:13244   */\n      tag_143\n      jump\t// in\n    tag_300:\n        /* \"#utility.yul\":12919:13251   */\n      swap4\n      swap3\n      pop\n      pop\n      pop\n      jump\t// out\n        /* \"#utility.yul\":13257:13437   */\n    tag_151:\n        /* \"#utility.yul\":13305:13382   */\n      0x4e487b7100000000000000000000000000000000000000000000000000000000\n        /* \"#utility.yul\":13302:13303   */\n      0x00\n        /* \"#utility.yul\":13295:13383   */\n      mstore\n        /* \"#utility.yul\":13402:13406   */\n      0x22\n        /* \"#utility.yul\":13399:13400   */\n      0x04\n        /* \"#utility.yul\":13392:13407   */\n      mstore\n        /* \"#utility.yul\":13426:13430   */\n      0x24\n        /* \"#utility.yul\":13423:13424   */\n      0x00\n        /* \"#utility.yul\":13416:13431   */\n      revert\n        /* \"#utility.yul\":13443:13763   */\n    tag_41:\n        /* \"#utility.yul\":13487:13493   */\n      0x00\n        /* \"#utility.yul\":13524:13525   */\n      0x02\n        /* \"#utility.yul\":13518:13522   */\n      dup3\n        /* \"#utility.yul\":13514:13526   */\n      div\n        /* \"#utility.yul\":13504:13526   */\n      swap1\n      pop\n        /* \"#utility.yul\":13571:13572   */\n      0x01\n        /* \"#utility.yul\":13565:13569   */\n      dup3\n        /* \"#utility.yul\":13561:13573   */\n      and\n        /* \"#utility.yul\":13592:13610   */\n      dup1\n        /* \"#utility.yul\":13582:13663   */\n      tag_303\n      jumpi\n        /* \"#utility.yul\":13648:13652   */\n      0x7f\n        /* \"#utility.yul\":13640:13646   */\n      dup3\n        /* \"#utility.yul\":13636:13653   */\n      and\n        /* \"#utility.yul\":13626:13653   */\n      swap2\n      pop\n        /* \"#utility.yul\":13582:13663   */\n    tag_303:\n        /* \"#utility.yul\":13710:13712   */\n      0x20\n        /* \"#utility.yul\":13702:13708   */\n      dup3\n        /* \"#utility.yul\":13699:13713   */\n      lt\n        /* \"#utility.yul\":13679:13697   */\n      dup2\n        /* \"#utility.yul\":13676:13714   */\n      sub\n        /* \"#utility.yul\":13673:13757   */\n      tag_304\n      jumpi\n        /* \"#utility.yul\":13729:13747   */\n      tag_305\n      tag_151\n      jump\t// in\n    tag_305:\n        /* \"#utility.yul\":13673:13757   */\n    tag_304:\n        /* \"#utility.yul\":13494:13763   */\n      pop\n        /* \"#utility.yul\":13443:13763   */\n      swap2\n      swap1\n      pop\n      jump\t// out\n        /* \"#utility.yul\":13769:13944   */\n    tag_152:\n        /* \"#utility.yul\":13909:13936   */\n      0x4964206d7573742062652067726561746572207468616e203000000000000000\n        /* \"#utility.yul\":13905:13906   */\n      0x00\n        /* \"#utility.yul\":13897:13903   */\n      dup3\n        /* \"#utility.yul\":13893:13907   */\n      add\n        /* \"#utility.yul\":13886:13937   */\n      mstore\n        /* \"#utility.yul\":13769:13944   */\n      pop\n      jump\t// out\n        /* \"#utility.yul\":13950:14316   */\n    tag_153:\n        /* \"#utility.yul\":14092:14095   */\n      0x00\n        /* \"#utility.yul\":14113:14180   */\n      tag_308\n        /* \"#utility.yul\":14177:14179   */\n      0x19\n        /* \"#utility.yul\":14172:14175   */\n      dup4\n        /* \"#utility.yul\":14113:14180   */\n      tag_144\n      jump\t// in\n    tag_308:\n        /* \"#utility.yul\":14106:14180   */\n      swap2\n      pop\n        /* \"#utility.yul\":14189:14282   */\n      tag_309\n        /* \"#utility.yul\":14278:14281   */\n      dup3\n        /* \"#utility.yul\":14189:14282   */\n      tag_152\n      jump\t// in\n    tag_309:\n        /* \"#utility.yul\":14307:14309   */\n      0x20\n        /* \"#utility.yul\":14302:14305   */\n      dup3\n        /* \"#utility.yul\":14298:14310   */\n      add\n        /* \"#utility.yul\":14291:14310   */\n      swap1\n      pop\n        /* \"#utility.yul\":13950:14316   */\n      swap2\n      swap1\n      pop\n      jump\t// out\n        /* \"#utility.yul\":14322:14741   */\n    tag_67:\n        /* \"#utility.yul\":14488:14492   */\n      0x00\n        /* \"#utility.yul\":14526:14528   */\n      0x20\n        /* \"#utility.yul\":14515:14524   */\n      dup3\n        /* \"#utility.yul\":14511:14529   */\n      add\n        /* \"#utility.yul\":14503:14529   */\n      swap1\n      pop\n        /* \"#utility.yul\":14575:14584   */\n      dup2\n        /* \"#utility.yul\":14569:14573   */\n      dup2\n        /* \"#utility.yul\":14565:14585   */\n      sub\n        /* \"#utility.yul\":14561:14562   */\n      0x00\n        /* \"#utility.yul\":14550:14559   */\n      dup4\n        /* \"#utility.yul\":14546:14563   */\n      add\n        /* \"#utility.yul\":14539:14586   */\n      mstore\n        /* \"#utility.yul\":14603:14734   */\n      tag_311\n        /* \"#utility.yul\":14729:14733   */\n      dup2\n        /* \"#utility.yul\":14603:14734   */\n      tag_153\n      jump\t// in\n    tag_311:\n        /* \"#utility.yul\":14595:14734   */\n      swap1\n      pop\n        /* \"#utility.yul\":14322:14741   */\n      swap2\n      swap1\n      pop\n      jump\t// out\n        /* \"#utility.yul\":14747:14973   */\n    tag_154:\n        /* \"#utility.yul\":14887:14921   */\n      0x4e616d65206d757374206265206174206c656173742032206368617261637465\n        /* \"#utility.yul\":14883:14884   */\n      0x00\n        /* \"#utility.yul\":14875:14881   */\n      dup3\n        /* \"#utility.yul\":14871:14885   */\n      add\n        /* \"#utility.yul\":14864:14922   */\n      mstore\n        /* \"#utility.yul\":14956:14965   */\n      0x7273206c6f6e6700000000000000000000000000000000000000000000000000\n        /* \"#utility.yul\":14951:14953   */\n      0x20\n        /* \"#utility.yul\":14943:14949   */\n      dup3\n        /* \"#utility.yul\":14939:14954   */\n      add\n        /* \"#utility.yul\":14932:14966   */\n      mstore\n        /* \"#utility.yul\":14747:14973   */\n      pop\n      jump\t// out\n        /* \"#utility.yul\":14979:15345   */\n    tag_155:\n        /* \"#utility.yul\":15121:15124   */\n      0x00\n        /* \"#utility.yul\":15142:15209   */\n      tag_314\n        /* \"#utility.yul\":15206:15208   */\n      0x27\n        /* \"#utility.yul\":15201:15204   */\n      dup4\n        /* \"#utility.yul\":15142:15209   */\n      tag_144\n      jump\t// in\n    tag_314:\n        /* \"#utility.yul\":15135:15209   */\n      swap2\n      pop\n        /* \"#utility.yul\":15218:15311   */\n      tag_315\n        /* \"#utility.yul\":15307:15310   */\n      dup3\n        /* \"#utility.yul\":15218:15311   */\n      tag_154\n      jump\t// in\n    tag_315:\n        /* \"#utility.yul\":15336:15338   */\n      0x40\n        /* \"#utility.yul\":15331:15334   */\n      dup3\n        /* \"#utility.yul\":15327:15339   */\n      add\n        /* \"#utility.yul\":15320:15339   */\n      swap1\n      pop\n        /* \"#utility.yul\":14979:15345   */\n      swap2\n      swap1\n      pop\n      jump\t// out\n        /* \"#utility.yul\":15351:15770   */\n    tag_70:\n        /* \"#utility.yul\":15517:15521   */\n      0x00\n        /* \"#utility.yul\":15555:15557   */\n      0x20\n        /* \"#utility.yul\":15544:15553   */\n      dup3\n        /* \"#utility.yul\":15540:15558   */\n      add\n        /* \"#utility.yul\":15532:15558   */\n      swap1\n      pop\n        /* \"#utility.yul\":15604:15613   */\n      dup2\n        /* \"#utility.yul\":15598:15602   */\n      dup2\n        /* \"#utility.yul\":15594:15614   */\n      sub\n        /* \"#utility.yul\":15590:15591   */\n      0x00\n        /* \"#utility.yul\":15579:15588   */\n      dup4\n        /* \"#utility.yul\":15575:15592   */\n      add\n        /* \"#utility.yul\":15568:15615   */\n      mstore\n        /* \"#utility.yul\":15632:15763   */\n      tag_317\n        /* \"#utility.yul\":15758:15762   */\n      dup2\n        /* \"#utility.yul\":15632:15763   */\n      tag_155\n      jump\t// in\n    tag_317:\n        /* \"#utility.yul\":15624:15763   */\n      swap1\n      pop\n        /* \"#utility.yul\":15351:15770   */\n      swap2\n      swap1\n      pop\n      jump\t// out\n        /* \"#utility.yul\":15776:15999   */\n    tag_156:\n        /* \"#utility.yul\":15916:15950   */\n      0x506f6b656d6f6e206d7573742068617665206174206c65617374206f6e652073\n        /* \"#utility.yul\":15912:15913   */\n      0x00\n        /* \"#utility.yul\":15904:15910   */\n      dup3\n        /* \"#utility.yul\":15900:15914   */\n      add\n        /* \"#utility.yul\":15893:15951   */\n      mstore\n        /* \"#utility.yul\":15985:15991   */\n      0x6b696c6c00000000000000000000000000000000000000000000000000000000\n        /* \"#utility.yul\":15980:15982   */\n      0x20\n        /* \"#utility.yul\":15972:15978   */\n      dup3\n        /* \"#utility.yul\":15968:15983   */\n      add\n        /* \"#utility.yul\":15961:15992   */\n      mstore\n        /* \"#utility.yul\":15776:15999   */\n      pop\n      jump\t// out\n        /* \"#utility.yul\":16005:16371   */\n    tag_157:\n        /* \"#utility.yul\":16147:16150   */\n      0x00\n        /* \"#utility.yul\":16168:16235   */\n      tag_320\n        /* \"#utility.yul\":16232:16234   */\n      0x24\n        /* \"#utility.yul\":16227:16230   */\n      dup4\n        /* \"#utility.yul\":16168:16235   */\n      tag_144\n      jump\t// in\n    tag_320:\n        /* \"#utility.yul\":16161:16235   */\n      swap2\n      pop\n        /* \"#utility.yul\":16244:16337   */\n      tag_321\n        /* \"#utility.yul\":16333:16336   */\n      dup3\n        /* \"#utility.yul\":16244:16337   */\n      tag_156\n      jump\t// in\n    tag_321:\n        /* \"#utility.yul\":16362:16364   */\n      0x40\n        /* \"#utility.yul\":16357:16360   */\n      dup3\n        /* \"#utility.yul\":16353:16365   */\n      add\n        /* \"#utility.yul\":16346:16365   */\n      swap1\n      pop\n        /* \"#utility.yul\":16005:16371   */\n      swap2\n      swap1\n      pop\n      jump\t// out\n        /* \"#utility.yul\":16377:16796   */\n    tag_73:\n        /* \"#utility.yul\":16543:16547   */\n      0x00\n        /* \"#utility.yul\":16581:16583   */\n      0x20\n        /* \"#utility.yul\":16570:16579   */\n      dup3\n        /* \"#utility.yul\":16566:16584   */\n      add\n        /* \"#utility.yul\":16558:16584   */\n      swap1\n      pop\n        /* \"#utility.yul\":16630:16639   */\n      dup2\n        /* \"#utility.yul\":16624:16628   */\n      dup2\n        /* \"#utility.yul\":16620:16640   */\n      sub\n        /* \"#utility.yul\":16616:16617   */\n      0x00\n        /* \"#utility.yul\":16605:16614   */\n      dup4\n        /* \"#utility.yul\":16601:16618   */\n      add\n        /* \"#utility.yul\":16594:16641   */\n      mstore\n        /* \"#utility.yul\":16658:16789   */\n      tag_323\n        /* \"#utility.yul\":16784:16788   */\n      dup2\n        /* \"#utility.yul\":16658:16789   */\n      tag_157\n      jump\t// in\n    tag_323:\n        /* \"#utility.yul\":16650:16789   */\n      swap1\n      pop\n        /* \"#utility.yul\":16377:16796   */\n      swap2\n      swap1\n      pop\n      jump\t// out\n        /* \"#utility.yul\":16802:17024   */\n    tag_158:\n        /* \"#utility.yul\":16942:16976   */\n      0x506f6b656d6f6e206d7573742068617665206174206c65617374206f6e652074\n        /* \"#utility.yul\":16938:16939   */\n      0x00\n        /* \"#utility.yul\":16930:16936   */\n      dup3\n        /* \"#utility.yul\":16926:16940   */\n      add\n        /* \"#utility.yul\":16919:16977   */\n      mstore\n        /* \"#utility.yul\":17011:17016   */\n      0x7970650000000000000000000000000000000000000000000000000000000000\n        /* \"#utility.yul\":17006:17008   */\n      0x20\n        /* \"#utility.yul\":16998:17004   */\n      dup3\n        /* \"#utility.yul\":16994:17009   */\n      add\n        /* \"#utility.yul\":16987:17017   */\n      mstore\n        /* \"#utility.yul\":16802:17024   */\n      pop\n      jump\t// out\n        /* \"#utility.yul\":17030:17396   */\n    tag_159:\n        /* \"#utility.yul\":17172:17175   */\n      0x00\n        /* \"#utility.yul\":17193:17260   */\n      tag_326\n        /* \"#utility.yul\":17257:17259   */\n      0x23\n        /* \"#utility.yul\":17252:17255   */\n      dup4\n        /* \"#utility.yul\":17193:17260   */\n      tag_144\n      jump\t// in\n    tag_326:\n        /* \"#utility.yul\":17186:17260   */\n      swap2\n      pop\n        /* \"#utility.yul\":17269:17362   */\n      tag_327\n        /* \"#utility.yul\":17358:17361   */\n      dup3\n        /* \"#utility.yul\":17269:17362   */\n      tag_158\n      jump\t// in\n    tag_327:\n        /* \"#utility.yul\":17387:17389   */\n      0x40\n        /* \"#utility.yul\":17382:17385   */\n      dup3\n        /* \"#utility.yul\":17378:17390   */\n      add\n        /* \"#utility.yul\":17371:17390   */\n      swap1\n      pop\n        /* \"#utility.yul\":17030:17396   */\n      swap2\n      swap1\n      pop\n      jump\t// out\n        /* \"#utility.yul\":17402:17821   */\n    tag_76:\n        /* \"#utility.yul\":17568:17572   */\n      0x00\n        /* \"#utility.yul\":17606:17608   */\n      0x20\n        /* \"#utility.yul\":17595:17604   */\n      dup3\n        /* \"#utility.yul\":17591:17609   */\n      add\n        /* \"#utility.yul\":17583:17609   */\n      swap1\n      pop\n        /* \"#utility.yul\":17655:17664   */\n      dup2\n        /* \"#utility.yul\":17649:17653   */\n      dup2\n        /* \"#utility.yul\":17645:17665   */\n      sub\n        /* \"#utility.yul\":17641:17642   */\n      0x00\n        /* \"#utility.yul\":17630:17639   */\n      dup4\n        /* \"#utility.yul\":17626:17643   */\n      add\n        /* \"#utility.yul\":17619:17666   */\n      mstore\n        /* \"#utility.yul\":17683:17814   */\n      tag_329\n        /* \"#utility.yul\":17809:17813   */\n      dup2\n        /* \"#utility.yul\":17683:17814   */\n      tag_159\n      jump\t// in\n    tag_329:\n        /* \"#utility.yul\":17675:17814   */\n      swap1\n      pop\n        /* \"#utility.yul\":17402:17821   */\n      swap2\n      swap1\n      pop\n      jump\t// out\n        /* \"#utility.yul\":17827:18053   */\n    tag_160:\n        /* \"#utility.yul\":17967:18001   */\n      0x506f6b656d6f6e206d7573742068617665206174206c65617374206f6e652077\n        /* \"#utility.yul\":17963:17964   */\n      0x00\n        /* \"#utility.yul\":17955:17961   */\n      dup3\n        /* \"#utility.yul\":17951:17965   */\n      add\n        /* \"#utility.yul\":17944:18002   */\n      mstore\n        /* \"#utility.yul\":18036:18045   */\n      0x65616b6e65737300000000000000000000000000000000000000000000000000\n        /* \"#utility.yul\":18031:18033   */\n      0x20\n        /* \"#utility.yul\":18023:18029   */\n      dup3\n        /* \"#utility.yul\":18019:18034   */\n      add\n        /* \"#utility.yul\":18012:18046   */\n      mstore\n        /* \"#utility.yul\":17827:18053   */\n      pop\n      jump\t// out\n        /* \"#utility.yul\":18059:18425   */\n    tag_161:\n        /* \"#utility.yul\":18201:18204   */\n      0x00\n        /* \"#utility.yul\":18222:18289   */\n      tag_332\n        /* \"#utility.yul\":18286:18288   */\n      0x27\n        /* \"#utility.yul\":18281:18284   */\n      dup4\n        /* \"#utility.yul\":18222:18289   */\n      tag_144\n      jump\t// in\n    tag_332:\n        /* \"#utility.yul\":18215:18289   */\n      swap2\n      pop\n        /* \"#utility.yul\":18298:18391   */\n      tag_333\n        /* \"#utility.yul\":18387:18390   */\n      dup3\n        /* \"#utility.yul\":18298:18391   */\n      tag_160\n      jump\t// in\n    tag_333:\n        /* \"#utility.yul\":18416:18418   */\n      0x40\n        /* \"#utility.yul\":18411:18414   */\n      dup3\n        /* \"#utility.yul\":18407:18419   */\n      add\n        /* \"#utility.yul\":18400:18419   */\n      swap1\n      pop\n        /* \"#utility.yul\":18059:18425   */\n      swap2\n      swap1\n      pop\n      jump\t// out\n        /* \"#utility.yul\":18431:18850   */\n    tag_79:\n        /* \"#utility.yul\":18597:18601   */\n      0x00\n        /* \"#utility.yul\":18635:18637   */\n      0x20\n        /* \"#utility.yul\":18624:18633   */\n      dup3\n        /* \"#utility.yul\":18620:18638   */\n      add\n        /* \"#utility.yul\":18612:18638   */\n      swap1\n      pop\n        /* \"#utility.yul\":18684:18693   */\n      dup2\n        /* \"#utility.yul\":18678:18682   */\n      dup2\n        /* \"#utility.yul\":18674:18694   */\n      sub\n        /* \"#utility.yul\":18670:18671   */\n      0x00\n        /* \"#utility.yul\":18659:18668   */\n      dup4\n        /* \"#utility.yul\":18655:18672   */\n      add\n        /* \"#utility.yul\":18648:18695   */\n      mstore\n        /* \"#utility.yul\":18712:18843   */\n      tag_335\n        /* \"#utility.yul\":18838:18842   */\n      dup2\n        /* \"#utility.yul\":18712:18843   */\n      tag_161\n      jump\t// in\n    tag_335:\n        /* \"#utility.yul\":18704:18843   */\n      swap1\n      pop\n        /* \"#utility.yul\":18431:18850   */\n      swap2\n      swap1\n      pop\n      jump\t// out\n        /* \"#utility.yul\":18856:19036   */\n    tag_162:\n        /* \"#utility.yul\":18904:18981   */\n      0x4e487b7100000000000000000000000000000000000000000000000000000000\n        /* \"#utility.yul\":18901:18902   */\n      0x00\n        /* \"#utility.yul\":18894:18982   */\n      mstore\n        /* \"#utility.yul\":19001:19005   */\n      0x41\n        /* \"#utility.yul\":18998:18999   */\n      0x04\n        /* \"#utility.yul\":18991:19006   */\n      mstore\n        /* \"#utility.yul\":19025:19029   */\n      0x24\n        /* \"#utility.yul\":19022:19023   */\n      0x00\n        /* \"#utility.yul\":19015:19030   */\n      revert\n        /* \"#utility.yul\":19042:19183   */\n    tag_163:\n        /* \"#utility.yul\":19091:19095   */\n      0x00\n        /* \"#utility.yul\":19114:19117   */\n      dup2\n        /* \"#utility.yul\":19106:19117   */\n      swap1\n      pop\n        /* \"#utility.yul\":19137:19140   */\n      dup2\n        /* \"#utility.yul\":19134:19135   */\n      0x00\n        /* \"#utility.yul\":19127:19141   */\n      mstore\n        /* \"#utility.yul\":19171:19175   */\n      0x20\n        /* \"#utility.yul\":19168:19169   */\n      0x00\n        /* \"#utility.yul\":19158:19176   */\n      keccak256\n        /* \"#utility.yul\":19150:19176   */\n      swap1\n      pop\n        /* \"#utility.yul\":19042:19183   */\n      swap2\n      swap1\n      pop\n      jump\t// out\n        /* \"#utility.yul\":19189:19282   */\n    tag_164:\n        /* \"#utility.yul\":19226:19232   */\n      0x00\n        /* \"#utility.yul\":19273:19275   */\n      0x20\n        /* \"#utility.yul\":19268:19270   */\n      0x1f\n        /* \"#utility.yul\":19261:19266   */\n      dup4\n        /* \"#utility.yul\":19257:19271   */\n      add\n        /* \"#utility.yul\":19253:19276   */\n      div\n        /* \"#utility.yul\":19243:19276   */\n      swap1\n      pop\n        /* \"#utility.yul\":19189:19282   */\n      swap2\n      swap1\n      pop\n      jump\t// out\n        /* \"#utility.yul\":19288:19395   */\n    tag_165:\n        /* \"#utility.yul\":19332:19340   */\n      0x00\n        /* \"#utility.yul\":19382:19387   */\n      dup3\n        /* \"#utility.yul\":19376:19380   */\n      dup3\n        /* \"#utility.yul\":19372:19388   */\n      shl\n        /* \"#utility.yul\":19351:19388   */\n      swap1\n      pop\n        /* \"#utility.yul\":19288:19395   */\n      swap3\n      swap2\n      pop\n      pop\n      jump\t// out\n        /* \"#utility.yul\":19401:19794   */\n    tag_166:\n        /* \"#utility.yul\":19470:19476   */\n      0x00\n        /* \"#utility.yul\":19520:19521   */\n      0x08\n        /* \"#utility.yul\":19508:19518   */\n      dup4\n        /* \"#utility.yul\":19504:19522   */\n      mul\n        /* \"#utility.yul\":19543:19640   */\n      tag_341\n        /* \"#utility.yul\":19573:19639   */\n      0xffffffffffffffffffffffffffffffffffffffffffffffffffffffffffffffff\n        /* \"#utility.yul\":19562:19571   */\n      dup3\n        /* \"#utility.yul\":19543:19640   */\n      tag_165\n      jump\t// in\n    tag_341:\n        /* \"#utility.yul\":19661:19700   */\n      tag_342\n        /* \"#utility.yul\":19691:19699   */\n      dup7\n        /* \"#utility.yul\":19680:19689   */\n      dup4\n        /* \"#utility.yul\":19661:19700   */\n      tag_165\n      jump\t// in\n    tag_342:\n        /* \"#utility.yul\":19649:19700   */\n      swap6\n      pop\n        /* \"#utility.yul\":19733:19737   */\n      dup1\n        /* \"#utility.yul\":19729:19738   */\n      not\n        /* \"#utility.yul\":19722:19727   */\n      dup5\n        /* \"#utility.yul\":19718:19739   */\n      and\n        /* \"#utility.yul\":19709:19739   */\n      swap4\n      pop\n        /* \"#utility.yul\":19782:19786   */\n      dup1\n        /* \"#utility.yul\":19772:19780   */\n      dup7\n        /* \"#utility.yul\":19768:19787   */\n      and\n        /* \"#utility.yul\":19761:19766   */\n      dup5\n        /* \"#utility.yul\":19758:19788   */\n      or\n        /* \"#utility.yul\":19748:19788   */\n      swap3\n      pop\n        /* \"#utility.yul\":19477:19794   */\n      pop\n      pop\n        /* \"#utility.yul\":19401:19794   */\n      swap4\n      swap3\n      pop\n      pop\n      pop\n      jump\t// out\n        /* \"#utility.yul\":19800:19860   */\n    tag_167:\n        /* \"#utility.yul\":19828:19831   */\n      0x00\n        /* \"#utility.yul\":19849:19854   */\n      dup2\n        /* \"#utility.yul\":19842:19854   */\n      swap1\n      pop\n        /* \"#utility.yul\":19800:19860   */\n      swap2\n      swap1\n      pop\n      jump\t// out\n        /* \"#utility.yul\":19866:20008   */\n    tag_168:\n        /* \"#utility.yul\":19916:19925   */\n      0x00\n        /* \"#utility.yul\":19949:20002   */\n      tag_345\n        /* \"#utility.yul\":19967:20001   */\n      tag_346\n        /* \"#utility.yul\":19976:20000   */\n      tag_347\n        /* \"#utility.yul\":19994:19999   */\n      dup5\n        /* \"#utility.yul\":19976:20000   */\n      tag_118\n      jump\t// in\n    tag_347:\n        /* \"#utility.yul\":19967:20001   */\n      tag_167\n      jump\t// in\n    tag_346:\n        /* \"#utility.yul\":19949:20002   */\n      tag_118\n      jump\t// in\n    tag_345:\n        /* \"#utility.yul\":19936:20002   */\n      swap1\n      pop\n        /* \"#utility.yul\":19866:20008   */\n      swap2\n      swap1\n      pop\n      jump\t// out\n        /* \"#utility.yul\":20014:20089   */\n    tag_169:\n        /* \"#utility.yul\":20057:20060   */\n      0x00\n        /* \"#utility.yul\":20078:20083   */\n      dup2\n        /* \"#utility.yul\":20071:20083   */\n      swap1\n      pop\n        /* \"#utility.yul\":20014:20089   */\n      swap2\n      swap1\n      pop\n      jump\t// out\n        /* \"#utility.yul\":20095:20364   */\n    tag_170:\n        /* \"#utility.yul\":20205:20244   */\n      tag_350\n        /* \"#utility.yul\":20236:20243   */\n      dup4\n        /* \"#utility.yul\":20205:20244   */\n      tag_168\n      jump\t// in\n    tag_350:\n        /* \"#utility.yul\":20266:20357   */\n      tag_351\n        /* \"#utility.yul\":20315:20356   */\n      tag_352\n        /* \"#utility.yul\":20339:20355   */\n      dup3\n        /* \"#utility.yul\":20315:20356   */\n      tag_169\n      jump\t// in\n    tag_352:\n        /* \"#utility.yul\":20307:20313   */\n      dup5\n        /* \"#utility.yul\":20300:20304   */\n      dup5\n        /* \"#utility.yul\":20294:20305   */\n      sload\n        /* \"#utility.yul\":20266:20357   */\n      tag_166\n      jump\t// in\n    tag_351:\n        /* \"#utility.yul\":20260:20264   */\n      dup3\n        /* \"#utility.yul\":20253:20358   */\n      sstore\n        /* \"#utility.yul\":20171:20364   */\n      pop\n        /* \"#utility.yul\":20095:20364   */\n      pop\n      pop\n      pop\n      jump\t// out\n        /* \"#utility.yul\":20370:20443   */\n    tag_171:\n        /* \"#utility.yul\":20415:20418   */\n      0x00\n        /* \"#utility.yul\":20370:20443   */\n      swap1\n      jump\t// out\n        /* \"#utility.yul\":20449:20638   */\n    tag_172:\n        /* \"#utility.yul\":20526:20558   */\n      tag_355\n      tag_171\n      jump\t// in\n    tag_355:\n        /* \"#utility.yul\":20567:20632   */\n      tag_356\n        /* \"#utility.yul\":20625:20631   */\n      dup2\n        /* \"#utility.yul\":20617:20623   */\n      dup5\n        /* \"#utility.yul\":20611:20615   */\n      dup5\n        /* \"#utility.yul\":20567:20632   */\n      tag_170\n      jump\t// in\n    tag_356:\n        /* \"#utility.yul\":20502:20638   */\n      pop\n        /* \"#utility.yul\":20449:20638   */\n      pop\n      pop\n      jump\t// out\n        /* \"#utility.yul\":20644:20830   */\n    tag_173:\n        /* \"#utility.yul\":20704:20824   */\n    tag_358:\n        /* \"#utility.yul\":20721:20724   */\n      dup2\n        /* \"#utility.yul\":20714:20719   */\n      dup2\n        /* \"#utility.yul\":20711:20725   */\n      lt\n        /* \"#utility.yul\":20704:20824   */\n      iszero\n      tag_360\n      jumpi\n        /* \"#utility.yul\":20775:20814   */\n      tag_361\n        /* \"#utility.yul\":20812:20813   */\n      0x00\n        /* \"#utility.yul\":20805:20810   */\n      dup3\n        /* \"#utility.yul\":20775:20814   */\n      tag_172\n      jump\t// in\n    tag_361:\n        /* \"#utility.yul\":20748:20749   */\n      0x01\n        /* \"#utility.yul\":20741:20746   */\n      dup2\n        /* \"#utility.yul\":20737:20750   */\n      add\n        /* \"#utility.yul\":20728:20750   */\n      swap1\n      pop\n        /* \"#utility.yul\":20704:20824   */\n      jump(tag_358)\n    tag_360:\n        /* \"#utility.yul\":20644:20830   */\n      pop\n      pop\n      jump\t// out\n        /* \"#utility.yul\":20836:21379   */\n    tag_174:\n        /* \"#utility.yul\":20937:20939   */\n      0x1f\n        /* \"#utility.yul\":20932:20935   */\n      dup3\n        /* \"#utility.yul\":20929:20940   */\n      gt\n        /* \"#utility.yul\":20926:21372   */\n      iszero\n      tag_363\n      jumpi\n        /* \"#utility.yul\":20971:21009   */\n      tag_364\n        /* \"#utility.yul\":21003:21008   */\n      dup2\n        /* \"#utility.yul\":20971:21009   */\n      tag_163\n      jump\t// in\n    tag_364:\n        /* \"#utility.yul\":21055:21084   */\n      tag_365\n        /* \"#utility.yul\":21073:21083   */\n      dup5\n        /* \"#utility.yul\":21055:21084   */\n      tag_164\n      jump\t// in\n    tag_365:\n        /* \"#utility.yul\":21045:21053   */\n      dup2\n        /* \"#utility.yul\":21041:21085   */\n      add\n        /* \"#utility.yul\":21238:21240   */\n      0x20\n        /* \"#utility.yul\":21226:21236   */\n      dup6\n        /* \"#utility.yul\":21223:21241   */\n      lt\n        /* \"#utility.yul\":21220:21269   */\n      iszero\n      tag_366\n      jumpi\n        /* \"#utility.yul\":21259:21267   */\n      dup2\n        /* \"#utility.yul\":21244:21267   */\n      swap1\n      pop\n        /* \"#utility.yul\":21220:21269   */\n    tag_366:\n        /* \"#utility.yul\":21282:21362   */\n      tag_367\n        /* \"#utility.yul\":21338:21360   */\n      tag_368\n        /* \"#utility.yul\":21356:21359   */\n      dup6\n        /* \"#utility.yul\":21338:21360   */\n      tag_164\n      jump\t// in\n    tag_368:\n        /* \"#utility.yul\":21328:21336   */\n      dup4\n        /* \"#utility.yul\":21324:21361   */\n      add\n        /* \"#utility.yul\":21311:21322   */\n      dup3\n        /* \"#utility.yul\":21282:21362   */\n      tag_173\n      jump\t// in\n    tag_367:\n        /* \"#utility.yul\":20941:21372   */\n      pop\n      pop\n        /* \"#utility.yul\":20926:21372   */\n    tag_363:\n        /* \"#utility.yul\":20836:21379   */\n      pop\n      pop\n      pop\n      jump\t// out\n        /* \"#utility.yul\":21385:21502   */\n    tag_175:\n        /* \"#utility.yul\":21439:21447   */\n      0x00\n        /* \"#utility.yul\":21489:21494   */\n      dup3\n        /* \"#utility.yul\":21483:21487   */\n      dup3\n        /* \"#utility.yul\":21479:21495   */\n      shr\n        /* \"#utility.yul\":21458:21495   */\n      swap1\n      pop\n        /* \"#utility.yul\":21385:21502   */\n      swap3\n      swap2\n      pop\n      pop\n      jump\t// out\n        /* \"#utility.yul\":21508:21677   */\n    tag_176:\n        /* \"#utility.yul\":21552:21558   */\n      0x00\n        /* \"#utility.yul\":21585:21636   */\n      tag_371\n        /* \"#utility.yul\":21633:21634   */\n      0x00\n        /* \"#utility.yul\":21629:21635   */\n      not\n        /* \"#utility.yul\":21621:21626   */\n      dup5\n        /* \"#utility.yul\":21618:21619   */\n      0x08\n        /* \"#utility.yul\":21614:21627   */\n      mul\n        /* \"#utility.yul\":21585:21636   */\n      tag_175\n      jump\t// in\n    tag_371:\n        /* \"#utility.yul\":21581:21637   */\n      not\n        /* \"#utility.yul\":21666:21670   */\n      dup1\n        /* \"#utility.yul\":21660:21664   */\n      dup4\n        /* \"#utility.yul\":21656:21671   */\n      and\n        /* \"#utility.yul\":21646:21671   */\n      swap2\n      pop\n        /* \"#utility.yul\":21559:21677   */\n      pop\n        /* \"#utility.yul\":21508:21677   */\n      swap3\n      swap2\n      pop\n      pop\n      jump\t// out\n        /* \"#utility.yul\":21682:21977   */\n    tag_177:\n        /* \"#utility.yul\":21758:21762   */\n      0x00\n        /* \"#utility.yul\":21904:21933   */\n      tag_373\n        /* \"#utility.yul\":21929:21932   */\n      dup4\n        /* \"#utility.yul\":21923:21927   */\n      dup4\n        /* \"#utility.yul\":21904:21933   */\n      tag_176\n      jump\t// in\n    tag_373:\n        /* \"#utility.yul\":21896:21933   */\n      swap2\n      pop\n        /* \"#utility.yul\":21966:21969   */\n      dup3\n        /* \"#utility.yul\":21963:21964   */\n      0x02\n        /* \"#utility.yul\":21959:21970   */\n      mul\n        /* \"#utility.yul\":21953:21957   */\n      dup3\n        /* \"#utility.yul\":21950:21971   */\n      or\n        /* \"#utility.yul\":21942:21971   */\n      swap1\n      pop\n        /* \"#utility.yul\":21682:21977   */\n      swap3\n      swap2\n      pop\n      pop\n      jump\t// out\n        /* \"#utility.yul\":21982:23377   */\n    tag_82:\n        /* \"#utility.yul\":22099:22136   */\n      tag_375\n        /* \"#utility.yul\":22132:22135   */\n      dup3\n        /* \"#utility.yul\":22099:22136   */\n      tag_128\n      jump\t// in\n    tag_375:\n        /* \"#utility.yul\":22201:22219   */\n      0xffffffffffffffff\n        /* \"#utility.yul\":22193:22199   */\n      dup2\n        /* \"#utility.yul\":22190:22220   */\n      gt\n        /* \"#utility.yul\":22187:22243   */\n      iszero\n      tag_376\n      jumpi\n        /* \"#utility.yul\":22223:22241   */\n      tag_377\n      tag_162\n      jump\t// in\n    tag_377:\n        /* \"#utility.yul\":22187:22243   */\n    tag_376:\n        /* \"#utility.yul\":22267:22305   */\n      tag_378\n        /* \"#utility.yul\":22299:22303   */\n      dup3\n        /* \"#utility.yul\":22293:22304   */\n      sload\n        /* \"#utility.yul\":22267:22305   */\n      tag_41\n      jump\t// in\n    tag_378:\n        /* \"#utility.yul\":22352:22419   */\n      tag_379\n        /* \"#utility.yul\":22412:22418   */\n      dup3\n        /* \"#utility.yul\":22404:22410   */\n      dup3\n        /* \"#utility.yul\":22398:22402   */\n      dup6\n        /* \"#utility.yul\":22352:22419   */\n      tag_174\n      jump\t// in\n    tag_379:\n        /* \"#utility.yul\":22446:22447   */\n      0x00\n        /* \"#utility.yul\":22470:22474   */\n      0x20\n        /* \"#utility.yul\":22457:22474   */\n      swap1\n      pop\n        /* \"#utility.yul\":22502:22504   */\n      0x1f\n        /* \"#utility.yul\":22494:22500   */\n      dup4\n        /* \"#utility.yul\":22491:22505   */\n      gt\n        /* \"#utility.yul\":22519:22520   */\n      0x01\n        /* \"#utility.yul\":22514:23132   */\n      dup2\n      eq\n      tag_381\n      jumpi\n        /* \"#utility.yul\":23176:23177   */\n      0x00\n        /* \"#utility.yul\":23193:23199   */\n      dup5\n        /* \"#utility.yul\":23190:23267   */\n      iszero\n      tag_382\n      jumpi\n        /* \"#utility.yul\":23242:23251   */\n      dup3\n        /* \"#utility.yul\":23237:23240   */\n      dup8\n        /* \"#utility.yul\":23233:23252   */\n      add\n        /* \"#utility.yul\":23227:23253   */\n      mload\n        /* \"#utility.yul\":23218:23253   */\n      swap1\n      pop\n        /* \"#utility.yul\":23190:23267   */\n    tag_382:\n        /* \"#utility.yul\":23293:23360   */\n      tag_383\n        /* \"#utility.yul\":23353:23359   */\n      dup6\n        /* \"#utility.yul\":23346:23351   */\n      dup3\n        /* \"#utility.yul\":23293:23360   */\n      tag_177\n      jump\t// in\n    tag_383:\n        /* \"#utility.yul\":23287:23291   */\n      dup7\n        /* \"#utility.yul\":23280:23361   */\n      sstore\n        /* \"#utility.yul\":23149:23371   */\n      pop\n        /* \"#utility.yul\":22484:23371   */\n      jump(tag_380)\n        /* \"#utility.yul\":22514:23132   */\n    tag_381:\n        /* \"#utility.yul\":22566:22570   */\n      0x1f\n        /* \"#utility.yul\":22562:22571   */\n      not\n        /* \"#utility.yul\":22554:22560   */\n      dup5\n        /* \"#utility.yul\":22550:22572   */\n      and\n        /* \"#utility.yul\":22600:22637   */\n      tag_384\n        /* \"#utility.yul\":22632:22636   */\n      dup7\n        /* \"#utility.yul\":22600:22637   */\n      tag_163\n      jump\t// in\n    tag_384:\n        /* \"#utility.yul\":22659:22660   */\n      0x00\n        /* \"#utility.yul\":22673:22881   */\n    tag_385:\n        /* \"#utility.yul\":22687:22694   */\n      dup3\n        /* \"#utility.yul\":22684:22685   */\n      dup2\n        /* \"#utility.yul\":22681:22695   */\n      lt\n        /* \"#utility.yul\":22673:22881   */\n      iszero\n      tag_387\n      jumpi\n        /* \"#utility.yul\":22766:22775   */\n      dup5\n        /* \"#utility.yul\":22761:22764   */\n      dup10\n        /* \"#utility.yul\":22757:22776   */\n      add\n        /* \"#utility.yul\":22751:22777   */\n      mload\n        /* \"#utility.yul\":22743:22749   */\n      dup3\n        /* \"#utility.yul\":22736:22778   */\n      sstore\n        /* \"#utility.yul\":22817:22818   */\n      0x01\n        /* \"#utility.yul\":22809:22815   */\n      dup3\n        /* \"#utility.yul\":22805:22819   */\n      add\n        /* \"#utility.yul\":22795:22819   */\n      swap2\n      pop\n        /* \"#utility.yul\":22864:22866   */\n      0x20\n        /* \"#utility.yul\":22853:22862   */\n      dup6\n        /* \"#utility.yul\":22849:22867   */\n      add\n        /* \"#utility.yul\":22836:22867   */\n      swap5\n      pop\n        /* \"#utility.yul\":22710:22714   */\n      0x20\n        /* \"#utility.yul\":22707:22708   */\n      dup2\n        /* \"#utility.yul\":22703:22715   */\n      add\n        /* \"#utility.yul\":22698:22715   */\n      swap1\n      pop\n        /* \"#utility.yul\":22673:22881   */\n      jump(tag_385)\n    tag_387:\n        /* \"#utility.yul\":22909:22915   */\n      dup7\n        /* \"#utility.yul\":22900:22907   */\n      dup4\n        /* \"#utility.yul\":22897:22916   */\n      lt\n        /* \"#utility.yul\":22894:23073   */\n      iszero\n      tag_388\n      jumpi\n        /* \"#utility.yul\":22967:22976   */\n      dup5\n        /* \"#utility.yul\":22962:22965   */\n      dup10\n        /* \"#utility.yul\":22958:22977   */\n      add\n        /* \"#utility.yul\":22952:22978   */\n      mload\n        /* \"#utility.yul\":23010:23058   */\n      tag_389\n        /* \"#utility.yul\":23052:23056   */\n      0x1f\n        /* \"#utility.yul\":23044:23050   */\n      dup10\n        /* \"#utility.yul\":23040:23057   */\n      and\n        /* \"#utility.yul\":23029:23038   */\n      dup3\n        /* \"#utility.yul\":23010:23058   */\n      tag_176\n      jump\t// in\n    tag_389:\n        /* \"#utility.yul\":23002:23008   */\n      dup4\n        /* \"#utility.yul\":22995:23059   */\n      sstore\n        /* \"#utility.yul\":22917:23073   */\n      pop\n        /* \"#utility.yul\":22894:23073   */\n    tag_388:\n        /* \"#utility.yul\":23119:23120   */\n      0x01\n        /* \"#utility.yul\":23115:23116   */\n      0x02\n        /* \"#utility.yul\":23107:23113   */\n      dup9\n        /* \"#utility.yul\":23103:23117   */\n      mul\n        /* \"#utility.yul\":23099:23121   */\n      add\n        /* \"#utility.yul\":23093:23097   */\n      dup9\n        /* \"#utility.yul\":23086:23122   */\n      sstore\n        /* \"#utility.yul\":22521:23132   */\n      pop\n      pop\n      pop\n        /* \"#utility.yul\":22484:23371   */\n    tag_380:\n      pop\n        /* \"#utility.yul\":22074:23377   */\n      pop\n      pop\n      pop\n        /* \"#utility.yul\":21982:23377   */\n      pop\n      pop\n      jump\t// out\n        /* \"#utility.yul\":23383:23563   */\n    tag_178:\n        /* \"#utility.yul\":23431:23508   */\n      0x4e487b7100000000000000000000000000000000000000000000000000000000\n        /* \"#utility.yul\":23428:23429   */\n      0x00\n        /* \"#utility.yul\":23421:23509   */\n      mstore\n        /* \"#utility.yul\":23528:23532   */\n      0x11\n        /* \"#utility.yul\":23525:23526   */\n      0x04\n        /* \"#utility.yul\":23518:23533   */\n      mstore\n        /* \"#utility.yul\":23552:23556   */\n      0x24\n        /* \"#utility.yul\":23549:23550   */\n      0x00\n        /* \"#utility.yul\":23542:23557   */\n      revert\n        /* \"#utility.yul\":23569:23802   */\n    tag_88:\n        /* \"#utility.yul\":23608:23611   */\n      0x00\n        /* \"#utility.yul\":23631:23655   */\n      tag_392\n        /* \"#utility.yul\":23649:23654   */\n      dup3\n        /* \"#utility.yul\":23631:23655   */\n      tag_118\n      jump\t// in\n    tag_392:\n        /* \"#utility.yul\":23622:23655   */\n      swap2\n      pop\n        /* \"#utility.yul\":23677:23743   */\n      0xffffffffffffffffffffffffffffffffffffffffffffffffffffffffffffffff\n        /* \"#utility.yul\":23670:23675   */\n      dup3\n        /* \"#utility.yul\":23667:23744   */\n      sub\n        /* \"#utility.yul\":23664:23767   */\n      tag_393\n      jumpi\n        /* \"#utility.yul\":23747:23765   */\n      tag_394\n      tag_178\n      jump\t// in\n    tag_394:\n        /* \"#utility.yul\":23664:23767   */\n    tag_393:\n        /* \"#utility.yul\":23794:23795   */\n      0x01\n        /* \"#utility.yul\":23787:23792   */\n      dup3\n        /* \"#utility.yul\":23783:23796   */\n      add\n        /* \"#utility.yul\":23776:23796   */\n      swap1\n      pop\n        /* \"#utility.yul\":23569:23802   */\n      swap2\n      swap1\n      pop\n      jump\t// out\n        /* \"#utility.yul\":23878:25312   */\n    tag_179:\n        /* \"#utility.yul\":23993:23996   */\n      0x00\n        /* \"#utility.yul\":24029:24033   */\n      0xa0\n        /* \"#utility.yul\":24024:24027   */\n      dup4\n        /* \"#utility.yul\":24020:24034   */\n      add\n        /* \"#utility.yul\":24114:24118   */\n      0x00\n        /* \"#utility.yul\":24107:24112   */\n      dup4\n        /* \"#utility.yul\":24103:24119   */\n      add\n        /* \"#utility.yul\":24097:24120   */\n      mload\n        /* \"#utility.yul\":24133:24196   */\n      tag_396\n        /* \"#utility.yul\":24190:24194   */\n      0x00\n        /* \"#utility.yul\":24185:24188   */\n      dup7\n        /* \"#utility.yul\":24181:24195   */\n      add\n        /* \"#utility.yul\":24167:24179   */\n      dup3\n        /* \"#utility.yul\":24133:24196   */\n      tag_127\n      jump\t// in\n    tag_396:\n        /* \"#utility.yul\":24044:24206   */\n      pop\n        /* \"#utility.yul\":24288:24292   */\n      0x20\n        /* \"#utility.yul\":24281:24286   */\n      dup4\n        /* \"#utility.yul\":24277:24293   */\n      add\n        /* \"#utility.yul\":24271:24294   */\n      mload\n        /* \"#utility.yul\":24341:24344   */\n      dup5\n        /* \"#utility.yul\":24335:24339   */\n      dup3\n        /* \"#utility.yul\":24331:24345   */\n      sub\n        /* \"#utility.yul\":24324:24328   */\n      0x20\n        /* \"#utility.yul\":24319:24322   */\n      dup7\n        /* \"#utility.yul\":24315:24329   */\n      add\n        /* \"#utility.yul\":24308:24346   */\n      mstore\n        /* \"#utility.yul\":24367:24440   */\n      tag_397\n        /* \"#utility.yul\":24435:24439   */\n      dup3\n        /* \"#utility.yul\":24421:24433   */\n      dup3\n        /* \"#utility.yul\":24367:24440   */\n      tag_132\n      jump\t// in\n    tag_397:\n        /* \"#utility.yul\":24359:24440   */\n      swap2\n      pop\n        /* \"#utility.yul\":24216:24451   */\n      pop\n        /* \"#utility.yul\":24535:24539   */\n      0x40\n        /* \"#utility.yul\":24528:24533   */\n      dup4\n        /* \"#utility.yul\":24524:24540   */\n      add\n        /* \"#utility.yul\":24518:24541   */\n      mload\n        /* \"#utility.yul\":24588:24591   */\n      dup5\n        /* \"#utility.yul\":24582:24586   */\n      dup3\n        /* \"#utility.yul\":24578:24592   */\n      sub\n        /* \"#utility.yul\":24571:24575   */\n      0x40\n        /* \"#utility.yul\":24566:24569   */\n      dup7\n        /* \"#utility.yul\":24562:24576   */\n      add\n        /* \"#utility.yul\":24555:24593   */\n      mstore\n        /* \"#utility.yul\":24614:24717   */\n      tag_398\n        /* \"#utility.yul\":24712:24716   */\n      dup3\n        /* \"#utility.yul\":24698:24710   */\n      dup3\n        /* \"#utility.yul\":24614:24717   */\n      tag_138\n      jump\t// in\n    tag_398:\n        /* \"#utility.yul\":24606:24717   */\n      swap2\n      pop\n        /* \"#utility.yul\":24461:24728   */\n      pop\n        /* \"#utility.yul\":24811:24815   */\n      0x60\n        /* \"#utility.yul\":24804:24809   */\n      dup4\n        /* \"#utility.yul\":24800:24816   */\n      add\n        /* \"#utility.yul\":24794:24817   */\n      mload\n        /* \"#utility.yul\":24864:24867   */\n      dup5\n        /* \"#utility.yul\":24858:24862   */\n      dup3\n        /* \"#utility.yul\":24854:24868   */\n      sub\n        /* \"#utility.yul\":24847:24851   */\n      0x60\n        /* \"#utility.yul\":24842:24845   */\n      dup7\n        /* \"#utility.yul\":24838:24852   */\n      add\n        /* \"#utility.yul\":24831:24869   */\n      mstore\n        /* \"#utility.yul\":24890:24993   */\n      tag_399\n        /* \"#utility.yul\":24988:24992   */\n      dup3\n        /* \"#utility.yul\":24974:24986   */\n      dup3\n        /* \"#utility.yul\":24890:24993   */\n      tag_138\n      jump\t// in\n    tag_399:\n        /* \"#utility.yul\":24882:24993   */\n      swap2\n      pop\n        /* \"#utility.yul\":24738:25004   */\n      pop\n        /* \"#utility.yul\":25092:25096   */\n      0x80\n        /* \"#utility.yul\":25085:25090   */\n      dup4\n        /* \"#utility.yul\":25081:25097   */\n      add\n        /* \"#utility.yul\":25075:25098   */\n      mload\n        /* \"#utility.yul\":25145:25148   */\n      dup5\n        /* \"#utility.yul\":25139:25143   */\n      dup3\n        /* \"#utility.yul\":25135:25149   */\n      sub\n        /* \"#utility.yul\":25128:25132   */\n      0x80\n        /* \"#utility.yul\":25123:25126   */\n      dup7\n        /* \"#utility.yul\":25119:25133   */\n      add\n        /* \"#utility.yul\":25112:25150   */\n      mstore\n        /* \"#utility.yul\":25171:25274   */\n      tag_400\n        /* \"#utility.yul\":25269:25273   */\n      dup3\n        /* \"#utility.yul\":25255:25267   */\n      dup3\n        /* \"#utility.yul\":25171:25274   */\n      tag_138\n      jump\t// in\n    tag_400:\n        /* \"#utility.yul\":25163:25274   */\n      swap2\n      pop\n        /* \"#utility.yul\":25014:25285   */\n      pop\n        /* \"#utility.yul\":25302:25306   */\n      dup1\n        /* \"#utility.yul\":25295:25306   */\n      swap2\n      pop\n        /* \"#utility.yul\":23998:25312   */\n      pop\n        /* \"#utility.yul\":23878:25312   */\n      swap3\n      swap2\n      pop\n      pop\n      jump\t// out\n        /* \"#utility.yul\":25318:25683   */\n    tag_90:\n        /* \"#utility.yul\":25457:25461   */\n      0x00\n        /* \"#utility.yul\":25495:25497   */\n      0x20\n        /* \"#utility.yul\":25484:25493   */\n      dup3\n        /* \"#utility.yul\":25480:25498   */\n      add\n        /* \"#utility.yul\":25472:25498   */\n      swap1\n      pop\n        /* \"#utility.yul\":25544:25553   */\n      dup2\n        /* \"#utility.yul\":25538:25542   */\n      dup2\n        /* \"#utility.yul\":25534:25554   */\n      sub\n        /* \"#utility.yul\":25530:25531   */\n      0x00\n        /* \"#utility.yul\":25519:25528   */\n      dup4\n        /* \"#utility.yul\":25515:25532   */\n      add\n        /* \"#utility.yul\":25508:25555   */\n      mstore\n        /* \"#utility.yul\":25572:25676   */\n      tag_402\n        /* \"#utility.yul\":25671:25675   */\n      dup2\n        /* \"#utility.yul\":25662:25668   */\n      dup5\n        /* \"#utility.yul\":25572:25676   */\n      tag_179\n      jump\t// in\n    tag_402:\n        /* \"#utility.yul\":25564:25676   */\n      swap1\n      pop\n        /* \"#utility.yul\":25318:25683   */\n      swap3\n      swap2\n      pop\n      pop\n      jump\t// out\n        /* \"#utility.yul\":25689:26099   */\n    tag_93:\n        /* \"#utility.yul\":25729:25736   */\n      0x00\n        /* \"#utility.yul\":25752:25772   */\n      tag_404\n        /* \"#utility.yul\":25770:25771   */\n      dup3\n        /* \"#utility.yul\":25752:25772   */\n      tag_118\n      jump\t// in\n    tag_404:\n        /* \"#utility.yul\":25747:25772   */\n      swap2\n      pop\n        /* \"#utility.yul\":25786:25806   */\n      tag_405\n        /* \"#utility.yul\":25804:25805   */\n      dup4\n        /* \"#utility.yul\":25786:25806   */\n      tag_118\n      jump\t// in\n    tag_405:\n        /* \"#utility.yul\":25781:25806   */\n      swap3\n      pop\n        /* \"#utility.yul\":25841:25842   */\n      dup3\n        /* \"#utility.yul\":25838:25839   */\n      dup3\n        /* \"#utility.yul\":25834:25843   */\n      mul\n        /* \"#utility.yul\":25863:25893   */\n      tag_406\n        /* \"#utility.yul\":25881:25892   */\n      dup2\n        /* \"#utility.yul\":25863:25893   */\n      tag_118\n      jump\t// in\n    tag_406:\n        /* \"#utility.yul\":25852:25893   */\n      swap2\n      pop\n        /* \"#utility.yul\":26042:26043   */\n      dup3\n        /* \"#utility.yul\":26033:26040   */\n      dup3\n        /* \"#utility.yul\":26029:26044   */\n      div\n        /* \"#utility.yul\":26026:26027   */\n      dup5\n        /* \"#utility.yul\":26023:26045   */\n      eq\n        /* \"#utility.yul\":26003:26004   */\n      dup4\n        /* \"#utility.yul\":25996:26005   */\n      iszero\n        /* \"#utility.yul\":25976:26059   */\n      or\n        /* \"#utility.yul\":25953:26092   */\n      tag_407\n      jumpi\n        /* \"#utility.yul\":26072:26090   */\n      tag_408\n      tag_178\n      jump\t// in\n    tag_408:\n        /* \"#utility.yul\":25953:26092   */\n    tag_407:\n        /* \"#utility.yul\":25737:26099   */\n      pop\n        /* \"#utility.yul\":25689:26099   */\n      swap3\n      swap2\n      pop\n      pop\n      jump\t// out\n        /* \"#utility.yul\":26105:26296   */\n    tag_95:\n        /* \"#utility.yul\":26145:26148   */\n      0x00\n        /* \"#utility.yul\":26164:26184   */\n      tag_410\n        /* \"#utility.yul\":26182:26183   */\n      dup3\n        /* \"#utility.yul\":26164:26184   */\n      tag_118\n      jump\t// in\n    tag_410:\n        /* \"#utility.yul\":26159:26184   */\n      swap2\n      pop\n        /* \"#utility.yul\":26198:26218   */\n      tag_411\n        /* \"#utility.yul\":26216:26217   */\n      dup4\n        /* \"#utility.yul\":26198:26218   */\n      tag_118\n      jump\t// in\n    tag_411:\n        /* \"#utility.yul\":26193:26218   */\n      swap3\n      pop\n        /* \"#utility.yul\":26241:26242   */\n      dup3\n        /* \"#utility.yul\":26238:26239   */\n      dup3\n        /* \"#utility.yul\":26234:26243   */\n      add\n        /* \"#utility.yul\":26227:26243   */\n      swap1\n      pop\n        /* \"#utility.yul\":26262:26265   */\n      dup1\n        /* \"#utility.yul\":26259:26260   */\n      dup3\n        /* \"#utility.yul\":26256:26266   */\n      gt\n        /* \"#utility.yul\":26253:26289   */\n      iszero\n      tag_412\n      jumpi\n        /* \"#utility.yul\":26269:26287   */\n      tag_413\n      tag_178\n      jump\t// in\n    tag_413:\n        /* \"#utility.yul\":26253:26289   */\n    tag_412:\n        /* \"#utility.yul\":26105:26296   */\n      swap3\n      swap2\n      pop\n      pop\n      jump\t// out\n\n    auxdata: 0xa26469706673582212205b2fe22927c971f12455844b2f49a8e88abcf9e0e75d048583b80904c10946ea64736f6c63430008120033\n}\n",
				"bytecode": {
					"linkReferences": {},
					"object": "60806040523480156200001157600080fd5b50620000726040518060400160405280600481526020017f46697265000000000000000000000000000000000000000000000000000000008152506040518060600160405280603f815260200162002768603f91396200050560201b60201c565b50620000d36040518060400160405280600581526020017f5761746572000000000000000000000000000000000000000000000000000000815250604051806080016040528060438152602001620028d4604391396200050560201b60201c565b50620001346040518060400160405280600581526020017f47726173730000000000000000000000000000000000000000000000000000008152506040518060600160405280603d8152602001620027e1603d91396200050560201b60201c565b50620001956040518060400160405280600881526020017f456c6563747269630000000000000000000000000000000000000000000000008152506040518060600160405280603a8152602001620027a7603a91396200050560201b60201c565b50620001f66040518060400160405280600381526020017f496365000000000000000000000000000000000000000000000000000000000081525060405180606001604052806040815260200162002a17604091396200050560201b60201c565b50620002576040518060400160405280600881526020017f4669676874696e67000000000000000000000000000000000000000000000000815250604051806080016040528060468152602001620026ee604691396200050560201b60201c565b50620002b86040518060400160405280600681526020017f5461636b6c6500000000000000000000000000000000000000000000000000008152506040518060800160405280605a815260200162002a57605a91396200063a60201b60201c565b50620003196040518060400160405280600581526020017f456d6265720000000000000000000000000000000000000000000000000000008152506040518060800160405280605581526020016200287f605591396200063a60201b60201c565b506200037a6040518060400160405280600981526020017f56696e6520576869700000000000000000000000000000000000000000000000815250604051806080016040528060448152602001620029d3604491396200063a60201b60201c565b50620003db6040518060400160405280600981526020017f57617465722047756e000000000000000000000000000000000000000000000081525060405180606001604052806034815260200162002734603491396200063a60201b60201c565b506200043c6040518060400160405280600981526020017f54616b6520446f776e00000000000000000000000000000000000000000000008152506040518060a001604052806066815260200162002917606691396200063a60201b60201c565b506200049d6040518060400160405280600481526020017f42697465000000000000000000000000000000000000000000000000000000008152506040518060800160405280605681526020016200297d605691396200063a60201b60201c565b50620004fe6040518060400160405280600c81526020017f466c616d657468726f77657200000000000000000000000000000000000000008152506040518060a00160405280606181526020016200281e606191396200063a60201b60201c565b5062000d4c565b60006002835110156200054f576040517f08c379a00000000000000000000000000000000000000000000000000000000081526004016200054690620007f6565b60405180910390fd5b6000600480549050905060046040518060600160405280838152602001868152602001858152509080600181540180825580915050600190039060005260206000209060030201600090919091909150600082015181600001556020820151816001019081620005c0919062000a92565b506040820151816002019081620005d8919062000a92565b5050507f6b54179a51d98751b56e9854f101a8bc66580317818848ffe11418b2a070df56816040518060600160405280848152602001878152602001868152506040516200062892919062000c87565b60405180910390a18091505092915050565b600060028351101562000684576040517f08c379a00000000000000000000000000000000000000000000000000000000081526004016200067b90620007f6565b60405180910390fd5b6000600380549050905060036040518060600160405280838152602001868152602001858152509080600181540180825580915050600190039060005260206000209060030201600090919091909150600082015181600001556020820151816001019081620006f5919062000a92565b5060408201518160020190816200070d919062000a92565b5050507f80e541f486172623665f7d923cf03b7164d42f9823d756f08c19790192be7e13816040518060600160405280848152602001878152602001868152506040516200075d92919062000d18565b60405180910390a18091505092915050565b600082825260208201905092915050565b7f4e616d65206d757374206265206174206c65617374203220636861726163746560008201527f7273206c6f6e6700000000000000000000000000000000000000000000000000602082015250565b6000620007de6027836200076f565b9150620007eb8262000780565b604082019050919050565b600060208201905081810360008301526200081181620007cf565b9050919050565b600081519050919050565b7f4e487b7100000000000000000000000000000000000000000000000000000000600052604160045260246000fd5b7f4e487b7100000000000000000000000000000000000000000000000000000000600052602260045260246000fd5b600060028204905060018216806200089a57607f821691505b602082108103620008b057620008af62000852565b5b50919050565b60008190508160005260206000209050919050565b60006020601f8301049050919050565b600082821b905092915050565b6000600883026200091a7fffffffffffffffffffffffffffffffffffffffffffffffffffffffffffffffff82620008db565b620009268683620008db565b95508019841693508086168417925050509392505050565b6000819050919050565b6000819050919050565b6000620009736200096d62000967846200093e565b62000948565b6200093e565b9050919050565b6000819050919050565b6200098f8362000952565b620009a76200099e826200097a565b848454620008e8565b825550505050565b600090565b620009be620009af565b620009cb81848462000984565b505050565b5b81811015620009f357620009e7600082620009b4565b600181019050620009d1565b5050565b601f82111562000a425762000a0c81620008b6565b62000a1784620008cb565b8101602085101562000a27578190505b62000a3f62000a3685620008cb565b830182620009d0565b50505b505050565b600082821c905092915050565b600062000a676000198460080262000a47565b1980831691505092915050565b600062000a82838362000a54565b9150826002028217905092915050565b62000a9d8262000818565b67ffffffffffffffff81111562000ab95762000ab862000823565b5b62000ac5825462000881565b62000ad2828285620009f7565b600060209050601f83116001811462000b0a576000841562000af5578287015190505b62000b01858262000a74565b86555062000b71565b601f19841662000b1a86620008b6565b60005b8281101562000b445784890151825560018201915060208501945060208101905062000b1d565b8683101562000b64578489015162000b60601f89168262000a54565b8355505b6001600288020188555050505b505050505050565b62000b84816200093e565b82525050565b62000b95816200093e565b82525050565b600082825260208201905092915050565b60005b8381101562000bcc57808201518184015260208101905062000baf565b60008484015250505050565b6000601f19601f8301169050919050565b600062000bf68262000818565b62000c02818562000b9b565b935062000c1481856020860162000bac565b62000c1f8162000bd8565b840191505092915050565b600060608301600083015162000c44600086018262000b8a565b506020830151848203602086015262000c5e828262000be9565b9150506040830151848203604086015262000c7a828262000be9565b9150508091505092915050565b600060408201905062000c9e600083018562000b79565b818103602083015262000cb2818462000c2a565b90509392505050565b600060608301600083015162000cd5600086018262000b8a565b506020830151848203602086015262000cef828262000be9565b9150506040830151848203604086015262000d0b828262000be9565b9150508091505092915050565b600060408201905062000d2f600083018562000b79565b818103602083015262000d43818462000cbb565b90509392505050565b6119928062000d5c6000396000f3fe608060405234801561001057600080fd5b50600436106100625760003560e01c80632f7467b3146100675780635e91679014610097578063c250736e146100b5578063ddf5ba4e146100e7578063de29278914610103578063dfce7dc614610122575b600080fd5b610081600480360381019061007c9190610c3d565b610154565b60405161008e9190610cab565b60405180910390f35b61009f610187565b6040516100ac9190610f61565b60405180910390f35b6100cf60048036038101906100ca9190610c3d565b61038a565b6040516100de93929190610fdc565b60405180910390f35b61010160048036038101906100fc91906110dc565b6104d4565b005b61010b610a18565b6040516101199291906111d8565b60405180910390f35b61013c60048036038101906101379190610c3d565b610a49565b60405161014b93929190610fdc565b60405180910390f35b60016020528060005260406000206000915054906101000a900473ffffffffffffffffffffffffffffffffffffffff1681565b60606000805480602002602001604051908101604052809291908181526020016000905b8282101561038157838290600052602060002090600502016040518060a0016040529081600082015481526020016001820180546101e890611230565b80601f016020809104026020016040519081016040528092919081815260200182805461021490611230565b80156102615780601f1061023657610100808354040283529160200191610261565b820191906000526020600020905b81548152906001019060200180831161024457829003601f168201915b50505050508152602001600282018054806020026020016040519081016040528092919081815260200182805480156102b957602002820191906000526020600020905b8154815260200190600101908083116102a5575b505050505081526020016003820180548060200260200160405190810160405280929190818152602001828054801561031157602002820191906000526020600020905b8154815260200190600101908083116102fd575b505050505081526020016004820180548060200260200160405190810160405280929190818152602001828054801561036957602002820191906000526020600020905b815481526020019060010190808311610355575b505050505081525050815260200190600101906101ab565b50505050905090565b6004818154811061039a57600080fd5b90600052602060002090600302016000915090508060000154908060010180546103c390611230565b80601f01602080910402602001604051908101604052809291908181526020018280546103ef90611230565b801561043c5780601f106104115761010080835404028352916020019161043c565b820191906000526020600020905b81548152906001019060200180831161041f57829003601f168201915b50505050509080600201805461045190611230565b80601f016020809104026020016040519081016040528092919081815260200182805461047d90611230565b80156104ca5780601f1061049f576101008083540402835291602001916104ca565b820191906000526020600020905b8154815290600101906020018083116104ad57829003601f168201915b5050505050905083565b60008711610517576040517f08c379a000000000000000000000000000000000000000000000000000000000815260040161050e906112ad565b60405180910390fd5b600289899050101561055e576040517f08c379a00000000000000000000000000000000000000000000000000000000081526004016105559061133f565b60405180910390fd5b600086869050116105a4576040517f08c379a000000000000000000000000000000000000000000000000000000000815260040161059b906113d1565b60405180910390fd5b600084849050116105ea576040517f08c379a00000000000000000000000000000000000000000000000000000000081526004016105e190611463565b60405180910390fd5b60008282905011610630576040517f08c379a0000000000000000000000000000000000000000000000000000000008152600401610627906114f5565b60405180910390fd5b60006040518060a001604052808981526020018b8b8080601f016020809104026020016040519081016040528093929190818152602001838380828437600081840152601f19601f820116905080830192505050505050508152602001888880806020026020016040519081016040528093929190818152602001838360200280828437600081840152601f19601f820116905080830192505050505050508152602001868680806020026020016040519081016040528093929190818152602001838360200280828437600081840152601f19601f820116905080830192505050505050508152602001848480806020026020016040519081016040528093929190818152602001838360200280828437600081840152601f19601f8201169050808301925050505050505081525090806001815401808255809150506001900390600052602060002090600502016000909190919091506000820151816000015560208201518160010190816107a891906116f0565b5060408201518160020190805190602001906107c5929190610b93565b5060608201518160030190805190602001906107e2929190610b93565b5060808201518160040190805190602001906107ff929190610b93565b505050336001600089815260200190815260200160002060006101000a81548173ffffffffffffffffffffffffffffffffffffffff021916908373ffffffffffffffffffffffffffffffffffffffff160217905550600260003373ffffffffffffffffffffffffffffffffffffffff1673ffffffffffffffffffffffffffffffffffffffff16815260200190815260200160002060008154809291906108a4906117f1565b91905055507f3fe2b01362012085de0bd7be248169688dac314bf1d93d69416e32118881ccdb6040518060a001604052808981526020018b8b8080601f016020809104026020016040519081016040528093929190818152602001838380828437600081840152601f19601f820116905080830192505050505050508152602001888880806020026020016040519081016040528093929190818152602001838360200280828437600081840152601f19601f820116905080830192505050505050508152602001868680806020026020016040519081016040528093929190818152602001838360200280828437600081840152601f19601f820116905080830192505050505050508152602001848480806020026020016040519081016040528093929190818152602001838360200280828437600081840152601f19601f82011690508083019250505050505050815250604051610a0591906118c4565b60405180910390a1505050505050505050565b6000806000600190506000600290508082610a3391906118e6565b93508082610a419190611928565b925050509091565b60038181548110610a5957600080fd5b9060005260206000209060030201600091509050806000015490806001018054610a8290611230565b80601f0160208091040260200160405190810160405280929190818152602001828054610aae90611230565b8015610afb5780601f10610ad057610100808354040283529160200191610afb565b820191906000526020600020905b815481529060010190602001808311610ade57829003601f168201915b505050505090806002018054610b1090611230565b80601f0160208091040260200160405190810160405280929190818152602001828054610b3c90611230565b8015610b895780601f10610b5e57610100808354040283529160200191610b89565b820191906000526020600020905b815481529060010190602001808311610b6c57829003601f168201915b5050505050905083565b828054828255906000526020600020908101928215610bcf579160200282015b82811115610bce578251825591602001919060010190610bb3565b5b509050610bdc9190610be0565b5090565b5b80821115610bf9576000816000905550600101610be1565b5090565b600080fd5b600080fd5b6000819050919050565b610c1a81610c07565b8114610c2557600080fd5b50565b600081359050610c3781610c11565b92915050565b600060208284031215610c5357610c52610bfd565b5b6000610c6184828501610c28565b91505092915050565b600073ffffffffffffffffffffffffffffffffffffffff82169050919050565b6000610c9582610c6a565b9050919050565b610ca581610c8a565b82525050565b6000602082019050610cc06000830184610c9c565b92915050565b600081519050919050565b600082825260208201905092915050565b6000819050602082019050919050565b610cfb81610c07565b82525050565b600081519050919050565b600082825260208201905092915050565b60005b83811015610d3b578082015181840152602081019050610d20565b60008484015250505050565b6000601f19601f8301169050919050565b6000610d6382610d01565b610d6d8185610d0c565b9350610d7d818560208601610d1d565b610d8681610d47565b840191505092915050565b600081519050919050565b600082825260208201905092915050565b6000819050602082019050919050565b6000610dc98383610cf2565b60208301905092915050565b6000602082019050919050565b6000610ded82610d91565b610df78185610d9c565b9350610e0283610dad565b8060005b83811015610e33578151610e1a8882610dbd565b9750610e2583610dd5565b925050600181019050610e06565b5085935050505092915050565b600060a083016000830151610e586000860182610cf2565b5060208301518482036020860152610e708282610d58565b91505060408301518482036040860152610e8a8282610de2565b91505060608301518482036060860152610ea48282610de2565b91505060808301518482036080860152610ebe8282610de2565b9150508091505092915050565b6000610ed78383610e40565b905092915050565b6000602082019050919050565b6000610ef782610cc6565b610f018185610cd1565b935083602082028501610f1385610ce2565b8060005b85811015610f4f5784840389528151610f308582610ecb565b9450610f3b83610edf565b925060208a01995050600181019050610f17565b50829750879550505050505092915050565b60006020820190508181036000830152610f7b8184610eec565b905092915050565b610f8c81610c07565b82525050565b600082825260208201905092915050565b6000610fae82610d01565b610fb88185610f92565b9350610fc8818560208601610d1d565b610fd181610d47565b840191505092915050565b6000606082019050610ff16000830186610f83565b81810360208301526110038185610fa3565b905081810360408301526110178184610fa3565b9050949350505050565b600080fd5b600080fd5b600080fd5b60008083601f84011261104657611045611021565b5b8235905067ffffffffffffffff81111561106357611062611026565b5b60208301915083600182028301111561107f5761107e61102b565b5b9250929050565b60008083601f84011261109c5761109b611021565b5b8235905067ffffffffffffffff8111156110b9576110b8611026565b5b6020830191508360208202830111156110d5576110d461102b565b5b9250929050565b600080600080600080600080600060a08a8c0312156110fe576110fd610bfd565b5b60008a013567ffffffffffffffff81111561111c5761111b610c02565b5b6111288c828d01611030565b9950995050602061113b8c828d01610c28565b97505060408a013567ffffffffffffffff81111561115c5761115b610c02565b5b6111688c828d01611086565b965096505060608a013567ffffffffffffffff81111561118b5761118a610c02565b5b6111978c828d01611086565b945094505060808a013567ffffffffffffffff8111156111ba576111b9610c02565b5b6111c68c828d01611086565b92509250509295985092959850929598565b60006040820190506111ed6000830185610f83565b6111fa6020830184610f83565b9392505050565b7f4e487b7100000000000000000000000000000000000000000000000000000000600052602260045260246000fd5b6000600282049050600182168061124857607f821691505b60208210810361125b5761125a611201565b5b50919050565b7f4964206d7573742062652067726561746572207468616e203000000000000000600082015250565b6000611297601983610f92565b91506112a282611261565b602082019050919050565b600060208201905081810360008301526112c68161128a565b9050919050565b7f4e616d65206d757374206265206174206c65617374203220636861726163746560008201527f7273206c6f6e6700000000000000000000000000000000000000000000000000602082015250565b6000611329602783610f92565b9150611334826112cd565b604082019050919050565b600060208201905081810360008301526113588161131c565b9050919050565b7f506f6b656d6f6e206d7573742068617665206174206c65617374206f6e65207360008201527f6b696c6c00000000000000000000000000000000000000000000000000000000602082015250565b60006113bb602483610f92565b91506113c68261135f565b604082019050919050565b600060208201905081810360008301526113ea816113ae565b9050919050565b7f506f6b656d6f6e206d7573742068617665206174206c65617374206f6e65207460008201527f7970650000000000000000000000000000000000000000000000000000000000602082015250565b600061144d602383610f92565b9150611458826113f1565b604082019050919050565b6000602082019050818103600083015261147c81611440565b9050919050565b7f506f6b656d6f6e206d7573742068617665206174206c65617374206f6e65207760008201527f65616b6e65737300000000000000000000000000000000000000000000000000602082015250565b60006114df602783610f92565b91506114ea82611483565b604082019050919050565b6000602082019050818103600083015261150e816114d2565b9050919050565b7f4e487b7100000000000000000000000000000000000000000000000000000000600052604160045260246000fd5b60008190508160005260206000209050919050565b60006020601f8301049050919050565b600082821b905092915050565b6000600883026115a67fffffffffffffffffffffffffffffffffffffffffffffffffffffffffffffffff82611569565b6115b08683611569565b95508019841693508086168417925050509392505050565b6000819050919050565b60006115ed6115e86115e384610c07565b6115c8565b610c07565b9050919050565b6000819050919050565b611607836115d2565b61161b611613826115f4565b848454611576565b825550505050565b600090565b611630611623565b61163b8184846115fe565b505050565b5b8181101561165f57611654600082611628565b600181019050611641565b5050565b601f8211156116a45761167581611544565b61167e84611559565b8101602085101561168d578190505b6116a161169985611559565b830182611640565b50505b505050565b600082821c905092915050565b60006116c7600019846008026116a9565b1980831691505092915050565b60006116e083836116b6565b9150826002028217905092915050565b6116f982610d01565b67ffffffffffffffff81111561171257611711611515565b5b61171c8254611230565b611727828285611663565b600060209050601f83116001811461175a5760008415611748578287015190505b61175285826116d4565b8655506117ba565b601f19841661176886611544565b60005b828110156117905784890151825560018201915060208501945060208101905061176b565b868310156117ad57848901516117a9601f8916826116b6565b8355505b6001600288020188555050505b505050505050565b7f4e487b7100000000000000000000000000000000000000000000000000000000600052601160045260246000fd5b60006117fc82610c07565b91507fffffffffffffffffffffffffffffffffffffffffffffffffffffffffffffffff820361182e5761182d6117c2565b5b600182019050919050565b600060a0830160008301516118516000860182610cf2565b50602083015184820360208601526118698282610d58565b915050604083015184820360408601526118838282610de2565b9150506060830151848203606086015261189d8282610de2565b915050608083015184820360808601526118b78282610de2565b9150508091505092915050565b600060208201905081810360008301526118de8184611839565b905092915050565b60006118f182610c07565b91506118fc83610c07565b925082820261190a81610c07565b91508282048414831517611921576119206117c2565b5b5092915050565b600061193382610c07565b915061193e83610c07565b9250828201905080821115611956576119556117c2565b5b9291505056fea26469706673582212205b2fe22927c971f12455844b2f49a8e88abcf9e0e75d048583b80904c10946ea64736f6c634300081200334669676874696e67207479706520706f6b656d6f6e20617265207765616b20616761696e737420666c79696e6720616e642070737963686963207479706520706f6b656d6f6e5468652074617267657420697320626c61737465642077697468206120666f72636566756c2073686f74206f662077617465722e46697265207479706520706f6b656d6f6e20617265207765616b20616761696e737420776174657220616e64206772617373207479706520706f6b656d6f6e456c656374726963207479706520706f6b656d6f6e20617265207765616b20616761696e73742067726f756e64207479706520706f6b656d6f6e4772617373207479706520706f6b656d6f6e20617265207765616b20616761696e7374206669726520616e6420696365207479706520706f6b656d6f6e546865207461726765742069732073636f7263686564207769746820616e20696e74656e736520626c617374206f6620666972652e2054686973206d617920616c736f206c65617665207468652074617267657420776974682061206275726e2e546865207461726765742069732061747461636b6564207769746820736d616c6c20666c616d65732e2054686973206d617920616c736f206c65617665207468652074617267657420776974682061206275726e2e5761746572207479706520706f6b656d6f6e20617265207765616b20616761696e737420677261737320616e6420656c656374726963207479706520706f6b656d6f6e41207265636b6c6573732c2066756c6c2d626f6479206368617267652061747461636b20666f7220736c616d6d696e6720696e746f20746865207461726765742e205468697320616c736f2064616d616765732074686520757365722061206c6974746c652e546865207461726765742069732062697474656e207769746820766963696f75736c792073686172702066616e67732e2054686973206d617920616c736f206d616b65207468652074617267657420666c696e63682e546865207461726765742069732073747275636b207769746820736c656e6465722c20776869706c696b652076696e657320746f20696e666c6963742064616d6167652e496365207479706520706f6b656d6f6e20617265207765616b20616761696e7374206669726520616e64206669676874696e67207479706520706f6b656d6f6e4120706879736963616c2061747461636b20696e207768696368207468652075736572206368617267657320616e6420736c616d7320696e746f20746865207461726765742077697468206974732077686f6c6520626f64792e",
					"opcodes": "PUSH1 0x80 PUSH1 0x40 MSTORE CALLVALUE DUP1 ISZERO PUSH3 0x11 JUMPI PUSH1 0x0 DUP1 REVERT JUMPDEST POP PUSH3 0x72 PUSH1 0x40 MLOAD DUP1 PUSH1 0x40 ADD PUSH1 0x40 MSTORE DUP1 PUSH1 0x4 DUP2 MSTORE PUSH1 0x20 ADD PUSH32 0x4669726500000000000000000000000000000000000000000000000000000000 DUP2 MSTORE POP PUSH1 0x40 MLOAD DUP1 PUSH1 0x60 ADD PUSH1 0x40 MSTORE DUP1 PUSH1 0x3F DUP2 MSTORE PUSH1 0x20 ADD PUSH3 0x2768 PUSH1 0x3F SWAP2 CODECOPY PUSH3 0x505 PUSH1 0x20 SHL PUSH1 0x20 SHR JUMP JUMPDEST POP PUSH3 0xD3 PUSH1 0x40 MLOAD DUP1 PUSH1 0x40 ADD PUSH1 0x40 MSTORE DUP1 PUSH1 0x5 DUP2 MSTORE PUSH1 0x20 ADD PUSH32 0x5761746572000000000000000000000000000000000000000000000000000000 DUP2 MSTORE POP PUSH1 0x40 MLOAD DUP1 PUSH1 0x80 ADD PUSH1 0x40 MSTORE DUP1 PUSH1 0x43 DUP2 MSTORE PUSH1 0x20 ADD PUSH3 0x28D4 PUSH1 0x43 SWAP2 CODECOPY PUSH3 0x505 PUSH1 0x20 SHL PUSH1 0x20 SHR JUMP JUMPDEST POP PUSH3 0x134 PUSH1 0x40 MLOAD DUP1 PUSH1 0x40 ADD PUSH1 0x40 MSTORE DUP1 PUSH1 0x5 DUP2 MSTORE PUSH1 0x20 ADD PUSH32 0x4772617373000000000000000000000000000000000000000000000000000000 DUP2 MSTORE POP PUSH1 0x40 MLOAD DUP1 PUSH1 0x60 ADD PUSH1 0x40 MSTORE DUP1 PUSH1 0x3D DUP2 MSTORE PUSH1 0x20 ADD PUSH3 0x27E1 PUSH1 0x3D SWAP2 CODECOPY PUSH3 0x505 PUSH1 0x20 SHL PUSH1 0x20 SHR JUMP JUMPDEST POP PUSH3 0x195 PUSH1 0x40 MLOAD DUP1 PUSH1 0x40 ADD PUSH1 0x40 MSTORE DUP1 PUSH1 0x8 DUP2 MSTORE PUSH1 0x20 ADD PUSH32 0x456C656374726963000000000000000000000000000000000000000000000000 DUP2 MSTORE POP PUSH1 0x40 MLOAD DUP1 PUSH1 0x60 ADD PUSH1 0x40 MSTORE DUP1 PUSH1 0x3A DUP2 MSTORE PUSH1 0x20 ADD PUSH3 0x27A7 PUSH1 0x3A SWAP2 CODECOPY PUSH3 0x505 PUSH1 0x20 SHL PUSH1 0x20 SHR JUMP JUMPDEST POP PUSH3 0x1F6 PUSH1 0x40 MLOAD DUP1 PUSH1 0x40 ADD PUSH1 0x40 MSTORE DUP1 PUSH1 0x3 DUP2 MSTORE PUSH1 0x20 ADD PUSH32 0x4963650000000000000000000000000000000000000000000000000000000000 DUP2 MSTORE POP PUSH1 0x40 MLOAD DUP1 PUSH1 0x60 ADD PUSH1 0x40 MSTORE DUP1 PUSH1 0x40 DUP2 MSTORE PUSH1 0x20 ADD PUSH3 0x2A17 PUSH1 0x40 SWAP2 CODECOPY PUSH3 0x505 PUSH1 0x20 SHL PUSH1 0x20 SHR JUMP JUMPDEST POP PUSH3 0x257 PUSH1 0x40 MLOAD DUP1 PUSH1 0x40 ADD PUSH1 0x40 MSTORE DUP1 PUSH1 0x8 DUP2 MSTORE PUSH1 0x20 ADD PUSH32 0x4669676874696E67000000000000000000000000000000000000000000000000 DUP2 MSTORE POP PUSH1 0x40 MLOAD DUP1 PUSH1 0x80 ADD PUSH1 0x40 MSTORE DUP1 PUSH1 0x46 DUP2 MSTORE PUSH1 0x20 ADD PUSH3 0x26EE PUSH1 0x46 SWAP2 CODECOPY PUSH3 0x505 PUSH1 0x20 SHL PUSH1 0x20 SHR JUMP JUMPDEST POP PUSH3 0x2B8 PUSH1 0x40 MLOAD DUP1 PUSH1 0x40 ADD PUSH1 0x40 MSTORE DUP1 PUSH1 0x6 DUP2 MSTORE PUSH1 0x20 ADD PUSH32 0x5461636B6C650000000000000000000000000000000000000000000000000000 DUP2 MSTORE POP PUSH1 0x40 MLOAD DUP1 PUSH1 0x80 ADD PUSH1 0x40 MSTORE DUP1 PUSH1 0x5A DUP2 MSTORE PUSH1 0x20 ADD PUSH3 0x2A57 PUSH1 0x5A SWAP2 CODECOPY PUSH3 0x63A PUSH1 0x20 SHL PUSH1 0x20 SHR JUMP JUMPDEST POP PUSH3 0x319 PUSH1 0x40 MLOAD DUP1 PUSH1 0x40 ADD PUSH1 0x40 MSTORE DUP1 PUSH1 0x5 DUP2 MSTORE PUSH1 0x20 ADD PUSH32 0x456D626572000000000000000000000000000000000000000000000000000000 DUP2 MSTORE POP PUSH1 0x40 MLOAD DUP1 PUSH1 0x80 ADD PUSH1 0x40 MSTORE DUP1 PUSH1 0x55 DUP2 MSTORE PUSH1 0x20 ADD PUSH3 0x287F PUSH1 0x55 SWAP2 CODECOPY PUSH3 0x63A PUSH1 0x20 SHL PUSH1 0x20 SHR JUMP JUMPDEST POP PUSH3 0x37A PUSH1 0x40 MLOAD DUP1 PUSH1 0x40 ADD PUSH1 0x40 MSTORE DUP1 PUSH1 0x9 DUP2 MSTORE PUSH1 0x20 ADD PUSH32 0x56696E6520576869700000000000000000000000000000000000000000000000 DUP2 MSTORE POP PUSH1 0x40 MLOAD DUP1 PUSH1 0x80 ADD PUSH1 0x40 MSTORE DUP1 PUSH1 0x44 DUP2 MSTORE PUSH1 0x20 ADD PUSH3 0x29D3 PUSH1 0x44 SWAP2 CODECOPY PUSH3 0x63A PUSH1 0x20 SHL PUSH1 0x20 SHR JUMP JUMPDEST POP PUSH3 0x3DB PUSH1 0x40 MLOAD DUP1 PUSH1 0x40 ADD PUSH1 0x40 MSTORE DUP1 PUSH1 0x9 DUP2 MSTORE PUSH1 0x20 ADD PUSH32 0x57617465722047756E0000000000000000000000000000000000000000000000 DUP2 MSTORE POP PUSH1 0x40 MLOAD DUP1 PUSH1 0x60 ADD PUSH1 0x40 MSTORE DUP1 PUSH1 0x34 DUP2 MSTORE PUSH1 0x20 ADD PUSH3 0x2734 PUSH1 0x34 SWAP2 CODECOPY PUSH3 0x63A PUSH1 0x20 SHL PUSH1 0x20 SHR JUMP JUMPDEST POP PUSH3 0x43C PUSH1 0x40 MLOAD DUP1 PUSH1 0x40 ADD PUSH1 0x40 MSTORE DUP1 PUSH1 0x9 DUP2 MSTORE PUSH1 0x20 ADD PUSH32 0x54616B6520446F776E0000000000000000000000000000000000000000000000 DUP2 MSTORE POP PUSH1 0x40 MLOAD DUP1 PUSH1 0xA0 ADD PUSH1 0x40 MSTORE DUP1 PUSH1 0x66 DUP2 MSTORE PUSH1 0x20 ADD PUSH3 0x2917 PUSH1 0x66 SWAP2 CODECOPY PUSH3 0x63A PUSH1 0x20 SHL PUSH1 0x20 SHR JUMP JUMPDEST POP PUSH3 0x49D PUSH1 0x40 MLOAD DUP1 PUSH1 0x40 ADD PUSH1 0x40 MSTORE DUP1 PUSH1 0x4 DUP2 MSTORE PUSH1 0x20 ADD PUSH32 0x4269746500000000000000000000000000000000000000000000000000000000 DUP2 MSTORE POP PUSH1 0x40 MLOAD DUP1 PUSH1 0x80 ADD PUSH1 0x40 MSTORE DUP1 PUSH1 0x56 DUP2 MSTORE PUSH1 0x20 ADD PUSH3 0x297D PUSH1 0x56 SWAP2 CODECOPY PUSH3 0x63A PUSH1 0x20 SHL PUSH1 0x20 SHR JUMP JUMPDEST POP PUSH3 0x4FE PUSH1 0x40 MLOAD DUP1 PUSH1 0x40 ADD PUSH1 0x40 MSTORE DUP1 PUSH1 0xC DUP2 MSTORE PUSH1 0x20 ADD PUSH32 0x466C616D657468726F7765720000000000000000000000000000000000000000 DUP2 MSTORE POP PUSH1 0x40 MLOAD DUP1 PUSH1 0xA0 ADD PUSH1 0x40 MSTORE DUP1 PUSH1 0x61 DUP2 MSTORE PUSH1 0x20 ADD PUSH3 0x281E PUSH1 0x61 SWAP2 CODECOPY PUSH3 0x63A PUSH1 0x20 SHL PUSH1 0x20 SHR JUMP JUMPDEST POP PUSH3 0xD4C JUMP JUMPDEST PUSH1 0x0 PUSH1 0x2 DUP4 MLOAD LT ISZERO PUSH3 0x54F JUMPI PUSH1 0x40 MLOAD PUSH32 0x8C379A000000000000000000000000000000000000000000000000000000000 DUP2 MSTORE PUSH1 0x4 ADD PUSH3 0x546 SWAP1 PUSH3 0x7F6 JUMP JUMPDEST PUSH1 0x40 MLOAD DUP1 SWAP2 SUB SWAP1 REVERT JUMPDEST PUSH1 0x0 PUSH1 0x4 DUP1 SLOAD SWAP1 POP SWAP1 POP PUSH1 0x4 PUSH1 0x40 MLOAD DUP1 PUSH1 0x60 ADD PUSH1 0x40 MSTORE DUP1 DUP4 DUP2 MSTORE PUSH1 0x20 ADD DUP7 DUP2 MSTORE PUSH1 0x20 ADD DUP6 DUP2 MSTORE POP SWAP1 DUP1 PUSH1 0x1 DUP2 SLOAD ADD DUP1 DUP3 SSTORE DUP1 SWAP2 POP POP PUSH1 0x1 SWAP1 SUB SWAP1 PUSH1 0x0 MSTORE PUSH1 0x20 PUSH1 0x0 KECCAK256 SWAP1 PUSH1 0x3 MUL ADD PUSH1 0x0 SWAP1 SWAP2 SWAP1 SWAP2 SWAP1 SWAP2 POP PUSH1 0x0 DUP3 ADD MLOAD DUP2 PUSH1 0x0 ADD SSTORE PUSH1 0x20 DUP3 ADD MLOAD DUP2 PUSH1 0x1 ADD SWAP1 DUP2 PUSH3 0x5C0 SWAP2 SWAP1 PUSH3 0xA92 JUMP JUMPDEST POP PUSH1 0x40 DUP3 ADD MLOAD DUP2 PUSH1 0x2 ADD SWAP1 DUP2 PUSH3 0x5D8 SWAP2 SWAP1 PUSH3 0xA92 JUMP JUMPDEST POP POP POP PUSH32 0x6B54179A51D98751B56E9854F101A8BC66580317818848FFE11418B2A070DF56 DUP2 PUSH1 0x40 MLOAD DUP1 PUSH1 0x60 ADD PUSH1 0x40 MSTORE DUP1 DUP5 DUP2 MSTORE PUSH1 0x20 ADD DUP8 DUP2 MSTORE PUSH1 0x20 ADD DUP7 DUP2 MSTORE POP PUSH1 0x40 MLOAD PUSH3 0x628 SWAP3 SWAP2 SWAP1 PUSH3 0xC87 JUMP JUMPDEST PUSH1 0x40 MLOAD DUP1 SWAP2 SUB SWAP1 LOG1 DUP1 SWAP2 POP POP SWAP3 SWAP2 POP POP JUMP JUMPDEST PUSH1 0x0 PUSH1 0x2 DUP4 MLOAD LT ISZERO PUSH3 0x684 JUMPI PUSH1 0x40 MLOAD PUSH32 0x8C379A000000000000000000000000000000000000000000000000000000000 DUP2 MSTORE PUSH1 0x4 ADD PUSH3 0x67B SWAP1 PUSH3 0x7F6 JUMP JUMPDEST PUSH1 0x40 MLOAD DUP1 SWAP2 SUB SWAP1 REVERT JUMPDEST PUSH1 0x0 PUSH1 0x3 DUP1 SLOAD SWAP1 POP SWAP1 POP PUSH1 0x3 PUSH1 0x40 MLOAD DUP1 PUSH1 0x60 ADD PUSH1 0x40 MSTORE DUP1 DUP4 DUP2 MSTORE PUSH1 0x20 ADD DUP7 DUP2 MSTORE PUSH1 0x20 ADD DUP6 DUP2 MSTORE POP SWAP1 DUP1 PUSH1 0x1 DUP2 SLOAD ADD DUP1 DUP3 SSTORE DUP1 SWAP2 POP POP PUSH1 0x1 SWAP1 SUB SWAP1 PUSH1 0x0 MSTORE PUSH1 0x20 PUSH1 0x0 KECCAK256 SWAP1 PUSH1 0x3 MUL ADD PUSH1 0x0 SWAP1 SWAP2 SWAP1 SWAP2 SWAP1 SWAP2 POP PUSH1 0x0 DUP3 ADD MLOAD DUP2 PUSH1 0x0 ADD SSTORE PUSH1 0x20 DUP3 ADD MLOAD DUP2 PUSH1 0x1 ADD SWAP1 DUP2 PUSH3 0x6F5 SWAP2 SWAP1 PUSH3 0xA92 JUMP JUMPDEST POP PUSH1 0x40 DUP3 ADD MLOAD DUP2 PUSH1 0x2 ADD SWAP1 DUP2 PUSH3 0x70D SWAP2 SWAP1 PUSH3 0xA92 JUMP JUMPDEST POP POP POP PUSH32 0x80E541F486172623665F7D923CF03B7164D42F9823D756F08C19790192BE7E13 DUP2 PUSH1 0x40 MLOAD DUP1 PUSH1 0x60 ADD PUSH1 0x40 MSTORE DUP1 DUP5 DUP2 MSTORE PUSH1 0x20 ADD DUP8 DUP2 MSTORE PUSH1 0x20 ADD DUP7 DUP2 MSTORE POP PUSH1 0x40 MLOAD PUSH3 0x75D SWAP3 SWAP2 SWAP1 PUSH3 0xD18 JUMP JUMPDEST PUSH1 0x40 MLOAD DUP1 SWAP2 SUB SWAP1 LOG1 DUP1 SWAP2 POP POP SWAP3 SWAP2 POP POP JUMP JUMPDEST PUSH1 0x0 DUP3 DUP3 MSTORE PUSH1 0x20 DUP3 ADD SWAP1 POP SWAP3 SWAP2 POP POP JUMP JUMPDEST PUSH32 0x4E616D65206D757374206265206174206C656173742032206368617261637465 PUSH1 0x0 DUP3 ADD MSTORE PUSH32 0x7273206C6F6E6700000000000000000000000000000000000000000000000000 PUSH1 0x20 DUP3 ADD MSTORE POP JUMP JUMPDEST PUSH1 0x0 PUSH3 0x7DE PUSH1 0x27 DUP4 PUSH3 0x76F JUMP JUMPDEST SWAP2 POP PUSH3 0x7EB DUP3 PUSH3 0x780 JUMP JUMPDEST PUSH1 0x40 DUP3 ADD SWAP1 POP SWAP2 SWAP1 POP JUMP JUMPDEST PUSH1 0x0 PUSH1 0x20 DUP3 ADD SWAP1 POP DUP2 DUP2 SUB PUSH1 0x0 DUP4 ADD MSTORE PUSH3 0x811 DUP2 PUSH3 0x7CF JUMP JUMPDEST SWAP1 POP SWAP2 SWAP1 POP JUMP JUMPDEST PUSH1 0x0 DUP2 MLOAD SWAP1 POP SWAP2 SWAP1 POP JUMP JUMPDEST PUSH32 0x4E487B7100000000000000000000000000000000000000000000000000000000 PUSH1 0x0 MSTORE PUSH1 0x41 PUSH1 0x4 MSTORE PUSH1 0x24 PUSH1 0x0 REVERT JUMPDEST PUSH32 0x4E487B7100000000000000000000000000000000000000000000000000000000 PUSH1 0x0 MSTORE PUSH1 0x22 PUSH1 0x4 MSTORE PUSH1 0x24 PUSH1 0x0 REVERT JUMPDEST PUSH1 0x0 PUSH1 0x2 DUP3 DIV SWAP1 POP PUSH1 0x1 DUP3 AND DUP1 PUSH3 0x89A JUMPI PUSH1 0x7F DUP3 AND SWAP2 POP JUMPDEST PUSH1 0x20 DUP3 LT DUP2 SUB PUSH3 0x8B0 JUMPI PUSH3 0x8AF PUSH3 0x852 JUMP JUMPDEST JUMPDEST POP SWAP2 SWAP1 POP JUMP JUMPDEST PUSH1 0x0 DUP2 SWAP1 POP DUP2 PUSH1 0x0 MSTORE PUSH1 0x20 PUSH1 0x0 KECCAK256 SWAP1 POP SWAP2 SWAP1 POP JUMP JUMPDEST PUSH1 0x0 PUSH1 0x20 PUSH1 0x1F DUP4 ADD DIV SWAP1 POP SWAP2 SWAP1 POP JUMP JUMPDEST PUSH1 0x0 DUP3 DUP3 SHL SWAP1 POP SWAP3 SWAP2 POP POP JUMP JUMPDEST PUSH1 0x0 PUSH1 0x8 DUP4 MUL PUSH3 0x91A PUSH32 0xFFFFFFFFFFFFFFFFFFFFFFFFFFFFFFFFFFFFFFFFFFFFFFFFFFFFFFFFFFFFFFFF DUP3 PUSH3 0x8DB JUMP JUMPDEST PUSH3 0x926 DUP7 DUP4 PUSH3 0x8DB JUMP JUMPDEST SWAP6 POP DUP1 NOT DUP5 AND SWAP4 POP DUP1 DUP7 AND DUP5 OR SWAP3 POP POP POP SWAP4 SWAP3 POP POP POP JUMP JUMPDEST PUSH1 0x0 DUP2 SWAP1 POP SWAP2 SWAP1 POP JUMP JUMPDEST PUSH1 0x0 DUP2 SWAP1 POP SWAP2 SWAP1 POP JUMP JUMPDEST PUSH1 0x0 PUSH3 0x973 PUSH3 0x96D PUSH3 0x967 DUP5 PUSH3 0x93E JUMP JUMPDEST PUSH3 0x948 JUMP JUMPDEST PUSH3 0x93E JUMP JUMPDEST SWAP1 POP SWAP2 SWAP1 POP JUMP JUMPDEST PUSH1 0x0 DUP2 SWAP1 POP SWAP2 SWAP1 POP JUMP JUMPDEST PUSH3 0x98F DUP4 PUSH3 0x952 JUMP JUMPDEST PUSH3 0x9A7 PUSH3 0x99E DUP3 PUSH3 0x97A JUMP JUMPDEST DUP5 DUP5 SLOAD PUSH3 0x8E8 JUMP JUMPDEST DUP3 SSTORE POP POP POP POP JUMP JUMPDEST PUSH1 0x0 SWAP1 JUMP JUMPDEST PUSH3 0x9BE PUSH3 0x9AF JUMP JUMPDEST PUSH3 0x9CB DUP2 DUP5 DUP5 PUSH3 0x984 JUMP JUMPDEST POP POP POP JUMP JUMPDEST JUMPDEST DUP2 DUP2 LT ISZERO PUSH3 0x9F3 JUMPI PUSH3 0x9E7 PUSH1 0x0 DUP3 PUSH3 0x9B4 JUMP JUMPDEST PUSH1 0x1 DUP2 ADD SWAP1 POP PUSH3 0x9D1 JUMP JUMPDEST POP POP JUMP JUMPDEST PUSH1 0x1F DUP3 GT ISZERO PUSH3 0xA42 JUMPI PUSH3 0xA0C DUP2 PUSH3 0x8B6 JUMP JUMPDEST PUSH3 0xA17 DUP5 PUSH3 0x8CB JUMP JUMPDEST DUP2 ADD PUSH1 0x20 DUP6 LT ISZERO PUSH3 0xA27 JUMPI DUP2 SWAP1 POP JUMPDEST PUSH3 0xA3F PUSH3 0xA36 DUP6 PUSH3 0x8CB JUMP JUMPDEST DUP4 ADD DUP3 PUSH3 0x9D0 JUMP JUMPDEST POP POP JUMPDEST POP POP POP JUMP JUMPDEST PUSH1 0x0 DUP3 DUP3 SHR SWAP1 POP SWAP3 SWAP2 POP POP JUMP JUMPDEST PUSH1 0x0 PUSH3 0xA67 PUSH1 0x0 NOT DUP5 PUSH1 0x8 MUL PUSH3 0xA47 JUMP JUMPDEST NOT DUP1 DUP4 AND SWAP2 POP POP SWAP3 SWAP2 POP POP JUMP JUMPDEST PUSH1 0x0 PUSH3 0xA82 DUP4 DUP4 PUSH3 0xA54 JUMP JUMPDEST SWAP2 POP DUP3 PUSH1 0x2 MUL DUP3 OR SWAP1 POP SWAP3 SWAP2 POP POP JUMP JUMPDEST PUSH3 0xA9D DUP3 PUSH3 0x818 JUMP JUMPDEST PUSH8 0xFFFFFFFFFFFFFFFF DUP2 GT ISZERO PUSH3 0xAB9 JUMPI PUSH3 0xAB8 PUSH3 0x823 JUMP JUMPDEST JUMPDEST PUSH3 0xAC5 DUP3 SLOAD PUSH3 0x881 JUMP JUMPDEST PUSH3 0xAD2 DUP3 DUP3 DUP6 PUSH3 0x9F7 JUMP JUMPDEST PUSH1 0x0 PUSH1 0x20 SWAP1 POP PUSH1 0x1F DUP4 GT PUSH1 0x1 DUP2 EQ PUSH3 0xB0A JUMPI PUSH1 0x0 DUP5 ISZERO PUSH3 0xAF5 JUMPI DUP3 DUP8 ADD MLOAD SWAP1 POP JUMPDEST PUSH3 0xB01 DUP6 DUP3 PUSH3 0xA74 JUMP JUMPDEST DUP7 SSTORE POP PUSH3 0xB71 JUMP JUMPDEST PUSH1 0x1F NOT DUP5 AND PUSH3 0xB1A DUP7 PUSH3 0x8B6 JUMP JUMPDEST PUSH1 0x0 JUMPDEST DUP3 DUP2 LT ISZERO PUSH3 0xB44 JUMPI DUP5 DUP10 ADD MLOAD DUP3 SSTORE PUSH1 0x1 DUP3 ADD SWAP2 POP PUSH1 0x20 DUP6 ADD SWAP5 POP PUSH1 0x20 DUP2 ADD SWAP1 POP PUSH3 0xB1D JUMP JUMPDEST DUP7 DUP4 LT ISZERO PUSH3 0xB64 JUMPI DUP5 DUP10 ADD MLOAD PUSH3 0xB60 PUSH1 0x1F DUP10 AND DUP3 PUSH3 0xA54 JUMP JUMPDEST DUP4 SSTORE POP JUMPDEST PUSH1 0x1 PUSH1 0x2 DUP9 MUL ADD DUP9 SSTORE POP POP POP JUMPDEST POP POP POP POP POP POP JUMP JUMPDEST PUSH3 0xB84 DUP2 PUSH3 0x93E JUMP JUMPDEST DUP3 MSTORE POP POP JUMP JUMPDEST PUSH3 0xB95 DUP2 PUSH3 0x93E JUMP JUMPDEST DUP3 MSTORE POP POP JUMP JUMPDEST PUSH1 0x0 DUP3 DUP3 MSTORE PUSH1 0x20 DUP3 ADD SWAP1 POP SWAP3 SWAP2 POP POP JUMP JUMPDEST PUSH1 0x0 JUMPDEST DUP4 DUP2 LT ISZERO PUSH3 0xBCC JUMPI DUP1 DUP3 ADD MLOAD DUP2 DUP5 ADD MSTORE PUSH1 0x20 DUP2 ADD SWAP1 POP PUSH3 0xBAF JUMP JUMPDEST PUSH1 0x0 DUP5 DUP5 ADD MSTORE POP POP POP POP JUMP JUMPDEST PUSH1 0x0 PUSH1 0x1F NOT PUSH1 0x1F DUP4 ADD AND SWAP1 POP SWAP2 SWAP1 POP JUMP JUMPDEST PUSH1 0x0 PUSH3 0xBF6 DUP3 PUSH3 0x818 JUMP JUMPDEST PUSH3 0xC02 DUP2 DUP6 PUSH3 0xB9B JUMP JUMPDEST SWAP4 POP PUSH3 0xC14 DUP2 DUP6 PUSH1 0x20 DUP7 ADD PUSH3 0xBAC JUMP JUMPDEST PUSH3 0xC1F DUP2 PUSH3 0xBD8 JUMP JUMPDEST DUP5 ADD SWAP2 POP POP SWAP3 SWAP2 POP POP JUMP JUMPDEST PUSH1 0x0 PUSH1 0x60 DUP4 ADD PUSH1 0x0 DUP4 ADD MLOAD PUSH3 0xC44 PUSH1 0x0 DUP7 ADD DUP3 PUSH3 0xB8A JUMP JUMPDEST POP PUSH1 0x20 DUP4 ADD MLOAD DUP5 DUP3 SUB PUSH1 0x20 DUP7 ADD MSTORE PUSH3 0xC5E DUP3 DUP3 PUSH3 0xBE9 JUMP JUMPDEST SWAP2 POP POP PUSH1 0x40 DUP4 ADD MLOAD DUP5 DUP3 SUB PUSH1 0x40 DUP7 ADD MSTORE PUSH3 0xC7A DUP3 DUP3 PUSH3 0xBE9 JUMP JUMPDEST SWAP2 POP POP DUP1 SWAP2 POP POP SWAP3 SWAP2 POP POP JUMP JUMPDEST PUSH1 0x0 PUSH1 0x40 DUP3 ADD SWAP1 POP PUSH3 0xC9E PUSH1 0x0 DUP4 ADD DUP6 PUSH3 0xB79 JUMP JUMPDEST DUP2 DUP2 SUB PUSH1 0x20 DUP4 ADD MSTORE PUSH3 0xCB2 DUP2 DUP5 PUSH3 0xC2A JUMP JUMPDEST SWAP1 POP SWAP4 SWAP3 POP POP POP JUMP JUMPDEST PUSH1 0x0 PUSH1 0x60 DUP4 ADD PUSH1 0x0 DUP4 ADD MLOAD PUSH3 0xCD5 PUSH1 0x0 DUP7 ADD DUP3 PUSH3 0xB8A JUMP JUMPDEST POP PUSH1 0x20 DUP4 ADD MLOAD DUP5 DUP3 SUB PUSH1 0x20 DUP7 ADD MSTORE PUSH3 0xCEF DUP3 DUP3 PUSH3 0xBE9 JUMP JUMPDEST SWAP2 POP POP PUSH1 0x40 DUP4 ADD MLOAD DUP5 DUP3 SUB PUSH1 0x40 DUP7 ADD MSTORE PUSH3 0xD0B DUP3 DUP3 PUSH3 0xBE9 JUMP JUMPDEST SWAP2 POP POP DUP1 SWAP2 POP POP SWAP3 SWAP2 POP POP JUMP JUMPDEST PUSH1 0x0 PUSH1 0x40 DUP3 ADD SWAP1 POP PUSH3 0xD2F PUSH1 0x0 DUP4 ADD DUP6 PUSH3 0xB79 JUMP JUMPDEST DUP2 DUP2 SUB PUSH1 0x20 DUP4 ADD MSTORE PUSH3 0xD43 DUP2 DUP5 PUSH3 0xCBB JUMP JUMPDEST SWAP1 POP SWAP4 SWAP3 POP POP POP JUMP JUMPDEST PUSH2 0x1992 DUP1 PUSH3 0xD5C PUSH1 0x0 CODECOPY PUSH1 0x0 RETURN INVALID PUSH1 0x80 PUSH1 0x40 MSTORE CALLVALUE DUP1 ISZERO PUSH2 0x10 JUMPI PUSH1 0x0 DUP1 REVERT JUMPDEST POP PUSH1 0x4 CALLDATASIZE LT PUSH2 0x62 JUMPI PUSH1 0x0 CALLDATALOAD PUSH1 0xE0 SHR DUP1 PUSH4 0x2F7467B3 EQ PUSH2 0x67 JUMPI DUP1 PUSH4 0x5E916790 EQ PUSH2 0x97 JUMPI DUP1 PUSH4 0xC250736E EQ PUSH2 0xB5 JUMPI DUP1 PUSH4 0xDDF5BA4E EQ PUSH2 0xE7 JUMPI DUP1 PUSH4 0xDE292789 EQ PUSH2 0x103 JUMPI DUP1 PUSH4 0xDFCE7DC6 EQ PUSH2 0x122 JUMPI JUMPDEST PUSH1 0x0 DUP1 REVERT JUMPDEST PUSH2 0x81 PUSH1 0x4 DUP1 CALLDATASIZE SUB DUP2 ADD SWAP1 PUSH2 0x7C SWAP2 SWAP1 PUSH2 0xC3D JUMP JUMPDEST PUSH2 0x154 JUMP JUMPDEST PUSH1 0x40 MLOAD PUSH2 0x8E SWAP2 SWAP1 PUSH2 0xCAB JUMP JUMPDEST PUSH1 0x40 MLOAD DUP1 SWAP2 SUB SWAP1 RETURN JUMPDEST PUSH2 0x9F PUSH2 0x187 JUMP JUMPDEST PUSH1 0x40 MLOAD PUSH2 0xAC SWAP2 SWAP1 PUSH2 0xF61 JUMP JUMPDEST PUSH1 0x40 MLOAD DUP1 SWAP2 SUB SWAP1 RETURN JUMPDEST PUSH2 0xCF PUSH1 0x4 DUP1 CALLDATASIZE SUB DUP2 ADD SWAP1 PUSH2 0xCA SWAP2 SWAP1 PUSH2 0xC3D JUMP JUMPDEST PUSH2 0x38A JUMP JUMPDEST PUSH1 0x40 MLOAD PUSH2 0xDE SWAP4 SWAP3 SWAP2 SWAP1 PUSH2 0xFDC JUMP JUMPDEST PUSH1 0x40 MLOAD DUP1 SWAP2 SUB SWAP1 RETURN JUMPDEST PUSH2 0x101 PUSH1 0x4 DUP1 CALLDATASIZE SUB DUP2 ADD SWAP1 PUSH2 0xFC SWAP2 SWAP1 PUSH2 0x10DC JUMP JUMPDEST PUSH2 0x4D4 JUMP JUMPDEST STOP JUMPDEST PUSH2 0x10B PUSH2 0xA18 JUMP JUMPDEST PUSH1 0x40 MLOAD PUSH2 0x119 SWAP3 SWAP2 SWAP1 PUSH2 0x11D8 JUMP JUMPDEST PUSH1 0x40 MLOAD DUP1 SWAP2 SUB SWAP1 RETURN JUMPDEST PUSH2 0x13C PUSH1 0x4 DUP1 CALLDATASIZE SUB DUP2 ADD SWAP1 PUSH2 0x137 SWAP2 SWAP1 PUSH2 0xC3D JUMP JUMPDEST PUSH2 0xA49 JUMP JUMPDEST PUSH1 0x40 MLOAD PUSH2 0x14B SWAP4 SWAP3 SWAP2 SWAP1 PUSH2 0xFDC JUMP JUMPDEST PUSH1 0x40 MLOAD DUP1 SWAP2 SUB SWAP1 RETURN JUMPDEST PUSH1 0x1 PUSH1 0x20 MSTORE DUP1 PUSH1 0x0 MSTORE PUSH1 0x40 PUSH1 0x0 KECCAK256 PUSH1 0x0 SWAP2 POP SLOAD SWAP1 PUSH2 0x100 EXP SWAP1 DIV PUSH20 0xFFFFFFFFFFFFFFFFFFFFFFFFFFFFFFFFFFFFFFFF AND DUP2 JUMP JUMPDEST PUSH1 0x60 PUSH1 0x0 DUP1 SLOAD DUP1 PUSH1 0x20 MUL PUSH1 0x20 ADD PUSH1 0x40 MLOAD SWAP1 DUP2 ADD PUSH1 0x40 MSTORE DUP1 SWAP3 SWAP2 SWAP1 DUP2 DUP2 MSTORE PUSH1 0x20 ADD PUSH1 0x0 SWAP1 JUMPDEST DUP3 DUP3 LT ISZERO PUSH2 0x381 JUMPI DUP4 DUP3 SWAP1 PUSH1 0x0 MSTORE PUSH1 0x20 PUSH1 0x0 KECCAK256 SWAP1 PUSH1 0x5 MUL ADD PUSH1 0x40 MLOAD DUP1 PUSH1 0xA0 ADD PUSH1 0x40 MSTORE SWAP1 DUP2 PUSH1 0x0 DUP3 ADD SLOAD DUP2 MSTORE PUSH1 0x20 ADD PUSH1 0x1 DUP3 ADD DUP1 SLOAD PUSH2 0x1E8 SWAP1 PUSH2 0x1230 JUMP JUMPDEST DUP1 PUSH1 0x1F ADD PUSH1 0x20 DUP1 SWAP2 DIV MUL PUSH1 0x20 ADD PUSH1 0x40 MLOAD SWAP1 DUP2 ADD PUSH1 0x40 MSTORE DUP1 SWAP3 SWAP2 SWAP1 DUP2 DUP2 MSTORE PUSH1 0x20 ADD DUP3 DUP1 SLOAD PUSH2 0x214 SWAP1 PUSH2 0x1230 JUMP JUMPDEST DUP1 ISZERO PUSH2 0x261 JUMPI DUP1 PUSH1 0x1F LT PUSH2 0x236 JUMPI PUSH2 0x100 DUP1 DUP4 SLOAD DIV MUL DUP4 MSTORE SWAP2 PUSH1 0x20 ADD SWAP2 PUSH2 0x261 JUMP JUMPDEST DUP3 ADD SWAP2 SWAP1 PUSH1 0x0 MSTORE PUSH1 0x20 PUSH1 0x0 KECCAK256 SWAP1 JUMPDEST DUP2 SLOAD DUP2 MSTORE SWAP1 PUSH1 0x1 ADD SWAP1 PUSH1 0x20 ADD DUP1 DUP4 GT PUSH2 0x244 JUMPI DUP3 SWAP1 SUB PUSH1 0x1F AND DUP3 ADD SWAP2 JUMPDEST POP POP POP POP POP DUP2 MSTORE PUSH1 0x20 ADD PUSH1 0x2 DUP3 ADD DUP1 SLOAD DUP1 PUSH1 0x20 MUL PUSH1 0x20 ADD PUSH1 0x40 MLOAD SWAP1 DUP2 ADD PUSH1 0x40 MSTORE DUP1 SWAP3 SWAP2 SWAP1 DUP2 DUP2 MSTORE PUSH1 0x20 ADD DUP3 DUP1 SLOAD DUP1 ISZERO PUSH2 0x2B9 JUMPI PUSH1 0x20 MUL DUP3 ADD SWAP2 SWAP1 PUSH1 0x0 MSTORE PUSH1 0x20 PUSH1 0x0 KECCAK256 SWAP1 JUMPDEST DUP2 SLOAD DUP2 MSTORE PUSH1 0x20 ADD SWAP1 PUSH1 0x1 ADD SWAP1 DUP1 DUP4 GT PUSH2 0x2A5 JUMPI JUMPDEST POP POP POP POP POP DUP2 MSTORE PUSH1 0x20 ADD PUSH1 0x3 DUP3 ADD DUP1 SLOAD DUP1 PUSH1 0x20 MUL PUSH1 0x20 ADD PUSH1 0x40 MLOAD SWAP1 DUP2 ADD PUSH1 0x40 MSTORE DUP1 SWAP3 SWAP2 SWAP1 DUP2 DUP2 MSTORE PUSH1 0x20 ADD DUP3 DUP1 SLOAD DUP1 ISZERO PUSH2 0x311 JUMPI PUSH1 0x20 MUL DUP3 ADD SWAP2 SWAP1 PUSH1 0x0 MSTORE PUSH1 0x20 PUSH1 0x0 KECCAK256 SWAP1 JUMPDEST DUP2 SLOAD DUP2 MSTORE PUSH1 0x20 ADD SWAP1 PUSH1 0x1 ADD SWAP1 DUP1 DUP4 GT PUSH2 0x2FD JUMPI JUMPDEST POP POP POP POP POP DUP2 MSTORE PUSH1 0x20 ADD PUSH1 0x4 DUP3 ADD DUP1 SLOAD DUP1 PUSH1 0x20 MUL PUSH1 0x20 ADD PUSH1 0x40 MLOAD SWAP1 DUP2 ADD PUSH1 0x40 MSTORE DUP1 SWAP3 SWAP2 SWAP1 DUP2 DUP2 MSTORE PUSH1 0x20 ADD DUP3 DUP1 SLOAD DUP1 ISZERO PUSH2 0x369 JUMPI PUSH1 0x20 MUL DUP3 ADD SWAP2 SWAP1 PUSH1 0x0 MSTORE PUSH1 0x20 PUSH1 0x0 KECCAK256 SWAP1 JUMPDEST DUP2 SLOAD DUP2 MSTORE PUSH1 0x20 ADD SWAP1 PUSH1 0x1 ADD SWAP1 DUP1 DUP4 GT PUSH2 0x355 JUMPI JUMPDEST POP POP POP POP POP DUP2 MSTORE POP POP DUP2 MSTORE PUSH1 0x20 ADD SWAP1 PUSH1 0x1 ADD SWAP1 PUSH2 0x1AB JUMP JUMPDEST POP POP POP POP SWAP1 POP SWAP1 JUMP JUMPDEST PUSH1 0x4 DUP2 DUP2 SLOAD DUP2 LT PUSH2 0x39A JUMPI PUSH1 0x0 DUP1 REVERT JUMPDEST SWAP1 PUSH1 0x0 MSTORE PUSH1 0x20 PUSH1 0x0 KECCAK256 SWAP1 PUSH1 0x3 MUL ADD PUSH1 0x0 SWAP2 POP SWAP1 POP DUP1 PUSH1 0x0 ADD SLOAD SWAP1 DUP1 PUSH1 0x1 ADD DUP1 SLOAD PUSH2 0x3C3 SWAP1 PUSH2 0x1230 JUMP JUMPDEST DUP1 PUSH1 0x1F ADD PUSH1 0x20 DUP1 SWAP2 DIV MUL PUSH1 0x20 ADD PUSH1 0x40 MLOAD SWAP1 DUP2 ADD PUSH1 0x40 MSTORE DUP1 SWAP3 SWAP2 SWAP1 DUP2 DUP2 MSTORE PUSH1 0x20 ADD DUP3 DUP1 SLOAD PUSH2 0x3EF SWAP1 PUSH2 0x1230 JUMP JUMPDEST DUP1 ISZERO PUSH2 0x43C JUMPI DUP1 PUSH1 0x1F LT PUSH2 0x411 JUMPI PUSH2 0x100 DUP1 DUP4 SLOAD DIV MUL DUP4 MSTORE SWAP2 PUSH1 0x20 ADD SWAP2 PUSH2 0x43C JUMP JUMPDEST DUP3 ADD SWAP2 SWAP1 PUSH1 0x0 MSTORE PUSH1 0x20 PUSH1 0x0 KECCAK256 SWAP1 JUMPDEST DUP2 SLOAD DUP2 MSTORE SWAP1 PUSH1 0x1 ADD SWAP1 PUSH1 0x20 ADD DUP1 DUP4 GT PUSH2 0x41F JUMPI DUP3 SWAP1 SUB PUSH1 0x1F AND DUP3 ADD SWAP2 JUMPDEST POP POP POP POP POP SWAP1 DUP1 PUSH1 0x2 ADD DUP1 SLOAD PUSH2 0x451 SWAP1 PUSH2 0x1230 JUMP JUMPDEST DUP1 PUSH1 0x1F ADD PUSH1 0x20 DUP1 SWAP2 DIV MUL PUSH1 0x20 ADD PUSH1 0x40 MLOAD SWAP1 DUP2 ADD PUSH1 0x40 MSTORE DUP1 SWAP3 SWAP2 SWAP1 DUP2 DUP2 MSTORE PUSH1 0x20 ADD DUP3 DUP1 SLOAD PUSH2 0x47D SWAP1 PUSH2 0x1230 JUMP JUMPDEST DUP1 ISZERO PUSH2 0x4CA JUMPI DUP1 PUSH1 0x1F LT PUSH2 0x49F JUMPI PUSH2 0x100 DUP1 DUP4 SLOAD DIV MUL DUP4 MSTORE SWAP2 PUSH1 0x20 ADD SWAP2 PUSH2 0x4CA JUMP JUMPDEST DUP3 ADD SWAP2 SWAP1 PUSH1 0x0 MSTORE PUSH1 0x20 PUSH1 0x0 KECCAK256 SWAP1 JUMPDEST DUP2 SLOAD DUP2 MSTORE SWAP1 PUSH1 0x1 ADD SWAP1 PUSH1 0x20 ADD DUP1 DUP4 GT PUSH2 0x4AD JUMPI DUP3 SWAP1 SUB PUSH1 0x1F AND DUP3 ADD SWAP2 JUMPDEST POP POP POP POP POP SWAP1 POP DUP4 JUMP JUMPDEST PUSH1 0x0 DUP8 GT PUSH2 0x517 JUMPI PUSH1 0x40 MLOAD PUSH32 0x8C379A000000000000000000000000000000000000000000000000000000000 DUP2 MSTORE PUSH1 0x4 ADD PUSH2 0x50E SWAP1 PUSH2 0x12AD JUMP JUMPDEST PUSH1 0x40 MLOAD DUP1 SWAP2 SUB SWAP1 REVERT JUMPDEST PUSH1 0x2 DUP10 DUP10 SWAP1 POP LT ISZERO PUSH2 0x55E JUMPI PUSH1 0x40 MLOAD PUSH32 0x8C379A000000000000000000000000000000000000000000000000000000000 DUP2 MSTORE PUSH1 0x4 ADD PUSH2 0x555 SWAP1 PUSH2 0x133F JUMP JUMPDEST PUSH1 0x40 MLOAD DUP1 SWAP2 SUB SWAP1 REVERT JUMPDEST PUSH1 0x0 DUP7 DUP7 SWAP1 POP GT PUSH2 0x5A4 JUMPI PUSH1 0x40 MLOAD PUSH32 0x8C379A000000000000000000000000000000000000000000000000000000000 DUP2 MSTORE PUSH1 0x4 ADD PUSH2 0x59B SWAP1 PUSH2 0x13D1 JUMP JUMPDEST PUSH1 0x40 MLOAD DUP1 SWAP2 SUB SWAP1 REVERT JUMPDEST PUSH1 0x0 DUP5 DUP5 SWAP1 POP GT PUSH2 0x5EA JUMPI PUSH1 0x40 MLOAD PUSH32 0x8C379A000000000000000000000000000000000000000000000000000000000 DUP2 MSTORE PUSH1 0x4 ADD PUSH2 0x5E1 SWAP1 PUSH2 0x1463 JUMP JUMPDEST PUSH1 0x40 MLOAD DUP1 SWAP2 SUB SWAP1 REVERT JUMPDEST PUSH1 0x0 DUP3 DUP3 SWAP1 POP GT PUSH2 0x630 JUMPI PUSH1 0x40 MLOAD PUSH32 0x8C379A000000000000000000000000000000000000000000000000000000000 DUP2 MSTORE PUSH1 0x4 ADD PUSH2 0x627 SWAP1 PUSH2 0x14F5 JUMP JUMPDEST PUSH1 0x40 MLOAD DUP1 SWAP2 SUB SWAP1 REVERT JUMPDEST PUSH1 0x0 PUSH1 0x40 MLOAD DUP1 PUSH1 0xA0 ADD PUSH1 0x40 MSTORE DUP1 DUP10 DUP2 MSTORE PUSH1 0x20 ADD DUP12 DUP12 DUP1 DUP1 PUSH1 0x1F ADD PUSH1 0x20 DUP1 SWAP2 DIV MUL PUSH1 0x20 ADD PUSH1 0x40 MLOAD SWAP1 DUP2 ADD PUSH1 0x40 MSTORE DUP1 SWAP4 SWAP3 SWAP2 SWAP1 DUP2 DUP2 MSTORE PUSH1 0x20 ADD DUP4 DUP4 DUP1 DUP3 DUP5 CALLDATACOPY PUSH1 0x0 DUP2 DUP5 ADD MSTORE PUSH1 0x1F NOT PUSH1 0x1F DUP3 ADD AND SWAP1 POP DUP1 DUP4 ADD SWAP3 POP POP POP POP POP POP POP DUP2 MSTORE PUSH1 0x20 ADD DUP9 DUP9 DUP1 DUP1 PUSH1 0x20 MUL PUSH1 0x20 ADD PUSH1 0x40 MLOAD SWAP1 DUP2 ADD PUSH1 0x40 MSTORE DUP1 SWAP4 SWAP3 SWAP2 SWAP1 DUP2 DUP2 MSTORE PUSH1 0x20 ADD DUP4 DUP4 PUSH1 0x20 MUL DUP1 DUP3 DUP5 CALLDATACOPY PUSH1 0x0 DUP2 DUP5 ADD MSTORE PUSH1 0x1F NOT PUSH1 0x1F DUP3 ADD AND SWAP1 POP DUP1 DUP4 ADD SWAP3 POP POP POP POP POP POP POP DUP2 MSTORE PUSH1 0x20 ADD DUP7 DUP7 DUP1 DUP1 PUSH1 0x20 MUL PUSH1 0x20 ADD PUSH1 0x40 MLOAD SWAP1 DUP2 ADD PUSH1 0x40 MSTORE DUP1 SWAP4 SWAP3 SWAP2 SWAP1 DUP2 DUP2 MSTORE PUSH1 0x20 ADD DUP4 DUP4 PUSH1 0x20 MUL DUP1 DUP3 DUP5 CALLDATACOPY PUSH1 0x0 DUP2 DUP5 ADD MSTORE PUSH1 0x1F NOT PUSH1 0x1F DUP3 ADD AND SWAP1 POP DUP1 DUP4 ADD SWAP3 POP POP POP POP POP POP POP DUP2 MSTORE PUSH1 0x20 ADD DUP5 DUP5 DUP1 DUP1 PUSH1 0x20 MUL PUSH1 0x20 ADD PUSH1 0x40 MLOAD SWAP1 DUP2 ADD PUSH1 0x40 MSTORE DUP1 SWAP4 SWAP3 SWAP2 SWAP1 DUP2 DUP2 MSTORE PUSH1 0x20 ADD DUP4 DUP4 PUSH1 0x20 MUL DUP1 DUP3 DUP5 CALLDATACOPY PUSH1 0x0 DUP2 DUP5 ADD MSTORE PUSH1 0x1F NOT PUSH1 0x1F DUP3 ADD AND SWAP1 POP DUP1 DUP4 ADD SWAP3 POP POP POP POP POP POP POP DUP2 MSTORE POP SWAP1 DUP1 PUSH1 0x1 DUP2 SLOAD ADD DUP1 DUP3 SSTORE DUP1 SWAP2 POP POP PUSH1 0x1 SWAP1 SUB SWAP1 PUSH1 0x0 MSTORE PUSH1 0x20 PUSH1 0x0 KECCAK256 SWAP1 PUSH1 0x5 MUL ADD PUSH1 0x0 SWAP1 SWAP2 SWAP1 SWAP2 SWAP1 SWAP2 POP PUSH1 0x0 DUP3 ADD MLOAD DUP2 PUSH1 0x0 ADD SSTORE PUSH1 0x20 DUP3 ADD MLOAD DUP2 PUSH1 0x1 ADD SWAP1 DUP2 PUSH2 0x7A8 SWAP2 SWAP1 PUSH2 0x16F0 JUMP JUMPDEST POP PUSH1 0x40 DUP3 ADD MLOAD DUP2 PUSH1 0x2 ADD SWAP1 DUP1 MLOAD SWAP1 PUSH1 0x20 ADD SWAP1 PUSH2 0x7C5 SWAP3 SWAP2 SWAP1 PUSH2 0xB93 JUMP JUMPDEST POP PUSH1 0x60 DUP3 ADD MLOAD DUP2 PUSH1 0x3 ADD SWAP1 DUP1 MLOAD SWAP1 PUSH1 0x20 ADD SWAP1 PUSH2 0x7E2 SWAP3 SWAP2 SWAP1 PUSH2 0xB93 JUMP JUMPDEST POP PUSH1 0x80 DUP3 ADD MLOAD DUP2 PUSH1 0x4 ADD SWAP1 DUP1 MLOAD SWAP1 PUSH1 0x20 ADD SWAP1 PUSH2 0x7FF SWAP3 SWAP2 SWAP1 PUSH2 0xB93 JUMP JUMPDEST POP POP POP CALLER PUSH1 0x1 PUSH1 0x0 DUP10 DUP2 MSTORE PUSH1 0x20 ADD SWAP1 DUP2 MSTORE PUSH1 0x20 ADD PUSH1 0x0 KECCAK256 PUSH1 0x0 PUSH2 0x100 EXP DUP2 SLOAD DUP2 PUSH20 0xFFFFFFFFFFFFFFFFFFFFFFFFFFFFFFFFFFFFFFFF MUL NOT AND SWAP1 DUP4 PUSH20 0xFFFFFFFFFFFFFFFFFFFFFFFFFFFFFFFFFFFFFFFF AND MUL OR SWAP1 SSTORE POP PUSH1 0x2 PUSH1 0x0 CALLER PUSH20 0xFFFFFFFFFFFFFFFFFFFFFFFFFFFFFFFFFFFFFFFF AND PUSH20 0xFFFFFFFFFFFFFFFFFFFFFFFFFFFFFFFFFFFFFFFF AND DUP2 MSTORE PUSH1 0x20 ADD SWAP1 DUP2 MSTORE PUSH1 0x20 ADD PUSH1 0x0 KECCAK256 PUSH1 0x0 DUP2 SLOAD DUP1 SWAP3 SWAP2 SWAP1 PUSH2 0x8A4 SWAP1 PUSH2 0x17F1 JUMP JUMPDEST SWAP2 SWAP1 POP SSTORE POP PUSH32 0x3FE2B01362012085DE0BD7BE248169688DAC314BF1D93D69416E32118881CCDB PUSH1 0x40 MLOAD DUP1 PUSH1 0xA0 ADD PUSH1 0x40 MSTORE DUP1 DUP10 DUP2 MSTORE PUSH1 0x20 ADD DUP12 DUP12 DUP1 DUP1 PUSH1 0x1F ADD PUSH1 0x20 DUP1 SWAP2 DIV MUL PUSH1 0x20 ADD PUSH1 0x40 MLOAD SWAP1 DUP2 ADD PUSH1 0x40 MSTORE DUP1 SWAP4 SWAP3 SWAP2 SWAP1 DUP2 DUP2 MSTORE PUSH1 0x20 ADD DUP4 DUP4 DUP1 DUP3 DUP5 CALLDATACOPY PUSH1 0x0 DUP2 DUP5 ADD MSTORE PUSH1 0x1F NOT PUSH1 0x1F DUP3 ADD AND SWAP1 POP DUP1 DUP4 ADD SWAP3 POP POP POP POP POP POP POP DUP2 MSTORE PUSH1 0x20 ADD DUP9 DUP9 DUP1 DUP1 PUSH1 0x20 MUL PUSH1 0x20 ADD PUSH1 0x40 MLOAD SWAP1 DUP2 ADD PUSH1 0x40 MSTORE DUP1 SWAP4 SWAP3 SWAP2 SWAP1 DUP2 DUP2 MSTORE PUSH1 0x20 ADD DUP4 DUP4 PUSH1 0x20 MUL DUP1 DUP3 DUP5 CALLDATACOPY PUSH1 0x0 DUP2 DUP5 ADD MSTORE PUSH1 0x1F NOT PUSH1 0x1F DUP3 ADD AND SWAP1 POP DUP1 DUP4 ADD SWAP3 POP POP POP POP POP POP POP DUP2 MSTORE PUSH1 0x20 ADD DUP7 DUP7 DUP1 DUP1 PUSH1 0x20 MUL PUSH1 0x20 ADD PUSH1 0x40 MLOAD SWAP1 DUP2 ADD PUSH1 0x40 MSTORE DUP1 SWAP4 SWAP3 SWAP2 SWAP1 DUP2 DUP2 MSTORE PUSH1 0x20 ADD DUP4 DUP4 PUSH1 0x20 MUL DUP1 DUP3 DUP5 CALLDATACOPY PUSH1 0x0 DUP2 DUP5 ADD MSTORE PUSH1 0x1F NOT PUSH1 0x1F DUP3 ADD AND SWAP1 POP DUP1 DUP4 ADD SWAP3 POP POP POP POP POP POP POP DUP2 MSTORE PUSH1 0x20 ADD DUP5 DUP5 DUP1 DUP1 PUSH1 0x20 MUL PUSH1 0x20 ADD PUSH1 0x40 MLOAD SWAP1 DUP2 ADD PUSH1 0x40 MSTORE DUP1 SWAP4 SWAP3 SWAP2 SWAP1 DUP2 DUP2 MSTORE PUSH1 0x20 ADD DUP4 DUP4 PUSH1 0x20 MUL DUP1 DUP3 DUP5 CALLDATACOPY PUSH1 0x0 DUP2 DUP5 ADD MSTORE PUSH1 0x1F NOT PUSH1 0x1F DUP3 ADD AND SWAP1 POP DUP1 DUP4 ADD SWAP3 POP POP POP POP POP POP POP DUP2 MSTORE POP PUSH1 0x40 MLOAD PUSH2 0xA05 SWAP2 SWAP1 PUSH2 0x18C4 JUMP JUMPDEST PUSH1 0x40 MLOAD DUP1 SWAP2 SUB SWAP1 LOG1 POP POP POP POP POP POP POP POP POP JUMP JUMPDEST PUSH1 0x0 DUP1 PUSH1 0x0 PUSH1 0x1 SWAP1 POP PUSH1 0x0 PUSH1 0x2 SWAP1 POP DUP1 DUP3 PUSH2 0xA33 SWAP2 SWAP1 PUSH2 0x18E6 JUMP JUMPDEST SWAP4 POP DUP1 DUP3 PUSH2 0xA41 SWAP2 SWAP1 PUSH2 0x1928 JUMP JUMPDEST SWAP3 POP POP POP SWAP1 SWAP2 JUMP JUMPDEST PUSH1 0x3 DUP2 DUP2 SLOAD DUP2 LT PUSH2 0xA59 JUMPI PUSH1 0x0 DUP1 REVERT JUMPDEST SWAP1 PUSH1 0x0 MSTORE PUSH1 0x20 PUSH1 0x0 KECCAK256 SWAP1 PUSH1 0x3 MUL ADD PUSH1 0x0 SWAP2 POP SWAP1 POP DUP1 PUSH1 0x0 ADD SLOAD SWAP1 DUP1 PUSH1 0x1 ADD DUP1 SLOAD PUSH2 0xA82 SWAP1 PUSH2 0x1230 JUMP JUMPDEST DUP1 PUSH1 0x1F ADD PUSH1 0x20 DUP1 SWAP2 DIV MUL PUSH1 0x20 ADD PUSH1 0x40 MLOAD SWAP1 DUP2 ADD PUSH1 0x40 MSTORE DUP1 SWAP3 SWAP2 SWAP1 DUP2 DUP2 MSTORE PUSH1 0x20 ADD DUP3 DUP1 SLOAD PUSH2 0xAAE SWAP1 PUSH2 0x1230 JUMP JUMPDEST DUP1 ISZERO PUSH2 0xAFB JUMPI DUP1 PUSH1 0x1F LT PUSH2 0xAD0 JUMPI PUSH2 0x100 DUP1 DUP4 SLOAD DIV MUL DUP4 MSTORE SWAP2 PUSH1 0x20 ADD SWAP2 PUSH2 0xAFB JUMP JUMPDEST DUP3 ADD SWAP2 SWAP1 PUSH1 0x0 MSTORE PUSH1 0x20 PUSH1 0x0 KECCAK256 SWAP1 JUMPDEST DUP2 SLOAD DUP2 MSTORE SWAP1 PUSH1 0x1 ADD SWAP1 PUSH1 0x20 ADD DUP1 DUP4 GT PUSH2 0xADE JUMPI DUP3 SWAP1 SUB PUSH1 0x1F AND DUP3 ADD SWAP2 JUMPDEST POP POP POP POP POP SWAP1 DUP1 PUSH1 0x2 ADD DUP1 SLOAD PUSH2 0xB10 SWAP1 PUSH2 0x1230 JUMP JUMPDEST DUP1 PUSH1 0x1F ADD PUSH1 0x20 DUP1 SWAP2 DIV MUL PUSH1 0x20 ADD PUSH1 0x40 MLOAD SWAP1 DUP2 ADD PUSH1 0x40 MSTORE DUP1 SWAP3 SWAP2 SWAP1 DUP2 DUP2 MSTORE PUSH1 0x20 ADD DUP3 DUP1 SLOAD PUSH2 0xB3C SWAP1 PUSH2 0x1230 JUMP JUMPDEST DUP1 ISZERO PUSH2 0xB89 JUMPI DUP1 PUSH1 0x1F LT PUSH2 0xB5E JUMPI PUSH2 0x100 DUP1 DUP4 SLOAD DIV MUL DUP4 MSTORE SWAP2 PUSH1 0x20 ADD SWAP2 PUSH2 0xB89 JUMP JUMPDEST DUP3 ADD SWAP2 SWAP1 PUSH1 0x0 MSTORE PUSH1 0x20 PUSH1 0x0 KECCAK256 SWAP1 JUMPDEST DUP2 SLOAD DUP2 MSTORE SWAP1 PUSH1 0x1 ADD SWAP1 PUSH1 0x20 ADD DUP1 DUP4 GT PUSH2 0xB6C JUMPI DUP3 SWAP1 SUB PUSH1 0x1F AND DUP3 ADD SWAP2 JUMPDEST POP POP POP POP POP SWAP1 POP DUP4 JUMP JUMPDEST DUP3 DUP1 SLOAD DUP3 DUP3 SSTORE SWAP1 PUSH1 0x0 MSTORE PUSH1 0x20 PUSH1 0x0 KECCAK256 SWAP1 DUP2 ADD SWAP3 DUP3 ISZERO PUSH2 0xBCF JUMPI SWAP2 PUSH1 0x20 MUL DUP3 ADD JUMPDEST DUP3 DUP2 GT ISZERO PUSH2 0xBCE JUMPI DUP3 MLOAD DUP3 SSTORE SWAP2 PUSH1 0x20 ADD SWAP2 SWAP1 PUSH1 0x1 ADD SWAP1 PUSH2 0xBB3 JUMP JUMPDEST JUMPDEST POP SWAP1 POP PUSH2 0xBDC SWAP2 SWAP1 PUSH2 0xBE0 JUMP JUMPDEST POP SWAP1 JUMP JUMPDEST JUMPDEST DUP1 DUP3 GT ISZERO PUSH2 0xBF9 JUMPI PUSH1 0x0 DUP2 PUSH1 0x0 SWAP1 SSTORE POP PUSH1 0x1 ADD PUSH2 0xBE1 JUMP JUMPDEST POP SWAP1 JUMP JUMPDEST PUSH1 0x0 DUP1 REVERT JUMPDEST PUSH1 0x0 DUP1 REVERT JUMPDEST PUSH1 0x0 DUP2 SWAP1 POP SWAP2 SWAP1 POP JUMP JUMPDEST PUSH2 0xC1A DUP2 PUSH2 0xC07 JUMP JUMPDEST DUP2 EQ PUSH2 0xC25 JUMPI PUSH1 0x0 DUP1 REVERT JUMPDEST POP JUMP JUMPDEST PUSH1 0x0 DUP2 CALLDATALOAD SWAP1 POP PUSH2 0xC37 DUP2 PUSH2 0xC11 JUMP JUMPDEST SWAP3 SWAP2 POP POP JUMP JUMPDEST PUSH1 0x0 PUSH1 0x20 DUP3 DUP5 SUB SLT ISZERO PUSH2 0xC53 JUMPI PUSH2 0xC52 PUSH2 0xBFD JUMP JUMPDEST JUMPDEST PUSH1 0x0 PUSH2 0xC61 DUP5 DUP3 DUP6 ADD PUSH2 0xC28 JUMP JUMPDEST SWAP2 POP POP SWAP3 SWAP2 POP POP JUMP JUMPDEST PUSH1 0x0 PUSH20 0xFFFFFFFFFFFFFFFFFFFFFFFFFFFFFFFFFFFFFFFF DUP3 AND SWAP1 POP SWAP2 SWAP1 POP JUMP JUMPDEST PUSH1 0x0 PUSH2 0xC95 DUP3 PUSH2 0xC6A JUMP JUMPDEST SWAP1 POP SWAP2 SWAP1 POP JUMP JUMPDEST PUSH2 0xCA5 DUP2 PUSH2 0xC8A JUMP JUMPDEST DUP3 MSTORE POP POP JUMP JUMPDEST PUSH1 0x0 PUSH1 0x20 DUP3 ADD SWAP1 POP PUSH2 0xCC0 PUSH1 0x0 DUP4 ADD DUP5 PUSH2 0xC9C JUMP JUMPDEST SWAP3 SWAP2 POP POP JUMP JUMPDEST PUSH1 0x0 DUP2 MLOAD SWAP1 POP SWAP2 SWAP1 POP JUMP JUMPDEST PUSH1 0x0 DUP3 DUP3 MSTORE PUSH1 0x20 DUP3 ADD SWAP1 POP SWAP3 SWAP2 POP POP JUMP JUMPDEST PUSH1 0x0 DUP2 SWAP1 POP PUSH1 0x20 DUP3 ADD SWAP1 POP SWAP2 SWAP1 POP JUMP JUMPDEST PUSH2 0xCFB DUP2 PUSH2 0xC07 JUMP JUMPDEST DUP3 MSTORE POP POP JUMP JUMPDEST PUSH1 0x0 DUP2 MLOAD SWAP1 POP SWAP2 SWAP1 POP JUMP JUMPDEST PUSH1 0x0 DUP3 DUP3 MSTORE PUSH1 0x20 DUP3 ADD SWAP1 POP SWAP3 SWAP2 POP POP JUMP JUMPDEST PUSH1 0x0 JUMPDEST DUP4 DUP2 LT ISZERO PUSH2 0xD3B JUMPI DUP1 DUP3 ADD MLOAD DUP2 DUP5 ADD MSTORE PUSH1 0x20 DUP2 ADD SWAP1 POP PUSH2 0xD20 JUMP JUMPDEST PUSH1 0x0 DUP5 DUP5 ADD MSTORE POP POP POP POP JUMP JUMPDEST PUSH1 0x0 PUSH1 0x1F NOT PUSH1 0x1F DUP4 ADD AND SWAP1 POP SWAP2 SWAP1 POP JUMP JUMPDEST PUSH1 0x0 PUSH2 0xD63 DUP3 PUSH2 0xD01 JUMP JUMPDEST PUSH2 0xD6D DUP2 DUP6 PUSH2 0xD0C JUMP JUMPDEST SWAP4 POP PUSH2 0xD7D DUP2 DUP6 PUSH1 0x20 DUP7 ADD PUSH2 0xD1D JUMP JUMPDEST PUSH2 0xD86 DUP2 PUSH2 0xD47 JUMP JUMPDEST DUP5 ADD SWAP2 POP POP SWAP3 SWAP2 POP POP JUMP JUMPDEST PUSH1 0x0 DUP2 MLOAD SWAP1 POP SWAP2 SWAP1 POP JUMP JUMPDEST PUSH1 0x0 DUP3 DUP3 MSTORE PUSH1 0x20 DUP3 ADD SWAP1 POP SWAP3 SWAP2 POP POP JUMP JUMPDEST PUSH1 0x0 DUP2 SWAP1 POP PUSH1 0x20 DUP3 ADD SWAP1 POP SWAP2 SWAP1 POP JUMP JUMPDEST PUSH1 0x0 PUSH2 0xDC9 DUP4 DUP4 PUSH2 0xCF2 JUMP JUMPDEST PUSH1 0x20 DUP4 ADD SWAP1 POP SWAP3 SWAP2 POP POP JUMP JUMPDEST PUSH1 0x0 PUSH1 0x20 DUP3 ADD SWAP1 POP SWAP2 SWAP1 POP JUMP JUMPDEST PUSH1 0x0 PUSH2 0xDED DUP3 PUSH2 0xD91 JUMP JUMPDEST PUSH2 0xDF7 DUP2 DUP6 PUSH2 0xD9C JUMP JUMPDEST SWAP4 POP PUSH2 0xE02 DUP4 PUSH2 0xDAD JUMP JUMPDEST DUP1 PUSH1 0x0 JUMPDEST DUP4 DUP2 LT ISZERO PUSH2 0xE33 JUMPI DUP2 MLOAD PUSH2 0xE1A DUP9 DUP3 PUSH2 0xDBD JUMP JUMPDEST SWAP8 POP PUSH2 0xE25 DUP4 PUSH2 0xDD5 JUMP JUMPDEST SWAP3 POP POP PUSH1 0x1 DUP2 ADD SWAP1 POP PUSH2 0xE06 JUMP JUMPDEST POP DUP6 SWAP4 POP POP POP POP SWAP3 SWAP2 POP POP JUMP JUMPDEST PUSH1 0x0 PUSH1 0xA0 DUP4 ADD PUSH1 0x0 DUP4 ADD MLOAD PUSH2 0xE58 PUSH1 0x0 DUP7 ADD DUP3 PUSH2 0xCF2 JUMP JUMPDEST POP PUSH1 0x20 DUP4 ADD MLOAD DUP5 DUP3 SUB PUSH1 0x20 DUP7 ADD MSTORE PUSH2 0xE70 DUP3 DUP3 PUSH2 0xD58 JUMP JUMPDEST SWAP2 POP POP PUSH1 0x40 DUP4 ADD MLOAD DUP5 DUP3 SUB PUSH1 0x40 DUP7 ADD MSTORE PUSH2 0xE8A DUP3 DUP3 PUSH2 0xDE2 JUMP JUMPDEST SWAP2 POP POP PUSH1 0x60 DUP4 ADD MLOAD DUP5 DUP3 SUB PUSH1 0x60 DUP7 ADD MSTORE PUSH2 0xEA4 DUP3 DUP3 PUSH2 0xDE2 JUMP JUMPDEST SWAP2 POP POP PUSH1 0x80 DUP4 ADD MLOAD DUP5 DUP3 SUB PUSH1 0x80 DUP7 ADD MSTORE PUSH2 0xEBE DUP3 DUP3 PUSH2 0xDE2 JUMP JUMPDEST SWAP2 POP POP DUP1 SWAP2 POP POP SWAP3 SWAP2 POP POP JUMP JUMPDEST PUSH1 0x0 PUSH2 0xED7 DUP4 DUP4 PUSH2 0xE40 JUMP JUMPDEST SWAP1 POP SWAP3 SWAP2 POP POP JUMP JUMPDEST PUSH1 0x0 PUSH1 0x20 DUP3 ADD SWAP1 POP SWAP2 SWAP1 POP JUMP JUMPDEST PUSH1 0x0 PUSH2 0xEF7 DUP3 PUSH2 0xCC6 JUMP JUMPDEST PUSH2 0xF01 DUP2 DUP6 PUSH2 0xCD1 JUMP JUMPDEST SWAP4 POP DUP4 PUSH1 0x20 DUP3 MUL DUP6 ADD PUSH2 0xF13 DUP6 PUSH2 0xCE2 JUMP JUMPDEST DUP1 PUSH1 0x0 JUMPDEST DUP6 DUP2 LT ISZERO PUSH2 0xF4F JUMPI DUP5 DUP5 SUB DUP10 MSTORE DUP2 MLOAD PUSH2 0xF30 DUP6 DUP3 PUSH2 0xECB JUMP JUMPDEST SWAP5 POP PUSH2 0xF3B DUP4 PUSH2 0xEDF JUMP JUMPDEST SWAP3 POP PUSH1 0x20 DUP11 ADD SWAP10 POP POP PUSH1 0x1 DUP2 ADD SWAP1 POP PUSH2 0xF17 JUMP JUMPDEST POP DUP3 SWAP8 POP DUP8 SWAP6 POP POP POP POP POP POP SWAP3 SWAP2 POP POP JUMP JUMPDEST PUSH1 0x0 PUSH1 0x20 DUP3 ADD SWAP1 POP DUP2 DUP2 SUB PUSH1 0x0 DUP4 ADD MSTORE PUSH2 0xF7B DUP2 DUP5 PUSH2 0xEEC JUMP JUMPDEST SWAP1 POP SWAP3 SWAP2 POP POP JUMP JUMPDEST PUSH2 0xF8C DUP2 PUSH2 0xC07 JUMP JUMPDEST DUP3 MSTORE POP POP JUMP JUMPDEST PUSH1 0x0 DUP3 DUP3 MSTORE PUSH1 0x20 DUP3 ADD SWAP1 POP SWAP3 SWAP2 POP POP JUMP JUMPDEST PUSH1 0x0 PUSH2 0xFAE DUP3 PUSH2 0xD01 JUMP JUMPDEST PUSH2 0xFB8 DUP2 DUP6 PUSH2 0xF92 JUMP JUMPDEST SWAP4 POP PUSH2 0xFC8 DUP2 DUP6 PUSH1 0x20 DUP7 ADD PUSH2 0xD1D JUMP JUMPDEST PUSH2 0xFD1 DUP2 PUSH2 0xD47 JUMP JUMPDEST DUP5 ADD SWAP2 POP POP SWAP3 SWAP2 POP POP JUMP JUMPDEST PUSH1 0x0 PUSH1 0x60 DUP3 ADD SWAP1 POP PUSH2 0xFF1 PUSH1 0x0 DUP4 ADD DUP7 PUSH2 0xF83 JUMP JUMPDEST DUP2 DUP2 SUB PUSH1 0x20 DUP4 ADD MSTORE PUSH2 0x1003 DUP2 DUP6 PUSH2 0xFA3 JUMP JUMPDEST SWAP1 POP DUP2 DUP2 SUB PUSH1 0x40 DUP4 ADD MSTORE PUSH2 0x1017 DUP2 DUP5 PUSH2 0xFA3 JUMP JUMPDEST SWAP1 POP SWAP5 SWAP4 POP POP POP POP JUMP JUMPDEST PUSH1 0x0 DUP1 REVERT JUMPDEST PUSH1 0x0 DUP1 REVERT JUMPDEST PUSH1 0x0 DUP1 REVERT JUMPDEST PUSH1 0x0 DUP1 DUP4 PUSH1 0x1F DUP5 ADD SLT PUSH2 0x1046 JUMPI PUSH2 0x1045 PUSH2 0x1021 JUMP JUMPDEST JUMPDEST DUP3 CALLDATALOAD SWAP1 POP PUSH8 0xFFFFFFFFFFFFFFFF DUP2 GT ISZERO PUSH2 0x1063 JUMPI PUSH2 0x1062 PUSH2 0x1026 JUMP JUMPDEST JUMPDEST PUSH1 0x20 DUP4 ADD SWAP2 POP DUP4 PUSH1 0x1 DUP3 MUL DUP4 ADD GT ISZERO PUSH2 0x107F JUMPI PUSH2 0x107E PUSH2 0x102B JUMP JUMPDEST JUMPDEST SWAP3 POP SWAP3 SWAP1 POP JUMP JUMPDEST PUSH1 0x0 DUP1 DUP4 PUSH1 0x1F DUP5 ADD SLT PUSH2 0x109C JUMPI PUSH2 0x109B PUSH2 0x1021 JUMP JUMPDEST JUMPDEST DUP3 CALLDATALOAD SWAP1 POP PUSH8 0xFFFFFFFFFFFFFFFF DUP2 GT ISZERO PUSH2 0x10B9 JUMPI PUSH2 0x10B8 PUSH2 0x1026 JUMP JUMPDEST JUMPDEST PUSH1 0x20 DUP4 ADD SWAP2 POP DUP4 PUSH1 0x20 DUP3 MUL DUP4 ADD GT ISZERO PUSH2 0x10D5 JUMPI PUSH2 0x10D4 PUSH2 0x102B JUMP JUMPDEST JUMPDEST SWAP3 POP SWAP3 SWAP1 POP JUMP JUMPDEST PUSH1 0x0 DUP1 PUSH1 0x0 DUP1 PUSH1 0x0 DUP1 PUSH1 0x0 DUP1 PUSH1 0x0 PUSH1 0xA0 DUP11 DUP13 SUB SLT ISZERO PUSH2 0x10FE JUMPI PUSH2 0x10FD PUSH2 0xBFD JUMP JUMPDEST JUMPDEST PUSH1 0x0 DUP11 ADD CALLDATALOAD PUSH8 0xFFFFFFFFFFFFFFFF DUP2 GT ISZERO PUSH2 0x111C JUMPI PUSH2 0x111B PUSH2 0xC02 JUMP JUMPDEST JUMPDEST PUSH2 0x1128 DUP13 DUP3 DUP14 ADD PUSH2 0x1030 JUMP JUMPDEST SWAP10 POP SWAP10 POP POP PUSH1 0x20 PUSH2 0x113B DUP13 DUP3 DUP14 ADD PUSH2 0xC28 JUMP JUMPDEST SWAP8 POP POP PUSH1 0x40 DUP11 ADD CALLDATALOAD PUSH8 0xFFFFFFFFFFFFFFFF DUP2 GT ISZERO PUSH2 0x115C JUMPI PUSH2 0x115B PUSH2 0xC02 JUMP JUMPDEST JUMPDEST PUSH2 0x1168 DUP13 DUP3 DUP14 ADD PUSH2 0x1086 JUMP JUMPDEST SWAP7 POP SWAP7 POP POP PUSH1 0x60 DUP11 ADD CALLDATALOAD PUSH8 0xFFFFFFFFFFFFFFFF DUP2 GT ISZERO PUSH2 0x118B JUMPI PUSH2 0x118A PUSH2 0xC02 JUMP JUMPDEST JUMPDEST PUSH2 0x1197 DUP13 DUP3 DUP14 ADD PUSH2 0x1086 JUMP JUMPDEST SWAP5 POP SWAP5 POP POP PUSH1 0x80 DUP11 ADD CALLDATALOAD PUSH8 0xFFFFFFFFFFFFFFFF DUP2 GT ISZERO PUSH2 0x11BA JUMPI PUSH2 0x11B9 PUSH2 0xC02 JUMP JUMPDEST JUMPDEST PUSH2 0x11C6 DUP13 DUP3 DUP14 ADD PUSH2 0x1086 JUMP JUMPDEST SWAP3 POP SWAP3 POP POP SWAP3 SWAP6 SWAP9 POP SWAP3 SWAP6 SWAP9 POP SWAP3 SWAP6 SWAP9 JUMP JUMPDEST PUSH1 0x0 PUSH1 0x40 DUP3 ADD SWAP1 POP PUSH2 0x11ED PUSH1 0x0 DUP4 ADD DUP6 PUSH2 0xF83 JUMP JUMPDEST PUSH2 0x11FA PUSH1 0x20 DUP4 ADD DUP5 PUSH2 0xF83 JUMP JUMPDEST SWAP4 SWAP3 POP POP POP JUMP JUMPDEST PUSH32 0x4E487B7100000000000000000000000000000000000000000000000000000000 PUSH1 0x0 MSTORE PUSH1 0x22 PUSH1 0x4 MSTORE PUSH1 0x24 PUSH1 0x0 REVERT JUMPDEST PUSH1 0x0 PUSH1 0x2 DUP3 DIV SWAP1 POP PUSH1 0x1 DUP3 AND DUP1 PUSH2 0x1248 JUMPI PUSH1 0x7F DUP3 AND SWAP2 POP JUMPDEST PUSH1 0x20 DUP3 LT DUP2 SUB PUSH2 0x125B JUMPI PUSH2 0x125A PUSH2 0x1201 JUMP JUMPDEST JUMPDEST POP SWAP2 SWAP1 POP JUMP JUMPDEST PUSH32 0x4964206D7573742062652067726561746572207468616E203000000000000000 PUSH1 0x0 DUP3 ADD MSTORE POP JUMP JUMPDEST PUSH1 0x0 PUSH2 0x1297 PUSH1 0x19 DUP4 PUSH2 0xF92 JUMP JUMPDEST SWAP2 POP PUSH2 0x12A2 DUP3 PUSH2 0x1261 JUMP JUMPDEST PUSH1 0x20 DUP3 ADD SWAP1 POP SWAP2 SWAP1 POP JUMP JUMPDEST PUSH1 0x0 PUSH1 0x20 DUP3 ADD SWAP1 POP DUP2 DUP2 SUB PUSH1 0x0 DUP4 ADD MSTORE PUSH2 0x12C6 DUP2 PUSH2 0x128A JUMP JUMPDEST SWAP1 POP SWAP2 SWAP1 POP JUMP JUMPDEST PUSH32 0x4E616D65206D757374206265206174206C656173742032206368617261637465 PUSH1 0x0 DUP3 ADD MSTORE PUSH32 0x7273206C6F6E6700000000000000000000000000000000000000000000000000 PUSH1 0x20 DUP3 ADD MSTORE POP JUMP JUMPDEST PUSH1 0x0 PUSH2 0x1329 PUSH1 0x27 DUP4 PUSH2 0xF92 JUMP JUMPDEST SWAP2 POP PUSH2 0x1334 DUP3 PUSH2 0x12CD JUMP JUMPDEST PUSH1 0x40 DUP3 ADD SWAP1 POP SWAP2 SWAP1 POP JUMP JUMPDEST PUSH1 0x0 PUSH1 0x20 DUP3 ADD SWAP1 POP DUP2 DUP2 SUB PUSH1 0x0 DUP4 ADD MSTORE PUSH2 0x1358 DUP2 PUSH2 0x131C JUMP JUMPDEST SWAP1 POP SWAP2 SWAP1 POP JUMP JUMPDEST PUSH32 0x506F6B656D6F6E206D7573742068617665206174206C65617374206F6E652073 PUSH1 0x0 DUP3 ADD MSTORE PUSH32 0x6B696C6C00000000000000000000000000000000000000000000000000000000 PUSH1 0x20 DUP3 ADD MSTORE POP JUMP JUMPDEST PUSH1 0x0 PUSH2 0x13BB PUSH1 0x24 DUP4 PUSH2 0xF92 JUMP JUMPDEST SWAP2 POP PUSH2 0x13C6 DUP3 PUSH2 0x135F JUMP JUMPDEST PUSH1 0x40 DUP3 ADD SWAP1 POP SWAP2 SWAP1 POP JUMP JUMPDEST PUSH1 0x0 PUSH1 0x20 DUP3 ADD SWAP1 POP DUP2 DUP2 SUB PUSH1 0x0 DUP4 ADD MSTORE PUSH2 0x13EA DUP2 PUSH2 0x13AE JUMP JUMPDEST SWAP1 POP SWAP2 SWAP1 POP JUMP JUMPDEST PUSH32 0x506F6B656D6F6E206D7573742068617665206174206C65617374206F6E652074 PUSH1 0x0 DUP3 ADD MSTORE PUSH32 0x7970650000000000000000000000000000000000000000000000000000000000 PUSH1 0x20 DUP3 ADD MSTORE POP JUMP JUMPDEST PUSH1 0x0 PUSH2 0x144D PUSH1 0x23 DUP4 PUSH2 0xF92 JUMP JUMPDEST SWAP2 POP PUSH2 0x1458 DUP3 PUSH2 0x13F1 JUMP JUMPDEST PUSH1 0x40 DUP3 ADD SWAP1 POP SWAP2 SWAP1 POP JUMP JUMPDEST PUSH1 0x0 PUSH1 0x20 DUP3 ADD SWAP1 POP DUP2 DUP2 SUB PUSH1 0x0 DUP4 ADD MSTORE PUSH2 0x147C DUP2 PUSH2 0x1440 JUMP JUMPDEST SWAP1 POP SWAP2 SWAP1 POP JUMP JUMPDEST PUSH32 0x506F6B656D6F6E206D7573742068617665206174206C65617374206F6E652077 PUSH1 0x0 DUP3 ADD MSTORE PUSH32 0x65616B6E65737300000000000000000000000000000000000000000000000000 PUSH1 0x20 DUP3 ADD MSTORE POP JUMP JUMPDEST PUSH1 0x0 PUSH2 0x14DF PUSH1 0x27 DUP4 PUSH2 0xF92 JUMP JUMPDEST SWAP2 POP PUSH2 0x14EA DUP3 PUSH2 0x1483 JUMP JUMPDEST PUSH1 0x40 DUP3 ADD SWAP1 POP SWAP2 SWAP1 POP JUMP JUMPDEST PUSH1 0x0 PUSH1 0x20 DUP3 ADD SWAP1 POP DUP2 DUP2 SUB PUSH1 0x0 DUP4 ADD MSTORE PUSH2 0x150E DUP2 PUSH2 0x14D2 JUMP JUMPDEST SWAP1 POP SWAP2 SWAP1 POP JUMP JUMPDEST PUSH32 0x4E487B7100000000000000000000000000000000000000000000000000000000 PUSH1 0x0 MSTORE PUSH1 0x41 PUSH1 0x4 MSTORE PUSH1 0x24 PUSH1 0x0 REVERT JUMPDEST PUSH1 0x0 DUP2 SWAP1 POP DUP2 PUSH1 0x0 MSTORE PUSH1 0x20 PUSH1 0x0 KECCAK256 SWAP1 POP SWAP2 SWAP1 POP JUMP JUMPDEST PUSH1 0x0 PUSH1 0x20 PUSH1 0x1F DUP4 ADD DIV SWAP1 POP SWAP2 SWAP1 POP JUMP JUMPDEST PUSH1 0x0 DUP3 DUP3 SHL SWAP1 POP SWAP3 SWAP2 POP POP JUMP JUMPDEST PUSH1 0x0 PUSH1 0x8 DUP4 MUL PUSH2 0x15A6 PUSH32 0xFFFFFFFFFFFFFFFFFFFFFFFFFFFFFFFFFFFFFFFFFFFFFFFFFFFFFFFFFFFFFFFF DUP3 PUSH2 0x1569 JUMP JUMPDEST PUSH2 0x15B0 DUP7 DUP4 PUSH2 0x1569 JUMP JUMPDEST SWAP6 POP DUP1 NOT DUP5 AND SWAP4 POP DUP1 DUP7 AND DUP5 OR SWAP3 POP POP POP SWAP4 SWAP3 POP POP POP JUMP JUMPDEST PUSH1 0x0 DUP2 SWAP1 POP SWAP2 SWAP1 POP JUMP JUMPDEST PUSH1 0x0 PUSH2 0x15ED PUSH2 0x15E8 PUSH2 0x15E3 DUP5 PUSH2 0xC07 JUMP JUMPDEST PUSH2 0x15C8 JUMP JUMPDEST PUSH2 0xC07 JUMP JUMPDEST SWAP1 POP SWAP2 SWAP1 POP JUMP JUMPDEST PUSH1 0x0 DUP2 SWAP1 POP SWAP2 SWAP1 POP JUMP JUMPDEST PUSH2 0x1607 DUP4 PUSH2 0x15D2 JUMP JUMPDEST PUSH2 0x161B PUSH2 0x1613 DUP3 PUSH2 0x15F4 JUMP JUMPDEST DUP5 DUP5 SLOAD PUSH2 0x1576 JUMP JUMPDEST DUP3 SSTORE POP POP POP POP JUMP JUMPDEST PUSH1 0x0 SWAP1 JUMP JUMPDEST PUSH2 0x1630 PUSH2 0x1623 JUMP JUMPDEST PUSH2 0x163B DUP2 DUP5 DUP5 PUSH2 0x15FE JUMP JUMPDEST POP POP POP JUMP JUMPDEST JUMPDEST DUP2 DUP2 LT ISZERO PUSH2 0x165F JUMPI PUSH2 0x1654 PUSH1 0x0 DUP3 PUSH2 0x1628 JUMP JUMPDEST PUSH1 0x1 DUP2 ADD SWAP1 POP PUSH2 0x1641 JUMP JUMPDEST POP POP JUMP JUMPDEST PUSH1 0x1F DUP3 GT ISZERO PUSH2 0x16A4 JUMPI PUSH2 0x1675 DUP2 PUSH2 0x1544 JUMP JUMPDEST PUSH2 0x167E DUP5 PUSH2 0x1559 JUMP JUMPDEST DUP2 ADD PUSH1 0x20 DUP6 LT ISZERO PUSH2 0x168D JUMPI DUP2 SWAP1 POP JUMPDEST PUSH2 0x16A1 PUSH2 0x1699 DUP6 PUSH2 0x1559 JUMP JUMPDEST DUP4 ADD DUP3 PUSH2 0x1640 JUMP JUMPDEST POP POP JUMPDEST POP POP POP JUMP JUMPDEST PUSH1 0x0 DUP3 DUP3 SHR SWAP1 POP SWAP3 SWAP2 POP POP JUMP JUMPDEST PUSH1 0x0 PUSH2 0x16C7 PUSH1 0x0 NOT DUP5 PUSH1 0x8 MUL PUSH2 0x16A9 JUMP JUMPDEST NOT DUP1 DUP4 AND SWAP2 POP POP SWAP3 SWAP2 POP POP JUMP JUMPDEST PUSH1 0x0 PUSH2 0x16E0 DUP4 DUP4 PUSH2 0x16B6 JUMP JUMPDEST SWAP2 POP DUP3 PUSH1 0x2 MUL DUP3 OR SWAP1 POP SWAP3 SWAP2 POP POP JUMP JUMPDEST PUSH2 0x16F9 DUP3 PUSH2 0xD01 JUMP JUMPDEST PUSH8 0xFFFFFFFFFFFFFFFF DUP2 GT ISZERO PUSH2 0x1712 JUMPI PUSH2 0x1711 PUSH2 0x1515 JUMP JUMPDEST JUMPDEST PUSH2 0x171C DUP3 SLOAD PUSH2 0x1230 JUMP JUMPDEST PUSH2 0x1727 DUP3 DUP3 DUP6 PUSH2 0x1663 JUMP JUMPDEST PUSH1 0x0 PUSH1 0x20 SWAP1 POP PUSH1 0x1F DUP4 GT PUSH1 0x1 DUP2 EQ PUSH2 0x175A JUMPI PUSH1 0x0 DUP5 ISZERO PUSH2 0x1748 JUMPI DUP3 DUP8 ADD MLOAD SWAP1 POP JUMPDEST PUSH2 0x1752 DUP6 DUP3 PUSH2 0x16D4 JUMP JUMPDEST DUP7 SSTORE POP PUSH2 0x17BA JUMP JUMPDEST PUSH1 0x1F NOT DUP5 AND PUSH2 0x1768 DUP7 PUSH2 0x1544 JUMP JUMPDEST PUSH1 0x0 JUMPDEST DUP3 DUP2 LT ISZERO PUSH2 0x1790 JUMPI DUP5 DUP10 ADD MLOAD DUP3 SSTORE PUSH1 0x1 DUP3 ADD SWAP2 POP PUSH1 0x20 DUP6 ADD SWAP5 POP PUSH1 0x20 DUP2 ADD SWAP1 POP PUSH2 0x176B JUMP JUMPDEST DUP7 DUP4 LT ISZERO PUSH2 0x17AD JUMPI DUP5 DUP10 ADD MLOAD PUSH2 0x17A9 PUSH1 0x1F DUP10 AND DUP3 PUSH2 0x16B6 JUMP JUMPDEST DUP4 SSTORE POP JUMPDEST PUSH1 0x1 PUSH1 0x2 DUP9 MUL ADD DUP9 SSTORE POP POP POP JUMPDEST POP POP POP POP POP POP JUMP JUMPDEST PUSH32 0x4E487B7100000000000000000000000000000000000000000000000000000000 PUSH1 0x0 MSTORE PUSH1 0x11 PUSH1 0x4 MSTORE PUSH1 0x24 PUSH1 0x0 REVERT JUMPDEST PUSH1 0x0 PUSH2 0x17FC DUP3 PUSH2 0xC07 JUMP JUMPDEST SWAP2 POP PUSH32 0xFFFFFFFFFFFFFFFFFFFFFFFFFFFFFFFFFFFFFFFFFFFFFFFFFFFFFFFFFFFFFFFF DUP3 SUB PUSH2 0x182E JUMPI PUSH2 0x182D PUSH2 0x17C2 JUMP JUMPDEST JUMPDEST PUSH1 0x1 DUP3 ADD SWAP1 POP SWAP2 SWAP1 POP JUMP JUMPDEST PUSH1 0x0 PUSH1 0xA0 DUP4 ADD PUSH1 0x0 DUP4 ADD MLOAD PUSH2 0x1851 PUSH1 0x0 DUP7 ADD DUP3 PUSH2 0xCF2 JUMP JUMPDEST POP PUSH1 0x20 DUP4 ADD MLOAD DUP5 DUP3 SUB PUSH1 0x20 DUP7 ADD MSTORE PUSH2 0x1869 DUP3 DUP3 PUSH2 0xD58 JUMP JUMPDEST SWAP2 POP POP PUSH1 0x40 DUP4 ADD MLOAD DUP5 DUP3 SUB PUSH1 0x40 DUP7 ADD MSTORE PUSH2 0x1883 DUP3 DUP3 PUSH2 0xDE2 JUMP JUMPDEST SWAP2 POP POP PUSH1 0x60 DUP4 ADD MLOAD DUP5 DUP3 SUB PUSH1 0x60 DUP7 ADD MSTORE PUSH2 0x189D DUP3 DUP3 PUSH2 0xDE2 JUMP JUMPDEST SWAP2 POP POP PUSH1 0x80 DUP4 ADD MLOAD DUP5 DUP3 SUB PUSH1 0x80 DUP7 ADD MSTORE PUSH2 0x18B7 DUP3 DUP3 PUSH2 0xDE2 JUMP JUMPDEST SWAP2 POP POP DUP1 SWAP2 POP POP SWAP3 SWAP2 POP POP JUMP JUMPDEST PUSH1 0x0 PUSH1 0x20 DUP3 ADD SWAP1 POP DUP2 DUP2 SUB PUSH1 0x0 DUP4 ADD MSTORE PUSH2 0x18DE DUP2 DUP5 PUSH2 0x1839 JUMP JUMPDEST SWAP1 POP SWAP3 SWAP2 POP POP JUMP JUMPDEST PUSH1 0x0 PUSH2 0x18F1 DUP3 PUSH2 0xC07 JUMP JUMPDEST SWAP2 POP PUSH2 0x18FC DUP4 PUSH2 0xC07 JUMP JUMPDEST SWAP3 POP DUP3 DUP3 MUL PUSH2 0x190A DUP2 PUSH2 0xC07 JUMP JUMPDEST SWAP2 POP DUP3 DUP3 DIV DUP5 EQ DUP4 ISZERO OR PUSH2 0x1921 JUMPI PUSH2 0x1920 PUSH2 0x17C2 JUMP JUMPDEST JUMPDEST POP SWAP3 SWAP2 POP POP JUMP JUMPDEST PUSH1 0x0 PUSH2 0x1933 DUP3 PUSH2 0xC07 JUMP JUMPDEST SWAP2 POP PUSH2 0x193E DUP4 PUSH2 0xC07 JUMP JUMPDEST SWAP3 POP DUP3 DUP3 ADD SWAP1 POP DUP1 DUP3 GT ISZERO PUSH2 0x1956 JUMPI PUSH2 0x1955 PUSH2 0x17C2 JUMP JUMPDEST JUMPDEST SWAP3 SWAP2 POP POP JUMP INVALID LOG2 PUSH5 0x6970667358 0x22 SLT KECCAK256 JUMPDEST 0x2F 0xE2 0x29 0x27 0xC9 PUSH18 0xF12455844B2F49A8E88ABCF9E0E75D048583 0xB8 MULMOD DIV 0xC1 MULMOD CHAINID 0xEA PUSH5 0x736F6C6343 STOP ADDMOD SLT STOP CALLER CHAINID PUSH10 0x676874696E6720747970 PUSH6 0x20706F6B656D PUSH16 0x6E20617265207765616B20616761696E PUSH20 0x7420666C79696E6720616E642070737963686963 KECCAK256 PUSH21 0x79706520706F6B656D6F6E54686520746172676574 KECCAK256 PUSH10 0x7320626C617374656420 PUSH24 0x697468206120666F72636566756C2073686F74206F662077 PUSH2 0x7465 PUSH19 0x2E46697265207479706520706F6B656D6F6E20 PUSH2 0x7265 KECCAK256 PUSH24 0x65616B20616761696E737420776174657220616E64206772 PUSH2 0x7373 KECCAK256 PUSH21 0x79706520706F6B656D6F6E456C6563747269632074 PUSH26 0x706520706F6B656D6F6E20617265207765616B20616761696E73 PUSH21 0x2067726F756E64207479706520706F6B656D6F6E47 PUSH19 0x617373207479706520706F6B656D6F6E206172 PUSH6 0x207765616B20 PUSH2 0x6761 PUSH10 0x6E737420666972652061 PUSH15 0x6420696365207479706520706F6B65 PUSH14 0x6F6E546865207461726765742069 PUSH20 0x2073636F7263686564207769746820616E20696E PUSH21 0x656E736520626C617374206F6620666972652E2054 PUSH9 0x6973206D617920616C PUSH20 0x6F206C6561766520746865207461726765742077 PUSH10 0x74682061206275726E2E SLOAD PUSH9 0x652074617267657420 PUSH10 0x732061747461636B6564 KECCAK256 PUSH24 0x69746820736D616C6C20666C616D65732E2054686973206D PUSH2 0x7920 PUSH2 0x6C73 PUSH16 0x206C6561766520746865207461726765 PUSH21 0x20776974682061206275726E2E5761746572207479 PUSH17 0x6520706F6B656D6F6E2061726520776561 PUSH12 0x20616761696E737420677261 PUSH20 0x7320616E6420656C656374726963207479706520 PUSH17 0x6F6B656D6F6E41207265636B6C6573732C KECCAK256 PUSH7 0x756C6C2D626F64 PUSH26 0x206368617267652061747461636B20666F7220736C616D6D696E PUSH8 0x20696E746F207468 PUSH6 0x207461726765 PUSH21 0x2E205468697320616C736F2064616D616765732074 PUSH9 0x652075736572206120 PUSH13 0x6974746C652E54686520746172 PUSH8 0x6574206973206269 PUSH21 0x74656E207769746820766963696F75736C79207368 PUSH2 0x7270 KECCAK256 PUSH7 0x616E67732E2054 PUSH9 0x6973206D617920616C PUSH20 0x6F206D616B65207468652074617267657420666C PUSH10 0x6E63682E546865207461 PUSH19 0x6765742069732073747275636B207769746820 PUSH20 0x6C656E6465722C20776869706C696B652076696E PUSH6 0x7320746F2069 PUSH15 0x666C6963742064616D6167652E4963 PUSH6 0x207479706520 PUSH17 0x6F6B656D6F6E20617265207765616B2061 PUSH8 0x61696E7374206669 PUSH19 0x6520616E64206669676874696E672074797065 KECCAK256 PUSH17 0x6F6B656D6F6E4120706879736963616C20 PUSH2 0x7474 PUSH2 0x636B KECCAK256 PUSH10 0x6E207768696368207468 PUSH6 0x207573657220 PUSH4 0x68617267 PUSH6 0x7320616E6420 PUSH20 0x6C616D7320696E746F2074686520746172676574 KECCAK256 PUSH24 0x697468206974732077686F6C6520626F64792E0000000000 "
				},
				"gasEstimates": {
					"creation": {
						"codeDepositCost": "1309200",
						"executionCost": "infinite",
						"totalCost": "infinite"
					},
					"external": {
						"createPokemon(string,uint256,uint256[],uint256[],uint256[])": "infinite",
						"getAllPokemons()": "infinite",
						"getResult()": "infinite",
						"pokemonSkills(uint256)": "infinite",
						"pokemonToOwner(uint256)": "2817",
						"pokemonTypes(uint256)": "infinite"
					},
					"internal": {
						"createPokemonSkill(string memory,string memory)": "infinite",
						"createPokemonType(string memory,string memory)": "infinite"
					}
				},
				"methodIdentifiers": {
					"createPokemon(string,uint256,uint256[],uint256[],uint256[])": "ddf5ba4e",
					"getAllPokemons()": "5e916790",
					"getResult()": "de292789",
					"pokemonSkills(uint256)": "dfce7dc6",
					"pokemonToOwner(uint256)": "2f7467b3",
					"pokemonTypes(uint256)": "c250736e"
				}
			},
			"storageLayout": {
				"storage": [
					{
						"astId": 33,
						"contract": "PersonalRepo/solidity-eth-challenge/contracts/PokemonFactory.sol:PokemonFactory",
						"label": "pokemons",
						"offset": 0,
						"slot": "0",
						"type": "t_array(t_struct(Pokemon)15_storage)dyn_storage"
					},
					{
						"astId": 37,
						"contract": "PersonalRepo/solidity-eth-challenge/contracts/PokemonFactory.sol:PokemonFactory",
						"label": "pokemonToOwner",
						"offset": 0,
						"slot": "1",
						"type": "t_mapping(t_uint256,t_address)"
					},
					{
						"astId": 41,
						"contract": "PersonalRepo/solidity-eth-challenge/contracts/PokemonFactory.sol:PokemonFactory",
						"label": "ownerPokemonCount",
						"offset": 0,
						"slot": "2",
						"type": "t_mapping(t_address,t_uint256)"
					},
					{
						"astId": 45,
						"contract": "PersonalRepo/solidity-eth-challenge/contracts/PokemonFactory.sol:PokemonFactory",
						"label": "pokemonSkills",
						"offset": 0,
						"slot": "3",
						"type": "t_array(t_struct(PokemonSkill)22_storage)dyn_storage"
					},
					{
						"astId": 49,
						"contract": "PersonalRepo/solidity-eth-challenge/contracts/PokemonFactory.sol:PokemonFactory",
						"label": "pokemonTypes",
						"offset": 0,
						"slot": "4",
						"type": "t_array(t_struct(PokemonType)29_storage)dyn_storage"
					}
				],
				"types": {
					"t_address": {
						"encoding": "inplace",
						"label": "address",
						"numberOfBytes": "20"
					},
					"t_array(t_struct(Pokemon)15_storage)dyn_storage": {
						"base": "t_struct(Pokemon)15_storage",
						"encoding": "dynamic_array",
						"label": "struct PokemonFactory.Pokemon[]",
						"numberOfBytes": "32"
					},
					"t_array(t_struct(PokemonSkill)22_storage)dyn_storage": {
						"base": "t_struct(PokemonSkill)22_storage",
						"encoding": "dynamic_array",
						"label": "struct PokemonFactory.PokemonSkill[]",
						"numberOfBytes": "32"
					},
					"t_array(t_struct(PokemonType)29_storage)dyn_storage": {
						"base": "t_struct(PokemonType)29_storage",
						"encoding": "dynamic_array",
						"label": "struct PokemonFactory.PokemonType[]",
						"numberOfBytes": "32"
					},
					"t_array(t_uint256)dyn_storage": {
						"base": "t_uint256",
						"encoding": "dynamic_array",
						"label": "uint256[]",
						"numberOfBytes": "32"
					},
					"t_mapping(t_address,t_uint256)": {
						"encoding": "mapping",
						"key": "t_address",
						"label": "mapping(address => uint256)",
						"numberOfBytes": "32",
						"value": "t_uint256"
					},
					"t_mapping(t_uint256,t_address)": {
						"encoding": "mapping",
						"key": "t_uint256",
						"label": "mapping(uint256 => address)",
						"numberOfBytes": "32",
						"value": "t_address"
					},
					"t_string_storage": {
						"encoding": "bytes",
						"label": "string",
						"numberOfBytes": "32"
					},
					"t_struct(Pokemon)15_storage": {
						"encoding": "inplace",
						"label": "struct PokemonFactory.Pokemon",
						"members": [
							{
								"astId": 3,
								"contract": "PersonalRepo/solidity-eth-challenge/contracts/PokemonFactory.sol:PokemonFactory",
								"label": "id",
								"offset": 0,
								"slot": "0",
								"type": "t_uint256"
							},
							{
								"astId": 5,
								"contract": "PersonalRepo/solidity-eth-challenge/contracts/PokemonFactory.sol:PokemonFactory",
								"label": "name",
								"offset": 0,
								"slot": "1",
								"type": "t_string_storage"
							},
							{
								"astId": 8,
								"contract": "PersonalRepo/solidity-eth-challenge/contracts/PokemonFactory.sol:PokemonFactory",
								"label": "skills",
								"offset": 0,
								"slot": "2",
								"type": "t_array(t_uint256)dyn_storage"
							},
							{
								"astId": 11,
								"contract": "PersonalRepo/solidity-eth-challenge/contracts/PokemonFactory.sol:PokemonFactory",
								"label": "types",
								"offset": 0,
								"slot": "3",
								"type": "t_array(t_uint256)dyn_storage"
							},
							{
								"astId": 14,
								"contract": "PersonalRepo/solidity-eth-challenge/contracts/PokemonFactory.sol:PokemonFactory",
								"label": "weaknesses",
								"offset": 0,
								"slot": "4",
								"type": "t_array(t_uint256)dyn_storage"
							}
						],
						"numberOfBytes": "160"
					},
					"t_struct(PokemonSkill)22_storage": {
						"encoding": "inplace",
						"label": "struct PokemonFactory.PokemonSkill",
						"members": [
							{
								"astId": 17,
								"contract": "PersonalRepo/solidity-eth-challenge/contracts/PokemonFactory.sol:PokemonFactory",
								"label": "id",
								"offset": 0,
								"slot": "0",
								"type": "t_uint256"
							},
							{
								"astId": 19,
								"contract": "PersonalRepo/solidity-eth-challenge/contracts/PokemonFactory.sol:PokemonFactory",
								"label": "name",
								"offset": 0,
								"slot": "1",
								"type": "t_string_storage"
							},
							{
								"astId": 21,
								"contract": "PersonalRepo/solidity-eth-challenge/contracts/PokemonFactory.sol:PokemonFactory",
								"label": "description",
								"offset": 0,
								"slot": "2",
								"type": "t_string_storage"
							}
						],
						"numberOfBytes": "96"
					},
					"t_struct(PokemonType)29_storage": {
						"encoding": "inplace",
						"label": "struct PokemonFactory.PokemonType",
						"members": [
							{
								"astId": 24,
								"contract": "PersonalRepo/solidity-eth-challenge/contracts/PokemonFactory.sol:PokemonFactory",
								"label": "id",
								"offset": 0,
								"slot": "0",
								"type": "t_uint256"
							},
							{
								"astId": 26,
								"contract": "PersonalRepo/solidity-eth-challenge/contracts/PokemonFactory.sol:PokemonFactory",
								"label": "name",
								"offset": 0,
								"slot": "1",
								"type": "t_string_storage"
							},
							{
								"astId": 28,
								"contract": "PersonalRepo/solidity-eth-challenge/contracts/PokemonFactory.sol:PokemonFactory",
								"label": "description",
								"offset": 0,
								"slot": "2",
								"type": "t_string_storage"
							}
						],
						"numberOfBytes": "96"
					},
					"t_uint256": {
						"encoding": "inplace",
						"label": "uint256",
						"numberOfBytes": "32"
					}
				}
			},
			"userdoc": {
				"kind": "user",
				"methods": {},
				"version": 1
			}
		}
	}
}